:100000000C9418030C9435030C9435030C943503AD
:100010000C9435030C9435030C9435030C94350380
:100020000C9435030C9435030C94BD2A0C94792A56
:100030000C94BA2B0C9435030C9435030C943503B3
:100040000C9435030C9435030C9435030C94350350
:100050000C9435030C94962B0C9435030C943503B7
:100060000C9435030C9435030C9435030C94350330
:100070000C9435030C9435030C9435030C94350320
:100080000C9435030C9435030C9435030C94350310
:100090000C9435030C9435030C9435030C94350300
:1000A0000C9435030C9435030C94350305010902B7
:1000B000A10185020901A100050919012905150001
:1000C00025019505750181029501750381010501E1
:1000D000093009311581257F950275088106093897
:1000E0001581257F950175088106050C0A380215D2
:1000F00081257F950175088106C0C005010980A191
:1001000001850319012AB700150126B7009501756D
:10011000108100C0050C0901A101850419012AA064
:1001200002150126A002950175108100C005010984
:1001300006A1018506050719E029E71500250195A7
:1001400008750181020507190029EF1500250195A1
:10015000F0750181020508190129059505750191C0
:1001600002950175039101C00660FF0961A10109B3
:1001700062150026FF0095207508810209631500AD
:1001800026FF00952075089102C005010906A1010E
:10019000050719E029E71500250195087501810279
:1001A0009501750881010507190029FF150026FF33
:1001B0000095067508810005081901290595057542
:1001C000019102950175039101C0FD377A585A00DB
:1001D0000004E6D6B4460200210116000000742F88
:1001E000E5A3E0012D007A5D003D8889A654750ADB
:1001F00036E182AEFA7A1AA6FCA2ED4951391A5EAE
:100200007177BBD0558A5F04BCAA647EE5D3B498ED
:1002100057C974860BD13C57B902472BB86A9A610B
:10022000CB6AFFE9AF3229D96405C140D95A6C7055
:100230000A8089751B330F5799C1CE82DFC5582FAD
:10024000827E6DB3DA15F95DE2AB189C5626819A71
:100250001DF0F08D735B9EA2F1A6147A7FE1DF5949
:1002600062085500000063FD32FF6A7F99DF0001DC
:100270009601AE0200006BB23A9BB1C467FB02006C
:1002800000000004595A14001A0008001500170055
:100290001C0018000C0012001300040016000700D8
:1002A00009000A000B000D000E000F002A001D625D
:1002B0001B00060019000500110010003600370071
:1002C000387229000000E000E2002C682B4128422F
:1002D0002900000000002D022D002E022E00330206
:1002E0003500BC00AE00BB004C002F0226022702E6
:1002F0003002310229005000520051004F002F629D
:1003000034003402300033003502AA00A800A900EE
:100310003172010001000100010001000100010033
:100320000100010001001E021F0220022102220220
:1003300023022402250239002A001E001F0020008B
:100340002100220023002400250026002700E100D0
:1003500000000000000003510000000036003700DC
:1003600038720100010001000100010001000100DC
:10037000010001000100000000000000000000007A
:10038000000000000000000000003A003B003C00BC
:100390003D003E003F004000410042004300440059
:1003A00000000000005C01000000000000000000F0
:1003B00045000100010001000100010001000100F1
:1003C00001000100010001000100F003CB0DFE0D52
:1003D000000002000200EC03CB0DFE0D0000030044
:1003E0000100F103CB0DFE0D000004000200D60356
:1003F000CB0DFE0DE70605000100F203CB0DFE0D4F
:10040000000006000200D803CB0DFE0D000007001F
:100410000200EE03CB0DFE0D000008000100F30307
:10042000CB0DFE0D000009000200DA03CB0DFE0D1E
:10043000C2060A000200DC03CB0DFE0DC2060B0053
:100440000200DE03CB0DFE0DC2060C000200E0032D
:10045000CB0DFE0DC2060D000200E203CB0DFE0D1A
:10046000C2060E000200E403CB0DFE0DC2060F0013
:100470000200E603CB0DFE0DC20610000200E803E9
:10048000CB0DFE0DC20611000200EA03CB0DFE0DDE
:10049000C20612000200F403CB0DFE0D0000130093
:1004A0000200F603CB0DFE0D000014000100F8035E
:1004B000CB0DFE0D000015000000000048065A1587
:1004C000000009025B00030100A0FA09040000011A
:1004D00003010100092111010001224000070581EB
:1004E00003080001090401000203000000092111B2
:1004F00001000122220007058203200001070503F5
:100500000320000109040200010300000009211179
:1005100001000122BC000705840320000112010034
:1005200002000000084B5301000001010203011CFE
:10053000037600690061006C003A00660036003402
:1005400000630032006200330063000000120353B6
:100550000063006F00740074006F0034003000000E
:10056000001803530063006F00740074006F004BA9
:1005700000650065006200730000000403090400C8
:10058000000000000000000000000000000000006B
:10059000000000000000000000000000000000005B
:1005A0000000007E0F00D4FFFFFFC70000007800AE
:1005B000000000000000002A2B28000000000000BE
:1005C0000000000000000000000029000000002CD6
:1005D0001E3420212224342627252E362D37382775
:1005E0001E1F202122232425263333362E37381F81
:1005F0000405060708090A0B0C0D0E0F1011121343
:100600001415161718191A1B1C1D2F3130232D35E0
:100610000405060708090A0B0C0D0E0F1011121322
:100620001415161718191A1B1C1D2F3130354C00C4
:1006300011241FBECFEFDAE0DEBFCDBF11E0A0E096
:10064000B1E0ECE4F9E602C005900D92A037B107E5
:10065000D9F724E0A0E7B1E001C01D92AF3FB20797
:10066000E1F70E94E12B0C9479340C940000E8ED42
:10067000F0E080818E7F80831092E2001092DA0099
:100680001092E100A0EEB0E08C9181608C938081AB
:100690008F77808319BCA7EDB0E08C918E7F8C930F
:1006A00080818F7E80831092CE0408952091E40093
:1006B0003091E50095E6A9012091EC00822F817030
:1006C00020FF06C08091E80080FF06C080E008950A
:1006D0002091E80022FD1AC08091FC04882389F053
:1006E000853089F08091EB0085FD0FC02091E400FA
:1006F0003091E50042175307F9F29150E1F684E09A
:10070000089582E0089583E0089581E00895EF92CE
:10071000FF920F931F93CF937C018B010E9456038E
:10072000C82F811117C08091E80085FD0BC0809112
:10073000E8008E778093E8000E945603882399F39F
:10074000C82F08C0F70181917F018093F10001500B
:10075000110949F78C2FCF911F910F91FF90EF90C6
:100760000895CF93FC018091FC04843001F5C09181
:10077000E900CF702091EC00922F917020FD90E85D
:10078000C92B82E08093E9008091E80080FF0CC0D3
:1007900050E040E060E270E0CF010E94870380916A
:1007A000E8008E778093E800CF70C093E900CF9186
:1007B00008958091F40487FF13C08091E80082FFC0
:1007C00006C08091E8008B778093E80004C0809198
:1007D000FC048111F2CF08958091FC048823D9F3A1
:1007E0008091E80080FFF8CF8091E8008E77ECCF11
:1007F000982F9093E900242F762F50E0891731F03D
:100800007091EC002091ED005091F00021FD07C0A7
:100810009F5F973071F78093E90081E008953091F0
:10082000EB003E7F3093EB003091ED003D7F309345
:10083000ED003091EB0031603093EB007093EC00F1
:100840002093ED005093F0002091EE0027FDE0CFC3
:1008500080E00895B0E0A0E0E0E3F4E00C94CC3355
:10086000C8EDD0E088818F7E8883E7EDF0E080815D
:100870008160808384E082BF81E08093CE048881A0
:100880008E7F888302EE10E0F80110821092DA0069
:1008900081EEC82ED12CF601108288818F77888353
:1008A00088818068888388818F7D888319BC1092B5
:1008B000FC041092F3041092F2041092F10490EEF2
:1008C000E92EF12CF70180818B7F80838881816004
:1008D000888342E060E080E00E94F803F6018081B6
:1008E0008E7F8083F8018081816080838081886031
:1008F0008083F70180818E7F8083888180618883F7
:10090000CDB7DEB7E8E00C94E833FC018091FA043F
:100910009091FB0486179707A0F06115710529F4E3
:100920009091E8009E779093E80090E06115710542
:1009300051F4911108C08091E80082FF34C080E03A
:100940000895BC01F2CF8091FC048823C1F1853069
:10095000C1F18091E80083FD30C08091E80082FD04
:10096000EACF8091E80080FFE1CF8091F3002091F1
:10097000F200382F6115710519F02830310558F053
:1009800091E02830310509F090E02091E8002E77C1
:100990002093E800CBCF81918093F10061507109E1
:1009A0002F5F3F4FE7CF8091FC04882341F08530D3
:1009B00041F08091E80083FFBECF81E0089582E09E
:1009C000089583E0089508958091D004089587E7FD
:1009D00097E7909301088093000888E19AE00FB6AA
:1009E000F894A895809360000FBE90936000FFCFAD
:1009F0009C014FB7F8948091C5049091C604A091D2
:100A0000C704B091C8044FBF821B930B08952FB742
:100A1000F8946091C5047091C6048091C7049091C8
:100A2000C8042FBF08952FB7F8948091C504909102
:100A3000C604A091C704B091C8042FBF08952091A7
:100A400019012223C1F02091C90427FF14C0E62F09
:100A5000E695E695E695EE31F8F4E80FF92FF11DED
:100A6000677021E030E001C0220F6A95EAF78281C9
:100A7000822B82830895FC0132962FEF30E0419162
:100A8000641751F02F3F19F4411101C0232F3F5F2C
:100A90003630A9F72F3F09F40895820F911D27FDE5
:100AA0009A95FC01628308952091C2043091C30499
:100AB0002817390771F09093C3048093C204E09122
:100AC000C004F091C104309721F00084F185E02D3D
:100AD000099508952091BE043091BF042817390765
:100AE00071F09093BF048093BE04E091C004F09134
:100AF000C104309721F00680F781E02D0995089513
:100B0000E091C004F091C104309729F00190F08188
:100B1000E02D0995089580E00895CF93DF93EC01CF
:100B20004091AE045091AF046091B0047091B10453
:100B30002FB7F8948091C5049091C604A091C70482
:100B4000B091C8042FBF841B950BA60BB70B843F35
:100B50009140A105B10518F58091AE049091AF04C4
:100B6000A091B004B091B1048093AA049093AB0417
:100B7000A093AC04B093AD0484EF91E0A0E0B0E0AA
:100B80008093A6049093A704A093A804B093A9040B
:100B9000D093B604C093B504DF91CF9108950E941D
:100BA00007056093AA047093AB048093AC04909300
:100BB000AD0482E390E0A0E0B0E0E2CFFC018481EC
:100BC000862351F492819923B9F06923808583FFAC
:100BD00005C081E061110FC080E00895892F8F70FA
:100BE00092959F70982B862F8F7062956F70682BEF
:100BF00081E09613F1CF089581E0FDCF452B39F0C8
:100C0000682381E06F3F09F080E08170089581E002
:100C1000FCCFDC016091A2048091A304962F89137C
:100C200001C00895292F30E0F901EE0FFF1FE656AD
:100C3000FB4F408151814A175B07A1F487E08A9FEF
:100C4000A0018B9F500D11244E595B4F81E0FA019A
:100C500084839613E6CF2F5F3F4F23703327209373
:100C6000A20408952F5F3F4F922F9370D8CF109218
:100C7000FF031092FE03E2E6F4E08581811102C0D9
:100C800014821682379684E0EA39F807B1F708959E
:100C9000B0E0A0E0EEE4F6E00C94CA338FEF9FEFF3
:100CA0004430510508F469C04091C90441FB8827CC
:100CB00080F990E0880F991F42FB002700F910E0AF
:100CC000000F111F000F111F802B912B40FBCC2414
:100CD000C0F8D12C8C299D2943FB222720F9C22F53
:100CE000E0E0DE2F53E0CC0FDD1F5A95E1F78C2BAF
:100CF0009D2B44FBAA27A0F9B0E0E4E0AA0FBB1F9C
:100D0000EA95E1F78A2B9B2B45FBEE27E0F9F0E013
:100D1000A5E0EE0FFF1FAA95E1F78E2B9F2B46FB58
:100D2000222720F930E0B6E0220F331FBA95E1F711
:100D3000822B932B47FB222720F930E03695322F68
:100D4000222737952795822B932B2091CA04322F87
:100D50003170F32EE82EF92A26952170B22EBB0CA5
:100D6000A82EBF28C501BB0CAA0BBB0BFB018083BF
:100D70009183A283B38390E080E0CDB7DEB7EAE051
:100D80000C94E633E6EDF3E0848195812AE030E0CF
:100D9000B9010E948D336093140186818093130101
:100DA00082858093120184858093110186859785C1
:100DB000B9010E948D3360931001808980930F01E7
:100DC000828980930E01848980930D01089580911A
:100DD000D6039091D703909316018093150108953F
:100DE000E4E6F2E090E080E06EED79E245E05AE280
:100DF00023E539E2778366835187408733872287EB
:100E00009587848701963E968830910599F70895D5
:100E100081152CE5920741F42091AF033091B00386
:100E2000232B11F490E080E008950E9413059C01AB
:100E300090914E0280914F02982B21F030934B02FB
:100E400020934A029091500280915102982B21F0F8
:100E50003093490220934802E091C004F091C1040C
:100E6000309749F082E080934C020480F581E02DB8
:100E70008CE492E00995089590914E02803F59F4D8
:100E800080914F0287FF0DC010924F0291110BC04D
:100E90001092460208C0813F81F480914F021816DB
:100EA0009CF3992381F08091500290915102892BFB
:100EB00009F064C0109245020895823F49F497FFFB
:100EC000F0CF10924E0280914F028111ECCFE0CF13
:100ED000833F19F41916ACF3E4CF20915002893FF7
:100EE00029F41216F4F610925002DBCF8A3F19F45F
:100EF00027FFD7CFF8CF209151028B3F29F427FF4E
:100F0000D0CF10925102CDCF8C3F19F41216CCF3F2
:100F1000C8CF843F31F480914D028E7F80934D0283
:100F2000C0CF853F21F480914D028D7FF7CF863F62
:100F300021F480914D028B7FF1CF873F21F4809186
:100F40004D02877FEBCF883F21F480914D028F7E49
:100F5000E5CF8D3F31F4809147028E7F8093470229
:100F6000A0CF8E3F21F4809147028D7FF7CF8F3F36
:100F700009F097CF809147028B7FF0CF0895809141
:100F8000470280FF0CC060910E0170E07595679577
:100F9000759567956115710549F1862F089581FF53
:100FA00006C060910E0170E075956795F3CF609172
:100FB0000E0182FD0BC0909145029923A1F0609132
:100FC0000D0180910E01961738F0682F70E060389F
:100FD000710500F38FE70895899FC001112470E027
:100FE0000E94A133F4CF61E070E0D7CF81E0089593
:100FF000809147026091DE037091DF0380FF16C08D
:1010000020911201269FC001279F900D1124BC0141
:1010100076956795769567956038710508F043C0B9
:101020006115710509F441C0862F089581FF0BC039
:1010300020911201269FC001279F900D1124BC0111
:1010400076956795E9CF82FF09C0809112019B01D7
:10105000829FB001839F700D1124DECF2091460244
:101060002223D1F29091110180911201482F50E07A
:10107000291748F0CB01849FB001859F700D949F84
:10108000700D1124C9CF289F90011124269FA00123
:10109000279F500D369F500D1124692F70E0CA0113
:1010A0000E948D33B9CF8FE7089581E00895803F86
:1010B00031F40E94F807819580934F020895813F93
:1010C00019F40E94F807F8CF823F31F40E94F80724
:1010D000819580934E020895833F19F40E94F8078A
:1010E000F8CF893F29F40E94BF07809350020895EA
:1010F0008A3F21F40E94BF078195F7CF8B3F31F4DF
:101100000E94BF0781958093510208958C3F19F486
:101110000E94BF07F8CF843F31F480914D02816077
:1011200080934D020895853F21F480914D028260A5
:10113000F7CF863F21F480914D028460F1CF873F45
:1011400021F480914D028860EBCF883F21F480919B
:101150004D028061E5CF8D3F31F48091470281607F
:101160008093470208958E3F21F480914702826068
:10117000F7CF8F3FB9F7809147028460F1CF80E0CD
:101180000895F894E82FE295EF70F0E031A1282F50
:101190002F7081E090E001C0880F2A95EAF7982F20
:1011A0009095932391A392A1892B82A3789408957B
:1011B0009091C90492FF06C0282F28712830F9F4B5
:1011C000877F846093FF06C0282F28712831F1F4AF
:1011D000877E84612091CA0420FF06C0382F3871B1
:1011E0003830D9F4877F816021FF06C0282F28710D
:1011F0002831D1F4877E816194FD877E0895282F60
:1012000024712430F9F68B7F8860DCCF282F24717D
:10121000243101F78B7E8861DDCF382F3171313079
:1012200019F78E7F8860E0CF282F2171213121F7B7
:101230008E7E8861E1CFCF93DF93EC0182389105F8
:10124000B1F108F040C08133910509F49DC048F523
:101250008932910509F48DC08A9709F49CC0C115A3
:1012600021E5D20708F0C3C0C11530E5D30708F067
:101270001EC1C83ED10508F0A3C0C03ED10588F507
:10128000C83AD10508F08EC0C53AD10508F007C1AB
:10129000C130D10531F1209721F1C430D10508F5D5
:1012A00045C08533910509F45FC0C997C1F68091A7
:1012B000C904837009F044C18091CA0483FF11C03E
:1012C000C9E2D0E00EC0833E910599F170F4803EF2
:1012D000910501F1823E910511F68091C90482FDCC
:1012E00021C0CE01DF91CF910895863E910561F135
:1012F000873E910571F1843E910509F0B0CF809150
:10130000CA0481FFEECF8091C904C7EED0E084FD0E
:101310000DC0E7CF8091C90480FD33C09091CA040D
:1013200090FFDFCFC3EED0E084FFDBCFD0E0C0E0A2
:10133000D8CF8091C90482FD00C19091CA0490FD6C
:10134000FFC084FFCECFF2CF8091C90483FDDDCFF3
:10135000C8CF8091C90483FDF6C09091CA0491FF63
:10136000F0CFC4EED0E0BDCF8091C90485FFB9CFE6
:10137000A7CF8091C90485FDE9C08091CA0483FF8D
:10138000B0CFC9E3D0E0ADCF8091C90486FFA9CF2B
:10139000CAE2D0E0A6CF8091C90486FFA2CFC1E304
:1013A000D0E09FCFCF3BD10508F6C85AD0E0CC0F94
:1013B000DD1FCB5DDE4F0990D881C02DD46491CF65
:1013C000C11540E2D40758F4C11581E0D80708F0F0
:1013D00088CFC03FD10508F4A9CFD06582CFC11511
:1013E00020E4D20708F4A2CFDF70D06A7ACFC1150B
:1013F00035E5D30718F5C11544E5D40708F085C0D5
:10140000C11583E5D80708F06CC0C11522E5D207E5
:1014100008F462C0CE018370992721E030E002C059
:10142000220F331F8A95E2F7C695C69580E2C89FC2
:10143000E0011124C22BD32BDC6853CFC11539E551
:10144000D307A8F4C11548E5D40708F063C0C11557
:1014500086E5D80708F06ACF8C2F0E94D808C82FDD
:10146000D0E0DC2FCC27CC27DF71D0623ACFC1157A
:101470002AE5D20708F453C0CE0190568115904258
:1014800008F054CF8D2F8F710E94D80890E0982FCC
:10149000882788279F719C012C2BE901E6CFC55A2C
:1014A000D0E0CE5DDE4FC881D0E0D0641ACF2C2FC3
:1014B00026952695237040E2249F900111248C2FBD
:1014C0008370C1E0D0E002C0CC0FDD1F8A95E2F747
:1014D000C22BD32BDD6805CFDC2FCC27C16FD06AA0
:1014E00000CFCE018370992721E030E002C0220FA7
:1014F000331F8A95E2F7C695C69540E2C49FE00186
:101500001124C22BD32BDA68ECCEDC2FCC27C46F8E
:10151000D06AE7CEDC2FCC27C06FD06AE2CE8C2F0A
:101520008F700E94D80834E0D695C7953A95E1F7B8
:10153000CF709C2FEC01D069D4CEC2EED0E0D1CEDA
:10154000C0EED0E0CECEC6EED0E0CBCEC5E3D0E04C
:10155000C8CE80911602882331F0109216021092A4
:101560001502109214020895CF93C82F8091CA04D7
:1015700082FF0CC0809116028C1741F00E94130567
:101580009093150280931402C0931602CF91089590
:1015900080959091FE0498239093FE040895809581
:1015A0009091B50398239093B50308959091B50356
:1015B000892B8093B50308951092F3011092F201E4
:1015C0001092F10108958091D8039091D903892B4D
:1015D00089F00E9413052091140230911502AC018C
:1015E000421B530B81E02091D8033091D90342175D
:1015F000530708F480E081700895909119019923B0
:10160000D1F09091C90497FF16C0E82FE695E695B2
:10161000E695EE31E0F4F0E0EE58FE4F282F27700B
:1016200081E090E001C0880F2A95EAF780959281C9
:10163000892382830895E4E7F1E09191891303C03F
:10164000DF0111971C9291E0EA37F907B1F708958D
:101650002091F0019091AF01291302C080E008951C
:1016600030E0F90153E0EE0FFF1F5A95E1F7E05526
:10167000FE4F5181561306C05081581303C052814A
:10168000541304C02F5F3F4F2770E6CF81E00895C9
:101690008091F0019091AF01981301C008958F5F80
:1016A0008770FACF292F943078F58A3068F590E06A
:1016B0003AE0239F800D911D1124682F677023E06D
:1016C000969587952A95E1F7FC01EE0FFF1FE80F2D
:1016D000F91FE856FE4F50E040E080E0219130E0F5
:1016E000062E02C0369527950A94E2F7217033271B
:1016F000042E01C0220F0A94EAF7822B4F5F5F4F3E
:101700004330510559F7089580E00895292F94300A
:1017100098F58A3088F590E03AE0239F800D911D7E
:101720001124282F277041E001C0440F2A95EAF7C1
:1017300023E0969587952A95E1F7FC01EE0FFF1FB0
:10174000E80FF91FE856FE4F30E020E070E05191BD
:10175000DF011197CB01022E02C0969587950A945E
:10176000E2F7817081958527842385278C932F5FED
:101770003F4F2330310559F7089592959F70963069
:1017800091F058F4925F9F70923058F4803F19F0B6
:1017900030F4883E30F481E008959A5FF4CF843FBE
:1017A000D1F380E00895883EB0F3813FD1F7F3CFC5
:1017B0009C013A9521153F4150F5FC01EE27F1704F
:1017C000BC0166277270AC01442754709C0122272B
:1017D000387094FF0EC080E1EF2B09F480E0672B96
:1017E00009F08062452B09F08064232B89F0806822
:1017F000089581E0EF2B09F480E0672B09F0826007
:10180000452B09F08460232B19F08860089580E04F
:1018100008958093CB047093CD046093CC048091A1
:10182000FC048430F9F48093E9008FEF9091E80094
:10183000815095FD06C095ED9A95F1F70000811154
:10184000F5CF8091E80085FF0DC050E040E063E0F7
:1018500070E08BEC94E00E9487038091E8008E7723
:101860008093E8000895BC0184E00E94090C08956B
:10187000BC0183E00E94090C08959C0184E08093E0
:10188000E9009FEF8091E800915085FD06C085ED4D
:101890008A95F1F700009111F5CF8091E80085FF5E
:1018A0000CC050E040E066E070E0C9010E94870390
:1018B0008091E8008E778093E8000895CF93DF93BE
:1018C000EC01809119018823B1F18091C90487FF4F
:1018D00032C060E284E08093E9008FEF9091E800ED
:1018E000815095FD06C095ED9A95F1F700008111A4
:1018F000F5CF8091E80085FF1BC08091190170E051
:1019000050E040E0811104C050E040E068E070E049
:10191000CE010E9487038091E8008E778093E800D3
:1019200080E2FE01A1EDB4E001900D928A95E1F70D
:10193000DF91CF91089568E081E0CDCF019708F461
:101940000895EFE9FFE03197F1F700C00000F6CF0E
:101950000F931F93CF93DF9306ED13E0C7E6D1E01B
:10196000CE010E942F34F80181938F012196CB384C
:10197000F1E0DF07A9F7C0EDD3E0FE018591949176
:10198000009711F0FC0109952C96F4E0CC3CDF07A0
:10199000A1F7DF91CF911F910F9108950F931F939E
:1019A000CF93DF93843030F5643020F54A3010F562
:1019B000C42FD0E0CC0FDD1F24E1629FC00DD11DEC
:1019C000112430E5839FC00DD11D1124CE018796CF
:1019D0000E942F34082F10E0102F0027CE01889688
:1019E0000E942F349801282BC901DF91CF911F91BC
:1019F0000F91089590E080E0F8CF462F2091B30337
:101A00003091B403232B99F4703F39F4603F79F49B
:101A10008091B1039091B2030895843040F4743002
:101A200030F46A3020F4672F0E94CE0C089590E0C5
:101A300080E00895CF92DF92FF920F931F93CF9390
:101A4000DF936C010091FD0480911702082BC7E021
:101A5000D0E010E0FC2EC8010C2E02C095958795B1
:101A60000A94E2F780FD0CC02197A0F7F12C8F2D8E
:101A7000DF91CF911F910F91FF90DF90CF9008954C
:101A8000B6018C2F0E94FD0C0E941B09019761F387
:101A9000EECFCF93DF93EC010E941A0DBE010E949E
:101AA000FD0C0E941B09DF91CF910895CF93DF9326
:101AB000EC014B815C81698188810E94FE05811166
:101AC00010C08E819F81009739F00E941B090E94EF
:101AD000BD0BDF91CF910895888199810E94490DB6
:101AE000F6CF80E0F6CFA5E0B0E0E9E7FDE00C94AA
:101AF000D13349835A8389819A81662399F02223BD
:101B000089F00E941A0D182F682F89819A810E94EE
:101B1000860B69817A81812F0E94FD0C2596E3E076
:101B20000C94ED330E94520B182FF3CFFC01262F9B
:101B300086819781009739F4408151816281738158
:101B400084810E94730D089583E290E00E942F34F7
:101B50008B3989F484E290E00E942F34883A59F45A
:101B600085E290E00E942F3491E08F3409F090E0FC
:101B7000892F8170089580E0FCCFCF9384E090E0BE
:101B80000E942F34C82F82E290E00E942F34982FB9
:101B90008C2FCF910895DB01FC0132962591349171
:101BA0004217530758F0FC01349665917491A901CE
:101BB000CD010E940F3490E080E008958FEF9FEFF9
:101BC00008950F931F93CF93DF9306ED13E0C7E6BD
:101BD000D1E0CE010E942F34F80161918F01681786
:101BE00019F0CE010E943D342196CB38F1E0DF0799
:101BF00081F7DF91CF911F910F910895DA019C0138
:101C00002E5F3F4FF90145915491F901259134918F
:101C1000A217B30758F0FC013496859194910E9465
:101C20000F340E94E10D90E080E008958FEF9FEF68
:101C30000895CF93DF93CBE7D2E060E0CE010E941E
:101C40003D342196C11584E0D807B9F7DF91CF91D3
:101C500008951F93CF93DF93122F8430E0F4643004
:101C6000D0F44A30C0F4C42FD0E0CC0FDD1F94E193
:101C7000699FC00DD11D112490E5899FC00DD11D14
:101C80001124632FCE0187960E943D34612FCE012F
:101C900088960E943D34DF91CF911F910895CF9394
:101CA000C82F6FEF81116BE983E290E00E943D3411
:101CB0006FEFC11168EA84E290E00E943D346FEF5B
:101CC000C1116FE485E290E00E943D34CF91089508
:101CD000CF93C92F682F84E090E00E943D346C2F91
:101CE00082E290E00E943D34CF9108959B018830BC
:101CF00070F49AE0899FB001112465577E4F4AE045
:101D000050E0C9010E941F3490E080E008958FEFF9
:101D10009FEF0895AAE0B0E0E0E9FEE00C94D23332
:101D20009C0137552F3F310509F068F4BE016F5F04
:101D30007F4F0E94760E892B31F489859A852A96E9
:101D4000E2E00C94EE338091EE039091EF03F7CF35
:101D5000AAE0B0E0EEEAFEE00C94C83307E313E03B
:101D600085E2C82E83E0D82E9BE2E92E92E0F92E80
:101D700027E0922E34E2A32E33E0B32E88248394FE
:101D8000D6010D931D936D014AE050E0B701CE01DD
:101D900001960E941F34F8013896DF01892D1D92AB
:101DA0008A95E9F789819A81D80111969C938E933F
:101DB0008F8112968C9312978D8113968C93139723
:101DC000888514968C931497898515968C9315970E
:101DD0008B819C8117969C938E93169718961C92D4
:101DE00018978A8587FF3CC01E961C921E921D97ED
:101DF00080FF03C0D80118968C9281FF04C0F801BF
:101E000090859260908782FF07C0D80118969C91B8
:101E10001897946018969C9383FF04C0F8019085EE
:101E20009860908784FF07C0D80118969C911897F6
:101E3000906118969C9385FF04C0F80180858062AC
:101E40008087015F1F4FFAE0EF0EF11C8BE7E81669
:101E500082E0F80609F094CF2A96ECE00C94E43383
:101E6000F801B686A586C4CFAAE0B0E0EAE3FFE0B9
:101E70000C94CC33E4EDF2E080E5DF011D928A950D
:101E8000E9F7E2E6F4E088E3DF011D928A95E9F7DD
:101E900084EDC82E82E0D82E7F010BED11E0F70112
:101EA000D182C0824AE050E0B801CE0101960E9482
:101EB0001F3488E0FE013196D60101900D928A957B
:101EC000E1F789859A85D70113969C938E93129793
:101ED000BAE0CB0ED11CE7E0EE0EF11C065F1F4FFF
:101EE0000B32F2E01F07D9F62A96E8E00C94E833AB
:101EF000A8E0B0E0EEE7FFE00C94C8338E010F5F7E
:101F00001F4F88E0F80111928A95E9F793E5E92ED1
:101F100091E0F92E6801AA24A394B12CF7018191D4
:101F20007F018F3F09F446C0F894E82FE295EF70E7
:101F3000F0E021A18F70A50102C0440F551F8A95C2
:101F4000E2F7CA01922F982B91A392A18095892341
:101F500082A3789400C0E7E5F1E021E030E0912C25
:101F6000812C41914F3F09F467C0A42FA295AF7017
:101F7000B0E090968C9190E04F7002C09595879557
:101F80004A95E2F780FD58C0C901882A992A220F94
:101F9000331F51E0E136F50721F7F70131978081D2
:101FA0008F3F11F00E94C10880EA8A95F1F7F6018F
:101FB00091828082F2E0CF0ED11C47E5E41641E029
:101FC000F40609F0ABCF48E050E0B8018BE192E0B5
:101FD0000E940234892B99F188E0F801ABE1B2E06C
:101FE00001900D928A95E1F781E080931A020E9498
:101FF0001305909319028093180280911802909112
:1020000019020E94F8040597F0F048E050E06BE1F7
:1020100072E08DE392E00E940234892BC9F088E0DF
:10202000EBE1F2E0ADE3B2E001900D928A95E1F7C9
:1020300081E010921A0208C090E080E0A6CF809163
:102040001A028111DACF80E02896ECE00C94E43398
:1020500080E0EFCFCF938091B5039091FE04892B60
:102060008093720180911602882329F18091D80310
:102070009091D903892B29F00E94E30A81110E94D3
:10208000A90A8091720190911602892B80937201A6
:1020900080911901882309F447C08091C90487FF02
:1020A00043C08EE1E4E7F1E090E0815008F03EC0EB
:1020B00091110E94A90AC091B204C0958091720149
:1020C000C8238091B304C82BC093720140E250E052
:1020D00064EF71E082E791E00E940234892B11F1F4
:1020E00080E2E2E7F1E0A4EFB1E001900D928A9581
:1020F000E1F7E091C004F091C104309799F080912C
:102100001901882349F08091C90487FF05C0C09355
:10211000730186E0809372010280F381E02D82E7F3
:1021200091E00995CF91089586E0BCCF21912223BB
:1021300009F4BBCF9F5FB9CFCF93DF93EC01EA8562
:10214000FB85309719F06C857D8509958B810E9400
:10215000C80A8C810E94CF0A0E942A1086E0FE01E4
:1021600011928A95E9F7DF91CF910895CF93DF938C
:10217000EC018D8181FD15C082608D838091FE040C
:102180009B81892B8093FE048C810E94D60A0E9439
:102190002A10E885F985309721F06C857D85CE0180
:1021A00009951092BD041092BC048D8180FD03C07E
:1021B000CE010E949C10DF91CF910895809117016C
:1021C000877F8093170182E00E94C80A80911701DF
:1021D00084FF06C08F7E8093170182E00E94D60A9A
:1021E0008091170185FF06C08F7D8093170180E2E3
:1021F0000E94D60A0E942A10089590E080E00E9472
:102200006A0590E080E00E9454051092FE040E944E
:102210002A1086E0ECE4F2E0DF011D928A95E9F7EE
:102220001092460210924502109247020E94150732
:1022300008958093FD040E94FD1008958091FD048F
:10224000982F9670963021F488600E941911089595
:10225000877FFBCF21E030E001C0220F8A95EAF7AB
:1022600020958091FD0482230E9419110895909178
:10227000F301809589238093F301282F277091F42F
:10228000282F082E000C330B9217130659F090914B
:10229000CA0492FF07C08595859585950E942A11ED
:1022A0000E94DC0A08959091CA0492FB222720F92B
:1022B000281769F080FB92F99093CA048091C904B1
:1022C0009091CA040E94680E82E00E94371108951E
:1022D00021E030E001C0220F8A95EAF78091FD04E9
:1022E000822B0E94191108959091CA0492FF10C088
:1022F00098E0899F90011124622B6093F3010E9462
:1023000068110E9413059093F2018093F1010895E2
:102310000E9468110895809317020E94FD1008958D
:102320001092B50380911901E4E7F1E0882361F090
:102330008091C90487FF08C08EE1DF011D928A9554
:10234000E9F70E94FD10089586E0F7CFAAE2B0E019
:10235000ECEAF1E10C94D13384EF94E02091F100A8
:10236000DC012D93CD01B4E08C3F9B07B9F7809140
:10237000F504833009F472C0B8F4813009F449C01F
:10238000823009F4B3C08091E80083FF96C2809147
:10239000F4049091F5049A3008F08FC2E92FF0E030
:1023A000E558FB4C0C94B5338A3009F48EC08B3061
:1023B00009F471C0893039F78091F404813219F73A
:1023C0008091F8049091F904009711F00297D9F6E2
:1023D0008091E800877F8093E8008091E80082FF89
:1023E00038C09091F3008091F200029731F480910F
:1023F000F100813011F0863021F48091F10080935A
:10240000D0048091E8008B778093E8000E94D90384
:10241000BACF8091F404813A09F0B5CF8091E800F9
:10242000877F8093E8008091F8049091F904892BCC
:1024300061F460E281ED94E070E00E948504809197
:10244000E8008B778093E8009ECF60E090E080E02A
:10245000F3CF8091FC048111C0CF95CF8091F4041B
:10246000813A09F090CF8091F8049091F904892B7A
:1024700009F089CF8091E800877F8093E800809100
:10248000E80080FFFCCF809119018093F1008091DA
:10249000E8008E77B9CF8091F404813209F073CFD0
:1024A0008091F8049091F904892B09F06CCF809108
:1024B000E800877F8093E8000E94D9038091F604AA
:1024C000809319010E9490115ECF8091F4048132B3
:1024D00009F059CF8091E800877F8093E8000E943F
:1024E000D9038091F7048093CF044DCF8091F404F9
:1024F000813A09F048CF8091E800877F8093E80017
:102500008091E80080FFFCCF8091CF04BECF80385F
:1025100099F0823809F0D1C18091F8048F7087302A
:1025200008F0CBC18093E9008091EB0085FB882700
:1025300080F91092E90006C08091F1049091F204B4
:10254000911182609091E800977F9093E8008093CA
:10255000F1001092F1008091E8008E77AAC18823E3
:1025600009F498C1823009F0A8C18091F604811164
:102570009BC18091F8048F702FEF280F263008F050
:102580009CC18093E9002091EB0020FF8DC1933026
:1025900031F48091EB0080628093EB0085C19091D3
:1025A000EB0090619093EB0021E030E001C0220F3E
:1025B0008A95EAF72093EA001092EA008091EB00F6
:1025C0008860EACF811179C11091F6041F7780915C
:1025D000E3008078812B8093E3008091E800877F7F
:1025E0008093E8000E94D9038091E80080FFFCCF2F
:1025F0008091E30080688093E30082E0111183E022
:102600008093FC045AC18058823008F056C1209152
:10261000F6043091F7042C3DE3E03E07A1F583E09A
:102620008A838AE289834FB7F894DE01139620E00B
:102630003EE051E2E32FF0E050935700E49120FF99
:1026400003C0E295EF703F5FEF708E2F90E0EA30AD
:10265000C0F0C7968D939D932F5F243159F74FBFDC
:102660008091E800877F8093E8006AE270E0CE0105
:1026700001960E9485048091E8008B778093E800A2
:102680001CC1C096E7CF8091F8049091F904432FC4
:1026900055274330510509F44AC078F541305105BA
:1026A00009F485C08BE590E0E2ECF4E0423051059E
:1026B00009F003C12091E800277F2093E8002091D2
:1026C000FA043091FB048217930708F49C0140E060
:1026D0002115310509F070C041116EC08091E800EC
:1026E00082FDC9CF8091FC04882329F2853019F23C
:1026F0008091E80083FFF2CFBECF4132510509F44B
:1027000047C04232510509F0D8C08330910508F026
:10271000D4C0FC01EE0FFF1FEC59FE4F0190F08179
:10272000E02D8F599E4FDC018C9190E01DC0332726
:1027300021303105E9F02115310579F022303105DC
:10274000F9F02330310509F0B8C0EFE2F5E0E4918B
:102750008E2F90E0EFE2F5E007C0EBE7F5E0E491C3
:102760008E2F90E0EBE7F5E0009709F4A6C0A2CF2A
:10277000E1E6F5E0E4918E2F90E0E1E6F5E0F4CFBC
:10278000EDE4F5E0E4918E2F90E0EDE4F5E0ECCFA0
:102790008330910508F091C0880F991FFC01E6591C
:1027A000FE4F0190F081E02D89E090E083CF82E13F
:1027B00090E0EDE1F5E07ECF8091FC04882309F400
:1027C0005ACF853009F457CF8091E80083FD53CF6D
:1027D0008091E80082FD82CF8091E80080FF78CF71
:1027E0009091F3008091F2002115310519F08830A5
:1027F000910550F041E0089709F040E08091E80031
:102800008E778093E80064CF44914093F100319635
:10281000215031090196E8CF803809F04EC08091EF
:10282000E800877F8093E8008091F3048093F100B3
:1028300092CE811142C01091F6041230F0F58091D1
:10284000E800877F8093E8001093F3040E94D90387
:10285000112311F084E005C08091E30087FDFACFD9
:1028600081E08093FC0442E061EC81E00E94F80387
:1028700042E261EC84E00E94F80342E261EC82E013
:102880000E94F80342E260EC83E00E94F80380912A
:10289000FC0413C08091F604813079F481E0933018
:1028A00009F080E08093F2041092E9008091E80042
:1028B000877F8093E8000E94D9038091E80083FF1E
:1028C0000AC08091E800877F8093E8008091EB0048
:1028D00080628093EB00AA96E3E00C94ED33E6ED82
:1028E000F3E0128E138E8FEA90E09183808325E0CF
:1028F000248F88E893E1938382838AE090E0958334
:10290000848344E150E05783468348E050E0518798
:102910004087938782876EE170E075876487978729
:10292000868780E590E0918B808B538B428B48E2C9
:1029300050E0558B448B42E350E0578B468B47E881
:1029400050E0518F408F158E178E168E91A380A365
:1029500022A30E94E10D0E9490111092CA041092CD
:10296000C904EAECF4E08081846080838091C9042A
:102970009091CA040E94680E0E94A80C0895AEE1CE
:10298000B0E0E5ECF4E10C94C733A090AF03B09055
:10299000B00381E090E09093B0038093AF0386E8AA
:1029A000C82E82E0D82E00E0760110E015C0F401B8
:1029B00025913491472D612F802F0E94290E82E0AE
:1029C000880E911C7394EAE07E12F1CFF4E1EF0ED1
:1029D000F11C1F5F143019F04701712CE8CF0F5F15
:1029E00080E5C80ED11C0430F9F60E946F141A82DB
:1029F00019821C821B821E821D8218861F8287E814
:102A000090E09A8789870BE811E04AE050E0B8012E
:102A1000CE0101960E946134065F1F4F0B3DE1E03D
:102A20001E0799F77E01FBE0EF0EF11C8AE0F7012B
:102A300011928A95E9F74AE050E0B801C7010E9477
:102A40006134065F1F4F0B32F2E01F07A1F77E01D2
:102A500085E1E80EF11C8AE0F70111928A95E9F709
:102A60008FEF9FEF9A8F898F87E08E8F4AE050E03B
:102A7000B801C7010E946134065F1F4F0B37F2E0B7
:102A80001F07A1F7B092B003A092AF036E96EDE0DE
:102A90000C94E33380E00E944F0E60E086E290E009
:102AA0000E943D340E94BF140E94190E81E00E94D2
:102AB0004F0E0895CF92DF92EF92FF928FEF9FEF2C
:102AC0004430510508F46AC0FB01C080D180E28027
:102AD000F3800E9490118091C904C0FA80F9B70177
:102AE000A601769567955795479540FB81F9B70103
:102AF000A60122E076956795579547952A95D1F7D7
:102B000040FB82F9B701A60133E0769567955795AA
:102B100047953A95D1F740FB83F9B701A601E4E068
:102B20007695679557954795EA95D1F740FB84F9D7
:102B3000B701A601F5E07695679557954795FA9503
:102B4000D1F740FB85F9B701A601A6E07695679518
:102B500057954795AA95D1F740FB86F9B701A6018D
:102B6000B7E07695679557954795BA95D1F740FBAD
:102B700087F98093C9048091CA04D0FA80F9D1FA08
:102B8000CC24C0F8C0FA81F98093CA048091C904AA
:102B90009091CA040E94680E90E080E0FF90EF9050
:102BA000DF90CF9008950E9490112FEF84E39CE076
:102BB000215080409040E1F700C0000088E19AE099
:102BC0000FB6F894A895809360000FBE90936000B4
:102BD000FFCF882321F00E94C80A0E942A1008957E
:102BE000882339F09091FE04982B9093FE040E9464
:102BF0002A100895882321F00E94CF0A0E942A10EB
:102C00000895882321F00E94D60A0E942A10089570
:102C1000882379F19CEF980F913A28F40E94FD0ADD
:102C20000E942A10089590E2980F983050F487700F
:102C300091E001C0990F8A95EAF7892F0E94CF0A87
:102C4000EFCF9BE5980F933028F490E080E00E944E
:102C50006A05089598E5980F973128F490E080E090
:102C60000E9454050895803F20F00E943C070E9476
:102C700015070895FF920F931F93CF93DF93F82EBC
:102C80000091B7041091B8040115110509F449C069
:102C90001092B6041092B5041092B2041092B304CC
:102CA000D8011696CD91DC919E013A9521153F41B0
:102CB00008F4D07ED1E0C11101C0D0E0D80119964E
:102CC000ED91FC911A97309731F01B966D917C91A4
:102CD00080E00995D823DD2339F08CEF8C0F813A01
:102CE00030F58C2F0E94FD0AFF2099F0E091B70487
:102CF000F091B804808584FD0CC08091B4048823D1
:102D000041F0808191819C0121503109203B3D455A
:102D1000A0F00E942A101092B8041092B7041092EA
:102D2000B404C801CDB7DEB7E5E00C94EB330E94E4
:102D30002A108C2F0E940816D7CF0E948D05E9CF4C
:102D4000CF93DF93EC010E940816CE010E94D80BAE
:102D50009E01205E31092830310510F0CD2B29F479
:102D60000E94FA15DF91CF9108950E94E915FACFDC
:102D7000CF93C82F8823C1F18CEF8C0F813AB0F527
:102D800080911901882301F18091C90487FF1CC03B
:102D9000EC2FE695E695E695F0E0EE58FE4F828141
:102DA00090E04C2F477021E030E002C0220F331F2B
:102DB0004A95E2F782239323892B79F08C2F0E9486
:102DC000FD0A0E942A1009C0E4E7F1E08191C817CA
:102DD000A9F381E0EA37F807C9F76C2F82E791E0A1
:102DE0000E941F050E942A10CF91089580E28C0F47
:102DF000883048F4C77081E001C0880FCA95EAF7AF
:102E00000E94D60AEFCFEBE5EC0FE33040F4F0E0A0
:102E1000EE5DFE4F808190E00E946A05E5CFE8E517
:102E2000EC0FE73150F4F0E0EE0FFF1FEB5DFE4FCB
:102E3000808191810E945405D7CFC03FA8F28C2F8A
:102E40000E9457080E941507CFCF1F93CF93DF939F
:102E5000182FC091F603D091F703893321F0C09168
:102E6000F403D091F503812F0E94B816209739F40E
:102E7000812F0E940816DF91CF911F9108958FE94D
:102E80009FE00197F1F700C000002197EFCFB0E07D
:102E9000A0E0EDE4F7E10C94CA33EC018AE0A82E3F
:102EA0002881222309F48FC02130C9F599818A81B4
:102EB000913021F422960E94251705C0923029F402
:102EC00022960E94B8162196EBCF933021F42296D9
:102ED0000E940816F8CF943011F02196F4CF229674
:102EE00030E020E0AE014F5F5F4F8053990B8A3096
:102EF000910550F02150310930F38FE99FE001979F
:102F0000F1F700C00000F6CFA29EB001A39E700DA5
:102F100011249C01260F371F8981EA01E3CFE22F9C
:102F2000F0E0E155FA4FB490822F8695869586950C
:102F300090E0FC01E156FA4FE4902770F12C022E4C
:102F400002C0F594E7940A94E2F731E0E322FF240B
:102F5000FC01E157FA4FC490D12C022E02C0D59447
:102F6000C7940A94E2F731E0C322DD24FC01E15862
:102F7000FA4F049110E002C0159507952A95E2F7E3
:102F800001701127E114F10419F081EE0E94B816C6
:102F9000C114D10419F086EE0E94B8168B2D0E9440
:102FA0002517C114D10419F086EE0E940816E11409
:102FB000F10419F081EE0E9408160115110509F4BB
:102FC00082CF8CE278CFCDB7DEB7EAE00C94E6335F
:102FD000B0E0A0E0EEEEF7E10C94CA337C015B01B7
:102FE000C42FD22FFC0182818823A9F04093BB0417
:102FF0000E9413059093BA048093B904C77081E0CE
:1030000001C0880FCA95EAF70E940116CDB7DEB756
:10301000EAE00C94E6331091BB04141338C080919D
:10302000B9049091BA040E94F8046C01B701C5017B
:103030000E948A0EC816D90650F5C0E2CD0F1D17A2
:10304000C1F080E2810F883048F4177081E0012ED2
:1030500001C0880F0A94EAF70E94FA15C83048F4B4
:1030600081E09D2F977001C0880F9A95EAF70E9422
:103070000116802F0E942517C83040F6D77081E0D6
:1030800001C0880FDA95EAF70E94FA15BFCFC77022
:1030900081E001C0880FCA95EAF7F6CFCF93DF939E
:1030A000EC010E94D80B9E01205E310928303105C9
:1030B00010F0209741F40E9401168C2F0E94B81640
:1030C000DF91CF9108950E94F015F7CF662329F084
:1030D0002091FE0422602093FE049C0130562115AD
:1030E00040E2340720F0305E2115304108F4992782
:1030F0000E944E180895B0E0A0E0E1E8F8E10C94D9
:10310000CD337C018B01D42E8091170182FF8CC0BE
:10311000C091FC03D091FD03CE15DF0521F0E11431
:10312000F10409F081C0809117018B7F8093170112
:1031300081FD73C08091FA039091FB03A801481BA5
:10314000590B81E020911501309116014217530768
:1031500008F480E08170F82E80911701F0FA81F96F
:1031600080931701FE0183E0F695E7958A95E1F7D4
:10317000EE71FF27EA54FC4F20813181AE014F7080
:10318000552781E090E002C0880F991F4A95E2F729
:10319000FF2009F444C0822B932B9183808380917C
:1031A000B50381FF08C080911701806180931701EA
:1031B00082E00E94CF0A8091B50385FF08C080910C
:1031C000170180628093170180E20E94CF0A6F2D61
:1031D000CE010E946618DD2031F08091F10385FF59
:1031E00002C086FF3BC08091F4039091F5030E94DA
:1031F0009E0C8091FC039091FD039C01305621159B
:1032000040E2340720F0305E2115304108F4992760
:103210000E94A0160E94DE101DC081E09BCF809509
:10322000909582239323B9CFC701992797013056F0
:10323000211540E2340728F0305E2115304108F0B6
:10324000C7010E94A0168091FC039091FD038E158A
:103250009F0501F31093FB030093FA03CDB7DEB78C
:10326000E7E00C94E93368EE7EEF90E080E00E94A6
:103270005B3460E082E090E00E943D3460E083E0F7
:1032800090E00E943D341092170260E084E090E0EC
:103290000E943D3464E082E290E00E943D3460E0B0
:1032A00085E090E00E943D3460E086E090E00E947E
:1032B0003D346FEF87E090E00E943D3440E050E005
:1032C000BA0188E090E00E944F3460E08DE090E029
:1032D0000E943D3440E050E0BA0188E190E00E9455
:1032E0004F3460E087E190E00E943D3440E050E0E0
:1032F000BA018CE190E00E944F3470E060E080E21F
:1033000090E00E945B3440E050E0BA0188E190E038
:103310000E944F3480E00E944F0E0E944A1540E008
:1033200050E0BA018FE090E00E944F3440E050E05E
:10333000BA0183E190E00E944F340895A7E0B0E025
:10334000E4EAF9E10C94C2337C01DC0113964D915F
:103350005C91149711966C9111978C910E94FE05C7
:103360008111EEC061E0C7010E94960D8C01F7014A
:1033700082818823E1F08091BC049091BD04009784
:10338000B1F00817190799F0FEE08F9FC0011124D2
:10339000FC01E759FD4F2081246020838C599D4F0B
:1033A000DC010D931C930E94B6101092FE04F701ED
:1033B0008281882311F40C945E22C80182519F45BA
:1033C000409710F00C9452228FEF93E00E942F341C
:1033D0008111A6C07EEED72ED00E0BE712E0D110E1
:1033E00036C019821A821B821C8299249A94680121
:1033F0002FEFC21AD20AC8010E942F3489831A8281
:10340000882309F48DC0813009F07FC0580132E073
:10341000A30EB11CC6010E942F34C82E8A838823B4
:1034200009F47EC0C5010E942F34D82E8FEF8C0D79
:103430008330D8F4580143E0A40EB11CDB82DD20B8
:1034400021F0CE0101960E9447178501D0CF0115CA
:10345000F4E01F0709F464C0C8010E942F348111F1
:1034600001C0DA940F5F1F4FBACF8BEF8C0D833002
:1034700030F5C8010396DB825C01DD2031F3580191
:1034800054E0A50EB11C0E942F348C838823E9F2EE
:103490008B819C818130AFEF9A0710F0982F88279D
:1034A000B6E0CB1631F0E7E0CE1631F00E94CD2920
:1034B000CCCF0E94A729C9CF0E942E29C6CFF4E005
:1034C000CF12C3CF580124E0A20EB11CC80103964D
:1034D0000E942F34DD2021F1882311F18150990BB6
:1034E000989E9001999E300D11244D2D4150550B01
:1034F000CA01820F931F019708F4A7CFAFE9BFE07D
:103500001197F1F700C00000F6CFCE0101960E949E
:10351000471756019ACF81E00E9468110E941E1140
:103520008091F301877061F0D70112968C91882306
:1035300039F08091CA0482FF03C082E00E943711F3
:103540002796E2E10C94DE3381E00E942A11E6CF57
:1035500082E0FBCF823011F00C949C2280915E02BD
:1035600090915F02892B09F4E7C72EE02C9DC001E2
:103570002D9D900D1124FC01E759FD4F20812E7FD8
:1035800020838C599D4F0E94B610D6C781E080934E
:103590000001C6CF80910001882309F4AFC648011D
:1035A00020EE821A91084090160280919501482AD7
:1035B0008091B503482A38E08316910408F086C04C
:1035C00098012770332781E090E001C0880F2A9589
:1035D000EAF7552009F477C0482AD7018D919C91CC
:1035E0000E94520B21E030E0F90102C0EE0FFF1FF4
:1035F0008A95E2F7FF83EE832090B7043090B804F9
:1036000060909201709093011D822D81E22FF0E075
:10361000EE0FFF1FEB5DFC4FC080D180C114D104C1
:1036200009F4D0C6411005C0D60112968C918111C3
:1036300089C0F601838190E02E813F81822393230C
:10364000892B09F47FC08085982F977009F487E053
:1036500038E08316910408F053C0552009F44CC09B
:1036600086958170882309F46DC0D601AD90BC9019
:103670000A151B0519F4552009F464C0C214D304BB
:1036800009F460C0D6011D96ED91FC91309721F0B0
:103690008081882309F456C0642DC6010E94DE058E
:1036A000882309F44FC00A151B0509F099C70115B5
:1036B000110509F49AC751109AC7A614B70409F066
:1036C00041C0512C94C78095482287CF552009F4DA
:1036D00062C610939301009392010E9407056093C4
:1036E000AE047093AF048093B0049093B104109231
:1036F000B6041092B50471CF82FB882780F9B2CF4F
:10370000552001F18170AECF0E9408168EC7049734
:10371000813A910558F46A2D82E791E00E941F05D5
:10372000552009F4EBC50E942A10FACE0E942A10F7
:103730008FE39CE90197F1F700C000008A2D0E94F9
:10374000B816EECF9D819F5F9D835FCFFC012081E6
:1037500031810217130709F0CAC55110CAC510926A
:10376000B40480E00E943A16C9C5902F812F0EC67E
:10377000F901858181FF3AC6C9010E949C1036C6B5
:10378000809117018160809317015EC680911701B7
:103790008E7F809317010E94DE1056C6809117011C
:1037A0008F7E013E110531F0053E1105C9F480916F
:1037B00017018F7D809317018091170180FF53C6F9
:1037C000D70112968C910832110528F50E3111059A
:1037D00008F072C00430110580F5811140C643C65F
:1037E000C8019056811540E2940720F0905E811543
:1037F000904110F78091170182FF35C68091F30345
:1038000081FD31C620E332E040E0B60190E080E087
:103810000E947B1828C60933110558F40D32110592
:1038200018F40B321105C9F69091F10392FDD5CF32
:1038300008C004361105C1F3D0CF9091F10394FD77
:10384000CCCF882309F4A8C0809116029091B503CB
:10385000892B8D7FB1F11092FD031092FC038091B2
:10386000F10381FD2EC0F80143E0F695E7954A95F6
:10387000E1F7EE71FF27EA54FC4F98012F703327D0
:1038800081E090E002C0880F991F2A95E2F78095A9
:10389000909520813181822393239183808360E0FE
:1038A000C8010E946618809116028D7F0E94B40A9A
:1038B00082E00E94371134CE9091F10393FD8DCFB9
:1038C000C0CF88E0F701A0E3B2E001900D928A95A5
:1038D000E1F710923202109234021092330280917A
:1038E000FC039091FD0308171907D1F52091F1030E
:1038F00025FF36C03091170131FF02C026FF30C0CE
:103900002091FA033091FB035601A21AB30AB701C2
:103910000E948A0EA816B90618F58091B50381FF9A
:1039200008C08091170180618093170182E00E9496
:10393000CF0A8091B50385FF08C08091170180628E
:103940008093170180E20E94CF0A6091170166956B
:1039500061708091FC039091FD030E946618E0CD98
:10396000809116029091B503982B2091170191FB3D
:1039700021F9209317018D7F0E94B40A1093FD0353
:103980000093FC03D092FB03C092FA0380911701CD
:103990008460809317018CCF970140E0B601C80185
:1039A0000E947B18BDCD053F4CE5140709F463C0A8
:1039B00008F45BC0063F8CE5180709F462C0D70124
:1039C00012963C91332309F4D8C51092BB040330FE
:1039D000BDE51B0708F061C00A3FECE51E0730F4A7
:1039E000C80182509C45449708F063C00E94BD0DF9
:1039F0009093CA048093C90402315CE5150709F469
:103A00009EC108F0EEC009309CE5190709F475C1A4
:103A100008F0B8C00530BCE51B0709F462C108F026
:103A20009FC00330FCE51F0709F453C108F055C1DE
:103A30008091C904816002303CE5130709F4CEC0CF
:103A40008091C9049091CA040E94680E0E9490114E
:103A500067CD07E225EE45EE68ED7CE51FC506E281
:103A600021EE40EE63EF7CE519C507E225EE44EE5A
:103A700064EF7CE513C506E221EE42EE65EF7CE5DE
:103A80000DC507E225EE46EE66EF7CE507C508E2C8
:103A900021E045EE69ED7CE501C5053AFDE51F072E
:103AA00009F4A4CF08F055C001364DE5140709F418
:103AB0009DCF06318CE5180709F464C50A355DE52C
:103AC000150709F495C108F06EC101159CE51907A9
:103AD00009F474C10E3D1C4509F47DC1F7018681CE
:103AE0009781009709F488C10E941B09182F092F9C
:103AF000F701D280C580C2943FE0C3228091F301D8
:103B00008770C1F0AD2CDD20B1F0892F807F80342B
:103B100021F080E2810F883068F08091CA0482FF32
:103B200009C082E00E9437118091F3018770AA24B6
:103B3000A3948111A12C902E92942FE09222FBE06D
:103B4000F91508F4E6C1E92DF0E0EB57FB4C0C94B5
:103B5000B533C8018D5A9D45039708F0AACF46CFCB
:103B60008091C904806207304CE51407B9F1809157
:103B7000C904806108305CE5150780F18091C904B3
:103B800080642CC00D308CE5180709F4C0C090F497
:103B90008091C9048E7F0B30ACE51A07F9F0809153
:103BA000C9048C600C30BCE51B07C0F08091C904CF
:103BB0008D7F14C00F30ECE51E0709F4B8C008F47F
:103BC000AAC000312CE5120709F4B5C08091C904E0
:103BD0008F7B01313CE5130709F032CF8093C90494
:103BE0002FCF0F3F4CE5140709F4B3C0A8F50A3FE7
:103BF0008CE5180709F479C0C0F40431ACE51A0764
:103C000009F4B5C008F4A1C00531ECE51E0709F0C0
:103C100017CF8091C90482FB992790F921E0922760
:103C200090FB82F990FB83F9D9CF0C3FFCE51F078D
:103C300009F475C008F45DC00D3F3CE5130709F4B5
:103C400072C08091CA0483600E3F4CE5140709F0EE
:103C5000F7CE8093CA04F4CE01365DE5150709F46A
:103C600091C090F401309DE5190709F489C008F46A
:103C700074C060E00230BDE51B0709F0E1CE8EE0C4
:103C800090E00E943D34DCCE0D3AEDE51E07E9F0F0
:103C900060F49091C904892F8E7F90FF8160053A6E
:103CA0002DE5120709F49ACFCBCE0E3A3DE5130766
:103CB00051F10F3A4DE5140709F0C2CE9091CA04B4
:103CC000892F877F93FF8860C4CF8091CA04886062
:103CD000C0CF8091C904826081CF8091C904846083
:103CE0007DCF8091C904886079CF8091CA048160BA
:103CF000B0CF8091CA048260ACCF0E9490118091B5
:103D0000C90480686BCF8091CA04877FA2CF80915D
:103D1000C9048B7F63CF8091C904877F5FCF809177
:103D2000CA048E7F96CF8091CA048D7F92CF8091F6
:103D3000C9048F7E53CF8091C9048F7D4FCF0E94DD
:103D400090118091C9048F7749CF8091C904837FF6
:103D500045CF8091CA048C7F7CCF8091CA04982F74
:103D6000909591708E7F892B90FB81F972CF0E9484
:103D700090119091C904892F97FB87F980582ECF15
:103D800061E07DCF9091C904892F8F7E94FF80617F
:103D900025CF80919401811104C089E20E94FD0A1F
:103DA000C2CC85E3FBCF0C35BDE51B07B9F010F1A4
:103DB000073A1D4509F092CE0E94D3150E9490113A
:103DC0002FEF34E34CE0215030404040E1F700C099
:103DD00000000E94E7040E943319EECF8091CA04CC
:103DE00082FB882780F991E089270E94531176CEC3
:103DF00081E0FBCF80E0F9CF8281008111818823AF
:103E000069F0C8010E941A0DD82E682FC8010E94BF
:103E1000860BB8018D2D0E94FD0C66CEC8010E9454
:103E2000520BD82EF6CF202F2F70B22E802F807FEE
:103E300019F0B29490EFB922DD20A9F0BB2059F01F
:103E400080E2810F883010F0111107C08B2D0E9485
:103E5000D60A0E942A10812F5AC08091FE04B82AE7
:103E6000B092FE04F6CF812F0E940816BB2009F401
:103E700050C080E2810F883010F0111104C08B2DEA
:103E80000E94CF0A03C08B2D0E94C80A0E942A10EC
:103E900040C0302F3F70B32E802F807F803219F0CA
:103EA000B29480EFB822112321F1113009F4AEC091
:103EB000DD2009F4B7C0CC2009F47FC020E0D70191
:103EC0004C9111965C91119712966C9112971396E2
:103ED0007C91139714968C910E94730D8091F3033B
:103EE00081FDB9CFF701858180FFB5CF8F708583C4
:103EF00064C08091CA0482FD40C0DD20C1F1BB20B6
:103F000029F08B2D0E94D60A0E942A1080E00E9480
:103F1000B816A92DA850BB0B149710F40E94800569
:103F2000812F902F0E94BD0B8111C2C11092970169
:103F300010929601AA20B1F08091F30180FD12C089
:103F4000D70112961C928595859585950E946811DA
:103F5000C7010E949E198091F301859585958595ED
:103F60000E942A1160E0C7010E94960DE9CA80E014
:103F70000E940816BB2069F282CFDD2011F1C1102A
:103F800004C0809116028B2919C041E0C41206C0FA
:103F9000809116028B290E94B40ABBCF8091F20354
:103FA000823078F3C812EDCF0E94A90A9091950152
:103FB0008B2D892B8913809395018B2D0E940116DF
:103FC000A8CFC11003C00E94A90A17C08091F203B4
:103FD00051E0C51216C0823008F49BCF8091B50322
:103FE0008B2109F496CF0E94A90A909195018B2DFF
:103FF000809589238913809395018B2D0E94FA1552
:1040000088CF823000F3C812DECF83CF8091F803CF
:10401000DD2021F08C1508F47CCFCFCFC81608F036
:1040200078CFEBCFCC2049F38091F6039091F70342
:10403000193321F08091F4039091F5030E949E0CB6
:10404000812F0E94081665CF802F869586958370F4
:1040500069F0813009F05DCF812F902F9370D110DE
:1040600002C090E080E00E94540553CF812F902F32
:104070009370D11002C090E080E00E946A0549CFA1
:10408000812FDD2029F00E9457080E94150741CF9B
:104090000E943C07FACF802F837091F5D11039CF61
:1040A000412F429546954770440F440F812F8F70E2
:1040B000042E01C0880F0A94EAF7212F207114FF03
:1040C00007C02FE030E001C0220F4A95EAF72095A3
:1040D000302F369536953370323069F050F4409178
:1040E0001702313029F0822B84230E948B1111CFCB
:1040F000842B822BFACF282B809117028227F5CFB1
:104100008695DD2011F0802F8170882309F401CF7E
:10411000412F429546954770440F440F812F8F7071
:10412000042E01C0880F0A94EAF7212F207114FF92
:1041300007C02FE030E001C0220F4A95EAF7209532
:10414000302F369536953370323069F050F4409107
:10415000FD04313029F0822B84230E941911D9CE1D
:10416000842B822BFACF282B8091FD048227F5CF58
:10417000F02FFF70BF2EDD2029F08F2F0E946811D5
:10418000812F1CCF812F0E94FA158B2D0E942A119E
:10419000C0CE123F89F160F4103FB9F0113F81F0B9
:1041A000DD2009F480C0C11056CE802F8F7128C049
:1041B000133F49F1143FA1F78091CA0482FD2FC03B
:1041C000802F8F71DD2011F31BC08091F803DD205B
:1041D00079F0C81608F09DCE202F2F7181E090E075
:1041E00001C0880F2A95EAF79091FD048927B5CF81
:1041F0008C1508F48ECEF0CF802F8F71D110C6CFE2
:104200000E94681186CE80E0DD2009F4A6CF81E00F
:10421000902F9F7101C0880F9A95EAF79ECF8091E9
:10422000F203823040F1DD20D1F09091F3019770DC
:10423000943041F40E94DC0A802F8F710E942A1171
:10424000A12C67CEC816E0F7202F2F71B22E822F37
:104250000E94681163E08B2D0E947411F1CFC81683
:1042600030F00E94DC0A64E0802F8F71F5CF81E08E
:104270000E943711E5CFDD2059F0302F3F71B32E6A
:10428000832F0E94681163E08B2D0E94741141CE30
:1042900081E00E94371141E04C1508F03ACE82E0EF
:1042A0000E94371136CEC110BFCE802F8F716ECFD6
:1042B000DD2019F0C1103ACE3DCEC11037CE20E03E
:1042C000F701408151816281738184810E94730D65
:1042D0008091F30383FF2ACE8091960190919701FC
:1042E000029709F023CE812F0E9425171FCE55205B
:1042F00029F0DC0118968C9185FF33CAC8019755C7
:104300008F3F910511F008F071C05801BB24BEE049
:104310000B9FF00111249F012C593D4F6901D701DA
:1043200012968C91E759FD4F908180FB90F9908314
:10433000882309F41DCA0E94130590932F028093CD
:104340002E02F60182818F5F82838091FE0490911C
:10435000B503892B83838091160284830680F781BD
:10436000E02D309731F0D6011C966D917C91C601FD
:1043700009958EE08A9DF0018B9DF00D1124EC597A
:10438000FD4F858181FFF1C990E080E09093BC04EE
:104390008093BD042BC080919201909193010817E6
:1043A000190781F410929301109292011092AE04B9
:1043B0001092AF041092B0041092B1041092B6049F
:1043C0001092B5048091B7049091B804009709F455
:1043D00095CFA8E08A16910408F0B8C9642D0E9410
:1043E000DE05811103C081E00E943A168091F1033D
:1043F00080FF39C00E9413056C01D70112968C9181
:10440000882309F4CBC98091170182FF08C020E3FB
:1044100032E040E0B60190E080E00E947B180B3172
:10442000BCE51B0709F4ACC90C31ECE51E0709F427
:10443000ADC990911701892F8E7F90FF81600A315D
:10444000FCE51F0709F4A5C9C8019056811520E2B3
:10445000920728F0905E8115904108F0ADC9109246
:10446000FD031092FC03033FBCE51B0709F4F7CAE8
:1044700008F099CA083DFCE51F0709F4EACA093D9E
:104480002CE5120709F403CB073D3CE5130709F0BF
:1044900096CA06E221EE41EE67ED7CE5C7010E9477
:1044A000E8173EC80031FFE51F0709F434C80131A1
:1044B0002FE5120709F040C082E02EC800313FE529
:1044C000130709F441C801314FE5140709F440C846
:1044D0006801E7E5DE1AFFEFCF16D10409F060F5B9
:1044E0006AE572E08C2D0E94760E892B29F58EE00C
:1044F0008C9DF0018D9DF00D1124EC59FD4F8281B2
:10450000813009F027C880915A0290915B02892B73
:1045100099F080915C0290915D02892B69F0809105
:104520005E0290915F022091600230916102822BC5
:10453000932B892B09F419C8D70112965C9055204A
:1045400009F428C80F35BDE51B0709F41FC800365C
:10455000EDE51E0759F00E35FDE51F0709F01AC8F5
:1045600080910001882311F40C94C61A1092000166
:1045700080E00E943A160C94901A06315CE515070B
:1045800009F0ACCA8091B503982F9A7A2091F00374
:1045900020FF04C0482F447409F090E021FF04C0BC
:1045A000482F417109F090E022FF04C0482F48785D
:1045B00009F090E023FF03C0827209F090E03323FA
:1045C00009F4E7CB81E0911101C080E08093940170
:1045D00069E2911165E382E791E00E941F05A3C89B
:1045E000A114B10409F069C8512CB12CA12C80E0B0
:1045F0000E943A16D092B804C092B70481E080932A
:10460000B404F60185818093B20451100EC0AB282A
:1046100061F0F601808191819C0124503109213A99
:10462000310508F071C80E94FD0AD6011696AD90BA
:10463000BC90C5019A9581159F4110F4E0EEBE2211
:1046400077247394C5010197803B9D4508F0712C38
:10465000D6011996ED91FC911A97309731F01B967F
:104660006D917C9181E009957822772079F0F601AF
:10467000868197810E94D80B8093B304C501F8E02E
:104680008F16910408F043C80E948D050E942A10DD
:1046900047C8B0E0A0E0EFE4F3E20C94CC338091A3
:1046A000AC01807F31F48091A901C091F0018111AA
:1046B00007C0CDB7DEB7E8E00C94E8332196C770A9
:1046C0008091AF018C17A9F3F090A701E090A801A9
:1046D000C090AA01D090AB01A6016E2D8F2D0E9433
:1046E000FE05D0E08111EACF8E0183E0000F111F9B
:1046F0008A95E1F7F801E055FE4F81818E11DECFFA
:1047000080818F11DBCF82818111D8CFE380F4804B
:10471000EC18FD0860E087EA91E00E94960D67EAD8
:1047200071E00E948A0EE816F90640F68091AC010D
:104730008F7080618093AC01F801EB54FE4F808153
:104740008F708061808387EA91E00E949E190E94A9
:10475000480BAFCFA5E1B0E0E0EBF3E20C94C5333A
:104760008C0185E0F801DE01519601900D928A9549
:10477000E1F7D8015C9011966C9011971296EC902D
:1047800012971396CD90DC9060E087EA91E00E944A
:10479000960D87EAA82E81E0B82E8090AA0190900D
:1047A000AB01A4016091A8018091A7010E94FE05C0
:1047B0008111A8C1F090A901F601E819F9094F018A
:1047C00060E0FF2009F44BC1C5010E94960DB501C0
:1047D0000E948A0E7090AC018816990608F0F2C00B
:1047E0004091AA015091AB01B090A701A090A801FF
:1047F000872D807F6A2D09F08CC08B2D0E94FE05CD
:10480000FE2C811127C0D80111968C9111978A1125
:1048100021C08C918B111EC02091AD013091AE0151
:1048200016968D919C9128173907A1F4E11012C0BA
:10483000872D8F7080618093AC0187EA91E00E94A0
:104840009E198091AC01F80185838F2D6596EFE06C
:104850000C94E133A601662D852D0E94FE05D82E0D
:1048600081E08E25D11080E080FF18C04E2D662D8E
:10487000852D0E94280B882389F08091F30380FF07
:104880000DC087EA91E00E949E1988E0E7EAF1E016
:10489000DF011D928A95E9F7F12CD7CF81E08E25B3
:1048A000D11080E0B82FB170CB2E80FF29C04E2DE3
:1048B000662D852D0E94280BD82E811121C0598A82
:1048C0006A8A89899A890E94490D292F22952F7019
:1048D000223050F0243078F49F7051F0F801958127
:1048E000907F31F4FD2CB1CF9F7011F08823D1F36C
:1048F000805E8830B8F3C8010E949E19DC2CF2CF8C
:10490000EE2009F4A2CF8091AC0181608093AC01CC
:10491000C3CF8B2D0E94FE05811124C0D8011196B2
:104920008C9111978A111EC08C918B111BC0209104
:10493000AD013091AE0116968D919C911797281775
:10494000390781F4E1100EC015967C92C8010E94CF
:104950009E1988E0F801A7EAB1E001900D928A95CE
:10496000E1F773CFC8010E94560D882339F1EE207C
:1049700029F18091AC018032A0F02091A701309103
:10498000A8013A8729871B86DD86CC868E87809191
:10499000AD019091AE01988B8F87CE0109960E9450
:1049A0009E1988E0F801A7EAB1E001900D928A957E
:1049B000E1F70E944923FF24F39447CFC8010E94E6
:1049C0009E19F9CF872D807F09F45BCF9090A701C6
:1049D0008090A8014091AA015091AB01682D892DCA
:1049E0000E94FE0581111CC0F8018181881118C048
:1049F0008081891115C02091AD013091AE01868171
:104A000097812817390761F4E1100AC07582C8013F
:104A10000E949E1988E0D5011D928A95E9F715CF6D
:104A2000C8010E94560D882349F2EE2039F2809188
:104A3000AC01803208F4B5CF2091A7013091A801D4
:104A40003A8329831B82DD82CC828E838091AD01E3
:104A50009091AE0198878F83CE010196A0CF87EA0F
:104A600091E00E94960D67EA71E00E948A0E881616
:104A7000990680F6FE2CEE2009F4A0CFE090A70165
:104A8000D090A8014091AA015091AB016D2D8E2DBF
:104A90000E94FE05811128C0F80181818D1124C07A
:104AA00080818E1121C02091AD013091AE018681AF
:104AB000978128173907C1F48091F30382FD49CF0C
:104AC0009091AC0190FD45CF907F09F442CF809149
:104AD000AC018583903F09F439CF982F907F905F88
:104AE0008F70892B858332CFC8010E94560D8111AA
:104AF00058CF8091AC0181608093AC01C8010E94C5
:104B00009E19A3CEEE2009F459CFC8010E94560D7C
:104B1000F82E882309F452CF88E0F801A7EAB1E023
:104B200001900D928A95E1F78091A7019091A801DB
:104B30000E94490D0E94492388CEA0E1B0E0E3EA3B
:104B4000F5E20C94D23329873A874B875C876D87CF
:104B50007E878F87988BCE0109960E94AA238111A8
:104B60002FC088E0FE013996DE01119601900D926A
:104B70008A95E1F74C855D856A8589850E94FE05E9
:104B800081111EC0A091AF01B0E0CD0101968770E8
:104B900099272091F00128171906E1F093E0AA0F58
:104BA000BB1F9A95E1F7A055BE4F98E0FE013196E4
:104BB00001900D929A95E1F78093AF010E94480B06
:104BC0008091F0019091AF01891312C06096E2E0EC
:104BD0000C94EE330E9490111092AF011092F001EC
:104BE00088E0E7EAF1E0DF011D928A95E9F7E8CF76
:104BF000B8E08B9FC001112480559E4F0E94AA23CC
:104C0000882321F38091F00190E001968770992725
:104C10008093F001D5CFEF92FF920F931F93CF9324
:104C2000DF9380910104882361F0C09100048CE03F
:104C3000F82E80910104C81748F0109201041092D8
:104C40000004CDB7DEB7E6E00C94EA33EE24E3943B
:104C5000EC0EE09200040C2F10E0CF9DE001112437
:104C6000CE5FDB4F4B815C81698188810E94FE05AC
:104C700081111DC08E819F81892B21F488859985A2
:104C8000019651F4288139814A815B816C817D8153
:104C90008E819F810E949D25F09EF001F19EF00D76
:104CA0001124EE5FFB4F148213821092FE04CE2D6E
:104CB000C0CF1092A5041092A40410921801809104
:104CC000A3048093A2040E9437060E940B26089535
:104CD000B0E0A0E0EEE6F6E20C94C333C091A2048B
:104CE00097E0892E01E010E02CE0322E3EEF932E6B
:104CF000442443948091A3048C1309C00E940B2682
:104D00000E943706CDB7DEB7E1E10C94DF33D0E087
:104D1000FE01EE0FFF1FE656FB4F80819181889EBA
:104D2000D001899EB00D1124AE59BB4F14962C9121
:104D30001497211158C050900104E2E0F4E030E0F3
:104D400020E0712C5D01251508F04BC0E284F3844E
:104D5000D501CD90DC906FEF7FEF612C462D50E0B8
:104D6000DA01AA0FBB1FAC0DBD1D0D90BC91A02D8B
:104D7000109731F0EA16FB0609F4BA016394EECFFE
:104D80006F3F7607A9F1D80102C0AA0FBB1F6A9531
:104D9000E2F77A2AB801062C02C0660F771F0A9440
:104DA000E2F7AB014150510974161506F9F4329E31
:104DB000F001339EF00D1124EE5FFB4F889ED00171
:104DC000899EB00D1124AE59BB4F12962D913C9186
:104DD00013973783268390829182918780871596D7
:104DE0004C920E9409062196C37084CF14821382CC
:104DF0002F5F3F4F3C96A7CFA9E1B0E0E2E0F7E29A
:104E00000C94C233942F498B252F5A8B6B8B7C8B40
:104E10008D8B4C895D89622F892F0E94FE0581113F
:104E200009C0809196019091970101969093970106
:104E3000809396018B8981111092FE041D861E8637
:104E40001F86188A85E0FE017196DE011996019091
:104E50000D928A95E1F78091CA0482FF1EC080916D
:104E6000D8039091D903892BC1F00E94130520919A
:104E7000F1013091F201821B930B2091D803309104
:104E8000D9038217930720F08091F30182FFE2C1DA
:104E90000E94E30A81110E94A90A4C855D856A85FA
:104EA00089850E94FE05811111C061E0CE0109963D
:104EB0000E94960D6C018B8527EFC2162CE5D20659
:104EC00081F4882321F181E08093180129853A85B6
:104ED0004B855C856D857E858F8598890E949D2593
:104EE000C6C038EFC3163CE5D30629F4882379F011
:104EF0000E945926EBCF49EFC4164CE5D40639F48D
:104F0000882329F0809118018111F2CFDCCF02E6CD
:104F100014E0512CB12CA12C22242394312C2EEFFF
:104F2000422EF8014081518188248A94982C20E0F7
:104F3000822F90E0FC01EE0FFF1FE40FF51F608150
:104F400071816115710531F0C616D70609F44C015F
:104F50002F5FEECFF12CFFEF8F169F0609F449C0AB
:104F6000F8014481F09018018F2D411180E0F82F55
:104F7000F170FF2EF801E58086819B85992309F465
:104F8000F8C0FF2009F4F5C06090EC037090ED03C9
:104F9000E11013C0A101082C01C0440F0A94EAF7E4
:104FA000842B86838091FE039091FF0386159705DD
:104FB00020F47092FF036092FE03C10102C0880FCB
:104FC000991F2A95E2F70197F801268128171906FB
:104FD00081F48091A4049091A504009709F44BC03A
:104FE0000E94F8046816790608F045C021E0F8012F
:104FF00024835F28FFEFAF1ABF0A095F1F4F28E025
:10500000A216B10409F08DCF8B85882309F40DC158
:10501000552009F40AC10E9413059093A5048093BA
:10502000A40480910104883010F591E0980F9093CA
:10503000010498E0FE013996DE01119601900D926F
:105040009A95E1F73CE0839FC00111248E5F9B4F4E
:1050500028E0FE013196DC0101900D922A95E1F7DE
:105060002FEF3FEFFC0131872087D386C2866996F8
:10507000E2E10C94DE338091A2045091A304982FB6
:10508000F0E0E0E0851314C09093A204E017F1076C
:1050900009F4AFCF90E0FC01EE0FFF1FE656FB4F87
:1050A000B182A0820196837099278093A304A1CF37
:1050B000682E712CF301EE0FFF1FE656FB4F208187
:1050C000318147E0429FD001439FB00D1124AE597A
:1050D000BB4F6D917C911197798F688F40E020E0F4
:1050E00030E0E32FF0E0EE0FFF1F688D798DE60FC3
:1050F000F71F8080918081149104E1F0F801019004
:10510000F081E02DFF8BEE8B20E005C08616970620
:1051100009F44F2D2F5FE22FF0E0EE0FFF1F6E8995
:105120007F89E60FF71F608171816115710571F745
:105130003F5FD7CF4423D1F0F801231708F0FD01DA
:1051400021E024830E171F0721F49093A204F42E6C
:1051500050CF981305C0AE17BF0711F49F5F93702F
:1051600093012F5F3F4F822F83708CCFF0E0E0E000
:10517000F7CF90E0E11020C0B10102C0660F771FA9
:105180002A95E2F79B01215031098217930731F4E8
:10519000442309F448C0C5010E940906C101082C36
:1051A00001C0880F0A94EAF7982F9095F80186813C
:1051B00089238683FE2C1DCF9C01082C02C03595C7
:1051C00027950A94E2F7A90141705527BC01615067
:1051D000710986239723892B11F5452B01F1F801DD
:1051E00082819381892BC1F01B821C821D821E82C9
:1051F00049824A820E9413058160582F9D838C83C7
:10520000F801828193818F83988729813A814B812C
:105210006D817E810E949D25F8011582BFCFF22FFE
:10522000F170EF2EBBCFEF2CB9CF9091A2048091FB
:10523000A304981731F00E946826552009F446CE41
:1052400016CF0E940B261092A5041092A4040E946F
:105250003706F3CF82E00E9437111ACEA5E0B0E006
:10526000E4E3F9E20C94D2339093B2038093B10358
:10527000811520E2920730F40E94A0162596E2E004
:105280000C94EE3380EF89838A831B820E9413057E
:105290008160782F9D838C8349815A816B818D81B8
:1052A0000E94FC26EBCF0F931F93CF93DF938C01CB
:1052B000EB016AE572E08C2F0E94760E892BA1F437
:1052C0008091F4039091F5030E949E0CDD27CE5A45
:1052D000DD4F8881F801128218828330F1F048F4A2
:1052E000813059F0823081F0DF91CF911F910F9181
:1052F00008958430B9F08530B9F780915A029091C1
:105300005B02009789F306C080915C0290915D0278
:10531000009799F30E942E29E7CF80915E02909129
:105320005F02F6CF8091600290916102009791F741
:1053300020915A0230915B0280915C0290915D0253
:1053400021153105F1F2009729F7C901E3CFA5E056
:10535000B0E0EDEAF9E20C94D2339093B20380937B
:10536000B103811520E2920730F40E944E18259671
:10537000E2E00C94EE3380EF89838A8381E08B83B3
:105380000E9413058160782F9D838C8349815A8107
:105390006B818D810E94FC26EACFCF93DF93EC01D5
:1053A0000E94A7298091F4039091F5030E949E0C1E
:1053B000CE010E942E29DF91CF9108950F931F9364
:1053C000CF93DF938C01862F6AE572E00E94760E00
:1053D000892BB1F4C0915A02D0915B02209781F0E1
:1053E000F8018281833051F4CE010E94CD29CE0193
:1053F0000E94CD29CE010E94CD2902C08430D0F771
:10540000DF91CF911F910F9108950F931F93CF9329
:10541000DF938C01EB016AE572E08C2F0E94760E1F
:10542000892B09F05CC0FE01FF27D80112968C91F0
:105430001297EE5AFD4F8130B9F415969C9192FF68
:1054400002C080830AC090FFFCCF82E080838091FD
:105450005C0290915D020097B9F480915A0290919C
:105460005B020097E1F110C08230B9F515968C917E
:1054700082FD28C080FD0BC083E0808380915E02A6
:1054800090915F02009701F10E94A72928C084E053
:10549000808380916002909161020097A9F78091CA
:1054A0005A0290915B020097F9F00E94CD298091F9
:1054B0005C0290915D02009739F780915A029091B9
:1054C0005B02E2CF85E0808380915A0290915B027B
:1054D000009729F00E94CD29F0CF86E08083DF91EC
:1054E000CF911F910F91089580915C0290915D0280
:1054F000B8CF1F920F920FB60F9211242F933F93A4
:105500004F935F936F937F938F939F93AF93BF93CB
:10551000CF93DF93EF93FF93D091E900DF708091F9
:10552000EC00C82FC17080FDC0E81092E9008091A6
:10553000F000877F8093F00078940E94A61110926B
:10554000E9008091F00088608093F000CD2BCF704F
:10555000C093E900FF91EF91DF91CF91BF91AF919F
:105560009F918F917F916F915F914F913F912F917B
:105570000F900FBE0F901F9018951F920F920FB6AD
:105580000F9211242F933F934F935F936F937F93C9
:105590008F939F93AF93BF93EF93FF938091E1001D
:1055A00082FF09C08091E20082FF05C08091E10086
:1055B0008B7F8093E1008091DA0080FF24C080918E
:1055C000D80080FF20C08091DA008E7F8093DA00BF
:1055D0008091D90080FF9DC080E189BD82E189BDB5
:1055E00009B400FEFDCF81E08093FC048091CE04DD
:1055F000811109C00E9437030E942A048091E200B1
:1056000084608093E2008091E10080FF17C0809168
:10561000E20080FF13C08091E2008E7F8093E20061
:105620008091E20080618093E2008091D8008062E6
:105630008093D80019BC85E08093FC048091E10040
:1056400084FF2BC08091E20084FF27C080E189BDE8
:1056500082E189BD89B5982F917080FFFBCF809141
:10566000D8008F7D8093D8008091E1008F7E809359
:10567000E1008091E2008F7E8093E2008091E20061
:1056800081608093E2008091F304882309F447C08D
:1056900084E08093FC048091FC048091E10083FF0E
:1056A00027C08091E20083FF23C08091E100877FC3
:1056B0008093E10082E08093FC041092F3048091D7
:1056C000E1008E7F8093E1008091E2008E7F8093E5
:1056D000E2008091E20080618093E20042E060E0BD
:1056E00080E00E94F8038091F00088608093F000D1
:1056F000FF91EF91BF91AF919F918F917F916F91AA
:105700005F914F913F912F910F900FBE0F901F907F
:10571000189519BC1092FC041092CE0474CF80919D
:10572000E30087FD93E09093FC04B5CF78941F923B
:105730001FB61F9211248F939F93AF93BF938091B5
:10574000C5049091C604A091C704B091C804019605
:10575000A11DB11D8093C5049093C604A093C704F6
:10576000B093C804BF91AF919F918F911F901FBEBE
:105770001F9018951F921FB61F9211248F939F930D
:10578000AF93BF938091C404811113C08091C5046D
:105790009091C604A091C704B091C8044196A11D80
:1057A000B11D8093C5049093C604A093C704B09321
:1057B000C804BF91AF919F918F911F901FBE1F9002
:1057C0001895CDB7DEB7C054D1090FB6F894DEBF37
:1057D0000FBECDBF85B7806885BF85B7806885BFA0
:1057E00084B7877F84BF0FB6F894A8958091600036
:1057F000886180936000109260000FBE80E890E0A6
:105800000FB6F89480936100909361000FBE8FEB08
:1058100098E090937101809370010E94F0060E94BD
:10582000340F0E94A80E0E94A80C0E9437030E9409
:105830002A048091E20084608093E2007894809151
:10584000FC048823A1F01091E9001F709091EC00F6
:10585000892F817090FD80E8182B1092E9008091CB
:10586000E80083FD0E94A6111F701093E90082E0FA
:1058700084BD93E095BD9AEF97BD80936E000E9422
:10588000A40D811102C00E944A1581E30E94C10843
:1058900083E30E94C10882E30E94C10886E30E945C
:1058A000C10807E511E0D8018D918D018F3F11F0FE
:1058B0000E94C108B1E001361B07A9F788E0EDE3BB
:1058C000F2E0DF01282F1D922A95E9F7EBE1F2E0E3
:1058D000DF011D928A95E9F790E080E00E9437345D
:1058E000883E9E4F21F40E94A40D811102C00E94A7
:1058F000331982E090E00E942F34809325020E94A9
:10590000BD0D9093CA048093C9040E94780FEFEFF5
:10591000F6E721E0E150F0402040E1F700C0000050
:105920000E94780F80913D0280FF08C06FEF7FEFEB
:1059300090E080E00E945B340E94E70483E090E006
:105940000E942F340E948B1181E091E09093C1045A
:105950008093C004B0E42B2E33243394CE018B9675
:105960009EAF8DAF8091FC0400E112E1853009F417
:105970008EC00E94780FF6E2AF2EF2E0BF2EADE3AC
:105980008A2EA2E09A2ED401F501219131918D91B8
:105990009D9142E0EE32F40709F483C028173907DD
:1059A000A1F3712CD4010D911D914D01F501C19010
:1059B000D1905F01C016D10659F1C026D126612CC5
:1059C000EE24E394F12CC6018E219F21892BB1F0A6
:1059D00068AE79AE21E0C8018E219F21892B09F4A0
:1059E00020E02AAF0E9413058160782F9CAF8BAF17
:1059F00048AD59AD6AAD8CAD0E94FC266394EE0CA7
:105A0000FF1CFAE06F12DFCFF5013297118300839C
:105A1000739424E07212C6CF0E94070564C080917F
:105A2000FC04843019F11092C404A8E1B0E00FB670
:105A3000F894A895A09360000FBE2092600083B7F1
:105A4000817F846083BF83B7816083BF78948895AA
:105A500083B78E7F83BF0FB6F894A89580916000BE
:105A6000886180936000109260000FBE8091F20404
:105A7000882369F00E94780FEDE3F2E08191919123
:105A8000892B09F0FEC5B2E0E534FB07B9F7809138
:105A9000FC04853009F4C3CF0E9490110E94800558
:105AA00068CF2817390709F07CCF0E9413058C01B5
:105AB000809123029091240208171907A1F08FEF1B
:105AC0008BAB8CAB1DAA0E9413058160782F9FAB16
:105AD0008EAB4BA95CA96DA98FA90E94FC261093DF
