:100000000C9498020C94B5020C94B5020C94B502B1
:100010000C94B5020C94B5020C94B5020C94B50284
:100020000C94B5020C94B5020C944C2A0C94082A3A
:100030000C94492B0C94B5020C94B5020C94B502A7
:100040000C94B5020C94B5020C94B5020C94B50254
:100050000C94B5020C94252B0C94B5020C94B502AB
:100060000C94B5020C94B5020C94B5020C94B50234
:100070000C94B5020C94B5020C94B5020C94B50224
:100080000C94B5020C94B5020C94B5020C94B50214
:100090000C94B5020C94B5020C94B5020C94B50204
:1000A0000C94B5020C94B5020C94B502050109023A
:1000B000A10185020901A100050919012905150001
:1000C00025019505750181029501750381010501E1
:1000D000093009311581257F950275088106093897
:1000E0001581257F950175088106050C0A380215D2
:1000F00081257F950175088106C0C005010980A191
:1001000001850319012AB700150126B7009501756D
:10011000108100C0050C0901A101850419012AA064
:1001200002150126A002950175108100C005010984
:1001300006A1018506050719E029E71500250195A7
:1001400008750181020507190029EF1500250195A1
:10015000F0750181020508190129059505750191C0
:1001600002950175039101C00660FF0961A10109B3
:1001700062150026FF0095207508810209631500AD
:1001800026FF00952075089102C005010906A1010E
:10019000050719E029E71500250195087501810279
:1001A0009501750881010507190029FF150026FF33
:1001B0000095067508810005081901290595057542
:1001C000019102950175039101C0FD377A585A00DB
:1001D0000004E6D6B4460200210116000000742F88
:1001E000E5A3E000F6007F5D003D8889A654750A0E
:1001F00036E182AEFA7A1AA6FCA2ED4951391A5EAE
:100200007177BBD05B76B46FB1011EC6A25743CEE7
:10021000299E83C742F0397B07D088CE39F6C17258
:10022000DDF0AF2B09140A4AC1E4BE29E06B9B1D27
:10023000CEA435475F20C9F96163BDB6A395F5D05B
:100240006FE2CF4CAA2C15B0BDEB209DCB30ED1842
:10025000461A789EEAD5BB5B4B4E1D198C4909E2C4
:10026000C63A6679CE80560000002A1CE9C86AF5B5
:10027000E9B100019B01F7010000C45FE793B1C43D
:1002800067FB020000000004595A000014001A0025
:1002900008001A0015000000000004001600070006
:1002A00009000A00000000001D001B0006001900E4
:1002B0000500000000000000000000000000E00059
:1002C0002C0001000100DF034B0D7E0D0000020039
:1002D0000200DB034B0D7E0D000003000100E00374
:1002E0004B0D7E0D000004000200C5034B0D7E0D7A
:1002F000670605000100E1034B0D7E0D00000600BE
:100300000200C7034B0D7E0D000007000200DD0355
:100310004B0D7E0D000008000100E2034B0D7E0D29
:10032000000009000200C9034B0D7E0D42060A00C1
:100330000200CB034B0D7E0D42060B000200CD03E5
:100340004B0D7E0D42060C000200CF034B0D7E0DBF
:1003500042060D000200D1034B0D7E0D42060E0039
:100360000200D3034B0D7E0D42060F000200D503A1
:100370004B0D7E0D420610000200D7034B0D7E0D83
:10038000420611000200D9034B0D7E0D42061200F9
:100390000200E3034B0D7E0D000013000200E50395
:1003A0004B0D7E0D000014000100E7034B0D7E0D88
:1003B0000000150000000000C805E9140000090253
:1003C0005B00030100A0FA09040000010301010021
:1003D00009211101000122400007058103080001E5
:1003E000090401000203000000092111010001229B
:1003F00022000705820320000107050303200001F6
:10040000090402000103000000092111010001227A
:10041000BC00070584032000011201000200000057
:10042000084B5317000001010203011C0376006909
:100430000061006C003A0066003600340063003250
:100440000062003300630000001603530063006F76
:1004500000740074006F00460072006F00670000B7
:10046000001803530063006F00740074006F004BAA
:1004700000650065006200730000000403090400C9
:10048000000000000000000000000000000000006C
:10049000000000000000000000000000000000005C
:1004A0000000007E0F00D4FFFFFFC70000007800AF
:1004B000000000000000002A2B28000000000000BF
:1004C0000000000000000000000029000000002CD7
:1004D0001E3420212224342627252E362D37382776
:1004E0001E1F202122232425263333362E37381F82
:1004F0000405060708090A0B0C0D0E0F1011121344
:100500001415161718191A1B1C1D2F3130232D35E1
:100510000405060708090A0B0C0D0E0F1011121323
:100520001415161718191A1B1C1D2F3130354C00C5
:1005300011241FBECFEFDAE0DEBFCDBF11E0A0E097
:10054000B1E0E2E0F8E602C005900D92AE36B107E8
:10055000D9F724E0AEE6B1E001C01D92AE3EB2078D
:10056000E1F70E94702B0C94D4330C940000E8ED5A
:10057000F0E080818E7F80831092E2001092DA009A
:100580001092E100A0EEB0E08C9181608C938081AC
:100590008F77808319BCA7EDB0E08C918E7F8C9310
:1005A00080818F7E80831092BD0408952091E400A5
:1005B0003091E50095E6A9012091EC00822F817031
:1005C00020FF06C08091E80080FF06C080E008950B
:1005D0002091E80022FD1AC08091EB04882389F065
:1005E000853089F08091EB0085FD0FC02091E400FB
:1005F0003091E50042175307F9F29150E1F684E09B
:10060000089582E0089583E0089581E00895EF92CF
:10061000FF920F931F93CF937C018B010E94D60210
:10062000C82F811117C08091E80085FD0BC0809113
:10063000E8008E778093E8000E94D602882399F321
:10064000C82F08C0F70181917F018093F10001500C
:10065000110949F78C2FCF911F910F91FF90EF90C7
:100660000895CF93FC018091EB04843001F5C09193
:10067000E900CF702091EC00922F917020FD90E85E
:10068000C92B82E08093E9008091E80080FF0CC0D4
:1006900050E040E060E270E0CF010E9407038091EB
:1006A000E8008E778093E800CF70C093E900CF9187
:1006B00008958091E30487FF13C08091E80082FFD2
:1006C00006C08091E8008B778093E80004C0809199
:1006D000EB048111F2CF08958091EB048823D9F3C4
:1006E0008091E80080FFF8CF8091E8008E77ECCF12
:1006F000982F9093E900242F762F50E0891731F03E
:100700007091EC002091ED005091F00021FD07C0A8
:100710009F5F973071F78093E90081E008953091F1
:10072000EB003E7F3093EB003091ED003D7F309346
:10073000ED003091EB0031603093EB007093EC00F2
:100740002093ED005093F0002091EE0027FDE0CFC4
:1007500080E00895B0E0A0E0E0EBF3E00C942733F4
:10076000C8EDD0E088818F7E8883E7EDF0E080815E
:100770008160808384E082BF81E08093BD048881B2
:100780008E7F888302EE10E0F80110821092DA006A
:1007900081EEC82ED12CF601108288818F77888354
:1007A00088818068888388818F7D888319BC1092B6
:1007B000EB041092E2041092E1041092E00490EE37
:1007C000E92EF12CF70180818B7F80838881816005
:1007D000888342E060E080E00E947803F601808137
:1007E0008E7F8083F8018081816080838081886032
:1007F0008083F70180818E7F8083888180618883F8
:10080000CDB7DEB7E8E00C944333FC018091E904F6
:100810009091EA0486179707A0F06115710529F4F5
:100820009091E8009E779093E80090E06115710543
:1008300051F4911108C08091E80082FF34C080E03B
:100840000895BC01F2CF8091EB048823C1F185307B
:10085000C1F18091E80083FD30C08091E80082FD05
:10086000EACF8091E80080FFE1CF8091F3002091F2
:10087000F200382F6115710519F02830310558F054
:1008800091E02830310509F090E02091E8002E77C2
:100890002093E800CBCF81918093F10061507109E2
:1008A0002F5F3F4FE7CF8091EB04882341F08530E5
:1008B00041F08091E80083FFBECF81E0089582E09F
:1008C000089583E0089508958091BF04089587E70F
:1008D00097E7909301088093000888E19AE00FB6AB
:1008E000F894A895809360000FBE90936000FFCFAE
:1008F0009C014FB7F8948091B4049091B504A091F5
:10090000B604B091B7044FBF821B930B08952FB765
:10091000F8946091B4047091B5048091B6049091FC
:10092000B7042FBF08952FB7F8948091B404909125
:10093000B504A091B604B091B7042FBF08952091DB
:1009400019012223C1F02091B80427FF14C0E62F1B
:10095000E695E695E695EE31F8F4E80FF92FF11DEE
:10096000677021E030E001C0220F6A95EAF78281CA
:10097000822B82830895FC0132962FEF30E0419163
:10098000641751F02F3F19F4411101C0232F3F5F2D
:100990003630A9F72F3F09F40895820F911D27FDE6
:1009A0009A95FC01628308952091B1043091B204BC
:1009B0002817390771F09093B2048093B104E09145
:1009C000AF04F091B004309721F00084F185E02D60
:1009D000099508952091AD043091AE042817390788
:1009E00071F09093AE048093AD04E091AF04F09168
:1009F000B004309721F00680F781E02D0995089525
:100A0000E091AF04F091B004309729F00190F081AB
:100A1000E02D0995089580E00895CF93DF93EC01D0
:100A200040919D0450919E0460919F047091A00498
:100A30002FB7F8948091B4049091B504A091B604B6
:100A4000B091B7042FBF841B950BA60BB70B843F47
:100A50009140A105B10518F580919D0490919E04E7
:100A6000A0919F04B091A0048093990490939A045C
:100A7000A0939B04B0939C0484EF91E0A0E0B0E0CD
:100A80008093950490939604A0939704B093980450
:100A9000D093A504C093A404DF91CF9108950E9440
:100AA00087046093990470939A0480939B049093B5
:100AB0009C0482E390E0A0E0B0E0E2CFFC018481FE
:100AC000862351F492819923B9F06923808583FFAD
:100AD00005C081E061110FC080E00895892F8F70FB
:100AE00092959F70982B862F8F7062956F70682BF0
:100AF00081E09613F1CF089581E0FDCF452B39F0C9
:100B0000682381E06F3F09F080E08170089581E003
:100B1000FCCFDC016091910480919204962F89139F
:100B200001C00895292F30E0F901EE0FFF1FE757AC
:100B3000FB4F408151814A175B07A1F487E08A9FF0
:100B4000A0018B9F500D11244F5A5B4F81E0FA0199
:100B500084839613E6CF2F5F3F4F23703327209374
:100B6000910408952F5F3F4F922F9370D8CF10922A
:100B7000EE031092ED03E1E5F4E08581811102C0FE
:100B800014821682379684E0E938F807B1F70895A1
:100B9000B0E0A0E0EEECF5E00C9425338FEF9FEF92
:100BA0004430510508F469C04091B80441FB8827DE
:100BB00080F990E0880F991F42FB002700F910E0B0
:100BC000000F111F000F111F802B912B40FBCC2415
:100BD000C0F8D12C8C299D2943FB222720F9C22F54
:100BE000E0E0DE2F53E0CC0FDD1F5A95E1F78C2BB0
:100BF0009D2B44FBAA27A0F9B0E0E4E0AA0FBB1F9D
:100C0000EA95E1F78A2B9B2B45FBEE27E0F9F0E014
:100C1000A5E0EE0FFF1FAA95E1F78E2B9F2B46FB59
:100C2000222720F930E0B6E0220F331FBA95E1F712
:100C3000822B932B47FB222720F930E03695322F69
:100C4000222737952795822B932B2091B904322F99
:100C50003170F32EE82EF92A26952170B22EBB0CA6
:100C6000A82EBF28C501BB0CAA0BBB0BFB018083C0
:100C70009183A283B38390E080E0CDB7DEB7EAE052
:100C80000C944133E5ECF3E0848195812AE030E077
:100C9000B9010E94E83260931401868180931301A8
:100CA00082858093120184858093110186859785C2
:100CB000B9010E94E83260931001808980930F018E
:100CC000828980930E01848980930D01089580911B
:100CD000C5039091C6039093160180931501089562
:100CE000E3E5F2E090E080E06DE679E244E959E284
:100CF00022EE38E2778366835187408733872287E5
:100D00009587848701963E968830910599F70895D6
:100D100081152CE5920741F420919E0330919F03A9
:100D2000232B11F490E080E008950E9493049C012D
:100D300090913D0280913E02982B21F030933A022F
:100D40002093390290913F0280914002982B21F02C
:100D50003093380220933702E091AF04F091B00451
:100D6000309749F082E080933B020480F581E02DCA
:100D70008BE392E00995089590913D02803F59F4EC
:100D800080913E0287FF0DC010923E0291110BC070
:100D90001092350208C0813F81F480913E021816FE
:100DA0009CF3992381F080913F0290914002892B1E
:100DB00009F064C0109234020895823F49F497FF0D
:100DC000F0CF10923D0280913E028111ECCFE0CF36
:100DD000833F19F41916ACF3E4CF20913F02893F09
:100DE00029F41216F4F610923F02DBCF8A3F19F471
:100DF00027FFD7CFF8CF209140028B3F29F427FF60
:100E0000D0CF10924002CDCF8C3F19F41216CCF304
:100E1000C8CF843F31F480913C028E7F80933C02A6
:100E2000C0CF853F21F480913C028D7FF7CF863F74
:100E300021F480913C028B7FF1CF873F21F4809198
:100E40003C02877FEBCF883F21F480913C028F7E6C
:100E5000E5CF8D3F31F4809136028E7F809336024C
:100E6000A0CF8E3F21F4809136028D7FF7CF8F3F48
:100E700009F097CF809136028B7FF0CF0895809153
:100E8000360280FF0CC060910E0170E07595679589
:100E9000759567956115710549F1862F089581FF54
:100EA00006C060910E0170E075956795F3CF609173
:100EB0000E0182FD0BC0909134029923A1F0609144
:100EC0000D0180910E01961738F0682F70E06038A0
:100ED000710500F38FE70895899FC001112470E028
:100EE0000E94FC32F4CF61E070E0D7CF81E008953A
:100EF000809136026091CD037091CE0380FF16C0C1
:100F000020911201269FC001279F900D1124BC0142
:100F100076956795769567956038710508F043C0BA
:100F20006115710509F441C0862F089581FF0BC03A
:100F300020911201269FC001279F900D1124BC0112
:100F400076956795E9CF82FF09C0809112019B01D8
:100F5000829FB001839F700D1124DECF2091350256
:100F60002223D1F29091110180911201482F50E07B
:100F7000291748F0CB01849FB001859F700D949F85
:100F8000700D1124C9CF289F90011124269FA00124
:100F9000279F500D369F500D1124692F70E0CA0114
:100FA0000E94E832B9CF8FE7089581E00895803F2D
:100FB00031F40E947807819580933E020895813F25
:100FC00019F40E947807F8CF823F31F40E94780725
:100FD000819580933D020895833F19F40E9478071C
:100FE000F8CF893F29F40E943F0780933F0208957C
:100FF0008A3F21F40E943F078195F7CF8B3F31F460
:101000000E943F0781958093400208958C3F19F418
:101010000E943F07F8CF843F31F480913C02816009
:1010200080933C020895853F21F480913C028260C8
:10103000F7CF863F21F480913C028460F1CF873F57
:1010400021F480913C028860EBCF883F21F48091AD
:101050003C028061E5CF8D3F31F4809136028160A2
:101060008093360208958E3F21F48091360282608B
:10107000F7CF8F3FB9F7809136028460F1CF80E0DF
:101080000895F894E82FE295EF70F0E031A1282F51
:101090002F7081E090E001C0880F2A95EAF7982F21
:1010A0009095932391A392A1892B82A3789408957C
:1010B0009091B80492FF06C0282F28712830F9F4C7
:1010C000877F846093FF06C0282F28712831F1F4B0
:1010D000877E84612091B90420FF06C0382F3871C3
:1010E0003830D9F4877F816021FF06C0282F28710E
:1010F0002831D1F4877E816194FD877E0895282F61
:1011000024712430F9F68B7F8860DCCF282F24717E
:10111000243101F78B7E8861DDCF382F317131307A
:1011200019F78E7F8860E0CF282F2171213121F7B8
:101130008E7E8861E1CFCF93DF93EC0182389105F9
:10114000B1F108F040C08133910509F49DC048F524
:101150008932910509F48DC08A9709F49CC0C115A4
:1011600021E5D20708F0C3C0C11530E5D30708F068
:101170001EC1C83ED10508F0A3C0C03ED10588F508
:10118000C83AD10508F08EC0C53AD10508F007C1AC
:10119000C130D10531F1209721F1C430D10508F5D6
:1011A00045C08533910509F45FC0C997C1F68091A8
:1011B000B804837009F044C18091B90483FF11C061
:1011C000C9E2D0E00EC0833E910599F170F4803EF3
:1011D000910501F1823E910511F68091B80482FDDE
:1011E00021C0CE01DF91CF910895863E910561F136
:1011F000873E910571F1843E910509F0B0CF809151
:10120000B90481FFEECF8091B804C7EED0E084FD31
:101210000DC0E7CF8091B80480FD33C09091B90430
:1012200090FFDFCFC3EED0E084FFDBCFD0E0C0E0A3
:10123000D8CF8091B80482FD00C19091B90490FD8F
:10124000FFC084FFCECFF2CF8091B80483FDDDCF05
:10125000C8CF8091B80483FDF6C09091B90491FF86
:10126000F0CFC4EED0E0BDCF8091B80485FFB9CFF8
:10127000A7CF8091B80485FDE9C08091B90483FFB0
:10128000B0CFC9E3D0E0ADCF8091B80486FFA9CF3D
:10129000CAE2D0E0A6CF8091B80486FFA2CFC1E316
:1012A000D0E09FCFCF3BD10508F6C85AD0E0CC0F95
:1012B000DD1FCB5DDE4F0990D881C02DD46491CF66
:1012C000C11540E2D40758F4C11581E0D80708F0F1
:1012D00088CFC03FD10508F4A9CFD06582CFC11512
:1012E00020E4D20708F4A2CFDF70D06A7ACFC1150C
:1012F00035E5D30718F5C11544E5D40708F085C0D6
:10130000C11583E5D80708F06CC0C11522E5D207E6
:1013100008F462C0CE018370992721E030E002C05A
:10132000220F331F8A95E2F7C695C69580E2C89FC3
:10133000E0011124C22BD32BDC6853CFC11539E552
:10134000D307A8F4C11548E5D40708F063C0C11558
:1013500086E5D80708F06ACF8C2F0E945808C82F5E
:10136000D0E0DC2FCC27CC27DF71D0623ACFC1157B
:101370002AE5D20708F453C0CE0190568115904259
:1013800008F054CF8D2F8F710E94580890E0982F4D
:10139000882788279F719C012C2BE901E6CFC55A2D
:1013A000D0E0CE5DDE4FC881D0E0D0641ACF2C2FC4
:1013B00026952695237040E2249F900111248C2FBE
:1013C0008370C1E0D0E002C0CC0FDD1F8A95E2F748
:1013D000C22BD32BDD6805CFDC2FCC27C16FD06AA1
:1013E00000CFCE018370992721E030E002C0220FA8
:1013F000331F8A95E2F7C695C69540E2C49FE00187
:101400001124C22BD32BDA68ECCEDC2FCC27C46F8F
:10141000D06AE7CEDC2FCC27C06FD06AE2CE8C2F0B
:101420008F700E94580834E0D695C7953A95E1F739
:10143000CF709C2FEC01D069D4CEC2EED0E0D1CEDB
:10144000C0EED0E0CECEC6EED0E0CBCEC5E3D0E04D
:10145000C8CE80911102882331F0109211021092AF
:10146000100210920F020895CF93C82F8091B904F3
:1014700082FF0CC0809111028C1741F00E949304EE
:101480009093100280930F02C0931102CF910895A0
:1014900080959091ED0498239093ED0408958095A4
:1014A0009091A40398239093A40308959091A4038A
:1014B000892B8093A40308951092EE011092ED0100
:1014C0001092EC0108958091C7039091C803892B75
:1014D00089F00E94930420910F0230911002AC0118
:1014E000421B530B81E02091C7033091C803421780
:1014F000530708F480E081700895909119019923B1
:10150000D1F09091B80497FF16C0E82FE695E695C4
:10151000E695EE31E0F4F0E0E059FE4F282F277019
:1015200081E090E001C0880F2A95EAF780959281CA
:10153000892382830895E2E7F1E09191891303C042
:10154000DF0111971C9291E0E837F907B1F7089590
:101550002091EB019091AA01291302C080E0089527
:1015600030E0F90153E0EE0FFF1F5A95E1F7E55522
:10157000FE4F5181561306C05081581303C052814B
:10158000541304C02F5F3F4F2770E6CF81E00895CA
:101590008091EB019091AA01981301C008958F5F8B
:1015A0008770FACF292F943078F5873068F590E06E
:1015B00037E0239F800D911D1124682F677023E071
:1015C000969587952A95E1F7FC01EE0FFF1FE80F2E
:1015D000F91FEA56FE4F50E040E080E0219130E0F4
:1015E000062E02C0369527950A94E2F7217033271C
:1015F000042E01C0220F0A94EAF7822B4F5F5F4F3F
:101600004330510559F7089580E00895292F94300B
:1016100098F5873088F590E037E0239F800D911D85
:101620001124282F277041E001C0440F2A95EAF7C2
:1016300023E0969587952A95E1F7FC01EE0FFF1FB1
:10164000E80FF91FEA56FE4F30E020E070E05191BC
:10165000DF011197CB01022E02C0969587950A945F
:10166000E2F7817081958527842385278C932F5FEE
:101670003F4F2330310559F7089592959F7096306A
:1016800091F058F4925F9F70923058F4803F19F0B7
:1016900030F4883E30F481E008959A5FF4CF843FBF
:1016A000D1F380E00895883EB0F3813FD1F7F3CFC6
:1016B0009C013A9521153F4150F5FC01EE27F17050
:1016C000BC0166277270AC01442754709C0122272C
:1016D000387094FF0EC080E1EF2B09F480E0672B97
:1016E00009F08062452B09F08064232B89F0806823
:1016F000089581E0EF2B09F480E0672B09F0826008
:10170000452B09F08460232B19F08860089580E050
:1017100008958093BA047093BC046093BB048091D5
:10172000EB048430F9F48093E9008FEF9091E800A6
:10173000815095FD06C095ED9A95F1F70000811155
:10174000F5CF8091E80085FF0DC050E040E063E0F8
:1017500070E08AEB94E00E9407038091E8008E77A6
:101760008093E8000895BC0184E00E94890B0895ED
:10177000BC0183E00E94890B08959C0184E0809362
:10178000E9009FEF8091E800915085FD06C085ED4E
:101790008A95F1F700009111F5CF8091E80085FF5F
:1017A0000CC050E040E066E070E0C9010E94070311
:1017B0008091E8008E778093E8000895CF93DF93BF
:1017C000EC01809119018823B1F18091B80487FF61
:1017D00032C060E284E08093E9008FEF9091E800EE
:1017E000815095FD06C095ED9A95F1F700008111A5
:1017F000F5CF8091E80085FF1BC08091190170E052
:1018000050E040E0811104C050E040E068E070E04A
:10181000CE010E9407038091E8008E778093E80054
:1018200080E2FE01A0ECB4E001900D928A95E1F710
:10183000DF91CF91089568E081E0CDCF019708F462
:101840000895EFE9FFE03197F1F700C00000F6CF0F
:101850000F931F93CF93DF9305EC13E0C7E0D1E024
:10186000CE010E948A33F80181938F012196CB32F9
:10187000F1E0DF07A9F7CCECD2E0FE01859194916D
:10188000009711F0FC0109952C96F3E0C83CDF07A6
:10189000A1F7DF91CF911F910F9108950F931F939F
:1018A000CF93DF93843030F5643020F5473010F566
:1018B000C42FD0E0CC0FDD1F2EE0629FC00DD11DE4
:1018C000112438E3839FC00DD11D1124CE018796CA
:1018D0000E948A33082F10E0102F0027CE0188962F
:1018E0000E948A339801282BC901DF91CF911F9163
:1018F0000F91089590E080E0F8CF462F2091A20349
:101900003091A303232B99F4703F39F4603F79F4AD
:101910008091A0039091A1030895843040F4743025
:1019200030F4673020F4672F0E944E0C089590E049
:1019300080E00895CF92DF92FF920F931F93CF9391
:10194000DF936C010091EC0480911202082BC7E038
:10195000D0E010E0FC2EC8010C2E02C095958795B2
:101960000A94E2F780FD0CC02197A0F7F12C8F2D8F
:10197000DF91CF911F910F91FF90DF90CF9008954D
:10198000B6018C2F0E947D0C0E949B08019761F389
:10199000EECFCF93DF93EC010E949A0CBE010E9420
:1019A0007D0C0E949B08DF91CF910895CF93DF9328
:1019B000EC014B815C81698188810E947E058111E7
:1019C00010C08E819F81009739F00E949B080E9471
:1019D0003D0BDF91CF910895888199810E94C90CB8
:1019E000F6CF80E0F6CFA5E0B0E0E9EFFCE00C94A4
:1019F0002C3349835A8389819A81662399F0222363
:101A000089F00E949A0C182F682F89819A810E9470
:101A1000060B69817A81812F0E947D0C2596E3E077
:101A20000C9448330E94D20A182FF3CFFC01262FC2
:101A300086819781009739F4408151816281738159
:101A400084810E94F30C089583E290E00E948A331F
:101A50008E3A89F484E290E00E948A338F3859F4F8
:101A600085E290E00E948A3391E0843E09F090E0A4
:101A7000892F8170089580E0FCCFCF9384E090E0BF
:101A80000E948A33C82F82E290E00E948A33982F06
:101A90008C2FCF910895DB01FC0132962591349172
:101AA0004217530758F0FC01349665917491A901CF
:101AB000CD010E946A3390E080E008958FEF9FEFA0
:101AC00008950F931F93CF93DF9305EC13E0C7E0C6
:101AD000D1E0CE010E948A33F80161918F0168172D
:101AE00019F0CE010E9498332196CB32F1E0DF0746
:101AF00081F7DF91CF911F910F910895DA019C0139
:101B00002E5F3F4FF90145915491F9012591349190
:101B1000A217B30758F0FC013496859194910E9466
:101B20006A330E94610D90E080E008958FEF9FEF8F
:101B30000895CF93DF93CBE1D2E060E0CE010E9425
:101B400098332196C11584E0D807B9F7DF91CF917A
:101B500008951F93CF93DF93122F8430E0F4643005
:101B6000D0F44730C0F4C42FD0E0CC0FDD1F9EE08E
:101B7000699FC00DD11D112498E3899FC00DD11D0F
:101B80001124632FCE0187960E949833612FCE01D6
:101B900088960E949833DF91CF911F910895CF933B
:101BA000C82F6FEF81116EEA83E290E00E949833B4
:101BB0006FEFC1116FE884E290E00E9498336FEFFD
:101BC000C11164EE85E290E00E949833CF910895B0
:101BD000CF93C92F682F84E090E00E9498336C2F38
:101BE00082E290E00E949833CF9108959B01883063
:101BF00070F49AE0899FB0011124655D7E4F4AE040
:101C000050E0C9010E947A3390E080E008958FEFA0
:101C10009FEF0895AAE0B0E0E0E1FEE00C942D33E0
:101C20009C0137552F3F310509F068F4BE016F5F05
:101C30007F4F0E94F60D892B31F489859A852A966B
:101C4000E2E00C9449338091DD039091DE03F7CFFD
:101C5000AAE0B0E0EEE2FEE00C94233306E213E0EB
:101C600084E1C82E83E0D82E9BECE92EFF24F39468
:101C700027E0922E33E1A32E33E0B32E8824839401
:101C8000D6010D931D936D014AE050E0B701CE01DE
:101C900001960E947A33F8013896DF01892D1D9252
:101CA0008A95E9F789819A81D80111969C938E9340
:101CB0008F8112968C9312978D8113968C93139724
:101CC000888514968C931497898515968C9315970F
:101CD0008B819C8117969C938E93169718961C92D5
:101CE00018978A8587FF3CC01E961C921E921D97EE
:101CF00080FF03C0D80118968C9281FF04C0F801C0
:101D000090859260908782FF07C0D80118969C91B9
:101D10001897946018969C9383FF04C0F8019085EF
:101D20009860908784FF07C0D80118969C911897F7
:101D3000906118969C9385FF04C0F80180858062AD
:101D40008087015F1F4FFAE0EF0EF11C8BE1E81670
:101D500082E0F80609F094CF2A96ECE00C943F3329
:101D6000F801B686A586C4CFAAE0B0E0EAEBFEE0B3
:101D70000C942733E3ECF2E080E5DF011D928A95B5
:101D8000E9F7E1E5F4E088E3DF011D928A95E9F7E0
:101D900083ECC82E82E0D82E7F010BE711E0F7011B
:101DA000D182C0824AE050E0B801CE0101960E9483
:101DB0007A3388E0FE013196D60101900D928A9522
:101DC000E1F789859A85D70113969C938E93129794
:101DD000BAE0CB0ED11CE7E0EE0EF11C065F1F4F00
:101DE0000B3CF1E01F07D9F62A96E8E00C94433348
:101DF000A4E0B0E0EEEFFEE00C94263319821A82E4
:101E00001B821C8283E5C82E81E0D82E10E000E002
:101E1000EE24E394F12CF60181916F018F3F09F4D8
:101E200046C0F894E82FE295EF70F0E021A18F70A2
:101E3000A70102C0440F551F8A95E2F7CA01922FED
:101E4000982B91A392A18095892382A3789400C0B6
:101E5000E7E5F1E0B12C31E021912F3F09F473C0A7
:101E6000A22FA295AF70B0E090968C9190E02F7069
:101E700002C0959587952A95E2F780FD64C0832F6F
:101E8000B82A330F51E0EE35F50731F7F6013197F7
:101E900080818F3F11F00E94410880EA8A95F1F716
:101EA000E1E0F0E0EC0FFD1FE00FF11FB0820F5FEB
:101EB0001F4F0430110509F0AECF44E050E0BE01E1
:101EC0006F5F7F4F86E192E00E945D33892BE9F1DD
:101ED00089819A81AB81BC8180931602909317020D
:101EE000A0931802B093190281E0809315020E941A
:101EF00093049093140280931302809113029091A3
:101F000014020E947804059720F144E050E066E155
:101F100072E080E392E00E945D33892BF9F08091BA
:101F2000160290911702A0911802B09119028093A5
:101F3000300290933102A0933202B093330281E0D9
:101F40001092150207C080E09BCF8091150281118D
:101F5000D4CF80E02496E9E00C94423380E0F0CFC7
:101F6000CF938091A4039091ED04892B809370010D
:101F700080911102882329F18091C7039091C803B1
:101F8000892B29F00E94630A81110E94290A8091FD
:101F9000700190911102892B809370018091190139
:101FA000882309F447C08091B80487FF43C08EE1BD
:101FB000E2E7F1E090E0815008F03EC091110E940C
:101FC000290AC091A104C09580917001C823809115
:101FD000A204C82BC093700140E250E06FEE71E0A4
:101FE00080E791E00E945D33892B11F180E2E0E708
:101FF000F1E0AFEEB1E001900D928A95E1F7E0914A
:10200000AF04F091B004309799F0809119018823C2
:1020100049F08091B80487FF05C0C093710186E044
:10202000809370010280F381E02D80E791E00995B3
:10203000CF91089586E0BCCF2191222309F4BBCF34
:102040009F5FB9CFCF93DF93EC01EA85FB85309793
:1020500019F06C857D8509958B810E94480A8C81D9
:102060000E944F0A0E94B00F86E0FE0111928A95ED
:10207000E9F7DF91CF910895CF93DF93EC018D8144
:1020800081FD15C082608D838091ED049B81892B39
:102090008093ED048C810E94560A0E94B00FE8855F
:1020A000F985309721F06C857D85CE0109951092D8
:1020B000AC041092AB048D8180FD03C0CE010E9460
:1020C0002210DF91CF91089580911701877F80932F
:1020D000170182E00E94480A8091170184FF06C020
:1020E0008F7E8093170182E00E94560A809117012B
:1020F00085FF06C08F7D8093170180E20E94560AFB
:102100000E94B00F089590E080E00E94EA0490E001
:1021100080E00E94D4041092ED040E94B00F86E08B
:10212000EBE3F2E0DF011D928A95E9F710923502A8
:1021300010923402109236020E9495060895809300
:10214000EC040E94831008958091EC04982F9670FF
:10215000963021F488600E949F100895877FFBCFFE
:1021600021E030E001C0220F8A95EAF720958091A6
:10217000EC0482230E949F1008959091EE018095B7
:1021800089238093EE01282F277091F4282F082EA1
:10219000000C330B9217130659F09091B90492FF7B
:1021A00007C08595859585950E94B0100E945C0AB0
:1021B00008959091B90492FB222720F9281769F01D
:1021C00080FB92F99093B9048091B8049091B9047E
:1021D0000E94E80D82E00E94BD10089521E030E0E9
:1021E00001C0220F8A95EAF78091EC04822B0E94AD
:1021F0009F1008959091B90492FF10C098E0899FB4
:1022000090011124622B6093EE010E94EE100E9457
:1022100093049093ED018093EC0108950E94EE10D9
:102220000895809312020E94831008951092A403CF
:1022300080911901E2E7F1E0882361F08091B80410
:1022400087FF08C08EE1DF011D928A95E9F70E94A1
:102250008310089586E0F7CFAAE2B0E0E2E3F1E16F
:102260000C942C3383EE94E02091F100DC012D934B
:10227000CD01B4E08B3E9B07B9F78091E404833035
:1022800009F472C0B8F4813009F449C0823009F40D
:10229000B3C08091E80083FF96C28091E3049091DF
:1022A000E4049A3008F08FC2E92FF0E0EA52FC4CC7
:1022B0000C9410338A3009F48EC08B3009F471C04D
:1022C000893039F78091E304813219F78091E7046E
:1022D0009091E804009711F00297D9F68091E800F8
:1022E000877F8093E8008091E80082FF38C090915A
:1022F000F3008091F200029731F48091F100813077
:1023000011F0863021F48091F1008093BF04809118
:10231000E8008B778093E8000E945903BACF809140
:10232000E304813A09F0B5CF8091E800877F80937C
:10233000E8008091E7049091E804892B61F460E261
:1023400080EC94E070E00E9405048091E8008B77B7
:102350008093E8009ECF60E090E080E0F3CF809132
:10236000EB048111C0CF95CF8091E304813A09F04D
:1023700090CF8091E7049091E804892B09F089CFF0
:102380008091E800877F8093E8008091E80080FFDB
:10239000FCCF809119018093F1008091E8008E7745
:1023A000B9CF8091E304813209F073CF8091E704C3
:1023B0009091E804892B09F06CCF8091E800877F29
:1023C0008093E8000E9459038091E50480931901ED
:1023D0000E9416115ECF8091E304813209F059CF3B
:1023E0008091E800877F8093E8000E9459038091E4
:1023F000E6048093BE044DCF8091E304813A09F056
:1024000048CF8091E800877F8093E8008091E800C2
:1024100080FFFCCF8091BE04BECF803899F0823817
:1024200009F0D1C18091E7048F70873008F0CBC1EB
:102430008093E9008091EB0085FB882780F910925A
:10244000E90006C08091E0049091E104911182605E
:102450009091E800977F9093E8008093F1001092AC
:10246000F1008091E8008E77AAC1882309F498C111
:10247000823009F0A8C18091E50481119BC180914F
:10248000E7048F702FEF280F263008F09CC180934F
:10249000E9002091EB0020FF8DC1933031F4809151
:1024A000EB0080628093EB0085C19091EB0090611E
:1024B0009093EB0021E030E001C0220F8A95EAF70B
:1024C0002093EA001092EA008091EB008860EACF46
:1024D000811179C11091E5041F778091E300807824
:1024E000812B8093E3008091E800877F8093E80050
:1024F0000E9459038091E80080FFFCCF8091E300A7
:1025000080688093E30082E0111183E08093EB0404
:102510005AC18058823008F056C12091E5043091AC
:10252000E6042C3DE3E03E07A1F583E08A838AE2DE
:1025300089834FB7F894DE01139620E03EE051E224
:10254000E32FF0E050935700E49120FF03C0E295A1
:10255000EF703F5FEF708E2F90E0EA30C0F0C796CB
:102560008D939D932F5F243159F74FBF8091E800E1
:10257000877F8093E8006AE270E0CE0101960E94B6
:1025800005048091E8008B778093E8001CC1C09619
:10259000E7CF8091E7049091E804432F552743301B
:1025A000510509F44AC078F54130510509F485C058
:1025B0008BE590E0EEEBF3E04230510509F003C10A
:1025C0002091E800277F2093E8002091E9043091D2
:1025D000EA048217930708F49C0140E021153105B5
:1025E00009F070C041116EC08091E80082FDC9CF32
:1025F0008091EB04882329F2853019F28091E8005C
:1026000083FFF2CFBECF4132510509F447C04232B9
:10261000510509F0D8C08330910508F0D4C0FC0101
:10262000EE0FFF1FEF59FE4F0190F081E02D825A0F
:102630009E4FDC018C9190E01DC033272130310585
:10264000E9F02115310579F022303105F9F0233018
:10265000310509F0B8C0EBE2F4E0E4918E2F90E090
:10266000EBE2F4E007C0EBE7F4E0E4918E2F90E0BA
:10267000EBE7F4E0009709F4A6C0A2CFE1E6F4E0AE
:10268000E4918E2F90E0E1E6F4E0F4CFE9E4F4E0A9
:10269000E4918E2F90E0E9E4F4E0ECCF83309105F3
:1026A00008F091C0880F991FFC01E959FE4F019075
:1026B000F081E02D89E090E083CF82E190E0E9E1D4
:1026C000F4E07ECF8091EB04882309F45ACF853063
:1026D00009F457CF8091E80083FD53CF8091E80043
:1026E00082FD82CF8091E80080FF78CF9091F30047
:1026F0008091F2002115310519F08830910550F0D4
:1027000041E0089709F040E08091E8008E778093DF
:10271000E80064CF44914093F10031962150310993
:102720000196E8CF803809F04EC08091E800877F9D
:102730008093E8008091E2048093F10092CE8111B1
:1027400042C01091E5041230F0F58091E800877FD7
:102750008093E8001093E2040E945903112311F0C2
:1027600084E005C08091E30087FDFACF81E080938B
:10277000EB0442E061EC81E00E94780342E261EC0C
:1027800084E00E94780342E261EC82E00E947803D8
:1027900042E260EC83E00E9478038091EB0413C076
:1027A0008091E504813079F481E0933009F080E094
:1027B0008093E1041092E9008091E800877F809384
:1027C000E8000E9459038091E80083FF0AC08091CD
:1027D000E800877F8093E8008091EB00806280931F
:1027E000EB00AA96E3E00C944833E5ECF3E0128E9C
:1027F000138E8FEA90E09183808325E0248F88E810
:1028000093E1938382838AE090E09583848344E11B
:1028100050E05783468348E050E0518740879387D4
:1028200082876EE170E0758764879787868780E589
:1028300090E0918B808B538B428B48E250E0558B1C
:10284000448B42E350E0578B468B48EC50E0518F6D
:10285000408F158E178E168E91A380A322A30E94FF
:10286000610D0E9416111092B9041092B804E9EBA0
:10287000F4E08081846080838091B8049091B904F1
:102880000E94E80D0E94280C0895AEE1B0E0EBE450
:10289000F4E10C942333A0909E03B0909F0381E059
:1028A00090E090939F0380939E03F12CE12C8AE8A3
:1028B000C82E82E0D82E10E017C0E114F104B9F45C
:1028C000F40125913491402F612F80E00E94A90DE1
:1028D00082E0880E911C0F5F073079F71F5FEEE0F2
:1028E000CE0ED11C143049F0460100E0E6CF21E0C5
:1028F00030E0402F612F8E2DE9CFFFEFEF1AFF0A56
:1029000084E0E816F10499F60E94F5131A82198200
:102910001C821B821E821D8218861F8288EC90E01A
:102920009A8789870BE211E04AE050E0B801CE01B6
:1029300001960E94BC33065F1F4F0B37E1E01E0774
:1029400099F77E01FBE0EF0EF11C8AE0F70111928E
:102950008A95E9F74AE050E0B801C7010E94BC330C
:10296000065F1F4F0B3CF1E01F07A1F77E0185E1D9
:10297000E80EF11C8AE0F70111928A95E9F78FEFD2
:102980009FEF9A8F898F87E08E8F4AE050E0B801E1
:10299000C7010E94BC33065F1F4F0B31F2E01F07D7
:1029A000A1F7B0929F03A0929E036E96ECE00C9468
:1029B0003F3380E00E94CF0D60E086E290E00E940D
:1029C00098330E9445140E94990D81E00E94CF0D1A
:1029D0000895CF92DF92EF92FF928FEF9FEF4430F6
:1029E000510508F46AC0FB01C080D180E280F38009
:1029F0000E9416118091B804C0FA80F9B701A601AF
:102A0000769567955795479540FB81F9B701A601E3
:102A100022E076956795579547952A95D1F740FB23
:102A200082F9B701A60133E07695679557954795EA
:102A30003A95D1F740FB83F9B701A601E4E076951A
:102A4000679557954795EA95D1F740FB84F9B7010B
:102A5000A601F5E07695679557954795FA95D1F7D4
:102A600040FB85F9B701A601A6E0769567955795D5
:102A70004795AA95D1F740FB86F9B701A601B7E0C3
:102A80007695679557954795BA95D1F740FB87F9A5
:102A90008093B8048091B904D0FA80F9D1FACC249B
:102AA000C0F8C0FA81F98093B9048091B80490917C
:102AB000B9040E94E80D90E080E0FF90EF90DF9075
:102AC000CF9008950E9416112FEF84E39CE02150CF
:102AD00080409040E1F700C0000088E19AE00FB626
:102AE000F894A895809360000FBE90936000FFCF8C
:102AF000882321F00E94480A0E94B00F089588237D
:102B000039F09091ED04982B9093ED040E94B00F52
:102B10000895882321F00E944F0A0E94B00F089563
:102B2000882321F00E94560A0E94B00F089588233E
:102B300079F19CEF980F913A28F40E947D0A0E9447
:102B4000B00F089590E2980F983050F4877091E09C
:102B500001C0990F8A95EAF7892F0E944F0AEFCF9B
:102B60009BE5980F933028F490E080E00E94EA04FF
:102B7000089598E5980F973128F490E080E00E943E
:102B8000D4040895803F20F00E94BC060E94950660
:102B90000895FF920F931F93CF93DF93F82E009128
:102BA000A6041091A7040115110509F449C010925B
:102BB000A5041092A4041092A1041092A204D801BA
:102BC0001696CD91DC919E013A9521153F4108F46E
:102BD000D07ED1E0C11101C0D0E0D8011996ED91AD
:102BE000FC911A97309731F01B966D917C9180E0A3
:102BF0000995D823DD2339F08CEF8C0F813A30F51D
:102C00008C2F0E947D0AFF2099F0E091A604F0919C
:102C1000A704808584FD0CC08091A304882341F023
:102C2000808191819C0121503109203B3D45A0F0DC
:102C30000E94B00F1092A7041092A6041092A30451
:102C4000C801CDB7DEB7E5E00C9446330E94B00F63
:102C50008C2F0E949715D7CF0E940D05E9CFCF93F7
:102C6000DF93EC010E949715CE010E94580B9E0144
:102C7000205E31092830310510F0CD2B29F40E9457
:102C80008915DF91CF9108950E947815FACFCF93DF
:102C9000C82F8823C1F18CEF8C0F813AB0F5809159
:102CA0001901882301F18091B80487FF1CC0EC2F23
:102CB000E695E695E695F0E0E059FE4F828190E0DA
:102CC0004C2F477021E030E002C0220F331F4A959D
:102CD000E2F782239323892B79F08C2F0E947D0ABF
:102CE0000E94B00F09C0E2E7F1E08191C817A9F393
:102CF00081E0E837F807C9F76C2F80E791E00E9480
:102D00009F040E94B00FCF91089580E28C0F88300D
:102D100048F4C77081E001C0880FCA95EAF70E94A5
:102D2000560AEFCFEBE5EC0FE33040F4F0E0EE5D58
:102D3000FE4F808190E00E94EA04E5CFE8E5EC0FC9
:102D4000E73150F4F0E0EE0FFF1FEB5DFE4F8081A6
:102D500091810E94D404D7CFC03FA8F28C2F0E944B
:102D6000D7070E949506CFCF1F93CF93DF93182FDD
:102D7000C091E503D091E603893321F0C091E303CC
:102D8000D091E403812F0E944716209739F4812FB8
:102D90000E949715DF91CF911F9108958FE99FE0D1
:102DA0000197F1F700C000002197EFCFB0E0A0E05D
:102DB000ECEDF6E10C942533EC018AE0A82E288195
:102DC000222309F48FC02130C9F599818A8191307D
:102DD00021F422960E94B41605C0923029F422965E
:102DE0000E9447162196EBCF933021F422960E9441
:102DF0009715F8CF943011F02196F4CF229630E059
:102E000020E0AE014F5F5F4F8053990B8A309105F0
:102E100050F02150310930F38FE99FE00197F1F72D
:102E200000C00000F6CFA29EB001A39E700D112439
:102E30009C01260F371F8981EA01E3CFE22FF0E0E2
:102E4000E155FB4FB490822F86958695869590E04C
:102E5000FC01E156FB4FE4902770F12C022E02C0DA
:102E6000F594E7940A94E2F731E0E322FF24FC01B1
:102E7000E157FB4FC490D12C022E02C0D594C794C9
:102E80000A94E2F731E0C322DD24FC01E158FB4F54
:102E9000049110E002C0159507952A95E2F701709C
:102EA0001127E114F10419F081EE0E944716C114B4
:102EB000D10419F086EE0E9447168B2D0E94B4169D
:102EC000C114D10419F086EE0E949715E114F104A3
:102ED00019F081EE0E9497150115110509F482CFB2
:102EE0008CE278CFCDB7DEB7EAE00C944133B0E0A6
:102EF000A0E0EDE7F7E10C9425337C015B01C42FE2
:102F0000D22FFC0182818823A9F04093AA040E9459
:102F100093049093A9048093A804C77081E001C032
:102F2000880FCA95EAF70E949015CDB7DEB7EAE0A0
:102F30000C9441331091AA04141338C08091A80452
:102F40009091A9040E9478046C01B701C5010E9408
:102F50000A0EC816D90650F5C0E2CD0F1D17C1F0F4
:102F600080E2810F883048F4177081E0012E01C0A3
:102F7000880F0A94EAF70E948915C83048F481E066
:102F80009D2F977001C0880F9A95EAF70E949015BF
:102F9000802F0E94B416C83040F6D77081E001C07F
:102FA000880FDA95EAF70E948915BFCFC77081E0D4
:102FB00001C0880FCA95EAF7F6CFCF93DF93EC01F3
:102FC0000E94580B9E01205E31092830310510F017
:102FD000209741F40E9490158C2F0E944716DF9194
:102FE000CF9108950E947F15F7CF662329F0209195
:102FF000ED0422602093ED049C013056211540E23F
:10300000340720F0305E2115304108F499270E94E2
:10301000DD170895B0E0A0E0E0E1F8E10C9428337A
:103020007C018B01D42E8091170182FF8CC0C0914E
:10303000EB03D091EC03CE15DF0521F0E114F10490
:1030400009F081C0809117018B7F8093170181FD6A
:1030500073C08091E9039091EA03A801481B590BC2
:1030600081E020911501309116014217530708F4B1
:1030700080E08170F82E80911701F0FA81F9809339
:103080001701FE0183E0F695E7958A95E1F7EE7169
:10309000FF27EB55FC4F20813181AE014F70552742
:1030A00081E090E002C0880F991F4A95E2F7FF2067
:1030B00009F444C0822B932B918380838091A403D5
:1030C00081FF08C08091170180618093170182E021
:1030D0000E944F0A8091A40385FF08C080911701C8
:1030E00080628093170180E20E944F0A6F2DCE010B
:1030F0000E94F517DD2031F08091E00385FF02C0CA
:1031000086FF3BC08091E3039091E4030E941E0C74
:103110008091EB039091EC039C013056211540E225
:10312000340720F0305E2115304108F499270E94C1
:103130002F160E9464101DC081E09BCF8095909552
:1031400082239323B9CFC7019927970130562115C0
:1031500040E2340728F0305E2115304108F0C70105
:103160000E942F168091EB039091EC038E159F0522
:1031700001F31093EA030093E903CDB7DEB7E7E06C
:103180000C94443368EE7EEF90E080E00E94B6330A
:1031900060E082E090E00E94983360E083E090E09D
:1031A0000E9498331092120260E084E090E00E9446
:1031B000983364E082E290E00E94983360E085E01A
:1031C00090E00E94983360E086E090E00E9498339F
:1031D0006FEF87E090E00E94983340E050E0BA0142
:1031E00088E090E00E94AA3360E08DE090E00E94C9
:1031F000983340E050E0BA0188E190E00E94AA33A1
:1032000060E087E190E00E94983340E050E0BA012E
:103210008CE190E00E94AA3370E060E080E290E0F0
:103220000E94B63340E050E0BA0188E190E00E948D
:10323000AA3380E00E94CF0D0E94D91440E050E0F4
:10324000BA018FE090E00E94AA3340E050E0BA015A
:1032500083E190E00E94AA330895A7E0B0E0E3E3A1
:10326000F9E10C941D337C01DC0113964D915C91C6
:10327000149711966C9111978C910E947E05811183
:10328000EEC061E0C7010E94160D8C01F70182813A
:103290008823E1F08091AB049091AC040097B1F0E9
:1032A0000817190799F0FEE08F9FC0011124FC0157
:1032B000E85AFD4F2081246020838D5A9D4FDC0108
:1032C0000D931C930E943C101092ED04F701828133
:1032D000882311F40C94ED21C80182519F45409739
:1032E00010F00C94E1218FEF93E00E948A3381115A
:1032F000A6C07EEED72ED00E0BE112E0D11036C064
:1033000019821A821B821C8299249A9468012FEFD9
:10331000C21AD20AC8010E948A3389831A8288237A
:1033200009F48DC0813009F07FC0580132E0A30E4E
:10333000B11CC6010E948A33C82E8A83882309F4EF
:103340007EC0C5010E948A33D82E8FEF8C0D83304A
:10335000D8F4580143E0A40EB11CDB82DD2021F03B
:10336000CE0101960E94D6168501D0CF0115F4E05A
:103370001F0709F464C0C8010E948A33811101C08B
:10338000DA940F5F1F4FBACF8BEF8C0D833030F57F
:10339000C8010396DB825C01DD2031F3580154E063
:1033A000A50EB11C0E948A338C838823E9F28B819D
:1033B0009C818130AFEF9A0710F0982F8827B6E0F4
:1033C000CB1631F0E7E0CE1631F00E945C29CCCF6D
:1033D0000E943629C9CF0E94BD28C6CFF4E0CF1283
:1033E000C3CF580124E0A20EB11CC80103960E946D
:1033F0008A33DD2021F1882311F18150990B989EA9
:103400009001999E300D11244D2D4150550BCA014C
:10341000820F931F019708F4A7CFAFE9BFE0119780
:10342000F1F700C00000F6CFCE0101960E94D6163B
:1034300056019ACF81E00E94EE100E94A410809164
:10344000EE01877061F0D70112968C91882339F0D4
:103450008091B90482FF03C082E00E94BD102796CC
:10346000E2E10C94393381E00E94B010E6CF82E0B3
:10347000FBCF823011F00C942B2280914D02909161
:103480004E02892B09F4E7C72EE02C9DC0012D9D2B
:10349000900D1124FC01E85AFD4F20812E7F2083DE
:1034A0008D5A9D4F0E943C10D6C781E08093000149
:1034B000C6CF80910001882309F4AFC6480120EEF1
:1034C000821A91084090110280919301482A8091BC
:1034D000A403482A38E08316910408F086C09801B6
:1034E0002770332781E090E001C0880F2A95EAF722
:1034F000552009F477C0482AD7018D919C910E94EC
:10350000D20A21E030E0F90102C0EE0FFF1F8A95D8
:10351000E2F7FF83EE832090A6043090A70460902A
:103520009001709091011D822D81E22FF0E0EE0F4D
:10353000FF1FEC5EFC4FC080D180C114D10409F4A0
:10354000D0C6411005C0D60112968C91811189C058
:10355000F601838190E02E813F8182239323892B82
:1035600009F47FC08085982F977009F487E038E0D0
:103570008316910408F053C0552009F44CC0869579
:103580008170882309F46DC0D601AD90BC900A15F6
:103590001B0519F4552009F464C0C214D30409F4BE
:1035A00060C0D6011D96ED91FC91309721F080818D
:1035B000882309F456C0642DC6010E945E05882345
:1035C00009F44FC00A151B0509F099C7011511052B
:1035D00009F49AC751109AC7A614B70409F041C05C
:1035E000512C94C78095482287CF552009F462C694
:1035F00010939101009390010E94870460939D04B1
:1036000070939E0480939F049093A0041092A5044D
:103610001092A40471CF82FB882780F9B2CF552085
:1036200001F18170AECF0E9497158EC70497813A41
:10363000910558F46A2D80E791E00E949F0455207F
:1036400009F4EBC50E94B00FFACE0E94B00F8FE3D1
:103650009CE90197F1F700C000008A2D0E944716EF
:10366000EECF9D819F5F9D835FCFFC0120813181E3
:103670000217130709F0CAC55110CAC51092A30456
:1036800080E00E94C915C9C5902F812F0EC6F9018F
:10369000858181FF3AC6C9010E94221036C68091F9
:1036A00017018160809317015EC6809117018E7F9C
:1036B000809317010E94641056C6809117018F7E77
:1036C000013E110531F0053E1105C9F48091170145
:1036D0008F7D809317018091170180FF53C6D7011A
:1036E00012968C910832110528F50E31110508F05B
:1036F00072C00430110580F5811140C643C6C8016F
:103700009056811540E2940720F0905E811590411B
:1037100010F78091170182FF35C68091E20381FD89
:1037200031C623E232E040E0B60190E080E00E9442
:103730000A1828C60933110558F40D32110518F47A
:103740000B321105C9F69091E00392FDD5CF08C068
:1037500004361105C1F3D0CF9091E00394FDCCCF96
:10376000882309F4A8C0809111029091A403892BA9
:103770008D7FB1F11092EC031092EB038091E00386
:1037800081FD2EC0F80143E0F695E7954A95E1F7F3
:10379000EE71FF27EB55FC4F98012F70332781E026
:1037A00090E002C0880F991F2A95E2F780959095C6
:1037B00020813181822393239183808360E0C8013B
:1037C0000E94F517809111028D7F0E94340A82E0D9
:1037D0000E94BD1034CE9091E00393FD8DCFC0CFF9
:1037E00088E0F701A3E2B2E001900D928A95E1F73B
:1037F0001092250210922702109226028091EB036C
:103800009091EC0308171907D1F52091E00325FFEB
:1038100036C03091170131FF02C026FF30C0209121
:10382000E9033091EA035601A21AB30AB7010E94D4
:103830000A0EA816B90618F58091A40381FF08C0E6
:103840008091170180618093170182E00E944F0AE6
:103850008091A40385FF08C0809117018062809346
:10386000170180E20E944F0A60911701669561700E
:103870008091EB039091EC030E94F517E0CD8091CD
:1038800011029091A403982B2091170191FB21F92B
:10389000209317018D7F0E94340A1093EC0300934C
:1038A000EB03D092EA03C092E90380911701846090
:1038B000809317018CCF970140E0B601C8010E94A8
:1038C0000A18BDCD053F4CE5140709F463C008F4A0
:1038D0005BC0063F8CE5180709F462C0D701129659
:1038E0003C91332309F4D8C51092AA040330BDE5F6
:1038F0001B0708F061C00A3FECE51E0730F4C80161
:1039000082509C45449708F063C00E943D0D9093FF
:10391000B9048093B80402315CE5150709F49EC12F
:1039200008F0EEC009309CE5190709F475C108F0EC
:10393000B8C00530BCE51B0709F462C108F09FC0A0
:103940000330FCE51F0709F453C108F055C180910D
:10395000B804816002303CE5130709F4CEC08091C1
:10396000B8049091B9040E94E80D0E94161167CD29
:1039700007E225EE45EE68ED7CE51FC506E221EE87
:1039800040EE63EF7CE519C507E225EE44EE64EFF7
:103990007CE513C506E221EE42EE65EF7CE50DC540
:1039A00007E225EE46EE66EF7CE507C508E221E07A
:1039B00045EE69ED7CE501C5053AFDE51F0709F413
:1039C000A4CF08F055C001364DE5140709F49DCF8A
:1039D00006318CE5180709F464C50A355DE515075D
:1039E00009F495C108F06EC101159CE5190709F4A9
:1039F00074C10E3D1C4509F47DC1F7018681978194
:103A0000009709F488C10E949B08182F092FF7011D
:103A1000D280C580C2943FE0C3228091EE018770BE
:103A2000C1F0AD2CDD20B1F0892F807F803421F0F2
:103A300080E2810F883068F08091B90482FF09C06C
:103A400082E00E94BD108091EE018770AA24A394A9
:103A50008111A12C902E92942FE09222FBE0F91577
:103A600008F4E6C1E92DF0E0E052FC4C0C94103370
:103A7000C8018D5A9D45039708F0AACF46CF809183
:103A8000B804806207304CE51407B9F18091B8049E
:103A9000806108305CE5150780F18091B80480648E
:103AA0002CC00D308CE5180709F4C0C090F480914B
:103AB000B8048E7F0B30ACE51A07F9F08091B8049A
:103AC0008C600C30BCE51B07C0F08091B8048D7F82
:103AD00014C00F30ECE51E0709F4B8C008F4AAC002
:103AE00000312CE5120709F4B5C08091B8048F7B32
:103AF00001313CE5130709F032CF8093B8042FCF92
:103B00000F3F4CE5140709F4B3C0A8F50A3F8CE554
:103B1000180709F479C0C0F40431ACE51A0709F4B8
:103B2000B5C008F4A1C00531ECE51E0709F017CFB8
:103B30008091B80482FB992790F921E0922790FBAD
:103B400082F990FB83F9D9CF0C3FFCE51F0709F4FC
:103B500075C008F45DC00D3F3CE5130709F472C061
:103B60008091B90483600E3F4CE5140709F0F7CE4D
:103B70008093B904F4CE01365DE5150709F491C0D0
:103B800090F401309DE5190709F489C008F474C068
:103B900060E00230BDE51B0709F0E1CE8EE090E069
:103BA0000E949833DCCE0D3AEDE51E07E9F060F493
:103BB0009091B804892F8E7F90FF8160053A2DE5A2
:103BC000120709F49ACFCBCE0E3A3DE5130751F117
:103BD0000F3A4DE5140709F0C2CE9091B904892F30
:103BE000877F93FF8860C4CF8091B9048860C0CF7D
:103BF0008091B804826081CF8091B80484607DCFC9
:103C00008091B804886079CF8091B9048160B0CF89
:103C10008091B9048260ACCF0E9416118091B804E3
:103C200080686BCF8091B904877FA2CF8091B80460
:103C30008B7F63CF8091B804877F5FCF8091B90479
:103C40008E7F96CF8091B9048D7F92CF8091B804FA
:103C50008F7E53CF8091B8048F7D4FCF0E94161175
:103C60008091B8048F7749CF8091B804837F45CF86
:103C70008091B9048C7F7CCF8091B904982F909566
:103C800091708E7F892B90FB81F972CF0E94161163
:103C90009091B804892F97FB87F980582ECF61E067
:103CA0007DCF9091B804892F8F7E94FF806125CFBE
:103CB00080919201811104C089E20E947D0AC2CCE8
:103CC00085E3FBCF0C35BDE51B07B9F010F1073AD2
:103CD0001D4509F092CE0E9462150E9416112FEF29
:103CE00034E34CE0215030404040E1F700C0000098
:103CF0000E9467040E94C218EECF8091B90482FB33
:103D0000882780F991E089270E94D91076CE81E03A
:103D1000FBCF80E0F9CF828100811181882369F097
:103D2000C8010E949A0CD82E682FC8010E94060B69
:103D3000B8018D2D0E947D0C66CEC8010E94D20A6A
:103D4000D82EF6CF202F2F70B22E802F807F19F023
:103D5000B29490EFB922DD20A9F0BB2059F080E2A7
:103D6000810F883010F0111107C08B2D0E94560A68
:103D70000E94B00F812F5AC08091ED04B82AB092F2
:103D8000ED04F6CF812F0E949715BB2009F450C097
:103D900080E2810F883010F0111104C08B2D0E9439
:103DA0004F0A03C08B2D0E94480A0E94B00F40C0EA
:103DB000302F3F70B32E802F807F803219F0B29465
:103DC00080EFB822112321F1113009F4AEC0DD20BB
:103DD00009F4B7C0CC2009F47FC020E0D7014C9192
:103DE00011965C91119712966C91129713967C9193
:103DF000139714968C910E94F30C8091E20381FD3D
:103E0000B9CFF701858180FFB5CF8F70858364C0FE
:103E10008091B90482FD40C0DD20C1F1BB2029F0B2
:103E20008B2D0E94560A0E94B00F80E00E94471618
:103E3000A92DA850BB0B149710F40E940005812FE8
:103E4000902F0E943D0B8111C2C1109295011092DA
:103E50009401AA20B1F08091EE0180FD12C0D7013B
:103E600012961C928595859585950E94EE10C70146
:103E70000E942D198091EE018595859585950E946A
:103E8000B01060E0C7010E94160DE9CA80E00E94F0
:103E90009715BB2069F282CFDD2011F1C11004C05B
:103EA000809111028B2919C041E0C41206C0809193
:103EB00011028B290E94340ABBCF8091E10382302A
:103EC00078F3C812EDCF0E94290A909193018B2DAF
:103ED000892B8913809393018B2D0E949015A8CF75
:103EE000C11003C00E94290A17C08091E10351E06C
:103EF000C51216C0823008F49BCF8091A4038B2199
:103F000009F496CF0E94290A909193018B2D8095F8
:103F100089238913809393018B2D0E94891588CF63
:103F2000823000F3C812DECF83CF8091E703DD201B
:103F300021F08C1508F47CCFCFCFC81608F078CFCD
:103F4000EBCFCC2049F38091E5039091E603193340
:103F500021F08091E3039091E4030E941E0C812FD5
:103F60000E94971565CF802F86958695837069F09E
:103F7000813009F05DCF812F902F9370D11002C056
:103F800090E080E00E94D40453CF812F902F937053
:103F9000D11002C090E080E00E94EA0449CF812F56
:103FA000DD2029F00E94D7070E94950641CF0E948C
:103FB000BC06FACF802F837091F5D11039CF412FF5
:103FC000429546954770440F440F812F8F70042E01
:103FD00001C0880F0A94EAF7212F207114FF07C04F
:103FE0002FE030E001C0220F4A95EAF72095302FEC
:103FF000369536953370323069F050F440911202A4
:10400000313029F0822B84230E94111111CF842B8F
:10401000822BFACF282B809112028227F5CF86952A
:10402000DD2011F0802F8170882309F401CF412F0A
:10403000429546954770440F440F812F8F70042E90
:1040400001C0880F0A94EAF7212F207114FF07C0DE
:104050002FE030E001C0220F4A95EAF72095302F7B
:10406000369536953370323069F050F44091EC0457
:10407000313029F0822B84230E949F10D9CE842BCB
:10408000822BFACF282B8091EC048227F5CFF02FDA
:10409000FF70BF2EDD2029F08F2F0E94EE10812FA0
:1040A0001CCF812F0E9489158B2D0E94B010C0CE8D
:1040B000123F89F160F4103FB9F0113F81F0DD202B
:1040C00009F480C0C11056CE802F8F7128C0133FD5
:1040D00049F1143FA1F78091B90482FD2FC0802FD0
:1040E0008F71DD2011F31BC08091E703DD2079F093
:1040F000C81608F09DCE202F2F7181E090E001C0FE
:10410000880F2A95EAF79091EC048927B5CF8C1592
:1041100008F48ECEF0CF802F8F71D110C6CF0E94C1
:10412000EE1086CE80E0DD2009F4A6CF81E0902F4E
:104130009F7101C0880F9A95EAF79ECF8091E103A5
:10414000823040F1DD20D1F09091EE0197709430F3
:1041500041F40E945C0A802F8F710E94B010A12C44
:1041600067CEC816E0F7202F2F71B22E822F0E9443
:10417000EE1063E08B2D0E94FA10F1CFC81630F0DC
:104180000E945C0A64E0802F8F71F5CF81E00E946D
:10419000BD10E5CFDD2059F0302F3F71B32E832FB6
:1041A0000E94EE1063E08B2D0E94FA1041CE81E058
:1041B0000E94BD1041E04C1508F03ACE82E00E940A
:1041C000BD1036CEC110BFCE802F8F716ECFDD20D7
:1041D00019F0C1103ACE3DCEC11037CE20E0F70124
:1041E000408151816281738184810E94F30C8091AE
:1041F000E20383FF2ACE809194019091950102976A
:1042000009F023CE812F0E94B4161FCE552029F02D
:10421000DC0118968C9185FF33CAC80197558F3FF2
:10422000910511F008F071C05801BB24BEE00B9F4E
:10423000F00111249F012D5A3D4F6901D7011296BB
:104240008C91E85AFD4F908180FB90F990838823F0
:1042500009F41DCA0E9493049093220280932102C4
:10426000F60182818F5F82838091ED049091A40397
:10427000892B83838091110284830680F781E02D4E
:10428000309731F0D6011C966D917C91C60109954D
:104290008EE08A9DF0018B9DF00D1124ED5AFD4FAB
:1042A000858181FFF1C990E080E09093AB04809319
:1042B000AC042BC0809190019091910108171907CF
:1042C00081F4109291011092900110929D0410922D
:1042D0009E0410929F041092A0041092A5041092C4
:1042E000A4048091A6049091A704009709F495CFA7
:1042F000A8E08A16910408F0B8C9642D0E945E05F2
:10430000811103C081E00E94C9158091E00380FF04
:1043100039C00E9493046C01D70112968C918823B6
:1043200009F4CBC98091170182FF08C023E232E073
:1043300040E0B60190E080E00E940A180B31BCE535
:104340001B0709F4ACC90C31ECE51E0709F4ADC933
:1043500090911701892F8E7F90FF81600A31FCE5D3
:104360001F0709F4A5C9C8019056811520E29207DC
:1043700028F0905E8115904108F0ADC91092EC03D1
:104380001092EB03033FBCE51B0709F4F7CA08F0E2
:1043900099CA083DFCE51F0709F4EACA093D2CE566
:1043A000120709F403CB073D3CE5130709F096CA51
:1043B00006E221EE41EE67ED7CE5C7010E9477172A
:1043C0003EC80031FFE51F0709F434C801312FE56D
:1043D000120709F040C082E02EC800313FE5130704
:1043E00009F441C801314FE5140709F440C86801D8
:1043F000E7E5DE1AFFEFCF16D10409F060F569E4B6
:1044000072E08C2D0E94F60D892B29F58EE08C9D93
:10441000F0018D9DF00D1124ED5AFD4F8281813008
:1044200009F027C88091490290914A02892B99F09E
:1044300080914B0290914C02892B69F080914D0242
:1044400090914E0220914F0230915002822B932B7B
:10445000892B09F419C8D70112965C90552009F4EC
:1044600028C80F35BDE51B0709F41FC80036EDE568
:104470001E0759F00E35FDE51F0709F01AC8809197
:104480000001882311F40C94551A1092000180E069
:104490000E94C9150C941F1A06315CE5150709F036
:1044A000ACCA8091A403982F9A7A2091DF0320FF51
:1044B00004C0482F447409F090E021FF04C0482F45
:1044C000417109F090E022FF04C0482F487809F0BC
:1044D00090E023FF03C0827209F090E0332309F4D7
:1044E000E7CB81E0911101C080E08093920169E205
:1044F000911165E380E791E00E949F04A3C8A11495
:10450000B10409F069C8512CB12CA12C80E00E94A3
:10451000C915D092A704C092A60481E08093A30499
:10452000F60185818093A10451100EC0AB2861F083
:10453000F601808191819C0124503109213A310595
:1045400008F071C80E947D0AD6011696AD90BC9005
:10455000C5019A9581159F4110F4E0EEBE227724A3
:104560007394C5010197803B9D4508F0712CD601DD
:104570001996ED91FC911A97309731F01B966D9139
:104580007C9181E009957822772079F0F601868187
:1045900097810E94580B8093A204C501F8E08F1602
:1045A000910408F043C80E940D050E94B00F47C84F
:1045B000B0E0A0E0EEEDF2E20C9427338091A70189
:1045C000807F31F48091A401C091EB01811107C07B
:1045D000CDB7DEB7E8E00C9443332196C7708091E5
:1045E000AA018C17A9F3F090A201E090A301C0905A
:1045F000A501D090A601A6016E2D8F2D0E947E05EB
:10460000D0E08111EACF8E0183E0000F111F8A955F
:10461000E1F7F801E555FE4F81818E11DECF8081F3
:104620008F11DBCF82818111D8CFE380F480EC1829
:10463000FD0860E082EA91E00E94160D62EA71E0F6
:104640000E940A0EE816F90640F68091A7018F70C5
:1046500080618093A701F801E055FE4F80818F7043
:104660008061808382EA91E00E942D190E94C80A2D
:10467000AFCFA5E1B0E0EFE3F3E20C9420338C017F
:1046800085E0F801DE01519601900D928A95E1F7DF
:10469000D8015C9011966C9011971296EC9012973D
:1046A0001396CD90DC9060E082EA91E00E94160DB6
:1046B00082EAA82E81E0B82E8090A5019090A601F4
:1046C000A4016091A3018091A2010E947E05811145
:1046D000A8C1F090A401F601E819F9094F0160E0C2
:1046E000FF2009F44BC1C5010E94160DB5010E94BF
:1046F0000A0E7090A7018816990608F0F2C0409142
:10470000A5015091A601B090A201A090A301872D10
:10471000807F6A2D09F08CC08B2D0E947E05FE2CB7
:10472000811127C0D80111968C9111978A1121C04F
:104730008C918B111EC02091A8013091A901169671
:104740008D919C9128173907A1F4E11012C0872D93
:104750008F7080618093A70182EA91E00E942D19F9
:104760008091A701F80185838F2D6596EFE00C9469
:104770003C33A601662D852D0E947E05D82E81E052
:104780008E25D11080E080FF18C04E2D662D852D1E
:104790000E94A80A882389F08091E20380FF0DC05F
:1047A00082EA91E00E942D1988E0E2EAF1E0DF015F
:1047B0001D928A95E9F7F12CD7CF81E08E25D11093
:1047C00080E0B82FB170CB2E80FF29C04E2D662D12
:1047D000852D0E94A80AD82E811121C0598A6A8A83
:1047E00089899A890E94C90C292F22952F7022301D
:1047F00050F0243078F49F7051F0F8019581907F4B
:1048000031F4FD2CB1CF9F7011F08823D1F3805E7D
:104810008830B8F3C8010E942D19DC2CF2CFEE20AD
:1048200009F4A2CF8091A70181608093A701C3CF33
:104830008B2D0E947E05811124C0D80111968C9188
:1048400011978A111EC08C918B111BC02091A80159
:104850003091A90116968D919C91179728173907C9
:1048600081F4E1100EC015967C92C8010E942D19AA
:1048700088E0F801A2EAB1E001900D928A95E1F793
:1048800073CFC8010E94D60C882339F1EE2029F19C
:104890008091A7018032A0F02091A2013091A30164
:1048A0003A8729871B86DD86CC868E878091A80172
:1048B0009091A901988B8F87CE0109960E942D199E
:1048C00088E0F801A2EAB1E001900D928A95E1F743
:1048D0000E94D822FF24F39447CFC8010E942D19CB
:1048E000F9CF872D807F09F45BCF9090A201809053
:1048F000A3014091A5015091A601682D892D0E9428
:104900007E0581111CC0F8018181881118C0808149
:10491000891115C02091A8013091A9018681978144
:104920002817390761F4E1100AC07582C8010E9496
:104930002D1988E0D5011D928A95E9F715CFC80198
:104940000E94D60C882349F2EE2039F28091A7010B
:10495000803208F4B5CF2091A2013091A3013A83AF
:1049600029831B82DD82CC828E838091A801909165
:10497000A90198878F83CE010196A0CF82EA91E0AA
:104980000E94160D62EA71E00E940A0E88169906CE
:1049900080F6FE2CEE2009F4A0CFE090A201D0908A
:1049A000A3014091A5015091A6016D2D8E2D0E946D
:1049B0007E05811128C0F80181818D1124C080817C
:1049C0008E1121C02091A8013091A9018681978183
:1049D00028173907C1F48091E20382FD49CF9091F5
:1049E000A70190FD45CF907F09F442CF8091A701A8
:1049F0008583903F09F439CF982F907F905F8F7017
:104A0000892B858332CFC8010E94D60C811158CFE3
:104A10008091A70181608093A701C8010E942D1990
:104A2000A3CEEE2009F459CFC8010E94D60CF82E6F
:104A3000882309F452CF88E0F801A2EAB1E001909E
:104A40000D928A95E1F78091A2019091A3010E94B5
:104A5000C90C0E94D82288CEA0E1B0E0E2E3F5E2E2
:104A60000C942D3329873A874B875C876D877E8727
:104A70008F87988BCE0109960E94392381112FC010
:104A800088E0FE013996DE01119601900D928A951B
:104A9000E1F74C855D856A8589850E947E058111D7
:104AA0001EC0A091AA01B0E0CD01019687709927A0
:104AB0002091EB0128171906E1F093E0AA0FBB1F24
:104AC0009A95E1F7A555BE4F98E0FE013196019009
:104AD0000D929A95E1F78093AA010E94C80A8091ED
:104AE000EB019091AA01891312C06096E2E00C9448
:104AF00049330E9416111092AA011092EB0188E02E
:104B0000E2EAF1E0DF011D928A95E9F7E8CFB8E02B
:104B10008B9FC001112485559E4F0E943923882305
:104B200021F38091EB0190E00196877099278093A3
:104B3000EB01D5CFEF92FF920F931F93CF93DF93AB
:104B40008091F003882361F0C091EF038CE0F82E90
:104B50008091F003C81748F01092F0031092EF0311
:104B6000CDB7DEB7E6E00C944533EE24E394EC0ECB
:104B7000E092EF030C2F10E0CF9DE0011124CF5005
:104B8000DC4F4B815C81698188810E947E058111A7
:104B90001DC08E819F81892B21F48885998501967E
:104BA00051F4288139814A815B816C817D818E81BC
:104BB0009F810E942C25F09EF001F19EF00D1124A2
:104BC000EF50FC4F148213821092ED04CE2DC0CF13
:104BD0001092940410929304109218018091920400
:104BE000809391040E94B7050E949A250895B0E031
:104BF000A0E0EDEFF5E20C941E33C091910497E034
:104C0000892E01E010E02CE0322E3EEF932E44245A
:104C10004394809192048C1309C00E949A250E94AB
:104C2000B705CDB7DEB7E1E10C943A33D0E0FE0131
:104C3000EE0FFF1FE757FB4F80819181889ED001C7
:104C4000899EB00D1124AF5ABB4F14962C91149726
:104C5000211158C05090F003E1EFF3E030E020E084
:104C6000712C5D01251508F04BC0E284F384D50159
:104C7000CD90DC906FEF7FEF612C462D50E0DA0194
:104C8000AA0FBB1FAC0DBD1D0D90BC91A02D1097A0
:104C900031F0EA16FB0609F4BA016394EECF6F3FD8
:104CA0007607A9F1D80102C0AA0FBB1F6A95E2F7E7
:104CB0007A2AB801062C02C0660F771F0A94E2F721
:104CC000AB014150510974161506F9F4329EF001FA
:104CD000339EF00D1124EF50FC4F889ED001899E29
:104CE000B00D1124AF5ABB4F12962D913C911397E2
:104CF00037832683908291829187808715964C9284
:104D00000E9489052196C37084CF148213822F5F7D
:104D10003F4F3C96A7CFA9E1B0E0E1E9F6E20C9461
:104D20001D33942F498B252F5A8B6B8B7C8B8D8B4E
:104D30004C895D89622F892F0E947E05811109C0EF
:104D400080919401909195010196909395018093A3
:104D500094018B8981111092ED041D861E861F8699
:104D6000188A85E0FE017196DE01199601900D9278
:104D70008A95E1F78091B90482FF1EC08091C70334
:104D80009091C803892BC1F00E9493042091EC01FB
:104D90003091ED01821B930B2091C7033091C80322
:104DA0008217930720F08091EE0182FFE2C10E94FA
:104DB000630A81110E94290A4C855D856A8589856F
:104DC0000E947E05811111C061E0CE0109960E940A
:104DD000160D6C018B8527EFC2162CE5D20681F4E7
:104DE000882321F181E08093180129853A854B853C
:104DF0005C856D857E858F8598890E942C25C6C02F
:104E000038EFC3163CE5D30629F4882379F00E94D5
:104E1000E825EBCF49EFC4164CE5D40639F48823D6
:104E200029F0809118018111F2CFDCCF01E514E067
:104E3000512CB12CA12C22242394312C2EEF422E64
:104E4000F8014081518188248A94982C20E0822F97
:104E500090E0FC01EE0FFF1FE40FF51F60817181F0
:104E60006115710531F0C616D70609F44C012F5FA4
:104E7000EECFF12CFFEF8F169F0609F449C0F80121
:104E80004481F09018018F2D411180E0F82FF170CE
:104E9000FF2EF801E58086819B85992309F4F8C0EF
:104EA000FF2009F4F5C06090DB037090DC03E11093
:104EB00013C0A101082C01C0440F0A94EAF7842B07
:104EC00086838091ED039091EE038615970520F47B
:104ED0007092EE036092ED03C10102C0880F991F2A
:104EE0002A95E2F70197F80126812817190681F41F
:104EF0008091930490919404009709F44BC00E9410
:104F000078046816790608F045C021E0F80124838A
:104F10005F28FFEFAF1ABF0A095F1F4F28E0A216F4
:104F2000B10409F08DCF8B85882309F40DC155207C
:104F300009F40AC10E94930490939404809393040B
:104F40008091F003883010F591E0980F9093F00372
:104F500098E0FE013996DE01119601900D929A9526
:104F6000E1F73CE0839FC00111248F509C4F28E063
:104F7000FE013196DC0101900D922A95E1F72FEFA9
:104F80003FEFFC0131872087D386C2866996E2E134
:104F90000C9439338091910450919204982FF0E051
:104FA000E0E0851314C090939104E017F10709F431
:104FB000AFCF90E0FC01EE0FFF1FE757FB4FB18230
:104FC000A08201968370992780939204A1CF682EC6
:104FD000712CF301EE0FFF1FE757FB4F208131814A
:104FE00047E0429FD001439FB00D1124AF5ABB4F01
:104FF0006D917C911197798F688F40E020E030E0CF
:10500000E32FF0E0EE0FFF1F688D798DE60FF71F9D
:105010008080918081149104E1F0F8010190F08189
:10502000E02DFF8BEE8B20E005C08616970609F475
:105030004F2D2F5FE22FF0E0EE0FFF1F6E897F896B
:10504000E60FF71F608171816115710571F73F5F90
:10505000D7CF4423D1F0F801231708F0FD0121E058
:1050600024830E171F0721F490939104F42E50CF40
:10507000981305C0AE17BF0711F49F5F937093019B
:105080002F5F3F4F822F83708CCFF0E0E0E0F7CFAF
:1050900090E0E11020C0B10102C0660F771F2A9591
:1050A000E2F79B01215031098217930731F4442321
:1050B00009F448C0C5010E948905C101082C01C03E
:1050C000880F0A94EAF7982F9095F8018681892332
:1050D0008683FE2C1DCF9C01082C02C03595279598
:1050E0000A94E2F7A90141705527BC01615071098A
:1050F00086239723892B11F5452B01F1F801828135
:105100009381892BC1F01B821C821D821E824982E1
:105110004A820E9493048160582F9D838C83F801FA
:10512000828193818F83988729813A814B816D8118
:105130007E810E942C25F8011582BFCFF22FF170DD
:10514000EF2EBBCFEF2CB9CF9091910480919204B8
:10515000981731F00E94F725552009F446CE16CF56
:105160000E949A2510929404109293040E94B7050D
:10517000F3CF82E00E94BD101ACEA5E0B0E0E3ECD0
:10518000F8E20C942D339093A1038093A003811532
:1051900020E2920730F40E942F162596E2E00C944C
:1051A000493380EF89838A831B820E949304816044
:1051B000782F9D838C8349815A816B818D810E94D8
:1051C0008B26EBCF0F931F93CF93DF938C01EB01D3
:1051D00069E472E08C2F0E94F60D892BA1F4809176
:1051E000E3039091E4030E941E0CDD27CF5BDD4FAB
:1051F0008881F801128218828330F1F048F48130FE
:1052000059F0823081F0DF91CF911F910F91089575
:105210008430B9F08530B9F78091490290914A0203
:10522000009789F306C080914B0290914C02009741
:1052300099F30E94BD28E7CF80914D0290914E02D4
:10524000F6CF80914F0290915002009791F72091F4
:10525000490230914A0280914B0290914C022115F3
:105260003105F1F2009729F7C901E3CFA5E0B0E0DD
:10527000ECE3F9E20C942D339093A1038093A00307
:10528000811520E2920730F40E94DD172596E2E0B6
:105290000C94493380EF89838A8381E08B830E9459
:1052A00093048160782F9D838C8349815A816B811F
:1052B0008D810E948B26EACFCF93DF93EC010E9471
:1052C00036298091E3039091E4030E941E0CCE01E5
:1052D0000E94BD28DF91CF9108950F931F93CF9324
:1052E000DF938C01862F69E472E00E94F60D892B12
:1052F000B1F4C0914902D0914A02209781F0F8019F
:105300008281833051F4CE010E945C29CE010E943B
:105310005C29CE010E945C2902C08430D0F7DF9165
:10532000CF911F910F9108950F931F93CF93DF9308
:105330008C01EB0169E472E08C2F0E94F60D892B41
:1053400009F05CC0FE01FF27D80112968C911297DC
:10535000EF5BFD4F8130B9F415969C9192FF02C02E
:1053600080830AC090FFFCCF82E0808380914B0253
:1053700090914C020097B9F48091490290914A02B1
:105380000097E1F110C08230B9F515968C9182FD3D
:1053900028C080FD0BC083E0808380914D029091F6
:1053A0004E02009701F10E94362928C084E08083D4
:1053B00080914F02909150020097A9F78091490285
:1053C00090914A020097F9F00E945C2980914B026B
:1053D00090914C02009739F78091490290914A02CE
:1053E000E2CF85E080838091490290914A02009744
:1053F00029F00E945C29F0CF86E08083DF91CF9175
:105400001F910F91089580914B0290914C02B8CF5B
:105410001F920F920FB60F9211242F933F934F9329
:105420005F936F937F938F939F93AF93BF93CF932C
:10543000DF93EF93FF93D091E900DF708091EC0050
:10544000C82FC17080FDC0E81092E9008091F00083
:10545000877F8093F00078940E942C111092E900CD
:105460008091F00088608093F000CD2BCF70C093C6
:10547000E900FF91EF91DF91CF91BF91AF919F91A3
:105480008F917F916F915F914F913F912F910F90ED
:105490000FBE0F901F9018951F920F920FB60F928C
:1054A00011242F933F934F935F936F937F938F9329
:1054B0009F93AF93BF93EF93FF938091E10082FF9F
:1054C00009C08091E20082FF05C08091E1008B7FDE
:1054D0008093E1008091DA0080FF24C08091D800A1
:1054E00080FF20C08091DA008E7F8093DA00809167
:1054F000D90080FF9DC080E189BD82E189BD09B4EA
:1055000000FEFDCF81E08093EB048091BD0481110A
:1055100009C00E94B7020E94AA038091E200846041
:105520008093E2008091E10080FF17C08091E2004B
:1055300080FF13C08091E2008E7F8093E200809113
:10554000E20080618093E2008091D80080628093C5
:10555000D80019BC85E08093EB048091E10084FFC2
:105560002BC08091E20084FF27C080E189BD82E1E9
:1055700089BD89B5982F917080FFFBCF8091D800AD
:105580008F7D8093D8008091E1008F7E8093E10031
:105590008091E2008F7E8093E2008091E200816042
:1055A0008093E2008091E204882309F447C084E0FC
:1055B0008093EB048091EB048091E10083FF27C08E
:1055C0008091E20083FF23C08091E100877F809378
:1055D000E10082E08093EB041092E2048091E1000C
:1055E0008E7F8093E1008091E2008E7F8093E200C5
:1055F0008091E20080618093E20042E060E080E020
:105600000E9478038091F00088608093F000FF9101
:10561000EF91BF91AF919F918F917F916F915F912A
:105620004F913F912F910F900FBE0F901F901895A3
:1056300019BC1092EB041092BD0474CF8091E3006A
:1056400087FD93E09093EB04B5CF78941F921FB63B
:105650001F9211248F939F93AF93BF938091B404B3
:105660009091B504A091B604B091B7040196A11D24
:10567000B11D8093B4049093B504A093B604B09385
:10568000B704BF91AF919F918F911F901FBE1F9044
:1056900018951F921FB61F9211248F939F93AF935B
:1056A000BF938091B304811113C08091B404909191
:1056B000B504A091B604B091B7044196A11DB11DE7
:1056C0008093B4049093B504A093B604B093B70448
:1056D000BF91AF919F918F911F901FBE1F90189502
:1056E000CDB7DEB7EF970FB6F894DEBF0FBECDBFD4
:1056F00085B7806885BF85B7806885BF84B7877F99
:1057000084BF0FB6F894A89580916000886180935B
:105710006000109260000FBE80E890E00FB6F89431
:1057200080936100909361000FBE8FE398E09093A7
:105730006F0180936E010E9470060E94B40E0E9459
:10574000280E0E94280C0E94B7020E94AA03809192
:10575000E20084608093E20078948091EB048823D7
:10576000A1F01091E9001F709091EC00892F8170D9
:1057700090FD80E8182B1092E9008091E80083FDED
:105780000E942C111F701093E90082E084BD93E009
:1057900095BD9AEF97BD80936E000E94240D8111F4
:1057A00002C00E94D91481E30E94410883E30E9451
:1057B000410882E30E94410886E30E94410807E510
:1057C00011E0D8018D918D018F3F11F00E944108A9
:1057D000B1E00E351B07A9F784E0E0E3F2E0DF015A
:1057E000282F1D922A95E9F7E6E1F2E0DF011D92EC
:1057F0008A95E9F790E080E00E949233883E9E4FC0
:1058000021F40E94240D811102C00E94C21882E07E
:1058100090E00E948A3380931C020E943D0D909379
:10582000B9048093B8040E94F80EEFEFF6E721E088
:10583000E150F0402040E1F700C000000E94F80E67
:105840008091300280FF08C06FEF7FEF90E080E032
:105850000E94B6330E94670483E090E00E948A337E
:105860000E94111181E091E09093B0048093AF0405
:1058700080E392E034E0380F3FAF1E014BE2240E8C
:10588000311C8091EB04F0E4FF2E00E112E1853041
:1058900009F47CC00E94F80E7DE1E72E72E0F72E3D
:1058A000E0E3CE2EE2E0DE2ED601F70191918D915C
:1058B00022E0E132F20709F473C09817B9F310E05F
:1058C000D6010D916D01F70191907F01901619F1AC
:1058D0009026B12CAA24A394892D8A21A1F0B8AED8
:1058E00019AF91E0802F8A2109F490E09AAF0E94CD
:1058F00093048160782F9CAF8BAF48AD59AD6AADF2
:105900008CAD0E948B26B394AA0CF7E0BF12E4CFB3
:10591000F701319700831F5F143091F60E948704CE
:105920005FC08091EB04843019F11092B30488E1D8
:1059300090E00FB6F894A895809360000FBEF092A7
:10594000600083B7817F846083BF83B7816083BF3A
:105950007894889583B78E7F83BF0FB6F894A89507
:1059600080916000886180936000109260000FBE9B
:105970008091E104882351F00E94F80EE0E3F2E008
:1059800081918111D9C59FAD9E13FACF8091EB040F
:10599000853009F4C6CF0E9416110E9400057ACF07
:1059A00098138DCF0E9493048C0180911A029091DC
:1059B0001B0208171907A1F08FEF8BAB8CAB1DAA48
:1059C0000E9493048160782F9FAB8EAB4BA95CA99A
:1059D0006DA98FA90E948B2610931B0200931A02B7
:1059E0008091A4049091A504892B09F43EC04091B4
:1059F000990450919A0460919B0470919C042FB774
:105A0000F8948091B4049091B504A091B604B0913B
:105A1000B7042FBF841B950BA60BB70B40919504C1
:105A2000509196046091970470919804841795079B
:105A3000A607B707D0F08091A4049091A5040E9416
:105A4000DD171092A5041092A404109299041092EC
:105A50009A0410929B0410929C0410929504109248
:105A6000960410929704109298040091AB04109140
:105A7000AC040115110519F18091210290912202C7
:105A80000E9478047C0188E0D1011D928A95E9F793
:105A9000B101C8010E940A0E8E159F0580F4809105
:105AA000AB04BEE08B9FC0011124FC01E85AFD4FFE
:105AB000208122FD04C08D5A9D4F0E943C10809190
:105AC0001801882301F18091930490919404009728
:105AD000D1F00E9478042091ED033091EE03281755
