:100000000C94180F0C94350F0C94350F0C94350F7D
:100010000C94350F0C94350F0C94350F0C94350F50
:100020000C94350F0C94350F0C947D190C94071E0D
:100030000C9463280C94350F0C94350F0C94350FE9
:100040000C94350F0C94350F0C94350F0C94350F20
:100050000C94350F0C94561A0C94350F0C94350FE4
:100060000C94350F0C94350F0C94350F0C94350F00
:100070000C94350F0C94350F0C94350F0C94350FF0
:100080000C94350F0C94350F0C94350F0C94350FE0
:100090000C94350F0C94350F0C94350F0C94350FD0
:1000A0000C94350F0C94350F0C94350F00000000A4
:1000B0000000000000000000000000000000000040
:1000C0000000000000000000000000000000000030
:1000D0000000000000000000000000000000000020
:1000E0000000000000000000000000000000808010
:1000F00080404020201008040204081010202040F6
:1001000040808000000000000000000000000000AF
:1001100000000000000000000000000000000000DF
:1001200000000000000000000000000000000000CF
:1001300000000000000000000000000000000000BF
:1001400000000000000000000000000000000000AF
:100150000000000000000000000000000000003F60
:10016000C1010102020404040402020101010000B1
:10017000000000008000004080804000003030001F
:10018000000000010264180412C2CA2488F08080B2
:10019000404040402020202010101010080808087F
:1001A0000404040402020202010101010000000033
:1001B000000000000000000000000000000000003F
:1001C000000000000000000000000000000000002F
:1001D0000000000000000000000000000000E01827
:1001E0000601000000000000000000000080838382
:1001F000404040402021212010101010080808081D
:1002000004040404020202020101010100000000D2
:1002100000000000000000000000000000000000DE
:1002200000000000000000000000000000000000CE
:1002300000000000000000000000000000000000BE
:1002400000000000000000000000000080808080AE
:10025000404040402020202010101010080F0808B7
:1002600004040404020408101020204040414224E9
:1002700098C088888C9C1C1E0E06000000000000A0
:10028000000000000000000000000000000000006E
:10029000000000000000000000000000000000005E
:1002A000000000000000000000000000000000004E
:1002B000000000000000000000000000000000003E
:1002C000000000000000000000000000000000002E
:1002D000000000000000000000000000000000001E
:1002E000000000000000000000000000000000000E
:1002F00000000000000000000000000000000000FE
:1003000000000000000000000000000000000000ED
:1003100000000000000000000000000000000000DD
:1003200000000000000000000000000000000000CD
:1003300000000000000000000000000000000000BD
:1003400000000000000000000000000000000000AD
:10035000000000000000000000000000000000009D
:10036000000000000000000000008080804040206D
:100370002010080402040810102020404080800053
:10038000000000000000000000000000000000006D
:10039000000000000000000000000000000000005D
:1003A000000000000000000000000000000000004D
:1003B000000000000000000000000000000000003D
:1003C000000000000000000000000000000000002D
:1003D00000000000000000000000003FC101010219
:1003E0000204844444428201010100000000000034
:1003F000800000408080400000303000000000019C
:100400000204040808102040808080804040404062
:1004100020202020101010100808080804040404EC
:1004200002020202010101010000000000000000C0
:1004300000000000000000000000000000000000BC
:1004400000000000000000000000000000000000AC
:1004500000000000000000000000E018060100009D
:100460000C03000218190005FE80838340404040C1
:10047000202121201010101008080808040404048A
:100480000408304080800000018698600000000071
:10049000000000000000000000000000000000005C
:1004A000000000000000000000000000000000004C
:1004B000000000000000000000000000000000003C
:1004C000000000000000000080808080404040402C
:1004D0002020202010101010080F08080404040425
:1004E0000202020201010101000000000000000000
:1004F0000000000000000000000000060F0F0703CE
:100500000361F0F8FC600101013C78F8F070000034
:1005100000000000000000000000000000000000DB
:1005200000000000000000000000000000000000CB
:1005300000000000000000000000000000000000BB
:1005400000000000000000000000000000000000AB
:10055000000000000000000000000000000000009B
:10056000000000000000000000000000000000008B
:10057000000000000000000000000000000000007B
:10058000000000000000000000000000000000006B
:10059000000000000000000000000000000000005B
:1005A000000000000000000000000000000000004B
:1005B000000000000000000000000000000000003B
:1005C000000000000000000000000000000000002B
:1005D000000000000000000000000000000000001B
:1005E00000000000000080808040402020100804AF
:1005F000020408101020204040808000000000000D
:1006000000000000000000000000000000000000EA
:1006100000000000000000000000000000000000DA
:1006200000000000000000000000000000000000CA
:1006300000000000000000000000000000000000BA
:1006400000000000000000000000000000000000AA
:10065000000000000000003FC101010202048444C8
:1006600044428201010100000000000080000040BF
:100670008080400000303000000000010264180457
:1006800012C2CA2488F080804040404020202020B0
:1006900010101010080808080404040402020202E2
:1006A0000101010100000000000000000000000046
:1006B000000000000000000000000000000000003A
:1006C000000000000000000000000000000000002A
:1006D000000000000000E018060100000C0300020A
:1006E00018190005FE8083834040404020212120CE
:1006F0001010101008080808040404040202020282
:1007000001010101000000000000000000000000E5
:1007100000000000000000000000000000000000D9
:1007200000000000000000000000000000000000C9
:1007300000000000000000000000000000000000B9
:100740000000000080808080404040402020202029
:1007500010101010080F080804040404020202021A
:100760000101010100000000000000000000000085
:100770000000000000000000000000000000000079
:100780000000000000000000000000000000000069
:100790000000000000000000000000000000000059
:1007A0000000000000000000000000000000000049
:1007B0000000000000000000000000000000000039
:1007C0000000000000000000000000000000000029
:1007D0000000000000000000000000000000000019
:1007E0000000000000000000000000000000000009
:1007F00000000000000000000000000000000000F9
:1008000000000000000000000000000000000000E8
:1008100000000000000000000000000000000000D8
:1008200000000000000000000000000000000000C8
:1008300000000000000000000000000000000000B8
:1008400000000000000000000000000000000000A8
:100850000000000000000000000000000000008018
:10086000804040402020202020180402010204087B
:1008700010202040408080000000000000000000A8
:100880000000000000000000000000000000000068
:100890000000000000000000000000000000000058
:1008A0000000000000000000000000000000000048
:1008B0000000000000000000000000000000000038
:1008C0000000000000000000000000000000000028
:1008D0000000003FC10101020204040404020201FD
:1008E0000000000000000000800000408080400008
:1008F000003030000000000102040408081020400D
:100900008080808040404040202020201010101027
:10091000080808080404040402020202010101019B
:1009200000000000000000000000000000000000C7
:1009300000000000000000000000000000000000B7
:1009400000000000000000000000000000000000A7
:100950000000E01806010000000000000000000098
:10096000008083834040404020212120101010103F
:1009700008080808040404040408304080800000CB
:1009800001869860000000000000000000000000E8
:100990000000000000000000000000000000000057
:1009A0000000000000000000000000000000000047
:1009B0000000000000000000000000000000000037
:1009C0008080808040404040202020201010101067
:1009D000080F080804040404020408101020204032
:1009E0004041422418000000000000000000000008
:1009F00000000000000000000000000000000101F5
:100A000001000000000000000000000000000000E5
:100A100000000000000000000000000000000000D6
:100A200000000000000000000000000000000000C6
:100A300000000000000000000000000000000000B6
:100A400000000000000000000000000000000000A6
:100A50000000000000000000000000000000000096
:100A60000000000000000000000000000000000086
:100A70000000000000000000000000000000000076
:100A80000000000000000000000000000000000066
:100A90000000000000000000000000000000000056
:100AA0000000000000000000000000000000000046
:100AB0000000000000000000000000000000000036
:100AC0000000000000000000000000000000000026
:100AD0000000000000000000000000000000808016
:100AE0004040402010080402010204081020408009
:100AF0008000000000000000000000000000000076
:100B000000000000000000000000000000000000E5
:100B100000000000000000000000000000000000D5
:100B200000000000000000000000000000000000C5
:100B300000000000000000000000000000000000B5
:100B40000000000000000000000000000000003F66
:100B5000C1010102020404040402020101010000B7
:100B600000000000000000800000800000606000C5
:100B700000010204040808101020204080808080BA
:100B80004040404020202020101010100808080885
:100B90000404040402020202010101010000000039
:100BA0000000000000000000000000000000000045
:100BB0000000000000000000000000000000000035
:100BC0000000000000000000000000000000C03035
:100BD0000C0300000000000000000000008086867A
:100BE000404040402122222011111010080808081E
:100BF00004040404040830408080000001869860EA
:100C000000000000000000000000000000000000E4
:100C100000000000000000000000000000000000D4
:100C200000000000000000000000000000000000C4
:100C300000000000000000000000000080808080B4
:100C4000404040402020202010101010080F0808BD
:100C500004040404020408101020204040414224EF
:100C6000180000000000000000000000000000006C
:100C70000000000000000000000001010100000071
:100C80000000000000000000000000000000000064
:100C90000000000000000000000000000000000054
:100CA0000000000000000000000000000000000044
:100CB0000000000000000000000000000000000034
:100CC0000000000000000000000000000000000024
:100CD0000000000000000000000000000000000014
:100CE0000000000000000000000000000000000004
:100CF00000000000000000000000000000000000F4
:100D000000000000000000000000000000000000E3
:100D100000000000000000000000000000000000D3
:100D200000000000000000000000000000000000C3
:100D300000000000000000000000000000000000B3
:100D400000000000000000000000000000000000A3
:100D50000000000000000000000080808080404013
:100D600020100804020408102040808000000000C9
:100D70000000000000000000000000000000000073
:100D80000000000000000000000000000000000063
:100D90000000000000000000000000000000000053
:100DA0000000000000000000000000000000000043
:100DB0000000000000000000000000000000000033
:100DC00000000000000000000000007E820202041B
:100DD00004080808080404020101000000000000E3
:100DE000000000800000800000606000010102043B
:100DF000040808101020204080808080404040403F
:100E000020202020101010100808080804040404F2
:100E100002020202010101010000000000000000C6
:100E200000000000000000000000000000000000C2
:100E300000000000000000000000000000000000B2
:100E400000000000000000000000C0300C030000A3
:100E50000000000000000000008086864040404006
:100E6000212222201111101008080808040404048B
:100E70000408304080800000018698600000000077
:100E80000000000000000000000000000000000062
:100E90000000000000000000000000000000000052
:100EA0000000000000000000000000000000000042
:100EB0000000000000000000808080804040404032
:100EC0002020202010101010080F0808040404042B
:100ED0000204081010202040404142241800000065
:100EE0000000000000000000000000000000000002
:100EF00000000000000001010100000000000000EF
:100F000000000000000000000000000000000000E1
:100F100000000000000000000000000000000000D1
:100F200000000000000000000000000000000000C1
:100F300000000000000000000000000000000000B1
:100F400000000000000000000000000000000000A1
:100F50000000000000000000000000000000000091
:100F60000000000000000000000000000000000081
:100F70000000000000000000000000000000000071
:100F80000000000000000000000000000000000061
:100F90000000000000000000000000000000000051
:100FA0000000000000000000000000000000000041
:100FB0000000000000000000000000000000000031
:100FC0000000000000000000000000000000000021
:100FD0000000000000008080808040402010080455
:100FE0000204081020408080000000000000000083
:100FF00000000000000000000000000000000000F1
:1010000000000000000000000000000000000000E0
:1010100000000000000000000000000000000000D0
:1010200000000000000000000000000000000000C0
:1010300000000000000000000000000000000000B0
:101040000000000000001C34C40404040808080860
:1010500008040402010100000000000080000040BC
:1010600080804000003030000101020204040408C6
:101070000810204080808080404040402020202078
:1010800010101010080808080404040402020202E8
:10109000010101010000000000000000000000004C
:1010A0000000000000000000000000000000000040
:1010B0000000000000000000000000000000000030
:1010C000000000000000E018060100000000000021
:1010D0000000000000808383404040402021212008
:1010E0001010101008080808040404040408304014
:1010F0008080000001869860000000000000000071
:1011000000000000000000000000000000000000DF
:1011100000000000000000000000000000000000CF
:1011200000000000000000000000000000000000BF
:10113000000000008080808040404040202020202F
:1011400010101010080F080804040404020408100A
:101150001020204040414224180000000000000000
:10116000000000000000000000000000000000007F
:10117000000001010100000000000000000000006C
:10118000000000000000000000000000000000005F
:10119000000000000000000000000000000000004F
:1011A000000000000000000000000000000000003F
:1011B000000000000000000000000000000000002F
:1011C000000000000000000000000000000000001F
:1011D000000000000000000000000000000000000F
:1011E00000000000000000000000000000000000FF
:1011F00000000000000000000000000000000000EF
:1012000000000000000000000000000000000000DE
:1012100000000000000000000000000000000000CE
:1012200000000000000000000000000000000000BE
:1012300000000000000000000000000000000000AE
:10124000000000000000000000000000000000801E
:101250008040404020202020201804020102040881
:1012600010202040408080000000000000000000AE
:10127000000000000000000000000000000000006E
:10128000000000000000000000000000000000005E
:10129000000000000000000000000000000000004E
:1012A000000000000000000000000000000000003E
:1012B000000000000000000000000000000000002E
:1012C00000060D31C1010101020202040402020103
:1012D000000000000000000080000040808040000E
:1012E0000030300000000001020404080810204013
:1012F000808080804040404020202020101010102E
:1013000008080808040404040202020201010101A1
:1013100000000000000000000000000000000000CD
:1013200000000000000000000000000000000000BD
:1013300000000000000000000000000000000000AD
:101340000000E0180601000000000000000000009E
:101350000080838340404040202121201010101045
:1013600008080808040404040408304080800000D1
:1013700001869860000000000000000000000000EE
:10138000000000000000000000000000000000005D
:10139000000000000000000000000000000000004D
:1013A000000000000000000000000000000000003D
:1013B000808080804040404020202020101010106D
:1013C000080F080804040404020408101020204038
:1013D000404142241800000000000000000000000E
:1013E00000000000000000000000000000000101FB
:1013F00001000000000000000000000000000000EC
:1014000000000000000000000000000000000000DC
:1014100000000000000000000000000000000000CC
:1014200000000000000000000000000000000000BC
:1014300000000000000000000000000000000000AC
:10144000000000000000000000000000000000009C
:10145000000000000000000000000000000000008C
:10146000000000000000000000000000000000007C
:10147000000000000000000000000000000000006C
:1014800000000000000000000000000014001A002E
:10149000090013000A000D000F0018001C002A00AC
:1014A000040015001600170007000B0011000800CB
:1014B0000C0012001D621B000600190005000E0042
:1014C000100036003700387200000000E000E20033
:1014D0002C682B4128420057000000002D022D00EF
:1014E0002E022E0033023500BC00AE00BB004C00C3
:1014F0002F0226022702300231022900500052003A
:1015000051004F002F6234003402300033003502A6
:10151000AA00A800A900317200000000E000E2006B
:101520002C68010001000057000000001E021F028D
:1015300020022102220223022402250239002A006D
:101540001E001F002000210022002300240025008F
:1015500026002700E1000000000000000351000009
:10156000000036003700387200000000E000E200A2
:101570002C6801000100005700000000000000007E
:101580000000000000000000000000000000045007
:101590003A003B003C003D003E003F00400041005F
:1015A00042004300440000000000005C0100000015
:1015B000000000000000450000000000E000E20024
:1015C0002C680100010000570000000014001A0000
:1015D000090013000A000D000F0018001C002A006B
:1015E000040015001600170007000B00110008008A
:1015F0000C0012001D621B000600190005000E0001
:10160000100036003700387200000000E200E000F1
:101610002C002B4528460157000000002D022D000C
:101620002E022E0033023500BC00AE00BB004C0081
:101630002F022602270230023102290050005200F8
:1016400051004F002F623400340230003300350265
:10165000AA00A800A900317200000000E200E0002A
:101660002C00010001000157000000001E021F02B3
:1016700020022102220223022402250239002A002C
:101680001E001F002000210022002300240025004E
:1016900026002700E10000000000000007510000C4
:1016A000000036003700387200000000E200E00061
:1016B0002C000100010001570000000000000000A4
:1016C00000000000000000000000000000000050CA
:1016D0003A003B003C003D003E003F00400041001E
:1016E00042004300440000000000005C01000000D4
:1016F000000000000000450000000000E200E000E3
:101700002C000100010001570000000000DA0281F6
:10171000FFD9F1DB20A4A62EAF00A0C000A1C80015
:10172000AED580A81FD300408D1420000043415047
:10173000530046554E430057494E004E554D0057F5
:10174000494E00434F44450057494E004D41494ED4
:101750000057494E0046554E43004D4143004E55FB
:101760004D004D414300434F4445004D4143004D22
:1017700041494E004D41430000AF00AE0501090252
:10178000A10185020901A100050919012908150017
:10179000250195087501810205010930093115817E
:1017A000257F95027508810609381581257F9501E9
:1017B00075088106050C0A38021581257F9501758B
:1017C000088106C0C005010980A101850319012A0D
:1017D000B700150126B700950175108100C0050CF2
:1017E0000901A101850419012AA002150126A00200
:1017F000950175108100C005010906A10185060546
:101800000719E029E71500250195087501810205F2
:1018100007190029EF1500250195F07501810205D2
:101820000819012905950575019102950175039126
:1018300001C005010906A101050719E029E7150006
:10184000250195087501810295017508810105073B
:10185000190029FF150026FF00950675088100056F
:1018600008190129059505750191029501750391E6
:1018700001C009023B00020100A0FA0904000001B6
:101880000301010009211101000122400007058127
:1018900003080001090401000103000000092111EF
:1018A00001000122B6000705820320000112010099
:1018B0000200000008EDFE0000000101020001121C
:1018C00003530063006F00740074006F0033003630
:1018D00000000016034A006F0065002000530063FB
:1018E000006F00740074006F000000040309040717
:1018F000087F0807003E5B4F5B3E003E6B4F6B3E30
:10190000001C3E7C3E1C00183C7E3C18001C577D91
:10191000571C001C5E7F5E1C0000183C180000FF76
:10192000E7C3E7FF00001824180000FFE7DBE7FF2C
:101930000030483A060E00262979292600407F0506
:10194000050700407F05253F005A3CE73C5A007FD1
:101950003E1C1C0800081C1C3E7F0014227F221421
:10196000005F5F005F5F0006097F017F00006689FE
:10197000956A0060606060600094A2FFA294000815
:10198000047E04080010207E20100008082A1C088D
:1019900000081C2A0808001E10101010000C1E0C55
:1019A0001E0C0030383E383000060E3E0E06000099
:1019B000000000000000005F0000000007000700BA
:1019C00000147F147F1400242A7F2A120023130896
:1019D00064620036495620500000080703000000EA
:1019E0001C224100000041221C00002A1C7F1C2AEE
:1019F0000008083E08080000807030000008080851
:101A00000808000000606000002010080402003E8A
:101A10005149453E0000427F400000724949494615
:101A2000002141494D33001814127F10002745450D
:101A30004539003C4A494931004121110907003626
:101A40004949493600464949291E00000014000052
:101A50000000403400000000081422410014141457
:101A60001414000041221408000201590906003E26
:101A7000415D594E007C1211127C007F4949493664
:101A8000003E41414122007F4141413E007F4949A2
:101A90004941007F09090901003E41415173007F1E
:101AA0000808087F0000417F4100002040413F01BD
:101AB000007F08142241007F40404040007F021C0C
:101AC000027F007F0408107F003E4141413E007FBD
:101AD00009090906003E4151215E007F0919294686
:101AE0000026494949320003017F0103003F40407D
:101AF000403F001F2040201F003F4038403F006310
:101B000014081463000304780403006159494D4329
:101B100000007F41414100020408102000004141C3
:101B2000417F0004020102040040404040400000A8
:101B300003070800002054547840007F28444438AC
:101B400000384444442800384444287F0038545422
:101B500054180000087E09020018A4A49C78007F95
:101B6000080404780000447D4000002040403D000F
:101B7000007F102844000000417F4000007C047872
:101B80000478007C0804047800384444443800FC9D
:101B9000182424180018242418FC007C08040408C5
:101BA0000048545454240004043F4424003C404062
:101BB000207C001C2040201C003C4030403C004465
:101BC00028102844004C9090907C004464544C446D
:101BD0000000083641000000007700000000413698
:101BE0000800000201020402003C2623263C0000FB
:101BF0000000000000404040F0F8F8FF38FFF8F81F
:101C00003FF8F8FF38FFF8F8F040404000000000CF
:101C1000000080C0C0C0800000C0C0800000008004
:101C2000C0C000C0C0000080C0C00000000000C0F4
:101C3000C0C0C0C000C0C000000000000000000024
:101C40000000000000000000000000000000000094
:101C50000000000000000000000000000000000084
:101C60000000000000000000000000000000C0F0C4
:101C7000F8FC3E1E06010000007F4141417F007FCD
:101C80004141417F000080C0E07E5B4F5BFEC000B1
:101C900000C000DCD7DEDEDED7DC00C000000000C4
:101CA0000000000000000000000000000000000034
:101CB0000000000000494949FFFFFFFFE0DFBFBF10
:101CC00000BFBFDFE0FFFFFFFF4949490000000000
:101CD000001F3F6060E0BF1F007F7F071E381E07A8
:101CE0007F7F007F7F0E1F3B716000000000007F40
:101CF0007F0C0C0C007E7E007F7E0303007F7E0342
:101D0000037E7E03037F7E000F3E703C063C703EE8
:101D10000F00327B49493F7E007F7E0303001E3F58
:101D200069696F2600000000000000000000030F3A
:101D30001F3F3C7870600000007F4141417F007F81
:101D40004141417F00307B7F7830202030787F3BDD
:101D50000003000F7F0F0F0F7F0F00030000000034
:101D60000000000000000000000000000000000073
:101D70000000000000010101070F0F7F0F7F0F0F10
:101D80007E0F0F7F0F7F0F0F070101010000000082
:101D90000000000000000101000000000000000041
:101DA0000000000000000000000000000000000033
:101DB0000000000000000000000000000000000023
:101DC0000000000000000000000000000000000013
:101DD0000000000000000000000000000000000003
:101DE00000000000000000000000000000000000F3
:101DF00000000000000000000000000000000000E3
:101E000000000000000000000000000000000000D2
:101E100000000000000000000000000000000000C2
:101E200000000000000000000000000000000000B2
:101E300011241FBECFEFDAE0DEBFCDBF11E0A0E07E
:101E4000B1E0E6EDF6E602C005900D92AE37B107BF
:101E5000D9F725E0AEE7B1E001C01D92AC30B20782
:101E6000E1F70E948A280C944B330C940000CF9326
:101E7000DF9340910A0550910B054A5053409A0157
:101E800024583D4F21303240C0F020E032E0241B86
:101E9000350B6091080370910903FC01CA01240FFE
:101EA000351FC1E0D0E08217930750F0709309030B
:101EB00060930803DF91CF9108952CE732E0E9CFDA
:101EC0004491DC01A65FBC4F5C91451781F04C93B7
:101ED000AC01A5E056954795AA95E1F7DE0102C051
:101EE000AA0FBB1F4A95E2F7AD016A2B752B01962D
:101EF0003196D9CF823027E5920770F4811527E516
:101F0000920768F48B3221E4920749F088329244B8
:101F100031F087E890E008958C329846D1F788EC4C
:101F200090E0089590910103899FC00111248115CB
:101F300022E0920714F090E080E0865F9C4F90933F
:101F40000B0580930A050895E8EDF0E080818E7F0F
:101F500080831092E2001092DA001092E100A0EE6D
:101F6000B0E08C9181608C9380818F77808319BCE5
:101F7000A7EDB0E08C918E7F8C9380818F7E8083E3
:101F80001092D20208952091E4003091E50095E688
:101F9000A9012091EC00822F817020FF06C0809162
:101FA000E80080FF06C080E008952091E80022FD4F
:101FB0001AC08091F702882389F0853089F08091DA
:101FC000EB0085FD0FC02091E4003091E500421741
:101FD0005307F9F29150E1F684E0089582E0089504
:101FE00083E0089581E00895EF92FF920F931F938D
:101FF000CF937C018B010E94C30FC82F811117C0A2
:102000008091E80085FD0BC08091E8008E77809379
:10201000E8000E94C30F882399F3C82F08C0F70176
:1020200081917F018093F1000150110949F78C2FB4
:10203000CF911F910F91FF90EF9008958091F90239
:1020400087FF13C08091E80082FF06C08091E800FE
:102050008B778093E80004C08091F7028111F2CF62
:1020600008958091F7028823D9F38091E80080FFDA
:10207000F8CF8091E8008E77ECCF982F9093E9000D
:10208000242F762F50E0891731F07091EC002091C9
:10209000ED005091F00021FD07C09F5F973071F770
:1020A0008093E90081E008953091EB003E7F30930A
:1020B000EB003091ED003D7F3093ED003091EB006F
:1020C00031603093EB007093EC002093ED0050935F
:1020D000F0002091EE0027FDE0CF80E00895B0E011
:1020E000A0E0E5E7F0E10C94AB2FC8EDD0E08881EB
:1020F0008F7E8883E7EDF0E080818160808384E0DB
:1021000082BF81E08093D20288818E7F888302EE35
:1021100010E0F80110821092DA0081EEC82ED12C66
:10212000F601108288818F77888388818068888310
:1021300088818F7D888319BC1092F7021092F80273
:102140001092F6021092F50290EEE92EF12CF701B2
:1021500080818B7F808388818160888342E060E01A
:1021600080E00E943D10F60180818E7F8083F8011F
:10217000808181608083808188608083F701808195
:102180008E7F8083888180618883CDB7DEB7E8E069
:102190000C94C72FFC018091FF02909100038617D9
:1021A0009707A0F06115710529F49091E8009E77DA
:1021B0009093E80090E06115710551F4911108C009
:1021C0008091E80082FF34C080E00895BC01F2CF26
:1021D0008091F7028823C1F18530C1F18091E80038
:1021E00083FD30C08091E80082FDEACF8091E80055
:1021F00080FFE1CF8091F3002091F200382F61152C
:10220000710519F02830310558F091E0283031057A
:1022100009F090E02091E8002E772093E800CBCFE2
:1022200081918093F100615071092F5F3F4FE7CF9B
:102230008091F702882341F0853041F08091E800D9
:1022400083FFBECF81E0089582E0089583E0089582
:1022500008958091D402089587E797E79093010845
:102260008093000888E19AE00FB6F894A8958093CF
:1022700060000FBE90936000FFCF2FB7F89460917D
:10228000C9027091CA028091CB029091CC022FBFFB
:102290000895209130012223C9F02091CD0227FF1B
:1022A00015C0E62FE695E695E695EE31D8F4E80FF1
:1022B000F92FF11D677021E030E001C0220F6A950F
:1022C000EAF720958281282322830895FC01329623
:1022D00008962191621303C0DF0111971C92E81741
:1022E000F907B9F70895209130012223C1F0209118
:1022F000CD0227FF14C0E62FE695E695E695EE3170
:10230000F8F4E80FF92FF11D677021E030E001C00B
:10231000220F6A95EAF78281822B82830895FC015D
:1023200032962FEF30E04191641751F02F3F19F4AE
:10233000411101C0232F3F5F3630A9F72F3F09F429
:102340000895820F911D27FD9A95FC0162830895DF
:102350002091C6023091C7022817390771F0909377
:10236000C7028093C602E091C402F091C502309783
:1023700021F00084F185E02D099508952091C20295
:102380003091C3022817390771F09093C3028093EC
:10239000C202E091C402F091C502309721F006809C
:1023A000F781E02D09950895E091C402F091C502EE
:1023B000309729F00190F081E02D0995089580E093
:1023C00008954091B1028D3E59F48091B20287FF89
:1023D0000DC01092B20241110BC01092A90208C0A8
:1023E0008E3E81F48091B20218169CF3442381F052
:1023F0008091B3029091B402892B09F05AC01092D7
:10240000A80208958F3E49F447FFF0CF1092B10221
:102410008091B2028111ECCFE0CF803F19F4141605
:10242000ACF3E4CF9091B302893F29F41916F4F686
:102430001092B302DBCF8A3F19F497FFD7CFF8CFC2
:102440009091B4028B3F29F497FFD0CF1092B40241
:10245000CDCF8C3F19F41916CCF3C8CF9FE0980F5D
:10246000983090F4815F990B21E030E0B90102C00F
:10247000660F771F8A95E2F7CB0180959091B002A5
:1024800089238093B002B2CF8D3F31F48091AA02AC
:102490008E7F8093AA02AACF8E3F21F48091AA0258
:1024A0008D7FF7CF8F3F09F0A1CF8091AA028B7F5C
:1024B000F0CF08958091AA0280FD16C081FD16C05C
:1024C00082FD16C08091A8028823A1F0883280F492
:1024D00028E0829FC001112468E270E00E94E42F8E
:1024E000862F672B39F0089582E0089584E00895DF
:1024F00088E0089581E008958091AA0280FD14C0CB
:1025000081FD14C082FD16C08091A902882381F04C
:102510008E3180F420E5829FC00111246EE170E0CD
:102520000E94E42F862F089584E1089588E208959B
:1025300088E0089580E508958D3E31F40E947C1274
:1025400081958093B20208958E3E19F40E947C1208
:10255000F8CF8F3E31F40E947C1281958093B102B6
:102560000895803F19F40E947C12F8CF893F29F426
:102570000E945A128093B30208958A3F21F40E9468
:102580005A128195F7CF8B3F31F40E945A128195F0
:102590008093B40208958C3F19F40E945A12F8CF28
:1025A0009FE0980F983070F4815F990B21E030E044
:1025B00001C0220F8A95EAF78091B002822B8093A6
:1025C000B00208958D3F31F48091AA02816080931A
:1025D000AA0208958E3F21F48091AA028260F7CF6B
:1025E0008F3FB9F78091AA028460F1CF80E008950F
:1025F000F894E82FE295EF70F0E031A1282F2F70CA
:1026000081E090E001C0880F2A95EAF7982F909515
:10261000932391A392A1892B82A3789408959091FA
:10262000CD0292FF06C0282F28712830F9F4877F49
:10263000846093FF06C0282F28712831F1F4877E2B
:1026400084612091CE0220FF06C0382F38713830C7
:10265000D9F4877F816021FF06C0282F2871283197
:10266000D1F4877E816194FD877E0895282F24719F
:102670002430F9F68B7F8860DCCF282F2471243139
:1026800001F78B7E8861DDCF382F3171313019F73A
:102690008E7F8860E0CF282F2171213121F78E7E37
:1026A0008861E1CF972F7430A8F46A3098F470E015
:1026B0002AE0929F600D711D1124FB0198E2899F11
:1026C000E00DF11D1124EE0FFF1FE457FB4E859125
:1026D0009491089580E090E00895CF93DF93EC010A
:1026E00082389105B1F108F040C08133910509F4B9
:1026F0009DC048F58932910509F48DC08A9709F487
:102700009CC0C11521E5D20708F0C3C0C11530E552
:10271000D30708F01EC1C83ED10508F0A3C0C03ED3
:10272000D10588F5C83AD10508F08EC0C53AD10563
:1027300008F007C1C130D10531F1209721F1C43033
:10274000D10508F545C08533910509F45FC0C997E7
:10275000C1F68091CD02837009F043C18091CE0211
:1027600083FF11C0C9E2D0E00EC0833E910599F10C
:1027700070F4803E910501F1823E910511F6809141
:10278000CD0282FD21C0CE01DF91CF910895863E1A
:10279000910561F1873E910571F1843E910509F043
:1027A000B0CF8091CE0281FFEECF8091CD02C7EEF7
:1027B000D0E084FD0DC0E7CF8091CD0280FD33C015
:1027C0009091CE0290FFDFCFC3EED0E084FFDBCF4D
:1027D000D0E0C0E0D8CF8091CD0282FDFFC09091C3
:1027E000CE0290FDFEC084FFCECFF2CF8091CD020D
:1027F00083FDDDCFC8CF8091CD0283FDF5C09091E0
:10280000CE0291FFF0CFC4EED0E0BDCF8091CD02DB
:1028100085FFB9CFA7CF8091CD0285FDE8C080911B
:10282000CE0283FFB0CFC9E3D0E0ADCF8091CD021F
:1028300086FFA9CFCAE2D0E0A6CF8091CD0286FF65
:10284000A2CFC1E3D0E09FCFCF3BD10508F6C85A55
:10285000D0E0CC0FDD1FC75CDE4F0990D881C02DC2
:10286000D46491CFC11540E2D40758F4C11581E07A
:10287000D80708F088CFCD3ED10508F4A9CFD065A0
:1028800082CFC11520E4D20708F4A2CFDF70D06A4E
:102890007ACFC11535E5D30718F5C11544E5D4073E
:1028A00008F084C0C11583E5D80708F06BC0C115D6
:1028B00022E5D20708F461C0CE018370992721E098
:1028C00030E002C0220F331F8A95E2F7C695C69505
:1028D00080E2C89FE0011124C22BD32BDC6853CFC8
:1028E000C11539E5D307A8F4C11548E5D40708F0A8
:1028F00062C0C11586E5D80708F06ACF8C2F0E9408
:102900000F13C82FD0E0DC2FCC27CC27DF71D0628B
:102910003ACFC1152AE5D20708F452C0CE0190562D
:102920008115904208F054CF8D2F8F710E940F13A4
:1029300090E0982F882788279F719C012C2BE90114
:10294000E6CFC55AD0E0CA5CDE4FC881D0E0D06483
:102950001ACFCE018370992721E030E002C0220F08
:10296000331F8A95E2F7C695C69540E2C49FE00101
:102970001124C22BD32BDD6806CFDC2FCC27C16FEF
:10298000D06A01CFCE018370992721E030E002C0E8
:10299000220F331F8A95E2F7C695C69540E2C49F81
:1029A000E0011124C22BD32BDA68EDCEDC2FCC272B
:1029B000C46FD06AE8CEDC2FCC27C06FD06AE3CEDC
:1029C0008C2F8F700E940F1334E0D695C7953A95DF
:1029D000E1F7CF709C2FEC01D069D5CEC2EED0E0EC
:1029E000D2CEC0EED0E0CFCEC6EED0E0CCCEC5E3A6
:1029F000D0E0C9CE8091100281111092100208958A
:102A000080959091BE0298239093BE020895809580
:102A10009091BF0298239093BF0208952091EE01F8
:102A20009091BD0156E0291302C080E0089530E086
:102A3000529FF001539FF00D1124E254FE4F71811B
:102A4000761306C07081781303C07281741304C0BA
:102A50002F5F3F4F2770E7CF81E00895452B39F076
:102A6000682381E06F3F09F080E08170089581E084
:102A7000FCCF8091EE019091BD01981301C00895A3
:102A80008F5F8770FACFB0E0A0E0E9E4F5E10C9445
:102A9000AA2F7C010091790210917A028091110293
:102AA00090911202082B192BCFE0D0E0CC24C394D4
:102AB000D12CBC2EC6010C2E02C0880F991F0A947F
:102AC000E2F780239123892B49F4219790F7B12CC9
:102AD0008B2DCDB7DEB7E9E00C94C62FB7018C2F54
:102AE0000E9452130E946D13019779F3F1CFCF9397
:102AF000DF93EC010E944315BE010E9452130E9415
:102B00006D13DF91CF910895943078F58A3068F590
:102B1000E82FF0E08AE0989FE00DF11D11249E2F30
:102B2000977083E0F695E7958A95E1F7EE0FFF1F22
:102B3000EE0FFF1FED55FE4F50E040E080E0219189
:102B400030E0092E02C0369527950A94E2F72170ED
:102B50003327042E01C0220F0A94EAF7822B4F5F1D
:102B60005F4F4430510559F7089580E0089594303F
:102B700098F58A3088F5E82FF0E08AE0989FE00D1C
:102B8000F11D11248E2F877041E001C0440F8A95FA
:102B9000EAF783E0F695E7958A95E1F7EE0FFF1FD8
:102BA000EE0FFF1FED55FE4F30E020E070E0519139
:102BB000DF011197CB01022E02C0969587950A94EA
:102BC000E2F7817081958527842385278C932F5F79
:102BD0003F4F2430310559F708950F931F93CF933A
:102BE0008C01FC0143815481618180810E942E15FA
:102BF000C82F811123C0F801808191810E9477152F
:102C000092959F709630A9F058F4925F9F70923021
:102C100058F4803F19F030F4883E30F4C1E004C02D
:102C20009A5FF4CF843FD1F38C2FCF911F910F91F6
:102C30000895883E98F3813FB9F7F0CFC0E0F4CF14
:102C4000A5E0B0E0E6E2F6E10C94B02F25E0FC014F
:102C5000DE01119601900D922A95E1F7FC01228187
:102C600089819A81222399F0662389F00E94431575
:102C7000182F682F89819A810E94B71569817A81FE
:102C8000812F0E9452132596E3E00C94CC2F0E94D2
:102C90008415182FF3CF892F817088600895809153
:102CA00078028531F8F48091A10190E0019665E009
:102CB00070E00E94E42F8093A10124E030E0281B03
:102CC000390B4CE752E0249FC001259F900D349FA3
:102CD000900D1124805E974F0E94370F089584EA6B
:102CE00095E0FACF8832D8F38091A00190E0019668
:102CF000817099278093A00121E030E0281B390BD7
:102D00004CE752E0249FC001259F900D349F900D09
:102D1000112484559F4FE0CFB0E0A0E0E2E9F6E156
:102D20000C94AB2F6C017B0164E670E088E70E9495
:102D3000A72EEC0197FD12C010E000E0F601E00FB5
:102D4000F11F849164E670E00E94132FEC01892B3F
:102D500029F40F5F1F4F0E151F0581F70E94892F61
:102D6000CE01CDB7DEB7E8E00C94C72F8091B90251
:102D70009091BA02911103C091E0892708958823A8
:102D800069F062E070E08AE797E10E948C16892B77
:102D900019F08091B90208951092B9028091B90298
:102DA000EBCFCF93C091B9028091BA028823D1F0C2
:102DB0000E943D11605A75418F4F9F4F6093B5023D
:102DC0007093B6028093B7029093B802C11108C005
:102DD00062E070E088E797E10E948C16892B29F069
:102DE000C091B9028C2FCF91089581E08093B902F0
:102DF000F7CFCF93DF93C0910A05D0910B058A30AE
:102E0000C1F420910103CE018A509340622F70E0FB
:102E10000E948D2F281B822F66E00E94D82FC82F7A
:102E2000C15018F4DF91CF91089580E20E94F91605
:102E3000F7CF8D30E9F4CA50D34020910103622FBF
:102E400070E0CE010E948D2F281B822F9E01280F3B
:102E5000311D2115324018F080E0D0E0C0E0C80FED
:102E6000D11DC65FDC4FD0930B05C0930A05DACFA6
:102E700096E0FE01A2E0B3E001900D929A95E1F791
:102E8000803E08F458C086E0FE0111928A95E9F769
:102E9000C0910A05D0910B0546E050E0BE0182E0EA
:102EA00093E00E946A309E012A503340892B41F101
:102EB000C90145E0969587954A95E1F741E050E0D4
:102EC000BA0102C0660F771F8A95E2F7CB016091C5
:102ED000080370910903862B972BB9016B5F7F4F15
:102EE000E5E076956795EA95E1F702C0440F551F36
:102EF0006A95E2F7842B952B90930903809308033E
:102F00002A5F3F4F40910103642F70E0C9010E9486
:102F10008D2F481B463010F4240F311D211572E00F
:102F2000370710F030E020E0265F3C4F30930B0570
:102F300020930A0577CFF6E08F9FB00111246151ED
:102F4000774E46E050E0CE010E946130A1CFCF9392
:102F5000DF93EC01FE018491811103C0DF91CF91D9
:102F600008950E94F9162196F5CF8091BF029091A5
:102F7000BE02892B80938001909110029923A1F0C9
:102F8000892B80938001809130018823E1F1809129
:102F9000CD0287FF38C08EE1E2E8F1E090E0815099
:102FA000A0F591110E94FA1440E250E060EF71E048
:102FB00080E891E00E946A30892B21F180E2E0E80C
:102FC000F1E0A0EFB1E001900D928A95E1F7E09178
:102FD000C402F091C5023097A9F080913001882396
:102FE00059F08091CD0287FF07C0809180018093C6
:102FF000810186E0809380010280F381E02D80E8EA
:1030000091E00995089586E0C7CF2191222339F2F6
:103010009F5FC5CFCF93DF93EC01EA85FB853097A7
:1030200019F06C857D8509958B810E9400158C8136
:103030000E9407150E94B51786E0FE0111928A953D
:10304000E9F7DF91CF910895CF93DF93EC018D8164
:1030500081FD18C082608D838091BE029B81892B87
:103060008093BE028091BF029C81892B8093BF0216
:103070000E94B517E885F985309721F06C857D852C
:10308000CE0109951092C1021092C0028D8180FD7F
:1030900003C0CE010E940A18DF91CF9108958823C2
:1030A00021F00E9400150E94B5170895882339F079
:1030B0009091BE02982B9093BE020E94B51708957E
:1030C000882321F00E9407150E94B51708958823D0
:1030D00039F09091BF02982B9093BF020E94B517D0
:1030E00008958093CF027093D1026093D0028091B3
:1030F000F702843001F582E08093E9008FEF909130
:10310000E800815095FD06C095ED9A95F1F7000015
:103110008111F5CF8091E80085FF0DC050E040E0BF
:1031200063E070E08FEC92E00E94F40F8091E80081
:103130008E778093E8000895BC0184E00E947118A6
:103140000895BC0183E00E94711808959C0182E0FB
:103150008093E9009FEF8091E800915085FD06C0C3
:1031600085ED8A95F1F700009111F5CF8091E80087
:1031700085FF0CC050E040E066E070E0C9010E94AD
:10318000F40F8091E8008E778093E8000895CF9344
:10319000DF93EC01809130018823B1F18091CD0261
:1031A00087FF32C060E282E08093E9008FEF909168
:1031B000E800815095FD06C095ED9A95F1F7000065
:1031C0008111F5CF8091E80085FF1BC0809130010F
:1031D00070E050E040E0811104C050E040E068E061
:1031E00070E0CE010E94F40F8091E8008E7780930A
:1031F000E80080E2FE01A5EDB2E001900D928A9513
:10320000E1F7DF91CF91089568E081E0CDCFCF93D2
:1032100084E090E00E940933C82F82E290E00E948F
:103220000933982F8C2FCF91089568EE7EEF90E0B0
:1032300080E00E94353360E082E090E00E94173326
:1032400060E083E090E00E94173310921202109227
:10325000110260E084E090E00E94173364E082E2B3
:1032600090E00E94173360E085E090E00E94173301
:1032700060E086E090E00E9417336FEF87E090E017
:103280000E94173340E050E0BA0188E090E00E94CD
:10329000293360E08DE090E00E94173340E050E079
:1032A000BA0188E190E00E94293360E087E190E074
:1032B0000E94173340E050E0BA018CE190E00E9498
:1032C000293370E060E080E290E00E94353340E016
:1032D00050E0BA0188E190E00E94293340E050E0DC
:1032E000BA018FE090E00E94293340E050E0BA013B
:1032F00083E190E00E94293308951F920F920FB648
:103300000F9211242F933F934F935F936F937F936B
:103310008F939F93AF93BF93EF93FF938091E100BF
:1033200082FF09C08091E20082FF05C08091E10028
:103330008B7F8093E1008091DA0080FF24C0809130
:10334000D80080FF20C08091DA008E7F8093DA0061
:103350008091D90080FF9DC080E189BD82E189BD57
:1033600009B400FEFDCF81E08093F7028091D20284
:10337000811109C00E94A40F0E946F108091E20089
:1033800084608093E2008091E10080FF17C080910B
:10339000E20080FF13C08091E2008E7F8093E20004
:1033A0008091E20080618093E2008091D800806289
:1033B0008093D80019BC85E08093F7028091E100EA
:1033C00084FF2BC08091E20084FF27C080E189BD8B
:1033D00082E189BD89B5982F917080FFFBCF8091E4
:1033E000D8008F7D8093D8008091E1008F7E8093FC
:1033F000E1008091E2008F7E8093E2008091E20004
:1034000081608093E2008091F802882309F447C02C
:1034100084E08093F7028091F7028091E10083FFBE
:1034200027C08091E20083FF23C08091E100877F65
:103430008093E10082E08093F7021092F80280917D
:10344000E1008E7F8093E1008091E2008E7F809387
:10345000E2008091E20080618093E20042E060E05F
:1034600080E00E943D108091F00088608093F00021
:10347000FF91EF91BF91AF919F918F917F916F914C
:103480005F914F913F912F910F900FBE0F901F9022
:10349000189519BC1092F7021092D20274CF809145
:1034A000E30087FD93E09093F702B5CF78941F92E5
:1034B0001FB61F9211248F939F93AF93BF93809158
:1034C000C9029091CA02A091CB02B091CC020196A0
:1034D000A11DB11D8093C9029093CA02A093CB0293
:1034E000B093CC02BF91AF919F918F911F901FBE5F
:1034F0001F9018959C014FB7F8948091C902909144
:10350000CA02A091CB02B091CC024FBF821B930B99
:1035100008952FB7F8948091C9029091CA02A091A2
:10352000CB02B091CC022FBF08950E94891A9C0152
:103530009091B1028091B202982B21F03093AE02AB
:103540002093AD029091B3028091B402982B21F0A8
:103550003093AC022093AB02E091C402F091C5021B
:10356000309749F082E08093AF020480F581E02D2E
:103570008FEA92E00995089590E080E00E94BE11E4
:1035800090E080E00E94A8111092BE020E94B51740
:1035900086E0EFEAF2E0DF011D928A95E9F71092EA
:1035A000A9021092A8021092AA020E94951A0895E8
:1035B00090937A02809379020E94BC1A089521E0C8
:1035C00030E002C0220F331F8A95E2F72095309534
:1035D0008091790290917A02822393230E94D81AD3
:1035E00008959091EF01809589238093EF01282F12
:1035F000277091F4282F082E000C330B9217130616
:1036000059F09091CE0292FF07C0859585958595DA
:103610000E94DF1A1092EF010895CF93C091CE025D
:10362000C2FB992790F9981791F080FBC2F9C093DB
:10363000CE026091CD0284E090E00E9417336C2F9F
:1036400082E290E00E94173382E00E94F11ACF914B
:10365000089521E030E002C0220F331F8A95E2F77F
:103660008091790290917A02822B932B0E94D81A32
:10367000089590931202809311020E94BC1A08953B
:103680001092BF0280913001E2E8F1E0882361F0FE
:103690008091CD0287FF08C08EE1DF011D928A95DF
:1036A000E9F70E94BC1A089586E0F7CFAAE2B0E0DD
:1036B000ECE5FBE10C94B02F89EF92E02091F10052
:1036C000FC012193CF01F3E081309F07B9F780918E
:1036D000FA02833009F470C0B8F4813009F447C0AD
:1036E000823009F4B1C08091E80083FF7EC28091EE
:1036F000F9029091FA029A3008F077C2E92FF0E0CF
:10370000E35BFC4C0C9439308A3009F48CC08B306C
:1037100009F46FC0893039F78091F902813219F7C5
:103720008091FD029091FE020297E8F68091E800F8
:10373000877F8093E8008091E80082FF38C09091F5
:10374000F3008091F200029731F48091F100813012
:1037500011F0863021F48091F1008093D4028091A1
:10376000E8008B778093E8000E941E10BCCF809108
:10377000F902813A09F0B7CF8091E800877F809302
:10378000E8008091FD029091FE02892B61F460E2D5
:1037900085ED92E070E00E94CA108091E8008B777E
:1037A0008093E800A0CF60E090E080E0F3CF8091CC
:1037B000F7028111C0CF97CF8091F902813A09F0C9
:1037C00092CF8091FD029091FE02892B09F08BCF60
:1037D0008091E800877F8093E8008091E80080FF77
:1037E000FCCF809130018093F1008091E8008E77CA
:1037F000B9CF8091F902813209F075CF8091FD0235
:103800009091FE02892B09F06ECF8091E800877FAE
:103810008093E8000E941E108091FB02809330018B
:103820000E94401B60CF8091F902813209F05BCF8A
:103830008091E800877F8093E8000E941E108091AD
:10384000FC028093D3024FCF8091F902813A09F0B4
:103850004ACF8091E800877F8093E8008091E8005C
:1038600080FFFCCF8091D302BECF803899F08238A0
:1038700009F0BBC18091FD028F70873008F0B5C19F
:103880008093E9008091EB0085FB882780F91092F6
:10389000E90006C08091F5029091F60291118260D4
:1038A0009091E800977F9093E8008093F100109248
:1038B000F1008091E8008E7794C1882309F482C1D9
:1038C000823009F092C18091FB02811185C1809103
:1038D000FD028F702FEF280F263008F086C18093ED
:1038E000E9002091EB0020FF77C1933031F4809103
:1038F000EB0080628093EB006FC19091EB009061D0
:103900009093EB0021E030E001C0220F8A95EAF7A6
:103910002093EA001092EA008091EB008860EACFE1
:10392000811163C11091FB021F778091E3008078C1
:10393000812B8093E3008091E800877F8093E800EB
:103940000E941E108091E80080FFFCCF8091E30070
:1039500080688093E30082E0111183E08093F70296
:1039600044C18058823008F040C18091FB029091A0
:10397000FC028C3D23E09207A1F583E08A838AE272
:1039800089834FB7F894DE01139620E03EE051E2C0
:10399000E32FF0E050935700E49120FF03C0E2953D
:1039A000EF703F5FEF708E2F90E0EA30C0F0C79667
:1039B0008D939D932F5F243159F74FBF8091E8007D
:1039C000877F8093E8006AE270E0CE0101960E9452
:1039D000CA108091E8008B778093E80006C1C096FA
:1039E000E7CF4091FD025091FE02292F332723306B
:1039F000310509F444C078F52130310509F46FC070
:103A00008BE390E0E2E7F8E12230310509F0EDC008
:103A10002091E800277F2093E8002091FF02309159
:103A200000038217930708F49C0140E0211531053B
:103A300009F064C0411162C08091E80082FDC9CFE5
:103A40008091F702882329F2853019F28091E800ED
:103A500083FFF2CFBECF21323105A9F122323105E9
:103A600009F0C3C04115510509F443C04130510567
:103A700009F0BBC086EB90E0ECE7F7E1C9CF9927EE
:103A800081309105C1F0009759F0029709F0ADC05F
:103A9000EFEBF8E1E4918E2F90E0EFEBF8E107C057
:103AA000EBEEF8E1E4918E2F90E0EBEEF8E1009779
:103AB00009F49BC0ADCFE3EDF8E1E4918E2F90E0E7
:103AC000E3EDF8E1F4CF4115510571F041305105B6
:103AD00009F08BC089E090E0EDE9F8E199CF82E14F
:103AE00090E0EDEAF8E194CF89E090E0E4E8F8E1D5
:103AF0008FCF80E490E0E2E3F8E18ACF8091F70293
:103B0000882309F466CF853009F463CF8091E800FB
:103B100083FD5FCF8091E80082FD8ECF8091E80029
:103B200080FF84CF9091F3008091F2002115310540
:103B300019F08830910550F041E0089709F040E015
:103B40008091E8008E778093E80070CF4491409395
:103B5000F1003196215031090196E8CF803809F003
:103B600044C08091E800877F8093E8008091F8024C
:103B70008093F1009ECE811138C01091FB0212306B
:103B8000A0F58091E800877F8093E8001093F80209
:103B90000E941E10112311F084E005C08091E30003
:103BA00087FDFACF81E08093F70242E061EC81E08B
:103BB0000E943D1042E261EC82E00E943D10809143
:103BC000F70213C08091FB02813079F481E09330D9
:103BD00009F080E08093F6021092E9008091E800FD
:103BE000877F8093E8000E941E108091E80083FF89
:103BF0000AC08091E800877F8093E8008091EB0005
:103C000080628093EB00AA96E3E00C94CC2F1F9285
:103C10000F920FB60F9211242F933F934F935F9300
:103C20006F937F938F939F93AF93BF93CF93DF93C4
:103C3000EF93FF93D091E900DF708091EC00C82FE3
:103C4000C17080FDC0E81092E9008091F000877F8C
:103C50008093F00078940E94561B1092E9008091A6
:103C6000F00088608093F000CD2BCF70C093E90006
:103C7000FF91EF91DF91CF91BF91AF919F918F9184
:103C80007F916F915F914F913F912F910F900FBE58
:103C90000F901F9018950E94401B2FEF84E39CE02B
:103CA000215080409040E1F700C0000088E19AE098
:103CB0000FB6F894A895809360000FBE90936000B3
:103CC000FFCF882391F19CEF980F913A40F4682F31
:103CD00080E891E00E9449110E94B517089590E292
:103CE000980F983050F4877091E001C0990F8A9531
:103CF000EAF7892F0E940715EFCF9BE5980F9330C5
:103D000028F490E080E00E94BE11089598E5980F95
:103D1000973128F490E080E00E94A81108958D3E2C
:103D200020F00E94E1110E94951A0895CF93C82FA8
:103D30008823D9F18CEF8C0F813AC8F5809130013E
:103D4000882311F18091CD0287FF1EC0EC2FE695EC
:103D5000E695E695F0E0E058FE4F828190E04C2F2A
:103D6000477021E030E002C0220F331F4A95E2F78E
:103D700082239323892B91F06C2F80E891E00E949D
:103D800049110E94B5170AC0E2E8F1E088E891E025
:103D90002191C21789F38E179F07D1F76C2F80E806
:103DA00091E00E9473110E94B517CF91089580E2AF
:103DB0008C0F883068F4C77021E030E001C0220F1A
:103DC000CA95EAF78091BF02822B8093BF02EBCFA6
:103DD000EBE5EC0FE33040F4F0E0EA5CFE4F80816D
:103DE00090E00E94BE11E1CFE8E5EC0FE73150F41E
:103DF000F0E0EE0FFF1FE75CFE4F808191810E9493
:103E0000A811D3CFCD3E88F28C2F0E949C120E9425
:103E1000951ACBCF1F93CF93DF93182FEB010E94FE
:103E2000961E209739F4812F0E94611EDF91CF9159
:103E30001F9108958FE99FE00197F1F700C00000FE
:103E40002197EFCFB0E0A0E0E8E2FFE10C94AB2FC8
:103E50006B01C42FD22FFC0182818823A9F04093EB
:103E6000BD020E94891A9093BC028093BB02C77066
:103E700081E001C0880FCA95EAF70E946718CDB7A4
:103E8000DEB7E8E00C94C72F1091BD02141339C0BF
:103E90008091BB029091BC020E947A1A7C01C601FB
:103EA0000E947A0FE816F90660F5C0E2CD0F1D17E3
:103EB000C1F080E2810F883048F4177081E0012E54
:103EC00001C0880F0A94EAF70E946018C83048F4CD
:103ED00081E09D2F977001C0880F9A95EAF70E94A4
:103EE000671870E060E0802F0E940A1FC83038F623
:103EF000D77081E001C0880FDA95EAF70E94601858
:103F0000BECFC77081E001C0880FCA95EAF7F6CF2F
:103F10000F931F93CF93DF93C82F8B010E944B16F3
:103F2000D82F0E9456188C2F0E94961E011511053D
:103F300059F48C2F0E94611E8D2F0E944F18DF9123
:103F4000CF911F910F9108958FE99FE00197F1F7AD
:103F500000C0000001501109E9CFFC0182818130CD
:103F600031F470E060E089E20E940A1F0895823017
:103F700021F470E060E083EEF7CF833031F470E03D
:103F800060E087E398E00E94881F0895FC01828129
:103F9000813031F470E060E089E20E940A1F0895E8
:103FA000823039F470E060E08CE298E00E94881F73
:103FB00008958330E9F770E060E08CE299E0F6CF95
:103FC000A8E0B0E0E6EEFFE10C94A72F8E010F5FB2
:103FD0001F4F88E0F80111928A95E9F797E6E92EDC
:103FE00091E0F92E6801AA24A394B12CF7018191E4
:103FF0007F018F3F09F446C0F894E82FE295EF70F7
:10400000F0E021A18F70A50102C0440F551F8A95D1
:10401000E2F7CA01922F982B91A392A18095892350
:1040200082A3789400C0EBE6F1E021E030E0912C2F
:10403000812C41914F3F09F467C0A42FA295AF7026
:10404000B0E090968C9190E04F7002C09595879566
:104050004A95E2F780FD58C0C901882A992A220FA3
:10406000331F51E0E537F50721F7F70131978081DC
:104070008F3F11F00E94F81280EA8A95F1F7F6015D
:1040800091828082F2E0CF0ED11C4BE6E41641E033
:10409000F40609F0ABCF48E050E0B80186E192E0C9
:1040A0000E946A30892B99F188E0F801A6E1B2E01C
:1040B00001900D928A95E1F781E0809315020E94AC
:1040C000891A9093140280931302809113029091A5
:1040D00014020E947A1A0597F0F048E050E066E179
:1040E00072E080E292E00E946A30892BC9F088E099
:1040F000E6E1F2E0A0E2B2E001900D928A95E1F7EC
:1041000081E01092150208C090E080E0A6CF809177
:1041100015028111DACF80E02896ECE00C94C32FD1
:1041200080E0EFCFB0E0A0E0E8E9F0E20C94A92F46
:104130007C01DC0113964D915C91149711966C9162
:1041400011978C910E942E15C82E811128C161E013
:10415000C7010E942016EC01F7018281882309F42F
:1041600047C0CE0190568115F0E29F0750F0905E57
:10417000811520E1920728F0915C81159F4108F09C
:10418000CFC0CE0199279C0124503109243231053A
:1041900018F08B970E9780F4E0913902F0E0EE0F63
:1041A000FF1FE25CFD4F808191818F3FAFE79A074F
:1041B00019F00196918380838091C0029091C10291
:1041C0000097B1F0C817D90799F0BEE08B9FC001E6
:1041D0001124FC01EF5EFE4F208124602083845F68
:1041E0009E4FFC01D183C0830E9424181092BE020E
:1041F000CE0197558F3F910511F008F0A5C05E01E3
:10420000BB242EE0C29FF00111248F01045F1E4FDA
:10421000D70112968C91EF5EFE4F908180FB90F952
:104220009083882309F488C00E94891A90933202EF
:1042300080933102F80182818F5F82838091BE0278
:104240009091BF02892B8383809110028483068022
:10425000F781E02D309731F0D8011C966D917C915B
:10426000C80109958EE08A9DF0018B9DF00D112407
:10427000E45FFE4F858181FF5CC090E080E0909319
:10428000C0028093C102D70112968C91882309F451
:104290005BC41092BD02C430BDE5DB0708F0B2C0BC
:1042A000CB3FECE5DE0730F4CE0182509C454497CD
:1042B00008F0B3C00E9407199093CE028093CD02FC
:1042C000C2318CE5D80709F4B0C108F001C1C9308A
:1042D000ACE5DA0709F487C108F0CDC0C530ECE5DC
:1042E000DE0709F474C108F0B5C0C3302CE5D2076D
:1042F00009F465C108F067C1C230DC4509F457C153
:104300006091CD02C091CE0284E090E00E9417330C
:104310006C2F82E290E00E9417330E94401B30C055
:1043200090E080E0CF3FD10511F008F02CCFCE0116
:104330002ACF9C2F8D2FA3CFF801858181FFA3CF9A
:10434000C8010E940A189FCFC43FFCE5DF0709F4AB
:1043500041C050F5C93D3CE5D307B1F1CA3D8CE5FC
:10436000D80709F449C0C83D9CE5D90709F08BCFAF
:1043700006E221EE41EE68ED7CE5C7010E94221FB6
:104380008091EF01877059F0F7018281882339F01D
:104390008091CE0282FF03C082E00E94F11ACDB765
:1043A000DEB7EAE00C94C52FC63FACE5DA07F1F0C2
:1043B000B8F0C73FECE5DE0709F065CF07E225EE70
:1043C00046EE67EF7CE5D9CF07E225EE45EE69EDD5
:1043D0007CE5D3CF06E221EE40EE64EF7CE5CDCF65
:1043E00007E225EE44EE65EF7CE5C7CF06E221EE5D
:1043F00042EE66EF7CE5C1CF08E221E045EE6AEDD2
:104400007CE5BBCFC63AFDE5DF0709F453CFE0F406
:10441000C2363DE5D30709F44DCFC6318CE5D80748
:1044200009F0A0C38091BF028A7A91E009F490E07C
:104430009093A20169E2811165E380E891E00E9416
:1044400073110E94B5179CCFCE018E5A9D450397DC
:1044500020F730CF8091CD028062C7309CE5D9072C
:10446000A1F18091CD028061C830DC4570F180916E
:10447000CD0280642AC0CD30BCE5DB0709F4BDC0A5
:1044800088F48091CD028E7FCB30FCE5DF07E9F028
:104490008091CD028C60CC30DC45B8F08091CD02AB
:1044A0008D7F13C0CF303CE5D30709F4B6C008F4C4
:1044B000A8C0C0319CE5D90709F4B3C08091CD02F2
:1044C0008F7BC131DC4509F01BCF8093CD0218CF23
:1044D000C115BDE5DB0709F4B2C098F5CB3FFCE59B
:1044E000DF0709F478C0B8F4C4313CE5D30709F418
:1044F000B4C008F4A0C0C531DC4509F001CF8091FB
:10450000CD0282FB992790F921E0922790FB82F956
:1045100090FB83F9DACFCD3FACE5DA0709F475C03B
:1045200008F45DC0CE3FECE5DE0709F472C080916F
:10453000CE028360CF3FDC4509F0E2CE8093CE020D
:10454000DFCEC2362DE5D20709F492C088F4C2301E
:104550008DE5D80709F48AC008F475C060E0C3305F
:10456000DD4509F0CDCE8EE090E00E941733C8CE35
:10457000CE3ABDE5DB07F9F058F49091CD02892FD2
:104580008E7F90FF8160C63ADD4509F49ECFB8CE9C
:10459000CF3A2DE5D20769F1C03BDD4509F0B0CE39
:1045A0009091CE02892F877F93FF8860C7CF80913B
:1045B000CD0281608ACF8091CE028860BFCF80918A
:1045C000CD02826082CF8091CD0284607ECF8091C7
:1045D000CD0288607ACF8091CE028160AFCF80918A
:1045E000CE028260ABCF0E94401B8091CD028068DA
:1045F0006CCF8091CE02877FA1CF8091CD028B7F3F
:1046000064CF8091CD02877F60CF8091CE028E7F74
:1046100095CF8091CE028D7F91CF8091CD028F7EFC
:1046200054CF8091CD028F7D50CF0E94401B80914E
:10463000CD028F774ACF8091CD02837F46CF809184
:10464000CE028C7F7BCF8091CE02982F9095917077
:104650008E7F892B90FB81F971CF0E94401B909136
:10466000CD02892F97FB87F980582FCF61E07BCF50
:104670009091CD02892F8F7E94FF806126CF0E947A
:10468000401B9FEFA4E3BCE09150A040B040E1F795
:1046900000C000000E942C118091CE0282FB88276E
:1046A00080F991E089270E940D1BD70112968C9109
:1046B0001297CD91DC91882309F445C0CE010E9468
:1046C0004315182F682FCE010E94B715BE01812F08
:1046D0000E9452130E946D13D82FC92FA82EF701E4
:1046E0001281D580D2949FE0D9228091EF0187700A
:1046F000C1F01123A9F08C2F807F803421F080E25B
:104700008D0F883070F08091CE0282FF0AC082E067
:104710000E94F11A8091EF018770CC24C39481111B
:10472000C12CBC2EB2948FE0B822FBE0FB1508F43C
:1047300067C0EB2DF0E0E95AFC4C0C94393081E075
:10474000B2CF80E0B0CFCE010E948415182FBECF2B
:104750000C2F0F70C07F11F00295007F1123B9F06C
:10476000002369F080E28D0F883010F0A11009C09D
:104770008091BF02082B0093BF020E94B5178D2FB6
:104780003DC08091BE02082B0093BE02F6CF8D2F54
:104790000E94611E0023A1F1D05E802FD83010F05E
:1047A000A11003C00E94071502C00E9400150E94BC
:1047B000B51726C00C2F0F70C07FC03211F00295C4
:1047C000007FAA2059F021E0A21609F466C0112347
:1047D00009F470C0DD2009F466C0D1CF2091CE026B
:1047E00022FD39C0112381F1002339F08091BF02ED
:1047F000082B0093BF020E94B51780E00E94961E0E
:10480000EB2DE850FF0B349710F40E94D411CC200C
:10481000B1F08091EF0180FD12C0D70112961C9279
:104820008595859585950E94291BC7010E94922038
:104830008091EF018595859585950E94DF1A60E04E
:10484000C7010E942016ABCD80E00E94611E0023AC
:10485000B9F2802FA7CF112399F090911002802FE9
:10486000892BD11003C00E946718CACF31E0D31240
:10487000FACF22FFC5CF981719F280931002C0CF4C
:10488000D11006C00E94FA14802F0E946018B8CF81
:1048900081E0D81609F4B4CFF5CF112331F095E0BB
:1048A0009D1508F4ADCF802FDECFA4E0AD1508F440
:1048B000A7CFEACFDD2041F3B9E3AB1209C0EFEF98
:1048C000F7EE23E0E150F0402040E1F700C00000A7
:1048D0008D2F0E94611E94CF8C2F869586958370B4
:1048E00069F0813009F08CCF8D2F9C2F93701111BE
:1048F00002C090E080E00E94A81182CF8D2F9C2FF3
:104900009370111102C090E080E00E94BE1178CF38
:104910008D2F112329F00E949C120E94951A70CFAE
:104920000E94E111FACF8C2F837009F03FC0111162
:1049300067CF4D2F429546954770440F440F2D2F5A
:104940002F7030E0042E02C0220F331F0A94E2F7CA
:1049500090E080E0D4FF09C08FE090E002C0880FB3
:10496000991F4A95E2F780959095C695C695C370B4
:10497000C23099F078F44091110250911202C13086
:1049800039F0822B932B842395230E94391B38CF37
:10499000242B352B822B932BF8CF822B932B20911A
:1049A00011023091120282279327EFCF86951123AF
:1049B00011F08C2F8170882309F422CF4D2F42955E
:1049C00046954770440F440F2D2F2F7030E0042E72
:1049D00002C0220F331F0A94E2F790E080E0D4FF78
:1049E00009C08FE090E002C0880F991F4A95E2F756
:1049F00080959095C695C695C370C23099F078F4AD
:104A00004091790250917A02C13039F0822B932B78
:104A1000842395230E94D81AF3CE242B352B822B86
:104A2000932BF8CF822B932B2091790230917A022D
:104A300082279327EFCFCF70112329F08C2F0E946C
:104A4000291B8D2F10CF8D2F0E9460188C2F0E9454
:104A5000DF1AD6CE8D2F32EFA31699F13A1570F0EA
:104A600090EFA916D1F0A1EFAA1691F0112309F445
:104A70005BC0D11084CE8C2F8F7127C0B3EFAB16E3
:104A800039F1E4EFAE12F2CF8091CE0282FD2EC05A
:104A90008C2F8F711123D9F218C0112369F0F4E023
:104AA000FD1508F4ADCECF7181E090E002C0880F13
:104AB000991FCA95E2F7B8CF25E02D1508F4A0CECE
:104AC000F2CF8C2F8F711111C2CF0E94291B98CE6B
:104AD00090E080E0112309F49DCFCF7181E090E058
:104AE00002C0880F991FCA95E2F794CF112389F06D
:104AF000CF718C2F0E94291B8091CE0282FF07C0AC
:104B000038E0C39FC001112483608093EF018C2F94
:104B1000DCCF81E00E94F11A81E08D1508F070CEA3
:104B200082E00E94F11A6CCEDD2059F0893309F041
:104B3000CFCE9FEFA7EEB3E09150A040B040E1F799
:104B4000C5CE8C2F8F7183CFC631DC4509F0ADCD3A
:104B50008091A20169E2811165E380E891E00E9401
:104B600049116FCCCB35EDE5DE0709F4E8CD68F4EB
:104B7000C1152CE5D20709F482CDCF3DDC4509F003
:104B800094CD0E9415190E944B1ECD358DE5D80796
:104B900009F482CD08F4D5CDC83ADD45A1F385CD21
:104BA000B0E0A0E0E6EDF5E20C94AA2F8091BC0104
:104BB000807F09F050C08091B901882309F44BC06F
:104BC000C091EE0186E0B82E8091BD018C1709F4EA
:104BD00042C0F090B701E090B801C090BA01D09007
:104BE000BB01A6016E2D8F2D0E942E15D0E08111E4
:104BF00037C0BC9E8001BD9E100D1124F801E25407
:104C0000FE4F81818E112CC080818F1129C082813D
:104C1000811126C0E380F480EC18FD0860E087EB8A
:104C200091E00E9420160E947A0FE816F906C0F45F
:104C30008091BC018F7080618093BC01F801ED53BD
:104C4000FE4F80818F708061808387EB91E00E94AE
:104C500092200E943915CDB7DEB7E9E00C94C62F3B
:104C60002196C770B1CFA1E1B0E0E9E3F6E20C9480
:104C7000A42F8C0185E0F801DE011D9601900D92B4
:104C80008A95E1F7D8011296EC9087EBA82E81E087
:104C9000B82E8090BA019090BB01A4016091B80138
:104CA0008091B7010E942E1581116FC1F801C38058
:104CB000D480F090B901C601881999094C01FF20F0
:104CC00009F41FC15080618060E0C5010E94201678
:104CD0000E947A0F7090BC018816990608F0D3C024
:104CE0004091BA015091BB01B090B701A090B801BA
:104CF000872D807F6A2D09F07EC08B2D0E942E1596
:104D0000FE2C81111DC0D80111968C9111978A112A
:104D100017C08C918B1114C0E11012C0872D8F70B9
:104D200080618093BC0187EB91E00E94922080918A
:104D3000BC01F80185838F2D6196EFE00C94C02FA4
:104D4000A601662D852D0E942E15D82E81E08E2578
:104D5000D11080E080FF14C04E2D662D852D0E945D
:104D60000E15882369F087EB91E00E94922086E07F
:104D7000E7EBF1E0DF011D928A95E9F7F12CDBCF3B
:104D800081E08E25D11080E0B82FB170CB2E80FF4E
:104D900029C04E2D662D852D0E940E15D82E81110D
:104DA00021C05D866E868D859E850E947715292F90
:104DB00022952F70223050F0243078F49F7051F0FB
:104DC000F8019581907F31F4FD2CB5CF9F7011F0E3
:104DD0008823D1F3805E8830B8F3C8010E94922006
:104DE000DC2CF2CFEE2009F4A6CF8091BC018160CB
:104DF0008093BC01C3CF8B2D0E942E15811119C049
:104E0000D80111968C9111978A1113C08C918B1136
:104E100010C0E1100EC015967C92C8010E9492202D
:104E200086E0F801A7EBB1E001900D928A95E1F7D9
:104E300082CFC8010E94ED15882309F1EE20F9F018
:104E40008091BC01803270F02091B7013091B8019F
:104E500038872F831986DB86CA868C87CE01079612
:104E60000E94922086E0F801A7EBB1E001900D923C
:104E70008A95E1F70E94D025FF24F3945CCFC80106
:104E80000E949220F9CF872D807F09F46CCF9090FB
:104E9000B7018090B8014091BA015091BB01682DD3
:104EA000892D0E942E15811113C0F801818188116E
:104EB0000FC0808189110CC0E1100AC07582C80141
:104EC0000E94922086E0D5011D928A95E9F733CFA2
:104ED000C8010E94ED15882391F2EE2081F28091A5
:104EE000BC01803208F4BECF2091B7013091B801E7
:104EF0003A8329831B82DD82CC828E83CE01019688
:104F0000AFCF60E087EB91E00E9420160E947A0FFD
:104F100088169906B8F6FE2CEE2009F4B0CFE09082
:104F2000B701D090B8014091BA015091BB016D2DED
:104F30008E2D0E942E1581111AC0F80181818D11CC
:104F400016C080818E1113C08091BC0180FD68CF96
:104F5000982F907F09F464CF8583903F09F45DCF4B
:104F6000982F907F905F8F70892B858356CFC801D3
:104F70000E94ED15811176CF8091BC0181608093F4
:104F8000BC01C8010E949220D6CEEE2009F477CF52
:104F9000C8010E94ED15F82E882309F470CF86E031
:104FA000F801A7EBB1E001900D928A95E1F78091AD
:104FB000B7019091B8010E9477150E94D025BBCE11
:104FC000A7E1B0E0E6EEF7E20C94B02F4B8B5C8BE0
:104FD0006D8B7E8B8F8B61111092BE021A8A198A9B
:104FE00085E0FE017396DE011D9601900D928A9573
:104FF000E1F786E0FE013D96DE01179601900D92E5
:105000008A95E1F7CE0107960E943326811111C0DF
:1050100086E0FE013796DE01119601900D928A9589
:10502000E1F74A855B8568858F810E942E1588236C
:1050300059F016E08091EE019091BD01891331C0C5
:105040006796E3E00C94CC2F2091BD0130E0C901BC
:105050000196877099274091EE014817190699F03B
:1050600096E0929FD001939FB00D1124A254BE4FA1
:10507000FE01319601900D929A95E1F78093BD0162
:105080000E943915D6CF0E94401B1092BD0110928C
:10509000EE0186E0E7EBF1E0DF011D928A95E9F78A
:1050A000C8CF819FC001112482549E4F0E94332695
:1050B000882331F28091EE0190E001968770992764
:1050C0008093EE01B7CF1F921FB61F9211248F93CA
:1050D0009F93AF93BF938091C802811113C08091B9
:1050E000C9029091CA02A091CB02B091CC02419624
:1050F000A11DB11D8093C9029093CA02A093CB0257
:10510000B093CC02BF91AF919F918F911F901FBE22
:105110001F901895CDB7DEB762970FB6F894DEBF33
:105120000FBECDBF85B7806885BF85B7806885BF56
:1051300084B7877F84BF0FB6F894A89580916000EC
:10514000886180936000109260000FBE80E890E05C
:105150000FB6F89480936100909361000FBE86EFC4
:1051600092E190937F0180937E010E94A40F0E94A0
:105170006F108091E20084608093E20078948091C7
:10518000F7028823A1F01091E9001F709091EC00C4
:10519000892F817090FD80E8182B1092E900809192
:1051A000E80083FD0E94561B1F701093E90082E007
:1051B00084BD93E095BD9AEF97BD80936E0081E327
:1051C0000E94F81283E30E94F81282E30E94F81210
:1051D00086E30E94F8120BE611E045E7E42E41E079
:1051E000F42ED8018D918D018F3F11F00E94F8129D
:1051F000E016F106B1F788E0E0E2F2E0DF01282FE7
:105200001D922A95E9F7E6E1F2E0DF011D928A9509
:10521000E9F790E080E00E941133883E9E4F11F044
:105220000E94151982E090E00E94093380932802C1
:105230000E9407199093CE028093CD020E94E01F36
:10524000EFEFF6E721E0E150F0402040E1F700C049
:1052500000000E94E01F8091200280FF08C06FEFD5
:105260007FEF90E080E00E9435330E942C1183E0B4
:1052700090E00E94093390E00E94391B1092A50231
:1052800080E8809301030E94A12E6DE070E08FE121
:1052900097E10E948C16892BE9F58091A50263E0C5
:1052A00070E081FD9DC08CE197E10E948C16892BF6
:1052B00089F56DE070E08CE097E10E948C16892BF7
:1052C00049F50E943D11605A75418F4F9F4F609381
:1052D000B5027093B6028093B7029093B802EAE0E9
:1052E000F3E080E092E0DF019C011D92215030400C
:1052F000E1F7F0930B05E0930A058FEF9FEF909392
:1053000009038093080381E08093BA028093B90275
:105310001092A60280E091E09093C5028093C402AF
:105320008091F70200E112E1853009F498C00E94F3
:10533000E01F29E2822E22E0922E30E2A32E32E0FC
:10534000B32E41E352E0D501F401219131918D91C9
:105350009D914E175F0709F48CC028173907A9F3F0
:10536000712CD5010D911D915D01F401C190D19079
:105370004F01C016D10659F1C026D126612CEE246A
:10538000E394F12CC7018C219D21892BB1F06C860F
:105390007D8621E0C70180239123892B09F420E039
:1053A0002E870E94891A8160782F988B8F874C8571
:1053B0005D856E8588890E94E0276394EE0CFF1C52
:1053C000FAE06F12DFCFF4013297118300837394F8
:1053D00024E07212C6CF0E943D11DD24D3946CC02C
:1053E00089E197E162CF8091F702843031F10E9428
:1053F000B6161092C80288E190E0A0E40FB6F894C7
:10540000A895809360000FBEA093600083B7817F52
:10541000846083BF83B7816083BF7894889583B7A6
:105420008E7F83BF0FB6F894A89580916000886145
:1054300080936000109260000FBE8091F602882376
:1054400071F00E94E01FE0E2F2E081919191892BDE
:1054500009F057C428E232E02E173F07B1F78091D8
:10546000F702853009F4BFCF0E94401B0E94D4117F
:105470005ECF2817390709F073CF0E94891A8C0173
:1054800080911E0290911F0208171907A1F08FEF5B
:105490008F83888719860E94891A8160782F9B875D
:1054A0008A874F81588569858B850E94E0271093F4
:1054B0001F0200931E02D12C0091C0021091C10264
:1054C00001151105D9F080913102909132020E94AC
:1054D0007A1A7C01C8010E947A0F8E159F0570F41C
:1054E0003EE0039FC0011124FC01EF5EFE4F2081CE
:1054F00022FD04C0845F9E4F0E94241880903E02CB
:1055000090903F02092C000CAA08BB08809128014A
:1055100090E0EEE3F2E021E030E03296821793076C
:105520000CF049C180913A0290913B02A0913C025B
:10553000B0913D026FB7F8944090C9025090CA02F2
:105540006090CB027090CC026FBF481A590A6A0A69
:105550007B0A1091280149EC44165104610471043E
:1055600014F18091390290E0019669E170E00E94A7
:10557000E42F80933902880F991FFC01E25CFD4FF4
:1055800011821082812F183108F087E18F5F80939C
:1055900028010E943D1160933A0270933B02809370
:1055A0003C0290933D0282E088169104A104B1046C
:1055B0000CF40EC1A0E6BAEEA50194010E943F30A2
:1055C0004B015C0198EC199F90011124032E000CF3
:1055D000440B550B240D351D461D571DA5E0B0E0AD
:1055E0000E943F309B01AC01C501B4010E94F82F1D
:1055F00029013A01A1EF4A165104610471042CF00B
:10560000A0EF4A2E512C612C712C80913502909183
:105610003602A0913702B09138022FB7F8948090EB
:10562000C9029090CA02A090CB02B090CC022FBFCA
:10563000881A990AAA0ABB0AB5E68B169104A10436
:10564000B10484F00E943D116093350270933602DC
:1056500080933702909338028091780280933402CD
:105660004092330210913402A0913302A11BBB0B74
:10567000A50194010E944A3024E630E040E050E069
:105680000E941A30120F109378028091BA02882378
:1056900009F435C180E00E94920F112309F49CC0E7
:1056A0000E94D11640917402509175026091760269
:1056B000709177022FB7F8948091C9029091CA0235
:1056C000A091CB02B091CC022FBF841B950BA60BEF
:1056D000B70B893C9105A105B10560F00E943D1111
:1056E00060937402709375028093760290937702B0
:1056F0000E944F160E943D116093700270937102D8
:10570000809372029093730280E00E94920F8091C6
:1057100078021F928F9381E391E09F938F930BE721
:1057200012E01F930F930E947730D8010D90002054
:10573000E9F78D01015011090F900F900F900F9014
:105740000F900F90FBE7EF2EF2E0FF2EE016F10630
:1057500008F48BC081E00E94920F809179029091B1
:105760007A02292F3327E0E02115310511F0C90114
:10577000E8E09C0174E0369527957A95E1F72115CC
:10578000310511F0EC5FC9019C01369527953695DE
:1057900027952115310511F0EE5FC9019695879582
:1057A000892B09F0EF5FE83008F070C0F0E0ED59A8
:1057B000FC4C0C94393040815181052E000C660B55
:1057C000770B840E951EA61EB71E2F5F3F4FA5CEEA
:1057D000412C512C320119CF40917002509171022D
:1057E00060917202709173022FB7F8948091C90290
:1057F0009091CA02A091CB02B091CC022FBF841B22
:10580000950BA60BB70B81369A4EA105B10518F082
:105810000E94B61679CF4091740250917502609142
:105820007602709177022FB7F8948091C902909117
:10583000CA02A091CB02B091CC022FBF841B950B62
:10584000A60BB70B893C9105A105B10508F45CCF07
:105850000E943D11609374027093750280937602EA
:10586000909377020E944F164FCFF70181917F01ED
:105870000E94F9166BCF84E797E10E94A71782E098
:105880000E94920F8FE697E10E94A7170E94D41101
:10589000182F83E00E94920F8CE297E111FF02C063
:1058A0008DE297E10E94A7178091BA02882371F0D8
:1058B00020910803309109032115310539F08091B9
:1058C000A60261E070E0882309F440C18091B9022A
:1058D0008823A9F00E943D110091B5021091B602F3
:1058E0002091B7023091B802601B710B820B930BB1
:1058F0006F3F7F4F8F4F9F4710F40E94B616D11015
:105900000E94D11686E0EFEAF2E0DE0111960190E6
:105910000D928A95E1F71092B1021092B2021092A4
:10592000B3021092B4028B819C81892B09F44AC086
:105930008091AD029091AE020E947A1A9C019091E2
:10594000A902992309F4F8C125313105D8F19F3F07
:1059500019F09F5F9093A9021B81112359F00E94B7
:105960007C129FEF11160CF491E0899F802D112479
:105970008093B1021C81112359F00E947C129FEF89
:1059800011160CF491E0899F802D11248093B202AE
:105990003091B1023323B1F02091B202222391F071
:1059A00045EB3403C0011124992309F49AC1909363
:1059B000B10245EB240390011124332309F495C16E
:1059C0003093B2028D819E81892B09F44AC0809167
:1059D000AB029091AC020E947A1A9C019091A802AD
:1059E000992309F4A4C121353105D8F19F3F19F05D
:1059F0009F5F9093A8021D81112359F00E945A12B3
:105A00009FEF11160CF491E0899F802D1124809353
:105A1000B3021E81112359F00E945A129FEF1116F2
:105A20000CF491E0899F802D11248093B402309171
:105A3000B3023323B1F02091B402222391F045EB5D
:105A40003403C0011124992309F453C19093B30284
:105A500045EB240390011124332309F44EC1309304
:105A6000B40246E050E0BE016F5F7F4F8FEA92E0E4
:105A70000E946A30892B61F48091B1029091B20248
:105A8000892B9091B302892B9091B402892B11F04C
:105A90000E94951A86E0FE013196AFEAB2E00190CD
:105AA0000D928A95E1F70E94D4119091A70289176F
:105AB00009F436CC8093A7020E943D1131CC8BE6CD
:105AC00097E10E94A71782E00E94920F86E697E175
:105AD000DBCE82E697E10E94A71782E00E94920F38
