:100000000C94D4010C94F1010C94F1010C94F101C5
:100010000C94F1010C94F1010C94F1010C94F10198
:100020000C94F1010C94F1010C9494180C946C193B
:100030000C9449180C94F1010C94F1010C94F10109
:100040000C94F1010C94F1010C94F1010C94F10168
:100050000C94F1010C9470180C94F1010C94F101C2
:100060000C94F1010C94F1010C94F1010C94F10148
:100070000C94F1010C94F1010C94F1010C94F10138
:100080000C94F1010C94F1010C94F1010C94F10128
:100090000C94F1010C94F1010C94F1010C94F10118
:1000A0000C94F1010C94F1010C94F1010501090289
:1000B000A10185020901A1000509190129081500FE
:1000C0002501950875018102050109300931158165
:1000D000257F95027508810609381581257F9501D0
:1000E00075088106050C0A38021581257F95017572
:1000F000088106C0C005010980A101850319012AF4
:10010000B700150126B700950175108100C0050CD8
:100110000901A101850419012AA002150126A002E6
:10012000950175108100C005010906A1018506052C
:100130000719E029E71500250195087501810205D9
:1001400007190029EF1500250195F07501810205B9
:10015000081901290595057501910295017503910D
:1001600001C005010906A101050719E029E71500ED
:100170002501950875018102950175088101050722
:10018000190029FF150026FF009506750881000556
:10019000081901290515002501950575019102959C
:1001A0000175039101C009023B00020100A0FA0998
:1001B0000400000103010100092111010001224492
:1001C0000007058103080001090401000103000084
:1001D0000009211101000122B60007058203200059
:1001E0000112010002000000084B5307000001014A
:1001F0000200011403530063006F00740074006F69
:100200000041006C00700000001803530063006F91
:1002100000740074006F004B00650065006200739D
:10022000000000040309042B0014001A0008001544
:100230000017001C0018000C00120013002A0028F0
:100240000004001600070009000A000B000D000E54
:10025000000F002A003400E1001D221B00060019D7
:1002600000050011001000360037003832E50000AC
:10027000002900E300E20000002C2800002B4128A8
:100280004229000000000001002D022D002E022E48
:100290000033023500BC00AE00BB004C0001000181
:1002A000002F02260227023002310229005000529C
:1002B0000051004F00010001002F223400340230B1
:1002C0000033003502AA00A800A900313201000065
:1002D0000001000100010000000100000001000118
:1002E0000001000000000001001E021F0220022188
:1002F00002220223022402250239002A0001000101
:10030000001E001F002000210022002300240025E1
:10031000002600270001000100E1000000000000AD
:100320000023520000000036003700383201000080
:1003300000010001000100000001000000010001B7
:1003400000010000000000010000000000000000AB
:10035000000000000000000000000000000100019B
:10036000003A003B003C003D003E003F00400041A1
:1003700000420043000100010044000000000000B2
:100380007C010000000000000000004500010000AA
:100390000001000100010000000100000001000157
:1003A000000100000000000011241FBECFEFDAE0C2
:1003B000DEBFCDBF11E0A0E0B1E0E8E9F5E302C0A7
:1003C00005900D92A235B107D9F722E0A2E5B1E080
:1003D00001C01D92AA35B207E1F70E9463150C9483
:1003E000791A0C94000090931202809311020895E0
:1003F0009093140280931302089521E030E002C02C
:10040000220F331F8A95E2F7809113029091140214
:10041000822B932B0E94F801089521E030E002C066
:10042000220F331F8A95E2F72095309580911302B1
:1004300090911402822393230E94F801089594302E
:1004400098F58C3088F5E82FF0E08CE0989FE00D6F
:10045000F11D11248E2F877041E001C0440F8A9551
:10046000EAF783E0F695E7958A95E1F7EE0FFF1F2F
:10047000EE0FFF1FE551FE4F20E030E070E051919C
:10048000DF011197CB01022E02C0969587950A9441
:10049000E2F7817081958527842385278C932F5FD0
:1004A0003F4F2430310559F70895943078F58C305A
:1004B00068F5E82FF0E08CE0989FE00DF11D112425
:1004C0009E2F977083E0F695E7958A95E1F7EE0FFA
:1004D000FF1FEE0FFF1FE551FE4F40E050E080E0B0
:1004E000219130E0092E02C0369527950A94E2F753
:1004F00021703327042E01C0220F0A94EAF7822BC1
:100500004F5F5F4F4430510559F7089580E00895DB
:1005100080911A0290911902981301C008958F5F7B
:100520008770FACF909115028095892380931502E8
:10053000282F277021110DC0891759F090911702AB
:1005400092FF07C08695869586950E940D021092AF
:100550001502089580910E0290911802892B5091F6
:100560000F025523C1F090910A019923A9F09091AF
:10057000160297FF11C09DE12EE531E040E0F90140
:1005800060812F5F3F4F61114F5F9150C0F7411164
:1005900010920F02852B089595E026E531E0EECF0D
:1005A000982F909580910E02892380930E020895D2
:1005B0007430B8F46C30A8F48430B0F4E62FF0E076
:1005C0009CE0799FE00DF11D112490E3899FE00DDF
:1005D000F11D1124EE0FFF1FE95DFD4F85919491F0
:1005E000089580E090E0089581E0FCCF803E910581
:1005F000D1F1C8F48133910509F47FC048F4893200
:10060000910509F46FC08A32910509F47DC00895FF
:1006100089339105E1F082389105C9F08533910560
:1006200009F45BC00895843E9105D1F148F4823EFF
:10063000910531F1833E910541F181EE90E00895FD
:10064000863E9105C1F1873E9105E1F10895209123
:1006500016022370211165C02091170223FF14C0D8
:1006600089E290E008952091160220FD43C0309168
:10067000170230FF09C024FF4EC080E090E00895CB
:100680002091160222FDF7CF08952091160222FD37
:1006900045C03091170230FD44C024FFF5CFEDCFA7
:1006A0002091170221FFF0CF8091160284FDE5CF43
:1006B00087EE90E008952091160223FFE5CF24FDF8
:1006C000DCCFF6CF2091160223FD2EC03091170209
:1006D00031FFE3CF84EE90E008952091160225FFCC
:1006E000D3CFBECF2091160225FD21C02091170245
:1006F00023FFCACF89E390E008952091160226FFD8
:10070000C3CF8AE290E008952091160226FFBCCF65
:1007100081E390E0089583EE90E0089582EE90E00A
:10072000089580EE90E0089586EE90E0089585E3C8
:1007300090E0AACF9091160292FF10C041E0282FBE
:100740002471243009F040E031E0282F287128304E
:1007500009F030E0431711F02CE0822793FF10C01E
:1007600041E0282F2471243109F040E031E0282FA6
:100770002871283109F030E0431711F02CE082276E
:100780003091170230FF10C051E0282F2171213025
:1007900009F050E041E0282F2871283009F040E0AE
:1007A000541711F029E0822731FF10C041E0282FB3
:1007B0002171213109F040E031E0282F28712831E2
:1007C00009F030E0431711F029E0822794FD877E7D
:1007D00008951F93CF93DF930E94F602EC018115D9
:1007E00022E5920708F053C0811540E5940708F010
:1007F000DDC0803E9105F8F48D3C910508F0AEC057
:10080000883A910580F4853A910508F099C08130C5
:10081000910521F00497813A910550F4CE01DF91C2
:10082000CF911F910895885A91094B9708F48BC076
:10083000C0E0D0E0F3CF811550E49507F8F4C1157E
:1008400080E2D80708F0CBC0C83ED10538F3CE010E
:100850009A9581159F4160F78D2F0E949A03182F5A
:10086000CE0199270E94F602212F30E0322F222755
:10087000E901CC27DF71C82BD92BD0CF99270E9453
:10088000F602CC27DF70C82BD92BD06AC7CF8038AF
:1008900042E59407C8F5803652E5950708F067C031
:1008A000C03482E5D807B0F08C2F86958695877086
:1008B00020E2829FC0011124C37021E030E0A90131
:1008C00002C0440F551FCA95E2F7EA01C82BD92B85
:1008D000DC68A4CFC03252E5D50708F041C08C2FA8
:1008E0008695869520E2829FC0011124C37021E085
:1008F00030E0A90102C0440F551FCA95E2F7EA0192
:10090000C82BD92BDD688ACF803C52E5950760F46F
:100910008F71C03AD24508F03FC090E0982F8827E9
:10092000EC01C46FD06A7ACF805C9245809708F062
:100930007FCFDC2FCC27CC27DF71C06FD06A6ECF82
:10094000A497D0646BCFC85AD0E0CC0FDD1FC55E32
:10095000DE4F0990D881C02DD46460CFD0655ECFC2
:10096000CF71D0E0DC2FCC27C16FD06A57CF8695EE
:100970008695877020E2829FC0011124C37021E018
:1009800030E0A90102C0440F551FCA95E2F7EA0101
:10099000C82BD92BDA6842CF0E949A03C82FD0E027
:1009A000DC2FCC27CC27DF71D06238CF8F710E942B
:1009B0009A0365E0D695C7956A95E1F7CF70D0E0C8
:1009C000DC2FCC27282F30E084FF05C054E0220F15
:1009D000331F5A95E1F7C22BD32BD0691FCF8D2F30
:1009E0008F710E949A03182FCE0199270E94F60258
:1009F000212F30E0322F222722273F71282B392B3D
:100A0000E901D2CFA0E0B0E0E8E0F5E00C94D8191D
:100A10008C01E0901302F0901402809111029091E9
:100A20001202E82AF92ACFE0D0E0CC24C394D12CDA
:100A3000C6010C2E02C0880F991F0A94E2F78E217E
:100A40009F21892B49F4219798F7B12C8B2DCDB795
:100A5000DEB7E9E00C94F419BC2EB8018C2F0E948B
:100A6000D8020E94E903019771F3F0CF0F931F930F
:100A7000CF93FC01858100811181882391F0662349
:100A800081F0C8010E940205C82F682FC8010E948A
:100A90001F02B8018C2F0E94D802CF911F910F9195
:100AA0000895C8010E945502C82FF3CFCF93DF935A
:100AB000D82FC92F0E9402056D2F7C2F0E94D802CB
:100AC0000E94E903DF91CF910895FC01848188237E
:100AD000A1F0808191810E945605282F92959F70E8
:100AE000963091F060F4925F9F70923030F481E024
:100AF000203F79F030F4283E30F080E004C09A5F67
:100B0000F3CF243FD1F7089581E0283E18F0213F2C
:100B1000F9CF0895089580E00895F894E82FE295BC
:100B2000EF70F0E041A18F7021E030E0B90102C028
:100B3000660F771F8A95E2F7CB01962F9095942345
:100B400091A392A1892B82A378940895282F35EB45
:100B50002303C001112497FF04C080589109892FF5
:100B6000089580589F4FFBCF8091050280FD14C0EF
:100B700081FD14C082FD16C080910402882381F09B
:100B80008E3180F420E5829FC00111246EE170E077
:100B90000E94B519862F089584E1089588E208958A
:100BA00088E0089580E508958091050280FD17C0D2
:100BB00081FD17C082FD19C080910302882399F03E
:100BC000883298F428E0829FC001112468E270E026
:100BD0000E94B5196115710551F0862F089562E0E4
:100BE000FCCF64E0FACF61E0F8CF68E0F6CF81E0B7
:100BF0000895E091E101F091E201309729F0019030
:100C0000F081E02D0995089580E00895A3E0B0E01B
:100C1000ECE0F6E00C94DF199C0180919801909132
:100C2000990182179307A1F03093990120939801BD
:100C3000E091E101F091E201309751F083E0898386
:100C40003B832A830084F185E02DCE01019609952E
:100C50002396E2E00C94FB19A3E0B0E0E2E3F6E0B7
:100C60000C94DF199C018091960190919701821755
:100C70009307A1F03093970120939601E091E10151
:100C8000F091E201309751F084E089833B832A831D
:100C90000084F185E02DCE01019609952396E2E0CE
:100CA0000C94FB1990910A019923C1F090911602BE
:100CB00097FF14C0E82FE695E695E695803FF8F497
:100CC000F0E0E45AFE4F877021E030E001C0220FCF
:100CD0008A95EAF78281822B82830895A6E5B1E0A6
:100CE000EFEF90E02D91821751F0EF3F19F42111B1
:100CF00001C0E92F9F5F9630A9F7EF3F09F40895EF
:100D00000E2E000CFF0BEC5AFE4FE6CF90910A011D
:100D10009923E1F09091160297FF18C0E82FE6950D
:100D2000E695E695803FF0F4F0E0E45AFE4F8770D8
:100D300021E030E0A90102C0440F551F8A95E2F777
:100D4000CA0180959281892382830895E6E5F1E0C6
:100D50009191891303C0DF0111971C9251E0EC358A
:100D6000F507B1F708952FB7F8948091BA019091E3
:100D7000BB01A091BC01B091BD012FBF08950E949D
:100D8000B3062091080230910902232B222321F07F
:100D90008093B8019093B90120910A0230910B021F
:100DA000232B222321F08093B6019093B701E09189
:100DB000E101F091E201309749F082E08093060270
:100DC0000680F781E02D86E092E009950895209154
:100DD000080290910B0230910A02662309F45AC06E
:100DE00040910902242B292B232B222331F098E058
:100DF0009093040291E0909303028D3C41F40E9491
:100E0000B4058195809309020E94BF060895E2E32C
:100E1000E80FE231C8F7F0E0E558F54E0C94C91937
:100E20000E94B405EFCF0E94B4058195809308021B
:100E3000EBCF0E94B405FACF0E94D40580930A023A
:100E4000E3CF0E94D4058195F9CF0E94D405819506
:100E500080930B02D9CF0E94D405FACF815D990B04
:100E600021E030E001C0220F8A95EAF78091070265
:100E7000822B80930702C8CF809105028160809306
:100E80000502C2CF809105028260F9CF80910502F0
:100E90008460F5CF8D3C59F48091090287FF0DC025
:100EA00010920902222359F41092040208C08E3CC9
:100EB00081F48091090218169CF3222381F080911D
:100EC0000A0290910B02892B81119ECF109203028E
:100ED0009BCF8F3C41F427FFF0CF10920802809106
:100EE00009028823E0CF803D19F41216B4F3E5CF50
:100EF000893D29F413160CF710920A02DECF8A3DC1
:100F000019F437FFDACFF8CF8B3D29F497FFD5CF0F
:100F100010920B02D2CF8C3D19F41916CCF3CDCF21
:100F20009FE2980F983090F4815D990B41E050E07A
:100F3000BA0102C0660F771F8A95E2F7CB01809550
:100F400090910702892380930702B7CF8D3D31F43A
:100F5000809105028E7F80930502AFCF8E3D21F4F4
:100F6000809105028D7FF7CF8F3D09F0A6CF80914C
:100F700005028B7FF0CF9C014FB7F8948091BA01A6
:100F80009091BB01A091BC01B091BD014FBF821BEC
:100F9000930B089587E797E79093010880930008E3
:100FA00088E19AE00FB6F894A895809360000FBE90
:100FB00090936000FFCF809195010895FC019B0103
:100FC00080918B0190918C018617970740F0672BD9
:100FD00029F48091E8008E778093E800C90140E011
:100FE000009741F4411106C08091E80082FF2FC0B4
:100FF00080E008952091A4012223A9F12530A9F1D0
:101000002091E80023FD2DC02091E80022FDECCFC7
:101010002091E80020FFE4CF3091F3002091F2000E
:10102000009719F02830310558F041E0283031059B
:1010300009F040E02091E8002E772093E800D0CF1F
:1010400041914093F10001972F5F3F4FE9CF80918D
:10105000A401882341F0853041F08091E80083FFAE
:10106000C3CF81E0089582E0089583E008958091E0
:10107000850187FF13C08091E80082FF06C0809140
:10108000E8008B778093E80004C08091A40181116F
:10109000F2CF08958091A4018823D9F38091E800CC
:1010A00080FFF8CF8091E8008E77ECCF2091E400AC
:1010B0003091E50095E6A9018091EC0081708823CC
:1010C00031F08091E80080FF06C080E00895209113
:1010D000E80022FD1BC08091A401882391F0853097
:1010E00091F08091EB0085FD10C02091E4003091DB
:1010F000E5004217530701F391509111DCCF84E0D2
:10110000089582E0089583E0089581E00895E8ED70
:10111000F0E080818E7F80831092E2001092DA00EE
:101120001092E100A0EEB0E08C9181608C93808100
:101130008F77808319BCA7EDB0E08C918E7F8C9364
:1011400080818F7E8083109284010895982FE42FF0
:10115000E2709093E900891308C0762F242F50E0A5
:10116000E11111C091E0980FF4CF7091EC00209143
:10117000ED005091F00021FD06C09F5F973049F7C8
:101180008093E90008953091EB003E7F3093EB00AF
:101190003091ED003D7F3093ED003091EB003160F8
:1011A0003093EB007093EC002093ED005093F0002F
:1011B0002091EE0027FDE1CF0895A0E0B0E0E3EE3E
:1011C000F8E00C94D919C8EDD0E088818F7E88832F
:1011D000E7EDF0E080818160808384E082BF81E080
:1011E0008093840188818E7F888302EE10E0F8016D
:1011F00010821092DA0081EEC82ED12CF6011082F6
:1012000088818F77888388818068888388818F7DB3
:10121000888319BC1092A401109283011092A3013B
:101220001092820190EEE92EF12CF70180818B7FE4
:10123000808388818160888342E060E080E00E9452
:10124000A608F60180818E7F8083F801808181600D
:101250008083808188608083F70180818E7F808396
:10126000888180618883CDB7DEB7E8E00C94F519FA
:101270000F931F93CF93DF93EB018A019091A40109
:10128000943079F58093E9008FEF9091E80095FD17
:1012900007C095ED9A95F1F7000081508111F5CFC7
:1012A0008091E80085FF1DC00E945608811114C07E
:1012B0008091E80085FD06C08091E8008E778093DC
:1012C000E800F2CF88818093F100015011090115E7
:1012D000110511F02196ECCF8091E8008E77809374
:1012E000E800DF91CF911F910F910895CF93DF9385
:1012F000D82FC92F48E050E0682F792F81E00E9455
:10130000380988E0ED2FFC2FADE8B1E001900D9297
:101310008A95E1F7DF91CF910895BC0140E250E05A
:1013200082E00E9438090895BC0146E050E082E066
:101330000E9438090895BC0143E050E082E00E9419
:10134000380908959091170292FB222720F9281757
:1013500079F080FB92F990931702609116027091D8
:10136000170284E090E00E94561A82E00E949202E6
:10137000089580910A01882359F18091160287FF10
:1013800027C00E94AA0280935D0140E250E061EC18
:1013900071E08CE591E00E946C1A892BC1F080E22B
:1013A000ECE5F1E0A1ECB1E001900D928A95E1F756
:1013B000E091E101F091E201309749F086E08093FD
:1013C0005C010480F581E02D8CE591E0099508959C
:1013D0000E94AA028093540148E050E063EE71E05D
:1013E00084E591E00E946C1A892B89F388E0E4E59A
:1013F000F1E0A3EEB1E001900D928A95E1F7E09162
:10140000E101F091E201309711F30280F381E02DC8
:1014100084E591E0DBCFCF93C82F8823B1F18CEF27
:101420008C0F813AA0F580910A01882301F1809107
:10143000160287FF1CC0EC2FE695E695E695F0E0D6
:10144000E45AFE4F828190E04C2F477021E030E05B
:1014500002C0220F331F4A95E2F782239323892B80
:1014600079F08C2F0E9486060E94B90909C0E6E532
:10147000F1E08191C817A9F321E0EC35F207C9F733
:101480008C2F0E9452060E94B909CF91089580E2E4
:101490008C0F883068F4C77081E090E001C0880F3D
:1014A000CA95EAF7C0910E02C82BC0930E02EBCF8B
:1014B0008BE58C0F833038F42C2F2452330BC90169
:1014C0000E940606E2CFE8E5EC0FEB3150F4F0E0C5
:1014D000EE0FFF1FE55EFE4F808191810E942C067A
:1014E000D4CF83E38C0F833180F661E08C2F0E9490
:1014F000E706CBCF882381F19CEF980F913A28F42F
:101500000E9486060E94B909089590E2980F9830CB
:1015100050F4877091E001C0990F8A95EAF7892FFE
:101520000E94D002EFCF9BE5980F933028F480E023
:1015300090E00E940606089598E5980F9B3128F4E4
:1015400080E090E00E942C06089593E3980F933179
:1015500018F460E00E94E7060895882339F090911E
:101560000E02892B80930E020E94B90908958823E8
:1015700021F00E94D0020E94B90908950F931F9391
:10158000CF93DF93C62FD42F122F8823A9F0609317
:101590000C020E94B3069093800180937F01C77074
:1015A00081E001C0880FCA95EAF70E94AD0ADF9179
:1015B000CF911F910F91089580910C02681338C04C
:1015C00080917F01909180010E94BB07873891052F
:1015D00078F5CD130FC0812F0E940B0A812F0E9436
:1015E0007A0AD77081E001C0880FDA95EAF70E9485
:1015F000B70ADDCFC77001E0802F01C0880FCA9500
:10160000EAF70E94B70A80E28D0F883050F48D2FE0
:10161000877001C0000F8A95EAF7802F0E94AD0AFB
:10162000DACF812F0E940B0A812F0E947A0ABFCF46
:10163000C77081E001C0880FCA95EAF7D8CF109231
:101640000E0280910A01882339F18091160287FFEA
:1016500023C0EEE5F1E08EE1DF011D928A95E9F706
:1016600080E090E00E94060680E090E00E942C0658
:10167000109218020E94B90986E0E6E0F2E0DF016C
:101680001D928A95E9F710920402109203021092BB
:1016900005020E94BF060895E6E5F1E086E0DCCF92
:1016A0000E941F0B2FEF84E39CE02150804090406C
:1016B000E1F700C0000088E19AE00FB6F894A89521
:1016C000809360000FBE90936000FFCFA0E0B0E079
:1016D000ECE6FBE00C94D9197C01FC0184818823A1
:1016E00031F161E0C7010E943605EC01FC01E851CF
:1016F000FC47E730F105B8F5E357F54E0C94C919EE
:1017000026E241EE61EEF70185810E94BE0A8091DA
:1017100015028770882359F0F7018581882339F0F5
:101720008091170282FF03C082E00E949202CDB72F
:10173000DEB7E8E00C94F51927E245EE65EEE3CF5D
:1017400026E241EE60EEDFCF27E245EE64EEDBCF2E
:1017500026E241EE62EED7CF27E245EE66EED3CF2A
:1017600028E241E0EBCFF701858181110CC0C63141
:10177000DC4709F00CC180910D028111F1C089E2B2
:101780000E948606E8C010920C02CE019057839703
:1017900008F0CFC084E090E00E94221A90931702D4
:1017A00080931602FE01E150F047E232F10520F489
:1017B000EC56F54E0C94C919809116028160809305
:1017C0001602609116027091170284E090E00E9468
:1017D000561A0E941F0B9BCF80911702886080933E
:1017E0001702EFCF809116028260E9CF8091160236
:1017F0008460E5CF809116028860E1CF8091170266
:101800008160EDCF809117028260E9CF809116024E
:101810008061D5CF809116028062D1CF809116026F
:101820008064CDCF0E941F0B809116028068C7CFC5
:10183000809116028C60C3CF809117028360CFCF56
:10184000809116028E7FBBCF80911702877FC7CF12
:10185000809116028D7FB3CF809116028B7FAFCF20
:1018600080911602877FABCF809117028E7FB7CF12
:10187000809117028D7FB3CF809116028F7E9FCF0C
:10188000809116028F7D9BCF809116028F7B97CF20
:101890000E941F0B809116028F7791CF80911602C4
:1018A000837F8DCF809117028C7F99CF8091160214
:1018B00082FB992790F921E0922790FB82F990FB17
:1018C00083F97DCF80911702982F909591708E7F2C
:1018D000892B90FB81F983CF90911602892F8F7B02
:1018E00096FF80646CCF0E941F0B90911602892F87
:1018F00097FB87F9805863CF61E08EE090E00E940B
:10190000381A5FCF60E0F9CF90911602892F8F7E51
:1019100094FF806154CF90911602892F8E7F90FFA3
:1019200081604DCF90911702892F877F93FF886048
:1019300056CFC6312CE7D207A9F480910E028A7ADD
:1019400091E0811101C090E090930D02882331F065
:1019500085E30E9452060E94B909D9CE89E2F9CFE7
:1019600085E30ECFCA353CE7D30709F484C008F0FD
:101970005BC0C1309CE7D90709F47BC0C330ECE7FA
:10198000DE0709F470C0C115DC4709F45FC0F70138
:10199000858100811181882309F471C0C8010E94EA
:1019A0000205C82F682FC8010E941F02B8018C2FA2
:1019B0000E94D8020E94E903D82FC92FF701D580D1
:1019C000C680C2948FE0C822809115028770882358
:1019D000F9F00D2DDD20E9F0892F807F803461F052
:1019E00080E28D0F8830A0F0892F807E803221F434
:1019F000D23070F0CC2061F08091170282FF08C0D5
:101A000082E00E94920280911502877001E08111AC
:101A100000E0EC2FE295EF70C03C08F096C0F0E0DB
:101A2000EA54F54E0C94C919CB352CE7D20729F1AD
:101A3000CC35DC4709F0ABCF8091170282FB8827B9
:101A400080F991E089270E94A209A1CF0E941F0B73
:101A50008FEF94E3ECE081509040E040E1F700C06C
:101A600000000E94CA076FEF7FEF80E090E00E94C5
:101A7000561A0E94500B81E0E6CF80E0E4CFC80107
:101A80000E945502C82F92CF1C2F1F70C03110F03A
:101A90001295107FDD20B9F0112369F080E28D0FDF
:101AA000883010F0D11109C080910E02812B8093F3
:101AB0000E020E94B9098D2F40C080911802812B1F
:101AC00080931802F6CF8D2F0E947A0A1123E9F134
:101AD00080E28D0F883010F0D11104C0812F0E9458
:101AE000D00206C0109580911802812380931802BD
:101AF0000E94B9092AC01C2F1F70C07FC03211F08C
:101B00001295107FDD2349F0D13009F46BC0DD2040
:101B100009F477C0CC20C9F1CECF8091170282FDA5
:101B200030C0DD2069F0112339F080910E02812B45
:101B300080930E020E94B90980E00E940B0A05C042
:101B400080E00E947A0A1111C9CF0023A9F0809188
:101B5000150280FD11C0F701158286958695869540
:101B60000E94FD01C7010E94660B809115028695B7
:101B7000869586950E940D0260E0C7010E94360599
:101B8000D6CDDD2099F0C11004C0812F0E94AD0A8E
:101B9000DCCFF1E0CF12D9CF80910F02912F9823A3
:101BA000191799F2812B80930F02CFCFC110CDCF9F
:101BB000812F0E94B70A90910F02812F89238823D9
:101BC00029F0812F8095892380930F028091100244
:101BD000912F9823992309F4B8CF109518231093C7
:101BE0001002B3CFDD2029F025E02C1508F4ADCF8D
:101BF000CCCF34E03C1508F4A8CF812F0E94B70A5F
:101C0000A4CFCC20D1F3D93349F48FEF97EEE3E0A2
:101C100081509040E040E1F700C000008D2F0E940D
:101C20007A0A93CF8C2F869586958370882369F0E6
:101C3000813009F08ACF8D2F9C2F9370D11002C074
:101C400080E090E00E942C0680CF8D2F9C2F937017
:101C5000D11002C080E090E00E94060676CF6D2D84
:101C60008D2F0E94E70671CF8C2F8370811142C0A7
:101C7000D1102FC04D2F429546954770440F440F09
:101C80002D2F2F7030E0042E02C0220F331F0A9434
:101C9000E2F780E090E0D4FF09C08FE090E002C05E
:101CA000880F991F4A95E2F780959095C695C6953D
:101CB000C370C230B1F0C33089F04091110250912D
:101CC0001202C13049F0822B932B842395230E946A
:101CD000F3010E94F90539CF242B352B822B932B4E
:101CE000F6CF822B932B2091110230911202822782
:101CF0009327EDCFDD2091F1C0FFEBCF4D2F429523
:101D000046954770440F440F2D2F2F7030E0042E5E
:101D100002C0220F331F0A94E2F780E090E0D4FF64
:101D200009C08FE090E002C0880F991F4A95E2F742
:101D300080959095C695C695C370C230C1F0C330EA
:101D400099F04091130250911402C13059F0822B46
:101D5000932B842395230E94F801BBCF823008F493
:101D6000B8CFCCCF242B352B822B932BF4CF822BC7
:101D7000932B209113023091140282279327EBCFEB
:101D8000CF70DD2039F08C2F0E94FD018D2F0E9435
:101D9000AD0A9FCF8D2F0E94B70A8C2F0E940D0293
:101DA00098CFD23FA1F178F4D03FC1F0D13F09F4F0
:101DB00047C0DD2009F46BC0CC2009F465C08D2F2D
:101DC0000E940B0A86CFD33F49F1D43FA9F1D1102D
:101DD000F3CFC1106AC08C2F8F71E0CFDD20A1F04E
:101DE000F4E0FC1508F475CFCF7181E090E09C0120
:101DF00002C0220F331FCA95E2F78091130290911F
:101E0000140282279327A7CF35E0C316EBCF8C2F80
:101E10008F71D110C3CF0E94FD015BCF80E090E0B5
:101E2000DD2009F498CFCF7181E090E002C0880FE7
:101E3000991FCA95E2F78FCF8091170282FD06C0E5
:101E40008C2F8F71DD2009F4A9CFE5CFDD2089F03B
:101E5000CF718C2F0E94FD018091170282FF07C075
:101E6000E8E0CE9FC00111248360809315028C2F7F
:101E7000D2CF81E00E949202F1E0FC1508F029CF58
:101E800082E00E94920225CF8C2F8F71C4CFCC208C
:101E900009F4A1CFD93349F42FEF37EE83E0215075
:101EA00030408040E1F700C000008D2F0E947A0A88
:101EB00010CFA0E0B0E0EFE5FFE00C94DA198091DC
:101EC0005902803108F047C080915802882309F4F4
:101ED00042C0C0911A0287E0D82E809119028C1757
:101EE000D1F1EC2EF12CDC9EE0011124FE01E55E27
:101EF000FD4F84818823A1F1918180915402981330
:101F00002FC090818091530298132AC0858181113E
:101F100027C0028113818091550290915602081BBF
:101F2000190B60E083E592E00E9436050738110541
:101F3000B8F4809159028F70806180935902CF5D0F
:101F4000DD4F88818F708061888383E592E00E94F5
:101F5000660B0E948802CDB7DEB7E7E00C94F61955
:101F6000E7012196C770B9CFADE0B0E0EAEBFFE042
:101F70000C94D2198C0186E0F801DE0118960190CC
:101F80000D928A95E1F7D8017C901196CC9011972B
:101F900015966C9015971296ED90FC9013971496E9
:101FA0005C9083E5A82E82E0B82E809157028111C3
:101FB00020C05520D9F0662009F471C1C8010E94E3
:101FC0006505882309F46BC187E0F801D50101900C
:101FD0000D928A95E1F7B1E05B1206C08091530241
:101FE000909154020E9456050E94590FFF24F394C9
:101FF0003AC0D09058028091550290915602470104
:10200000881A990A60E083E592E0DD2009F405C1B1
:102010000E943605E7E88E16910408F0DFC05520CF
:1020200029F38091590220915402D80111969C9174
:102030001197803108F094C0F62C291319C0209113
:1020400053029C91291314C0611084C08F70806169
:102050008093590283E592E00E94660B80915902B9
:10206000F8018683F12C8F2D2D96EFE00C94EE195C
:10207000611070C0E0911A0280911902AE2F97E0B2
:10208000A81317C097E08E1337C0888599850E94E2
:102090005605292F22952F70903408F441C02A5FED
:1020A0002F70223008F450C0C8010E94660BFD2C2E
:1020B000DACF2A2F30E09A9FD0011124A55EBD4FC0
:1020C00011964C911197C41207C04C91741204C020
:1020D00015964C91411104C0D9011196A770D0CF2B
:1020E00083E592E00E94660B87E0E3E5F2E0DF0122
:1020F0001D928A95E9F7B6CF2E2F30E09E9FF00112
:102100001124E55EFD4F4181C41206C04081741266
:1021100003C045814111A6CFF9013196E770B3CFD5
:102120009F70223038F0992351F0F8019681903158
:1021300030F499CF992319F0882309F494CF805E65
:10214000883008F490CFB0CF803F08F48CCF815F07
:102150008230F7CF8091590281608093590282CFFB
:10216000291315C0209153029C91291310C06110AE
:102170000EC016968C93C8010E94660B87E0F8018A
:10218000A3E5B2E001900D928A95E1F72FCFC80147
:102190000E946505882309F482C0662009F47FC087
:1021A00080915902803288F020915302309154027C
:1021B0003A832983FC82EB82909157029D831E8291
:1021C0008F83CE0101960E94660B87E0F801A3E59C
:1021D000B2E001900D928A95E1F706CF8091590205
:1021E000803108F47DCF552009F400CF20915402AE
:1021F000F80191812913CBCF2091530290812913AB
:10220000C6CF6110C4CF8683C8010E94660B87E0E9
:10221000D5011D928A95E9F7E9CE0E943605B7E807
:102220008B16910408F03FC0552009F4DFCE6620DC
:10223000B1F190915402F8018181981326C09091D8
:1022400053028081981321C08091550290915602CB
:10225000E81AF90AF7E8EF16F10408F08FCF809139
:10226000590280FD8BCF803108F488CFD8011696B3
:102270008C931697982F907F903F09F47CCF982FDE
:10228000907F905F8F70892B74CFC8010E94650585
:1022900081119BCF80915902816080935902C801BE
:1022A0000E94660BA3CE87E0F50111928A95E9F7AB
:1022B000D9CEABE1B0E0EFE5F1E10C94DE194E8B45
:1022C0005F8B688F798F8A8F9B8F91111092180284
:1022D0001D8A86E0FE017696DE011F9601900D9222
:1022E0008A95E1F78B89882329F061E0CE010F966A
:1022F0000E94360587E0FE013F96DE0118960190A8
:102300000D928A95E1F7CE0108960E94B40F8111D3
:102310002BC087E0FE013896DE01119601900D92E8
:102320008A95E1F72091190240911A028C85882341
:10233000D9F030E0C90101968770992750E08417E1
:102340009507E9F097E0929FD001939FB00D11247B
:10235000A55EBD4FFE01319601900D929A95E1F771
:10236000809319020E94880217E080911A029091CE
:102370001902891312C06B96E3E00C94FA190E94BB
:102380001F0B1092190210921A0287E0E3E5F2E0A7
:10239000DF011D928A95E9F7E7CF189FC00111244C
:1023A000855E9D4F0E94B40F882329F380911A0205
:1023B00090E001968770992780931A02D6CFA6E005
:1023C000B0E0E5EEF1E10C94DD190E94B3068C015A
:1023D0008091BF019091C0018017910779F0198217
:1023E0001A820E94B306BC0149815A8180E090E0C4
:1023F0000E9459111093C0010093BF012696E4E09A
:102400000C94F919AAE2B0E0E8E0F2E10C94DE19CC
:1024100085E891E0FC0101962091F100208321E004
:102420008D389207B9F780918601893009F456C03A
:10243000C8F4823009F4B2C0833009F481C081301D
:1024400071F18091E80083FFE6C080918501909151
:1024500086019A3008F0DFC0E92FF0E0EE53F54E28
:102460000C94C9198A3009F488C08B3051F78091D7
:102470008501813231F78091890190918A01892B00
:1024800001F78091E800877F8093E8000E94370879
:102490008091870180930A010E941F0BD2CF809107
:1024A0008501813A71F68091E800877F8093E8008A
:1024B0008091890190918A01892B61F060E080E030
:1024C00090E070E00E94DE078091E8008B778093B7
:1024D000E800B7CF68E08DE891E0F3CF8091850107
:1024E000813209F0AECF8091890190918A010297E3
:1024F00008F0A7CF8091E800877F8093E800809163
:10250000E80082FF18C09091F3008091F2000297DA
:1025100031F48091F100813011F0863021F4809106
:10252000F100809395018091E8008B778093E8001B
:102530000E94370886CF8091A4018111E0CF81CF1E
:1025400080918501813A09F07CCF80918901909139
:102550008A01892B09F075CF8091E800877F8093ED
:10256000E8008091E80080FFFCCF80910A01809311
:10257000F1008091E8008E77D9CF8091850181327A
:1025800009F05FCF8091E800877F8093E8000E9488
:102590003708809188018093810153CF8091850114
:1025A000813A09F04ECF8091E800877F8093E80060
:1025B0008091E80080FFFCCF80918101D8CF8038E6
:1025C00089F0823841F5809189018F70873018F544
:1025D0008093E9008091EB0085FB882780F91092B9
:1025E000E90006C0809182019091A301911182605F
:1025F0009091E800977F9093E8008093F10010920B
:10260000F1008091E8008E7723C0811116C080917F
:102610008701813011F18091E80083FF0AC0809129
:10262000E800877F8093E8008091EB0080628093D0
:10263000EB00AA96E3E00C94FA19823061F78091DE
:102640008701882389F01092E9008091E800877F54
:102650008093E8000E943708DECF81E0933009F0D4
:1026600080E08093A301EFCF809189018F702FEFDD
:10267000280F263080F68093E9002091EB0020FFA0
:10268000E2CF933031F48091EB0080628093EB00D5
:10269000DACF9091EB0090619093EB0021E030E075
:1026A000A90102C0440F551F8A95E2F74093EA0042
:1026B0001092EA008091EB008860E8CF8111ABCFE7
:1026C000109187011F778091E3008078812B8093A0
:1026D000E3008091E800877F8093E8000E9437083C
:1026E0008091E80080FFFCCF8091E30080688093B8
:1026F000E30083E0111101C082E08093A4018BCF3D
:102700008058823008F087CF40918701509188012E
:102710004C3D83E0580799F583E08A838AE28983F8
:102720004FB7F894DE01139620E03EE051E2E32F2C
:10273000F0E050935700849120FF03C082958F7082
:102740003F5F8F708A30C8F0895C90E08D939D93D5
:102750002F5F243161F74FBF8091E800877F80931E
:10276000E8006AE270E0CE0101960E94DE078091E7
:10277000E8008B778093E8004ECF805DE6CF209114
:10278000890130918A01852F99278330910509F1BC
:1027900060F48130910509F472C0029709F03BCFD3
:1027A0008BE390E0E6EAF1E029C08132910509F47B
:1027B0005AC0829709F02FCF2115310509F469C05D
:1027C0002130310509F027CF86EB90E0ECEAF0E00C
:1027D00015C0CA0199274130B1F18230910509F441
:1027E0003AC0892B09F017CFE3E2F2E0E4918E2F93
:1027F00090E0E3E2F2E0009709F40DCF2091E800C9
:10280000277F2093E80020918B0130918C01821763
:10281000930708F49C0140E02115310509F03EC002
:1028200041113CC08091E80082FDA1CF8091A401BC
:10283000882309F49CCF853009F499CF8091E80072
:1028400083FFF0CF94CFE9E0F2E0E4918E2F90E0A7
:10285000E9E0F2E0D0CFE3EFF1E0E4918E2F90E0F9
:10286000E3EFF1E0C8CF2115310571F021303105DA
:1028700009F0D1CE89E090E0E1EDF1E0BFCF82E157
:1028800090E0E1EEF1E0BACF89E090E0E8EBF1E032
:10289000B5CF84E490E0E2E6F1E0B0CF8091A4010E
:1028A000882309F464CF853009F461CF8091E80072
:1028B00083FD5DCF8091E80082FDB4CF8091E80078
:1028C00080FFAACF9091F3008091F200211531058D
:1028D00019F08830910550F041E0089709F040E088
:1028E0008091E8008E778093E80096CF44914093E2
:1028F000F1003196215031090196E8CF803809F076
:102900008ACE8091E800877F8093E80080918301E0
:102910008093F10076CE81117ECE10918701123026
:1029200008F079CE8091E800877F8093E8001093CB
:1029300083010E943708112381F084E08093A40171
:1029400042E061EC81E00E94A60842E261EC82E094
:102950000E94A6088091A4015ECE8091E30087FDCD
:10296000ECCF81E0EBCFA8E0B0E0E9EBF4E10C9430
:10297000D319FE01319688E0DF011D928A95E9F7AF
:102980009BE0A92E91E0B92E8F012FE0E22E21E0ED
:10299000F22E3F01CC24C394D12CF50181915F012B
:1029A0008F3F09F447C0F894E82FE295EF70F0E00C
:1029B00021A18F70A60102C0440F551F8A95E2F72E
:1029C000CA01922F982B91A392A18095892382A36B
:1029D000789400C0EFE0F1E021E030E0812C912C10
:1029E00041914F3F09F44AC0A42FA295AF70A05E59
:1029F000B0E08C9190E04F7002C0959587954A9514
:102A0000E2F7817081113AC0C901882A992A220F00
:102A1000331F51E0EB31F50719F7F501319780814C
:102A20008F3F11F00E948D0580EA8A95F1F7D80159
:102A30008D929C920E5F1F4FEA14FB0409F0ADCFFC
:102A400048E050E0B3018AE991E00E946C1A892BBA
:102A5000C1F088E0F301AAE9B1E001900D928A95F6
:102A6000E1F781E080937E010E94B30690937D019F
:102A700080937C012896EEE00C94EF1980E090E0C2
:102A8000C4CF80917E018823A9F380917C0190912D
:102A90007D010E94BB07059768F348E050E06AE9B2
:102AA00071E085EA91E00E946C1A892B49F088E078
:102AB000EAE9F1E0A5EAB1E001900D928A95E1F72B
:102AC00010927E01D7CFCDB7DEB72A970FB6F89414
:102AD000DEBF0FBECDBF85B7806885BF85B7806874
:102AE00085BF84B7877F84BF0FB6F894A89580917F
:102AF0006000886180936000109260000FBE80E8E3
:102B000090E00FB6F89480936100909361000FBE3F
:102B10008BE895E090935301809352010E948708BF
:102B20000E94DD088091E20084608093E200789446
:102B30008091A401882399F08091E9001091EC0024
:102B40001795112717958F70182B1092E900809117
:102B5000E80083FD0E9402121F701093E90082E0DA
:102B600084BD93E095BD9AEF97BD80936E0081E39D
:102B70000E948D0583E30E948D0582E30E948D05EE
:102B800086E30E948D050FE011E05BE1E52E51E048
:102B9000F52ED8018D918D018F3F11F00E948D058A
:102BA000E016F106B1F788E0E5EAF1E0DF01282F51
:102BB0001D922A95E9F7EAE9F1E0DF011D928A9575
:102BC000E9F780E090E00E94221A863E9E4F09F4C9
:102BD00066C066EE7EEF80E090E00E94561A60E0EC
:102BE00082E090E00E94381A81E090E09093120217
:102BF0008093110261E083E090E00E94381A60E067
:102C000074E184E090E00E94561A60E086E090E073
:102C10000E94381A6FEF87E090E00E94381A40E077
:102C200050E0BA0188E090E00E944A1A60E084E235
:102C300090E00E94381A60E087E190E00E94381A24
:102C400060E08CE090E00E94381A60E08DE090E057
:102C50000E94381A19821A821B821C821D821E82CF
:102C60001F82188648E050E068E170E0CE010196CE
:102C70000E94281A40E050E0BA0180E290E00E94F1
:102C80004A1A40E050E0BA018FE090E00E944A1AF0
:102C900040E050E0BA0183E190E00E944A1A82E0ED
:102CA00090E00E941A1A8093AD0184E090E00E94A7
:102CB000221A90931702809316020E94B314EFEF2A
:102CC000F6E721E0E150F0402040E1F700C00000CD
:102CD0000E94B3148091A50181FF08C06FEF7FEFC0
:102CE00080E090E00E94561A0E94CA0783E090E0BC
:102CF0000E941A1A90E00E94F30180E091E0909304
:102D0000E2018093E101CE01019648E1642E712C2D
:102D1000332433942224239489879A878091A401B1
:102D2000853049F48091A401853009F463C00E9484
:102D30001F0B0E94F9050E94B3142EEAA22E21E077
:102D4000B22E35EA832E31E0932ED401F501219184
:102D500031918D919D9141E0E63BF40709F49AC0D1
:102D600028173907A1F3512CD4010D911D914D0164
:102D7000F501C190D1905F01C016D10659F1C0266E
:102D8000D126412CEE24E394F12CC7018C219D2106
:102D9000892BB1F049825A820E94B3069C838B83AF
:102DA0002D8291E0970120233123232B09F490E019
:102DB0009E8349815A816B817C818D810E9459114A
:102DC0004394EE0CFF1CFCE04F12DFCFF50132976D
:102DD00011830083539424E05212C6CF8FB7F89426
:102DE0004091BA015091BB016091BC017091BD014D
:102DF0008FBF56C08091A401843011F11092A201BE
:102E000040E40FB6F894A895609260000FBE40931E
:102E1000600083B7817F846083BF83B7816083BF95
:102E20007894889583B78E7F83BF0FB6F894A89562
:102E300080916000886180936000109260000FBEF6
:102E40008091A301882309F46DCF0E94B314E5EAB1
:102E5000F1E081919191892B29F481E0ED3AF80715
:102E6000C1F760CF80E189BD82E189BD09B400FE70
:102E7000FDCF8091D8008F7D8093D8008091E000B5
:102E800082608093E0008091E00081FDFCCF0E9491
:102E90001F0B48CF2817390709F065CF0E94DF11B3
:102EA00086E0E6E0F2E0A985BA8501900D928A9568
:102EB000E1F7F09007020091080210910902D0900A
:102EC0000A02E0900B02109208021092090210927E
:102ED0000A0210920B02812F802B882379F08091B7
:102EE000B8019091B9010E94BB079C018091040236
:102EF000811151C02B30310508F053C08E2D8D2922
:102F0000882379F08091B6019091B7010E94BB07A8
:102F10009C018091030281117DC02B30310508F0A6
:102F20007FC080910702F81216C0809108028823A2
:102F300011F0801310C090910902992311F0191318
:102F40000AC020910B02211106C020910A02211112
:102F500002C0892B81110E94BF0686E0E985FA85AF
:102F6000A6E0B2E001900D928A95E1F70E94F90582
:102F70009091BE01891709F4D1CE8093BE018FB71D
:102F8000F8944091BA015091BB016091BC017091DD
:102F9000BD018FBFC3CE2531310508F4AFCF8F3FC0
:102FA00019F08F5F80930402002359F00E94B4054A
:102FB0009FEF10160CF491E0899F802D11248093CF
:102FC0000802112359F00E94B40591E011160CF08B
:102FD0009FEF899F802D1124809309028091080220
:102FE000882309F48BCFC0900902CC2009F486CF46
:102FF0000E94A605811101C081E0809308028C2DFA
:103000000E94A605882319F08093090277CF309299
:10301000090274CF2135310508F483CF8F3F19F0B1
:103020008F5F80930302DD2059F00E94D4059FEF4B
:103030001D140CF491E0899F802D112480930A02C5
:10304000EE2059F00E94D40591E01E140CF09FEF81
:10305000899F802D112480930B0280910A0288237E
:1030600009F45FCFE0900B02EE2009F45ACF0E94E2
:10307000A605811101C081E080930A028E2D0E9475
:10308000A605882319F080930B024BCF30920B02D8
:1030900048CF1F921FB61F9211248F939F93AF9317
:1030A000BF938091A201811113C08091BA019091C8
:1030B000BB01A091BC01B091BD014196A11DB11D04
:1030C0008093BA019093BB01A093BC01B093BD0162
:1030D000BF91AF919F918F911F901FBE1F90189528
:1030E00078941F921FB61F9211248F939F93AF93D2
:1030F000BF938091BA019091BB01A091BC01B091A6
:10310000BD010196A11DB11D8093BA019093BB0131
:10311000A093BC01B093BD01BF91AF919F918F91DE
:103120001F901FBE1F9018951F920F920FB60F92FF
:1031300011242F933F934F935F936F937F938F93BC
:103140009F93AF93BF93EF93FF938091E10082FF32
:1031500009C08091E20082FF05C08091E1008B7F71
:103160008093E1008091DA0080FF24C08091D80034
:1031700080FF20C08091DA008E7F8093DA008091FA
:10318000D90080FF9BC080E189BD82E189BD09B47F
:1031900000FEFDCF81E08093A40180918401811124
:1031A00009C00E9487080E94DD088091E2008460C7
:1031B0008093E2008091E10080FF17C08091E200DF
:1031C00080FF13C08091E2008E7F8093E2008091A7
:1031D000E20080618093E2008091D8008062809359
:1031E000D80019BC85E08093A4018091E10084FFA0
:1031F00029C08091E20084FF25C080E189BD82E181
:1032000089BD09B400FEFDCF8091D8008F7D8093E9
:10321000D8008091E1008F7E8093E1008091E200F0
:103220008F7E8093E2008091E20081608093E200D3
:1032300080918301882309F447C084E08093A4012E
:103240008091A4018091E10083FF27C08091E2007A
:1032500083FF23C08091E100877F8093E10082E0BB
:103260008093A401109283018091E1008E7F80936E
:10327000E1008091E2008E7F8093E2008091E20085
:1032800080618093E20042E060E080E00E94A60856
:103290008091F00088608093F000FF91EF91BF91E2
:1032A000AF919F918F917F916F915F914F913F91DE
:1032B0002F910F900FBE0F901F90189519BC109270
:1032C000A4011092840176CF8091E30087FF02C0B1
:1032D00083E0B4CF81E0B2CF1F920F920FB60F926E
:1032E0001124FF920F931F932F933F934F935F935C
:1032F0006F937F938F939F93AF93BF93CF93DF93FE
:10330000EF93FF9309EE10E0F8018081C091EC008B
:10331000C795CC27C7958F70FC2EF82A1082C0EF76
:10332000D0E08881877F888378940E940212F80118
:103330001082888188608883CF2DCF70C083FF91F1
:10334000EF91DF91CF91BF91AF919F918F917F913D
:103350006F915F914F913F912F911F910F91FF902E
:103360000F900FBE0F901F90189597FB072E16F425
:10337000009407D077FD09D00E94061A07FC05D0FB
:103380003EF4909581959F4F0895709561957F4F7C
:103390000895EE0FFF1F0590F491E02D09942F92F0
:1033A0003F924F925F926F927F928F929F92AF92D5
:1033B000BF92CF92DF92EF92FF920F931F93CF9322
:1033C000DF93CDB7DEB7CA1BDB0B0FB6F894DEBFB9
:1033D0000FBECDBF09942A88398848885F846E84DF
:1033E0007D848C849B84AA84B984C884DF80EE8029
:1033F000FD800C811B81AA81B981CE0FD11D0FB632
:10340000F894DEBF0FBECDBFED010895AA1BBB1B14
:1034100051E107C0AA1FBB1FA617B70710F0A61BD4
:10342000B70B881F991F5A95A9F780959095BC01F5
:10343000CD010895F999FECF92BD81BDF89A9927E3
:1034400080B50895A8E1B0E042E050E00C945E1A27
:10345000DC01A40FB51F4150504048F0CB01840F50
:10346000951F2E910E94391A41505040D0F708956F
:10347000262FF999FECF92BD81BDF89A019700B42D
:10348000021639F01FBA20BD0FB6F894FA9AF99ACD
:103490000FBE08950396272F0E94391A0E94381AEA
:1034A000252F0E94391A242F0C94391A0196272FA0
:1034B0000E94391A0C94381ADC01CB01FC01F999ED
:1034C000FECF06C0F2BDE1BDF89A319600B40D9270
:1034D00041505040B8F70895FB01DC0104C08D91C4
:1034E0000190801921F441505040C8F7881B990B76
:1034F0000895F894FFCF1007130719072E072E071A
:103500002E072E072E072E072E072E071C07210732
:1035100025072B073C0742074607A00BA40B800B8F
:103520009C0BA80BAC0BB00B200C8B0C280CF20BDB
:10353000F60B2C0CFA0B300C3C0C060C840C0A0C11
:10354000400C0E0C440C6C0C120C480C730C180C38
:103550004E0C560CFE0B340C020C380C1C0C520C8E
:10356000620C7C0C820CEC0B240C920C440D440D70
:103570007B0D7B0D120E2F0EA50DA50D340EC00E6A
:10358000D10ED10EDF1205130B1305130B135E13AF
:0835900080130B137E148B1451
:10359800DB0776098D0994099B090131333236918D
:1035A800946697C63435F4F5F6F790E200E900EA38
:1035B80000B500B600B700CD008301CC008A0192A7
:1035C8000194012102230224022502260227022A4D
:1035D80002B300B4006F0070009F01CB019F02A0EE
:0235E8000200DF
:00000001FF
