:100000000C9494020C94B1020C94B1020C94B102C1
:100010000C94B1020C94B1020C94B1020C94B10294
:100020000C94B1020C94B1020C943C1B0C94141C63
:100030000C94F11A0C94B1020C94B1020C94B1021C
:100040000C94B1020C94B1020C94B1020C94B10264
:100050000C94B1020C94181B0C94B1020C94B102D4
:100060000C94B1020C94B1020C94B1020C94B10244
:100070000C94B1020C94B1020C94B1020C94B10234
:100080000C94B1020C94B1020C94B1020C94B10224
:100090000C94B1020C94B1020C94B1020C94B10214
:1000A0000C94B1020C94B1020C94B1020501090246
:1000B000A10185020901A1000509190129081500FE
:1000C0002501950875018102050109300931158165
:1000D000257F95027508810609381581257F9501D0
:1000E00075088106050C0A38021581257F95017572
:1000F000088106C0C005010980A101850319012AF4
:10010000B700150126B700950175108100C0050CD8
:100110000901A101850419012AA002150126A002E6
:10012000950175108100C005010906A1018506052C
:100130000719E029E71500250195087501810205D9
:1001400007190029EF1500250195F07501810205B9
:10015000081901290595057501910295017503910D
:1001600001C005010906A101050719E029E71500ED
:100170002501950875018102950175088101050722
:10018000190029FF150026FF009506750881000556
:10019000081901290515002501950575019102959C
:1001A0000175039101C009023B00020100A0FA0998
:1001B0000400000103010100092111010001224492
:1001C0000007058103080001090401000103000084
:1001D0000009211101000122B60007058203200059
:1001E0000112010002000000084B5307000001014A
:1001F0000200011403530063006F00740074006F69
:100200000041006C00700000001803530063006F91
:1002100000740074006F004B00650065006200739D
:10022000000000040309042B0014001A0009001345
:10023000000A000D000F0018001C002A002A0028E8
:1002400000040015001600170007000B001100083D
:10025000000C0012003400E1001D221B00060019F2
:100260000005000E001000360037003832E50000AF
:100270000029000057E20000002C2800002B412834
:100280004229000000000001002D022D002E022E48
:100290000033023500BC00AE00BB004C0001000181
:1002A000002F02260227023002310229005000529C
:1002B0000051004F00010001002F223400340230B1
:1002C0000033003502AA00A800A900313201000065
:1002D0000001000100010000000100000001000118
:1002E0000001000000000001001E021F0220022188
:1002F00002220223022402250239002A0001000101
:10030000001E001F002000210022002300240025E1
:10031000002600270001000100E1000000000000AD
:100320000023520000000036003700383201000080
:1003300000010001000100000001000000010001B7
:1003400000010000000000010000000000000000AB
:100350000000000000000000000000045201000145
:10036000003A003B003C003D003E003F00400041A1
:1003700000420043000100010044000000000000B2
:100380007C010000000000000000004500010000AA
:100390000001000100010000000100000001000157
:1003A000000100000000002B0014001A00090013D7
:1003B000000A000D000F0018001C002A002A002867
:1003C00000040015001600170007000B00110008BC
:1003D000000C0012003400E1001D221B0006001971
:1003E0000005000E001000360037003832E500002E
:1003F0000029000157E00000002C0000002B4528D8
:100400004629000000000001002D022D002E022EC2
:100410000033023500BC00AE00BB004C00010001FF
:10042000002F02260227023002310229005000521A
:100430000051004F00010001002F2234003402302F
:100440000033003502AA00A800A9003132010000E3
:100450000001000100010000000100000001000196
:100460000001000000000001001E021F0220022106
:1004700002220223022402250239002A000100017F
:10048000001E001F00200021002200230024002560
:10049000002600270001000100E10000000000002C
:1004A00000275200000000360037003832010000FB
:1004B0000001000100010000000100000001000136
:1004C000000100000000000100000000000000002A
:1004D00000000000000000000000000052010001C8
:1004E000003A003B003C003D003E003F0040004120
:1004F0000042004300010001004400000000000031
:100500007C01000000000000000000450001000028
:1005100000010001000100000001000000010001D5
:10052000000100000000000011241FBECFEFDAE040
:10053000DEBFCDBF11E0A0E0B1E0E8EEFAE302C01B
:1005400005900D92A437B107D9F722E0A4E7B1E0F6
:1005500001C01D92A038B207E1F70E94E9170C9480
:10056000211D0C940000FC018281813041F48581C1
:1005700082FD0BC0982F917083E0891B0895823013
:1005800031F0833031F081E0089583E0089584E014
:10059000089585E00895892F81708860FB01099591
:1005A00008959093380280933702089590933A0209
:1005B00080933902089521E030E002C0220F331FFA
:1005C0008A95E2F78091390290913A02822B932B1F
:1005D0000E94D602089521E030E002C0220F331FAE
:1005E0008A95E2F7209530958091390290913A02F0
:1005F000822393230E94D6020895943098F58C307C
:1006000088F5E82FF0E08CE0989FE00DF11D1124B3
:100610008E2F877041E001C0440F8A95EAF783E08E
:10062000F695E7958A95E1F7EE0FFF1FEE0FFF1F96
:10063000E35FFD4F20E030E070E05191DF01119762
:10064000CB01022E02C0969587950A94E2F781703D
:1006500081958527842385278C932F5F3F4F2430F6
:10066000310559F70895943078F58C3068F5E82F06
:10067000F0E08CE0989FE00DF11D11249E2F977003
:1006800083E0F695E7958A95E1F7EE0FFF1FEE0FF1
:10069000FF1FE35FFD4F40E050E080E0219130E03C
:1006A000092E02C0369527950A94E2F72170332768
:1006B000042E01C0220F0A94EAF7822B4F5F5F4F8E
:1006C0004430510559F7089580E008958091400223
:1006D00090913F02981301C008958F5F8770FACF01
:1006E00090913B028095892380933B02282F2770AD
:1006F00021110DC0891759F090913D0292FF07C05A
:100700008695869586950E94EB0210923B0208958D
:100710008091340290913E02892B509135025523ED
:10072000C1F090910A019923A9F090913C0297FFA2
:1007300011C09DE120E831E040E0F90160812F5FC8
:100740003F4F61114F5F9150C0F741111092350238
:10075000852B089595E028E731E0EECF982F90950E
:100760008091340289238093340208957430B8F460
:100770006C30A8F48830B0F4E62FF0E09CE0799F6C
:10078000E00DF11D112490E3899FE00DF11D11246E
:10079000EE0FFF1FE95DFD4F85919491089580E074
:1007A00090E0089581E0FCCF803E9105D1F1C8F43E
:1007B0008133910509F47FC048F48932910509F429
:1007C0006FC08A32910509F47DC00895893391057F
:1007D000E1F082389105C9F08533910509F45BC0D9
:1007E0000895843E9105D1F148F4823E910531F19E
:1007F000833E910541F181EE90E00895863E91059A
:10080000C1F1873E9105E1F1089520913C022370EA
:10081000211165C020913D0223FF14C089E290E0C0
:10082000089520913C0220FD43C030913D0230FFED
:1008300009C024FF4EC080E090E0089520913C0262
:1008400022FDF7CF089520913C0222FD45C0309152
:100850003D0230FD44C024FFF5CFEDCF20913D0295
:1008600021FFF0CF80913C0284FDE5CF87EE90E040
:10087000089520913C0223FFE5CF24FDDCCFF6CF85
:1008800020913C0223FD2EC030913D0231FFE3CF89
:1008900084EE90E0089520913C0225FFD3CFBECF97
:1008A00020913C0225FD21C020913D0223FFCACFAB
:1008B00089E390E0089520913C0226FFC3CF8AE2AD
:1008C00090E0089520913C0226FFBCCF81E390E0A8
:1008D000089583EE90E0089582EE90E0089580EE12
:1008E00090E0089586EE90E0089585E390E0AACF29
:1008F00090913C0292FF10C041E0282F24712430D7
:1009000009F040E031E0282F2871283009F030E06C
:10091000431711F02CE0822793FF10C041E0282FED
:100920002471243109F040E031E0282F287128316A
:1009300009F030E0431711F02CE0822730913D029E
:1009400030FF10C051E0282F2171213009F050E014
:1009500041E0282F2871283009F040E0541711F0A9
:1009600029E0822731FF10C041E0282F2171213179
:1009700009F040E031E0282F2871283109F030E0FB
:10098000431711F029E0822794FD877E08951F9375
:10099000CF93DF930E94D403EC01811522E59207E7
:1009A00008F053C0811540E5940708F0DDC0803E93
:1009B0009105F8F48D3C910508F0AEC0883A910598
:1009C00080F4853A910508F099C08130910521F0B5
:1009D0000497813A910550F4CE01DF91CF911F9198
:1009E0000895885A91094B9708F48BC0C0E0D0E075
:1009F000F3CF811550E49507F8F4C11580E2D807CC
:100A000008F0CBC0C83ED10538F3CE019A958115C8
:100A10009F4160F78D2F0E947804182FCE019927EF
:100A20000E94D403212F30E0322F2227E901CC2766
:100A3000DF71C82BD92BD0CF99270E94D403CC27A4
:100A4000DF70C82BD92BD06AC7CF803842E5940716
:100A5000C8F5803652E5950708F067C0C03482E5D6
:100A6000D807B0F08C2F86958695877020E2829FFC
:100A7000C0011124C37021E030E0A90102C0440F7D
:100A8000551FCA95E2F7EA01C82BD92BDC68A4CF21
:100A9000C03252E5D50708F041C08C2F8695869567
:100AA00020E2829FC0011124C37021E030E0A9013F
:100AB00002C0440F551FCA95E2F7EA01C82BD92B93
:100AC000DD688ACF803C52E5950760F48F71C03AAB
:100AD000D24508F03FC090E0982F8827EC01C46F02
:100AE000D06A7ACF805C9245809708F07FCFDC2F68
:100AF000CC27CC27DF71C06FD06A6ECFA497D064AB
:100B00006BCFC85AD0E0CC0FDD1FC35CDE4F09901D
:100B1000D881C02DD46460CFD0655ECFCF71D0E0D6
:100B2000DC2FCC27C16FD06A57CF8695869587700A
:100B300020E2829FC0011124C37021E030E0A901AE
:100B400002C0440F551FCA95E2F7EA01C82BD92B02
:100B5000DA6842CF0E947804C82FD0E0DC2FCC277F
:100B6000CC27DF71D06238CF8F710E94780465E0A6
:100B7000D695C7956A95E1F7CF70D0E0DC2FCC27EA
:100B8000282F30E084FF05C054E0220F331F5A9510
:100B9000E1F7C22BD32BD0691FCF8D2F8F710E940D
:100BA0007804182FCE0199270E94D403212F30E01A
:100BB000322F222722273F71282B392BE901D2CF50
:100BC000A0E0B0E0E6EEF5E00C94801C8C01E09033
:100BD0003902F0903A028091370290913802E82A67
:100BE000F92ACFE0D0E0CC24C394D12CC6010C2E3E
:100BF00002C0880F991F0A94E2F78E219F21892B4A
:100C000049F4219798F7B12C8B2DCDB7DEB7E9E0E9
:100C10000C949C1CBC2EB8018C2F0E94B6030E9421
:100C2000C704019771F3F0CF0F931F93CF93FC018B
:100C3000858100811181882391F0662381F0C801AC
:100C40000E94E005C82F682FC8010E94FD02B8016C
:100C50008C2F0E94B603CF911F910F910895C80168
:100C60000E943303C82FF3CFCF93DF93D82FC92F20
:100C70000E94E0056D2F7C2F0E94B6030E94C704DE
:100C8000DF91CF910895FC0184818823A1F08081B8
:100C900091810E943406282F92959F70963091F092
:100CA00060F4925F9F70923030F481E0203F79F0E1
:100CB00030F4283E30F080E004C09A5FF3CF243F48
:100CC000D1F7089581E0283E18F0213FF9CF08952B
:100CD000089580E00895F894E82FE295EF70F0E031
:100CE00041A18F7021E030E0B90102C0660F771F8B
:100CF0008A95E2F7CB01962F9095942391A392A128
:100D0000892B82A378940895282F35EB2303C00103
:100D1000112497FF04C080589109892F08958058A5
:100D20009F4FFBCF8091270280FD14C081FD14C02E
:100D300082FD16C080912602882381F08E3180F4D6
:100D400020E5829FC00111246EE170E00E945D1CCD
:100D5000862F089584E1089588E2089588E0089533
:100D600080E508958091270280FD17C081FD17C09E
:100D700082FD19C080912502882399F0883298F469
:100D800028E0829FC001112468E270E00E945D1C8F
:100D90006115710551F0862F089562E0FCCF64E083
:100DA000FACF61E0F8CF68E0F6CF81E00895FA016C
:100DB000309709F009950895E0910302F09104023B
:100DC000309729F00190F081E02D0995089580E099
:100DD0000895A3E0B0E0EFEEF6E00C94871C9C01D0
:100DE0008091BA019091BB0182179307A1F03093D3
:100DF000BB012093BA01E0910302F0910402309705
:100E000051F083E089833B832A830084F185E02DC0
:100E1000CE01019609952396E2E00C94A31CA3E071
:100E2000B0E0E5E1F7E00C94871C9C018091B801EB
:100E30009091B90182179307A1F03093B9012093E3
:100E4000B801E0910302F0910402309751F084E080
:100E500089833B832A830084F185E02DCE010196AE
:100E600009952396E2E00C94A31C90910A01992322
:100E7000C1F090913C0297FF14C0E82FE695E695EB
:100E8000E695803FF8F4F0E0E258FE4F877021E0ED
:100E900030E001C0220F8A95EAF78281822B82839B
:100EA0000895A8E7B1E0EFEF90E02D91821751F09F
:100EB000EF3F19F4211101C0E92F9F5F9630A9F788
:100EC000EF3F09F408950E2E000CFF0BEA58FE4F79
:100ED000E6CF90910A019923E1F090913C0297FFAF
:100EE00018C0E82FE695E695E695803FF0F4F0E02F
:100EF000E258FE4F877021E030E0A90102C0440FA4
:100F0000551F8A95E2F7CA018095928189238283D1
:100F10000895E8E7F1E09191891303C0DF0111978B
:100F20001C9251E0EE37F507B1F708952FB7F8940A
:100F30008091DC019091DD01A091DE01B091DF0193
:100F40002FBF08950E94960720912A0230912B020C
:100F5000232B222321F08093DA019093DB0120914F
:100F60002C0230912D02232B222321F08093D801D3
:100F70009093D901E0910302F0910402309749F077
:100F800082E0809328020680F781E02D88E292E0DB
:100F90000995089520912A0290912D0230912C02FA
:100FA000662309F45AC040912B02242B292B232BB2
:100FB000222331F098E09093260291E0909325024D
:100FC0008D3C41F40E949206819580932B020E94F1
:100FD000A2070895E2E3E80FE231C8F7F0E0ED5D23
:100FE000F24E0C94711C0E949206EFCF0E94920662
:100FF000819580932A02EBCF0E949206FACF0E943D
:10100000B20680932C02E3CF0E94B2068195F9CFFD
:101010000E94B206819580932D02D9CF0E94B2061C
:10102000FACF815D990B21E030E001C0220F8A9553
:10103000EAF780912902822B80932902C8CF809100
:101040002702816080932702C2CF809127028260AD
:10105000F9CF809127028460F5CF8D3C59F48091BF
:101060002B0287FF0DC010922B02222359F41092FD
:10107000260208C08E3C81F480912B0218169CF346
:10108000222381F080912C0290912D02892B8111D5
:101090009ECF109225029BCF8F3C41F427FFF0CFCB
:1010A00010922A0280912B028823E0CF803D19F410
:1010B0001216B4F3E5CF893D29F413160CF71092FC
:1010C0002C02DECF8A3D19F437FFDACFF8CF8B3D03
:1010D00029F497FFD5CF10922D02D2CF8C3D19F471
:1010E0001916CCF3CDCF9FE2980F983090F4815D24
:1010F000990B41E050E0BA0102C0660F771F8A9554
:10110000E2F7CB01809590912902892380932902EF
:10111000B7CF8D3D31F4809127028E7F80932702D7
:10112000AFCF8E3D21F4809127028D7FF7CF8F3D89
:1011300009F0A6CF809127028B7FF0CF9C014FB79B
:10114000F8948091DC019091DD01A091DE01B091D5
:10115000DF014FBF821B930B089587E797E79093BA
:1011600001088093000888E19AE00FB6F894A895EA
:10117000809360000FBE90936000FFCF8091B70115
:101180000895FC019B018091AD019091AE018617FD
:10119000970740F0672B29F48091E8008E778093C1
:1011A000E800C90140E0009741F4411106C0809178
:1011B000E80082FF2FC080E008952091C60122231D
:1011C000A9F12530A9F12091E80023FD2DC020913F
:1011D000E80022FDECCF2091E80020FFE4CF309121
:1011E000F3002091F200009719F02830310558F0F3
:1011F00041E02830310509F040E02091E8002E77E9
:101200002093E800D0CF41914093F10001972F5FE8
:101210003F4FE9CF8091C601882341F0853041F0EE
:101220008091E80083FFC3CF81E0089582E00895B4
:1012300083E008958091A70187FF13C08091E800A3
:1012400082FF06C08091E8008B778093E80004C09D
:101250008091C6018111F2CF08958091C601882343
:10126000D9F38091E80080FFF8CF8091E8008E7775
:10127000ECCF2091E4003091E50095E6A901809142
:10128000EC008170882331F08091E80080FF06C077
:1012900080E008952091E80022FD1BC08091C601E6
:1012A000882391F0853091F08091EB0085FD10C08E
:1012B0002091E4003091E5004217530701F391506B
:1012C0009111DCCF84E0089582E0089583E00895D1
:1012D00081E00895E8EDF0E080818E7F80831092B8
:1012E000E2001092DA001092E100A0EEB0E08C91E2
:1012F00081608C9380818F77808319BCA7EDB0E0EB
:101300008C918E7F8C9380818F7E80831092A6013A
:1013100008959C01283282E4380779F050F42C3289
:1013200088E2380751F02B32314439F087E890E0F9
:101330000895375522303105C8F788EC90E00895BC
:10134000982FE42FE2709093E900891308C0762F5C
:10135000242F50E0E11111C091E0980FF4CF70916B
:10136000EC002091ED005091F00021FD06C09F5F40
:10137000973049F78093E90008953091EB003E7F64
:101380003093EB003091ED003D7F3093ED003091D4
:10139000EB0031603093EB007093EC002093ED0094
:1013A0005093F0002091EE0027FDE1CF0895A0E0DA
:1013B000B0E0EDEDF9E00C94811CC8EDD0E088813F
:1013C0008F7E8883E7EDF0E080818160808384E018
:1013D00082BF81E08093A60188818E7F888302EEA0
:1013E00010E0F80110821092DA0081EEC82ED12CA4
:1013F000F601108288818F7788838881806888834E
:1014000088818F7D888319BC1092C6011092A50136
:101410001092C5011092A40190EEE92EF12CF70173
:1014200080818B7F808388818160888342E060E057
:1014300080E00E94A009F60180818E7F8083F80100
:10144000808181608083808188608083F7018081D2
:101450008E7F8083888180618883CDB7DEB7E8E0A6
:101460000C949D1C0F931F93CF93DF93EB018A0184
:101470009091C601943079F58093E9008FEF9091B7
:10148000E80095FD07C095ED9A95F1F700008150B1
:101490008111F5CF8091E80085FF1DC00E943909B8
:1014A000811114C08091E80085FD06C08091E8009C
:1014B0008E778093E800F2CF88818093F10001500D
:1014C00011090115110511F02196ECCF8091E8006A
:1014D0008E778093E800DF91CF911F910F9108954F
:1014E000CF93DF93D82FC92F48E050E0682F792F92
:1014F00081E00E94320A88E0ED2FFC2FAFEAB1E0D4
:1015000001900D928A95E1F7DF91CF910895BC018A
:1015100040E250E082E00E94320A0895BC0146E0B9
:1015200050E082E00E94320A0895BC0143E050E09E
:1015300082E00E94320A089590913D0292FB222798
:1015400020F9281779F080FB92F990933D02609181
:101550003C0270913D0284E090E00E94FE1C82E01B
:101560000E947003089580910A01882359F18091A7
:101570003C0287FF27C00E94880380937F0140E2DE
:1015800050E063EE71E08EE791E00E94141D892B1C
:10159000C1F080E2EEE7F1E0A3EEB1E001900D9240
:1015A0008A95E1F7E0910302F0910402309749F047
:1015B00086E080937E010480F581E02D8EE791E046
:1015C000099508950E9488038093760148E050E0D1
:1015D00065E072E086E791E00E94141D892B89F393
:1015E00088E0E6E7F1E0A5E0B2E001900D928A958F
:1015F000E1F7E0910302F0910402309711F30280C9
:10160000F381E02D86E791E0DBCF882321F00E9473
:10161000AE030E94B30A0895882341F0809590910B
:101620003E02892380933E020E94B30A08958823D4
:1016300039F090913402892B809334020E94B30ACE
:101640000895882339F090913E02892B80933E02C1
:101650000E94B30A0895CF93C82F8823B1F18CEF6D
:101660008C0F813AA0F580910A01882301F18091C5
:101670003C0287FF1CC0EC2FE695E695E695F0E06E
:10168000E258FE4F828190E04C2F477021E030E01D
:1016900002C0220F331F4A95E2F782239323892B3E
:1016A00079F08C2F0E9469070E94B30A09C0E8E70D
:1016B000F1E08191C817A9F321E0EE37F207C9F7ED
:1016C0008C2F0E9435070E94B30ACF91089580E2C3
:1016D0008C0F883068F4C77081E090E001C0880FFB
:1016E000CA95EAF7C0913402C82BC0933402EBCFFD
:1016F0008BE58C0F833038F42C2F2452330BC90127
:101700000E94E906E2CFE8E5EC0FEB3150F4F0E09F
:10171000EE0FFF1FE35CFE4F808191810E940F0757
:10172000D4CF83E38C0F833180F661E08C2F0E944D
:10173000CA07CBCF882381F19CEF980F913A28F408
:101740000E9469070E94B30A089590E2980F9830AA
:1017500050F4877091E001C0990F8A95EAF7892FBC
:101760000E94AE03EFCF9BE5980F933028F480E002
:1017700090E00E94E906089598E5980F9B3128F4BF
:1017800080E090E00E940F07089593E3980F933153
:1017900018F460E00E94CA07089580912C018230FD
:1017A00041F0833019F489E20E949A0B10922C01C7
:1017B000089580EEF9CF80912C01823041F0833082
:1017C00019F489E20E949A0B10922C01089582EE7E
:1017D000F9CF0F931F93CF93DF93EC018B0161E25D
:1017E0007BE00E94CB028C2F0E942B0B0115110570
:1017F00069F48C2F0E949A0B6CE07BE0CE010E9472
:10180000CB02DF91CF911F910F9108958FE99FE057
:101810000197F1F700C0000001501109E7CF0E94C5
:10182000B30280932C01843079F028F4823051F097
:10183000833021F00895853071F0089589E20E9487
:101840002B0B089582EEFBCF83EE0E942B0B83EED1
:101850000E949A0B089560E070E087E398E00E9490
:10186000E90B08950E94B30280932C01843079F033
:1018700028F4823051F0833021F00895853071F0E2
:10188000089589E20E942B0B089580EEFBCF60E063
:1018900070E08CE298E00E94E90B089560E070E04F
:1018A0008CE299E0F8CFA0E0B0E0E9E5FCE00C9430
:1018B000821CD62E172FC42FD22F8823A9F0409335
:1018C00032020E9496079093A2018093A101C770F3
:1018D00081E001C0880FCA95EAF70E94170BCDB7C7
:1018E000DEB7E7E00C949E1C8091320248133DC0A5
:1018F0008091A1019091A2010E949E087C018D2DF2
:10190000912F0E948909E816F90678F5CD130FC0CA
:10191000802F0E942B0B802F0E949A0BD77081E0A2
:1019200001C0880FDA95EAF70E94050BD8CFC7707F
:1019300011E0812F01C0880FCA95EAF70E94050BBC
:1019400080E28D0F883050F48D2F877001C0110F09
:101950008A95EAF7812F0E94170BDACF802F0E9419
:101960002B0B802F0E949A0BBACFC77081E001C069
:10197000880FCA95EAF7D8CF1092340280910A01F5
:10198000882339F180913C0287FF23C0E0E8F1E031
:101990008EE1DF011D928A95E9F780E090E00E94D8
:1019A000E90680E090E00E940F0710923E020E943C
:1019B000B30A86E0E8E2F2E0DF011D928A95E9F7DA
:1019C0001092260210922502109227020E94A2076E
:1019D0000895E8E7F1E086E0DCCF0E94BC0C2FEF31
:1019E00084E39CE0215080409040E1F700C000007B
:1019F00088E19AE00FB6F894A895809360000FBE36
:101A000090936000FFCFAAE2B0E0E9E0FDE00C9423
:101A1000861C87EA91E0FC0101962091F100208369
:101A200021E08F3A9207B9F78091A801893009F433
:101A300056C0C8F4823009F4B2C0833009F481C0C2
:101A4000813071F18091E80083FFE6C08091A701A9
:101A50009091A8019A3008F0DFC0E92FF0E0EB5C2C
:101A6000F24E0C94711C8A3009F488C08B3051F707
:101A70008091A701813231F78091AB019091AC0147
:101A8000892B01F78091E800877F8093E8000E940E
:101A90001A098091A90180930A010E94BC0CD2CF3F
:101AA0008091A701813A71F68091E800877F809349
:101AB000E8008091AB019091AC01892B61F060E06E
:101AC00080E090E070E00E94C1088091E8008B7790
:101AD0008093E800B7CF68E08FEA91E0F3CF809180
:101AE000A701813209F0AECF8091AB019091AC019A
:101AF000029708F0A7CF8091E800877F8093E800E5
:101B00008091E80082FF18C09091F3008091F2006C
:101B1000029731F48091F100813011F0863021F488
:101B20008091F1008093B7018091E8008B778093DA
:101B3000E8000E941A0986CF8091C6018111E0CF8A
:101B400081CF8091A701813A09F07CCF8091AB01D0
:101B50009091AC01892B09F075CF8091E800877FC7
:101B60008093E8008091E80080FFFCCF80910A011B
:101B70008093F1008091E8008E77D9CF8091A70102
:101B8000813209F05FCF8091E800877F8093E80081
:101B90000E941A098091AA018093A30153CF8091DA
:101BA000A701813A09F04ECF8091E800877F8093AA
:101BB000E8008091E80080FFFCCF8091A301D8CF9E
:101BC000803889F0823841F58091AB018F70873081
:101BD00018F58093E9008091EB0085FB882780F958
:101BE0001092E90006C08091A4019091C501911165
:101BF00082609091E800977F9093E8008093F100D5
:101C00001092F1008091E8008E7723C0811116C0F8
:101C10008091A901813011F18091E80083FF0AC011
:101C20008091E800877F8093E8008091EB008062DC
:101C30008093EB00AA96E3E00C94A21C823061F73B
:101C40008091A901882389F01092E9008091E80031
:101C5000877F8093E8000E941A09DECF81E09330ED
:101C600009F080E08093C501EFCF8091AB018F70C8
:101C70002FEF280F263080F68093E9002091EB00AB
:101C800020FFE2CF933031F48091EB0080628093AB
:101C9000EB00DACF9091EB0090619093EB0021E0A4
:101CA00030E0A90102C0440F551F8A95E2F7409326
:101CB000EA001092EA008091EB008860E8CF811181
:101CC000ABCF1091A9011F778091E3008078812B21
:101CD0008093E3008091E800877F8093E8000E9472
:101CE0001A098091E80080FFFCCF8091E3008068B2
:101CF0008093E30083E0111101C082E08093C6016C
:101D00008BCF8058823008F087CF4091A901509145
:101D1000AA014C3D83E0580799F583E08A838AE263
:101D200089834FB7F894DE01139620E03EE051E23C
:101D3000E32FF0E050935700849120FF03C0829579
:101D40008F703F5F8F708A30C8F0895C90E08D9310
:101D50009D932F5F243161F74FBF8091E800877F0B
:101D60008093E8006AE270E0CE0101960E94C1080B
:101D70008091E8008B778093E8004ECF805DE6CFBE
:101D80002091AB013091AC01852F992783309105CB
:101D900009F160F48130910509F472C0029709F0ED
:101DA0003BCF8BE390E0E6EAF1E029C08132910578
:101DB00009F45AC0829709F02FCF2115310509F493
:101DC00069C02130310509F027CF86EB90E0ECEABD
:101DD000F0E015C0CA0199274130B1F18230910578
:101DE00009F43AC0892B09F017CFE3E2F2E0E4915D
:101DF0008E2F90E0E3E2F2E0009709F40DCF2091FE
:101E0000E800277F2093E8002091AD013091AE01DA
:101E10008217930708F49C0140E02115310509F071
:101E20003EC041113CC08091E80082FDA1CF80916D
:101E3000C601882309F49CCF853009F499CF80919D
:101E4000E80083FFF0CF94CFE9E0F2E0E4918E2F39
:101E500090E0E9E0F2E0D0CFE3EFF1E0E4918E2F03
:101E600090E0E3EFF1E0C8CF2115310571F02130AA
:101E7000310509F0D1CE89E090E0E1EDF1E0BFCF8E
:101E800082E190E0E1EEF1E0BACF89E090E0E8EBAA
:101E9000F1E0B5CF84E490E0E2E6F1E0B0CF8091EC
:101EA000C601882309F464CF853009F461CF80919D
:101EB000E80083FD5DCF8091E80082FDB4CF809182
:101EC000E80080FFAACF9091F3008091F2002115E5
:101ED000310519F08830910550F041E0089709F07C
:101EE00040E08091E8008E778093E80096CF44919F
:101EF0004093F1003196215031090196E8CF8038A6
:101F000009F08ACE8091E800877F8093E800809175
:101F1000A5018093F10076CE81117ECE1091A901AA
:101F2000123008F079CE8091E800877F8093E80036
:101F30001093A5010E941A09112381F084E0809377
:101F4000C60142E061EC81E00E94A00942E261EC3E
:101F500082E00E94A0098091C6015ECE8091E300DC
:101F600087FDECCF81E0EBCFCF93DF93EC014A8587
:101F70005B856E857F850E94D7069B8190958091B9
:101F80003E02892380933E028C810E94AE030E9410
:101F9000B30A86E0FE0111928A95E9F7DF91CF91AD
:101FA0000895CF93DF93EC018D8181FD17C082608E
:101FB0008D8380913E029B81892B80933E0280918C
:101FC00034029C81892B809334020E94B30A488595
:101FD00059856E857F85CE010E94D70610922F020B
:101FE00010922E028D8180FD03C0CE010E94B40F9D
:101FF000DF91CF910895A0E0B0E0E1E0F0E10C9432
:10200000811C7C01FC018481882309F424C161E0E6
:10201000C7010E941406EC01F7018581882319F19C
:1020200080912E0290912F020097E9F0C817D907EE
:10203000D1F0992724E0880F991F2A95E1F7FC0138
:10204000E05FFE4F208124602083855F9E4FFC016E
:10205000D183C0830E94D10F10923E0261E0C7017C
:102060000E941406EC01F70185819E013755FE019F
:102070002F3F310511F008F0CDC0FF2794E0EE0F9F
:10208000FF1F9A95E1F78F01055F1E4FE05FFE4F3E
:10209000908180FB90F99083882309F478C00E9496
:1020A00096079093310280933002F80182818F5F0E
:1020B000828380913E0290913402892B83838091A8
:1020C000350284834681578166857785C8010E94E1
:1020D000D706F801858181FD57C09C2F8D2F9093E5
:1020E0002E0280932F02F70185818111DDC0F70157
:1020F000858100811181882309F4F4C1C8010E94FF
:10210000E005C82F682FC8010E94FD02B8018C2F7E
:102110000E94B6030E94C704D82FC92FF701D580AB
:10212000C680C2948FE0C82280913B0287708823CA
:10213000F9F00D2DDD20E9F0892F807F803461F0EA
:1021400080E28D0F8830A0F0892F807E803221F4CC
:10215000D23070F0CC2061F080913D0282FF08C047
:1021600082E00E94700380913B02877001E0811140
:1021700000E0EC2FE295EF70C03C08F019C2F0E0EF
:10218000E15CF24E0C94711C90E080E0A8CFF80165
:102190004485558566857785C8010E94D706F80174
:1021A000858181FF0EC0C8010E94B40F80912E026C
:1021B00090912F02C817D90721F410922F02109284
:1021C0002E02F7018581882309F491CF1092320203
:1021D000CA353CE7D30709F481C108F065C1C130B5
:1021E0009CE7D90709F478C1C330ECE7DE0709F4AE
:1021F0006DC1C115DC4709F07ACF0E94BC0C8FEF8E
:1022000094E3ECE081509040E040E1F700C0000032
:102210000E94AD08E851FC47E730F10508F05DC0C9
:10222000E55BF24E0C94711C06E221EE41EE6AE190
:102230007CE70E94530C80913B028770882359F001
:10224000F7018581882339F080913D0282FF03C028
:1022500082E00E947003CDB7DEB7E8E00C949D1CCD
:1022600007E225EE45EE6BE17CE7E3CF06E221EEE7
:1022700040EE68E17CE7DDCF07E225EE44EE69E160
:102280007CE7D7CF06E221EE42EE6CE17CE7D1CFCE
:1022900007E225EE46EE6DE17CE7CBCF08E221E0D8
:1022A00045EE6EE17CE7C5CF10923202C6312CE7D5
:1022B000D20709F08DCF809134028A7A91E08111A2
:1022C00001C090E090933302882309F4E9C085E3CC
:1022D0000E9435070E94B30AAECF81110CC0C631EF
:1022E000DC4709F004CF809133028111DBC089E221
:1022F0000E946907EFCF10923202CE019057839768
:10230000A8F684E090E00E94CA1C90933D0280935E
:102310003C02FE01E150F047E232F10520F4EE5AB2
:10232000F24E0C94711C80913C02816080933C02BF
:1023300060913C0270913D0284E090E00E94FE1C9E
:102340000E94BC0C78CF80913D02886080933D0252
:10235000EFCF80913C028260E9CF80913C028460A3
:10236000E5CF80913C028860E1CF80913D028160A1
:10237000EDCF80913D028260E9CF80913C02806187
:10238000D5CF80913C028062D1CF80913C028064A5
:10239000CDCF0E94BC0C80913C028068C7CF809159
:1023A0003C028C60C3CF80913D028360CFCF80918F
:1023B0003C028E7FBBCF80913D02877FC7CF80914B
:1023C0003C028D7FB3CF80913C028B7FAFCF809159
:1023D0003C02877FABCF80913D028E7FB7CF80914B
:1023E0003D028D7FB3CF80913C028F7E9FCF809145
:1023F0003C028F7D9BCF80913C028F7B97CF0E94C8
:10240000BC0C80913C028F7791CF80913C02837FFE
:102410008DCF80913D028C7F99CF80913C0282FBD1
:10242000992790F921E0922790FB82F990FB83F99C
:102430007DCF80913D02982F909591708E7F892B52
:1024400090FB81F983CF90913C02892F8F7B96FF7F
:1024500080646CCF0E94BC0C90913C02892F97FB4A
:1024600087F9805863CF61E08EE090E00E94E01C25
:102470005FCF60E0F9CF90913C02892F8F7E94FF6F
:10248000806154CF90913C02892F8E7F90FF8160B4
:102490004DCF90913D02892F877F93FF886056CF63
:1024A00089E216CF85E324CFCB352CE7D207C1F0E4
:1024B000CC35DC4709F01BCE80913D0282FB88279A
:1024C00080F991E089270E949C0A11CE6FEF7FEF7F
:1024D00080E090E00E94FE1C0E94ED0C81E0F3CFB2
:1024E00080E0F1CFC8010E943303C82F0FCE1C2F0C
:1024F0001F70C03110F01295107FDD20B9F011234C
:1025000069F080E28D0F883010F0D11109C0809100
:102510003402812B809334020E94B30A8D2F40C075
:1025200080913E02812B80933E02F6CF8D2F0E9438
:102530009A0B1123E9F180E28D0F883010F0D11150
:1025400004C0812F0E94AE0306C0109580913E0208
:10255000812380933E020E94B30A2AC01C2F1F7061
:10256000C07FC03211F01295107FDD2349F0D130C9
:1025700009F46BC0DD2009F477C0CC20C9F1CECFBF
:1025800080913D0282FD30C0DD2069F0112339F0D9
:1025900080913402812B809334020E94B30A80E040
:1025A0000E942B0B05C080E00E949A0B1111C9CF2D
:1025B0000023A9F080913B0280FD11C0F701158234
:1025C0008695869586950E94DB02C7010E94FB0FC7
:1025D00080913B028695869586950E94EB0260E08D
:1025E000C7010E94140637CEDD2099F0C11004C047
:1025F000812F0E94170BDCCFF1E0CF12D9CF809151
:102600003502912F9823191799F2812B8093350267
:10261000CFCFC110CDCF812F0E94050B90913502F5
:10262000812F8923882329F0812F80958923809306
:10263000350280913602912F9823992309F4B8CF5F
:102640001095182310933602B3CFDD2029F025E032
:102650002C1508F4ADCFCCCF34E03C1508F4A8CF4E
:10266000812F0E94050BA4CFCC20D1F3D93349F49C
:102670008FEF97EEE3E081509040E040E1F700C03B
:1026800000008D2F0E949A0B93CF8C2F86958695F4
:102690008370882369F0813009F08ACF8D2F9C2FB9
:1026A0009370D11002C080E090E00E940F0780CFAD
:1026B0008D2F9C2F9370D11002C080E090E00E947B
:1026C000E90676CF6D2D8D2F0E94CA0771CF8C2F12
:1026D0008370811142C0D1102FC04D2F4295469575
:1026E0004770440F440F2D2F2F7030E0042E02C08E
:1026F000220F331F0A94E2F780E090E0D4FF09C074
:102700008FE090E002C0880F991F4A95E2F780950C
:102710009095C695C695C370C230B1F0C33089F0AC
:102720004091370250913802C13049F0822B932BEF
:10273000842395230E94D1020E94DC0639CF242BEA
:10274000352B822B932BF6CF822B932B20913702A4
:102750003091380282279327EDCFDD2091F1C0FF21
:10276000EBCF4D2F429546954770440F440F2D2FC8
:102770002F7030E0042E02C0220F331F0A94E2F7BC
:1027800080E090E0D4FF09C08FE090E002C0880FA5
:10279000991F4A95E2F780959095C695C695C370A6
:1027A000C230C1F0C33099F04091390250913A02E1
:1027B000C13059F0822B932B842395230E94D6029B
:1027C000BBCF823008F4B8CFCCCF242B352B822B53
:1027D000932BF4CF822B932B2091390230913A0224
:1027E00082279327EBCFCF70DD2039F08C2F0E940A
:1027F000DB028D2F0E94170B9FCF8D2F0E94050BA0
:102800008C2F0E94EB0298CFD23FA1F178F4D03FF9
:10281000C1F0D13F09F447C0DD2009F46BC0CC20E2
:1028200009F465C08D2F0E942B0B86CFD33F49F151
:10283000D43FA9F1D110F3CFC1106AC08C2F8F7192
:10284000E0CFDD20A1F0F4E0FC1508F475CFCF71E6
:1028500081E090E09C0102C0220F331FCA95E2F78D
:102860008091390290913A0282279327A7CF35E0D1
:10287000C316EBCF8C2F8F71D110C3CF0E94DB0218
:102880005BCF80E090E0DD2009F498CFCF7181E04C
:1028900090E002C0880F991FCA95E2F78FCF809110
:1028A0003D0282FD06C08C2F8F71DD2009F4A9CF77
:1028B000E5CFDD2089F0CF718C2F0E94DB02809163
:1028C0003D0282FF07C0E8E0CE9FC0011124836073
:1028D00080933B028C2FD2CF81E00E947003F1E005
:1028E000FC1508F029CF82E00E94700325CF8C2FC1
:1028F0008F71C4CFCC2009F4A1CFD93349F42FEF85
:1029000037EE83E0215030408040E1F700C0000006
:102910008D2F0E949A0B10CFA0E0B0E0E2E9F4E125
:102920000C94821C80917F02803108F049C0809114
:102930007E02882309F444C0C091400287E0D82E6B
:1029400080913F028C17E1F1EC2EF12CDC9EE0012E
:102950001124FE01EF5BFD4F84818823B1F1918149
:1029600080917A02981331C09081809179029813F6
:102970002CC08581811129C00281138180917B0245
:1029800090917C02081B190B60E089E792E00E949D
:1029900014060E94890908171907B8F480917F026C
:1029A0008F70806180937F02C95BDD4F88818F705B
:1029B0008061888389E792E00E94FB0F0E94660392
:1029C000CDB7DEB7E7E00C949E1CE7012196C770F7
:1029D000B7CFADE0B0E0EFEEF4E10C947A1C8C01DF
:1029E00086E0F801DE01189601900D928A95E1F7D4
:1029F000D8017C901196CC90119715966C901597F4
:102A00001296ED90FC90139714965C9089E7A82E8F
:102A100082E0B82E80917D02811120C05520D9F02E
:102A2000662009F473C1C8010E944306882309F493
:102A30006DC187E0F801D50101900D928A95E1F70B
:102A4000B1E05B1206C08091790290917A020E94F7
:102A500034060E948C14FF24F3943AC0D0907E0276
:102A600080917B0290917C024701881A990A60E06C
:102A700089E792E0DD2009F406C10E9414060E9455
:102A800089098816990608F0DFC0552021F3809146
:102A90007F0220917A02F8019181803108F095C07F
:102AA000F62C29131AC0209179029081291315C0A0
:102AB000611085C08F70806180937F0289E792E00A
:102AC0000E94FB0F80917F02D80116968C93F12C07
:102AD0008F2D2D96EFE00C94961C611070C0E09144
:102AE000400280913F02AE2F97E0A81317C097E0F5
:102AF0008E1337C0888599850E943406292F229528
:102B00002F70903408F441C02A5F2F70223008F4EF
:102B100050C0C8010E94FB0FFD2CDACF2A2F30E0F5
:102B20009A9FD0011124AF5BBD4F11964C91119724
:102B3000C41207C04C91741204C015964C914111F7
:102B400004C0D9011196A770D0CF89E792E00E9406
:102B5000FB0F87E0E9E7F2E0DF011D928A95E9F7D4
:102B6000B6CF2E2F30E09E9FF0011124EF5BFD4F7A
:102B70004181C41206C04081741203C045814111D5
:102B8000A6CFF9013196E770B3CF9F70223038F0AD
:102B9000992351F0F8019681903130F499CF99231F
:102BA00019F0882309F494CF805E883008F490CF20
:102BB000B0CF803F08F48CCF815F8230F7CF809117
:102BC0007F02816080937F0282CF291316C02091FB
:102BD0007902D8019081291310C061100EC0169699
:102BE0008C93C8010E94FB0F87E0F801A9E7B2E0CF
:102BF00001900D928A95E1F72ECFC8010E944306FD
:102C0000882309F483C0662009F480C080917F0284
:102C1000803288F02091790230917A023A832983B8
:102C2000FC82EB8290917D029D831E828F83CE0178
:102C300001960E94FB0F87E0F801A9E7B2E001903E
:102C40000D928A95E1F705CF80917F02803108F4DB
:102C50007CCF552009F4FFCE20917A02F8019181B2
:102C60002913CBCF2091790290812913C6CF61100F
:102C7000C4CF8683C8010E94FB0F87E0D5011D9257
:102C80008A95E9F7E8CE0E9414060E948909881601
:102C9000990608F03FC0552009F4DDCE6620B1F159
:102CA00090917A02F8018181981326C0909179025F
:102CB0008081981321C080917B0290917C02E81A58
:102CC000F90AF7E8EF16F10408F08ECF80917F0241
:102CD00080FD8ACF803108F487CFD80116968C9377
:102CE0001697982F907F903F09F47BCF982F907F75
:102CF000905F8F70892B73CFC8010E9443068111AA
:102D00009ACF80917F02816080937F02C8010E94E8
:102D1000FB0FA1CE87E0F50111928A95E9F7D7CE96
:102D2000ABE1B0E0E6E9F6E10C94861C4E8B5F8BDC
:102D3000688F798F8A8F9B8F911110923E021D8A26
:102D400086E0FE017696DE011F9601900D928A952F
:102D5000E1F78B89882329F061E0CE010F960E946C
:102D6000140687E0FE013F96DE01189601900D9251
:102D70008A95E1F7CE0108960E94E91481112BC0D3
:102D800087E0FE013896DE01119601900D928A953A
:102D9000E1F720913F02409140028C858823D9F0D1
:102DA00030E0C90101968770992750E08417950794
:102DB000E9F097E0929FD001939FB00D1124AF5B93
:102DC000BD4FFE01319601900D929A95E1F78093E7
:102DD0003F020E94660317E08091400290913F02FB
:102DE000891312C06B96E3E00C94A21C0E94BC0CE9
:102DF00010923F021092400287E0E9E7F2E0DF0123
:102E00001D928A95E9F7E7CF189FC00111248F5BC7
:102E10009D4F0E94E914882329F38091400290E09D
:102E200001968770992780934002D6CFA6E0B0E044
:102E3000ECE1F7E10C94851C0E9496078C018091CF
:102E4000E1019091E2018017910779F019821A82CD
:102E50000E949607BC0149815A8180E090E00E945F
:102E600090161093E2010093E1012696E4E00C94A1
:102E7000A11CA8E0B0E0EFE3F7E10C947B1CFE019D
:102E8000319688E0DF011D928A95E9F79DE2A92E2F
:102E900091E0B92E8F0121E3E22E21E0F22E3F01D5
:102EA000CC24C394D12CF50181915F018F3F09F4AB
:102EB00047C0F894E82FE295EF70F0E021A18F7001
:102EC000A60102C0440F551F8A95E2F7CA01922F4E
:102ED000982B91A392A18095892382A3789400C016
:102EE000E1E3F1E021E030E0812C912C41914F3F72
:102EF00009F44AC0A42FA295AF70A05EB0E08C91F7
:102F000090E04F7002C0959587954A95E2F78170E1
:102F100081113AC0C901882A992A220F331F51E032
:102F2000ED33F50719F7F501319780818F3F11F0E7
:102F30000E946B0680EA8A95F1F7D8018D929C92E7
:102F40000E5F1F4FEA14FB0409F0ADCF48E050E0DC
:102F5000B3018CEB91E00E94141D892BC1F088E035
:102F6000F301ACEBB1E001900D928A95E1F781E0BD
:102F70008093A0010E94960790939F0180939E01E9
:102F80002896EEE00C94971C80E090E0C4CF8091EE
:102F9000A0018823A9F380919E0190919F010E9436
:102FA0009E08059768F348E050E06CEB71E087EC11
:102FB00091E00E94141D892B49F088E0ECEBF1E0D0
:102FC000A7ECB1E001900D928A95E1F71092A00173
:102FD000D7CFCDB7DEB72A970FB6F894DEBF0FBEB6
:102FE000CDBF85B7806885BF85B7806885BF84B74A
:102FF000877F84BF0FB6F894A895809160008861A0
:1030000080936000109260000FBE80E890E00FB6E1
:10301000F89480936100909361000FBE89E696E07A
:1030200090937501809374010E946A090E94D709E8
:103030008091E20084608093E20078948091C601E0
:10304000882399F08091E9001091EC0017951127E1
:1030500017958F70182B1092E9008091E80083FD7E
:103060000E94030D1F701093E90082E084BD93E07D
:1030700095BD9AEF97BD80936E0081E30E946B0629
:1030800083E30E946B0682E30E946B0686E30E9444
:103090006B0601E311E0D8018D918D018F3F11F096
:1030A0000E946B06B1E00D331B07A9F788E0E7EC3F
:1030B000F1E0DF01282F1D922A95E9F7ECEBF1E012
:1030C000DF011D928A95E9F780E090E00E94CA1C1A
:1030D000863E9E4F09F466C066EE7EEF80E090E08B
:1030E0000E94FE1C60E082E090E00E94E01C81E013
:1030F00090E0909338028093370261E083E090E0A3
:103100000E94E01C60E074E184E090E00E94FE1CFC
:1031100060E086E090E00E94E01C6FEF87E090E0C6
:103120000E94E01C40E050E0BA0188E090E00E947C
:10313000F21C60E084E290E00E94E01C60E087E125
:1031400090E00E94E01C60E08CE090E00E94E01CB7
:1031500060E08DE090E00E94E01C19821A821B82E0
:103160001C821D821E821F82188648E050E068E1A2
:1031700070E0CE0101960E94D01C40E050E0BA0100
:1031800080E290E00E94F21C40E050E0BA018FE043
:1031900090E00E94F21C40E050E0BA0183E190E030
:1031A0000E94F21C82E090E00E94C21C8093CF013A
:1031B00084E090E00E94CA1C90933D0280933C0200
:1031C0000E943917EFEFF6E721E0E150F040204090
:1031D000E1F700C000000E9439178091C70181FF0C
:1031E00008C06FEF7FEF80E090E00E94FE1C0E941D
:1031F000AD0883E090E00E94C21C90E00E94D102E2
:1032000080E091E09093040280930302CE01019646
:1032100078E1672E712C33243394222423948987F8
:103220009A878091C601853049F48091C601853026
:1032300009F463C00E94BC0C0E94DC060E9439178E
:1032400050EDA52E51E0B52E67EC862E61E0962E4E
:10325000D401F501219131918D919D9141E0E83D9D
:10326000F40709F49AC028173907A1F3512CD401A7
:103270000D911D914D01F501C190D1905F01C016D6
:10328000D10659F1C026D126412CEE24E394F12C2D
:10329000C6018E219F21892BB1F049825A820E945A
:1032A00096079C838B832D8291E098012E213F21EC
:1032B000232B09F490E09E8349815A816B817C81A4
:1032C0008D810E9490164394EE0CFF1CFCE04F127F
:1032D000DFCFF501329711830083539424E052121B
:1032E000C6CF8FB7F8944091DC015091DD01609119
:1032F000DE017091DF018FBF56C08091C60184301E
:1033000011F11092C40140E40FB6F894A8956092B0
:1033100060000FBE4093600083B7817F846083BFED
:1033200083B7816083BF7894889583B78E7F83BF8E
:103330000FB6F894A8958091600088618093600032
:10334000109260000FBE8091C501882309F46DCFF3
:103350000E943917E7ECF1E081919191892B29F4D2
:1033600081E0EF3CF807C1F760CF80E189BD82E1E1
:1033700089BD09B400FEFDCF8091D8008F7D809378
:10338000D8008091E00082608093E0008091E000AE
:1033900081FDFCCF0E94BC0C48CF2817390709F0EB
:1033A00065CF0E94161700912E0210912F02011571
:1033B0001105F1F080913002909131020E949E0837
:1033C0007C01C8010E9489098E159F0588F4C801F7
:1033D000992724E0880F991F2A95E1F7FC01E05F07
:1033E000FE4F208122FD04C0855F9E4F0E94D10FB9
:1033F00086E0E8E2F2E0A985BA8501900D928A950F
:10340000E1F7F090290200912A0210912B02D0904E
:103410002C02E0902D0210922A0210922B021092A0
:103420002C0210922D02812F802B882379F080911D
:10343000DA019091DB010E949E089C018091260296
:10344000811151C02B30310508F053C08E2D8D29CC
:10345000882379F08091D8019091D9010E949E082B
:103460009C018091250281117DC02B30310508F02F
:103470007FC080912902F81216C080912A02882309
:1034800011F0801310C090912B02992311F01913A1
:103490000AC020912D02211106C020912C02211179
:1034A00002C0892B81110E94A20786E0E985FA8576
:1034B000A8E2B2E001900D928A95E1F70E94DC0645
:1034C0009091E001891709F4ACCE8093E0018FB7A9
:1034D000F8944091DC015091DD016091DE01709122
:1034E000DF018FBF9ECE2531310508F4AFCF8F3F6E
:1034F00019F08F5F80932602002359F00E949206F4
:103500009FEF10160CF491E0899F802D1124809379
:103510002A02112359F00E94920691E011160CF034
:103520009FEF899F802D112480932B0280912A0286
:10353000882309F48BCFC0902B02CC2009F486CFCE
:103540000E948406811101C081E080932A028C2DA3
:103550000E948406882319F080932B0277CF309243
:103560002B0274CF2135310508F483CF8F3F19F03A
:103570008F5F80932502DD2059F00E94B2069FEFF5
:103580001D140CF491E0899F802D112480932C024E
:10359000EE2059F00E94B20691E01E140CF09FEF4D
:1035A000899F802D112480932D0280912C028823E5
:1035B00009F45FCFE0902D02EE2009F45ACF0E946B
:1035C0008406811101C081E080932C028E2D0E941F
:1035D0008406882319F080932D024BCF30922D0260
:1035E00048CF1F921FB61F9211248F939F93AF93C2
:1035F000BF938091C401811113C08091DC0190912F
:10360000DD01A091DE01B091DF014196A11DB11D48
:103610008093DC019093DD01A093DE01B093DF0184
:10362000BF91AF919F918F911F901FBE1F901895D2
:1036300078941F921FB61F9211248F939F93AF937C
:10364000BF938091DC019091DD01A091DE01B091EA
:10365000DF010196A11DB11D8093DC019093DD0176
:10366000A093DE01B093DF01BF91AF919F918F9145
:103670001F901FBE1F9018951F920F920FB60F92AA
:1036800011242F933F934F935F936F937F938F9367
:103690009F93AF93BF93EF93FF938091E10082FFDD
:1036A00009C08091E20082FF05C08091E1008B7F1C
:1036B0008093E1008091DA0080FF24C08091D800DF
:1036C00080FF20C08091DA008E7F8093DA008091A5
:1036D000D90080FF9BC080E189BD82E189BD09B42A
:1036E00000FEFDCF81E08093C6018091A60181118B
:1036F00009C00E946A090E94D7098091E200846093
:103700008093E2008091E10080FF17C08091E20089
:1037100080FF13C08091E2008E7F8093E200809151
:10372000E20080618093E2008091D8008062809303
:10373000D80019BC85E08093C6018091E10084FF28
:1037400029C08091E20084FF25C080E189BD82E12B
:1037500089BD09B400FEFDCF8091D8008F7D809394
:10376000D8008091E1008F7E8093E1008091E2009B
:103770008F7E8093E2008091E20081608093E2007E
:103780008091A501882309F447C084E08093C60195
:103790008091C6018091E10083FF27C08091E20003
:1037A00083FF23C08091E100877F8093E10082E066
:1037B0008093C6011092A5018091E1008E7F8093D5
:1037C000E1008091E2008E7F8093E2008091E20030
:1037D00080618093E20042E060E080E00E94A00906
:1037E0008091F00088608093F000FF91EF91BF918D
:1037F000AF919F918F917F916F915F914F913F9189
:103800002F910F900FBE0F901F90189519BC10921A
:10381000C6011092A60176CF8091E30087FF02C017
:1038200083E0B4CF81E0B2CF1F920F920FB60F9218
:103830001124FF920F931F932F933F934F935F9306
:103840006F937F938F939F93AF93BF93CF93DF93A8
:10385000EF93FF9309EE10E0F8018081C091EC0036
:10386000C795CC27C7958F70FC2EF82A1082C0EF21
:10387000D0E08881877F888378940E94030DF801C7
:103880001082888188608883CF2DCF70C083FF919C
:10389000EF91DF91CF91BF91AF919F918F917F91E8
:1038A0006F915F914F913F912F911F910F91FF90D9
:1038B0000F900FBE0F901F90189597FB072E16F4D0
:1038C000009407D077FD09D00E94AE1C07FC05D0FC
:1038D0003EF4909581959F4F0895709561957F4F27
:1038E0000895EE0FFF1F0590F491E02D09942F929B
:1038F0003F924F925F926F927F928F929F92AF9280
:10390000BF92CF92DF92EF92FF920F931F93CF93CC
:10391000DF93CDB7DEB7CA1BDB0B0FB6F894DEBF63
:103920000FBECDBF09942A88398848885F846E8489
:103930007D848C849B84AA84B984C884DF80EE80D3
:10394000FD800C811B81AA81B981CE0FD11D0FB6DC
:10395000F894DEBF0FBECDBFED010895AA1BBB1BBF
:1039600051E107C0AA1FBB1FA617B70710F0A61B7F
:10397000B70B881F991F5A95A9F780959095BC01A0
:10398000CD010895F999FECF92BD81BDF89A99278E
:1039900080B50895A8E1B0E042E050E00C94061D27
:1039A000DC01A40FB51F4150504048F0CB01840FFB
:1039B000951F2E910E94E11C41505040D0F7089570
:1039C000262FF999FECF92BD81BDF89A019700B4D8
:1039D000021639F01FBA20BD0FB6F894FA9AF99A78
:1039E0000FBE08950396272F0E94E11C0E94E01C41
:1039F000252F0E94E11C242F0C94E11C0196272FF7
:103A00000E94E11C0C94E01CDC01CB01FC01F99943
:103A1000FECF06C0F2BDE1BDF89A319600B40D921A
:103A200041505040B8F70895FB01DC0104C08D916E
:103A30000190801921F441505040C8F7881B990B20
:103A40000895F894FFCFF307F607FC071108110853
:103A5000110811081108110811081108FF070408BE
:103A600008080E081F0825082908E00D060E0C0E90
:103A7000060E0C0E5F0E810E0C0E7F0F8C0F771250
:103A80007712AE12AE1245136213D812D812671312
:103A9000F3130414041436113C11141130114211A3
:103AA00048114E11D7114212DF11A911AD11E311C6
:103AB000B111E711F311BD113B12C111F711C5117D
:103AC000FB112312C911FF112A12CF1105120D1279
:103AD000B511EB11B911EF11D311091219123312EB
:083AE0003912A311DB11491298
:103AE800BE08700A870A8E0A950A010000000000C5
:103AF800000000320CCD0B000000000000000000A8
:103B08000000000F0CDB0B00000000010031333215
:103B18003691946697C63435F4F5F6F790E200E9E5
:103B280000EA00B500B600B700CD008301CC008ADA
:103B38000192019401210223022402250226022770
:103B4800022A02B300B4006F0070009F01CB019FEE
:043B580002A00200C5
:00000001FF
