:100000000C9451020C946E020C946E020C946E02CD
:100010000C946E020C946E020C946E020C946E02A0
:100020000C946E020C946E020C94A8200C947C210B
:100030000C94701B0C946E020C946E020C946E0265
:100040000C946E020C946E020C946E020C946E0270
:100050000C946E020C94131C0C946E020C946E02A1
:100060000C946E020C946E020C946E020C946E0250
:100070000C946E020C946E020C946E020C946E0240
:100080000C946E020C946E020C946E020C946E0230
:100090000C946E020C946E020C946E020C946E0220
:1000A0000C946E020C946E020C946E0214001A00F2
:1000B000090013000A000D000F0018001C002A00A0
:1000C000040015001600170007000B0011000800BF
:1000D0000C0012001D621B000600190005000E0036
:1000E000100036003700387200000057E2000000B0
:1000F0002C6800002B412842000000002D022D003A
:100100002E022E0033023500BC00AE00BB004C00B6
:100110002F0226022702300231022900500052002D
:1001200051004F002F62340034023000330035029A
:10013000AA00A800A900317200000057E2000000E8
:100140002C68000001000100000000001E021F02D8
:1001500020022102220223022402250239002A0061
:100160001E001F0020002100220023002400250083
:1001700026002700E10000000000000003510000FD
:10018000000036003700387200000057E20000001F
:100190002C680000010001000000000000000000C9
:1001A00000000000000000000000000000000450FB
:1001B0003A003B003C003D003E003F004000410053
:1001C00042004300440000000000005C0100000009
:1001D000000000000000450000000057E2000000A1
:1001E0002C680000010001000000000014001A004B
:1001F000090013000A000D000F0018001C002A005F
:10020000040015001600170007000B00110008007D
:100210000C0012001D621B000600190005000E00F4
:10022000100036003700387200000157E00000006F
:100230002C0000002B452846000000002D022D0058
:100240002E022E0033023500BC00AE00BB004C0075
:100250002F022602270230023102290050005200EC
:1002600051004F002F623400340230003300350259
:10027000AA00A800A900317200000157E0000000A8
:100280002C0000002B452846000000001E021F0223
:1002900020022102220223022402250239002A0020
:1002A0001E001F0020002100220023002400250042
:1002B00026002700E10000000000000007510000B8
:1002C000000036003700387200000157E0000000DF
:1002D0002C0000002B452846000000000000000014
:1002E00000000000000000000000000000000050BE
:1002F0003A003B003C003D003E003F004000410012
:1003000042004300440000000000005C01000000C7
:10031000000000000000450000000157E000000060
:100320002C0000002B452846000000001403530059
:1003300063006F00740074006F0041006C00700077
:10034000000016034A006F006500200053006300A0
:100350006F00740074006F000000040309040902B8
:100360003B00020100A0FA090400000103010100A2
:100370000921110100012240000705810308000145
:1003800009040100010300000009211101000122FC
:10039000B6000705820320000112010002000000E0
:1003A00008EDFE000000010102000105010902A1A3
:1003B0000185020901A10005091901290815002577
:1003C0000195087501810205010930093115812562
:1003D0007F95027508810609381581257F9501757D
:1003E000088106050C0A38021581257F95017508DC
:1003F0008106C0C005010980A101850319012AB742
:1004000000150126B700950175108100C0050C0983
:1004100001A101850419012AA002150126A0029557
:100420000175108100C005010906A10185060507B7
:1004300019E029E7150025019508750181020507D6
:10044000190029EF1500250195F0750181020508B5
:100450001901290595057501910295017503910111
:10046000C005010906A101050719E029E7150025C6
:10047000019508750181029501750881010507192B
:100480000029FF150026FF00950675088100050864
:1004900019012905950575019102950175039101D1
:1004A000C00011241FBECFEFDAE0DEBFCDBF11E0E8
:1004B000A0E0B1E0E6EBF8E402C005900D92A63AA8
:1004C000B107D9F722E0A6EAB1E001C01D92AB3F27
:1004D000B207E1F70E9403130C9443240C9400002C
:1004E00080911D01823041F0833019F489E20E942D
:1004F0001B0510921D01089580EEF9CF80911D011A
:10050000823041F0833019F489E20E941B05109279
:100510001D01089582EEF9CF823027E5920770F42D
:10052000811527E5920768F48B3221E4920749F0A0
:100530008832924431F087E890E008958C329846F2
:10054000D1F788EC90E00895FC019281913039F464
:10055000858182FD0AC080FF08C082E00895923044
:1005600031F0933031F485E0089583E0089584E01C
:10057000089581E008950E94A40280931D018330B4
:1005800049F018F4823051F00895843049F08530F4
:1005900061F0089589E20E94CF04089580EEFBCFB8
:1005A0008CE298E00E94770308958CE299E0FACFFC
:1005B0000E94A40280931D01833049F018F4823018
:1005C00051F00895843049F0853059F0089589E25A
:1005D0000E94CF04089582EEFBCF83EE0E94650552
:1005E000089587E398E00E94770308959C013A9567
:1005F00021153F4150F5FC01EE27F170BC01662743
:100600007270AC01442754709C012227387094FF0B
:100610000EC080E1EF2B09F480E0672B09F08062C7
:10062000452B09F08064232B89F08068089581E0D0
:10063000EF2B09F480E0672B09F08260452B09F06D
:100640008460232B19F08860089580E00895CF938B
:10065000DF93EB010E94F602FE010995DF91CF9135
:100660000895CF93DF93EC01805E9109089720F005
:1006700064EB77E0209711F46EE675E0CE010E94FE
:1006800027038C2F0E94CF04DF91CF910895CF9341
:10069000DF93EC010E941B05CE01805E9109089753
:1006A00020F06BEB77E0209711F465E775E0CE0161
:1006B0000E942703DF91CF9108950F931F93CF934B
:1006C000DF938C01EB010E943103209741F4C801B4
:1006D0000E944703DF91CF911F910F9108958FE9F9
:1006E0009FE00197F1F700C000002197EECF70E086
:1006F00060E08933910511F460E570E00E945D03CC
:10070000089581E0089581E008950E94830308958B
:1007100008950E9488030895A5E0B0E0E2E9F3E0BF
:100720000C94A02349835A833091AD0189819A8129
:10073000311119C0662399F0222389F00E943109F2
:10074000182F682F89819A810E940D0969817A8109
:10075000812F0E9464102596E3E00C94BC230E9434
:100760001F09182FF3CF0E94310969817A81F1CFD7
:10077000FC01262F408151816281738184810E9416
:100780008C03089581E00895CF93DF93EC0160E03E
:100790000E94B803BE010E948903DF91CF910895A2
:1007A0000E94A71108950E94AB11089508950E9418
:1007B000D8070E94D6032FEF84E39CE021508040AD
:1007C0009040E1F700C0000008950E94D7030E9406
:1007D000371C08950E94D7030E94481C08950F9368
:1007E0001F93CF93DF938C0161E00E94B803EC016B
:1007F000F8018281882319F0CE010E940A19B801FC
:10080000CE010E942C18B801CE010E9485038111EF
:1008100006C080E0DF91CF911F910F910895B8013C
:10082000CE010E944D188823A1F3B801CE010E9489
:100830009B17882371F3B801CE010E949415882379
:1008400041F3B801CE010E940217882311F3F80189
:100850008281882361F0CB35FDE5DF0701F158F493
:10086000C115ECE5DE0791F0CF3DDC4591F0C80104
:100870000E948103CFCFCD358DE5D80769F090F088
:10088000C83ADD45A1F70E94EA03C3CF0E94E50301
:10089000C0CF0E94980EF7CF0E94D60DE8CF0E94DD
:1008A000E00DE5CF0E94E40DE2CF0E944C1B0E94B8
:1008B000720408950E9476040E94511B08950895C1
:1008C0000E945F04089581E008950E9463040895E2
:1008D0000895CF93C82F0E9460048C2F0E94650456
:1008E000CF91089580E00E94690408950E94FD1947
:1008F0000E9469040895CF930E94FD19C82F80912A
:10090000A8018C1779F0C093A8010E94DC1B6093AA
:10091000A9017093AA018093AB019093AC018C2F35
:100920000E946904CF910895ABE0B0E0EAE9F4E0F9
:100930000C94A1234F83588769877A878B8761112D
:100940000E94210D1E821D8285E0FE013796DE0188
:10095000119601900D928A95E1F78C819D81892BEA
:1009600061F449815A816B817C818D819E810E94D5
:10097000470C2B96E2E00C94BD2389819A81892350
:100980008F3F79F3CE0101960E94C2038111E9CF16
:10099000F0CFFC01808191810E9463090895CF937B
:1009A000C82F8823B9F08CEF8C0F813AA8F46C2FF4
:1009B00080911E0190911F010E94721A882329F0D4
:1009C0008C2F0E94DE0C0E94420D8C2F0E94D60CB0
:1009D0000E94420DCF91089580E28C0F883048F438
:1009E000C77081E001C0880FCA95EAF70E94010D27
:1009F000EFCFEBE5EC0FE33040F4F0E0EC59FE4FC5
:100A0000808190E00E94321AE5CFE8E5EC0FE731F3
:100A100050F4F0E0EE0FFF1FEA5CFE4F8081918101
:100A20000E94481AD7CFCD3EA8F28C2F0E94871380
:100A30000E945A14CFCF882379F19CEF980F913AF6
:100A400028F40E94DE0C0E94420D089590E2980F57
:100A5000983050F4877091E001C0990F8A95EAF7B9
:100A6000892F0E94070DEFCF9BE5980F933028F454
:100A700090E080E00E94321A089598E5980F97312F
:100A800028F490E080E00E94481A08958D3E20F0FE
:100A90000E94E1130E945A1408951F93CF93DF938D
:100AA000182FEB010E94CF04209739F4812F0E9468
:100AB0001B05DF91CF911F9108958FE99FE001976A
:100AC000F1F700C000002197EFCF70E060E08933BC
:100AD00011F460E570E00E944D050895882321F02F
:100AE0000E94010D0E94420D0895882321F00E946A
:100AF000070D0E94420D0895B0E0A0E0E2E8F5E0A5
:100B00000C949A236C01D62FC72FFC01128105810A
:100B100002950F700E94F70CE82E8823B9F0E12EA1
:100B20001123A1F08C2F807F803421F080E28D0F83
:100B30008830C8F08091D90282FF15C082E00E94FF
:100B4000A50D0E94F70C91E0E82EE926BC2EB29488
:100B50009FE0B922FBE0FB15B8F1EB2DF0E0EB5B79
:100B6000FB4D0C947823E12CF1CF0C2F0F70C07F3C
:100B700011F00295007F112399F0002359F080E2D3
:100B80008D0F883010F0D11107C0802F0E94010D09
:100B90000E94420D8D2F5AC0802F0E94140DF8CF55
:100BA0008D2F0E941B05002379F080E28D0F883085
:100BB00010F0D11104C0802F0E94070D03C0802FB8
:100BC0000E941A0D0E94420DEB2DE850FF0B349746
:100BD00020F40E94FD190E946904EE2089F00E9411
:100BE000F30C80FD0DC0F60112820E94ED0C0E94F4
:100BF0006B08C6010E948A070E94ED0C0E947B08C8
:100C0000CDB7DEB7E9E00C94B6232C2F2F70F22E6F
:100C1000C07FC03219F0F29480EFF822DD2341F05A
:100C2000D130E9F1112309F445C00023E9F1B2CF35
:100C30008091D90282FD15C0112359F0FF2029F0BF
:100C40008F2D0E94010D0E94420D80E00E94CF0472
:100C5000BBCF80E00E941B05FF2009F4B5CF8F2D8C
:100C6000ABCF112381F0011106C00E94240D8F2902
:100C70000E946E05A9CF0130C1F70E94240D8F2973
:100C80000E942B0DA1CF011106C00E94380D8F2D9F
:100C90000E94750599CF013009F496CFF6CF112344
:100CA00029F0063008F090CF8F2DE2CF053008F004
:100CB0008BCFEDCF002359F3D93349F43FEF87EEC3
:100CC00093E0315080409040E1F700C000008D2F4C
:100CD0000E941B0579CF8C2F86958695837069F0CD
:100CE000813009F071CF8D2F9C2F9370111102C0AC
:100CF00090E080E00E94481A67CF8D2F9C2F937060
:100D0000111102C090E080E00E94321A5DCF8D2F59
:100D1000112329F00E9487130E945A1455CF0E9474
:100D2000E113FACF8C2F8370A1F511114DCF4D2F08
:100D3000429546954770440F440F2D2F2F7030E099
:100D4000042E02C0220F331F0A94E2F790E080E0E5
:100D5000D4FF09C08FE090E002C0880F991F4A9528
:100D6000E2F780959095C695C695C370822B932B1C
:100D7000C23049F058F4C13019F00E94390824CF2C
:100D80000E94300821CF0E9442081ECF0E942D08E9
:100D90001BCF8695112311F08C2F8170882309F4C5
:100DA00013CF4D2F429546954770440F440F2D2F7A
:100DB0002F7030E0042E02C0220F331F0A94E2F796
:100DC00090E080E0D4FF09C08FE090E002C0880F7F
:100DD000991F4A95E2F780959095C695C695C37080
:100DE000822B932BC23049F058F4C13019F00E9485
:100DF000A608EACE0E949D08E7CE0E94AF08E4CE86
:100E00000E945108E1CECF70112329F08C2F0E944F
:100E10006B088D2F2DCF8D2F0E9475058C2F0E9472
:100E20007B08D2CED23F41F160F4D03FB9F0D13F40
:100E300081F0112309F446C00111ACCE8C2F8F71C3
:100E40001FC0D33F01F1D43FA1F78091D90282FDA9
:100E500024C08C2F8F71112311F312C0112341F084
:100E6000053008F0B1CE8C2F8F710E948D08ACCE6A
:100E7000063008F0A9CEF7CF8C2F8F711111CFCF8C
:100E80000E946B08A1CE112329F08C2F8F710E9434
:100E90005F089ACE0E945A0897CE112349F0CF716D
:100EA0008C2F0E946B0863E08C2F0E94870D8CCEE4
:100EB00081E00E94A50D023008F486CE82E00E94F7
:100EC000A50D82CE002359F0D93309F000CFEFEF02
:100ED000F7EE23E0E150F0402040E1F7F6CE8C2F12
:100EE0008F719DCF0F931F93CF93DF93EC01688198
:100EF00079818A810E946E098C010E94B8080E9443
:100F00002C08B801CE010E947C05DF91CF911F9182
:100F10000F910895CF93DF93EC018B819C81892BF6
:100F200029F08881998189238F3F51F4DF91CF91F6
:100F30000895CE010E947207CE010E94C403F6CF2D
:100F4000CE010E94EF038111F4CF0E94F70C882399
:100F500069F38A81882351F38091D90282FFE6CF19
:100F600082E00E94A50DE2CF882321F00E94140D9B
:100F70000E94420D0895882321F00E941A0D0E94BC
:100F8000420D089590E080E00E94321A90E080E0E7
:100F90000E94481A0E94210D0E94420D0E94761460
:100FA0000E945A1408950E94E60C0E94C2070895F8
:100FB0000E940E0D0E94D307089592959F7096305F
:100FC00091F058F4925F9F70923058F4803F19F07E
:100FD00030F4883E30F481E008959A5FF4CF843F86
:100FE000D1F380E00895883EB0F3813FD1F7F3CF8D
:100FF000FC0183819481892B29F08081918189234F
:101000008F3F11F480E00895808191810E946309EF
:101010000E94DD070895A5E0B0E0E1E1F8E00C945E
:10102000A1232596E2E00C94BD23A6E0B0E0EBE11D
:10103000F8E00C94A1232696E2E00C94BD230895D9
:101040000E941F0808950E9420089093C501809374
:10105000C4010E94C207089508950E9423080895BC
:101060002091C4013091C501822B932B0E9423084B
:1010700008952091C4013091C501822393230E94D9
:10108000230808952091C4013091C5018227932738
:101090000E94230808950E941F0808950E944B088B
:1010A00008950E944E089093C3018093C2010E944C
:1010B000C207089590E080E00E945108089521E061
:1010C00030E0A90102C0440F551F8A95E2F7CA011A
:1010D0000E945108089521E030E002C0220F331F22
:1010E0008A95E2F78091C2019091C301822B932BE4
:1010F0000E945108089521E030E002C0220F331F02
:101100008A95E2F7209530958091C2019091C301B4
:10111000822393230E945108089521E030E002C009
:10112000220F331F8A95E2F78091C2019091C3018B
:10113000822793270E94510808952091C20130917F
:10114000C301822B932B0E94510808952091C20164
:101150003091C301822393230E9451080895209166
:10116000C2013091C301822793270E94510808953C
:101170000895262F277091E001C0990F2A95EAF76C
:1011800023E0769567952A95E1F7660F771F660F3E
:10119000771FFA01E60FF71F50E040E0682F70E07C
:1011A0008191DF0111979B01042E02C0369527958E
:1011B0000A94E2F7217021952827292328272C93C8
:1011C0004F5F5F4F4430510559F70895A82FA7701E
:1011D00023E0969587952A95E1F7880F991F880F48
:1011E000991FFB01E80FF91F50E040E080E02191DA
:1011F00030E00A2E02C0369527950A94E2F7217056
:101200003327042E01C0220F0A94EAF7822B4F5F86
:101210005F4F4430510559F70895262F943070F4EC
:101220008A3060F4682F70E08AE0989F600D711D2D
:1012300011244EEA51E0822F0E94B9080895292F07
:10124000943068F48A3058F490E06EEA71E03AE045
:10125000239F800D911D11240E94E608089580E0CF
:101260000895B0E0A0E0E7E3F9E00C949A237C0154
:101270000091C2011091C3018091C4019091C501F8
:10128000082B192BCFE0D0E0CC24C394D12CBC2E5A
:10129000C6010C2E02C0880F991F0A94E2F7802322
:1012A0009123892B49F4219790F7B12C8B2DCDB741
:1012B000DEB7E9E00C94B623B7018C2F0E947F10B3
:1012C000019789F3F3CFCF93DF93EC010E943109AB
:1012D000BE010E947F10DF91CF9108951F93CF939D
:1012E000DF93EB019091AD01992339F0CB010E947E
:1012F0006309DF91CF911F910895882369F0CB0195
:101300000E943109182F682FCE010E940D09BE01DD
:10131000812F0E947F10EDCFCB010E941F09182F53
:10132000F6CF1F93CF93DF93C091C60116E0809153
:10133000C7018C1304C0DF91CF911F910895D0E0B5
:101340001C9FF0011D9FF00D1124E853FE4F4081BA
:10135000518162817381848195810E941508219653
:10136000C770E5CF4091F8015091F9016091FA0101
:101370007091FB018091FC019091FD010E94150884
:1013800008952091C6019091C70156E0291302C02B
:1013900080E0089530E0529FF001539FF00D11243A
:1013A000E853FE4F7181761306C07081781303C035
:1013B0007281741304C02F5F3F4F2770E7CF81E025
:1013C0000895B0E0A0E0E7EEF9E00C949C23809152
:1013D000FD01807F09F055C08091FA01882309F44E
:1013E00050C0C091C60186E0D82E8091C7018C17ED
:1013F00009F447C02091FB013091FC01D0E0211598
:10140000310541F08091F8019091F901482F49236D
:101410004F3F19F42196C770E8CFDC9E8001DD9E16
:10142000100D1124F801E853FE4F41814913F2CF0A
:1014300090819813EFCF82818111ECCFE380F4800B
:10144000E21AF30A60E088EF91E00E94B80368EFC7
:1014500071E00E948C02E816F906E0F68091FD0129
:101460008F7080618093FD01F801E353FE4F80810E
:101470008F708061808388EF91E00E948A070E94CC
:101480009109CDB7DEB7E7E00C94B823A1E1B0E055
:10149000ECE4FAE00C9495238C0185E0F801DE0180
:1014A0001D9601900D928A95E1F7D8011296FC9055
:1014B00088EF882E81E0982E2091FB013091FC016D
:1014C0002115310541F08091F8019091F9018923AE
:1014D0008F3F09F08CC1F110FBC0C8010E948A0740
:1014E00073C0C114D10429F0872D86218F3F09F0E4
:1014F00005C180E0B82FB170CB2E80FF29C04F2DE1
:10150000672D862D0E94C109D82E811121C06D86BC
:101510007E868D859E850E946309292F22952F70D6
:10152000223050F0243078F49F7051F0F80195810A
:10153000907F31F4ED2C03C19F7011F08823D1F31B
:10154000805E8830B8F3C8010E948A07DC2CF2CF95
:10155000FF2009F4F4C08091FD0181608093FD01BA
:10156000E12CEDC0892B49F08091F8019091F901AF
:10157000282F29232F3F09F0E7C0C8010E94F80750
:10158000882309F4AACFFF2009F4A7CF8091FD0199
:10159000803270F02091F8013091F90138872F8363
:1015A0001986DB86CA868C87CE0107960E948A0739
:1015B00086E0F801A8EFB1E001900D928A95E1F77D
:1015C0000E94E1090E94B209EE24E394B8C02111FF
:1015D00012C07C2DD98AC88AA3016F2D89890E94E7
:1015E0000B0888EF91E00E948A0786E0F4011192CF
:1015F0008A95E9F749C18091FB019091FC01892B03
:1016000049F08091F8019091F901282F29232F3F6B
:1016100009F0B7C0C8010E94F807882309F45DCF1C
:10162000FF2009F45ACF8091FD01803208F2209109
:10163000F8013091F9013A8329831B82DD82CC8243
:101640008E83CE010196B2CF60E088EF91E00E94D8
:10165000B80368EF71E00E948C02A816B90650F535
:10166000EF2CFF2009F439CF8091FB019091FC0110
:10167000892B49F08091F8019091F901282F2923B5
:101680002F3F09F097C0C8010E94F807811190CF41
:101690008091FD0181608093FD01C8010E948A074D
:1016A0004EC086E0F801A8EFB1E001900D928A9556
:1016B000E1F745C07C2DD98AC88AA3016F2D89899D
:1016C0000E940B0886E0D4011D928A95E9F756C066
:1016D000C8010E94F807E82E882309F4FECE86E0B0
:1016E000F801A8EFB1E001900D928A95E1F788EF3B
:1016F00091E00E94C9040E94E10940C081E08F2569
:10170000F9CE81E08F25ABC0F801218129139EC05D
:10171000F801908198139AC0F11098C08091FD0152
:101720008F7080618093FD010E94B20988EF91E083
:101730000E948A078091FD01D80115968C938E2D09
:101740006196EEE00C94B123D80111962C912913E7
:1017500014CFD8019C91981310CFF1100ECF809127
:10176000FD0115968C93C8010E948A0786E0F80156
:10177000A8EFB1E001900D928A95E1F70E94B209BD
:10178000DECFF8012181291345CFD8019C91981310
:1017900041CFF1103FCF8091FD0115968C93C80188
:1017A0000E948A07E8EFF1E086E0DF011D928A954A
:1017B000E9F7C5CFD80111962C91291364CFF80110
:1017C0009081981360CF9091FD0190FD6ACF907F3A
:1017D00009F467CF8091FD018583903F09F4C3CF61
:1017E000982F907F905F8F70892B8583BCCFF801F5
:1017F00060807180C380D480E090FA015601A21A03
:10180000B30AEE2009F420CF60E088EF91E00E9457
:10181000B80368EF71E00E948C022091FD01207FE7
:10182000A816B90608F0D3CE8091FB019091FC0177
:10183000211198CEEF2C892B49F08091F8019091DD
:10184000F901282F29232F3F09F05ECFC114D104BD
:1018500029F0872D86218F3F09F053CF80E080FF4C
:1018600040CE4F2D672D862D0E94C109882309F493
:1018700038CE88EF91E00E948A0786E0E8EFF1E039
:10188000DF011D928A95E9F70E94B20969CEACE0AA
:10189000B0E0EDE4FCE00C94A0234F835887698707
:1018A0007A878B879C87CE0107960E94460A8823F9
:1018B00069F08A859B85892B39F04F815885842F63
:1018C00085238F3F09F06BC016E05FC086E0FE0104
:1018D0003796DE01119601900D928A95E1F78A857F
:1018E0009B85892B89F38F81988589238F3F61F3AD
:1018F0002091C70130E0C901019687709927409176
:10190000C6014817190671F40E94D8071092C70142
:101910001092C60186E0E8EFF1E0DF011D928A95A2
:10192000E9F7D2CF96E0929FD001939FB00D11249A
:10193000A853BE4FFE01319601900D929A95E1F7A2
:101940008093C7010E949109BFCF819FC0011124DC
:1019500088539E4F0E94460A8823E9F0E091C60111
:101960001E9FF0011124E853FE4F40815181628196
:101970007381848195810E9415088091C60190E051
:101980000196877099278093C6018091C601909136
:10199000C7018913DACF2C96E3E00C94BC23698548
:1019A0007A858B859C850E9415088ECF682F809143
:1019B0001E0190911F010E94F21A0895682F8091D4
:1019C0001E0190911F010E94001B089580911E012D
:1019D00090911F010E940E1B089580911E02859513
:1019E00085958595089580911E0287700895909140
:1019F0001E02977081E009F480E008958091410211
:101A0000089590914102892B809341020895809519
:101A100090914102982390934102089510924102BF
:101A2000089580914002089590914002892B8093FF
:101A3000400208958095909140029823909340022F
:101A4000089510924002089580911F02089508950C
:101A50000E94270D08959091D90292FF08C090919D
:101A60001F02981721F080931F020E94280D0895ED
:101A700080911F02882329F010921F0280E00E94AB
:101A8000280D0895CF93DF93E0911E01F0911F017F
:101A9000809141028083E0911E01F0911F018081BD
:101AA00090914002892B808390911F02992381F0AD
:101AB000E0911E01F0911F018081892B808380912C
:101AC0001E0190911F010E945E1A81110E94380D23
:101AD000C0911E01D0911F0140E250E06EEF71E015
:101AE000CE010E94EB23892B59F080E2FE01AEEF7C
:101AF000B1E001900D928A95E1F7CE010E940A1A99
:101B0000DF91CF91089508950E94830D08959091DB
:101B1000D90292FF11C098E0899F90011124622B95
:101B200060931E020E946B0880911E028595859528
:101B300085950E94840D08950E946B080895109267
:101B40001E0280E00E94840D089590911E028095EF
:101B5000892380931E02282F277091F4282F082EA6
:101B6000000C330B9217130659F09091D90292FF93
:101B700007C08595859585950E947B080E949F0DDD
:101B800008959091D90292FB222720F9281769F035
:101B900080FB92F99093D9028091D8029091D9025A
:101BA0000E94120E82E00E94A50D08958091D90234
:101BB00082FB882780F991E089270E94C10D089552
:101BC00081E00E94C10D089580E00E94C10D08953A
:101BD0006FEF7FEF90E080E00E942D24089590E069
:101BE00080E00E94092421E0883E9E4F09F020E019
:101BF000822F089582E090E00E940124089583E0FE
:101C000090E00E9401240895CF9384E090E00E9428
:101C10000124C82F82E290E00E940124982F8C2F8B
:101C2000CF910895CF93C92F682F84E090E00E9450
:101C30000F246C2F82E290E00E940F24CF91089530
:101C4000AB01BC018FE090E00E9421240895AB011C
:101C5000BC0183E190E00E942124089560E070E0DF
:101C6000CB010E94270E089560E070E0CB010E9436
:101C7000200E0E942E0E089568EE7EEF90E080E028
:101C80000E942D2460E082E090E00E940F2460E03A
:101C900083E090E00E940F241092C5011092C401CD
:101CA00060E084E090E00E940F2464E082E290E033
:101CB0000E940F2460E085E090E00E940F2460E025
:101CC00086E090E00E940F246FEF87E090E00E9492
:101CD0000F2440E050E0BA0188E090E00E94212407
:101CE00060E08DE090E00E940F2440E050E0BA01F7
:101CF00088E190E00E94212460E087E190E00E946A
:101D00000F2440E050E0BA018CE190E00E942124D1
:101D100070E060E080E290E00E942D2440E050E01E
:101D2000BA0188E190E00E9421240E94340E0895B7
:101D30000E943C0E0895682F8EE090E00E940F24D0
:101D400008950E94DC1B60935002709351028093AF
:101D500052029093530260934C0270934D02809311
:101D60004E0290934F020895089508950E94B50E73
:101D7000089508950E94B90E089589E691E10E94A0
:101D8000F3190E94B40E0E94B60E089581E00895E2
:101D90000E94C60E0895089508950E94CB0E0E94D9
:101DA000CC0E08950E9488110E94680408950E9434
:101DB000C71B0E9464120E94D20E0E94BA0E0895A0
:101DC0000E94A8180E941F190895AAE0B0E0EBEE47
:101DD000FEE00C9496230E947A1224E4822E22E0E4
:101DE000922E640110E0F601E190F1906F01812FD5
:101DF0000E94AE111F5F143009F449C0E816F906BD
:101E000091F38091540281FD0E94B7110E94C80E87
:101E1000782E10E0812F0E94AE117C01F401A19078
:101E2000B1904F018A159B0561F1A826BF2400E0FF
:101E3000CC24C394D12CC5018C219D21892BC1F0C8
:101E40007720B1F00E831F8321E0C7018C219D21F3
:101E5000892B09F420E028870E94D01B8160782F0D
:101E60009A8789874E815F8168858A850E9494045C
:101E70000F5FCC0CDD1C0A30F1F6F4013297F182D1
:101E8000E0821F5F143031F60E94A10E22C0E816D6
:101E9000F90609F0B6CF0E94D01B8C018091420256
:101EA0009091430208171907A1F08FEF89838A8365
:101EB0001B820E94D01B8160782F9D838C83498177
:101EC0005A816B818D810E94940410934302009388
:101ED00042020E94E00E0E9498140E947B042A96FF
:101EE000EDE00C94B223CF93DF930E948410EC01B9
:101EF000811521E5920708F042C0811530E593076E
:101F000008F09FC0883E910530F5803E910508F0AD
:101F100094C0883A910588F4853A910508F086C006
:101F20008130910509F489C0009709F486C00497AF
:101F300008F083C0D0E0C0E080C08F3B9105D0F7AF
:101F4000C85AD0E0CC0FDD1FC959DE4F0990D881A7
:101F5000C02DD46472C0811540E2940750F4C115BD
:101F600081E0D80708F069C0CD3ED10518F3D065EF
:101F700064C081159044F0F2DF70D06A5EC08115B4
:101F800035E5930718F5811544E5940708F085C0F9
:101F9000C11583E5D80708F06CC0C11522E5D2074A
:101FA00008F462C0CE018370992721E030E002C0BE
:101FB000220F331F8A95E2F7C695C69580E2C89F27
:101FC000E0011124C22BD32BDC6837C0811539E521
:101FD0009307A8F4811548E5940708F063C0C1157C
:101FE00086E5D80708F0A6CF8C2F0E942611C82FAF
:101FF000D0E0DC2FCC27CC27DF71D0621EC081154A
:102000002AE5920708F453C090568115904208F0D3
:1020100091CF8D2F8F710E94261190E0982F8827E5
:1020200088279F719C012C2BE901E7CFC55AD0E08E
:10203000CB56DE4FC881D0E0D064CE01DF91CF9186
:1020400008958370992721E030E002C0220F331FEA
:102050008A95E2F7C695C69540E2C49FE001112437
:10206000C22BD32BDD68E9CFDC2FCC27C16FD06A20
:10207000E4CFCE018370992721E030E002C0220F27
:10208000331F8A95E2F7C695C69540E2C49FE001EA
:102090001124C22BD32BDA68D0CFD82FCC27C46F12
:1020A000D06ACBCFD82FCC27C06FD06AC6CF8F7065
:1020B0000E94261134E0D695C7953A95E1F7CF7086
:1020C0009C2FEC01D069B9CF972F7430A8F46A30F7
:1020D00098F470E02AE0929F600D711D1124FB01BD
:1020E00098E2899FE00DF11D1124EE0FFF1FE455CA
:1020F000FF4F85919491089580E090E008950E94AB
:1021000064100E94730F089582389105B9F1B0F4FC
:102110008133910509F47DC048F48932910509F4B1
:102120006DC08A32910509F47BC00895853391050D
:1021300009F45FC08933910509F10895833E910543
:10214000D9F138F4803E910529F1823E910579F16B
:102150000895863E9105D9F1873E910509F43EC068
:10216000843E910541F52091D90221FF24C0809140
:10217000D80284FD19C087EE90E008952091D8021E
:10218000237009F05AC02091D90223FF14C089E2BC
:1021900090E008952091D80220FD38C03091D902F6
:1021A00030FF09C024FF43C090E080E008952091F3
:1021B000D80222FDF7CF08952091D80222FD3AC01F
:1021C0003091D90230FD39C024FFF5CFEDCF2091F9
:1021D000D80223FFF0CF24FDE7CFCDCF2091D80246
:1021E00023FD2EC03091D90231FFEECF84EE90E076
:1021F00008952091D80225FFDECFC9CF2091D802C3
:1022000025FD21C02091D90223FFD5CF89E390E09D
:10221000D2CF2091D80226FFCECF8AE290E0089557
:102220002091D80226FFC7CF81E390E0089583EE86
:1022300090E0089582EE90E0089580EE90E0089599
:1022400086EE90E0089585E390E008959091D8029D
:1022500092FF06C0282F28712830F9F4877F846008
:1022600093FF06C0282F28712831F1F4877E8461FE
:102270002091D90220FF06C0382F38713830D9F4A8
:10228000877F816021FF06C0282F28712831D1F473
:10229000877E816194FD877E0895282F24712430E4
:1022A000F9F68B7F8860DCCF282F2471243101F769
:1022B0008B7E8861DDCF382F3171313019F78E7FF9
:1022C0008860E0CF282F2171213121F78E7E88612F
:1022D000E1CF80E008950E94E80D08950E947A12EF
:1022E0002FEF86E791E0215080409040E1F700C059
:1022F00000000E947A1280E00E94AE1180FF04C0AC
:102300000E946B110E94371C08950E946E1108955F
:102310000E94EF0D811102C00E94980E0E94FA0DDA
:10232000809354020E94040E9093D9028093D802A5
:102330000E9485110E94FF0D90E00E942D0880915F
:10234000C2019091C3010E944E08089508950E9411
:10235000A611089508950E94AA110895E82FF0E0AB
:10236000EE0FFF1FEE51FD4F80819181089508957A
:1023700080EA8A95F1F7089500C008950E94B81187
:102380000895F894E82FE295EF70F0E031A1282F3E
:102390002F7081E090E001C0880F2A95EAF7982F0E
:1023A0009095932391A392A1892B82A37894089569
:1023B000CF93DF9381E30E94C11183E30E94C11197
:1023C00082E30E94C11186E30E94C111C8E9D1E0F5
:1023D00089918F3F11F00E94C11181E0C23AD80764
:1023E000B9F7DF91CF910895AF92BF92DF92EF924C
:1023F000FF920F931F93CF93DF938C01D62EC62F9E
:10240000D0E0CE018E559E4F7C01FC0120812F3FF4
:1024100009F44DC0F894E22FE295EF70F0E031A19D
:102420002F7081E090E001C0880F2A95EAF7932F82
:10243000982B91A392A18095892382A378940E94DE
:10244000BC11E8E9F1E042EA51E021E030E0B12CD2
:10245000A12C61916F3FA9F1A62FA295AF70B0E0BA
:1024600090968C9190E06F7002C0959587956A95D3
:10247000E2F780FD26C0C901A82AB92A220F331F1E
:102480004E175F0731F7F70180818F3F11F00E94EF
:10249000C11161E0A114B10409F460E08D2D0E9426
:1024A000BE11CC0FDD1FC00FD11FB982A882DF91F2
:1024B000CF911F910F91FF90EF90DF90BF90AF9061
:1024C000089590E080E0D8CF0E94D81188E0E2EE35
:1024D000F2E0DF01982F1D929A95E9F7EAEDF2E01C
:1024E000DF011D928A95E9F784E00E94B5120E94EF
:1024F000D0030895A8E0B0E0E0E8F2E10C949E2358
:102500008E010F5F1F4F88E0F80111928A95E9F75D
:10251000F12C6F2DC8010E94F411F394F4E0FF1226
:10252000F8CF48E050E0B8018AED92E00E94EB233A
:1025300021E0009709F420E0892B41F088E0F801C0
:10254000AAEDB2E001900D928A95E1F744E062EEC7
:1025500072E08AED92E00E94B612182F0E94D30317
:10256000812F2896E5E00C94BA230895CF92DF924C
:10257000EF92FF921F93CF93DF936C017B01C42FE7
:10258000222349F081E0809357020E94D01B909350
:102590005602809355021091570211110AC010E0A3
:1025A000812FDF91CF911F91FF90EF90DF90CF901F
:1025B000089580915502909156020E94E81B05975C
:1025C00070F3D0E0CC0FDD1FAE01B601C7010E9451
:1025D000EB23892B41F0AE01B601C7010E94F8231D
:1025E00010925702DDCF10E0FBCF0E94FE1D0E942B
:1025F000D70E0E940B1E08950E94101E0E94E50E29
:102600000E942A1E08950E94691B0E94E41D0E94D8
:10261000BD0E0E94F5120E94FC120E94CD0EFBCF4F
:1026200080915E0280FF0DC06091250170E0660F11
:10263000771F6038710570F56115710569F1862F96
:10264000089581FF07C06091250184E0689FB00173
:102650001124EFCF6091250182FD0AC080915D02B7
:102660008823A9F02091240160912501821710F0A0
:1026700088E0ECCF869FC001112433E0880F991FBA
:102680003A95E1F7622F70E00E942323D2CF68E0F1
:1026900070E0D5CF8FE7089581E0089580915E02C4
:1026A00080FF0CC06091210170E07595679575956C
:1026B00067956115710549F1862F089581FF06C060
:1026C0006091210170E075956795F3CF60912101CC
:1026D00082FD0BC090915C029923A1F060912001D2
:1026E00080912101961738F0682F70E060387105ED
:1026F00000F38FE70895899FC001112470E00E94C4
:102700002323F4CF61E070E0D7CF81E008958D3EC0
:1027100031F40E94101381958093620208958E3ED9
:1027200019F40E941013F8CF8F3E31F40E94101359
:102730008195809361020895803F19F40E941013DF
:10274000F8CF893F29F40E944E13809363020895C5
:102750008A3F21F40E944E138195F7CF8B3F31F4CD
:102760000E944E1381958093640208958C3F19F462
:102770000E944E13F8CF9FE0980F983070F4815F5D
:10278000990B21E030E001C0220F8A95EAF7809191
:102790006002822B8093600208958D3F31F4809116
:1027A0005E02816080935E0208958E3F21F48091E5
:1027B0005E028260F7CF8F3FB9F780915E0284603E
:1027C000F1CF409161028D3E59F48091620287FF02
:1027D0000DC01092620241110BC010925D0208C040
:1027E0008E3E81F48091620218169CF3442381F09E
:1027F0008091630290916402892B09F05AC0109273
:102800005C0208958F3E49F447FFF0CF10926102B9
:10281000809162028111ECCFE0CF803F19F4141651
:10282000ACF3E4CF90916302893F29F41916F4F6D2
:1028300010926302DBCF8A3F19F497FFD7CFF8CF0E
:10284000909164028B3F29F497FFD0CF10926402DD
:10285000CDCF8C3F19F41916CCF3C8CF9FE0980F59
:10286000983090F4815F990B21E030E0B90102C00B
:10287000660F771F8A95E2F7CB01809590916002F1
:10288000892380936002B2CF8D3F31F480915E0244
:102890008E7F80935E02AACF8E3F21F480915E02EC
:1028A0008D7FF7CF8F3F09F0A1CF80915E028B7FA4
:1028B000F0CF08950E94D01B9C01909161028091FD
:1028C0006202982B21F030935B0220935A02909180
:1028D000630280916402982B21F030935902209377
:1028E00058028FE592E00E94241A089586E0EFE5F1
:1028F000F2E0DF011D928A95E9F710925D021092D5
:102900005C0210925E020895FC01828181110EC06A
:10291000838181110BC08481811108C091E0858180
:10292000811101C090E0892F8170089581E0FCCF72
:10293000A6E0B0E0EEE9F4E10C94A02386E0EFE538
:10294000F2E0DE01119601900D928A95E1F7109266
:1029500061021092620210926302109264028B81F3
:102960009C81892B89F080915A0290915B020E9490
:10297000E81BAC0190915D029923C9F18091260179
:102980008417150608F440C08D819E81892B91F033
:1029900080915802909159020E94E81BAC019091DD
:1029A0005C02992309F471C08091220184171506F5
:1029B00008F479C0BE016F5F7F4F8FE592E00E94FF
:1029C000201B811105C08FE592E00E9484148111C3
:1029D0000E945A1486E0FE013196AFE5B2E0019004
:1029E0000D928A95E1F72696E3E00C94BC232091A2
:1029F00027018AE0289F900111242417350720F62B
:102A00009F5F90935D0202C09F3FD1F71B8111230E
:102A100059F00E9410139FEF11160CF491E0899F5A
:102A2000802D1124809361021C81112359F00E9492
:102A300010139FEF11160CF491E0899F802D112443
:102A40008093620230916102332309F49DCF20917B
:102A50006202222309F498CF45EB3403C00111240C
:102A6000992359F09093610245EB240390011124BE
:102A7000332339F03093620287CF81E08093610283
:102A8000F3CF81E0809362027FCF209123018AE01F
:102A9000289F900111242417350708F08BCF9F5FE2
:102AA00090935C0202C09F3FD1F71D81112359F022
:102AB0000E944E139FEF11160CF491E0899F802D18
:102AC0001124809363021E81112359F00E944E133A
:102AD0009FEF11160CF491E0899F802D11248093B3
:102AE000640230916302332309F464CF20916402BD
:102AF000222309F45FCF45EB3403C001112499234D
:102B000059F09093630245EB240390011124332381
:102B100039F0309364024ECF81E080936302F3CFAB
:102B200081E08093640246CFCF93DF93EC01FB01F9
:102B30008281882309F464C1C430FDE5DF07E0F534
:102B4000CB3F9CE5D90730F49E0122503C4524310F
:102B50003105D8F50E94040E9093D9028093D802D3
:102B6000C231ECE5DE0709F41FC108F06EC0C930C0
:102B70008CE5D80709F4F2C008F03FC0C530ECE599
:102B8000DE0709F4DBC058F5C3308CE5D80709F43B
:102B9000CDC008F0CFC08091D8028160C230DC4542
:102BA00009F4AEC08091D8029091D9020E94120E11
:102BB0000E94D80780E009C0C63AEDE5DE0751F271
:102BC00038F4C2369DE5D90729F2DF91CF910895F7
:102BD0009E012E5A3D4523303105B8F7BBCF809179
:102BE000D8028062C730FCE5DF0709F489C008F429
:102BF000B1C08091D802806483C0CD309CE5D907F4
:102C000009F4BAC070F48091D8028E7FCB30FCE515
:102C1000DF0709F475C008F4A7C08091D8028D7F42
:102C20006FC0CF309CE5D90709F4B6C008F4A8C03E
:102C3000C031FCE5DF0709F4B3C0C131DC4509F060
:102C4000B1CF8091D8028F7B5BC0C1159DE5D907BC
:102C500009F4B4C098F5CB3FFCE5DF0709F472C076
:102C6000B8F4C4319CE5D90709F4B6C008F4A2C091
:102C7000C531DC4509F096CF8091D80282FB9927B7
:102C800090F921E0922790FB82F990FB83F938C0FC
:102C9000CD3F8CE5D80709F477C008F457C0CE3F84
:102CA000ECE5DE0709F474C08091D9028360CF3F60
:102CB000DC4509F077CF8093D90274CFC2368DE519
:102CC000D80709F496C068F4C230EDE5DE0709F4D0
:102CD0008CC008F477C0C330DD4509F063CF80E0D5
:102CE00085C0CE3A9DE5D907E9F068F49091D80205
:102CF000892F8E7F90FF8160C63ADD4509F052CF63
:102D00008093D8024FCFCF3A8DE5D80789F1C03BE9
:102D1000DD4509F047CF9091D902892F877F93FF36
:102D20008860C9CF8091D9028860C5CF8091D802D0
:102D30008260E6CF8091D8028460E2CF8091D80291
:102D40008860DECF8091D9028160B5CF8091D902B1
:102D50008260B1CF8091D8028061D2CF0E94D80723
:102D60008091D8028068CCCF8091D8028C60C8CF87
:102D70008091D902877F9FCF8091D8028B7FC0CF6F
:102D80008091D802877FBCCF8091D9028E7F93CF6C
:102D90008091D9028D7F8FCF8091D8028F7EB0CF66
:102DA0008091D8028F7DACCF0E94D8078091D80245
:102DB0008F77A6CF8091D802837FA2CF8091D9024E
:102DC0008C7F79CF8091D902982F909591708E7FCA
:102DD000892B90FB81F96FCF0E94D8079091D80280
:102DE000892F97FB87F980588BCF81E00E949B0E3B
:102DF000D9CE9091D802892F8F7E94FF806180CFA9
:102E000081E0E3CECF93DF93EB0186319C4511F552
:102E10000E94FE0C9A81992399F08A7A91E009F434
:102E200090E090936502811109C089E20E94D60C5E
:102E30000E94420D80E0DF91CF91089585E3F6CFA7
:102E400080916502811104C089E20E94DE0CF0CFFE
:102E500085E3FBCF81E0EFCFB0E0A0E0E2E3F7E174
:102E60000C9499237C015B01C42FD22FFC01828139
:102E70008823C9F0409368020E94D01B9093670298
:102E80008093660280E28C0F883040F4C77081E046
:102E900001C0880FCA95EAF70E946E05CDB7DEB76C
:102EA000EAE00C94B52310916802141338C08091A5
:102EB0006602909167020E94E81B6C01B701C50190
:102EC0000E948C02C816D90650F5C0E2CD0F1D171E
:102ED000C1F080E2810F883048F4177081E0012E44
:102EE00001C0880F0A94EAF70E947505C83048F4BB
:102EF00081E09D2F977001C0880F9A95EAF70E9494
:102F00006E05802F0E946505C83040F6D77081E0BD
:102F100001C0880FDA95EAF70E947505BFCF80E2FD
:102F20008C0F883008F0BACFC77081E001C0880FDD
:102F3000CA95EAF7F1CF0F939C01CB01243F4CE5F2
:102F4000340759F1A8F4293DFCE53F0701F12A3D7A
:102F50004CE53407D1F1283D3C4591F406E221EEE1
:102F600041EE68ED7CE50E942C1780E00F910895FA
:102F7000263FFCE53F07E9F0B0F0273F3C45F9F07C
:102F8000FC018281882339F110926802EFCF07E2B9
:102F900025EE45EE69ED7CE5E6CF06E221EE40EE5A
:102FA00064EF7CE5E0CF07E225EE44EE65EF7CE5DB
:102FB000DACF06E221EE42EE66EF7CE5D4CF07E2FF
:102FC00025EE46EE67EF7CE5CECF08E221E045EE48
:102FD0006AED7CE5C8CF81E0C9CFCF93DF93EC01E8
:102FE000EA85FB85309719F06C857D8509958B8185
:102FF0000E941A0D8C810E94070D0E94420D86E0EE
:10300000FE0111928A95E9F7DF91CF910895CF9350
:10301000DF93EC018D8181FD12C082608D838B81F5
:103020000E94140D8C810E94010D0E94420DE885C2
:10303000F985309721F06C857D85CE010995109238
:103040006C0210926B028D8180FD03C0CE010E9444
:10305000ED17DF91CF910895FB0122812223E1F04A
:10306000E0916B02F0916C023097B1F0E817F9072C
:1030700099F02EE0E29FF0011124DF01AB5FBE4F1B
:103080002C9124602C93E050FF4F91838083CF01DB
:103090000E9407180E94210D0895EF92FF920F934E
:1030A0001F93CF93DF938C0197558F3F910511F0BC
:1030B00008F041C07801FF248EE0089FF001112440
:1030C000EF01C050DF4FDB0112962C91EB5FFE4FFA
:1030D000808120FB80F98083222399F10E94D01BFC
:1030E00090936A02809369028A818F5F8A830E942B
:1030F000FE0C8B830E94110D9B81892B8B830E9478
:10310000240D8C83EE81FF81309721F06C857D85C5
:10311000CE0109958EE08E9DF0018F9DF00D11245A
:10312000E050FF4F858181FF02C010E000E0109366
:103130006C0200936B0281E0CDB7DEB7E6E00C9441
:10314000B9238D8181FFF7CFCE010E94ED17F3CF18
:10315000A6E0B0E0EEEAF8E10C949F2380916B02C8
:1031600090916C02892B41F18091690290916A02E1
:103170000E94E81B8C01BE016F5F7F4F86E0FB0160
:1031800011928A95E9F780916B0290916C020E94EE
:103190008C028017910780F480916B02FEE08F9F74
:1031A000C0011124FC01EB5FFE4F208122FD04C011
:1031B00080509F4F0E9407182696E4E00C94BB2392
:1031C0009C013056211540E2340748F0305E21154D
:1031D00040E1340720F0315C21153F4178F4992714
:1031E0009C01245031092432310578F027523109ED
:1031F00081E02E30310550F080E008958F3F910539
:1032000079F370F390E080E0EBCF81E008950E94C5
:10321000E01808950E940719882381F0E091730255
:10322000F0E0EE0FFF1FEC58FD4F808191818F3F42
:103230002FE7920719F001969183808308958F926A
:103240009F92AF92BF92CF92DF92EF92FF92CF9375
:10325000C0907402D09075020D2C000CEE08FF088F
:103260002091280130E0E4E7F2E081E090E032963E
:10327000281739070CF0A7C06091A6027091A70229
:103280008091A8029091A9020E94F71B4B015C015A
:10329000C091280189EC88169104A104B10414F1AD
:1032A0008091730290E0019669E170E00E9423230F
:1032B00080937302880F991FFC01EC58FD4F118217
:1032C00010828C2FC83108F087E18F5F809328012E
:1032D0000E94DC1B6093A6027093A7028093A80251
:1032E0009093A90282E0C816D104E104F1040CF421
:1032F00076C0A0E6BAEEA70196010E947E236B017C
:103300007C0188ECC89F90011124032E000C440B13
:10331000550B280D391D4A1D5B1DA5E0B0E00E942C
:103320007E239B01AC01C701B6010E9437236901CE
:103330007A0181EFC816D104E104F1042CF080EF8A
:10334000C82ED12CE12CF12C60916F02709170028B
:1033500080917102909172020E94F71B4B015C01F7
:1033600085E688169104A104B10484F00E94DC1B58
:1033700060936F0270937002809371029093720257
:103380008091AA0280936E02C0926D02C0916E027B
:10339000A0916D02AC1BBB0BA50194010E94892377
:1033A00024E630E040E050E00E945923C20FC09371
:1033B000AA02CF91FF90EF90DF90CF90BF90AF9097
:1033C0009F908F90089540815181052E000C660BCF
:1033D000770BC40ED51EE61EF71E019648CFC12CF2
:1033E000D12C7601B1CF9093A7018093A6010895C7
:1033F0009093B0028093AF020895E091AF02F091F4
:10340000B002309729F00190F081E02D09950895E0
:1034100080E00895E091AF02F091B002309799F00A
:1034200020913501222359F02091D80227FF07C0AF
:10343000DC012C9111962C93119726E02C9302809D
:10344000F381E02D09950895E091AF02F091B0026B
:10345000309739F022E0DC012C930480F581E02DD7
:10346000099508952091AD023091AE0228173907D1
:1034700071F09093AE028093AD02E091AF02F091B3
:10348000B002309721F00680F781E02D099508956C
:103490002091AB023091AC022817390771F090935C
:1034A000AC028093AB02E091AF02F091B002309792
:1034B00021F00084F185E02D09950895FC013296F4
:1034C00080913501882321F08091D8029EE187FF09
:1034D00096E080E0915008F4089521912223D1F3E1
:1034E0008F5FF8CF662301F1209135012223F1F09F
:1034F0002091D80227FF1AC0462F4695469546953B
:103500004E3190F4677021E030E002C0220F331F8B
:103510006A95E2F7840F911DFC01828190E02823D7
:10352000392381E0232B69F480E00895FC01329671
:1035300008962191261721F0E817F907D1F7F4CF63
:1035400081E008959C01FC0132969FEF80E041915B
:10355000461751F09F3F19F4411101C0982F8F5F1A
:103560008630A9F79F3F09F40895290F311D97FD73
:103570003A95F90162830895FC01329608962191EB
:10358000261303C0DF0111971C92E817F907B9F75A
:103590000895E62FE695E695E695EE3168F4E80F96
:1035A000F92FF11D677021E030E001C0220F6A950C
:1035B000EAF78281822B82830895E62FE695E695CD
:1035C000E695EE3170F4E80FF92FF11D677021E0F8
:1035D00030E001C0220F6A95EAF720958281282306
:1035E0002283089520913501222339F02091D802B9
:1035F00027FF03C00E94C91A08950E94A21A0895C5
:1036000020913501222339F02091D80227FF03C0F1
:103610000E94DD1A08950E94BC1A0895FC0132969A
:1036200080913501882351F08091D80287FF06C030
:103630008EE1DF011D928A95E9F7089586E0F9CFC2
:1036400046E050E00E94EB2321E0892B09F420E0C2
:10365000822F089508950E942A1B0895811106C0A3
:1036600081E08093B1020E942B1B089582E0F9CF84
:1036700083E08093B1020E942B1B08950E942E1BB1
:10368000089581E08093B1020E942B1B08950E944F
:10369000411B0895089508950E944B1B08950895B5
:1036A00008950E944A1B0895CF930E944F1B0E94C9
:1036B0007A120E94501BC0E08C2F0E94AE11892B01
:1036C00031F4CF5FC430C1F780E0CF91089581E03D
:1036D000FCCF85B7806885BF85B7806885BF0895B2
:1036E0001F921FB61F9211248F939F93AF93BF9386
:1036F0008091B202811113C08091EA029091EB0295
:10370000A091EC02B091ED024196A11DB11D8093F4
:10371000EA029093EB02A093EC02B093ED02BF910A
:10372000AF919F918F911F901FBE1F901895809110
:10373000F202843031F10E9455041092B20288E105
:1037400090E020E40FB6F894A895809360000FBE37
:103750002093600083B7817F846083BF83B78160DB
:1037600083BF7894889583B78E7F83BF0FB6F89414
:10377000A89580916000886180936000109260003D
:103780000FBE08950E94D8070E945A04089582E04F
:1037900084BD93E095BD9AEF97BD80936E00089528
:1037A0002FB7F8948091EA029091EB02A091EC027D
:1037B000B091ED022FBF08952FB7F8946091EA02FF
:1037C0007091EB028091EC029091ED022FBF089571
:1037D0009C014FB7F8948091EA029091EB02A0917E
:1037E000EC02B091ED024FBF821B930B0895CF9274
:1037F000DF92EF92FF922FB7F894C090EA02D09038
:10380000EB02E090EC02F090ED022FBFA7019601D1
:10381000261B370B480B590BCA01B901FF90EF90DB
:10382000DF90CF90089578941F921FB61F921124B5
:103830008F939F93AF93BF938091EA029091EB0295
:10384000A091EC02B091ED020196A11DB11D8093F3
:10385000EA029093EB02A093EC02B093ED02BF91C9
:10386000AF919F918F911F901FBE1F90189587E772
:1038700097E7909301088093000888E19AE00FB6DB
:10388000F894A895809360000FBE90936000FFCFDE
:1038900088E19AE00FB6F894A895809360000FBE77
:1038A00090936000FFCF8091D602089508959C0107
:1038B00082E08093E9009FEF8091E800915085FDC0
:1038C00006C085ED8A95F1F700009111F5CF809142
:1038D000E80085FF0CC050E040E066E070E0C90100
:1038E0000E949C1E8091E8008E778093E8000895E6
:1038F000CF93DF93EC01809135018823B1F1809162
:10390000D80287FF32C060E282E08093E9008FEF47
:103910009091E800815095FD06C095ED9A95F1F7DC
:1039200000008111F5CF8091E80085FF1BC08091D8
:10393000350170E050E040E0811104C050E040E00B
:1039400068E070E0CE010E949C1E8091E8008E77B6
:103950008093E80080E2FE01A6EBB2E001900D92B8
:103960008A95E1F7DF91CF91089568E081E0CDCFAE
:103970008093B3027093B5026093B4028091F20217
:10398000843001F582E08093E9008FEF9091E800A8
:10399000815095FD06C095ED9A95F1F700008111D3
:1039A000F5CF8091E80085FF0DC050E040E063E076
:1039B00070E083EB92E00E949C1E8091E8008E777D
:1039C0008093E8000895BC0184E00E94B81C08952B
:1039D000BC0183E00E94B81C08958091F10281111E
:1039E00009C00E942C200E9489208091E2008460FE
:1039F0008093E20008951092F10208950E94411B05
:103A000008956091EE0281E0611101C080E00E94A2
:103A1000381B08959091F20281E0943009F080E023
:103A20006091EE020E943E1B089542E061EC81E04D
:103A30000E94A81F42E261EC82E00E94A81F9091C0
:103A4000F20281E0943009F080E06091EE020E9481
:103A50002E1B08958091F402833009F461C030F484
:103A60008130D1F1823009F49EC008958A3009F482
:103A70008AC08B3009F46FC0893009F050C0809142
:103A8000F302813209F04BC08091F7029091F80265
:103A9000029708F044C08091E800877F8093E80097
:103AA0008091E80082FF37C09091F3008091F2008E
:103AB000029731F48091F100813011F0863021F4C9
:103AC0008091F1008093D6028091E8008B778093FB
:103AD000E8000E94DC1F23C08091F302813AF9F4D0
:103AE0008091E800877F8093E8008091F7029091B1
:103AF000F802892B61F460E286EB92E070E00E94AC
:103B0000EB1E8091E8008B778093E800089560E0D9
:103B100090E080E0F3CF8091F2028111C1CF08954F
:103B20008091F302813AD9F78091F7029091F802DF
:103B3000892BA9F78091E800877F8093E800809126
:103B4000E80080FFFCCF809135018093F1008091E7
:103B5000E8008E77BCCF8091F302813201F780912B
:103B6000F7029091F802892BD1F68091E800877FC7
:103B70008093E8000E94DC1F8091F502809335015C
:103B80000E94D80708958091F302813241F6809116
:103B9000E800877F8093E8000E94DC1F8091F60296
:103BA0008093D70208958091F302813A09F0B7CF4C
:103BB0008091E800877F8093E8008091E80080FF93
:103BC000FCCF8091D702C1CF84B7877F84BF0FB667
:103BD000F894A895809160008861809360001092AD
:103BE00060000FBE80E890E00FB6F894809361000B
:103BF000909361000FBE0E94471B08950E942C20E5
:103C00000E948920E2EEF0E08081846080837894D5
:103C10000E940823089589E291E00E94F81908950E
:103C20008091F202853031F48091F202853019F0F2
:103C30000E94C21B08950E94971B8091F002882366
:103C400099F30E94541B882379F30E94861E0E94D8
:103C5000D807EACF08950E942E1E0895292F3327F2
:103C60002330310519F168F42130310509F444C0DD
:103C70002230310509F445C090E080E030E020E0DA
:103C800025C02132310549F122323105A9F780E4FE
:103C900090E021E634E061157105C1F086EB90E01B
:103CA0002BEA33E06130710589F0E6CF9927813046
:103CB000910581F0009729F00297F1F6ECE2F3E02C
:103CC00002C0EAE5F3E0849190E09F01FA013183BC
:103CD00020830895E2E4F3E0F6CF89E090E020E766
:103CE00033E06115710591F389E090E029E833E054
:103CF0006130710559F3C0CF82E190E029E933E0EA
:103D0000E5CF8BE390E02EE533E0E0CF80E189BDA5
:103D100082E189BD09B400FEFDCF8091D8008F7D7E
:103D20008093D8008091E00082608093E0008091D1
:103D3000E00081FDFCCF0895AF92BF92CF92DF9259
:103D4000FF920F931F93CF93DF936C01EB018A01D6
:103D50000E94FB1FF82E811123C00115110539F0B7
:103D6000F80180819181C81BD90BC80ED91EB12CD6
:103D7000A12C2097A9F08091E80085FD22C08091B8
:103D8000E8008E778093E80001151105A1F0F80195
:103D900080819181A80EB91EB182A08285E0F82EA3
:103DA0008F2DDF91CF911F910F91FF90DF90CF90DA
:103DB000BF90AF9008950E94FB1F8823D1F2F82E88
:103DC000EFCFF60181916F018093F1002197FFEF12
:103DD000AF1ABF0ACECFFC018091F9029091FA028E
:103DE00086179707A0F06115710529F49091E800F6
:103DF0009E779093E80090E06115710551F4911160
:103E000008C08091E80082FF34C080E00895BC01C2
:103E1000F2CF8091F2028823C1F18530C1F1809107
:103E2000E80083FD30C08091E80082FDEACF8091F8
:103E3000E80080FFE1CF8091F3002091F200382F5D
:103E40006115710519F02830310558F091E02830DE
:103E5000310509F090E02091E8002E772093E800EA
:103E6000CBCF81918093F100615071092F5F3F4F5B
:103E7000E7CF8091F202882341F0853041F08091B4
:103E8000E80083FFBECF81E0089582E0089583E0DB
:103E90000895FC018091F9029091FA028617970724
:103EA000A0F06115710529F48091E8008E77809368
:103EB000E80090E06115710551F4911108C08091FE
:103EC000E80082FF35C080E00895BC01F2CF809108
:103ED000F2028823C9F18530C9F18091E80083FDA1
:103EE00031C08091E80082FDEACF8091E80080FF38
:103EF000E1CF8091F3002091F200382F6115710518
:103F000019F02830310558F091E02830310509F0DA
:103F100090E08091E8008E778093E800CBCF849189
:103F20008093F1003196615071092F5F3F4FE6CFCA
:103F30008091F202882341F0853041F08091E800C1
:103F400083FFBDCF81E0089582E0089583E0089566
:103F5000982F973028F08F708093E90081E00895C2
:103F60009093E900242F762F50E0981731F070914C
:103F7000EC002091ED005091F00021FD02C09F5F08
:103F8000E8CF3091EB003E7F3093EB003091ED00B5
:103F90003D7F3093ED003091EB0031603093EB00CA
:103FA0007093EC002093ED005093F0002091EE0010
:103FB00027FDE5CF80E008958091F30287FF13C0CD
:103FC0008091E80082FF06C08091E8008B778093A3
:103FD000E80004C08091F2028111F2CF089580912F
:103FE000F2028823D9F38091E80080FFF8CF809116
:103FF000E8008E77ECCF2091E4003091E50095E663
:10400000A9012091EC00822F817020FF06C08091D1
:10401000E80080FF06C080E008952091E80022FDBE
:104020001AC08091F202882389F0853089F080914E
:10403000EB0085FD0FC02091E4003091E5004217B0
:104040005307F9F29150E1F684E0089582E0089573
:1040500083E0089581E008950E949B200E94A320A0
:10406000E0EEF0E0808181608083E8EDF0E0808127
:104070008F77808319BCA7EDB0E08C918E7F8C93F5
:1040800080818F7E80831092F10208950F931F9399
:10409000CF93DF930E949B200E94A320C8EDD0E025
:1040A00088818F77888388818068888388818F7DE5
:1040B000888319BC1092F2021092EE021092F00264
:1040C0001092EF0200EE10E0F80180818B7F808378
:1040D00088818160888342E060E080E00E94A81FC0
:1040E000E1EEF0E080818E7F8083E2EEF0E080817F
:1040F00081608083808188608083F80180818E7FE9
:104100008083888180618883DF91CF911F910F9197
:104110000895E8EDF0E080818F7E8083E7EDF0E0A8
:1041200080818160808384E082BF81E08093F1029E
:104130000E9446200895E8EDF0E080818E7F808324
:104140001092E20008951092DA001092E1000895B2
:104150001F920F920FB60F9211242F933F934F93FC
:104160005F936F937F938F939F93AF93BF93EF93DF
:10417000FF938091E10082FF0BC08091E20082FFFB
:1041800007C08091E1008B7F8093E1000E940723AC
:104190008091DA0080FF19C08091D80080FF15C09F
:1041A0008091DA008E7F8093DA008091D90080FFC1
:1041B00096C080E189BD82E189BD09B400FEFDCFD2
:1041C00081E08093F2020E94ED1C8091E10080FF6B
:1041D00019C08091E20080FF15C08091E2008E7FBF
:1041E0008093E2008091E20080618093E200809100
:1041F000D80080628093D80019BC85E08093F202D9
:104200000E94011D8091E10084FF2BC08091E2009B
:1042100084FF27C080E189BD82E189BD89B5982FDF
:10422000917080FFFBCF8091D8008F7D8093D80064
:104230008091E1008F7E8093E1008091E2008F7E8B
:104240008093E2008091E20081608093E20080919F
:10425000EE02882309F449C084E08093F2020E94B0
:104260000A1D8091E10083FF29C08091E20083FF55
:1042700025C08091E100877F8093E10082E08093F8
:10428000F2021092EE028091E1008E7F8093E100B5
:104290008091E2008E7F8093E2008091E200806155
:1042A0008093E20042E060E080E00E94A81F8091DD
:1042B000F00088608093F0000E94FE1CFF91EF9157
:1042C000BF91AF919F918F917F916F915F914F912E
:1042D0003F912F910F900FBE0F901F90189519BC12
:1042E0001092F2020E94FB1C70CF8091E30087FDC8
:1042F00093E09093F202B3CF1F920F920FB60F92FA
:1043000011242F933F934F935F936F937F938F93DA
:104310009F93AF93BF93CF93DF93EF93FF93D0918E
:10432000E900DF708091EC00C82FC17080FDC0E80B
:104330001092E9008091F000877F8093F0007894DC
:104340000E94C0211092E9008091F0008860809363
:10435000F000CD2BCF70C093E900FF91EF91DF917A
:10436000CF91BF91AF919F918F917F916F915F910D
:104370004F913F912F910F900FBE0F901F90189566
:10438000AAE2B0E0E6ECF1E20C94A02383EF92E025
:104390002091F100FC012193CF01F2E08B3F9F07B8
:1043A000B9F70E942A1D8091E80083FF1EC1809109
:1043B000F3029091F4029A3008F017C1E92FF0E06F
:1043C000EF5AFB4D0C947823803899F0823809F02D
:1043D0000CC18091F7028F70873008F006C180937E
:1043E000E9008091EB0085FB882780F91092E900B5
:1043F00006C08091EF029091F0029111826090913D
:10440000E800977F9093E8008093F1001092F1000C
:104410008091E8008E77E5C0882309F4D3C082300C
:1044200009F0E3C08091F5028111D6C08091F702B6
:104430008F702FEF280F263008F0D7C08093E90047
:104440002091EB0020FFC8C0933031F48091EB0045
:1044500080628093EB00C0C09091EB0090619093DC
:10446000EB0021E030E001C0220F8A95EAF72093AB
:10447000EA001092EA008091EB008860EACF811197
:10448000B4C01091F5021F778091E3008078812BF2
:104490008093E3008091E800877F8093E8000E948A
:1044A000DC1F8091E80080FFFCCF8091E3008068F2
:1044B0008093E30082E0111183E08093F20295C0C3
:1044C0008058823008F091C08091F5029091F602F8
:1044D0008C3D23E09207A1F583E08A838AE28983F9
:1044E0004FB7F894DE01139620E03EE051E2E32F4F
:1044F000F0E050935700E49120FF03C0E295EF7085
:104500003F5FEF708E2F90E0EA30C0F0C7968D933A
:104510009D932F5F243159F74FBF8091E800877F2B
:104520008093E8006AE270E0CE0101960E94EB1EE3
:104530008091E8008B778093E80057C0C096E7CF62
:104540006091F7027091F802AE014F5F5F4F0E94D9
:104550002B1EBC01892B09F448C09091E800977F7D
:104560009093E80089819A810E94491FE1CF8038A9
:10457000E1F58091E800877F8093E8008091EE026A
:104580008093F10045CF811130C09091F5029230B7
:1045900060F58091E800877F8093E8009093EE02B9
:1045A0000E94DC1F8091EE02882311F084E005C098
:1045B0008091E30087FDFACF81E08093F2020E94B0
:1045C000151D13C08091F502813079F481E093309C
:1045D00009F080E08093F0021092E9008091E800F9
:1045E000877F8093E8000E94DC1F8091E80083FFB2
:1045F0000AC08091E800877F8093E8008091EB00FB
:1046000080628093EB00AA96E3E00C94BC230895AB
:10461000CF938091F2028823A1F0C091E900CF707E
:104620009091EC00892F817090FD80E8C82B10924A
:10463000E9008091E80083FD0E94C021CF70C09303
:10464000E900CF91089597FB072E16F4009407D048
:1046500077FD09D00E94C82307FC05D03EF4909551
:1046600081959F4F0895709561957F4F0895A1E2C0
:104670001A2EAA1BBB1BFD010DC0AA1FBB1FEE1FDC
:10468000FF1FA217B307E407F50720F0A21BB30B27
:10469000E40BF50B661F771F881F991F1A9469F7A3
:1046A00060957095809590959B01AC01BD01CF01FF
:1046B0000895052E97FB1EF400940E94702357FD69
:1046C00007D00E94372307FC03D04EF40C947023CC
:1046D00050954095309521953F4F4F4F5F4F08952E
:1046E00090958095709561957F4F8F4F9F4F08955E
:1046F000EE0FFF1F0590F491E02D09940E94DC233A
:10470000A59F900DB49F900DA49F800D911D112425
:104710000895B7FF0C947E230E947E23821B930B87
:1047200008952F923F924F925F926F927F928F9255
:104730009F92AF92BF92CF92DF92EF92FF920F9330
:104740001F93CF93DF93CDB7DEB7CA1BDB0B0FB63A
:10475000F894DEBF0FBECDBF09942A8839884888F7
:104760005F846E847D848C849B84AA84B984C8848D
:10477000DF80EE80FD800C811B81AA81B981CE0F84
:10478000D11D0FB6F894DEBF0FBECDBFED01089569
:10479000AA1BBB1B51E107C0AA1FBB1FA617B70767
:1047A00010F0A61BB70B881F991F5A95A9F7809583
:1047B0009095BC01CD010895A29FB001B39FC001A7
:1047C000A39F700D811D1124911DB29F700D811D3D
:1047D0001124911D0895FB01DC0104C08D9101900D
:1047E000801921F441505040C8F7881B990B089557
:1047F000FB01DC0102C001900D9241505040D8F7FE
:104800000895F999FECF92BD81BDF89A992780B598
:104810000895A8E1B0E042E050E00C943524262F42
:10482000F999FECF92BD81BDF89A019700B40216A6
:1048300039F01FBA20BD0FB6F894FA9AF99A0FBE54
:1048400008950396272F0E9410240E940F24252FDD
:104850000E941024242F0C9410240196272F0E94CC
:1048600010240C940F24DC01CB01FC01F999FECF3C
:1048700006C0F2BDE1BDF89A319600B40D924150E8
:104880005040B8F70895F894FFCFB505B505050673
:1048900005066B068706E405E40592060307120782
:1048A0001207E4210C22F5220C22F5223F2260227D
:0648B000F522B722C3222D
:1048B6000000000000000000BB02700200000000C3
:1048C600000000000000D8027E0200000100200265
:1048D600280850011E0A140101531C781C571CE8B5
:1048E6001CE31C561C01E200E900EA00B500B60014
:1048F600B700CD008301CC008A0192019401210208
:10490600230224022502260227022A02B300B4004B
:104916006F007000818283E200E900EA00B500B60C
:1049260000B700CD008301CC008A019201940121D9
:1049360002230224022502260227022A02B300B419
:10494600006F007000818283946697C63435F4F553
:06495600F6F731333236A2
:00000001FF
