:100000000C94F50E0C94120F0C94120F0C94120F0A
:100010000C94120F0C94120F0C94120F0C94120FDC
:100020000C94120F0C94120F0C944B1C0C94071C84
:100030000C94CB250C94120F0C94120F0C94120FED
:100040000C94120F0C94120F0C94120F0C94120FAC
:100050000C94120F0C94241D0C94120F0C94120F7C
:100060000C94120F0C94120F0C94120F0C94120F8C
:100070000C94120F0C94120F0C94120F0C94120F7C
:100080000C94120F0C94120F0C94120F0C94120F6C
:100090000C94120F0C94120F0C94120F0C94120F5C
:1000A0000C94120F0C94120F0C94120F000000000D
:1000B0000000000000000000000000000000000040
:1000C0000000000000000000000000000000000030
:1000D0000000000000000000000000000000000020
:1000E0000000000000000000000000000000808010
:1000F00080404020201008040204081010202040F6
:1001000040808000000000000000000000000000AF
:1001100000000000000000000000000000000000DF
:1001200000000000000000000000000000000000CF
:1001300000000000000000000000000000000000BF
:1001400000000000000000000000000000000000AF
:100150000000000000000000000000000000003F60
:10016000C1010102020404040402020101010000B1
:10017000000000008000004080804000003030001F
:10018000000000010264180412C2CA2488F08080B2
:10019000404040402020202010101010080808087F
:1001A0000404040402020202010101010000000033
:1001B000000000000000000000000000000000003F
:1001C000000000000000000000000000000000002F
:1001D0000000000000000000000000000000E01827
:1001E0000601000000000000000000000080838382
:1001F000404040402021212010101010080808081D
:1002000004040404020202020101010100000000D2
:1002100000000000000000000000000000000000DE
:1002200000000000000000000000000000000000CE
:1002300000000000000000000000000000000000BE
:1002400000000000000000000000000080808080AE
:10025000404040402020202010101010080F0808B7
:1002600004040404020408101020204040414224E9
:1002700098C088888C9C1C1E0E06000000000000A0
:10028000000000000000000000000000000000006E
:10029000000000000000000000000000000000005E
:1002A000000000000000000000000000000000004E
:1002B000000000000000000000000000000000003E
:1002C000000000000000000000000000000000002E
:1002D000000000000000000000000000000000001E
:1002E000000000000000000000000000000000000E
:1002F00000000000000000000000000000000000FE
:1003000000000000000000000000000000000000ED
:1003100000000000000000000000000000000000DD
:1003200000000000000000000000000000000000CD
:1003300000000000000000000000000000000000BD
:1003400000000000000000000000000000000000AD
:10035000000000000000000000000000000000009D
:10036000000000000000000000008080804040206D
:100370002010080402040810102020404080800053
:10038000000000000000000000000000000000006D
:10039000000000000000000000000000000000005D
:1003A000000000000000000000000000000000004D
:1003B000000000000000000000000000000000003D
:1003C000000000000000000000000000000000002D
:1003D00000000000000000000000003FC101010219
:1003E0000204844444428201010100000000000034
:1003F000800000408080400000303000000000019C
:100400000204040808102040808080804040404062
:1004100020202020101010100808080804040404EC
:1004200002020202010101010000000000000000C0
:1004300000000000000000000000000000000000BC
:1004400000000000000000000000000000000000AC
:1004500000000000000000000000E018060100009D
:100460000C03000218190005FE80838340404040C1
:10047000202121201010101008080808040404048A
:100480000408304080800000018698600000000071
:10049000000000000000000000000000000000005C
:1004A000000000000000000000000000000000004C
:1004B000000000000000000000000000000000003C
:1004C000000000000000000080808080404040402C
:1004D0002020202010101010080F08080404040425
:1004E0000202020201010101000000000000000000
:1004F0000000000000000000000000060F0F0703CE
:100500000361F0F8FC600101013C78F8F070000034
:1005100000000000000000000000000000000000DB
:1005200000000000000000000000000000000000CB
:1005300000000000000000000000000000000000BB
:1005400000000000000000000000000000000000AB
:10055000000000000000000000000000000000009B
:10056000000000000000000000000000000000008B
:10057000000000000000000000000000000000007B
:10058000000000000000000000000000000000006B
:10059000000000000000000000000000000000005B
:1005A000000000000000000000000000000000004B
:1005B000000000000000000000000000000000003B
:1005C000000000000000000000000000000000002B
:1005D000000000000000000000000000000000001B
:1005E00000000000000080808040402020100804AF
:1005F000020408101020204040808000000000000D
:1006000000000000000000000000000000000000EA
:1006100000000000000000000000000000000000DA
:1006200000000000000000000000000000000000CA
:1006300000000000000000000000000000000000BA
:1006400000000000000000000000000000000000AA
:10065000000000000000003FC101010202048444C8
:1006600044428201010100000000000080000040BF
:100670008080400000303000000000010264180457
:1006800012C2CA2488F080804040404020202020B0
:1006900010101010080808080404040402020202E2
:1006A0000101010100000000000000000000000046
:1006B000000000000000000000000000000000003A
:1006C000000000000000000000000000000000002A
:1006D000000000000000E018060100000C0300020A
:1006E00018190005FE8083834040404020212120CE
:1006F0001010101008080808040404040202020282
:1007000001010101000000000000000000000000E5
:1007100000000000000000000000000000000000D9
:1007200000000000000000000000000000000000C9
:1007300000000000000000000000000000000000B9
:100740000000000080808080404040402020202029
:1007500010101010080F080804040404020202021A
:100760000101010100000000000000000000000085
:100770000000000000000000000000000000000079
:100780000000000000000000000000000000000069
:100790000000000000000000000000000000000059
:1007A0000000000000000000000000000000000049
:1007B0000000000000000000000000000000000039
:1007C0000000000000000000000000000000000029
:1007D0000000000000000000000000000000000019
:1007E0000000000000000000000000000000000009
:1007F00000000000000000000000000000000000F9
:1008000000000000000000000000000000000000E8
:1008100000000000000000000000000000000000D8
:1008200000000000000000000000000000000000C8
:1008300000000000000000000000000000000000B8
:1008400000000000000000000000000000000000A8
:100850000000000000000000000000000000008018
:10086000804040402020202020180402010204087B
:1008700010202040408080000000000000000000A8
:100880000000000000000000000000000000000068
:100890000000000000000000000000000000000058
:1008A0000000000000000000000000000000000048
:1008B0000000000000000000000000000000000038
:1008C0000000000000000000000000000000000028
:1008D0000000003FC10101020204040404020201FD
:1008E0000000000000000000800000408080400008
:1008F000003030000000000102040408081020400D
:100900008080808040404040202020201010101027
:10091000080808080404040402020202010101019B
:1009200000000000000000000000000000000000C7
:1009300000000000000000000000000000000000B7
:1009400000000000000000000000000000000000A7
:100950000000E01806010000000000000000000098
:10096000008083834040404020212120101010103F
:1009700008080808040404040408304080800000CB
:1009800001869860000000000000000000000000E8
:100990000000000000000000000000000000000057
:1009A0000000000000000000000000000000000047
:1009B0000000000000000000000000000000000037
:1009C0008080808040404040202020201010101067
:1009D000080F080804040404020408101020204032
:1009E0004041422418000000000000000000000008
:1009F00000000000000000000000000000000101F5
:100A000001000000000000000000000000000000E5
:100A100000000000000000000000000000000000D6
:100A200000000000000000000000000000000000C6
:100A300000000000000000000000000000000000B6
:100A400000000000000000000000000000000000A6
:100A50000000000000000000000000000000000096
:100A60000000000000000000000000000000000086
:100A70000000000000000000000000000000000076
:100A80000000000000000000000000000000000066
:100A90000000000000000000000000000000000056
:100AA0000000000000000000000000000000000046
:100AB0000000000000000000000000000000000036
:100AC0000000000000000000000000000000000026
:100AD0000000000000000000000000000000808016
:100AE0004040402010080402010204081020408009
:100AF0008000000000000000000000000000000076
:100B000000000000000000000000000000000000E5
:100B100000000000000000000000000000000000D5
:100B200000000000000000000000000000000000C5
:100B300000000000000000000000000000000000B5
:100B40000000000000000000000000000000003F66
:100B5000C1010102020404040402020101010000B7
:100B600000000000000000800000800000606000C5
:100B700000010204040808101020204080808080BA
:100B80004040404020202020101010100808080885
:100B90000404040402020202010101010000000039
:100BA0000000000000000000000000000000000045
:100BB0000000000000000000000000000000000035
:100BC0000000000000000000000000000000C03035
:100BD0000C0300000000000000000000008086867A
:100BE000404040402122222011111010080808081E
:100BF00004040404040830408080000001869860EA
:100C000000000000000000000000000000000000E4
:100C100000000000000000000000000000000000D4
:100C200000000000000000000000000000000000C4
:100C300000000000000000000000000080808080B4
:100C4000404040402020202010101010080F0808BD
:100C500004040404020408101020204040414224EF
:100C6000180000000000000000000000000000006C
:100C70000000000000000000000001010100000071
:100C80000000000000000000000000000000000064
:100C90000000000000000000000000000000000054
:100CA0000000000000000000000000000000000044
:100CB0000000000000000000000000000000000034
:100CC0000000000000000000000000000000000024
:100CD0000000000000000000000000000000000014
:100CE0000000000000000000000000000000000004
:100CF00000000000000000000000000000000000F4
:100D000000000000000000000000000000000000E3
:100D100000000000000000000000000000000000D3
:100D200000000000000000000000000000000000C3
:100D300000000000000000000000000000000000B3
:100D400000000000000000000000000000000000A3
:100D50000000000000000000000080808080404013
:100D600020100804020408102040808000000000C9
:100D70000000000000000000000000000000000073
:100D80000000000000000000000000000000000063
:100D90000000000000000000000000000000000053
:100DA0000000000000000000000000000000000043
:100DB0000000000000000000000000000000000033
:100DC00000000000000000000000007E820202041B
:100DD00004080808080404020101000000000000E3
:100DE000000000800000800000606000010102043B
:100DF000040808101020204080808080404040403F
:100E000020202020101010100808080804040404F2
:100E100002020202010101010000000000000000C6
:100E200000000000000000000000000000000000C2
:100E300000000000000000000000000000000000B2
:100E400000000000000000000000C0300C030000A3
:100E50000000000000000000008086864040404006
:100E6000212222201111101008080808040404048B
:100E70000408304080800000018698600000000077
:100E80000000000000000000000000000000000062
:100E90000000000000000000000000000000000052
:100EA0000000000000000000000000000000000042
:100EB0000000000000000000808080804040404032
:100EC0002020202010101010080F0808040404042B
:100ED0000204081010202040404142241800000065
:100EE0000000000000000000000000000000000002
:100EF00000000000000001010100000000000000EF
:100F000000000000000000000000000000000000E1
:100F100000000000000000000000000000000000D1
:100F200000000000000000000000000000000000C1
:100F300000000000000000000000000000000000B1
:100F400000000000000000000000000000000000A1
:100F50000000000000000000000000000000000091
:100F60000000000000000000000000000000000081
:100F70000000000000000000000000000000000071
:100F80000000000000000000000000000000000061
:100F90000000000000000000000000000000000051
:100FA0000000000000000000000000000000000041
:100FB0000000000000000000000000000000000031
:100FC0000000000000000000000000000000000021
:100FD0000000000000008080808040402010080455
:100FE0000204081020408080000000000000000083
:100FF00000000000000000000000000000000000F1
:1010000000000000000000000000000000000000E0
:1010100000000000000000000000000000000000D0
:1010200000000000000000000000000000000000C0
:1010300000000000000000000000000000000000B0
:101040000000000000001C34C40404040808080860
:1010500008040402010100000000000080000040BC
:1010600080804000003030000101020204040408C6
:101070000810204080808080404040402020202078
:1010800010101010080808080404040402020202E8
:10109000010101010000000000000000000000004C
:1010A0000000000000000000000000000000000040
:1010B0000000000000000000000000000000000030
:1010C000000000000000E018060100000000000021
:1010D0000000000000808383404040402021212008
:1010E0001010101008080808040404040408304014
:1010F0008080000001869860000000000000000071
:1011000000000000000000000000000000000000DF
:1011100000000000000000000000000000000000CF
:1011200000000000000000000000000000000000BF
:10113000000000008080808040404040202020202F
:1011400010101010080F080804040404020408100A
:101150001020204040414224180000000000000000
:10116000000000000000000000000000000000007F
:10117000000001010100000000000000000000006C
:10118000000000000000000000000000000000005F
:10119000000000000000000000000000000000004F
:1011A000000000000000000000000000000000003F
:1011B000000000000000000000000000000000002F
:1011C000000000000000000000000000000000001F
:1011D000000000000000000000000000000000000F
:1011E00000000000000000000000000000000000FF
:1011F00000000000000000000000000000000000EF
:1012000000000000000000000000000000000000DE
:1012100000000000000000000000000000000000CE
:1012200000000000000000000000000000000000BE
:1012300000000000000000000000000000000000AE
:10124000000000000000000000000000000000801E
:101250008040404020202020201804020102040881
:1012600010202040408080000000000000000000AE
:10127000000000000000000000000000000000006E
:10128000000000000000000000000000000000005E
:10129000000000000000000000000000000000004E
:1012A000000000000000000000000000000000003E
:1012B000000000000000000000000000000000002E
:1012C00000060D31C1010101020202040402020103
:1012D000000000000000000080000040808040000E
:1012E0000030300000000001020404080810204013
:1012F000808080804040404020202020101010102E
:1013000008080808040404040202020201010101A1
:1013100000000000000000000000000000000000CD
:1013200000000000000000000000000000000000BD
:1013300000000000000000000000000000000000AD
:101340000000E0180601000000000000000000009E
:101350000080838340404040202121201010101045
:1013600008080808040404040408304080800000D1
:1013700001869860000000000000000000000000EE
:10138000000000000000000000000000000000005D
:10139000000000000000000000000000000000004D
:1013A000000000000000000000000000000000003D
:1013B000808080804040404020202020101010106D
:1013C000080F080804040404020408101020204038
:1013D000404142241800000000000000000000000E
:1013E00000000000000000000000000000000101FB
:1013F00001000000000000000000000000000000EC
:1014000000000000000000000000000000000000DC
:1014100000000000000000000000000000000000CC
:1014200000000000000000000000000000000000BC
:1014300000000000000000000000000000000000AC
:10144000000000000000000000000000000000009C
:10145000000000000000000000000000000000008C
:10146000000000000000000000000000000000007C
:10147000000000000000000000000000000000006C
:1014800000000000000000000000000014001A002E
:10149000090013000A000D000F0018001C002A00AC
:1014A000040015001600170007000B0011000800CB
:1014B0000C0012001D221B000600190005000E0082
:1014C000100036003700383200000000E000E20073
:1014D0002C282B4128420057000000002D022D002F
:1014E0002E022E0033023500BC00AE00BB004C00C3
:1014F0002F0226022702300231022900500052003A
:1015000051004F002F2234003402300033003502E6
:10151000AA00A800A900313200000000E000E200AB
:101520002C28010001000057000000001E021F02CD
:1015300020022102220223022402250239002A006D
:101540001E001F002000210022002300240025008F
:1015500026002700E10000000000000023520000E8
:10156000000036003700383200000000E000E200E2
:101570002C280100010000570000000000000000BE
:101580000000000000000000000000000000045205
:101590003A003B003C003D003E003F00400041005F
:1015A00042004300440000000000007C01000000F5
:1015B000000000000000450000000000E000E20024
:1015C0002C280100010000570000000014001A0040
:1015D000090013000A000D000F0018001C002A006B
:1015E000040015001600170007000B00110008008A
:1015F0000C0012001D221B000600190005000E0041
:10160000100036003700383200000000E200E00031
:101610002C002B4528460157000000002D022D000C
:101620002E022E0033023500BC00AE00BB004C0081
:101630002F022602270230023102290050005200F8
:1016400051004F002F2234003402300033003502A5
:10165000AA00A800A900313200000000E200E0006A
:101660002C00010001000157000000001E021F02B3
:1016700020022102220223022402250239002A002C
:101680001E001F002000210022002300240025004E
:1016900026002700E10000000000000027520000A3
:1016A000000036003700383200000000E200E000A1
:1016B0002C000100010001570000000000000000A4
:1016C00000000000000000000000000000000052C8
:1016D0003A003B003C003D003E003F00400041001E
:1016E00042004300440000000000007C01000000B4
:1016F000000000000000450000000000E200E000E3
:101700002C000100010001570000000000DA0281F6
:10171000FFD9F1DB20A4A62EAF00A0C0D30000A10A
:10172000C8D30000AED580A81F408D142000004310
:101730004150530046554E430057494E004E554DBB
:101740000057494E00434F44450057494E004D4114
:10175000494E0057494E0046554E43004D41430007
:101760004E554D004D414300434F4445004D4143CC
:10177000004D41494E004D41430000AF00AE050110
:101780000980A101850319012AB700150126B700B8
:10179000950175108100C0050C0901A1018504198E
:1017A000012AA002150126A002950175108100C032
:1017B00005010906A1018506050719E029E71500BD
:1017C00025019508750181020507190029EF15000B
:1017D000250195F075018102050819012905950576
:1017E00075019102950175039101C005010906A1DA
:1017F00001050719E029E715002501950875018104
:10180000029501750881010507190029FF150026B9
:10181000FF00950675088100050819012905950541
:1018200075019102950175039101C009023B000207
:101830000100A0FA090400000103010100092111BF
:10184000010001224000070581030800010904018D
:10185000000103000000092111010001226D0007B1
:1018600005820320000112010002000000084B5312
:1018700002000001010200011203530063006F0027
:10188000740074006F00330036000000180353002A
:1018900063006F00740074006F004B00650065000A
:1018A0006200730000000403090407087F080700B2
:1018B0003E5B4F5B3E003E6B4F6B3E001C3E7C3EF2
:1018C0001C00183C7E3C18001C577D571C001C5EF9
:1018D0007F5E1C0000183C180000FFE7C3E7FF0014
:1018E000001824180000FFE7DBE7FF0030483A0645
:1018F0000E00262979292600407F05050700407F34
:1019000005253F005A3CE73C5A007F3E1C1C08005E
:10191000081C1C3E7F0014227F2214005F5F005FC2
:101920005F0006097F017F00006689956A0060609C
:101930006060600094A2FFA2940008047E04080086
:1019400010207E20100008082A1C0800081C2A0805
:1019500008001E10101010000C1E0C1E0C00303859
:101960003E383000060E3E0E06000000000000006B
:1019700000005F000000000700070000147F147FD4
:101980001400242A7F2A12002313086462003649B7
:1019900056205000000807030000001C22410000F0
:1019A0000041221C00002A1C7F1C2A0008083E0857
:1019B00008000080703000000808080808000000D7
:1019C000606000002010080402003E5149453E00BE
:1019D00000427F4000007249494946002141494D7B
:1019E00033001814127F10002745454539003C4A42
:1019F000494931004121110907003649494936005A
:101A0000464949291E00000014000000004034002F
:101A100000000008142241001414141414000041A2
:101A2000221408000201590906003E415D594E008A
:101A30007C1211127C007F49494936003E414141E8
:101A400022007F4141413E007F49494941007F09D1
:101A5000090901003E41415173007F0808087F00D9
:101A600000417F4100002040413F01007F081422D7
:101A700041007F40404040007F021C027F007F0405
:101A800008107F003E4141413E007F0909090600E0
:101A90003E4151215E007F091929460026494949E6
:101AA000320003017F0103003F4040403F001F2000
:101AB00040201F003F4038403F006314081463007B
:101AC0000304780403006159494D4300007F4141FC
:101AD0004100020408102000004141417F0004023F
:101AE000010204004040404040000003070800009D
:101AF0002054547840007F284444380038444444FB
:101B00002800384444287F003854545418000008F2
:101B10007E09020018A4A49C78007F0804047800C1
:101B200000447D4000002040403D00007F102844DC
:101B3000000000417F4000007C04780478007C08AD
:101B400004047800384444443800FC182424180065
:101B500018242418FC007C08040408004854545439
:101B6000240004043F4424003C4040207C001C200E
:101B700040201C003C4030403C00442810284400D9
:101B80004C9090907C004464544C440000083641D2
:101B9000000000007700000000413608000002014C
:101BA000020402003C2623263C0000000000000046
:101BB000404040F0F8F8FF38FFF8F83FF8F8FF38F9
:101BC000FFF8F8F040404000000000000080C0C076
:101BD000C0800000C0C08000000080C0C000C0C045
:101BE000000080C0C00000000000C0C0C0C0C00035
:101BF000C0C0000000000000000000000000000065
:101C000000000000000000000000000000000000D4
:101C100000000000000000000000000000000000C4
:101C2000000000000000000000C0F0F8FC3E1E06AE
:101C3000010000007F4141417F007F4141417F0021
:101C40000080C0E07E5B4F5BFEC00000C000DCD7C0
:101C5000DEDEDED7DC00C000000000000000000077
:101C60000000000000000000000000000000000074
:101C7000494949FFFFFFFFE0DFBFBF00BFBFDFE013
:101C8000FFFFFFFF49494900000000001F3F60605F
:101C9000E0BF1F007F7F071E381E077F7F007F7F0A
:101CA0000E1F3B716000000000007F7F0C0C0C00D9
:101CB0007E7E007F7E0303007F7E03037E7E030320
:101CC0007F7E000F3E703C063C703E0F00327B4929
:101CD000493F7E007F7E0303001E3F69696F260037
:101CE000000000000000000000030F1F3F3C787060
:101CF000600000007F4141417F007F4141417F0002
:101D0000307B7F7830202030787F3B0003000F7FCE
:101D10000F0F0F7F0F000300000000000000000005
:101D200000000000000000000000000000000000B3
:101D3000010101070F0F7F0F7F0F0F7E0F0F7F0F26
:101D40007F0F0F07010101000000000000000000EC
:101D50000001010000000000000000000000000081
:101D60000000000000000000000000000000000073
:101D70000000000000000000000000000000000063
:101D80000000000000000000000000000000000053
:101D90000000000000000000000000000000000043
:101DA0000000000000000000000000000000000033
:101DB0000000000000000000000000000000000023
:101DC0000000000000000000000000000000000013
:101DD0000000000000000000000000000000000003
:101DE0000000000000000000000011241FBECFEF23
:101DF000DAE0DEBFCDBF11E0A0E0B1E0E0ECF0E65C
:101E000002C005900D92A238B107D9F725E0A2E8EB
:101E1000B1E001C01D92AA30B207E1F70E94F2259D
:101E20000C9417300C9400009091FF02899FC00120
:101E30001124811522E0920714F090E080E08E5F7B
:101E40009C4F90930905809308050895CF93DF93E5
:101E50004091080550910905425053409A01245879
:101E60003D4F21303240C0F020E032E0241B350BE2
:101E70006091000370910103FC01CA01240F351F1A
:101E8000C1E0D0E08217930750F070930103609394
:101E90000003DF91CF9108952CE732E0E9CF449120
:101EA000DC01AE5FBC4F5C91451781F04C93AC01F7
:101EB000A5E056954795AA95E1F7DE0102C0AA0F65
:101EC000BB1F4A95E2F7AD016A2B752B019631963F
:101ED000D9CF883222E4920771F050F48C3228E294
:101EE000920749F08B32914431F087E890E00895F1
:101EF00097550297D0F788EC90E00895482F2091ED
:101F0000FE029091C50257E0291302C080E00895B7
:101F100030E0529FF001539FF00D1124EA53FD4F22
:101F20008181681306C08081481303C085818111B7
:101F3000EECF2F5F3F4F2770E7CFE8EDF0E08081D5
:101F40008E7F80831092E2001092DA001092E100FE
:101F5000A0EEB0E08C9181608C9380818F7780833C
:101F600019BCA7EDB0E08C918E7F8C9380818F7E21
:101F700080831092960208952091E4003091E5004C
:101F800095E6A9012091EC00822F817020FF06C008
:101F90008091E80080FF06C080E008952091E8006D
:101FA00022FD1AC08091BB02882389F0853089F018
:101FB0008091EB0085FD0FC02091E4003091E50099
:101FC00042175307F9F29150E1F684E0089582E058
:101FD000089583E0089581E008958091BD0287FF10
:101FE00013C08091E80082FF06C08091E8008B77E3
:101FF0008093E80004C08091BB028111F2CF089564
:102000008091BB028823D9F38091E80080FFF8CF4C
:102010008091E8008E77ECCF982F9093E900242FE1
:10202000762F50E0891731F07091EC002091ED008F
:102030005091F00021FD07C09F5F973071F78093AA
:10204000E90081E008953091EB003E7F3093EB0092
:102050003091ED003D7F3093ED003091EB00316029
:102060003093EB007093EC002093ED005093F00060
:102070002091EE0027FDE0CF80E00895B0E0A0E0E1
:10208000E4E4F0E10C94672CC8EDD0E088818F7E09
:102090008883E7EDF0E080818160808384E082BF07
:1020A00081E08093960288818E7F888302EE10E023
:1020B000F80110821092DA0081EEC82ED12CF601C0
:1020C000108288818F77888388818068888388815F
:1020D0008F7D888319BC1092BB021092BC021092B3
:1020E000BA021092B90290EEE92EF12CF70180812C
:1020F0008B7F808388818160888342E060E080E01C
:102100000E940C10F60180818E7F8083F80180810F
:1021100081608083808188608083F70180818E7FE9
:102120008083888180618883CDB7DEB7E8E00C9436
:10213000832CFC018091C3029091C40286179707FB
:10214000A0F06115710529F49091E8009E779093B5
:10215000E80090E06115710551F4911108C080917B
:10216000E80082FF34C080E00895BC01F2CF809186
:10217000BB028823C1F18530C1F18091E80083FD65
:1021800030C08091E80082FDEACF8091E80080FFB6
:10219000E1CF8091F3002091F200382F6115710595
:1021A00019F02830310558F091E02830310509F058
:1021B00090E02091E8002E772093E800CBCF81912A
:1021C0008093F100615071092F5F3F4FE7CF8091FD
:1021D000BB02882341F0853041F08091E80083FF05
:1021E000BECF81E0089582E0089583E008950895C8
:1021F00080919802089587E797E79093010880936C
:10220000000888E19AE00FB6F894A89580936000E2
:102210000FBE90936000FFCF2FB7F89460919002AB
:102220007091910280919202909193022FBF089534
:1022300020912C012223C9F02091940227FF15C080
:10224000E62FE695E695E695EE31D8F4E80FF92FFE
:10225000F11D677021E030E001C0220F6A95EAF7B6
:1022600020958281282322830895FC0132960896C6
:102270002191621303C0DF0111971C92E817F9073F
:10228000B9F7089520912C012223C1F020919402E6
:1022900027FF14C0E62FE695E695E695EE31F8F4B3
:1022A000E80FF92FF11D677021E030E001C0220F27
:1022B0006A95EAF78281822B82830895FC01329627
:1022C0002FEF30E04191641751F02F3F19F4411185
:1022D00001C0232F3F5F3630A9F72F3F09F408953F
:1022E000820F911D27FD9A95FC0162830895A3E05A
:1022F000B0E0EDE7F1E10C946D2C20918D0230916E
:102300008E0228173907A1F090938E0280938D02D8
:10231000E0918B02F0918C02309751F024E02983F8
:102320009B838A830680F781E02DCE010196099573
:102330002396E2E00C94892CA3E0B0E0E2EAF1E11C
:102340000C946D2C2091890230918A02281739074C
:10235000A1F090938A0280938902E0918B02F09120
:102360008C02309751F023E029839B838A83068077
:10237000F781E02DCE01019609952396E2E00C94B9
:10238000892CE0918B02F0918C02309729F001901A
:10239000F081E02D0995089580E0089580E008958A
:1023A000F894E82FE295EF70F0E031A1282F2F701C
:1023B00081E090E001C0880F2A95EAF7982F909568
:1023C000932391A392A1892B82A37894089590914D
:1023D000940292FF06C0282F28712830F9F4877FD5
:1023E000846093FF06C0282F28712831F1F4877E7E
:1023F00084612091950220FF06C0382F3871383053
:10240000D9F4877F816021FF06C0282F28712831E9
:10241000D1F4877E816194FD877E0895282F2471F1
:102420002430F9F68B7F8860DCCF282F247124318B
:1024300001F78B7E8861DDCF382F3171313019F78C
:102440008E7F8860E0CF282F2171213121F78E7E89
:102450008861E1CF82389105B9F1B0F481339105FB
:1024600009F47DC048F48932910509F46DC08A32BF
:10247000910509F47BC008958533910509F45FC087
:102480008933910509F10895833E9105D9F138F416
:10249000803E910529F1823E910579F10895863EAD
:1024A0009105D9F1873E910509F43EC0843E91051E
:1024B00041F52091950221FF24C08091940284FD72
:1024C00019C087EE90E0089520919402237009F0DE
:1024D0005AC02091950223FF14C089E290E008952C
:1024E0002091940220FD38C03091950230FF09C040
:1024F00024FF43C090E080E008952091940222FDE3
:10250000F7CF08952091940222FD3AC030919502B0
:1025100030FD39C024FFF5CFEDCF2091940223FF89
:10252000F0CF24FDE7CFCDCF2091940223FD2EC024
:102530003091950231FFEECF84EE90E00895209126
:10254000940225FFDECFC9CF2091940225FD21C042
:102550002091950223FFD5CF89E390E0D2CF20913F
:10256000940226FFCECF8AE290E008952091940253
:1025700026FFC7CF81E390E0089583EE90E00895B1
:1025800082EE90E0089580EE90E0089586EE90E06F
:10259000089585E390E00895972F7430B8F46A3079
:1025A000A8F48830B0F470E02AE0929F600D711DAD
:1025B0001124FB0198E2899FE00DF11D1124EE0F1B
:1025C000FF1FE457FB4E85919491089580E090E0C1
:1025D000089581E0FCCF1F93CF93DF930E942A12CE
:1025E000EC01C11580E5D807F0F5C11580E4D807E6
:1025F00008F09CC0C03ED10520F5CD3CD10508F0C7
:1026000082C0C83AD10578F4C53AD10508F073C044
:10261000C130D10519F1209709F1C430D105F0F48A
:10262000D0E0C0E01BC0C33CD105D0F7C85AD0E011
:10263000CC0FDD1FCB5CDE4F0990D881C02DD46458
:102640000DC0C11580E2D80708F0D1C0C11581E0E6
:10265000D80708F05AC0C83ED10510F7CE01DF9167
:10266000CF911F910895C03682E5D80718F5C03480
:1026700082E5D80708F06BC0C03282E5D80708F0C1
:102680005FC0C11582E5D80708F497C02C2F2695A6
:10269000269580E2289F900111248C2F8370C1E041
:1026A000D0E002C0CC0FDD1F8A95E2F7C22BD32BFE
:1026B000DD68D4CFC03A82E5D80760F4C03882E53F
:1026C000D80708F459C0CF71D0E0DC2FCC27C46FF5
:1026D000D06AC4CFC03C82E5D80708F462C0C03ECF
:1026E00082E5D80708F09CCFDC2FCC27CC27DF7100
:1026F000C06FD06AB3CFC55AD0E0CE5CDE4FC88180
:10270000D0E0D064ABCFD065A9CF8D2F0E94E71168
:10271000182FCE0199270E942A12C12FD0E0DC2F5A
:10272000CC27CC27DF71C82BD92B98CFCE01992786
:102730000E942A12CC27DF70C82BD92BD06A8ECFEB
:10274000CF71D0E0DC2FCC27C16FD06A87CF2C2F80
:1027500026952695277080E2289F900111248C2FC2
:102760008370C1E0D0E002C0CC0FDD1F8A95E2F794
:10277000C22BD32BDC6872CF2C2F26952695277081
:1027800080E2289F900111248C2F8370C1E0D0E05B
:1027900002C0CC0FDD1F8A95E2F7C22BD32BDA687B
:1027A0005DCF8C2F8F710E94E711C82FD0E0DC2FF6
:1027B000CC27CC27DF71D06251CF8C2F8F710E9434
:1027C000E71155E0D695C7955A95E1F7CF70D0E05F
:1027D000DC2FCC27282F30E084FF05C044E0220FF7
:1027E000331F4A95E1F7C22BD32BD06937CF8D2FFA
:1027F0008F710E94E711182FCE0199270E942A128B
:10280000C12FD0E0DC2FCC27CC27DF71C82BD92BF0
:10281000D2CF809590918502982390938502089558
:1028200080959091860298239093860208958091D6
:10283000FE029091C502981301C008958F5F8770C2
:10284000FACFB0E0A0E0E7E2F4E10C94662C7C0162
:1028500000914D0210914E028091F2019091F3018E
:10286000082B192BCFE0D0E0CC24C394D12CBC2E64
:10287000C6010C2E02C0880F991F0A94E2F780232C
:102880009123892B49F4219790F7B12C8B2DCDB74B
:10289000DEB7E9E00C94822CB7018C2F0E94CC1299
:1028A0000E94EB12019779F3F1CFCF93DF93EC0104
:1028B0000E942114BE010E94CC120E94EB12DF91F3
:1028C000CF910895943078F58A3068F5E82FF0E0DC
:1028D0008AE0989FE00DF11D11249E2F977083E0F0
:1028E000F695E7958A95E1F7EE0FFF1FEE0FFF1FB4
:1028F000E855FE4F50E040E080E0219130E0092EA5
:1029000002C0369527950A94E2F721703327042EEA
:1029100001C0220F0A94EAF7822B4F5F5F4F4430C9
:10292000510559F7089580E00895943098F58A305C
:1029300088F5E82FF0E08AE0989FE00DF11D112462
:102940008E2F877041E001C0440F8A95EAF783E03B
:10295000F695E7958A95E1F7EE0FFF1FEE0FFF1F43
:10296000E855FE4F30E020E070E05191DF01119713
:10297000CB01022E02C0969587950A94E2F78170EA
:1029800081958527842385278C932F5F3F4F2430A3
:10299000310559F7089590934E0280934D020895A2
:1029A00021E030E002C0220F331F8A95E2F7209524
:1029B000309580914D0290914E02822393230E9484
:1029C000CB1408959091C301809589238093C3010E
:1029D000282F277069F4891759F09091950292FF7A
:1029E00007C08695869586950E94D0141092C301E3
:1029F000089521E030E002C0220F331F8A95E2F7EC
:102A000080914D0290914E02822B932B0E94CB1409
:102A100008959093F3018093F2010895FC012481BD
:102A20002223C1F0808191810E94551492959F705C
:102A3000963091F058F4925F9F70923058F4803F36
:102A400019F030F4883E30F481E008959A5FF4CFB5
:102A5000843FD1F380E00895883EB0F3813FD1F701
:102A6000F3CFA6E0B0E0E7E3F5E10C946C2C26E0B0
:102A7000FC01DE01119601900D922A95E1F7FC010F
:102A8000258189819A81222399F0662389F00E9409
:102A90002114182F682F89819A810E9495146981C9
:102AA0007A81812F0E94CC122696E3E00C94882C28
:102AB0000E946214182FF3CF892F817088600895C7
:102AC00080914C028531F8F48091A50190E0019647
:102AD00065E070E00E94A02C8093A50124E030E026
:102AE000281B390B4CE752E0249FC001259F900D15
:102AF000349F900D1124805E974F0E94260F0895F9
:102B000084EA95E0FACF8832D8F38091A40190E06E
:102B10000196817099278093A40121E030E0281B61
:102B2000390B4CE752E0249FC001259F900D349F44
:102B3000900D112484559F4FE0CFCF93DF93C09128
:102B40000805D09109058A30C1F42091FF02CE0119
:102B500082509340622F70E00E94492C281B822FE4
:102B600066E00E94942CC82FC15018F4DF91CF91D9
:102B7000089580E20E949D15F7CF8D30E9F4C25090
:102B8000D3402091FF02622F70E0CE010E94492CB9
:102B9000281B822F9E01280F311D2115324018F06D
:102BA00080E0D0E0C0E0C80FD11DCE5FDC4FD093F5
:102BB0000905C0930805DACF96E0FE01A2E0B5E072
:102BC00001900D929A95E1F7803E08F458C086E096
:102BD000FE0111928A95E9F7C0910805D091090587
:102BE00046E050E0BE0182E095E00E94262D9E0165
:102BF00022503340892B41F1C90145E096958795D4
:102C00004A95E1F741E050E0BA0102C0660F771F34
:102C10008A95E2F7CB016091000370910103862B46
:102C2000972BB9016B5F7F4FE5E076956795EA9545
:102C3000E1F702C0440F551F6A95E2F7842B952BEC
:102C400090930103809300032A5F3F4F4091FF025E
:102C5000642F70E0C9010E94492C481B463010F4D3
:102C6000240F311D211572E0370710F030E020E00D
:102C70002E5F3C4F309309052093080577CFF6E08F
:102C80008F9FB00111246655774E46E050E0CE018B
:102C90000E941D2DA1CFCF93DF93EC01FE01849103
:102CA000811103C0DF91CF9108950E949D15219657
:102CB000F5CF8091860290918502892B80938401C3
:102CC0009091E4019923A1F0892B80938401809154
:102CD0002C018823E1F18091940287FF38C08EE1B6
:102CE000E6E8F1E090E08150A0F591111092E40146
:102CF00040E250E064EC71E084E891E00E94262D0F
:102D0000892B21F180E2E4E8F1E0A4ECB1E001904C
:102D10000D928A95E1F7E0918B02F0918C02309749
:102D2000A9F080912C01882359F08091940287FFAB
:102D300007C0809184018093850186E0809384019F
:102D40000280F381E02D84E891E00995089586E002
:102D5000C7CF2191222339F29F5FC5CFCF93DF9355
:102D6000EC01EA85FB85309719F06C857D85099526
:102D70008B810E9409148C810E9410140E945916A4
:102D800086E0FE0111928A95E9F7DF91CF910895CF
:102D9000CF93DF93EC018D8181FD18C082608D831C
:102DA000809185029B81892B809385028091860288
:102DB0009C81892B809386020E945916E885F985AB
:102DC000309721F06C857D85CE010995109288029F
:102DD000109287028D8180FD03C0CE010E94AE1645
:102DE000DF91CF9108951092860280912C01E6E840
:102DF000F1E08823B1F08091940287FF12C08EE148
:102E0000DF011D928A95E9F790E080E00E949C1115
:102E100090E080E00E947711109285020E9459167E
:102E2000089586E0EDCFAAE2B0E0E9E1F7E10C9485
:102E30006C2C8DEB92E02091F100FC012193CF01ED
:102E4000F2E0853C9F07B9F78091BE02833009F418
:102E500070C0B8F4813009F447C0823009F4B1C0C1
:102E60008091E80083FF7EC28091BD029091BE02F6
:102E70009A3008F077C2E92FF0E0E75EFF4C0C943F
:102E8000F52C8A3009F48CC08B3009F46FC089307E
:102E900039F78091BD02813219F78091C10290917A
:102EA000C2020297E8F68091E800877F8093E800ED
:102EB0008091E80082FF38C09091F3008091F20089
:102EC000029731F48091F100813011F0863021F4C5
:102ED0008091F100809398028091E8008B77809335
:102EE000E8000E94ED0FBCCF8091BD02813A09F04D
:102EF000B7CF8091E800877F8093E8008091C1027E
:102F00009091C202892B61F460E289E992E070E05D
:102F10000E9499108091E8008B778093E800A0CF01
:102F200060E090E080E0F3CF8091BB028111C0CFE0
:102F300097CF8091BD02813A09F092CF8091C10272
:102F40009091C202892B09F08BCF8091E800877F96
:102F50008093E8008091E80080FFFCCF80912C01F5
:102F60008093F1008091E8008E77B9CF8091BD0207
:102F7000813209F075CF8091C1029091C202892BF4
:102F800009F06ECF8091E800877F8093E8000E946F
:102F9000ED0F8091BF0280932C010E94F31660CF49
:102FA0008091BD02813209F05BCF8091E800877F7C
:102FB0008093E8000E94ED0F8091C00280939702F9
:102FC0004FCF8091BD02813A09F04ACF8091E8004D
:102FD000877F8093E8008091E80080FFFCCF80919C
:102FE0009702BECF803899F0823809F0BBC180913A
:102FF000C1028F70873008F0B5C18093E9008091DD
:10300000EB0085FB882780F91092E90006C08091CB
:10301000B9029091BA02911182609091E800977F75
:103020009093E8008093F1001092F1008091E80005
:103030008E7794C1882309F482C1823009F092C14D
:103040008091BF02811185C18091C1028F702FEFE5
:10305000280F263008F086C18093E9002091EB000C
:1030600020FF77C1933031F48091EB008062809330
:10307000EB006FC19091EB0090619093EB0021E029
:1030800030E001C0220F8A95EAF72093EA001092FF
:10309000EA008091EB008860EACF811163C1109152
:1030A000BF021F778091E3008078812B8093E3003B
:1030B0008091E800877F8093E8000E94ED0F809167
:1030C000E80080FFFCCF8091E30080688093E300FC
:1030D00082E0111183E08093BB0244C180588230AA
:1030E00008F040C18091BF029091C0028C3D23E066
:1030F0009207A1F583E08A838AE289834FB7F89427
:10310000DE01139620E03EE051E2E32FF0E0509321
:103110005700E49120FF03C0E295EF703F5FEF702E
:103120008E2F90E0EA30C0F0C7968D939D932F5F6D
:10313000243159F74FBF8091E800877F8093E800E2
:103140006AE270E0CE0101960E9499108091E80039
:103150008B778093E80006C1C096E7CF4091C1020B
:103160005091C202292F33272330310509F444C07E
:1031700078F52130310509F46FC08BE390E0EBE284
:10318000F8E12230310509F0EDC02091E800277FF9
:103190002093E8002091C3023091C4028217930764
:1031A00008F49C0140E02115310509F064C041118B
:1031B00062C08091E80082FDC9CF8091BB02882364
:1031C00029F2853019F28091E80083FFF2CFBECF5B
:1031D00021323105A9F12232310509F0C3C0411570
:1031E000510509F443C04130510509F0BBC08DE6DB
:1031F00090E0EEE7F7E1C9CF992781309105C1F062
:10320000009759F0029709F0ADC0E8E7F8E1E491C2
:103210008E2F90E0E8E7F8E107C0E6EAF8E1E491F4
:103220008E2F90E0E6EAF8E1009709F49BC0ADCF5D
:10323000ECE8F8E1E4918E2F90E0ECE8F8E1F4CFCF
:103240004115510571F04130510509F08BC089E0FD
:1032500090E0E6E5F8E199CF82E190E0E6E6F8E17A
:1032600094CF89E090E0EDE3F8E18FCF80E490E047
:10327000EBEEF7E18ACF8091BB02882309F466CF99
:10328000853009F463CF8091E80083FD5FCF8091A2
:10329000E80082FD8ECF8091E80080FF84CF90917E
:1032A000F3008091F2002115310519F08830910565
:1032B00050F041E0089709F040E08091E8008E77F7
:1032C0008093E80070CF44914093F10031962150F3
:1032D00031090196E8CF803809F044C08091E800B8
:1032E000877F8093E8008091BC028093F1009ECE9E
:1032F000811138C01091BF021230A0F58091E80012
:10330000877F8093E8001093BC020E94ED0F112389
:1033100011F084E005C08091E30087FDFACF81E0E1
:103320008093BB0242E061EC81E00E940C1042E21B
:1033300061EC82E00E940C108091BB0213C080916E
:10334000BF02813079F481E0933009F080E080930E
:10335000BA021092E9008091E800877F8093E8002C
:103360000E94ED0F8091E80083FF0AC08091E80081
:10337000877F8093E8008091EB0080628093EB0070
:10338000AA96E3E00C94882C882321F00E9409146B
:103390000E9459160895882339F090918502982B40
:1033A000909385020E9459160895882321F00E9467
:1033B00010140E9459160895882339F090918602BE
:1033C000982B909386020E9459160895882351F1F4
:1033D0009CEF980F913A40F4682F84E891E00E94A6
:1033E00018110E945916089590E2980F983050F4E1
:1033F000877091E001C0990F8A95EAF7892F0E94A2
:103400001014EFCF9BE5980F933028F490E080E004
:103410000E949C110895885A8B3120F490E080E03E
:103420000E9477110895CF93C82F8823D9F18CEF8C
:103430008C0F813AC8F580912C01882311F180917D
:10344000940287FF1EC0EC2FE695E695E695F0E026
:10345000EC57FE4F828190E04C2F477021E030E026
:1034600002C0220F331F4A95E2F782239323892B50
:1034700091F06C2F84E891E00E9418110E94591677
:103480000AC0E6E8F1E08CE891E02191C21789F3E7
:103490008E179F07D1F76C2F84E891E00E944211AC
:1034A0000E945916CF91089580E28C0F883068F4FD
:1034B000C77021E030E001C0220FCA95EAF7809181
:1034C0008602822B80938602EBCFEBE5EC0FE33094
:1034D00040F4F0E0EE5CFE4F808190E00E949C1191
:1034E000E1CFC85ACB31F0F6EC2FF0E0EE0FFF1F22
:1034F000EB5CFE4F808191810E947711D3CF0F93B7
:103500001F93CF93DF93EC01FC0101900020E9F7BA
:103510008F0101501109C017D10728F0DF91CF9119
:103520001F910F91089589910E949D15F4CF0F93DB
:103530001F93CF93DF938B01EA019091BB029430EC
:1035400061F58093E9008FEF9091E800815095FD3F
:1035500006C095ED9A95F1F700008111F5CF8091A5
:10356000E80085FF1AC00E94BC0F811111C0809134
:10357000E80085FD06C08091E8008E778093E80022
:10358000F2CFF80181918F018093F100219779F7B3
:103590008091E8008E778093E800DF91CF911F91B2
:1035A0000F91089543E050E0BC0182E00E94971A19
:1035B0000895CF93DF93EC0180912C01811111C00C
:1035C00048E050E0BE0181E00E94971A80E2FE01CF
:1035D000A9E9B2E001900D928A95E1F7DF91CF91D0
:1035E00008958091940287FF05C040E282E050E098
:1035F000BE01EACF48E081E0FACF1F93CF93DF937B
:10360000182FEB010E94131A209739F4812F0E9482
:10361000E619DF91CF911F9108958FE99FE00197FF
:10362000F1F700C000002197EFCF0E94F3162FEFB3
:1036300084E39CE0215080409040E1F700C000000E
:1036400088E19AE00FB6F894A895809360000FBEC9
:1036500090936000FFCF0F931F93CF93DF93C82FFA
:103660008B010E945C15D82F0E94CB198C2F0E94D1
:10367000131A0115110559F48C2F0E94E6198D2F8C
:103680000E94C419DF91CF911F910F9108958FE986
:103690009FE00197F1F700C0000001501109E9CF48
:1036A000FC018281813031F470E060E089E20E94A7
:1036B000FD1A0895823021F470E060E083EEF7CFC8
:1036C000833031F470E060E087E398E00E942B1BC8
:1036D0000895FC018281813031F470E060E089E27C
:1036E0000E94FD1A0895823039F470E060E08CE2A7
:1036F00098E00E942B1B08958330E9F770E060E0AA
:103700008CE299E0F6CFB0E0A0E0E9E8FBE10C94B0
:10371000672C6C017B0164E670E088E70E94632BF4
:103720008C01E601EC0CFD1C17FD0BC0FE01849121
:1037300064E670E00E94CF2B8C012196CE15DF0548
:1037400099F70E94452C81E00115110509F080E0F0
:10375000CDB7DEB7E8E00C94832C80918002909185
:103760008102911103C091E089270895882369F0AF
:1037700062E070E08CE797E10E94831B811103C037
:103780008091800208951092800280918002EBCF98
:10379000CF93C0918002809181028823D1F00E9452
:1037A0000C11605A75418F4F9F4F60937C0270934C
:1037B0007D0280937E0290937F02C11108C062E077
:1037C00070E08AE797E10E94831B811105C0C091D8
:1037D00080028C2FCF91089581E080938002F7CFF3
:1037E0009091950292FB222720F9281779F080FB0F
:1037F00092F990939502609194027091950284E001
:1038000090E00E94013082E00E94E21408951F922D
:103810000F920FB60F9211242F933F934F935F9304
:103820006F937F938F939F93AF93BF93CF93DF93C8
:10383000EF93FF93D091E900DF708091EC00C82FE7
:10384000C17080FDC0E81092E9008091F000877F90
:103850008093F00078940E9413171092E9008091F1
:10386000F00088608093F000CD2BCF70C093E9000A
:10387000FF91EF91DF91CF91BF91AF919F918F9188
:103880007F916F915F914F913F912F910F900FBE5C
:103890000F901F9018951F920F920FB60F92112440
:1038A0002F933F934F935F936F937F938F939F9348
:1038B000AF93BF93EF93FF938091E10082FF09C024
:1038C0008091E20082FF05C08091E1008B7F8093B0
:1038D000E1008091DA0080FF24C08091D80080FF51
:1038E00020C08091DA008E7F8093DA008091D90029
:1038F00080FF9DC080E189BD82E189BD09B400FEE1
:10390000FDCF81E08093BB0280919602811109C0B6
:103910000E949D0F0E943E108091E200846080937F
:10392000E2008091E10080FF17C08091E20080FFFB
:1039300013C08091E2008E7F8093E2008091E200CC
:1039400080618093E2008091D80080628093D800EB
:1039500019BC85E08093BB028091E10084FF2BC0FD
:103960008091E20084FF27C080E189BD82E189BDAA
:1039700089B5982F917080FFFBCF8091D8008F7D03
:103980008093D8008091E1008F7E8093E100809148
:10399000E2008F7E8093E2008091E200816080935C
:1039A000E2008091BC02882309F447C084E0809340
:1039B000BB028091BB028091E10083FF27C0809110
:1039C000E20083FF23C08091E100877F8093E100C4
:1039D00082E08093BB021092BC028091E1008E7F56
:1039E0008093E1008091E2008E7F8093E2008091DD
:1039F000E20080618093E20042E060E080E00E94AB
:103A00000C108091F00088608093F000FF91EF919E
:103A1000BF91AF919F918F917F916F915F914F91E6
:103A20003F912F910F900FBE0F901F90189519BCCA
:103A30001092BB021092960274CF8091E30087FD32
:103A400093E09093BB02B5CF78941F921FB61F925C
:103A500011248F939F93AF93BF9380919002909185
:103A60009102A0919202B09193020196A11DB11D05
:103A70008093900290939102A0939202B09393024C
:103A8000BF91AF919F918F911F901FBE1F9018956E
:103A90009C014FB7F8948091900290919102A0916F
:103AA0009202B09193024FBF821B930B08952FB7E0
:103AB000F8948091900290919102A0919202B0911D
:103AC00093022FBF0895B0E0A0E0E9E6FDE10C9479
:103AD000672C6B01C42FD22FFC0185818823A9F0AC
:103AE000409384020E94571D909383028093820228
:103AF000C77081E001C0880FCA95EAF70E94DC19FF
:103B0000CDB7DEB7E8E00C94832C10918402141337
:103B100039C080918202909183020E94481D7C01ED
:103B2000C6010E94690FE816F90660F5C0E2CD0FE4
:103B30001D17C1F080E2810F883048F4177081E0D2
:103B4000012E01C0880F0A94EAF70E94D519C830E7
:103B500048F481E09D2F977001C0880F9A95EAF78D
:103B60000E94DC1970E060E0802F0E94FD1AC830CE
:103B700038F6D77081E001C0880FDA95EAF70E9425
:103B8000D519BECFC77081E001C0880FCA95EAF78A
:103B9000F6CFA8E0B0E0EFECFDE10C94632C8E01D1
:103BA0000F5F1F4F88E0F80111928A95E9F79BE6B5
:103BB000E92E91E0F92E6801AA24A394B12CF70113
:103BC00081917F018F3F09F446C0F894E82FE29578
:103BD000EF70F0E021A18F70A50102C0440F551FC6
:103BE0008A95E2F7CA01922F982B91A392A1809512
:103BF000892382A3789400C0EFE6F1E021E030E071
:103C0000912C812C41914F3F09F467C0A42FA295BC
:103C1000AF70B0E090968C9190E04F7002C0959597
:103C200087954A95E2F780FD58C0C901882A992AEC
:103C3000220F331F51E0E937F50721F7F7013197DC
:103C400080818F3F11F00E94D01180EA8A95F1F7B0
:103C5000F60191828082F2E0CF0ED11C4FE6E4168D
:103C600041E0F40609F0ABCF48E050E0B8018AEE3D
:103C700091E00E94262D892B99F188E0F801AAEEA7
:103C8000B1E001900D928A95E1F781E08093E9011E
:103C90000E94571D9093E8018093E7018091E7010E
:103CA0009091E8010E94481D0597F0F048E050E02F
:103CB0006AEE71E084EF91E00E94262D892BC9F015
:103CC00088E0EAEEF1E0A4EFB1E001900D928A9570
:103CD000E1F781E01092E90108C090E080E0A6CF12
:103CE0008091E9018111DACF80E02896ECE00C9414
:103CF0007F2C80E0EFCFB0E0A0E0E1E8FEE10C94A3
:103D0000652C7C01DC0114968C91882309F4F5C0A4
:103D100061E0C7010E943115EC01F701858188231C
:103D200009F180918702909188020097D9F0C81715
:103D3000D907C1F0FEE08F9FC0011124FC01E35FB1
:103D4000FE4F208124602083885F9E4FDC01CD934D
:103D5000DC930E94C8161092850261E0C7010E94A0
:103D60003115EC01F7012581222309F1CE019A9545
:103D700081159F4408F08BC0CE019927AC014450B7
:103D800051094432510518F08B970E9780F4E09159
:103D90000D02F0E0EE0FFF1FEE5EFD4F808191817E
:103DA0008F3F3FE7930719F0019691838083CE01FF
:103DB00097558F3F910511F008F07DC06E01DD240D
:103DC0008EE0C89FF00111248F01085F1E4FE35F52
:103DD000FE4F808120FB80F98083222309F463C099
:103DE0000E94571D9093060280930502D8011296F7
:103DF0008C9112978F5F12968C9312978091850207
:103E000090918602892B13968C9313978091E401ED
:103E100014968C9314971696ED91FC911797309702
:103E200029F01C966D917C91C80109958EE08C9DBE
:103E3000F0018D9DF00D1124E85FFE4F858181FF1B
:103E40002FC090E080E09093870280938802D70192
:103E500015968C91882309F4C1C310928402CE0177
:103E60009057839708F0A4C384E090E00E94CD2F80
:103E70009093950280939402FE01E150F047E23264
:103E8000F10508F063C0ED5DFF4C0C94F52C90E05B
:103E900080E0CF3FD10511F008F070CFCE016ECF9A
:103EA0009C2F8D2FD0CFF801858181FFD0CFC80105
:103EB0000E94AE16CCCFFE01E851FC47E730F10579
:103EC00030F6EB5BFF4C0C94F52C06E221EE41EE54
:103ED0006AE17CE7C7010E94631D8091C30187707E
:103EE00061F0D70115968C91882339F08091950265
:103EF00082FF03C082E00E94E214CDB7DEB7EAE0A1
:103F00000C94812C07E225EE45EE6BE17CE7E2CFD5
:103F100006E221EE40EE68E17CE7DCCF07E225EE29
:103F200044EE69E17CE7D6CF06E221EE42EE6CE199
:103F30007CE7D0CF07E225EE46EE6DE17CE7CACF05
:103F400008E221E045EE6EE17CE7C4CF8091940267
:103F500081608093940295C08091950288608093DF
:103F600095028FC0809194028260F3CF8091940279
:103F70008460EFCF809194028860EBCF80919502AE
:103F80008160EDCF809195028260E9CF80919402AB
:103F90008061DFCF809194028062DBCF80919402B8
:103FA0008064D7CF0E94F316809194028068D1CFAD
:103FB000809194028C60CDCF809195028360CFCFA9
:103FC000809194028E7FC5CF80919502877FC7CF65
:103FD000809194028D7FBDCF809194028B7FB9CF69
:103FE00080919402877FB5CF809195028E7FB7CF65
:103FF000809195028D7FB3CF809194028F7EA9CF5F
:10400000809194028F7DA5CF809194028F7BA1CF68
:104010000E94F316809194028F779BCF8091940237
:10402000837F97CF809195028C7F99CF8091940266
:1040300082FB992790F921E0922790FB82F990FB6F
:1040400083F987CF80919502982F909591708E7FFC
:10405000892B90FB81F983CF90919402892F8F7BDC
:1040600096FF806476CF0E94F31690919402892F78
:1040700097FB87F980586DCF61E08EE090E00E9459
:10408000E32F609194027091950284E090E00E9489
:1040900001300E94F31621CF60E0EFCF909194029F
:1040A000892F8F7E94FF806154CF90919402892F45
:1040B0008E7F90FF81604DCF90919502892F877FF1
:1040C00093FF88604CCF0E94F316BFEFE4E3FCE05F
:1040D000B150E040F040E1F700C000000E94FB104A
:1040E0006FEF7FEF90E080E00E9401300E94151B8F
:1040F0008091950282FB882780F991E089270E94B0
:10410000F01BF7018581C081D181882309F44CC05F
:10411000CE010E942114182F682FCE010E94951401
:10412000BE01812F0E94CC120E94EB12D82FC92F02
:10413000A82ED7011596CC9015971696BC90B294E0
:104140009FE0B9228091C3018770E9F00C2DCC204B
:10415000D9F08C2F807F803451F080E28D0F883031
:1041600090F0B11004C08C2F807E803261F080917D
:10417000950282FF08C082E00E94E2148091C30190
:10418000877001E009F000E0DC2ED2948FE0D822A5
:10419000BBE0BD1508F465C0ED2DF0E0E45BFF4C1D
:1041A0000C94F52C80E0ABCFCE010E946214182F46
:1041B000B7CF1C2F1F70C07F11F01295107FCC203D
:1041C000B9F0112369F080E28D0F883010F0A11052
:1041D00009C080918602182B109386020E945916FE
:1041E0008D2F3DC080918502182B10938502F6CF4C
:1041F0008D2F0E94E6191123A1F1D05E812FD830B6
:1042000010F0A11003C00E94101402C00E940914F3
:104210000E94591626C01C2F1F70C07FC03211F09B
:104220001295107FAA2059F0E1E0AE1609F472C091
:10423000CC2009F47EC0BB2009F441C0D1CF8091CD
:10424000950282FD38C0CC2079F1112339F080919C
:104250008602182B109386020E94591680E00E9455
:10426000131AAD2DA850BB0B149710F40E94C11166
:104270000023A9F08091C30180FD11C0F7011582D0
:104280008695869586950E94F914C7010E947B1E2B
:104290008091C3018695869586950E94D01460E032
:1042A000C7010E94311529CE80E00E94E619112332
:1042B000C1F2812FA8CFCC2099F0B11004C0812F7A
:1042C0000E94DC19CECFF1E0BF12CBCF8091E40188
:1042D000912F9823191729F2182B1093E401C1CFBD
:1042E000B110BFCF812F0E94D5199091E401812F89
:1042F000892329F0812F809589238093E40180917F
:10430000A701912F982309F4ACCF1095182310938F
:10431000A701A7CFCC2029F025E02B1508F4A1CFC9
:10432000CECF34E03B1508F49CCF812F0E94D519E5
:1043300098CFBB20D1F389E3A81209C09FEFA7EE65
:10434000B3E09150A040B040E1F700C000008D2FD5
:104350000E94E61986CF8C2F86958695837069F02A
:10436000813009F07ECF8D2F9C2F9370C11002C039
:1043700080E090E00E94771174CF8D2F9C2F937076
:10438000C11002C080E090E00E949C116ACF8C2F87
:10439000837009F03FC0C11064CF4D2F4295469500
:1043A0004770440F440F2D2F2F7030E0042E02C0B1
:1043B000220F331F0A94E2F790E080E0D4FF09C097
:1043C0008FE090E002C0880F991F4A95E2F7809530
:1043D0009095C695C695C370C23099F078F4409117
:1043E000F2015091F301C13039F0822B932B8423D9
:1043F00095230E94091535CF242B352B822B932B27
:10440000F8CF822B932B2091F2013091F301822778
:104410009327EFCF8695CC2011F08C2F81708823C5
:1044200009F41FCF4D2F429546954770440F440F16
:104430002D2F2F7030E0042E02C0220F331F0A945C
:10444000E2F790E080E0D4FF09C08FE090E002C086
:10445000880F991F4A95E2F780959095C695C69565
:10446000C370C23099F078F440914D0250914E02E1
:10447000C13039F0822B932B842395230E94CB14D7
:10448000F0CE242B352B822B932BF8CF822B932B22
:1044900020914D0230914E0282279327EFCFCF70AB
:1044A000CC2029F08C2F0E94F9148D2F09CF8D2F4D
:1044B0000E94D5198C2F0E94D014D3CE8D2FE2EFFD
:1044C000AE1699F1EA1570F0F0EFAF16D1F021EFCA
:1044D000A21691F0CC2009F45BC0B11081CE8C2FD4
:1044E0008F7127C033EFA31639F194EFA912F2CFE1
:1044F0008091950282FD2EC08C2F8F71CC20D9F235
:1045000018C0CC2069F0A4E0AB1508F4AACECF7196
:1045100081E090E002C0880F991FCA95E2F7B8CFFA
:10452000B5E0BB1508F49DCEF2CF8C2F8F71C11072
:10453000C2CF0E94F91495CE90E080E0CC2009F41F
:104540009DCFCF7181E090E002C0880F991FCA957E
:10455000E2F794CFCC2089F0CF718C2F0E94F91410
:104560008091950282FF07C0E8E0CE9FC001112430
:1045700083608093C3018C2FDCCF81E00E94E21422
:10458000F1E0FB1508F06DCE82E00E94E21469CEE6
:10459000BB2059F0893309F0DACE2FEF37EE83E0F4
:1045A000215030408040E1F7D0CE8C2F8F7183CFE7
:1045B000C631FCE7DF0701F5809186028A7A91E037
:1045C00009F490E09093A60169E2811165E384E823
:1045D00091E00E9442110E9459167FCCC631DC47FF
:1045E00009F08FCD8091A60169E2811165E384E82D
:1045F00091E00E941811EFCFC3303CE7D30709F4D4
:104600006FCD50F4C1159CE7D90709F45CCDC130DA
:10461000DC4709F46BCD75CDCB35BCE7DB0709F47E
:10462000C1CDCC35ECE7DE0709F462CDCA35DC47F5
:1046300009F067CD81E063CDB0E0A0E0E2E2F3E213
:104640000C94682C8091C201807F09F051C0809148
:10465000C101882309F44CC0E091FE0287E0D82E06
:104660008091C5028E1709F443C00E2F10E0ED9D16
:10467000F0011124EA53FD4F84818823F1F1D09E8B
:10468000E001D19ED00D1124FE01EA53FD4F91812E
:104690008091BD01981331C090818091BC01981325
:1046A0002CC08581811129C0E280F3808091BE01F8
:1046B0009091BF01E81AF90A60E08CEB91E00E944A
:1046C00031150E94690FE816F906B8F48091C2010D
:1046D0008F7080618093C201C453DD4F88818F70D9
:1046E000806188838CEB91E00E947B1E0E941714EE
:1046F000CDB7DEB7E7E00C94842CF8013196E77073
:10470000AFCFA4E1B0E0E7E8F3E20C94602C8C01B9
:1047100086E0F801DE011F9601900D928A95E1F77F
:10472000D80114967C9014971596EC908CEBA82EDB
:1047300081E0B82E8091C00181112AC0711003C0A0
:10474000FF24F3941CC0EE20F9F0C8010E940E155E
:10475000F82E8823C9F087E0F801ACEBB1E00190B6
:104760000D928A95E1F78091C001813031F48091FA
:10477000BC019091BD010E9455140E941C238F2DF5
:104780006496EFE00C947C2CC8010E947B1ED8CF6D
:10479000F801C280D380F090C1018091BE01909158
:1047A000BF014601881A990AFF2009F4F8C0508019
:1047B000618060E08CEB91E00E9431150E94690FEE
:1047C0008816990608F0AEC0772009F4B9CF809119
:1047D000C201382F307F2091BD01D80111969C91E4
:1047E000119731115FC0291315C02091BC019C9114
:1047F000291310C0E11050C08F7080618093C201F6
:104800008CEB91E00E947B1E8091C201F8018683AF
:10481000F12CB5CFE11040C0662D852D0E947E0F92
:10482000E82E882361F08CEB91E00E947B1E87E0EC
:10483000ECEBF1E0DF011D928A95E9F7E9CF5F86A5
:10484000688A8F8598890E945514292F22952F7088
:10485000243058F49F70223088F0992399F0F801A1
:104860009681907F79F4FE2C8ACF2A5F2F702230B8
:1048700068F0C8010E947B1EEF2CF5CF992311F040
:10488000882389F3805E883070F3F3CF803F58F33C
:10489000815F833070F7E7CF8091C20181608093A0
:1048A000C201B6CF291315C02091BC019C912913D8
:1048B00010C0E1100EC016968C93C8010E947B1E9A
:1048C00087E0F801ACEBB1E001900D928A95E1F739
:1048D00056CFC8010E940E15882309F455CFEE204B
:1048E00009F452CF8091C201803288F02091BC013E
:1048F0003091BD0139872887DB86CA869091C00137
:104900009C871D868E87CE0108960E947B1E87E0BD
:10491000F801ACEBB1E001900D928A95E1F70E94AD
:104920001C230ECF8091C201982F907F09F47BCF7A
:10493000772009F405CF2091BD01F8019181291359
:1049400011C02091BC01908129130CC0E1100AC054
:104950008683C8010E947B1E87E0D5011D928A953F
:10496000E9F70DCFC8010E940E15882309F40CCF7A
:10497000EE2009F409CF8091C201803240F22091EB
:10498000BC013091BD013A832983DC82CB829091B6
:10499000C0019D831E828F83CE010196B6CF60E059
:1049A0008CEB91E00E9431150E94690F88169906E0
:1049B00008F041C0772009F4C3CEFE2CEE2009F4A4
:1049C000E3CE9091BD01F8018181981326C09091AA
:1049D000BC018081981321C08091BE019091BF01DC
:1049E000C81AD90AF7E8CF16D10408F069CF909118
:1049F000C20190FD65CF907F09F462CF8091C20122
:104A0000D80116968C931697903F09F456CF982F9D
:104A1000907F905F8F70892B4ECFC8010E940E153A
:104A2000811175CF8091C20181608093C201C8015C
:104A30000E947B1EA4CE87E0F50111928A95E9F7CA
:104A40009ECEABE1B0E0E7E2F5E20C946C2C4E8B2D
:104A50005F8B688F798F8A8F9B8F9111109285025F
:104A60001D8A86E0FE017696DE011F9601900D926A
:104A70008A95E1F78B89882329F061E0CE010F96B2
:104A80000E94311587E0FE013F96DE0118960190E5
:104A90000D928A95E1F7CE0108960E94812381113B
:104AA0000CC087E0FE013896DE01119601900D9250
:104AB0008A95E1F78C8581110BC017E08091FE0289
:104AC0009091C502891331C06B96E3E00C94882C59
:104AD0002091C50230E0C901019687709927409165
:104AE000FE024817190699F097E0929FD001939F14
:104AF000B00D1124AA53BD4FFE01319601900D92C5
:104B00009A95E1F78093C5020E941714D6CF0E94B0
:104B1000F3161092C5021092FE0287E0ECEBF1E072
:104B2000DF011D928A95E9F7C8CF819FC00111244A
:104B30008A539D4F0E948123882331F28091FE0287
:104B400090E00196877099278093FE02B7CFA6E088
:104B5000B0E0EDEAF5E20C946B2C0E94571D8C013D
:104B60008091E5019091E6018017910781F019820B
:104B70001A820E94571D682F49815A81792F80E03F
:104B800090E00E9421251093E6010093E50126960E
:104B9000E4E00C94872C1F921FB61F9211248F9370
:104BA0009F93AF93BF9380918F02811113C0809127
:104BB000900290919102A0919202B091930241963D
:104BC000A11DB11D8093900290939102A093920237
:104BD000B0939302BF91AF919F918F911F901FBE91
:104BE0001F901895CDB7DEB72A970FB6F894DEBFA1
:104BF0000FBECDBF85B7806885BF85B7806885BF8C
:104C000084B7877F84BF0FB6F894A8958091600021
:104C1000886180936000109260000FBE80E890E091
:104C20000FB6F89480936100909361000FBE8EECF4
:104C300091E190938301809382010E949D0F0E94D5
:104C40003E108091E20084608093E200789480912D
:104C5000BB028823A1F01091E9001F709091EC0035
:104C6000892F817090FD80E8182B1092E9008091C7
:104C7000E80083FD0E9413171F701093E90082E083
:104C800084BD93E095BD9AEF97BD80936E0081E35C
:104C90000E94D01183E30E94D01182E30E94D011C0
:104CA00086E30E94D0110FE611E049E7E42E41E0CF
:104CB000F42ED8018D918D018F3F11F00E94D011FB
:104CC000E016F106B1F788E0E4EFF1E0DF01282F0C
:104CD0001D922A95E9F7EAEEF1E0DF011D928A952F
:104CE000E9F790E080E00E94CD2F863E9E4F09F4C8
:104CF00064C066EE7EEF90E080E00E94013060E0EC
:104D000082E090E00E94E32F60E083E090E00E9468
:104D1000E32F1092F3011092F20160E074E184E05D
:104D200090E00E94013060E086E090E00E94E32F76
:104D30006FEF87E090E00E94E32F40E050E0BA017F
:104D400088E090E00E94F52F60E084E290E00E940D
:104D5000E32F60E087E190E00E94E32F60E08CE0C9
:104D600090E00E94E32F60E08DE090E00E94E32F4E
:104D700019821A821B821C821D821E821F82188643
:104D800048E050E068E170E0CE0101960E94D32F28
:104D900040E050E0BA0180E290E00E94F52F40E050
:104DA00050E0BA018FE090E00E94F52F40E050E023
:104DB000BA0183E190E00E94F52F82E090E00E942A
:104DC000C52F8093FC0184E090E00E94CD2F90934A
:104DD0009502809394020E94C91DEFEFF6E721E04F
:104DE000E150F0402040E1F700C000000E94C91DE2
:104DF0008091F40180FF08C06FEF7FEF90E080E0CA
:104E00000E9401300E94FB1083E090E00E94C52FB9
:104E100090E00E9409151092790280E88093FF02C9
:104E20000E945D2B6BE070E083E297E10E94831BA0
:104E30008823E9F18091790265E070E081FDA1C0ED
:104E40008EE197E10E94831B882389F16DE070E079
:104E50008CE097E10E94831B882349F10E940C118A
:104E6000605A75418F4F9F4F60937C0270937D0213
:104E700080937E0290937F02E2E0F3E080E092E094
:104E8000DF019C011D9221503040E1F7F0930905AC
:104E9000E09308058FEF9FEF909301038093000349
:104EA00081E0809381028093800210927A0280E0F8
:104EB00091E090938C0280938B0238E1232E312C69
:104EC0008091BB0212E1853009F497C00E94C91D90
:104ED0009DEFA92E91E0B92E24EF822E21E0922E93
:104EE000D401F501219131918D919D9145E052E0E0
:104EF0004E175F0709F48BC02817390799F3712CF7
:104F000055245394D4010D911D914D01F501C1908B
:104F1000D1905F01C016D10659F1C026D126612C6F
:104F2000EE24E394F12CC7018C219D21892BB1F053
:104F300069827A820E94571D9C838B835D8291E0F7
:104F4000970120233123232B09F490E09E8349818C
:104F50005A816B817C818D810E9421256394EE0CA6
:104F6000FF1CFAE06F12DFCFF50132971183008347
:104F7000739424E07212C6CF0E940C11FF24F394A4
:104F80004DC089E197E15ECF8091BB02843021F171
:104F90000E94AD1B10928F0230E40FB6F894A895D2
:104FA000209260000FBE3093600083B7817F8460E1
:104FB00083BF83B7816083BF7894889583B78E7FE2
:104FC00083BF0FB6F894A8958091600088618093A4
:104FD0006000109260000FBE8091BA02882369F0D1
:104FE0000E94C91DE4EFF1E081919191892B09F0B4
:104FF0004DC341E0EC3FF407B9F78091BB02853027
:1050000009F4C2CF0E94F3160E94C1115FCF281786
:10501000390709F074CF0E94A725F12C009187026F
:105020001091880201151105D9F080910502909127
:1050300006020E94481D6C01C8010E94690F8C1570
:105040009D0570F43EE0039FC0011124FC01E35F65
:10505000FE4F208122FD04C0885F9E4F0E94C8162B
:105060008090120290901302092C000CAA08BB0831
:105070008091240190E0E2E1F2E021E030E032961C
:10508000821793070CF03EC180910E0290910F029F
:10509000A0911002B09111022FB7F89440909002A5
:1050A0005090910260909202709093022FBF481A24
:1050B000590A6A0A7B0A1091240149EC44165104EA
:1050C0006104710414F180910D0290E0019669E190
:1050D00070E00E94A02C80930D02880F991FFC01A4
:1050E000EE5EFD4F11821082812F183108F087E1AA
:1050F0008F5F809324010E940C1160930E027093C5
:105100000F02809310029093110252E085169104D1
:10511000A104B1040CF403C1A0E6BAEEA501940108
:105120000E94FB2C4B015C0188EC189F900111241C
:10513000032E000C440B550B240D351D461D571D29
:10514000A5E0B0E00E94FB2C9B01AC01C501B401BD
:105150000E94B42C29013A0191EF491651046104CF
:1051600071042CF0F0EF4F2E512C612C712C80919A
:10517000090290910A02A0910B02B0910C022FB784
:10518000F8948090900290909102A0909202B0903A
:1051900093022FBF881A990AAA0ABB0AA5E68A16A3
:1051A0009104A104B10484F00E940C1160930902DF
:1051B00070930A0280930B0290930C0280914C0230
:1051C000809308024092070210910802A091070202
:1051D000A11BBB0BA50194010E94062D24E630E023
:1051E00040E050E00E94D62C120F10934C028091A8
:1051F0008102882309F419C180E00E94140F112351
:1052000009F491C00E94C81B409148025091490284
:1052100060914A0270914B022FB7F89480919002EE
:1052200090919102A0919202B09193022FBF841BA2
:10523000950BA60BB70B893C9105A105B10560F054
:105240000E940C11609348027093490280934A02B5
:1052500090934B020E9460150E940C1160934402CF
:1052600070934502809346029093470280E00E942B
:10527000140F80914C021F928F938DE291E09F93C7
:105280008F938FE492E09F938F930E94332D8FE44E
:1052900092E00E947F1A81E00E94140F80914D02DB
:1052A00090914E02292F33270F900F900F900F905F
:1052B0000F900F90E0E02115310511F0C901E8E0F1
:1052C0009C0174E0369527957A95E1F72115310513
:1052D00011F0EC5FC9019C0136952795369527950D
:1052E0002115310511F0EE5FC90196958795892B3F
:1052F00009F0EF5FE83008F06AC0F0E0E85AFF4CD0
:105300000C94F52C40815181052E000C660B770B17
:10531000840E951EA61EB71E2F5F3F4FB0CE412CA8
:10532000512C320124CF40914402509145026091AA
:105330004602709147022FB7F894809190029091A5
:105340009102A0919202B09193022FBF841B950B02
:10535000A60BB70B81369A4EA105B10518F00E9435
:10536000AD1B84CF409148025091490260914A029E
:1053700070914B022FB7F894809190029091910216
:10538000A0919202B09193022FBF841B950BA60BA4
:10539000B70B893C9105A105B10508F467CF0E94C0
:1053A0000C11609348027093490280934A029093D3
:1053B0004B020E9460155ACF86E797E10E944B1678
:1053C00082E00E94140F81E797E10E944B160E9431
:1053D000C111182F83E00E94140F8EE297E111FF94
:1053E00002C08FE297E10E944B16809100039091DA
:1053F0000103892B09F06EC0809180028823A9F0F7
:105400000E940C1100917C0210917D0220917E027D
:1054100030917F02601B710B820B930B6F3F7F4FAC
:105420008F4F9F4710F40E94AD1BF1100E94C81BC4
:105430000E94C11190917B02891709F441CD80939C
:105440007B020E940C113CCD8DE697E10E944B1629
:1054500082E00E94140F88E697E1B7CF84E697E1D7
:105460000E944B1682E00E94140F80E697E1ADCFB8
:105470008CE597E10E944B1682E00E94140F87E5AD
:1054800097E1A3CF83E597E10E944B1682E00E944B
:10549000140F8EE497E199CF8AE497E10E944B16AE
:1054A00082E00E94140F85E497E18FCF81E497E1B9
:1054B0000E944B1682E00E94140F8DE397E185CF86
:1054C00089E397E10E944B1682E00E94140F84E367
:1054D00097E17BCF80918102882309F48DCF809161
:1054E0007A02811189CF0E94C81B2091000330915C
:1054F00001032115310509F47FCF80E041E050E040
:10550000882E912C3A01082E02C0660C771C0A9452
:10551000E2F7B30162237323672B11F48F5FF0CF9F
:105520009091790290FF98C0880F880F880F809320
:10553000270110922A01895F8093280183E08093DC
:105540002B0124E630E047E050E065E271E088E7B7
:105550000E94FD2B892B09F04FCF95E0880C991CF8
:105560009A95E1F78091790280FF88C0E9E5F2E041
:1055700080E2DF011D928A95E9F7EDE7F1E0FA8715
:10558000E98749E751E087E0D82ECC24C394A98568
:10559000BA852D91BA87A987FA014190AF01480CCD
:1055A000592C511CC2018E5F9C4F2C01E22FF0E060
:1055B000E75AFD4F90E080E0AD2CA81AEC2C082EA5
:1055C00001C0EE0C0A94EAF7B20100E0DB011D9184
:1055D000BD011E212A2D201B2770B22E022E000C89
:1055E000330BB12F01C0BB0FBA94EAF7BB2E319534
:1055F000219531092770332701C016952A95EAF7BE
:10560000B12A1081B12AB0820F5F0830F9F60196F5
:1056100031968830910581F6E985FA85E158F140A7
:1056200009F0B5CF04E610E020E230E049E552E0B1
:1056300060E488E70E941E2C892B09F0DDCE60947F
:1056400070948091000390910103682279227092F6
:10565000010360920003D0CE8295880F80768093FC
:1056600027019401369527953695279520932A0191
:10567000815E8093280120932B0163CFA4014E5FAC
:105680005C4F04E610E020E230E0D2CF40E149BDBB
:1056900019BD09B400FEFDCF8091D8008F7D8093A5
:1056A000D8008091E00082608093E0008091E0006B
:1056B00081FDFCCF0E94F316A0CC1092B9008CE0C3
:1056C0008093B8000895B0E0A0E0E9E6FBE20C9416
:1056D000642CB82EEB010E94571D6C01EE24E3945C
:1056E000F12CC431D10560F025E0E22EF12CCF3F42
:1056F000DC0731F0CE0164E170E00E94492C7B01AF
:1057000084EAA82E94E8992E1092BC00A092BC00C6
:105710000E94571D8C018091BC0087FF0DC08091B5
:10572000B900887F8830F9F08091B900887F803196
:10573000D1F00FEF1FEF08C0C8010E94481DE81606
:10574000F90648F70EEF1FEFCF3FDC07E9F2C6017D
:105750000E94481DC817D907B8F6C801CDB7DEB7F3
:10576000EBE00C94802CB092BB009092BC000E94A5
:10577000571D8C018091BC0087FF0AC08091B90041
:10578000887F883111F08034A1F610E000E0E5CF89
:10579000C8010E94481DE816F90660F7D3CF0F93A1
:1057A0001F93CF93DF93EB018093BB0084E880933A
:1057B000BC000E94571D8C018091BC0087FF11C066
:1057C0002091B900287F81E090E0283211F490E028
:1057D00080E0919581959109DF91CF911F910F9173
:1057E0000895CF3FDC0741F3C8010E94481DC81748
:1057F000D90710F78EEF9FEFEFCFB0E0A0E0E3E026
:10580000FCE20C94672C6B018A017901B9010E94BA
:10581000632BE6010C0D1D1DC017D10711F097FF7A
:1058200008C024E92093BC00CDB7DEB7E8E00C94B3
:10583000832CB70189910E94CF2BEECFB0E0A0E07E
:10584000E4E2FCE20C94672CC62F6A017901B801EE
:105850000E94632B97FD0CC0B8018C2F0E94CF2BA8
:10586000E601EC0CFD1CCE15DF0511F097FF08C01A
:1058700024E92093BC00CDB7DEB7E8E00C94832C7C
:10588000B80189910E94CF2BEECF84E98093BC00B0
:105890000895AA1BBB1B51E107C0AA1FBB1FA61777
:1058A000B70710F0A61BB70B881F991F5A95A9F7C9
:1058B00080959095BC01CD0108952F923F924F9213
:1058C0005F926F927F928F929F92AF92BF92CF9290
:1058D000DF92EF92FF920F931F93CF93DF93CDB799
:1058E000DEB7CA1BDB0B0FB6F894DEBF0FBECDBF11
:1058F00009942A88398848885F846E847D848C84E2
:105900009B84AA84B984C884DF80EE80FD800C81EA
:105910001B81AA81B981CE0FD11D0FB6F894DEBFCD
:105920000FBECDBFED010895991B79E004C0991F0A
:10593000961708F0961B881F7A95C9F780950895E9
:1059400097FB072E16F4009407D077FD09D00E942C
:10595000492C07FC05D03EF4909581959F4F089502
:10596000709561957F4F0895A1E21A2EAA1BBB1B6B
:10597000FD010DC0AA1FBB1FEE1FFF1FA217B3071B
:10598000E407F50720F0A21BB30BE40BF50B661F31
:10599000771F881F991F1A9469F7609570958095F5
:1059A00090959B01AC01BD01CF010895052E97FB99
:1059B0001EF400940E94ED2C57FD07D00E94B42CD9
:1059C00007FC03D04EF40C94ED2C50954095309587
:1059D00021953F4F4F4F5F4F08959095809570955B
:1059E00061957F4F8F4F9F4F0895EE0FFF1F0590DA
:1059F000F491E02D09940E940E2DA59F900DB49F67
:105A0000900DA49F800D911D11240895B7FF0C9453
:105A1000FB2C0E94FB2C821B930B0895A29FB001CC
:105A2000B39FC001A39F700D811D1124911DB29FD2
:105A3000700D811D1124911D0895FB01DC0102C030
:105A400005900D9241505040D8F70895FB01DC01BC
:105A500004C08D910190801921F441505040C8F745
:105A6000881B990B0895AEE0B0E0E9E3FDE20C94E9
:105A70006B2C0D891E8986E08C831A8309838FEF36
:105A80009FE79E838D83AE01475E5F4F6F89788D60
:105A9000CE0101960E94562D2F813885020F131FCB
:105AA000F80110822E96E4E00C94872CABE0B0E075
:105AB000ECE5FDE20C945D2C7C013B018A01FC01CC
:105AC00017821682838181FFB9C19AE0292ECE0107
:105AD00001965C01F7019381F30193FD859193FF9A
