:100000000C9426010C9443010C9443010C9443017D
:100010000C9443010C9443010C9443010C94430150
:100020000C9443010C9443010C945C140C9418142C
:100030000C9459150C9443010C9443010C94430106
:100040000C9443010C9443010C9443010C94430120
:100050000C9443010C9435150C9443010C9443010A
:100060000C9443010C9443010C9443010C94430100
:100070000C9443010C9443010C9443010C944301F0
:100080000C9443010C9443010C9443010C944301E0
:100090000C9443010C9443010C9443010C944301D0
:1000A0000C9443010C9443010C944301230254002B
:1000B000550056005F006000610057005C005D0065
:1000C0005E00000059005A005B00580062006300A7
:1000D0000000000005010902A10185020901A1003B
:1000E00005091901290815002501950875018102E6
:1000F0000501093009311581257F950275088106B2
:1001000009381581257F950175088106050C0A3887
:10011000021581257F950175088106C0C00501097A
:1001200080A101850319012AB700150126B70095A2
:100130000175108100C0050C0901A1018504190198
:100140002AA002150126A002950175108100C005A4
:10015000010906A1018506050719E029E715002513
:10016000019508750181020507190029EF15002581
:100170000195F0750181020508190129059505759C
:10018000019102950175039101C005010906A101C4
:10019000050719E029E71500250195087501810279
:1001A0009501750881010507190029FF150026FF33
:1001B0000095067508810005081901290595057542
:1001C000019102950175039101C009023B000201F2
:1001D00000A0FA0904000001030101000921110136
:1001E0000001224000070581030800010904010005
:1001F000010300000009211101000122B6000705DA
:10020000820320000112010002000000084B531479
:10021000000001010200011403530063006F007429
:100220000074006F004E0075006D0000001803534D
:100230000063006F00740074006F004B0065006580
:1002400000620073000000040309040011241FBEB3
:10025000CFEFDAE0DEBFCDBF11E0A0E0B1E0E8ED26
:10026000F2E302C005900D92A635B107D9F722E05E
:10027000A6E5B1E001C01D92A135B207E1F70E94E9
:1002800080150C942B190C940000482F20914D02DE
:100290009091140257E0291302C080E0089530E0E5
:1002A000529FF001539FF00D1124EB5EFD4F8181B1
:1002B000681306C08081481303C085818111EECF89
:1002C0002F5F3F4F2770E7CFE8EDF0E080818E7F12
:1002D00080831092E2001092DA001092E100A0EE0A
:1002E000B0E08C9181608C9380818F77808319BC82
:1002F000A7EDB0E08C918E7F8C9380818F7E808380
:100300001092E50108952091E4003091E50095E612
:10031000A9012091EC00822F817020FF06C08091FE
:10032000E80080FF06C080E008952091E80022FDEB
:100330001AC080910A02882389F0853089F0809163
:10034000EB0085FD0FC02091E4003091E5004217DD
:100350005307F9F29150E1F684E0089582E00895A0
:1003600083E0089581E0089580910C0287FF13C017
:100370008091E80082FF06C08091E8008B7780932F
:10038000E80004C080910A028111F2CF08958091A3
:100390000A028823D9F38091E80080FFF8CF80918A
:1003A000E8008E77ECCF982F9093E900242F762FDA
:1003B00050E0891731F07091EC002091ED005091E0
:1003C000F00021FD07C09F5F973071F78093E9002F
:1003D00081E008953091EB003E7F3093EB00309147
:1003E000ED003D7F3093ED003091EB0031603093B4
:1003F000EB007093EC002093ED005093F0002091FF
:10040000EE0027FDE0CF80E00895B0E0A0E0EBE053
:10041000F2E00C948B18C8EDD0E088818F7E888341
:10042000E7EDF0E080818160808384E082BF81E03D
:100430008093E50188818E7F888302EE10E0F801C9
:1004400010821092DA0081EEC82ED12CF6011082B3
:1004500088818F77888388818068888388818F7D71
:10046000888319BC10920A0210920B0210920902A2
:100470001092080290EEE92EF12CF70180818B7F1B
:10048000808388818160888342E060E080E00E9410
:10049000D301F60180818E7F8083F80180818160A5
:1004A0008083808188608083F70180818E7F808354
:1004B000888180618883CDB7DEB7E8E00C94A71807
:1004C000FC01809112029091130286179707A0F009
:1004D0006115710529F49091E8009E779093E800EA
:1004E00090E06115710551F4911108C08091E80008
:1004F00082FF34C080E00895BC01F2CF80910A02EF
:100500008823C1F18530C1F18091E80083FD30C0BE
:100510008091E80082FDEACF8091E80080FFE1CF82
:100520008091F3002091F200382F6115710519F0C8
:100530002830310558F091E02830310509F090E07D
:100540002091E8002E772093E800CBCF8191809313
:10055000F100615071092F5F3F4FE7CF80910A0290
:10056000882341F0853041F08091E80083FFBECFC1
:1005700081E0089582E0089583E008958091E70185
:10058000089587E797E7909301088093000888E132
:100590009AE00FB6F894A895809360000FBE9093F0
:1005A0006000FFCF9C014FB7F8948091DF019091DC
:1005B000E001A091E101B091E2014FBF821B930BDA
:1005C00008952FB7F8948091DF019091E001A091F8
:1005D000E101B091E2012FBF08952091080122238B
:1005E000C9F02091E30127FF15C0E62FE695E695B7
:1005F000E695EE31D8F4E80FF92FF11D677021E090
:1006000030E001C0220F6A95EAF720958281282305
:1006100022830895FC01329608962191621303C04B
:10062000DF0111971C92E817F907B9F70895209197
:1006300008012223C1F02091E30127FF14C0E62F17
:10064000E695E695E695EE31F8F4E80FF92FF11D01
:10065000677021E030E001C0220F6A95EAF78281DD
:10066000822B82830895FC0132962FEF30E0419176
:10067000641751F02F3F19F4411101C0232F3F5F40
:100680003630A9F72F3F09F40895820F911D27FDF9
:100690009A95FC0162830895A3E0B0E0E2E5F3E0FF
:1006A0000C9491182091DC013091DD012817390755
:1006B000A1F09093DD018093DC01E091DA01F091EB
:1006C000DB01309751F024E029839B838A830680E5
:1006D000F781E02DCE01019609952396E2E00C9476
:1006E000AD18A3E0B0E0E7E7F3E00C949118209197
:1006F000D8013091D90128173907A1F09093D90179
:100700008093D801E091DA01F091DB01309751F04C
:1007100023E029839B838A830680F781E02DCE0125
:10072000019609952396E2E00C94AD18E091DA0168
:10073000F091DB01309729F00190F081E02D0995CF
:10074000089580E008950E94E1029C019091D401F7
:100750008091D501982B21F03093D1012093D001C5
:100760009091D6018091D701982B21F03093CF0141
:100770002093CE01E091DA01F091DB01309749F04E
:1007800082E08093D2010480F581E02D82ED91E03A
:10079000099508958091CD0180FD16C081FD16C098
:1007A00082FD16C08091CC018823A1F0883280F4AC
:1007B00028E0829FC001112468E270E00E9467185F
:1007C000862F672B39F0089582E0089584E008951C
:1007D00088E0089581E008958091CD0180FD14C0E6
:1007E00081FD14C082FD16C08091CB01882381F069
:1007F0008E3180F420E5829FC00111246EE170E00B
:100800000E946718862F089584E1089588E208956C
:1008100088E0089580E5089580E008959091E301CF
:1008200092FF06C0282F28712830F9F4877F846052
:1008300093FF06C0282F28712831F1F4877E846148
:100840002091E40120FF06C0382F38713830D9F4E8
:10085000877F816021FF06C0282F28712831D1F4BD
:10086000877E816194FD877E0895282F247124302E
:10087000F9F68B7F8860DCCF282F2471243101F7B3
:100880008B7E8861DDCF382F3171313019F78E7F43
:100890008860E0CF282F2171213121F78E7E886179
:1008A000E1CF82389105B9F1B0F48133910509F4B3
:1008B0007DC048F48932910509F46DC08A329105F2
:1008C00009F47BC008958533910509F45FC089332D
:1008D000910509F10895833E9105D9F138F4803EE0
:1008E000910529F1823E910579F10895863E9105A1
:1008F000D9F1873E910509F43EC0843E910541F54A
:100900002091E40121FF24C08091E30184FD19C0FE
:1009100087EE90E008952091E301237009F05AC01A
:100920002091E40123FF14C089E290E00895209112
:10093000E30120FD38C03091E40130FF09C024FFFD
:1009400043C090E080E008952091E30122FDF7CFBD
:1009500008952091E30122FD3AC03091E40130FD79
:1009600039C024FFF5CFEDCF2091E30123FFF0CF75
:1009700024FDE7CFCDCF2091E30123FD2EC03091A0
:10098000E40131FFEECF84EE90E008952091E30181
:1009900025FFDECFC9CF2091E30125FD21C02091A5
:1009A000E40123FFD5CF89E390E0D2CF2091E3018A
:1009B00026FFCECF8AE290E008952091E30126FF42
:1009C000C7CF81E390E0089583EE90E0089582EE32
:1009D00090E0089580EE90E0089586EE90E008950E
:1009E00085E390E00895753088F4643078F48111DF
:1009F00010C084E0789FF0011124E60FF11DEE0F86
:100A0000FF1FE455FF4F85919491089580E090E099
:100A1000089581E0FCCF1F93CF93DF930E94510490
:100A2000EC01C11580E5D807F0F5C11580E4D807C1
:100A300008F09CC0C03ED10520F5CD3CD10508F0A2
:100A400082C0C83AD10578F4C53AD10508F073C020
:100A5000C130D10519F1209709F1C430D105F0F466
:100A6000D0E0C0E01BC0C33CD105D0F7C85AD0E0ED
:100A7000CC0FDD1FC45FDE4F0990D881C02DD46438
:100A80000DC0C11580E2D80708F0D1C0C11581E0C2
:100A9000D80708F05AC0C83ED10510F7CE01DF9143
:100AA000CF911F910895C03682E5D80718F5C0345C
:100AB00082E5D80708F06BC0C03282E5D80708F09D
:100AC0005FC0C11582E5D80708F497C02C2F269582
:100AD000269580E2289F900111248C2F8370C1E01D
:100AE000D0E002C0CC0FDD1F8A95E2F7C22BD32BDA
:100AF000DD68D4CFC03A82E5D80760F4C03882E51B
:100B0000D80708F459C0CF71D0E0DC2FCC27C46FD0
:100B1000D06AC4CFC03C82E5D80708F462C0C03EAA
:100B200082E5D80708F09CCFDC2FCC27CC27DF71DB
:100B3000C06FD06AB3CFC55AD0E0C75FDE4FC8815F
:100B4000D0E0D064ABCFD065A9CF8D2F0E940E042A
:100B5000182FCE0199270E945104C12FD0E0DC2F1D
:100B6000CC27CC27DF71C82BD92B98CFCE01992762
:100B70000E945104CC27DF70C82BD92BD06A8ECFAE
:100B8000CF71D0E0DC2FCC27C16FD06A87CF2C2F5C
:100B900026952695277080E2289F900111248C2F9E
:100BA0008370C1E0D0E002C0CC0FDD1F8A95E2F770
:100BB000C22BD32BDC6872CF2C2F2695269527705D
:100BC00080E2289F900111248C2F8370C1E0D0E037
:100BD00002C0CC0FDD1F8A95E2F7C22BD32BDA6857
:100BE0005DCF8C2F8F710E940E04C82FD0E0DC2FB8
:100BF000CC27CC27DF71D06251CF8C2F8F710E9410
:100C00000E0455E0D695C7955A95E1F7CF70D0E020
:100C1000DC2FCC27282F30E084FF05C044E0220FD2
:100C2000331F4A95E1F7C22BD32BD06937CF8D2FD5
:100C30008F710E940E04182FCE0199270E94510433
:100C4000C12FD0E0DC2FCC27CC27DF71C82BD92BCC
:100C5000D2CF80959091B00198239093B0010895E0
:100C600080914D0290911402981301C008958F5FF6
:100C70008770FACFB0E0A0E0E0E4F6E00C948A18C8
:100C80007C010091BD011091BE018091BB0190914A
:100C9000BC01082B192BCFE0D0E0CC24C394D12C7D
:100CA000BC2EC6010C2E02C0880F991F0A94E2F7D1
:100CB00080239123892B49F4219790F7B12C8B2D18
:100CC000CDB7DEB7E9E00C94A618B7018C2F0E94CF
:100CD000F3040E940B05019779F3F1CFCF93DF93D3
:100CE000EC010E943A06BE010E94F3040E940B052B
:100CF000DF91CF910895953070F5843060F524E050
:100D0000929FF0011124E80FF11D6E2F677083E0B0
:100D1000F695E7958A95E1F7EE0FFF1FEE0FFF1F9F
:100D2000E658FE4F50E040E080E0219130E0062E92
:100D300002C0369527950A94E2F721703327042ED6
:100D400001C0220F0A94EAF7822B4F5F5F4F4430B5
:100D5000510559F7089580E00895953090F5843055
:100D600080F524E0929FF0011124E80FF11D2E2F51
:100D7000277041E001C0440F2A95EAF783E0F69519
:100D8000E7958A95E1F7EE0FFF1FEE0FFF1FE6587C
:100D9000FE4F30E020E070E05191DF011197CB0170
:100DA000022E02C0969587950A94E2F7817081958C
:100DB0008527842385278C932F5F3F4F243031056F
:100DC00059F708959093BE018093BD01089521E0E5
:100DD00030E002C0220F331F8A95E2F7209530954C
:100DE0008091BD019091BE01822393230E94E2066F
:100DF000089590918D018095892380938D01282FEE
:100E0000277069F4891759F09091E40192FF07C0A7
:100E10008695869586950E94E70610928D01089525
:100E200021E030E002C0220F331F8A95E2F7809163
:100E3000BD019091BE01822B932B0E94E206089582
:100E40009093BC018093BB010895FC01248122236F
:100E5000C1F0808191810E946E0692959F709630BC
:100E600091F058F4925F9F70923058F4803F19F0DF
:100E700030F4883E30F481E008959A5FF4CF843FE7
:100E8000D1F380E00895883EB0F3813FD1F7F3CFEE
:100E9000662309F45DC08D3C41F40E94EC0381950A
:100EA0008093D5010E94A30308958E3C19F40E94FB
:100EB000EC03F6CF8F3C31F40E94EC0381958093D4
:100EC000D401F0CF803D19F40E94EC03F8CF893DA6
:100ED00029F40E94CA038093D601E4CF8A3D21F40D
:100EE0000E94CA038195F7CF8B3D31F40E94CA035B
:100EF00081958093D701D6CF8C3D19F40E94CA0307
:100F0000F8CF9FE2980F983070F4815D990B21E043
:100F100030E001C0220F8A95EAF78091D301822B3D
:100F20008093D301BFCF8D3D31F48091CD0181609D
:100F30008093CD01B7CF8E3D21F48091CD018260A9
:100F4000F7CF8F3D09F0AECF8091CD018460F0CF17
:100F50004091D4018D3C59F48091D50187FF0DC09B
:100F60001092D50141110BC01092CB0108C08E3CEC
:100F700081F48091D50118169CF3442381F080916F
:100F8000D6019091D701892B09F08CCF1092CC011A
:100F900089CF8F3C49F447FFF0CF1092D401809164
:100FA000D5018111ECCFE0CF803D19F41416ACF3DC
:100FB000E4CF9091D601893D29F41916F4F61092E8
:100FC000D601DBCF8A3D19F497FFD7CFF8CF9091A8
:100FD000D7018B3D29F497FFD0CF1092D701CDCF09
:100FE0008C3D19F41916CCF3C8CF9FE2980F9830B6
:100FF00090F4815D990B21E030E0B90102C0660FE9
:10100000771F8A95E2F7CB0180959091D3018923D0
:101010008093D301B2CF8D3D31F48091CD018E7F8D
:101020008093CD01AACF8E3D21F48091CD018D7F9B
:10103000F7CF8F3D09F0A1CF8091CD018B7FF0CF0D
:10104000A6E0B0E0E6E2F8E00C94901849835A83F9
:1010500049815A819923A1F0222391F0CA010E946B
:101060003A06182F682F89819A810E94AD066981FE
:101070007A81812F0E94F3042696E3E00C94AC1849
:10108000CA010E947B06182FF2CF0F931F93CF93B4
:10109000DF938B01EA0190910A02943061F580930D
:1010A000E9008FEF9091E800815095FD06C095ED25
:1010B0009A95F1F700008111F5CF8091E80085FF46
:1010C0001AC00E948301811111C08091E80085FD42
:1010D00006C08091E8008E778093E800F2CFF80197
:1010E00081918F018093F100219779F78091E80039
:1010F0008E778093E800DF91CF911F910F91089533
:1011000043E050E0BC0182E00E944508089546E0BB
:1011100050E0BC0182E00E9445080895CF93DF9320
:10112000EC0180910801811111C048E050E0BE013E
:1011300081E00E94450880E2FE01A8EEB1E0019046
:101140000D928A95E1F7DF91CF9108958091E301A7
:1011500087FF05C040E282E050E0BE01EACF48E0F0
:1011600081E0FACF8091B0019091AF01892B8093FB
:1011700058019091AE019923A1F0892B80935801D9
:10118000809108018823E1F18091E30187FF38C055
:101190008EE1EAE5F1E090E08150A0F59111109226
:1011A000AE0140E250E06EE871E088E591E00E9417
:1011B0001E19892B21F180E2E8E5F1E0AEE8B1E00B
:1011C00001900D928A95E1F7E091DA01F091DB014F
:1011D0003097A9F080910801882359F08091E301AC
:1011E00087FF07C0809158018093590186E0809362
:1011F00058010280F381E02D88E591E0099508957A
:1012000086E0C7CF2191222339F29F5FC5CF882383
:1012100021F00E9429060E94B2080895882339F01F
:101220009091B001982B9093B0010E94B20808955C
:10123000882399F19CEF980F913A40F4682F88E544
:1012400091E00E94ED020E94B208089590E2980F8A
:10125000983050F4877091E001C0990F8A95EAF7B1
:10126000892F0E942906EFCF9BE5980F933028F431
:1012700090E080E00E947103089598E5980F9B31FB
:1012800028F490E080E00E944C03089593E3980FC7
:10129000933118F460E00E9448070895CF93C82F57
:1012A0008823D9F18CEF8C0F813AC8F58091080121
:1012B000882311F18091E30187FF1EC0EC2FE69592
:1012C000E695E695F0E0E85AFE4F828190E04C2FDB
:1012D000477021E030E002C0220F331F4A95E2F749
:1012E00082239323892B91F06C2F88E591E00E9453
:1012F000ED020E94B2080AC0EAE5F1E080E691E062
:101300002191C21789F38E179F07D1F76C2F88E5BB
:1013100091E00E9417030E94B208CF91089580E2E5
:101320008C0F883068F4C77021E030E001C0220FD4
:10133000CA95EAF78091B001822B8093B001EBCF80
:10134000EBE5EC0FE33040F4F0E0E75FFE4F808127
:1013500090E00E947103E1CFE8E5EC0FEB3150F42F
:10136000F0E0EE0FFF1FE45FFE4F808191810E944D
:101370004C03D3CF83E38C0F833178F661E08C2F5D
:101380000E944807CACF0F931F93CF93DF93C62FB6
:10139000D42F022FFC0185818823A9F0609350028D
:1013A0000E94E10290934F0280934E02C77081E049
:1013B00001C0880FCA95EAF70E940E09DF91CF910C
:1013C0001F910F91089580915002681335C080914C
:1013D0004E0290914F020E94D202883C910560F526
:1013E00010E21D0FCD17B9F080E28C0F883040F469
:1013F000C77081E001C0880FCA95EAF70E9407090B
:10140000183048F481E09D2F977001C0880F9A959D
:10141000EAF70E940E09802F0E944E09802F0E9439
:101420001809183058F6D77081E001C0880FDA9596
:10143000EAF70E940709C2CFC77081E001C0880F98
:10144000CA95EAF7F6CF9091E40192FB222720F9A2
:10145000281779F080FB92F99093E4016091E30101
:101460007091E40184E090E00E94081982E00E94FB
:10147000F90608951092B00180910801EAE5F1E0C3
:10148000882329F18091E30187FF21C08EE1DF01EC
:101490001D928A95E9F790E080E00E94710390E048
:1014A00080E00E944C031092AF010E94B20886E0D7
:1014B000E2EDF1E0DF011D928A95E9F71092CB0190
:1014C0001092CC011092CD010E94A303089586E0F2
:1014D000DECFAAE2B0E0EFE6FAE00C9490188CE0E0
:1014E00092E02091F100FC012193CF01F2E08431E0
:1014F0009F07B9F780910D02833009F470C0B8F4EA
:10150000813009F447C0823009F4B1C08091E8000D
:1015100083FF7EC280910C0290910D029A3008F0F8
:1015200077C2E92FF0E0E35DF64E0C947B188A3029
:1015300009F48CC08B3009F46FC0893039F7809181
:101540000C02813219F780911002909111020297DA
:10155000E8F68091E800877F8093E8008091E800BA
:1015600082FF38C09091F3008091F200029731F42D
:101570008091F100813011F0863021F48091F100EA
:101580008093E7018091E8008B778093E8000E94C8
:10159000B401BCCF80910C02813A09F0B7CF8091A1
:1015A000E800877F8093E8008091100290911102FB
:1015B000892B61F460E288EE91E070E00E946002A5
:1015C0008091E8008B778093E800A0CF60E090E006
:1015D00080E0F3CF80910A028111C0CF97CF809134
:1015E0000C02813A09F092CF809110029091110281
:1015F000892B09F08BCF8091E800877F8093E800EA
:101600008091E80080FFFCCF809108018093F10079
:101610008091E8008E77B9CF80910C02813209F079
:1016200075CF8091100290911102892B09F06ECF35
:101630008091E800877F8093E8000E94B401809148
:101640000E02809308010E943A0A60CF80910C023A
:10165000813209F05BCF8091E800877F8093E800BA
:101660000E94B40180910F028093E6014FCF8091D8
:101670000C02813A09F04ACF8091E800877F80937D
:10168000E8008091E80080FFFCCF8091E601BECFAA
:10169000803899F0823809F0BBC1809110028F70B8
:1016A000873008F0B5C18093E9008091EB0085FB9D
:1016B000882780F91092E90006C080910802909175
:1016C0000902911182609091E800977F9093E80061
:1016D0008093F1001092F1008091E8008E7794C120
:1016E000882309F482C1823009F092C180910E02F0
:1016F000811185C1809110028F702FEF280F263045
:1017000008F086C18093E9002091EB0020FF77C1AB
:10171000933031F48091EB0080628093EB006FC1D5
:101720009091EB0090619093EB0021E030E001C0DC
:10173000220F8A95EAF72093EA001092EA0080913E
:10174000EB008860EACF811163C110910E021F7710
:101750008091E3008078812B8093E3008091E80002
:10176000877F8093E8000E94B4018091E80080FFA9
:10177000FCCF8091E30080688093E30082E0111148
:1017800083E080930A0244C18058823008F040C14F
:1017900080910E0290910F028C3D23E09207A1F5FB
:1017A00083E08A838AE289834FB7F894DE01139637
:1017B00020E03EE051E2E32FF0E050935700E49147
:1017C00020FF03C0E295EF703F5FEF708E2F90E037
:1017D000EA30C0F0C7968D939D932F5F243159F75F
:1017E0004FBF8091E800877F8093E8006AE270E055
:1017F000CE0101960E9460028091E8008B77809371
:10180000E80006C1C096E7CF409110025091110246
:10181000292F33272330310509F444C078F52130CE
:10182000310509F46FC08BE390E0EAECF1E022307F
:10183000310509F0EDC02091E800277F2093E800F2
:1018400020911202309113028217930708F49C0131
:1018500040E02115310509F064C0411162C080915A
:10186000E80082FDC9CF80910A02882329F28530E1
:1018700019F28091E80083FFF2CFBECF213231050B
:10188000A9F12232310509F0C3C04115510509F40F
:1018900043C04130510509F0BBC086EB90E0E4ED58
:1018A000F0E0C9CF992781309105C1F0009759F038
:1018B000029709F0ADC0E7E1F2E0E4918E2F90E0ED
:1018C000E7E1F2E007C0E7E4F2E0E4918E2F90E078
:1018D000E7E4F2E0009709F49BC0ADCFEDE2F2E05F
:1018E000E4918E2F90E0EDE2F2E0F4CF4115510546
:1018F00071F04130510509F08BC089E090E0E5EFCF
:10190000F1E099CF82E190E0E5E0F2E094CF89E068
:1019100090E0ECEDF1E08FCF80E490E0EAE8F1E0D8
:101920008ACF80910A02882309F466CF853009F4B2
:1019300063CF8091E80083FD5FCF8091E80082FD56
:101940008ECF8091E80080FF84CF9091F30080914A
:10195000F2002115310519F08830910550F041E071
:10196000089709F040E08091E8008E778093E800C6
:1019700070CF44914093F100319621503109019686
:10198000E8CF803809F044C08091E800877F8093D9
:10199000E80080910B028093F1009ECE811138C047
:1019A00010910E021230A0F58091E800877F80939D
:1019B000E80010930B020E94B401112311F084E09F
:1019C00005C08091E30087FDFACF81E080930A0291
:1019D00042E061EC81E00E94D30142E261EC82E0EE
:1019E0000E94D30180910A0213C080910E028130BF
:1019F00079F481E0933009F080E08093090210923D
:101A0000E9008091E800877F8093E8000E94B4019C
:101A10008091E80083FF0AC08091E800877F80936F
:101A2000E8008091EB0080628093EB00AA96E3E0EF
:101A30000C94AC180E943A0A2FEF84E39CE02150EA
:101A400080409040E1F700C0000088E19AE00FB6C6
:101A5000F894A895809360000FBE90936000FFCF2C
:101A6000B0E0A0E0E6E3FDE00C9489188C01FC01F5
:101A70008481882341F121E0408151816281738119
:101A800095810E942008EC01FC01E851FC47E730F9
:101A9000F105A8F5E95CF64E0C947B1826E241EEC0
:101AA00061EEC8010E94C30980918D01877059F0D1
:101AB000F8018581882339F08091E40182FF03C019
:101AC00082E00E94F906CDB7DEB7EAE00C94A518D3
:101AD00027E245EE65EEE5CF26E241EE60EEE1CF8E
:101AE00027E245EE64EEDDCF26E241EE62EED9CF8D
:101AF00027E245EE66EED5CF28E241E0EBCFF801D4
:101B00008581882309F473C310925002CE01905747
:101B1000839708F056C384E090E00E94D418909315
:101B2000E4018093E301FE01E150F047E232F10568
:101B300020F4E25CF64E0C947B188091E301816006
:101B40008093E30195C08091E40188608093E40173
:101B50008FC08091E3018260F3CF8091E3018460C4
:101B6000EFCF8091E3018860EBCF8091E401816049
:101B7000EDCF8091E4018260E9CF8091E301806143
:101B8000DFCF8091E3018062DBCF8091E30180644D
:101B9000D7CF0E943A0A8091E3018068D1CF80912B
:101BA000E3018C60CDCF8091E4018360CFCF809141
:101BB000E3018E7FC5CF8091E401877FC7CF8091FD
:101BC000E3018D7FBDCF8091E3018B7FB9CF809101
:101BD000E301877FB5CF8091E4018E7FB7CF8091FD
:101BE000E4018D7FB3CF8091E3018F7EA9CF8091F7
:101BF000E3018F7DA5CF8091E3018F7BA1CF0E9470
:101C00003A0A8091E3018F779BCF8091E301837F34
:101C100097CF8091E4018C7F99CF8091E30182FB83
:101C2000992790F921E0922790FB82F990FB83F9A4
:101C300087CF8091E401982F909591708E7F892BAA
:101C400090FB81F983CF9091E301892F8F7B96FFE1
:101C5000806476CF0E943A0A9091E301892F97FB26
:101C600087F980586DCF61E08EE090E00E94EA181D
:101C70006091E3017091E40184E090E00E94081912
:101C80000E943A0A11CF60E0EFCF9091E301892FD3
:101C90008F7E94FF806154CF9091E301892F8E7FD6
:101CA00090FF81604DCF9091E401892F877F93FF52
:101CB00088604CCF0E943A0AFFEF24E33CE0F150E9
:101CC00020403040E1F700C000000E94C1026FEFE9
:101CD0007FEF90E080E00E9408190E941A0D809129
:101CE000E40182FB882780F991E089270E94230A7A
:101CF000F8018581C081D181882309F44AC0CE01D1
:101D00000E943A06F82E682FCE010E94AD06BE0151
:101D10008F2D0E94F3040E940B05D82FC92FA82EE7
:101D2000F801C580B680B2943FE0B32280918D0166
:101D30008770F1F0EC2CCC20E1F0892F807F80348B
:101D400051F080E28D0F883098F0B11004C0892FD7
:101D5000807E803269F08091E40182FF09C082E0D8
:101D60000E94F90680918D018770EE24E394811121
:101D7000E12CDC2ED2942FE0D222FBE0FD1508F4FA
:101D80006DC0ED2DF0E0E05AF64E0C947B1880E02B
:101D9000ADCFCE010E947B06F82EB9CF2C2F2F702D
:101DA000F22EC07F19F0F29490EFF922CC20B9F016
:101DB000FF2069F080E28D0F883010F0A11009C07B
:101DC0008091B001F82AF092B0010E94B2088D2FE4
:101DD00043C08091AF01F82AF092AF01F6CF8D2F6A
:101DE0000E941809FF20D1F1D05ED83010F0A11068
:101DF00004C08F2D0E94290606C0F0948091AF0187
:101E0000F822F092AF010E94B20828C03C2F3F7028
:101E1000F32EC07FC03219F0F29480EFF822AA208E
:101E200059F081E0A81609F479C0CC2009F485C0E6
:101E3000BB2009F447C0CBCF8091E40182FD3EC0B6
:101E4000CC20B1F1FF2039F08091B001F82AF09256
:101E5000B0010E94B20880E00E944E092D2D28504A
:101E6000330B2430310510F40E949603EE20A9F0C4
:101E700080918D0180FD11C0F801158286958695AF
:101E800086950E941007C8010E94300D80918D0137
:101E90008695869586950E94E70620E0F8014081A8
:101EA000518162817381848195810E9420080BCECB
:101EB00080E00E941809FF2089F29BCFCC20A1F07E
:101EC000B11004C08F2D0E940E09C8CF91E0B91245
:101ED000C5CF8091AE019F2D9823F91609F4BECF8E
:101EE000F82AF092AE01BACFB110B8CF8F2D0E9470
:101EF00007099091AE018F2D892329F08F2D8095B0
:101F000089238093AE01809179019F2D982309F454
:101F1000A5CFF094F822F0927901A0CFCC2029F03F
:101F2000E5E0EB1508F49ACFCDCFF4E0FB1508F40B
:101F300095CF8F2D0E94070991CFBB20D1F329E3C4
:101F4000A21209C03FEF87EE93E0315080409040ED
:101F5000E1F700C000008D2F0E9418097FCF8C2F61
:101F600086958695837069F0813009F077CF8D2F43
:101F70009C2F9370C11002C080E090E00E944C033F
:101F80006DCF8D2F9C2F9370C11002C080E090E028
:101F90000E94710363CF6C2D8D2F0E9448075ECF86
:101FA0008C2F837009F03FC0C11058CF4D2F429540
:101FB00046954770440F440F2D2F2F7030E0042EAC
:101FC00002C0220F331F0A94E2F790E080E0D4FFB2
:101FD00009C08FE090E002C0880F991F4A95E2F790
:101FE00080959095C695C695C370C23099F078F4E7
:101FF0004091BB015091BC01C13039F0822B932B31
:10200000842395230E94200729CF242B352B822B54
:10201000932BF8CF822B932B2091BB013091BC01E5
:1020200082279327EFCF8695CC2011F08C2F8170DB
:10203000882309F413CF4D2F429546954770440FDE
:10204000440F2D2F2F7030E0042E02C0220F331FBB
:102050000A94E2F790E080E0D4FF09C08FE090E0BE
:1020600002C0880F991F4A95E2F780959095C69512
:10207000C695C370C23099F078F44091BD0150917B
:10208000BE01C13039F0822B932B842395230E940B
:10209000E206E4CE242B352B822B932BF8CF822B18
:1020A000932B2091BD013091BE0182279327EFCF62
:1020B000CF70CC2029F08C2F0E9410078D2F03CFDA
:1020C0008D2F0E9407098C2F0E94E706C7CE8D2F07
:1020D000E2EFAE1699F1EA1570F0F0EFAF16D1F01D
:1020E00021EFA21691F0CC2009F45BC0B1106FCEA5
:1020F0008C2F8F7127C033EFA31639F194EFA912FB
:10210000F2CF8091E40182FD2EC08C2F8F71CC2004
:10211000D9F218C0CC2069F0E4E0EB1508F49ECEAB
:10212000CF7181E090E002C0880F991FCA95E2F755
:10213000B8CFF5E0FB1508F491CEF2CF8C2F8F715C
:10214000C110C2CF0E94100789CE90E080E0CC2061
:1021500009F49DCFCF7181E090E002C0880F991FF4
:10216000CA95E2F794CFCC2089F0CF718C2F0E94D2
:1021700010078091E40182FF07C028E0C29FC001E0
:102180001124836080938D018C2FDCCF81E00E942D
:10219000F90631E03B1508F061CE82E00E94F906B5
:1021A0005DCEBB2059F0893309F0D5CE8FEF97EE85
:1021B000E3E081509040E040E1F7CBCE8C2F8F716F
:1021C00083CFC631FCE7DF0701F58091B0018A7A41
:1021D00091E009F490E09093780169E2811165E360
:1021E00088E591E00E9417030E94B2085DCCC631D9
:1021F000DC4709F07DCD8091780169E2811165E3CA
:1022000088E591E00E94ED02EFCFC3303CE7D307B1
:1022100009F45DCD50F4C1159CE7D90709F44ACD06
:10222000C130DC4709F459CD63CDCB35FCE7DF077E
:1022300009F4ADCDCC352CE7D20709F450CDCA3521
:10224000DC4709F055CD81E051CDCF93DF938091EC
:102250008C01807F09F04DC080918B01882309F4A7
:1022600048C0E0914D0250911402C0918701D09175
:102270008601609188017091890147E05E17C9F17C
:102280008E2F90E0E49FF0011124EB5EFD4F24813E
:10229000222391F1489FF001499FF00D1124DF01A5
:1022A000AB5EBD4F11962C9111972C1325C02C912C
:1022B0002D1322C015962C91159721111DC0129631
:1022C0002D913C91261B370B283C3105A8F48091B9
:1022D0008C018F70806180938C01E55EFD4F808161
:1022E0008F708061808386E891E00E94300D0E94AB
:1022F0003006DF91CF910895FC013196E770BECF93
:10230000A4E1B0E0E6E8F1E10C9487188C0186E0E6
:10231000F801DE011F9601900D928A95E1F7F80110
:102320008481E58096E8A92E91E0B92E90918A01EA
:10233000911128C0882319F1EE20F1F0C8010E9404
:102340002507F82E8823C1F087E0F801D501019018
:102350000D928A95E1F780918A01813031F4809164
:102360008601909187010E946E060E9425118F2D93
:102370006496ECE00C94A318C8010E94300DFF2471
:10238000F394F5CFD080C18082809380F0908B0150
:102390002091880130918901A401421B530BFF2039
:1023A00009F4D9C0483C510508F092C08823F9F2DD
:1023B0009091870180918C01282F207F09F056C0D1
:1023C000C91214C090918601D91210C0E11048C002
:1023D0008F70806180938C0186E891E00E94300DBF
:1023E00080918C01F8018683F12CC1CFE11038C0B7
:1023F0006C2D8D2D0E9445016C2D8D2D0E94450167
:10240000E82E8111F1CFDF86C88A8F8598890E94D6
:102410006E06292F22952F70243058F49F70223099
:1024200088F0992399F0F8019681907F79F4FE2C39
:102430009ECF2A5F2F70223068F0C8010E94300DB5
:10244000EF2CF5CF992311F0882389F3805E883033
:1024500070F3F3CF803F58F3815F833070F7E7CF9D
:1024600080918C01816080938C01BECFC91207C01E
:1024700090918601D91203C0EE2009F48DC0C801E5
:102480000E942507882309F477CFEE2009F474CF42
:1024900080918C01803288F02091860130918701F3
:1024A000398728879B868A8690918A019C871D861A
:1024B0008E87CE0108960E94300D87E0F801A6E8CD
:1024C000B1E001900D928A95E1F70E94251157CF56
:1024D00090918C01292F207F51F486E891E00E9491
:1024E000300D87E0F50111928A95E9F77DCF8823B9
:1024F00009F43DCF809187018C1110C08091860135
:10250000D8120CC0E1100AC09683C8010E94300D99
:1025100087E0F50111928A95E9F729CFC8010E9459
:102520002507882309F428CFEE2009F425CF8091D0
:102530008C01803210F220918601309187013A831C
:1025400029839C828B8290918A019D831E828F8336
:10255000CE010196B0CF483C5105D0F6882309F44E
:102560000ECFFE2CEE2009F407CF809187018C114D
:1025700020C080918601D8121CC080918C0180FD02
:102580000FC0982F907F61F08683903F31F0982F95
:10259000907F905F8F70892B8683C8010E94300DD9
:1025A00087E0F801A6E8B1E001900D928A95E1F785
:1025B000DECEC8010E94250781117FCF80918C015A
:1025C000816080938C01C8010E94300DD0CEABE1B8
:1025D000B0E0EDEEF2E10C948F184E8B5F8B688FBC
:1025E000798F8A8F9B8F192F91111092AF011D8ABD
:1025F00086E0FE017696DE011F9601900D928A9587
:10260000E1F70A8D002341F021E04F85588969895F
:102610007A89C8010E9420080B8B1C8B87E0FE0181
:102620003F96DE01189601900D928A95E1F7CE0152
:1026300008960E94801181110CC087E0FE01389637
:10264000DE01119601900D928A95E1F78C8581113A
:102650000BC017E080914D0290911402891331C094
:102660006B96E4E00C94AB182091140230E0C901A1
:1026700001968770992740914D024817190699F0E5
:1026800097E0929FD001939FB00D1124AB5EBD4F98
:10269000FE01319601900D929A95E1F78093140214
:1026A0000E943006D6CF0E943A0A1092140210926D
:1026B0004D0287E0E6E8F1E0DF011D928A95E9F737
:1026C000C8CF819FC00111248B5E9D4F0E94801155
:1026D000882331F280914D0290E00196877099270E
:1026E00080934D02B7CFA6E0B0E0E9E7F3E10C94A8
:1026F0008F180E94E1028C018091B1019091B2018A
:102700008017910781F019821A820E94E102682FD6
:1027100049815A81792F80E090E00E94E71210935E
:10272000B2010093B1012696E4E00C94AB18A5E049
:10273000B0E0EDE9F3E10C948B188E010F5F1F4FB1
:1027400085E0D8011D928A95E9F7F80142E451E04D
:10275000BE016A5F7F4F6A0184E0E82EF12C31E010
:10276000D6012D916D012F3F09F455C0822F82951E
:102770008F7090E0DC0190968C9190E02F7002C0F9
:10278000959587952A95E2F780FD45C0832FF82A15
:10279000330FEA94E110E4CFF1924C5F5F4F6E1774
:1027A0007F07C9F645E050E0B80186EB91E00E9452
:1027B0001E19892B91F185E0F801A6EBB1E001909B
:1027C0000D928A95E1F781E08093B5010E94E102C4
:1027D0009093B4018093B3018091B3019091B401BF
:1027E0000E94D2020597E8F045E050E066EB71E008
:1027F0008FEB91E00E941E19892BC1F085E0E6EB7A
:10280000F1E0AFEBB1E001900D928A95E1F781E044
:102810001092B50107C080E0BACF8091B501811157
:10282000DBCF80E02596E8E00C94A71880E0F0CF9D
:102830001F920F920FB60F9211242F933F934F9335
:102840005F936F937F938F939F93AF93BF93CF9338
:10285000DF93EF93FF93D091E900DF708091EC005C
:10286000C82FC17080FDC0E81092E9008091F0008F
:10287000877F8093F00078940E94690A1092E900A3
:102880008091F00088608093F000CD2BCF70C093D2
:10289000E900FF91EF91DF91CF91BF91AF919F91AF
:1028A0008F917F916F915F914F913F912F910F90F9
:1028B0000FBE0F901F9018951F920F920FB60F9298
:1028C00011242F933F934F935F936F937F938F9335
:1028D0009F93AF93BF93EF93FF938091E10082FFAB
:1028E00009C08091E20082FF05C08091E1008B7FEA
:1028F0008093E1008091DA0080FF24C08091D800AD
:1029000080FF20C08091DA008E7F8093DA00809172
:10291000D90080FF9DC080E189BD82E189BD09B4F5
:1029200000FEFDCF81E080930A028091E5018111D4
:1029300009C00E9464010E9405028091E200846047
:102940008093E2008091E10080FF17C08091E20057
:1029500080FF13C08091E2008E7F8093E20080911F
:10296000E20080618093E2008091D80080628093D1
:10297000D80019BC85E080930A028091E10084FFB1
:102980002BC08091E20084FF27C080E189BD82E1F5
:1029900089BD89B5982F917080FFFBCF8091D800B9
:1029A0008F7D8093D8008091E1008F7E8093E1003D
:1029B0008091E2008F7E8093E2008091E20081604E
:1029C0008093E20080910B02882309F447C084E0E1
:1029D00080930A0280910A028091E10083FF27C060
:1029E0008091E20083FF23C08091E100877F809384
:1029F000E10082E080930A0210920B028091E100D4
:102A00008E7F8093E1008091E2008E7F8093E200D0
:102A10008091E20080618093E20042E060E080E02B
:102A20000E94D3018091F00088608093F000FF91B4
:102A3000EF91BF91AF919F918F917F916F915F9136
:102A40004F913F912F910F900FBE0F901F901895AF
:102A500019BC10920A021092E50174CF8091E30034
:102A600087FD93E090930A02B5CF78941F921FB62A
:102A70001F9211248F939F93AF93BF938091DF0197
:102A80009091E001A091E101B091E2010196A11DB8
:102A9000B11D8093DF019093E001A093E101B09319
:102AA000E201BF91AF919F918F911F901FBE1F9028
:102AB00018951F921FB61F9211248F939F93AF9367
:102AC000BF938091DE01811113C08091DF0190914D
:102AD000E001A091E101B091E2014196A11DB11D7B
:102AE0008093DF019093E001A093E101B093E201B4
:102AF000BF91AF919F918F911F901FBE1F9018950E
:102B0000CDB7DEB72E970FB6F894DEBF0FBECDBFA0
:102B100085B7806885BF85B7806885BF84B7877FA4
:102B200084BF0FB6F894A895809160008861809367
:102B30006000109260000FBE80E890E00FB6F8943D
:102B400080936100909361000FBE8CE094E09093BD
:102B50005701809356010E9464010E9405028091F2
:102B6000E20084608093E200789480910A028823D6
:102B7000A1F01091E9001F709091EC00892F8170F5
:102B800090FD80E8182B1092E9008091E80083FD09
:102B90000E94690A1F701093E90082E084BD93E0EF
:102BA00095BD9AEF97BD80936E0022E431E066E513
:102BB00071E001E010E0D90150E040E08D918F3FDD
:102BC00091F0E82FE295EF70F0E0D1A08F707801DE
:102BD00001C0EE0C8A95EAF79E2D90959D2191A358
:102BE00082A18E2982A34F5F5F4F4430510531F798
:102BF0002C5F3F4F62177307F1F685E0EFEBF1E0D2
:102C0000DF01282F1D922A95E9F7E6EBF1E0DF01BD
:102C10001D928A95E9F790E080E00E94D418863EE4
:102C20009E4F09F464C066EE7EEF90E080E00E9463
:102C3000081960E082E090E00E94EA1860E083E01A
:102C400090E00E94EA181092BC011092BB0160E073
:102C500074E184E090E00E94081960E086E090E072
:102C60000E94EA186FEF87E090E00E94EA1840E0C7
:102C700050E0BA0188E090E00E94FC1860E084E235
:102C800090E00E94EA1860E087E190E00E94EA1874
:102C900060E08CE090E00E94EA1860E08DE090E057
:102CA0000E94EA1819821A821B821C821D821E82CF
:102CB0001F82188648E050E068E170E0CE0101967E
:102CC0000E94DA1840E050E0BA0180E290E00E94F1
:102CD000FC1840E050E0BA018FE090E00E94FC1840
:102CE00040E050E0BA0183E190E00E94FC1882E0ED
:102CF00090E00E94CC188093C40184E090E00E9490
:102D0000D4189093E4018093E3010E949713EFEFAE
:102D1000F6E721E0E150F0402040E1F700C000007C
:102D20000E9497138091BF0180FF08C06FEF7FEF73
:102D300090E080E00E9408190E94C10283E090E0C8
:102D40000E94CC1890E00E94200780E091E09093D0
:102D5000DB018093DA0108E110E08FEB91E055E0B0
:102D6000F52EF80E40E4E42E80910A0220E1C22EF6
:102D700032E1D32E853009F486C00E94971385EC8A
:102D8000A82E81E0B82E9FEB892E91E0992ED401D8
:102D9000F50191918D9141E0EA3CF40709F47DC081
:102DA0009817B9F3D12C55245394D401CD904D01EB
:102DB000F50181915F018C1521F1482E4C24712C75
:102DC00066246394842D8621A1F07986DA860E9498
:102DD000E1029C878B875D8691E08C2D862109F42A
:102DE00090E09E8749855A856B857C858D850E94FC
:102DF000E7127394660CF4E07F12E4CFF50131978B
:102E0000C082D39425E0D212D0CF8FB7F8944091EE
:102E1000DF015091E0016091E1017091E2018FBF0B
:102E200040C080910A02843009F11092DE010FB691
:102E3000F894A895009360000FBEE092600083B7FD
:102E4000817F846083BF83B7816083BF78948895D6
:102E500083B78E7F83BF0FB6F894A89580916000EA
:102E6000886180936000109260000FBE809109021B
:102E7000882349F00E949713EFEBF1E081918111D3
:102E800006C1FE12FBCF80910A02853009F4C9CF3A
:102E90000E943A0A0E94960370CF981383CF0E9433
:102EA000731386E0E2EDF1E0DE01119601900D92E0
:102EB0008A95E1F71092D4011092D5011092D601B3
:102EC0001092D7018B819C81892B09F44AC0809193
:102ED000D0019091D1010E94D2029C019091CB012E
:102EE000992309F4EFC025313105D8F19F3F19F03E
:102EF0009F5F9093CB01DB80DD2059F00E94EC03B3
:102F00009FEF1D140CF491E0899F802D1124809374
:102F1000D401DC80DD2059F00E94EC039FEF1D14EA
:102F20000CF491E0899F802D11248093D50130917C
:102F3000D4013323B1F02091D501222391F045EB48
:102F40003403C0011124992309F491C09093D40152
:102F500045EB240390011124332309F48CC03093F2
:102F6000D5018D819E81892B09F44AC08091CE01C3
:102F70009091CF010E94D2029C019091CC019923A3
:102F800009F49BC021353105D8F19F3F19F09F5FAF
:102F90009093CC01DD80DD2059F00E94CA039FEFA1
:102FA0001D140CF491E0899F802D11248093D6018B
:102FB000DE80DD2059F00E94CA039FEF1D140CF43F
:102FC00091E0899F802D11248093D7013091D60103
:102FD0003323B1F02091D701222391F045EB340344
:102FE000C0011124992309F44AC09093D60145EBFE
:102FF000240390011124332309F445C03093D701F1
:1030000046E050E0BE016F5F7F4F82ED91E00E948D
:103010001E19892B61F48091D4019091D501892BDF
:103020009091D601892B9091D701892B11F00E94A4
:10303000A30386E0FE013196A2EDB1E001900D926E
:103040008A95E1F70E9496039091CA01891709F4C5
:103050008BCE8093CA018FB7F8944091DF015091D5
:10306000E0016091E1017091E2018FBF7BCE81E0D0
:103070008093D4016DCF81E08093D50172CF81E040
:103080008093D601B4CF81E08093D701B9CFC9BC7A
:10309000D9BC09B400FEFDCF8091D8008F7D80930C
:1030A000D8008091E00082608093E0008091E00091
:1030B00081FDFCCF0E943A0AE6CE2B30310508F0A4
:1030C00066CF9ECF2B30310508F012CF4ACF97FB49
:1030D000072E16F4009407D077FD09D00E94B81887
:1030E00007FC05D03EF4909581959F4F089570950B
:1030F00061957F4F0895EE0FFF1F0590F491E02D2D
:1031000009942F923F924F925F926F927F928F928B
:103110009F92AF92BF92CF92DF92EF92FF920F9366
:103120001F93CF93DF93CDB7DEB7CA1BDB0B0FB670
:10313000F894DEBF0FBECDBF09942A88398848882D
:103140005F846E847D848C849B84AA84B984C884C3
:10315000DF80EE80FD800C811B81AA81B981CE0FBA
:10316000D11D0FB6F894DEBF0FBECDBFED0108959F
:10317000AA1BBB1B51E107C0AA1FBB1FA617B7079D
:1031800010F0A61BB70B881F991F5A95A9F78095B9
:103190009095BC01CD010895F999FECF92BD81BDF6
:1031A000F89A992780B50895A8E1B0E042E050E090
:1031B0000C941019DC01A40FB51F4150504048F089
:1031C000CB01840F951F2E910E94EB184150504067
:1031D000D0F70895262FF999FECF92BD81BDF89AB8
:1031E000019700B4021639F01FBA20BD0FB6F8944B
:1031F000FA9AF99A0FBE08950396272F0E94EB18AA
:103200000E94EA18252F0E94EB18242F0C94EB182B
:103210000196272F0E94EB180C94EA18DC01CB01D1
:10322000FC01F999FECF06C0F2BDE1BDF89A3196D6
:1032300000B40D9241505040B8F70895FB01DC01F5
:1032400004C08D910190801921F441505040C8F77D
:10325000881B990B0895F894FFCF480B700B080D4D
:10326000700B080DA30BC40B080DC10CCE0C6C0D1C
:10327000700D4E0D680D740D780D7C0DD70D4C0E34
:10328000DF0DA90DAD0DE30DB10DE70DF30DBD0D76
:10329000450EC10DF70DC50DFB0D230EC90DFF0D1C
:1032A0002A0ECF0D050E0D0EB50DEB0DB90DEF0D60
:1032B000D30D090E190E330E430EA30DDB0D530E65
:1032C000CE0ECE0E060F060FAF0FCB0F2E0F2E0F0A
:0832D000D00F581067106710C1
:1032D800BE028E088708800801818283E200E90027
:1032E800EA00B500B600B700CD008301CC008A0122
:1032F80092019401210223022402250226022702B8
:103308002A02B300B4006F0070009F01CB019F0236
:10331800A00293929190946697C63435F400F5F61E
:06332800F7313332000012
:00000001FF
