:100000000C94CA010C94E7010C94E7010C94231999
:100010000C94E7010C94E7010C94E7010C94E701C0
:100020000C94E7010C94E7010C94FA200C94CE2177
:100030000C94C21B0C94E7010C94E7010C94E701AB
:100040000C94E7010C94E7010C94E7010C94E70190
:100050000C94E7010C94651C0C94E7010C94E701E7
:100060000C94E7010C94E7010C94E7010C94E70170
:100070000C94E7010C94E7010C94E7010C94E70160
:100080000C94E7010C94E7010C94E7010C94E70150
:100090000C94E7010C94E7010C94E7010C94E70140
:1000A0000C94E7010C94E7010C94E7012B00140079
:1000B0001A000800150017002800040016000700A9
:1000C00009000A0029621D001B0006001900050036
:1000D000000000000000E200E3002C002A001300F2
:1000E00012000C0018001C00340033000F000E003A
:1000F0000D000B0029723800370036001000110087
:10010000000000000000E0000251015135002D0206
:100110002D002E022E00000028002F0226022702AA
:100120003002310029622F00340034023000000018
:10013000000000000000E200E3002C004C00000082
:10014000BB00AE00BC00000039004F00510052005F
:100150005000000029720000A900A800AA000000B9
:10016000000000000000E0000000000029001E0266
:100170001F0220022102220228001E001F00200070
:10018000210022002962000000000000000003514D
:10019000000000000000E200E3002C002A0027021B
:1001A000260225022402230239002700260025000A
:1001B00024002300297200003700360000000000F0
:1001C000000000000000E000000000003A003B00DA
:1001D0003C003D003E003F00005C000000000000CD
:1001E0000000000029620000000000000000010083
:1001F000000000000000E200E3002C004500440085
:100200004300420041004000E30000000000000005
:100210000000000029720000000000000000000043
:10022000000000000000E000000000000C0343009C
:100230006F0072006E0065000000100366006F0022
:100240006F007300740061006E0000000403090475
:1002500009023B00020100A0FA09040000010301A9
:100260000100092111010001224000070581030856
:10027000000109040100010300000009211101002F
:100280000122B600070582032000011201000200CE
:1002900000000853460100010001020001050109A8
:1002A00002A10185020901A100050919012908150A
:1002B00000250195087501810205010930093115F4
:1002C00081257F95027508810609381581257F955E
:1002D0000175088106050C0A38021581257F9501F4
:1002E00075088106C0C005010980A10185031901B7
:1002F0002AB700150126B700950175108100C005C9
:100300000C0901A101850419012AA002150126A0EA
:1003100002950175108100C005010906A10185063D
:10032000050719E029E715002501950875018102E7
:100330000507190029EF1500250195F075018102C7
:1003400005081901290595057501910295017503A7
:100350009101C005010906A101050719E029E7156A
:100360000025019508750181029501750881010537
:1003700007190029FF150026FF0095067508810062
:100380000508190129059505750191029501750367
:100390009101C00011241FBECFEFDAE0DEBFCDBF58
:1003A00011E0A0E0B1E0E8EBF8E402C005900D92A6
:1003B000AE39B107D9F722E0AEE9B1E001C01D9234
:1003C000AE3DB207E1F70E94BD130C9444240C9497
:1003D000000081E0089581E008950E94EB010895F6
:1003E00008950E94F0010895A5E0B0E0EAEFF1E081
:1003F0000C94B02349835A833091A10189819A8159
:10040000311119C0662399F0222389F00E94040853
:10041000182F682F89819A810E94E00769817A816B
:10042000812F0E94820E2596E3E00C94CC230E943B
:10043000F207182FF3CF0E94040869817A81F1CF67
:10044000FC01262F408151816281738184810E9449
:10045000F401089581E00895CF93DF93EC0160E00B
:100460000E942002BE010E94F101DF91CF91089508
:100470000E94041008950E940810089508950E9493
:100480002F060E943E022FEF84E39CE02150804023
:100490009040E1F700C0000008950E943F020E94D2
:1004A000891C08950E943F020E949A1C08950F9390
:1004B0001F93CF93DF938C0161E00E942002EC0137
:1004C000B8010E94ED01811106C080E0DF91CF915B
:1004D0001F910F910895B801CE010E943118882311
:1004E000A1F3B801CE010E946616882371F3B8010A
:1004F000CE010E94A317882341F3F801828188234B
:1005000061F0CB35FDE5DF0701F158F4C115ECE5ED
:10051000DE0791F0CF3DDC4591F0C8010E94E90172
:10052000D5CFCD358DE5D80769F090F0C83ADD45D7
:10053000A1F70E945202C9CF0E944D02C6CF0E946D
:10054000CA0CF7CF0E94040CE8CF0E940E0CE5CF36
:100550000E94120CE2CF0E949F1B0E94C8020895C5
:100560000E94CC020E94A41B089508950E94B50227
:10057000089581E008950E94B90208950895CF93E7
:10058000C82F0E94B6028C2F0E94BB02CF91089503
:1005900080E00E94BF0208950E94491A0E94BF0293
:1005A00008950E94491A9091A001981721F0809314
:1005B000A0010E94BF020895ABE0B0E0E2EEF2E0DD
:1005C0000C94B1234F83588769877A878B87611191
:1005D0000E944F0B1E821D8285E0FE013796DE01D0
:1005E000119601900D928A95E1F78C819D81892B5E
:1005F00061F449815A816B817C818D819E810E9449
:10060000780A2B96E2E00C94CD2389819A81892384
:100610008F3F79F3CE0101960E942A028111E9CF22
:10062000F0CFFC01808191810E943E080895CF9314
:10063000C82F8823B9F08CEF8C0F813AA8F46C2F67
:1006400080910001909101010E94C51A882329F030
:100650008C2F0E940F0B0E94700B8C2F0E94070B97
:100660000E94700BCF91089580E28C0F883048F47F
:10067000C77081E001C0880FCA95EAF70E94320B6B
:10068000EFCFEBE5EC0FE33040F4F0E0E25AFE4F41
:10069000808190E00E94851AE5CFE8E5EC0FE73114
:1006A00050F4F0E0EE0FFF1FE05DFE4F808191817E
:1006B0000E949B1AD7CFCD3EA8F28C2F0E944114E6
:1006C0000E941415CFCF882379F19CEF980F913AAF
:1006D00028F40E940F0B0E94700B089590E2980F6F
:1006E000983050F4877091E001C0990F8A95EAF72D
:1006F000892F0E94380BEFCF9BE5980F933028F499
:1007000090E080E00E94851A089598E5980F97314F
:1007100028F490E080E00E949B1A08958D3E20F01E
:100720000E949B140E94141508951F93CF93DF938A
:10073000182FEB010E941703209739F4812F0E9494
:100740006303DF91CF911F9108958FE99FE0019797
:10075000F1F700C000002197EFCF70E060E089332F
:1007600011F460E570E00E9495030895882321F05C
:100770000E94320B0E94700B0895882321F00E9482
:10078000380B0E94700B0895B0E0A0E0EAECF3E0B3
:100790000C94AA236C01D62FC72FFC011281F5807F
:1007A000F2949FE0F9220E94280BE82E8823B9F0EA
:1007B000E12E1123A1F08C2F807F803421F080E284
:1007C0008D0F8830D0F08091BA0282FF16C082E08F
:1007D0000E94D30B0E94280B91E0E82EE926BC2E44
:1007E000B2948FE0B822FBE0FB1508F468C0EB2D53
:1007F000F0E0EA5BFB4D0C949B23E12CF0CF0C2F37
:100800000F70C07F11F00295007F112399F0002333
:1008100059F080E28D0F883010F0D11107C0802F81
:100820000E94320B0E94700B8D2F41C0802F0E94BE
:10083000420BF8CF8D2F0E946303002309F43FC0C1
:1008400080E28D0F883010F0D11104C0802F0E94FB
:10085000380B03C0802F0E94480B0E94700B2FC0E2
:100860000C2F0F70C07FC03211F00295007FDD2386
:1008700081F0D13009F463C0112309F46DC0FF2069
:1008800009F463C0F601858180FFCECF8F70858328
:100890005CC08091BA0282FD33C0112359F000235D
:1008A00029F0802F0E94320B0E94700B80E00E9482
:1008B000170305C080E00E9463030111C7CFEB2D31
:1008C000E850FF0B349720F40E94491A0E94BF029F
:1008D000EE2089F00E94240B80FD0DC0F6011282EB
:1008E0000E941E0B0E94E806C6010E94EF050E94AE
:1008F0001E0B0E940A07CDB7DEB7E9E00C94C623B1
:10090000112389F0F11006C00E94520B802B0E9427
:10091000B603D5CF21E0F212F7CF0E94520B802B05
:100920000E94590BCCCFF11006C00E94660B802F9D
:100930000E94BD03C4CF31E0F31609F2F6CF1123B4
:1009400031F085E08F1508F4BACF802FE0CF94E026
:100950009F1508F4B4CFEBCFFF2049F3D93349F406
:10096000FFEF27EE33E0F15020403040E1F700C0C8
:1009700000008D2F0E946303A2CF8C2F8695869551
:10098000837069F0813009F09ACF8D2F9C2F93707E
:10099000111102C090E080E00E949B1A90CF8D2F31
:1009A0009C2F9370111102C090E080E00E94851A84
:1009B00086CF8D2F112329F00E9441140E94141517
:1009C0007ECF0E949B14FACF8C2F837009F041C018
:1009D000111175CF4D2F429546954770440F440F26
:1009E0000D2F0F7010E030E020E0042E04C0000F47
:1009F000111F221F331F0A94D2F760E070E0CB0171
:100A0000D4FF0FC06FE070E080E090E004C0660F9C
:100A1000771F881F991F4A95D2F76095709580952A
:100A20009095C695C695C370602B712B822B932B26
:100A3000C23049F058F4C13019F00E9493063FCFFC
:100A40000E9480063CCF0E94A60639CF0E947D06F8
:100A500036CF8695112311F08C2F8170882309F4ED
:100A60002ECF4D2F429546954770440F440F0D2FC2
:100A70000F7010E030E020E0042E04C0000F111FC2
:100A8000221F331F0A94D2F760E070E0CB01D4FF3D
:100A90000FC06FE070E080E090E004C0660F771F49
:100AA000881F991F4A95D2F760957095809590950B
:100AB000C695C695C370602B712B822B932BC230C9
:100AC00049F058F4C13019F00E946307F8CE0E9433
:100AD0005007F5CE0E947607F2CE0E94BF06EFCEF9
:100AE000CF70112329F08C2F0E94E8068D2F0FCF95
:100AF0008D2F0E94BD038C2F0E940A07E0CED23FAB
:100B000051F160F4D03FB9F0D13F81F0112309F4E5
:100B100049C0F11089CE8C2F8F7121C0D33F11F1C4
:100B2000D43FA1F78091BA0282FD26C08C2F8F712D
:100B3000112311F314C0112349F084E08F1508F438
:100B4000BECE8C2F8F710E942E07B9CE95E09F15D7
:100B500008F4B5CEF6CF8C2F8F711111CDCF0E9436
:100B6000E806ADCE112329F08C2F8F710E94D2069A
:100B7000A6CE0E94CC06A3CE112349F0CF718C2FB4
:100B80000E94E80663E08C2F0E94B50B98CE81E0AE
:100B90000E94D30BE1E0EF1508F091CE82E00E94B5
:100BA000D30B8DCEF110DACE8C2F8F71A5CF0F9392
:100BB0001F93CF93DF93EC01688179818A810E9432
:100BC00049088C010E9489070E947C06B801CE0169
:100BD0000E94C403DF91CF911F910F910895CF938D
:100BE000DF93EC018B819C81892B29F0888199818D
:100BF00089238F3F51F4DF91CF910895CE010E9458
:100C0000D705CE010E942C02F6CFCE010E945702DA
:100C10008111F4CF0E94280B882369F38A818823ED
:100C200051F38091BA0282FFE6CF82E00E94D30B9B
:100C3000E2CF90E080E00E94851A90E080E00E9480
:100C40009B1A0E944F0B0E94700B0E9430150E944D
:100C5000141508950E94170B0E94190608950E940A
:100C60003F0B0E942A06089592959F70963091F04E
:100C700058F4925F9F70923058F4803F19F030F42E
:100C8000883E30F481E008959A5FF4CF843FD1F339
:100C900080E00895883EB0F3813FD1F7F3CFFC01A7
:100CA000808191810E943E080E9434060895A5E04B
:100CB000B0E0EDE5F6E00C94B1232596E2E00C946B
:100CC000CD23A6E0B0E0E7E6F6E00C94B12326964B
:100CD000E2E00C94CD2308950E946B0608950E94D3
:100CE0006C066093C4017093C5018093C601909314
:100CF000C7010E941906089508950E946F0608957D
:100D00000F931F930091C4011091C5012091C6015A
:100D10003091C701602B712B822B932B0E946F06A1
:100D20001F910F9108950F931F930091C40110918B
:100D3000C5012091C6013091C70160237123822330
:100D400093230E946F061F910F9108950F931F9395
:100D50000091C4011091C5012091C6013091C701D5
:100D600060277127822793270E946F061F910F919A
:100D700008950E946B0608950E94B90608950E9486
:100D8000BC066093C0017093C1018093C20190932F
:100D9000C3010E941906089560E070E0CB010E9433
:100DA000BF0608950F931F9341E050E060E070E0AC
:100DB0008A019B0104C0000F111F221F331F8A9557
:100DC000D2F7C901B8010E94BF061F910F91089583
:100DD0000F931F9341E050E060E070E004C0440FC7
:100DE000551F661F771F8A95D2F78091C001909199
:100DF000C101A091C201B091C3018A019B01082BDE
:100E0000192B2A2B3B2BC901B8010E94BF061F9149
:100E10000F9108950F931F9341E050E060E070E060
:100E200004C0440F551F661F771F8A95D2F7CB0168
:100E3000BA0160957095809590950091C0011091D0
:100E4000C1012091C2013091C3016023712382232B
:100E500093230E94BF061F910F9108950F931F9334
:100E600041E050E060E070E004C0440F551F661F91
:100E7000771F8A95D2F78091C0019091C101A0910E
:100E8000C201B091C3018A019B01082719272A27B3
:100E90003B27C901B8010E94BF061F910F91089519
:100EA0000F931F930091C0011091C1012091C201C5
:100EB0003091C301602B712B822B932B0E94BF06B4
:100EC0001F910F9108950F931F930091C0011091EE
:100ED000C1012091C2013091C3016023712382239B
:100EE00093230E94BF061F910F9108950F931F93A4
:100EF0000091C0011091C1012091C2013091C30144
:100F000060277127822793270E94BF061F910F91A8
:100F100008950895262F277091E001C0990F2A9512
:100F2000EAF723E0769567952A95E1F725E0269F75
:100F3000F001279FF00D1124E40FF51F50E040E071
:100F4000682F70E08191DF0111979B01042E02C090
:100F5000369527950A94E2F72170219528272923B1
:100F600028272C934F5F5F4F4530510559F708955F
:100F7000A82FA77023E0969587952A95E1F725E09D
:100F8000289FF001299FF00D1124E60FF71F50E074
:100F900040E080E0219130E00A2E02C0369527958E
:100FA0000A94E2F721703327042E01C0220F0A941D
:100FB000EAF7822B4F5F5F4F4530510559F708958F
:100FC000262F983070F4863060F4682F70E086E049
:100FD000989F600D711D112442EA51E0822F0E94FA
:100FE0008A070895292F983068F4863058F490E0E5
:100FF00062EA71E036E0239F800D911D11240E946A
:10100000B807089580E00895B0E0A0E0EAE0F8E0D5
:101010000C94AA238C01C090C001D090C101E09033
:10102000C201F090C3018091C4019091C501A091CB
:10103000C601B091C701C82AD92AEA2AFB2ACFE102
:10104000D0E0BC2ED701C6010C2E04C0B695A795E2
:10105000979587950A94D2F780FD09C0219788F764
:10106000B12C8B2DCDB7DEB7E9E00C94C623B801C7
:101070008C2F0E949D0E019789F3F3CFCF93DF93BE
:10108000EC010E940408BE010E949D0EDF91CF91E9
:1010900008951F93CF93DF93EB019091A1019923C2
:1010A00039F0CB010E943E08DF91CF911F91089546
:1010B000882369F0CB010E940408182F682FCE0105
:1010C0000E94E007BE01812F0E949D0EEDCFCB0153
:1010D0000E94F207182FF6CF1F93CF93DF93C09192
:1010E000C80116E08091C9018C1304C0DF91CF9133
:1010F0001F910895D0E01C9FF0011D9FF00D112459
:10110000E653FE4F408151816281738184819581D4
:101110000E9461062196C770E5CF4091FA01509177
:10112000FB016091FC017091FD018091FE019091A5
:10113000FF010E94610608951F93CF93DF93809172
:10114000FF01807F09F049C08091FC01882309F4E8
:1011500044C08091C801C091C9016091FA017091A9
:10116000FB01A091FD01B091FE01D62FD72316E01F
:10117000C81799F190E0109711F0DF3F19F401962C
:101180008770F6CF189F9001199F300D1124F90137
:10119000E653FE4F41814713F2CF40814613EFCF14
:1011A00042814111ECCF438154814A1B5B0B483C87
:1011B000510528F78091FF018F7080618093FF01B6
:1011C000F901E153FE4F80818F70806180838AEF47
:1011D00091E00E94EF050E946C08DF91CF911F9172
:1011E0000895A1E1B0E0E7EFF8E00C94A9238C01A9
:1011F00085E0F801DE011D9601900D928A95E1F7D8
:10120000F801E2808AEFC82E81E0D82E6091FD01BE
:101210007091FE016115710509F44EC19091FA01BA
:101220002091FB01892F82238F3F09F445C1408122
:101230005181A380B480F090FC01F501E61BF70B0F
:10124000FF2009F4EAC08091FF01382F307FE83C8D
:10125000F10508F0A3C031116DC0FE2C251316C096
:10126000941314C0E11012C08F7080618093FF014D
:101270000E948D08C6010E94EF058091FF01F801D0
:1012800085838F2D6196EAE00C94C523A114B104E7
:1012900029F0842F85238F3F09F027C180E0F82FA4
:1012A000F170DF2E80FF3CC08091C8012091C90100
:1012B00036E0821315C04D875E878D859E850E941E
:1012C0003E08292F22952F702230F0F0243018F597
:1012D0009F70F1F0F8019581907FD1F4D12C1EC060
:1012E00090E0389FF001399FF00D1124E653FE4F36
:1012F0006181651306C06081641303C06281E612D8
:101300000FC001968770D5CF9F7011F0882331F3FD
:10131000805E883018F3C8010E94EF05FD2CB1CF24
:10132000EE2009F4AECF8091FF0181608093FF0130
:10133000F12CA7CF251306C0941304C0F801EE20AA
:1013400009F487C0C8010E944F06882319F1EE20D6
:1013500009F18091FF01803270F02091FA01309103
:10136000FB0138872F831986BB86AA868C87CE011E
:1013700007960E94EF0586E0F801AAEFB1E0019020
:101380000D928A95E1F70E949C080E948D08FF2427
:10139000F39477CFC8010E94EF05F9CF311113C044
:1013A0007A2DB98AA88A6E2D89890E9457068AEFFC
:1013B00091E00E94EF0586E0F60111928A95E9F727
:1013C0000E948D08B5CF25130FC094130DC0E110F6
:1013D0000BC0F8018583C8010E94EF0586E0F60185
:1013E00011928A95E9F74DCFC8010E944F068823D4
:1013F00089F2EE2079F28091FF01803208F4BBCFB0
:101400002091FA013091FB013A8329831B82BD822E
:10141000AC828E83CE010196ACCFE83CF10508F09A
:101420003EC0FE2CEE2009F4B5CF25132AC094133C
:1014300028C08091FF0180FD1BC0982F907FC1F0D4
:10144000F8018583903F31F0982F907F905F8F70E7
:10145000892B8583C8010E94EF0586E0F801AAEF79
:10146000B1E001900D928A95E1F70E948D0809CFB5
:1014700086E0F801AAEFB1E001900D928A95E1F7BC
:1014800000CFC8010E944F06811175CF8091FF01E6
:1014900081608093FF01C8010E94EF05F2CE7A2D92
:1014A000B98AA88A6E2D89890E94570686E0F601BE
:1014B00011928A95E9F7D9CFEE2009F46BCFC801D4
:1014C0000E944F06F82E882309F464CF86E0F801C5
:1014D000AAEFB1E001900D928A95E1F78AEF91E0D1
:1014E0000E9411030E949C08C0CF81E08E25D7CEB8
:1014F000ACE0B0E0EEE7FAE00C94B0234F835887FD
:1015000069877A878B879C87CE0107960E94F108AE
:10151000882369F08A859B85892B39F04F8158850E
:10152000842F85238F3F09F06BC016E05FC086E0F3
:10153000FE013796DE01119601900D928A95E1F732
:101540008A859B85892B89F388859F8189238F3F95
:1015500061F32091C90130E0C90101968770992794
:101560004091C8014817190671F40E942F06109285
:10157000C9011092C80186E0EAEFF1E0DF011D9297
:101580008A95E9F7D2CF96E0929FD001939FB00D54
:101590001124A653BE4FFE01319601900D929A95EB
:1015A000E1F78093C9010E946C08BFCF819FC00101
:1015B000112486539E4F0E94F1088823E9F0E091A0
:1015C000C8011E9FF0011124E653FE4F4081518156
:1015D00062817381848195810E9461068091C80136
:1015E00090E00196877099278093C8018091C80187
:1015F0009091C9018913DACF2C96E3E00C94CC23A7
:1016000069857A858B859C850E9461068ECF682FBF
:1016100080910001909101010E94451B0895682F5F
:1016200080910001909101010E94531B08958091C7
:101630000001909101010E94611B08958091200298
:1016400085958595859508958091200287700895E8
:1016500090912002977081E009F480E008958091D4
:101660004302089590914302892B80934302089589
:10167000809590914302982390934302089510928D
:101680004302089590914202892B8093420208956B
:10169000809590914202982390934202089510926F
:1016A0004202089580912102089508950E94550BE9
:1016B00008959091BA0292FF08C090912102981764
:1016C00021F0809321020E94560B089580912102FF
:1016D000882329F01092210280E00E94560B089581
:1016E000CF93DF93E0910001F091010180914302DB
:1016F0008083E0910001F09101018081909142028C
:10170000892B808390912102992381F0E09100013F
:10171000F09101018081892B80838091000190915B
:1017200001010E94B11A81110E94660BC091000153
:10173000D091010140E250E060E072E0CE010E94F1
:10174000EC23892B59F080E2FE01A0E0B2E0019089
:101750000D928A95E1F7CE010E945D1ADF91CF913B
:10176000089508950E94B10B08959091BA0292FFD6
:1017700011C098E0899F90011124622B6093200290
:101780000E94E806809120028595859585950E94A6
:10179000B20B08950E94E80608951092200280E09E
:1017A0000E94B20B08959091200280958923809326
:1017B0002002282F277091F4282F082E000C330BBD
:1017C0009217130659F09091BA0292FF07C08595BF
:1017D000859585950E940A070E94CD0B08959091EA
:1017E000BA0292FB222720F9281769F080FB92F9B0
:1017F0009093BA028091B9029091BA020E94400C73
:1018000082E00E94D30B08958091BA0282FB882760
:1018100080F991E089270E94EF0B089581E00E94F2
:10182000EF0B089580E00E94EF0B08956FEF7FEFBC
:1018300090E080E00E942E24089590E080E00E94D5
:101840000A2421E0883E9E4F09F020E0822F08956F
:1018500082E090E00E940224089583E090E00E94DC
:1018600002240895CF9384E090E00E940224C82FC0
:1018700082E290E00E940224982F8C2FCF9108954D
:10188000CF93C92F682F84E090E00E9410246C2F22
:1018900082E290E00E941024CF910895AB01BC0138
:1018A0008FE090E00E9422240895AB01BC0183E107
:1018B00090E00E942224089560E070E0CB010E9435
:1018C000550C089560E070E0CB010E944E0C0E9420
:1018D0005C0C089568EE7EEF90E080E00E942E247C
:1018E00060E082E090E00E94102460E083E090E0FD
:1018F0000E9410241092C4011092C5011092C601DA
:101900001092C70160E084E090E00E94102464E03F
:1019100082E290E00E94102460E085E090E00E9466
:10192000102460E086E090E00E9410246FEF87E0D2
:1019300090E00E94102440E050E0BA0188E090E07E
:101940000E94222460E08DE090E00E94102440E09C
:1019500050E0BA0188E190E00E94222460E087E133
:1019600090E00E94102440E050E0BA018CE190E049
:101970000E94222470E060E080E290E00E942E2429
:1019800040E050E0BA0188E190E00E9422240E94E9
:10199000620C08950E946A0C0895682F8EE090E012
:1019A0000E94102408950E942E1C60935002709390
:1019B0005102809352029093530260934C027093B1
:1019C0004D0280934E0290934F020895089508951A
:1019D0000E94E70C089508950E94EB0C08958CEB8B
:1019E0009FE00E943F1A0E94E60C0E94E80C0895B6
:1019F0000E94B1110895089508950E94FB0C0E9461
:101A0000FC0C08950E94DE0F0E94BE0208950E9401
:101A1000191C0E947C0F0E94CC110E9415110E947B
:101A2000020D0E944E160E94D6110E94EC0C0895E1
:101A3000AAE0B0E0EEE1FDE00C94A7230E9438118B
:101A4000982E81110E94D30C84E4A82E82E0B82E37
:101A500010E000E0802E802F0E940B10E82EF50190
:101A6000C1905F01C816B1F18091540281FD0E94BE
:101A70001110D12CFF24F394CE248C2D8F2129F129
:101A80000E94F80C882399F0DE828F82EF2081E09B
:101A900009F480E088870E94221C8160782F9A8751
:101AA00089874E815F8168858A850E94DC02F80102
:101AB000EC5BFD4F8081F826F08281E0911001C03F
:101AC00080E02A96ECE00C94C323D394FF0CF6E05C
:101AD000DF12D3CF0F5F1F4F0830110509F0BACFC7
:101AE0008FEF89838A831B820E94221C8160782F5A
:101AF0009D838C8349815A816B818D810E94DC0298
:101B0000DCCF0E94180D0E94B1110E9452150E9454
:101B1000D1020895CF93DF930E94A20EEC018115AC
:101B200021E5920708F042C0811530E5930708F0DF
:101B30009DC0883E910530F5803E910508F092C029
:101B4000883A910588F4853A910508F084C081307F
:101B5000910509F487C0009709F484C0049708F040
:101B600081C0D0E0C0E07EC08F3B9105D0F7C85A5D
:101B7000D0E0CC0FDD1FCF59DE4F0990D881C02DAA
:101B8000D46470C08115904250F4C11581E0D8072B
:101B900008F068C0CD3ED10520F3D06563C0C11503
:101BA00090E4D907F0F2DF70D06A5CC0811525E5BA
:101BB000920700F5811534E5930708F08BC0811575
:101BC00043E5940708F073C0C11582E5D80708F40F
:101BD00069C0CE018370992721E030E002C0220F56
:101BE000331F8A95E2F7C695C69580E2C89FE0014B
:101BF000112454C0C11599E5D907A8F4C11528E5E9
:101C0000D20708F06CC0C11536E5D30708F0A9CF9C
:101C10008C2F0E94390FC82FD0E0DC2FCC27CC2787
:101C2000DF71D0621FC0C1154AE5D40708F45CC05B
:101C3000CE0190568115904208F093CF8D2F8F7171
:101C40000E94390F90E0982F882788279F719C0168
:101C50002C2BE901E6CFC55AD0E0C157DE4FC88131
:101C6000D0E0D064CE01DF91CF910895E4E0969565
:101C70008795EA95E1F783702C2F2695269523709A
:101C800040E2249F90011124382B8C2F8370C1E0F7
:101C9000D0E002C0CC0FDD1F8A95E2F7C22BD32B18
:101CA000DC68E0CFDC2FCC27C16FD06ADBCF83703C
:101CB000992721E030E002C0220F331F8A95E2F716
:101CC000C695C69590E2C99FE0011124C22BD32B83
:101CD000DA68C8CFD82FCC27C46FD06AC3CFDC2F27
:101CE000CC27C06FD06ABECF8C2F8F700E94390F67
:101CF00034E0D695C7953A95E1F7CF709C2FEC016B
:101D0000D069B0CF972F7830A8F4663098F470E09F
:101D100026E0929F600D711D1124FB0190E3899FC5
:101D2000E00DF11D1124EE0FFF1FE455FF4F8591CB
:101D30009491089580E090E008950E94820E0E94A0
:101D40008A0D089582389105B1F1B0F4813391057F
:101D500009F475C048F48932910509F469C08A32E2
:101D6000910509F473C008958533910509F459C0AC
:101D70008933910501F10895833E9105A9F138F465
:101D8000803E9105F9F0823E910549F10895863E25
:101D90009105A9F1873E9105C9F1843E910519F598
:101DA0002091BA0221FF1FC08091B90284FD14C0A6
:101DB00087EE90E008952091B9022370A1F080EEA3
:101DC00090E008952091B90220FD47C03091BA02F9
:101DD00030FF09C024FF44C090E080E004C020919F
:101DE000B90222FDF7CF08952091B90222FD3BC030
:101DF0003091BA0230FDE3CF24FFF5CFEDCF209133
:101E0000B90223FFF0CF24FDE7CFD2CF2091B90252
:101E100023FD2CC03091BA0231FFEECF84EE90E06A
:101E200008952091B90225FFDECF89E290E0089560
:101E30002091B90225FFD7CF85E390E00895209146
:101E4000B90226FFD0CF8AE290E008952091B9022E
:101E500026FFC9CF81E390E0089589E390E00895DB
:101E600083EE90E0089582EE90E0089586EE90E093
:101E700008959091B90292FF06C0282F287128304A
:101E8000F9F4877F846093FF06C0282F28712831DA
:101E9000F1F4877E84612091BA0220FF06C0382FBA
:101EA00038713830D9F4877F816021FF06C0282F30
:101EB00028712831D1F4877E816194FD877E089551
:101EC000282F24712430F9F68B7F8860DCCF282FEF
:101ED0002471243101F78B7E8861DDCF382F317179
:101EE000313019F78E7F8860E0CF282F21712131A2
:101EF00021F78E7E8861E1CF1092B5021092B60272
:101F00001092B7021092B8020895CF92DF92EF922A
:101F1000FF926B017C010E94B11181110EC00E94E1
:101F20002E1CC61AD70AE80AF90AC092B502D09246
:101F3000B602E092B702F092B802FF90EF90DF9005
:101F4000CF9008950F931F930E94B111882329F019
:101F50000E942E1C1F910F9108950E942E1C00912B
:101F6000B5021091B6022091B7023091B802600F0D
:101F7000711F821F931FEECF80E008950E94160C00
:101F800008950E9438118FE39CE90197F1F700C092
:101F900000000E9438110E94C91181110AC084E01A
:101FA0000E940B1081FF04C00E94BE0F0E94891C7A
:101FB000089580E0F5CF0E94C10F08950E941D0C86
:101FC000811102C00E94CA0C0E94280C8093540206
:101FD0000E94320C9093BA028093B9020E94DB0FE8
:101FE0000E942D0C682F70E090E080E00E947D063A
:101FF0006091C0017091C1018091C2019091C301B3
:102000000E94BC06089508950E9403100895089543
:102010000E9407100895E82FF0E0EC53FD4F8081F7
:102020000895089580EA8A95F1F7089500C008950B
:102030000E941210089508950E941B100895EF92B7
:10204000FF921F93CF93DF9300D000D0CDB7DEB7C0
:102050000E94B111182F6091CC02882309F447C067
:1020600019821A821B821C82862F90E09E012F5FAC
:102070003F4F7901B9018C539D4F0E94E411882391
:10208000E9F08091BB0290E044E050E0B7018C534E
:102090009D4F0E94EC2321E020935502892BC9F427
:1020A00010E00E943B02812F0F900F900F900F9035
:1020B000DF91CF911F91FF90EF900895809155028D
:1020C000882371F384E0F70111928A95E9F7109261
:1020D0005502E091BB02F0E0EC53FD4F89819A81FB
:1020E000AB81BC8180839183A283B383DACF70E01C
:1020F0006C537D4F8091BB0290E08C539D4F0E94AA
:102100006B120E941C10CFCFF894E82FE295EF706D
:10211000F0E031A1282F2F7081E090E001C0880FFE
:102120002A95EAF7982F9095932391A392A1892B52
:1021300082A378940895CF93DF9384E90E9484105A
:1021400086E60E94841087E90E94841086EC0E9433
:102150008410C2E9D1E089918F3F11F00E94841070
:1021600081E0C839D807B9F7DF91CF910895B0E081
:10217000A0E0EDEBF0E10C94AB23EC01D62E062FA2
:1021800010E0C80188569E4F7C01FC0180818F3F82
:1021900009F444C0F894E82FE295EF70F0E091A1C3
:1021A0008F7021E030E001C0220F8A95EAF7892F75
:1021B000822B81A382A12095282322A378940E94B8
:1021C0001610E2E9F1E031E0C12C21912F3F59F1E5
:1021D000A22FA295AF70B0E090968C9190E02F70F6
:1021E00002C0959587952A95E2F780FD1CC0832F44
:1021F000C82A330F81E0E839F80739F7F701808101
:102200008F3F11F00E94841061E0C11001C060E0B6
:102210008D2D0E941810C00FD11FC882CDB7DEB718
:10222000E8E00C94C72380E0E3CF80910201809125
:10223000020194E0811190E09093CC0284E0891B2C
:102240008093BB020E949B1088E0E4ECF2E0DF0187
:10225000982F1D929A95E9F7ECEBF2E0DF011D92C1
:102260008A95E9F784E00E947B110E943802089564
:10227000A8E0B0E0EEE3F1E10C94AD238E010F5F36
:102280001F4F88E0F80111928A95E9F7F12C6F2D24
:10229000C8010E94B710F394F4E0FF12F8CF48E0B1
:1022A00050E0B8018CEB92E00E94EC237C0121E02D
:1022B000892B09F420E0E114F10441F088E0F801F1
:1022C000ACEBB2E001900D928A95E1F76091CC02FF
:1022D00070E06C537D4F44E08CEB92E00E947C11E7
:1022E00081E090E0E114F10411F40E941F1028969F
:1022F000E6E00C94C9230895FF920F931F93CF93A8
:10230000DF93F82E092F162FD72FC42F222349F041
:1023100081E0809358020E94221C90935702809380
:102320005602809158028823A1F080915602909124
:1023300057020E943A1C059760F0EF2DF02FA12F55
:10234000BD2FCE0FDF2FD11DEC17FD0739F41092F2
:102350005802CDB7DEB7E5E00C94CA2381918D9386
:10236000F3CF80915B02811107C00E947A238823FA
:1023700051F081E080935B0281E090915B029130AB
:1023800009F080E0089582E080935B020E9475234B
:10239000F3CF0E94B11108950E94C91180930201E8
:1023A0000E94B11181110E941A1208950E94B11168
:1023B000811102C00E941D12089581E090915C027B
:1023C0009A3008F080E008950F931F93CF93DF9326
:1023D000EC018B0180915C028A30B8F4B801CE0127
:1023E0000E946812C82F811122C080915C028F3F29
:1023F000B9F40E94221C90935A02809359028C2FA8
:10240000DF91CF911F910F91089580915902909182
:102410005A020E943A1C843F914000F7C0E0EFCF7F
:102420008F5F80935C028A3020F7C1E0E8CF109282
:102430005C02E5CF0E94DD1808950E94E01808951F
:10244000B0E0A0E0E6E2F2E10C94AC237901C82F01
:10245000880FDD0B41155105A9F0FE0193E0EE0F49
:10246000FF1F9A95E1F7ED5FFE4F81819281835ABC
:102470009D4F208130E04217530708F49A01A901CB
:102480000E94F923CE010E94C919D82E8823D1F0C9
:1024900001151105B9F083E0CC0FDD1F8A95E1F736
:1024A000FE01ED5FFE4F438150E00417150708F46D
:1024B000A801CD5FDE4F6C817D81635A7D4FC701DE
:1024C0000E94F9238D2DCDB7DEB7E7E00C94C82329
:1024D0000E94621308950E9479130895A4E0B0E069
:1024E000E4E7F2E10C94AF23609172027091730201
:1024F00080917402909175020E94491C11E064362B
:1025000071058105910518F10E94A20F6E5F7F4F42
:102510008F4F9F4F69837A838B839C8310E000E009
:1025200030E020E044E050E0BE016F5F7F4F82E08A
:102530000E942012182F882351F00E942E1C6093B5
:102540007202709373028093740290937502812FCC
:102550002496E4E00C94CB23B0E0A0E0E2EBF2E1BF
:102560000C94A9237C015B016A010E94DD1101E04A
:1025700010E0882311F00AE010E0C1E0D0E0B501DE
:10258000C701F6010995811104C021960C171D079A
:102590002CF4CDB7DEB7EAE00C94C523CC9F9001B4
:1025A000CD9F300D300D112490E080E045E34A9539
:1025B000F1F70000019682179307C1F7E0CFA5E07D
:1025C000B0E0E5EEF2E10C94A9235B01E0909C0100
:1025D000F0909D0101E010E09E012B5F3F4F50E025
:1025E00040E070E060E080E00E942012182F882315
:1025F00009F44BC067018FEFC81AD80A60916E02C8
:1026000070916F0280917002909171020E94491C3A
:10261000643671058105910580F104E010E09E01AA
:102620002F5F3F4F50E040E070E060E081E00E94AB
:102630002012F82E64E070E0C6010E944F1611E0EF
:102640009D81981310E01F2159F10E942E1C609368
:102650006E0270936F028093700290937102898171
:102660009A81AB81BC8180936A0290936B02A093A4
:102670006C02B0936D0211E013C064E070E0C6011B
:102680000E944F169D818913C8CFF70181819281E5
:10269000A381B48189839A83AB83BC831111DFCF7B
:1026A00080916A0290916B02A0916C02B0916D02D0
:1026B000F50180839183A283B383812F2596EAE07D
:1026C0000C94C5230F931F93CF93DF93EC018B01E1
:1026D0004FED52E10E94AC12882331F04EE652E1F8
:1026E000B801CE010E94AC12DF91CF911F910F91E2
:1026F00008950F931F93CF93DF93C0919C01D091C6
:102700009D01CE01019624E0FB01DC0101900D92B8
:102710002A95E1F764E070E00E944F1688836D818E
:102720007E818F81988500916602109167022091C9
:10273000680230916902601771078207930751F0B0
:1027400060936602709367028093680290936902B7
:102750000E94850FDF91CF911F910F9108950E94E4
:10276000501E0E94070D0E945D1E08950E94621E69
:102770000E94810D0E947C1E08950E94BB1B0E9436
:10278000361E0E94EF0C0E94AF130E94B6130E94E7
:10279000FD0CFBCF80917C0280FF0DC06091200179
:1027A00070E0660F771F6038710570F5611571056F
:1027B00069F1862F089581FF07C06091200184E0B0
:1027C000689FB0011124EFCF6091200182FD0AC003
:1027D00080917B028823A9F020911F016091200144
:1027E000821710F088E0ECCF869FC001112433E0FF
:1027F000880F991F3A95E1F7622F70E00E948723B6
:10280000D2CF68E070E0D5CF8FE7089581E00895DA
:1028100080917C0280FF0CC060911C0170E0759576
:102820006795759567956115710549F1862F08952E
:1028300081FF06C060911C0170E075956795F3CF2C
:1028400060911C0182FD0BC090917A029923A1F046
:1028500060911B0180911C01961738F0682F70E081
:102860006038710500F38FE70895899FC001112436
:1028700070E00E948723F4CF61E070E0D7CF81E061
:1028800008958D3E31F40E94CA1381958093800291
:1028900008958E3E19F40E94CA13F8CF8F3E31F48A
:1028A0000E94CA13819580937F020895803F19F496
:1028B0000E94CA13F8CF893F29F40E94081480931C
:1028C000810208958A3F21F40E9408148195F7CF70
:1028D0008B3F31F40E940814819580938202089501
:1028E0008C3F19F40E940814F8CF9FE0980F98309D
:1028F00070F4815F990B21E030E001C0220F8A95CE
:10290000EAF780917E02822B80937E0208958D3FAC
:1029100031F480917C02816080937C0208958E3F27
:1029200021F480917C028260F7CF8F3FB9F78091CC
:102930007C028460F1CF40917F028D3E59F48091FA
:10294000800287FF0DC01092800241110BC01092CF
:102950007B0208C08E3E81F48091800218169CF3A1
:10296000442381F08091810290918202892B09F0A9
:102970005AC010927A0208958F3E49F447FFF0CF73
:1029800010927F02809180028111ECCFE0CF803FD6
:1029900019F41416ACF3E4CF90918102893F29F425
:1029A0001916F4F610928102DBCF8A3F19F497FFD3
:1029B000D7CFF8CF909182028B3F29F497FFD0CFE9
:1029C00010928202CDCF8C3F19F41916CCF3C8CFE8
:1029D0009FE0980F983090F4815F990B21E030E0F0
:1029E000B90102C0660F771F8A95E2F7CB01809587
:1029F00090917E02892380937E02B2CF8D3F31F485
:102A000080917C028E7F80937C02AACF8E3F21F43E
:102A100080917C028D7FF7CF8F3F09F0A1CF80910D
:102A20007C028B7FF0CF08950E94221C9C01909124
:102A30007F0280918002982B21F0309379022093BD
:102A400078029091810280918202982B21F030933C
:102A50007702209376028DE792E00E94771A08951C
:102A600086E0EDE7F2E0DF011D928A95E9F710922A
:102A70007B0210927A0210927C020895FC018281FE
:102A800081110EC0838181110BC08481811108C026
:102A900091E08581811101C090E0892F81700895B6
:102AA00081E0FCCFA6E0B0E0E8E5F5E10C94B023CE
:102AB00086E0EDE7F2E0DE01119601900D928A9535
:102AC000E1F710927F021092800210928102109220
:102AD00082028B819C81892B89F080917802909170
:102AE00079020E943A1CAC0190917B029923C9F1B2
:102AF000809121018417150608F440C08D819E81C4
:102B0000892B91F080917602909177020E943A1C75
:102B1000AC0190917A02992309F471C080911D0152
:102B20008417150608F479C0BE016F5F7F4F8DE7EB
:102B300092E00E94731B811105C08DE792E00E9414
:102B40003E1581110E94141586E0FE013196ADE715
:102B5000B2E001900D928A95E1F72696E3E00C949D
:102B6000CC23209122018AE0289F90011124241770
:102B7000350720F69F5F90937B0202C09F3FD1F7FD
:102B80001B81112359F00E94CA139FEF11160CF4F8
:102B900091E0899F802D112480937F021C81112355
:102BA00059F00E94CA139FEF11160CF491E0899F0F
:102BB000802D11248093800230917F02332309F409
:102BC0009DCF20918002222309F498CF45EB340356
:102BD000C0011124992359F090937F0245EB2403FF
:102BE00090011124332339F03093800287CF81E0A4
:102BF00080937F02F3CF81E0809380027FCF20918A
:102C00001E018AE0289F900111242417350708F03F
:102C10008BCF9F5F90937A0202C09F3FD1F71D81B7
:102C2000112359F00E9408149FEF11160CF491E043
:102C3000899F802D1124809381021E81112359F0D8
:102C40000E9408149FEF11160CF491E0899F802DCB
:102C500011248093820230918102332309F464CFDE
:102C600020918202222309F45FCF45EB3403C00197
:102C70001124992359F09093810245EB240390018C
:102C80001124332339F0309382024ECF81E08093B8
:102C90008102F3CF81E08093820246CF0895FC0148
:102CA000680F791F8FEF91E3E617F70709F408958E
:102CB0002191822728E030E087FF06C0880F89270E
:102CC00021503109C9F7F0CF880FFACFCF93DF93A6
:102CD000EC01FB018281882309F433C1C430FDE596
:102CE000DF07C0F5CB3F9CE5D90730F49E012250A9
:102CF0003C4524313105B0F50E94320C9093BA0264
:102D00008093B902C1318CE5D80709F4EEC008F010
:102D100069C0C930ECE5DE0709F4D5C0C8F5C53097
:102D20008CE5D80709F4C7C000F5C330ECE5DE0731
:102D300009F4B9C008F0BBC0C230DC4509F4ADC02D
:102D40008091B9029091BA020E94400C0E942F0615
:102D500080E008C0C236EDE5DE0771F2C63AFDE557
:102D6000DF0751F2DF91CF9108958091B90280621F
:102D7000C7309CE5D90709F493C08091B9028061FE
:102D8000C830DC4508F48CC08091B902806488C0EA
:102D90008091B9028B7FCD30FCE5DF0709F480C05C
:102DA00098F48091B9028E7FCB309CE5D90709F465
:102DB00077C08091B9028C60CC30DC4508F470C0DB
:102DC0008091B9028D7F6CC08091B9028F7ECF3027
:102DD000FCE5DF0709F464C008F47BC08091B90208
:102DE0008F7D5EC0CE3F9CE5D90709F47AC050F5CF
:102DF000C531FCE5DF0709F486C098F48091B9027B
:102E0000837FC3319CE5D90709F44AC008F471C037
:102E10000E942F069091B902892F97FB87F980585D
:102E20003FC0CC3FFCE5DF0709F449C008F055C0BE
:102E30008091BA028160CB3FDC4509F081CF80935D
:102E4000BA027ECFC230EDE5DE0709F468C0A8F40F
:102E5000C1158DE5D80709F452C08091BA0283608C
:102E6000C130DD4560F38091BA02982F9095917042
:102E70008E7F892B90FB81F9E2CFC236EDE5DE072C
:102E800009F451C0C63AFDE5DF0709F453C0C33069
:102E9000DD4509F055CF80E043C08091B9028160E3
:102EA0008093B9024DCF8091B9028260F9CF8091B1
:102EB000B9028460F5CF8091B9028860F1CF80912A
:102EC000BA028260BCCF0E942F068091B90280684E
:102ED000E7CF8091B902877FE3CF8091BA028E7FDE
:102EE000AECF8091BA028D7FAACF8091B9028F7B3D
:102EF000D7CF0E942F068091B9028F77D1CF8091D2
:102F0000BA028C7F9CCF8091B90282FB992790F9FD
:102F100021E0922790FB82F990FB83F9C1CF81E0F9
:102F20000E94CD0C0DCF9091B902892F8F7E94FF16
:102F30008061B6CF9091B902892F8E7F90FF81601A
:102F4000AFCF81E00FCFCF93DF93EB0186319C456C
:102F500011F50E942F0B9A81992399F08A7A91E0BA
:102F600009F490E090938302811109C089E20E94E4
:102F7000070B0E94700B80E0DF91CF91089585E3ED
:102F8000F6CF80918302811104C089E20E940F0B69
:102F9000F0CF85E3FBCF81E0EFCF0F931F93CF936B
:102FA000DF93C42FD22FFC0182818823C9F0409384
:102FB00086020E94221C909385028093840280E204
:102FC0008C0F883040F4C77081E001C0880FCA952B
:102FD000EAF70E94B603DF91CF911F910F910895F8
:102FE00010918602141332C0809184029091850260
:102FF0000E943A1C883C910548F5C0E2CD0F1D1790
:10300000B9F080E2810F883040F4177081E001C090
:10301000880F1A95EAF70E94BD03C83048F481E092
:103020009D2F977001C0880F9A95EAF70E94B6030A
:10303000802F0E94AD03C83070F6D77081E001C0C8
:10304000880FDA95EAF70E94BD03C5CF80E28C0FA6
:10305000883008F6C77081E001C0880FCA95EAF78A
:10306000F2CF0F939C01CB01243F4CE5340759F17B
:10307000A8F4293DFCE53F0701F12A3D4CE5340762
:10308000D1F1283D3C4591F406E221EE41EE68ED98
:103090007CE50E94CD1780E00F910895263FFCE566
:1030A0003F07E9F0B0F0273F3C45F9F0FC01828191
:1030B000882339F110928602EFCF07E225EE45EE24
:1030C00069ED7CE5E6CF06E221EE40EE64EF7CE5BB
:1030D000E0CF07E225EE44EE65EF7CE5DACF06E2CD
:1030E00021EE42EE66EF7CE5D4CF07E225EE46EE18
:1030F00067EF7CE5CECF08E221E045EE6AED7CE5A6
:10310000C8CF81E0C9CF8EE14A9B02C08150E1F770
:103110004A9BFECF08955A9880E28A95F1F75A9A11
:103120000895FC013BE03A95F1F798E020E080E05B
:1031300031E040E14A95F1F7880F4A9B02C0816077
:10314000232742E04A95F1F7000040E14A95F1F764
:10315000915079F790E19A95F1F799B132E03A956B
:10316000F1F7000040E14A95F1F792FB992790F9B9
:1031700092272081920F90830895A1E0B0E0E3ECC4
:10318000F8E10C94AD2319828C017C01E60EF11C50
:103190000E151F0541F481E09981911180E021967F
:1031A000E6E00C94C9230E948318CE0101960E9488
:1031B0009118F80181938F01EBCF529A5A9A089592
:1031C00052985A9AEA9AE9E6F0E080818F7C8083EF
:1031D00008956150770B91E001C0990F6A95EAF765
:1031E00020E031E0911108C0222391F05A9A80E248
:1031F0008A95F1F75A980895492F482339F05A9A39
:10320000232740E24A95F1F79695ECCF5A98F9CFEB
:103210005A98EDCFFF920F931F93CF93DF93EC015A
:103220008C01060F111DC017D10729F4CDB7DEB7E9
:10323000E5E00C94CA23F9900E948B1868E08F2D6A
:103240000E94E918F0CF1F920F920FB60F9211242F
:103250000F931F932F933F934F935F936F937F939E
:103260008F939F93AF93BF93EF93FF93CF93DF938E
:103270000F92CDB7DEB719820E948318CE01019656
:103280000E949118082F069506950695282F2295DD
:103290002570902F9570290F922F93702695269563
:1032A000920F982797708981982B09F05CC00430A1
:1032B00008F059C080E18A95F1F75A9A529A82E053
:1032C0008A95F1F700C05A9888E0089F8001112480
:1032D000D801AD5FBE4F1696ED91FC9117973097D0
:1032E000A9F060919C0170919D0114962D913C91E3
:1032F0001597260F371F11968D919C911297680F85
:10330000791F13964C9113978C910995F801ED5FF5
:10331000FE4F6381662351F020919C0130919D0105
:1033200084819581820F931F0E940A190E948B1835
:1033300080E18A95F1F75A9852985A9A80E18A95D5
:10334000F1F7F801ED5FFE4F6081662351F02091A7
:103350009C0130919D0181819281820F931F0E9477
:10336000BD180E9483180F90DF91CF91FF91EF91CC
:10337000BF91AF919F918F917F916F915F914F918D
:103380003F912F911F910F910F900FBE0F901F90A3
:1033900018950F931F93CF93DF93EC0104970CF0D4
:1033A0004CC0F894529A5A9885E08A95F1F700003B
:1033B0009C2F969595708C2F8570980F892F837010
:1033C0009695969523E0CC0FDD1F2A95E1F7980F8F
:1033D0008E01092B0E948B1800C068E0802F0E948C
:1033E000E91880E18A95F1F752985A9A4A9B1EC0D3
:1033F00087E090E04A991CC0FE01ED5FFE4F6381BB
:103400006623F9F020919C0130919D018481958182
:10341000820F931F0E94BD18811113C0529A5A9AAD
:103420007894DF91CF911F910F91089500C0DECF66
:10343000019729F4529A5A9A789480E0F2CF00C00A
:10344000D9CF0E94831880E28A95F1F75A98529A50
:1034500080E18A95F1F7CD5FDE4F6881662351F0F8
:1034600020919C0130919D0189819A81820F931F47
:103470000E940A190E948B18789481E0D2CF909311
:103480009F0180939E01089590938D0280938C02FA
:1034900008950E94B111811103C08091870208959F
:1034A000E0918C02F0918D02309729F00190F0812B
:1034B000E02D0995089580E00895E0918C02F09147
:1034C0008D02309799F020912F01222359F02091FD
:1034D000B90227FF07C0DC012C9111962C9311979C
:1034E00026E02C930280F381E02D09950895E09168
:1034F0008C02F0918D02309739F022E0DC012C93A0
:103500000480F581E02D0995089520918A0230917B
:103510008B022817390771F090938B0280938A02EF
:10352000E0918C02F0918D02309721F00680F781B6
:10353000E02D09950895209188023091890228177D
:10354000390771F09093890280938802E0918C0290
:10355000F0918D02309721F00084F185E02D0995DE
:103560000895FC01329680912F01882321F08091EB
:10357000B9029EE187FF96E080E0915008F408953B
:1035800021912223D1F38F5FF8CF662301F120919F
:103590002F012223F1F02091B90227FF1AC0462FF4
:1035A0004695469546954E3190F4677021E030E09F
:1035B00002C0220F331F6A95E2F7840F911DFC01B0
:1035C000828190E02823392381E0232B69F480E075
:1035D0000895FC01329608962191261721F0E817EC
:1035E000F907D1F7F4CF81E008959C01FC013296F0
:1035F0009FEF80E04191461751F09F3F19F4411130
:1036000001C0982F8F5F8630A9F79F3F09F4089576
:10361000290F311D97FD3A95F90162830895FC0148
:10362000329608962191261303C0DF0111971C9250
:10363000E817F907B9F70895E62FE695E695E695B8
:10364000EE3168F4E80FF92FF11D677021E030E0EA
:1036500001C0220F6A95EAF78281822B8283089546
:10366000E62FE695E695E695EE3170F4E80FF92F32
:10367000F11D677021E030E001C0220F6A95EAF782
:103680002095828128232283089520912F012223CF
:1036900039F02091B90227FF03C00E941C1B089536
:1036A0000E94F51A089520912F01222339F02091CC
:1036B000B90227FF03C00E94301B08950E940F1B10
:1036C0000895FC01329680912F01882351F080915A
:1036D000B90287FF06C08EE1DF011D928A95E9F7E6
:1036E000089586E0F9CF46E050E00E94EC2321E007
:1036F000892B09F420E0822F089508950E947D1BF4
:103700000895811106C081E080938E020E947E1B85
:10371000089582E0F9CF83E080938E020E947E1BA1
:1037200008950E94811B089581E080938E020E947B
:103730007E1B08950E94941B0895089508950E9489
:103740009E1B0895089508950E949D1B0895CF9390
:103750000E94A21B0E9438110E94A31BC0E08C2F64
:103760000E940B10811105C0CF5FC830C1F7CF9107
:10377000089581E0FCCF85B7806885BF85B78068F4
:1037800085BF08951F921FB61F9211248F939F9398
:10379000AF93BF9380918F02811113C08091CD02AE
:1037A0009091CE02A091CF02B091D0024196A11D7E
:1037B000B11D8093CD029093CE02A093CF02B0931F
:1037C000D002BF91AF919F918F911F901FBE1F900C
:1037D00018958091D502843031F10E94AB0210928D
:1037E0008F0288E190E020E40FB6F894A8958093CA
:1037F00060000FBE2093600083B7817F846083BF29
:1038000083B7816083BF7894889583B78E7F83BFA9
:103810000FB6F894A895809160008861809360004D
:10382000109260000FBE08950E942F060E94B00201
:10383000089582E084BD93E095BD9AEF97BD809393
:103840006E0008952FB7F8948091CD029091CE022A
:10385000A091CF02B091D0022FBF08952FB7F89456
:103860006091CD027091CE028091CF029091D002F2
:103870002FBF08959C014FB7F8948091CD0290918D
:10388000CE02A091CF02B091D0024FBF821B930B0A
:103890000895CF92DF92EF92FF922FB7F894C090E5
:1038A000CD02D090CE02E090CF02F090D0022FBF98
:1038B000A7019601261B370B480B590BCA01B9010A
:1038C000FF90EF90DF90CF90089578941F921FB6ED
:1038D0001F9211248F939F93AF93BF938091CD023A
:1038E0009091CE02A091CF02B091D0020196A11D7D
:1038F000B11D8093CD029093CE02A093CF02B093DE
:10390000D002BF91AF919F918F911F901FBE1F90CA
:10391000189587E797E7909301088093000888E15E
:103920009AE00FB6F894A895809360000FBE90932C
:103930006000FFCF88E19AE00FB6F894A8958093D5
:1039400060000FBE90936000FFCF8091B302089596
:1039500008959C0182E08093E9009FEF8091E80048
:10396000915085FD06C085ED8A95F1F70000911113
:10397000F5CF8091E80085FF0CC050E040E066E0A4
:1039800070E0C9010E94EE1E8091E8008E7780935E
:10399000E8000895CF93DF93EC0180912F018823F5
:1039A000B1F18091B90287FF32C060E282E080937A
:1039B000E9008FEF9091E800815095FD06C095EDEC
:1039C0009A95F1F700008111F5CF8091E80085FF0D
:1039D0001BC080912F0170E050E040E0811104C0D5
:1039E00050E040E068E070E0CE010E94EE1E809161
:1039F000E8008E778093E80080E2FE01A3E9B2E060
:103A000001900D928A95E1F7DF91CF91089568E0DA
:103A100081E0CDCF809390027093920260939102E7
:103A20008091D502843001F582E08093E9008FEF28
:103A30009091E800815095FD06C095ED9A95F1F7BB
:103A400000008111F5CF8091E80085FF0DC050E0A6
:103A500040E063E070E080E992E00E94EE1E809119
:103A6000E8008E778093E8000895BC0184E00E940E
:103A70000A1D0895BC0183E00E940A1D08958091EB
:103A8000D402811109C00E947E200E94DB20809117
:103A9000E20084608093E20008951092D4020895B9
:103AA0000E94941B08956091D10281E0611101C0D0
:103AB00080E00E948B1B08959091D50281E09430A4
:103AC00009F080E06091D1020E94911B089542E0CC
:103AD00061EC81E00E94FA1F42E261EC82E00E9408
:103AE000FA1F9091D50281E0943009F080E0609156
:103AF000D1020E94811B08958091D702833009F47E
:103B000061C030F48130D1F1823009F49EC0089553
:103B10008A3009F48AC08B3009F46FC0893009F00B
:103B200050C08091D602813209F04BC08091DA02F8
:103B30009091DB02029708F044C08091E800877FF3
:103B40008093E8008091E80082FF37C09091F300F5
:103B50008091F200029731F48091F100813011F0F0
:103B6000863021F48091F1008093B3028091E800C7
:103B70008B778093E8000E942E2023C08091D6028C
:103B8000813AF9F48091E800877F8093E800809182
:103B9000DA029091DB02892B61F460E283E992E022
:103BA00070E00E943D1F8091E8008B778093E800D1
:103BB000089560E090E080E0F3CF8091D50281111C
:103BC000C1CF08958091D602813AD9F78091DA0267
:103BD0009091DB02892BA9F78091E800877F809381
:103BE000E8008091E80080FFFCCF80912F01809356
:103BF000F1008091E8008E77BCCF8091D6028132AF
:103C000001F78091DA029091DB02892BD1F6809145
:103C1000E800877F8093E8000E942E208091D802E0
:103C200080932F010E942F0608958091D602813241
:103C300041F68091E800877F8093E8000E942E2063
:103C40008091D9028093B40208958091D602813A7E
:103C500009F0B7CF8091E800877F8093E8008091DA
:103C6000E80080FFFCCF8091B402C1CF84B7877F8A
:103C700084BF0FB6F894A895809160008861809306
:103C80006000109260000FBE80E890E00FB6F894DC
:103C900080936100909361000FBE0E949A1B08956B
:103CA0000E947E200E94DB20E2EEF0E080818460B2
:103CB000808378940E945A23089583E291E00E94C1
:103CC000441A08958091D502853031F48091D5024F
:103CD000853019F00E94141C08950E94E91B809100
:103CE000D302882399F30E94A71B882379F30E94AB
:103CF000D81E0E942F06EACF08950E94801E0895C4
:103D0000292F33272330310519F168F4213031058B
:103D100009F444C02230310509F445C090E080E048
:103D200030E020E025C02132310549F12232310551
:103D3000A9F780E490E023E533E061157105C1F057
:103D400086EB90E02DE932E06130710589F0E6CF35
:103D500099278130910581F0009729F00297F1F6BB
:103D6000ECE2F2E002C0ECE4F2E0849190E09F012A
:103D7000FA01318320830895EAE3F2E0F6CF89E087
:103D800090E022E632E06115710591F389E090E060
:103D90002BE732E06130710559F3C0CF82E190E04A
:103DA0002BE832E0E5CF8BE390E020E532E0E0CF96
:103DB00080E189BD82E189BD09B400FEFDCF80911B
:103DC000D8008F7D8093D8008091E000826080933E
:103DD000E0008091E00081FDFCCF0895AF92BF929A
:103DE000CF92DF92FF920F931F93CF93DF936C01DB
:103DF000EB018A010E944D20F82E811123C001158C
:103E0000110539F0F80180819181C81BD90BC80ECA
:103E1000D91EB12CA12C2097A9F08091E80085FD36
:103E200022C08091E8008E778093E800011511058B
:103E3000A1F0F80180819181A80EB91EB182A08203
:103E400085E0F82E8F2DDF91CF911F910F91FF907C
:103E5000DF90CF90BF90AF9008950E944D208823AF
:103E6000D1F2F82EEFCFF60181916F018093F1002E
:103E70002197FFEFAF1ABF0ACECFFC018091DC0281
:103E80009091DD0286179707A0F06115710529F45E
:103E90009091E8009E779093E80090E0611571059D
:103EA00051F4911108C08091E80082FF34C080E095
:103EB0000895BC01F2CF8091D5028823C1F18530ED
:103EC000C1F18091E80083FD30C08091E80082FD5F
:103ED000EACF8091E80080FFE1CF8091F30020914C
:103EE000F200382F6115710519F02830310558F0AE
:103EF00091E02830310509F090E02091E8002E771C
:103F00002093E800CBCF81918093F100615071093B
:103F10002F5F3F4FE7CF8091D502882341F0853056
:103F200041F08091E80083FFBECF81E0089582E0F8
:103F3000089583E00895FC018091DC029091DD02F8
:103F400086179707A0F06115710529F48091E800A4
:103F50008E778093E80090E06115710551F491111E
:103F600008C08091E80082FF35C080E00895BC0160
:103F7000F2CF8091D5028823C9F18530C9F18091B3
:103F8000E80083FD31C08091E80082FDEACF809196
:103F9000E80080FFE1CF8091F3002091F200382FFC
:103FA0006115710519F02830310558F091E028307D
:103FB000310509F090E08091E8008E778093E80069
:103FC000CBCF84918093F1003196615071092F5FBE
:103FD0003F4FE6CF8091D502882341F0853041F0F4
:103FE0008091E80083FFBDCF81E0089582E00895CD
:103FF00083E00895982F973028F08F708093E90020
:1040000081E008959093E900242F762F50E09817CF
:1040100031F07091EC002091ED005091F00021FD05
:1040200002C09F5FE8CF3091EB003E7F3093EB0002
:104030003091ED003D7F3093ED003091EB00316029
:104040003093EB007093EC002093ED005093F00060
:104050002091EE0027FDE5CF80E008958091D60203
:1040600087FF13C08091E80082FF06C08091E800BE
:104070008B778093E80004C08091D5028111F2CF44
:1040800008958091D5028823D9F38091E80080FFBC
:10409000F8CF8091E8008E77ECCF2091E40030914A
:1040A000E50095E6A9012091EC00822F817020FFA8
:1040B00006C08091E80080FF06C080E0089520914E
:1040C000E80022FD1AC08091D502882389F085304E
:1040D00089F08091EB0085FD0FC02091E4003091C4
:1040E000E50042175307F9F29150E1F684E0089594
:1040F00082E0089583E0089581E008950E94ED2014
:104100000E94F520E0EEF0E0808181608083E8EDA0
:10411000F0E080818F77808319BCA7EDB0E08C91AF
:104120008E7F8C9380818F7E80831092D40208953D
:104130000F931F93CF93DF930E94ED200E94F520F1
:10414000C8EDD0E088818F778883888180688883F4
:1041500088818F7D888319BC1092D5021092D1027C
:104160001092D3021092D20200EE10E0F80180818A
:104170008B7F808388818160888342E060E080E07B
:104180000E94FA1FE1EEF0E080818E7F8083E2EEF4
:10419000F0E0808181608083808188608083F80185
:1041A00080818E7F8083888180618883DF91CF9139
:1041B0001F910F910895E8EDF0E080818F7E80835C
:1041C000E7EDF0E080818160808384E082BF81E060
:1041D0008093D4020E9498200895E8EDF0E0808159
:1041E0008E7F80831092E20008951092DA00109280
:1041F000E10008951F920F920FB60F9211242F9392
:104200003F934F935F936F937F938F939F93AF935E
:10421000BF93EF93FF938091E10082FF0BC08091E9
:10422000E20082FF07C08091E1008B7F8093E10074
:104230000E9459238091DA0080FF19C08091D80034
:1042400080FF15C08091DA008E7F8093DA00809124
:10425000D90080FF96C080E189BD82E189BD09B4A3
:1042600000FEFDCF81E08093D5020E943F1D80912A
:10427000E10080FF19C08091E20080FF15C08091AD
:10428000E2008E7F8093E2008091E2008061809363
:10429000E2008091D80080628093D80019BC85E04C
:1042A0008093D5020E94531D8091E10084FF2BC0B2
:1042B0008091E20084FF27C080E189BD82E189BD51
:1042C00089B5982F917080FFFBCF8091D8008F7DAA
:1042D0008093D8008091E1008F7E8093E1008091EF
:1042E000E2008F7E8093E2008091E2008160809303
:1042F000E2008091D102882309F449C084E08093D0
:10430000D5020E945C1D8091E10083FF29C080914D
:10431000E20083FF25C08091E100877F8093E10068
:1043200082E08093D5021092D1028091E1008E7FCD
:104330008093E1008091E2008E7F8093E200809183
:10434000E20080618093E20042E060E080E00E9451
:10435000FA1F8091F00088608093F0000E94501D49
:10436000FF91EF91BF91AF919F918F917F916F914D
:104370005F914F913F912F910F900FBE0F901F9023
:10438000189519BC1092D5020E944D1D70CF8091D6
:10439000E30087FD93E09093D502B3CF1F920F9275
:1043A0000FB60F9211242F933F934F935F936F9308
:1043B0007F938F939F93AF93BF93CF93DF93EF93AD
:1043C000FF93D091E900DF708091EC00C82FC1709D
:1043D00080FDC0E81092E9008091F000877F809313
:1043E000F00078940E9412221092E9008091F0006F
:1043F00088608093F000CD2BCF70C093E900FF91CF
:10440000EF91DF91CF91BF91AF919F918F917F916C
:104410006F915F914F913F912F910F900FBE0F9031
:104420001F901895AAE2B0E0E8E1F2E20C94B02304
:1044300086ED92E02091F100FC012193CF01F2E0A2
:104440008E3D9F07B9F70E947C1D8091E80083FF95
:104450001EC18091D6029091D7029A3008F017C100
:10446000E92FF0E0EE5AFB4D0C949B23803899F035
:10447000823809F00CC18091DA028F70873008F021
:1044800006C18093E9008091EB0085FB882780F9C5
:104490001092E90006C08091D2029091D30291114E
:1044A00082609091E800977F9093E8008093F100FC
:1044B0001092F1008091E8008E77E5C0882309F41E
:1044C000D3C0823009F0E3C08091D8028111D6C0F8
:1044D0008091DA028F702FEF280F263008F0D7C0B6
:1044E0008093E9002091EB0020FFC8C0933031F4A5
:1044F0008091EB0080628093EB00C0C09091EB0054
:1045000090619093EB0021E030E001C0220F8A958A
:10451000EAF72093EA001092EA008091EB008860AD
:10452000EACF8111B4C01091D8021F778091E300C7
:104530008078812B8093E3008091E800877F8093CF
:10454000E8000E942E208091E80080FFFCCF80913F
:10455000E30080688093E30082E0111183E08093A0
:10456000D50295C08058823008F091C08091D80261
:104570009091D9028C3D23E09207A1F583E08A83D4
:104580008AE289834FB7F894DE01139620E03EE07B
:1045900051E2E32FF0E050935700E49120FF03C075
:1045A000E295EF703F5FEF708E2F90E0EA30C0F041
:1045B000C7968D939D932F5F243159F74FBF8091FC
:1045C000E800877F8093E8006AE270E0CE01019600
:1045D0000E943D1F8091E8008B778093E80057C0D0
:1045E000C096E7CF6091DA027091DB02AE014F5FB7
:1045F0005F4F0E947D1EBC01892B09F448C0909139
:10460000E800977F9093E80089819A810E949B1F20
:10461000E1CF8038E1F58091E800877F8093E80062
:104620008091D1028093F10045CF811130C09091EB
:10463000D802923060F58091E800877F8093E8008F
:104640009093D1020E942E208091D102882311F0F4
:1046500084E005C08091E30087FDFACF81E080937C
:10466000D5020E94671D13C08091D802813079F471
:1046700081E0933009F080E08093D3021092E9004A
:104680008091E800877F8093E8000E942E2080912F
:10469000E80083FF0AC08091E800877F8093E800EC
:1046A0008091EB0080628093EB00AA96E3E00C948B
:1046B000CC230895CF938091D5028823A1F0C09197
:1046C000E900CF709091EC00892F817090FD80E817
:1046D000C82B1092E9008091E80083FD0E9412220D
:1046E000CF70C093E900CF9108950E947E20109270
:1046F000D5020895E8EDF0E08081806180838AE151
:104700008A95F1F700C08091D9008170089597FBD8
:10471000072E16F4009407D077FD09D00E94D82305
:1047200007FC05D03EF4909581959F4F08957095B4
:1047300061957F4F0895EE0FFF1F0590F491E02DD6
:1047400009942F923F924F925F926F927F928F9235
:104750009F92AF92BF92CF92DF92EF92FF920F9310
:104760001F93CF93DF93CDB7DEB7CA1BDB0B0FB61A
:10477000F894DEBF0FBECDBF09942A8839884888D7
:104780005F846E847D848C849B84AA84B984C8846D
:10479000DF80EE80FD800C811B81AA81B981CE0F64
:1047A000D11D0FB6F894DEBF0FBECDBFED01089549
:1047B000AA1BBB1B51E107C0AA1FBB1FA617B70747
:1047C00010F0A61BB70B881F991F5A95A9F7809563
:1047D0009095BC01CD010895FB01DC0104C08D91D1
:1047E0000190801921F441505040C8F7881B990B63
:1047F0000895FB01DC0102C001900D924150504030
:10480000D8F70895F999FECF92BD81BDF89A9927FE
:1048100080B50895A8E1B0E042E050E00C94362461
:10482000262FF999FECF92BD81BDF89A019700B469
:10483000021639F01FBA20BD0FB6F894FA9AF99A09
:104840000FBE08950396272F0E9411240E94102462
:10485000252F0E941124242F0C9411240196272F18
:104860000E9411240C941024DC01CB01FC01F99965
:10487000FECF06C0F2BDE1BDF89A319600B40D92AC
:1048800041505040B8F70895F894FFCFFF03FF035D
:1048900030043004BD04D9045F045F04E4047005EF
:1048A0007F057F0536225E2247235E224723912221
:0848B000B2224723092315235E
:1048B80022020100000001000000000000000401C5
:1048C8000000000405000000000000280850011E38
:1048D8000A1401A51CCA1CA91C3A1D351DA81C01D7
:1048E800E200E900EA00B500B600B700CD00830198
:1048F800CC008A019201940121022302240225029C
:10490800260227022A02B300B4006F0070008182D9
:1049180083E200E900EA00B500B600B700CD0083E5
:1049280001CC008A0192019401210223022402256C
:1049380002260227022A02B300B4006F0070008129
:0E4948008283F4F5F6F73133946697C65D026C
:00000001FF
