:100000000C945E030C94A5030C94A5030C94A50317
:100010000C94A5030C94A5030C94A5030C94A503C0
:100020000C94A5030C94A5030C94E32C0C94B52D0F
:100030000C9419250C94A5030C94A5030C94A5030A
:100040000C94A5030C94A5030C94A5030C94A50390
:100050000C94A5030C948E250C94A5030C94A50375
:100060000C94A5030C94A5030C94A5030C94A50370
:100070000C94A5030C94A5030C94A5030C94A50360
:100080000C94A5030C94A5030C94A5030C94A50350
:100090000C94A5030C94A5030C94A5030C94A50340
:1000A0000C94A5030C94A5030C94A5033F134813CB
:1000B0004D13521357135C13611366136B137013B4
:1000C00075137A137F13841389138E139313981364
:1000D0009D13A213A713AC13B113B613BB13C01314
:1000E000C513CA13CF13D413D913DE13E313E813C4
:1000F000ED13F213F713951598159D15A415A91571
:10010000AE15B315B815BD15C215C715CC15CE154E
:10011000D015D215D815D815D815D815D815F71A61
:10012000F71A291B291B761B941BB51CB51C9F1B9A
:10013000341C451C451CA51CB51CB51CAE1C551D0E
:10014000551D671D671D5E1D671D671D671D551DBC
:10015000551D631D671D671D631D222E492E412FEE
:10016000492E412F952EB82E412F0F2F1E2F2B00D9
:1001700014001A000800150017001C0018000C00DD
:10018000120013002A0028000400160007000900CE
:100190000A000B000D000E000F0033003400E100D8
:1001A0001D001B000600190005001100100036009C
:1001B00037003800E50029004C00E000E200E300D1
:1001C0002C00000001510251010014500351350070
:1001D0002D022D002E022E0000000000BC00AE00FB
:1001E000BB0000004C0028002F022602270230022C
:1001F000310000005000520051004F003900E10072
:100200002F0034003402300000000000AA00A800D3
:10021000A9000000E50029004C00E000E200E30036
:100220002C00000001000000000000000000290078
:100230001E021F02200221022202230224022502A2
:10024000260227022A0028001E001F00200021008D
:100250002200230024002500260027000000E100E2
:100260000000000000000000000000000000360058
:1002700037000000E50029004C00E000E200E30048
:100280002C000000000001000000000000003A0007
:100290003B003C003D003E003F004000410042006A
:1002A000430044004500C35CC45CC65CC85CCA5CD7
:1002B000CC5CCE5CCF5CD05CD45CD55CE300E10070
:1002C000C55CC75CC95CCB5CCD5CD15CD25CD35CEB
:1002D000D65C0000E50029004C00E000E200E300ED
:1002E0002C00000000002C08200A210A01002B002D
:1002F00014001A000800150017001C0018000C005C
:10030000120013002A00280004001600070009004C
:100310000A000B000D000E000F0033003400E10056
:100320001D001B000600190005001100100036001A
:1003300037003800E50029004C00E000E200E00052
:100340002C00000005510651105014500751350083
:100350002D022D002E022E0000000000BC00AE0079
:10036000BB0000004C0028002F02260227023002AA
:10037000310000005000520051004F003900E100F0
:100380002F0034003402300000000000AA00A80052
:10039000A9000000E50029004C00E000E200E000B8
:1003A0002C000000010000000000000000002900F7
:1003B0001E021F0220022102220223022402250221
:1003C000260227022A0028001E001F00200021000C
:1003D0002200230024002500260027003900E10028
:1003E00000000000000000000000000000003600D7
:1003F00037000000E50029004C00E000E200E000CA
:100400002C000000000001000000000000003A0085
:100410003B003C003D003E003F00400041004200E8
:10042000430044004500C35CC45CC65CC85CCA5C55
:10043000CC5CCE5CCF5CD05CD45CD55CE300E100EE
:10044000C55CC75CC95CCB5CCD5CD15CD25CD35C69
:10045000D65C0000E50029004C00E000E200E0006E
:100460002C00000000000000460800000100000110
:100470000101010101010101020202020202020264
:100480000203030303030303030404040404040436
:1004900005050505050606060606070707070708FA
:1004A000080808090909090A0A0A0B0B0B0C0C0CAD
:1004B0000D0D0D0E0E0E0F0F0F1010111111121247
:1004C00013131414151516161717181819191A1AC4
:1004D0001B1B1C1D1D1E1E1F202021222223242425
:1004E000252626272829292A2B2C2D2D2E2F303161
:1004F0003232333435363738393A3B3C3D3E3F4073
:100500004142434445464748494A4C4D4E4F50515D
:100510005354555658595A5B5D5E5F616264656617
:1005200068696B6C6D6F7072737577787A7B7D7E9E
:100530008082838587888A8C8E8F91939596989AEE
:100540009C9EA0A2A3A5A7A9ABADAFB1B3B5B7BA06
:10055000BCBEC0C2C4C6C9CBCDCFD1D4D6D8DBDDDA
:10056000DFE2E4E7E9EBEEF0F3F5F8FAFDFF220352
:1005700042004D0034003000200048006F0074003D
:1005800073007700610070002000520047004200B5
:10059000000016034B00500052006500700075000B
:1005A00062006C0069006300000004030904090292
:1005B0003B00020100A0FA09040000010301010050
:1005C0000921110100012240000705810308000AEA
:1005D00009040100010300000009211101000122AA
:1005E00081000705820320000A12011001000000AB
:1005F00008504B303401000102000105010902A13D
:100600000185020901A10005091901290515002527
:1006100001950575018102950175038101050109A7
:100620003009311581257F95027508810609381535
:1006300081257F950175088106050C0A3802158110
:10064000257F950175088106C0C005010980A101BB
:10065000850319012AB700150126B7009501751009
:100660008100C0050C0901A101850419012AA0021D
:10067000150126A002950175108100C0050109062B
:10068000A101050719E029E7150025019508750165
:1006900081029501750881010507190029FF1500E0
:1006A00026FF0095067508810005081901290595A2
:1006B0000575019102950175039101C011241FBEBA
:1006C000CFEFDAE0DEBFCDBF04B603FE27C08091D6
:1006D000300490913104A0913204B09133048730FA
:1006E000904BA740B04BD1F41092300410923104DB
:1006F000109232041092330414BE84B7877F84BFF3
:100700000FB6F894A895809160008861809360008E
:10071000109260000FBEE0E0F8E3099512E0A0E05F
:10072000B1E0EEE7F1E602C005900D92A437B10703
:10073000D9F724E0A4E7B2E001C01D92A033B207CC
:10074000E1F70E94232A0C94BD300C94000081E054
:10075000089581E008950C94A90308950C94AD03C5
:100760001F93CF93DF9300D000D01F92CDB7DEB799
:1007700049835A836B833091B70289819A81311101
:1007800014C0662359F0222349F00E948E22182FAC
:10079000682F89819A810E94372203C00E946222B9
:1007A000182F69817A81812F04C00E948E2269816D
:1007B0007A810F900F900F900F900F90DF91CF9153
:1007C0001F910C947404FC01262F40815181628199
:1007D000738184810C94B003CF93DF93EC0160E0CC
:1007E0000E94E303BE01DF91CF910C94AE030E94FF
:1007F000DA250E94C623811102C00E946D240E9446
:100800004D140C9493060E94AB120C948F0608951D
:100810000E94431D0E9407042FEF84E39CE02150B7
:1008200080409040E1F700C000000C94B4250F9385
:100830001F93CF93DF93EC0161E00E94E3038C01EF
:10084000BE010E94FA118823A9F1BE01C8010E94CD
:10085000AB03882379F1BE01C8010E947C1688236E
:1008600049F1BE01C8010E94CE16882319F1BE01CC
:10087000C8010E94F9178823E9F0BE01C8010E944F
:100880007E158823B9F08A81882369F001158CE5EB
:10089000180731F00F3D1C4531F40E946D240AC049
:1008A0000E94080407C0CE01DF91CF911F910F91E4
:1008B0000C94A70380E0DF91CF911F910F910895D1
:1008C00008950C94600481E008950C946304CF9320
:1008D000C82F0E9461048C2F0E946504CF91089557
:1008E00080E090E00895089520E3829FC0011124E4
:1008F000FC012CE0729FE00DF11D1124E60FF11DAB
:10090000EE0FFF1FE259FE4F859194910895880FD5
:10091000991FFC01E259FB4F859194910895CF9363
:10092000DF930E9474040E94A705EC018115904595
:1009300008F041C0C11580E4D80708F0D1C0C83E16
:10094000D10510F5C03ED10508F0FDC0C83AD1056B
:1009500078F4C53AD10508F0A2C0C130D10509F438
:10096000F2C008F4EEC0C430D10508F0ECC0E9C014
:10097000CF3BD10508F49BC0C03CD10508F4E1C0D1
:10098000CE01805C91099EC0C11590E2D90758F450
:10099000C11521E0D20708F0D6C0C03FD10508F448
:1009A000D0C0D065D0C0C11580E3D80708F08EC094
:1009B000CE019F7087C0C11595E5D90708F043C0E7
:1009C000C11524E5D20708F0A2C0C11582E5D807F9
:1009D00008F5C11591E5D90708F085C0CE0174E08E
:1009E000969587957A95E1F783709C2F937021E017
:1009F00030E002C0220F331F9A95E2F73C68382B93
:100A0000CF70C695C69580E2C89FE0011124C22B25
:100A1000D32B99C09E01237033278C2F8695869502
:100A2000C115D34508F064C0C1E0D0E002C0CC0FCE
:100A3000DD1F2A95E2F720E2829FC0011124C82B16
:100A4000D92BDC6880C0C11529E5D207A0F4C115F7
:100A500088E5D80708F060C0C11596E5D90708F009
:100A600070C08C2F0E943B068F71C82FD0E0DC2F06
:100A7000CC27D06268C0C1152AE5D20708F451C05E
:100A8000CE0190568115904208F05BC08D2F8F717A
:100A90000E943B06DD27D0628F71D82B54C0C55A07
:100AA000D0E0C15EDD4FC881D0E0D0644CC0C85AF0
:100AB000D0E0CC0FDD1FCF50DE4F0990D881C02D84
:100AC000D46441C00E948704EC013DC0CE01992747
:100AD000D3FF03C0EC01D86C36C0EC01D06C33C03E
:100AE000DF70D06A30C0DC2FCC27C16FD06A2BC03A
:100AF000C1E0D0E002C0CC0FDD1F2A95E2F720E272
:100B0000829FC0011124C82BD92BDA681CC0DC2FAE
:100B1000CC27C46FD06A17C0DC2FCC27C06FD06A37
:100B200012C08C2F8F700E943B0694E0D695C7951B
:100B30009A95E1F7CF70D0E0DC2FCC27D069C82B95
:100B400002C0C0E0D0E0CE01DF91CF91089582389D
:100B5000910569F1B0F48133910509F46DC048F451
:100B60008932910509F463C08A32910509F469C09C
:100B700008958533910509F455C089339105B9F07D
:100B80000895833E910569F138F4803E9105B1F0F6
:100B9000823E910509F10895863E9105A9F1873EAF
:100BA0009105B9F1843E910509F064C023C02091FC
:100BB000210420FD4FC021FD4DC0089580912104E6
:100BC00080FD44C08091220480FF44C080912104B4
:100BD00084FD42C083EE4DC08091210482FF38C065
:100BE000F5CF8091210482FD33C08091220480FDE5
:100BF00031C0ECCF8091220481FF32C0809121046A
:100C000084FD2AC087EE35C08091210483FF26C071
:100C1000F5CF8091210483FD21C08091220481FDC4
:100C20001FC0ECCF8091210485FD1CC01DC08091A8
:100C3000210485FD19C016C08091210486FD16C0CF
:100C400017C08091210486FD13C010C089E311C034
:100C500082EE0FC080EE0DC080E00BC086EE09C0B2
:100C600084EE07C089E205C085E303C08AE201C0C3
:100C700081E390E008959091210492FF0DC0282F08
:100C80002871283019F4877F846006C0282F2471CA
:100C9000243011F48B7F886093FF0DC0282F2871BA
:100CA000283119F4877E846106C0282F24712431ED
:100CB00011F48B7E88612091220420FF0DC0382F13
:100CC0003871383019F4877F816006C0382F317150
:100CD000313011F48E7F886021FF0DC0282F2871DC
:100CE000283119F4877E816106C0282F21712131B6
:100CF00011F48E7E886194FD877E0895E82FF0E0E0
:100D0000EE0FFF1FEC5BFC4F8081918108950895E9
:100D100080EA8A95F1F7089508950C948C060C9456
:100D20008D060C948C060C949106F894E82FE295AD
:100D3000EF70F0E031A1282F2F7081E090E001C02A
:100D4000880F2A95EAF7982F9095932391A392A163
:100D5000892B82A3789408950F931F93CF93DF93E9
:100D600083E30E94950682E30E94950686EC0E942A
:100D7000950685E30E949506C2E2D2E00EE212E0FB
:100D800089910E9495060C171D07D1F710923D031B
:100D900010923C03109245031092440310923F03BB
:100DA00010923E03109247031092460310924103A3
:100DB000109240031092490310924803109243038B
:100DC0001092420310924B0310924A0384E00E9457
:100DD0007B07DF91CF911F910F910C94F7037F92C6
:100DE0008F929F92AF92BF92CF92DF92EF92FF923B
:100DF0000F931F93CF93DF93CEE2D2E08CE3A82E24
:100E000083E0B82E94E4E92E93E0F92E712C01E0F2
:100E100010E06E018881F894E82FE295EF70F0E021
:100E200021A18F70A80102C0440F551F8A95E2F7D7
:100E3000CA01922F982B91A392A18095892382A316
:100E400078940E948806E2E2F2E020E030E0812C13
:100E5000912C4191A42FA295AF70B0E090968C9107
:100E600090E04F7002C0959587954A95E2F780FD16
:100E700008C0C801022E02C0880F991F0A94E2F729
:100E800002C080E090E0882A992A2F5F3F4F2C30E3
:100E90003105F9F62196F60180810E949506F5014B
:100EA000808191818816990621F09182808281E06B
:100EB00001C080E0782AF2E0AF0EB11CEA14FB0416
:100EC00009F0A7CF272D44E064E473E08CE393E0BE
:100ED0000E947C070E940304872DDF91CF911F9110
:100EE0000F91FF90EF90DF90CF90BF90AF909F90C9
:100EF0008F907F9008950895FF920F931F93CF9343
:100F0000DF93F82E092F162FD72FC42F222349F055
:100F100081E0809376020E944B2590937502809326
:100F20007402809176028823D9F0809174029091A6
:100F300075020E946325069798F0EF2DF02FA12FE0
:100F4000BD2F80E090E04C2F50E08417950734F4DB
:100F5000219131912D933D930196F7CF1092760216
:100F6000DF91CF911F910F91FF900895EF92FF9223
:100F70000F931F93CF93DF938B01682F11110AC03A
:100F8000442329F0E82FF0E0E259FB4F6491762FDB
:100F9000862F75C0212F30E0E82FF0E0442321F0A8
:100FA000E259FB4FE491F0E046E0049FC0011124B8
:100FB000CFEFD0E0BE010E94752F4BEA4603C0017F
:100FC000479F900D1124800F911D800F911D982F28
:100FD000990F890FAE01421B530B4E9FD0014F9FBB
:100FE000B00D5E9FB00D11249B2F189FA0011124FE
:100FF000452F55278E01041B150B0E9FA0010F9F37
:10100000500D1E9F500D11247E01E81AF108E29E3A
:101010008001E39E100DF29E100D1124212F332725
:10102000C21BD30BCE9F9001CF9F300DDE9F300DA2
:10103000112462307105A9F048F46115710569F059
:1010400061307105C9F48B2F752F0DC064307105A7
:1010500081F058F06630710579F47E2F8B2F932F35
:101060000DC0832F7B2F9E2F09C08E2F7B2F952F96
:1010700005C08E2F732F02C07E2F852F692FDF9121
:10108000CF911F910F91FF90EF90089541E00E9442
:10109000B607089520E030E0869F212D969F200D11
:1010A000311D1124C9010895BC018230910508F455
:1010B0000895613E8EE1780748F49B0195E03695EE
:1010C00027959A95E1F748E0420F01C04FEF91E074
:1010D000242F30E0290F311D35952795229FF001EF
:1010E000239FF00DF00D11246E177F0718F44FEFBA
:1010F000420F04C02F3F39F091E0920F491740F79B
:101100008FEF890F08958FEF0895482F982F46FD90
:101110009095E92FEF739F7046FD9F5FE295EF700A
:10112000EE0FF0E0EE5CFD4F2181299F802D212DF7
:10113000112482958F702295207F822B3081982FE9
:10114000930F892F47FD819580580895E42FF0E093
:10115000EE0FFF1FEC5CFE4F408134EE439F412DAC
:101160001124E72FF0E050E0445E5F4FDA01A21B4C
:10117000B1099D01B7FF03C031952195310993E075
:10118000220F331F9A95E1F7AF01421B530B9A01CF
:1011900057FF02C020E030E0279F212D1124722F3D
:1011A0000895E42FF0E0EE0FFF1FEC5CFE4F40814E
:1011B00034EE439F412D1124E82FF0E050E0445ECF
:1011C0005F4FDA01A21BB1099D01B7FF03C0319542
:1011D0002195310993E0220F331F9A95E1F7AF0172
:1011E000421B530B9A0157FF02C020E030E0582FFA
:1011F000259F212D1124822F0895622F0895E42F19
:10120000F0E0EE0FFF1FEC5CFE4F6081621B089563
:10121000E42FF0E0EE0FFF1FEC5FFE4F61A9621BB1
:101220000895A22F50E0FA01EE0FFF1FEC5FFE4F72
:1012300091A9905297FD9195440F551FFA01EC5CCE
:10124000FE4F3081232F30E02A1B3109290F311D39
:1012500097FD3A95620F0895EF920F931F9393E0D5
:10126000099F80011124159507956E2D600F1F9120
:101270000F91EF9008950F93CF93DF93D72FC82F3F
:1012800047FD4195E8E3F0E0CF01841B910947FD5C
:101290009395889FB001899F700D700D1124229F36
:1012A000C001239F900D900D1124860F971F0E945F
:1012B0005408682F660F860F682F600F7D2F8C2FC4
:1012C000DF91CF910F9108950F931F93522F10E04C
:1012D000F801EE0FFF1FEC5FFE4FE1A9F0E0B097C1
:1012E0009F015203D001539FB00D1124000F111F15
:1012F000F801EC5CFE4F008110E00057110940033B
:101300009001419F300D11242A0F3B1F37FF02C06F
:1013100021583F4F220F232F221F330B620F1F91A3
:101320000F9108950F931F93522F10E0F801EE0FC5
:10133000FF1FEC5FFE4FE1A9F0E0B097EE0FFF1F3B
:101340009F015203D001539FB00D1124000F111FB4
:10135000F801EC5CFE4F008110E000571109000F0E
:10136000111F40039001419F300D11242A0F3B1F94
:1013700037FF02C021583F4F220F232F221F330B6C
:10138000620F1F910F9108950F931F9310E0F801C2
:10139000EE0FFF1FEC5CFE4F9081905797FD9195EB
:1013A000000F111FF801EC5FFE4FE1A9F0E0B097CC
:1013B000DF01AA0FBB1F8D010E0F1F1F2003D001DD
:1013C000219FB00D1124E8E3F0E0E91BF10997FD3E
:1013D000F3959F01220F331F89010E0F1F1F40033A
:1013E0009001419F300D11242A0F3B1F37FF02C08F
:1013F00021583F4F220F232F221F330B620F1F91C3
:101400000F9108954095282F429F412D1124842F3C
:10141000089522E8241B08F420E0620F0895EF925B
:10142000FF920F93970195E0099F200D311D112424
:101430002F3F310519F010F02FEF30E02095382FB5
:10144000320F08F43FEF832F0F91FF90EF90089534
:10145000EF92FF920F93E00EF11CF90137FF03C0EA
:10146000F195E195F10924E0EE0FFF1F2A95E1F7D0
:10147000EF3FF10519F014F0EFEFF0E09A0157FF9C
:1014800003C031952195310994E0220F331F9A95BD
:10149000E1F72E173F070CF4F901EE0DFF1DEF3FAA
:1014A000F10519F010F0EFEFF0E02E2F2095382F16
:1014B000320F08F43FEF832F0F91FF90EF900895C4
:1014C000EF92FF920F93972F093438F4B701601B06
:1014D00071096F3F710519F010F06FEF70E0485F10
:1014E0005F4F4131510540F0A901485F5F4F4131E5
:1014F000510510F06FEF70E06095482F460F08F42B
:101500004FEF842F37FF02C02D5F3F4F3595279552
:101510003595279560914D03620F792F0F91FF90BC
:10152000EF900895EF92FF920F939701201B3109DE
:101530002F3F310519F010F02FEF30E0322F3095AA
:10154000482F430F08F44FEF842F620F0F91FF9045
:10155000EF900895EF92FF920F939701201B3109AE
:101560002F3F310519F010F02FEF30E02095382F84
:10157000320F08F43FEF832F0F91FF90EF90089503
:10158000FC019B01009721F477FF2BC080E80895B0
:10159000AC0197FF04C044275527481B590BB901DC
:1015A000640F751F37FD0CC0241B350BC901A5E066
:1015B000880F991FAA95E1F70E94892F80E20CC03D
:1015C000CB0165E0880F991F6A95E1F7BA01621BAC
:1015D000730B0E94892F80E6861BF7FF03C081955D
:1015E000089580E00895FF920F931F93CF93DF93A8
:1015F000F62E172FD82FC901C72FC01BBA010E9482
:10160000C00A982F990F890F7C2F781B719F712D1D
:1016100011246F2D8D2FDF91CF911F910F91FF908E
:101620000895FF920F931F93CF93DF93F62ED72F3A
:10163000182FC901C12FC01BBA010E94C00A982FE0
:10164000990F890FC81B2C2F219F212D1124822F28
:101650006F2D7D2FDF91CF911F910F91FF900895F6
:10166000EF920F931F93CF93DF93D62F172FC82F8F
:10167000C9010E19070FBA010E94C00A702F781B0A
:10168000719F712D11246D2F8C2FDF91CF911F91A0
:101690000F91EF900895EF920F931F93CF93DF93E5
:1016A000D62FC72F182FC9010E19010FBA010E949A
:1016B000C00A081B202F219F212D1124822F6D2F5E
:1016C0007C2FDF91CF911F910F91EF9008950F9391
:1016D000CF93DF93D72FC82FC901BA010E94C00A48
:1016E000682F600F7D2F8C2FDF91CF910F91089580
:1016F000EF920F93CF93DF93D72FC82FC9010E1905
:10170000BA010E94C00A602F681B7D2F8C2FDF91C9
:10171000CF910F91EF9008950E944608089545E0FB
:1017200050E06CE170E08CE493E00C94493045E0CB
:1017300050E06CE170E08CE493E00C946730ECE4F2
:10174000F3E085E380838091EE019091EF01A09119
:10175000F00181839283A3838FE784830C94970B9A
:1017600080E008950F931F93CF93DF93C82FD62F58
:101770008A010E94B00B9CE0C99FF0011124EC5F2C
:10178000FE4FED0FF11D90819F3F29F0F801E80F0A
:10179000F11D90838F5FDF91CF911F910F9108957D
:1017A000E0914002F09141020994E0913C02F091F5
:1017B0003D0209944F925F926F927F928F929F9217
:1017C000AF92BF92CF92DF92EF920F931F93CF937E
:1017D000DF932C013B01FC01C0818BE0C89FC02D31
:1017E0001124DBE0DC0FD63308F0D5E36091500321
:1017F000669580915103909152030E944A08182FD8
:10180000CD1708F044C08C2E912CF401E256FE4F07
:101810009081F20181818923C1F1F401EE0FFF1F54
:10182000EC5CFE4FC080D12CF0E7CF1AD108F40158
:10183000EE0FFF1FEC5FFE4FA1A8B12C80E2A81AAB
:10184000B108CC9C9001CD9C300D300D1124AA9C88
:10185000C001AB9C900D900D1124820F931F0E942C
:101860005408082F60914D0370914E0380914F03EF
:10187000E12E9501A601F30109950E948C0B462FDC
:10188000282F672FC4010E94D50BCF5FB9CF81E00D
:10189000D53308F080E0DF91CF911F910F91EF9049
:1018A000DF90CF90BF90AF909F908F907F906F9080
:1018B0005F904F90089560E37BE00C94DA0B6BE44B
:1018C0007BE00C94DA0B6CE279E00C94DA0B68E7BD
:1018D0007BE00C94DA0BAF92BF92CF92DF92EF9243
:1018E000FF920F931F93CF93DF936C015B01FC0179
:1018F000C0818BE0C89FC02D1124DBE0DC0FD63304
:1019000008F0D5E360915003669580915103909162
:1019100052030E944A08182FCD1778F5EC2EF12CAF
:10192000F701E256FE4F9081F6018181892319F17A
:10193000F701EE0FFF1FEC5FFE4F21A930E02052B0
:101940003109F701EE0FFF1FEC5CFE4F408150E0C4
:101950004057510960914D0370914E0380914F03A0
:10196000012FF50109950E948C0B462F282F672F18
:10197000C7010E94D50BCF5FCFCF81E0D53308F0F0
:1019800080E0DF91CF911F910F91FF90EF90DF905A
:10199000CF90BF90AF90089563EF7AE00C946B0CFA
:1019A00061E17BE00C946B0C6BE379E00C946B0CC5
:1019B00067E67BE00C946B0CBF92CF92DF92EF92C4
:1019C000FF920F931F93CF93DF938C017B01FC0158
:1019D000C0818BE0C89FC02D1124DBE0DC0FD63323
:1019E00008F0D5E3609150036695669580915103A8
:1019F000909152030E944A08B82ECD17F0F4CC2ED5
:101A0000D12CF601E256FE4F9081F80181818923A5
:101A100091F060914D0370914E0380914F032B2DF7
:101A20004C2FF70109950E948C0B462F282F672F0A
:101A3000C6010E94D50BCF5FE0CF81E0D53308F01F
:101A400080E0DF91CF911F910F91FF90EF90DF9099
:101A5000CF90BF90089566EA78E00C94DC0C61EDBD
:101A600078E00C94DC0C6DEF78E00C94DC0C6FEFFC
:101A700078E00C94DC0C68E079E00C94DC0C61E11B
:101A800079E00C94DC0C7F928F929F92AF92BF9280
:101A9000CF92DF92EF92FF920F931F93CF93DF933A
:101AA0006C015B01FC01C0818BE0C89FC02D11243B
:101AB000DBE0DC0FD63308F0D5E360915003669588
:101AC000669580915103909152030E944A08182F05
:101AD00080E4810F0E94850890E8F92EF80E812F8E
:101AE0000E94850820E8722E780ECD1700F58C2E06
:101AF000912CF401E256FE4F9081F60181818923F9
:101B0000A1F060914D0370914E0380914F03E12E3F
:101B10000C2F272D4F2DF50109950E948C0B462F78
:101B2000282F672FC4010E94D50BCF5FDECF81E045
:101B3000D53308F080E0DF91CF911F910F91FF9096
:101B4000EF90DF90CF90BF90AF909F908F907F905D
:101B5000089564E679E00C94430D62E979E00C9411
:101B6000430D64EC79E00C94430DAF92BF92CF9299
:101B7000DF92EF92FF920F931F93CF93DF937C013D
:101B80005B01FC01C0818BE0C89FC02D1124DBE00C
:101B9000DC0FD63308F0D5E32091500330E040E06D
:101BA00050E06FEF7FEF80E090E00E949D2F890171
:101BB000CD17E8F5CC2ED12CF601E256FE4F9081E0
:101BC000F7018181892389F190915503915097FD07
:101BD00015C0292F092E000C330BF901EB5AFC4FCD
:101BE0008189C813F3CF220F331FF901EB5AFC4F41
:101BF000218D328D2017310748F701C0980160917F
:101C00005003C9010E944A08AC0160914D037091D4
:101C10004E0380914F03F50109950E948C0B462FCE
:101C2000282F672FC6010E94D50BCF5FC1CF81E05F
:101C3000D53308F080E0DF91CF911F910F91FF9095
:101C4000EF90DF90CF90BF90AF90089562E07AE080
:101C50000C94B50D69E07AE00C94B50D2F923F928B
:101C60004F925F926F927F928F929F92AF92BF92AC
:101C7000CF92DF92EF92FF920F931F93CF93DF9358
:101C8000CDB7DEB729970FB6F894DEBF0FBECDBF34
:101C90008B834B013A01DB011C918BE0189F102DC7
:101CA0001124BBE0B10FB983B63310F0E5E3E9834B
:101CB000F0915503FA838981181708F07BC0A12E93
:101CC000B12CF501E256FE4F9081D40111968C9112
:101CD000892309F46DC020904D0330904E034B8052
:101CE000512CC501880F991FFC01EC5CFE4FFD8350
:101CF000EC83C501880F991F9C012B5C3E4F3F83ED
:101D00002E83FA814F1608F043C0E42CF12CAC81ED
:101D1000BD81BC91EB2FF0E0F987E887F701EB5A22
:101D2000FC4F818128853985281B3109398728870F
:101D3000AE81BF81CC90D12C8185C81AD108F90120
:101D4000EE9F9001EF9F300D300D1124CC9CC0010F
:101D5000CD9C900D900D1124820F931F0E9454086A
:101D6000082FF701EE0FFF1FEB5AFC4F6091500355
:101D7000818D928D0E944A087C0196014885598583
:101D8000B101852DF30109951B014394582EB9CF5C
:101D900020914F03352D329F312D1124832FB10116
:101DA0000E948C0B462F282F672FC5010E94D50B50
:101DB0001F5F81CF81E09981953308F080E02996FB
:101DC0000FB6F894DEBF0FBECDBFDF91CF911F914C
:101DD0000F91FF90EF90DF90CF90BF90AF909F90CA
:101DE0008F907F906F905F904F903F902F900895CD
:101DF0002091550331E0231B08F420E04FE05AE026
:101E0000BC01822F0C942E0E4FE05AE0BC0180E002
:101E10000C942E0E2091550331E0231B08F420E092
:101E200048E25AE0BC01822F0C942E0E48E25AE0A0
:101E3000BC0180E00C942E0E2091550331E0231B51
:101E400008F420E040E65AE0BC01822F0C942E0EEC
:101E500040E65AE0BC0180E00C942E0E2091550320
:101E600031E0231B08F420E042E95AE0BC01822F54
:101E70000C942E0E42E95AE0BC0180E00C942E0E28
:101E80002091550331E0231B08F420E04AEA5AE090
:101E9000BC01822F0C942E0E4AEA5AE0BC0180E06D
:101EA0000C942E0EDF92EF92FF920F931F93CF931D
:101EB000DF938C01DC018C91CBE08C9FC02D112431
:101EC000DBE0DC0FD63308F0D5E360914D03709171
:101ED0004E0380914F030E948C0BF62EE72ED82ED6
:101EE000CD1798F4EC2FF0E0DF01A256BE4F8C9195
:101EF000D80111969C91982331F02D2D4F2D6E2DE8
:101F0000CF010E94D50BCF5FEBCF81E0D53308F036
:101F100080E0DF91CF911F910F91FF90EF90DF90C4
:101F20000895AF92BF92CF92DF92EF92FF920F93FC
:101F30001F93CF93DF938C01FC01C0818BE0C89F7E
:101F4000C02D1124DBE0DC0FD63308F0D5E3E090A0
:101F50004E03F0904F03D0904D036D2D7E2D8F2DAD
:101F60000E948C0BC62EB72EA82E609150036D0DCB
:101F70007E2D8F2D0E948C0BF62EE72ED82ECD179E
:101F8000B8F48C2F90E0FC01E256FE4F3081F8014E
:101F90002181232359F030FF04C02D2D4F2D6E2DAC
:101FA00003C02A2D4C2D6B2D0E94D50BCF5FE7CFA0
:101FB00081E0D53308F080E0DF91CF911F910F9140
:101FC000FF90EF90DF90CF90BF90AF900895BF92B9
:101FD000CF92DF92EF92FF920F931F93CF93DF93F5
:101FE0006C01FC01C0818BE0C89FC02D1124DBE097
:101FF000DC0FD63308F0D5E300914E03B0904F03C9
:102000002091500310E4129F112D1124CD1718F5C3
:10201000EC2EF12CF701E256FE4F9081F601818102
:102020008923B9F0F701EE0FFF1FEC5FFE4F81A986
:1020300082958F7060914D03819F600D1124702FE8
:102040008B2D0E948C0B462F282F672FC7010E94D3
:10205000D50BCF5FDBCF81E0D53308F080E0DF9197
:10206000CF911F910F91FF90EF90DF90CF90BF9095
:102070000895BF92CF92DF92EF92FF920F931F933A
:10208000CF93DF937C01FC01C0818BE0C89FC02D02
:102090001124DBE0DC0FD63308F0D5E3C0904E030B
:1020A000B0904F032091500330E4D32E3D2D329F4A
:1020B000312D1124D32ECD1738F50C2F10E0F80157
:1020C000E256FE4F9081F70181818923D9F0F80112
:1020D000EE0FFF1FEC5CFE4F6081D69EB001112415
:1020E00095E0759567959A95E1F780914D03680F96
:1020F0007C2D8B2D0E948C0B462F282F672FC8011B
:102100000E94D50BCF5FD7CF81E0D53308F080E0B8
:10211000DF91CF911F910F91FF90EF90DF90CF90C3
:10212000BF900895DF92EF92FF920F931F93CF938A
:10213000DF938C01DC01CC918BE0C89FC02D112472
:10214000DBE0DC0FD63308F0D5E3E0904D03F090F0
:102150004E03D0904F036091500366956695669547
:1021600080915103909152030E944A080E94850871
:10217000805887FD8195880F282F3D2D239F212D85
:102180001124822FB7010E948C0BF62EE72ED82E39
:10219000CD1798F4EC2FF0E0DF01A256BE4F8C91E2
:1021A000D80111969C91982331F02D2D4F2D6E2D35
:1021B000CF010E94D50BCF5FEBCF81E0D53308F084
:1021C00080E0DF91CF911F910F91FF90EF90DF9012
:1021D0000895DF92EF92FF920F931F93CF93DF93B7
:1021E000EC01FC01E256FE4F9081692381F1D09011
:1021F0004E0300914F0310914D03E12EF12C0E94EC
:102200003030282FC7018C549F4F68E671E00E9440
:10221000892F8E199F0997FD03969595879595951A
:1022200087952370612F289F600D11247D2D802FAD
:102230000E948C0B462F282F672FCE01DF91CF9164
:102240001F910F91FF90EF90DF900C94D50BDF91D1
:10225000CF911F910F91FF90EF90DF900895CF9253
:10226000DF92FF920F931F93CF93DF938C01FC01BA
:10227000C281C1111DC06091500320E1620F08F4BA
:102280006FEF80915103909152030E944A086AE0D7
:1022900070E00E94752F892B59F50E94303065E35C
:1022A00070E00E94892FF80161810E94E91020C02E
:1022B000FC018081CBE08C9FC02D11249BE0F92E86
:1022C000FC0EF5E3FF1510F485E3F82ED0E0CF2CDB
:1022D000D12CCC15DD053CF4F8016181CE010E94C2
:1022E000E9102196F6CFC1E0F4E3FF1508F4C0E051
:1022F0008C2FDF91CF911F910F91FF90DF90CF90A6
:1023000008951F93CF93DF93FC01E256FE4F208187
:102310006223A9F0EC010E943030182F0E94303067
:10232000612F782F80914F030E948C0B462F282F0E
:10233000672FCE01DF91CF911F910C94D50BDF91C8
:10234000CF911F910895CF92DF92FF920F931F9329
:10235000CF93DF938C01FC01C281C1111DC060913C
:10236000500320E1620F08F46FEF809151039091C8
:1023700052030E944A0865E070E00E94752F892B85
:1023800059F50E94303065E370E00E94892FF80112
:1023900061810E94811120C0FC018081CBE08C9F73
:1023A000C02D11249BE0F92EFC0EF5E3FF1510F46F
:1023B00085E3F82ED0E0CF2CD12CCC15DD053CF4F4
:1023C000F8016181CE010E9481112196F6CFC1E012
:1023D000F4E3FF1508F4C0E08C2FDF91CF911F913B
:1023E0000F91FF90DF90CF900895E0913E02F09121
:1023F0003F020994CF92DF92EF92FF920F931F93C7
:10240000CF93DF93CDB7DEB728970FB6F894DEBF32
:102410000FBECDBFFB018281882349F0AE014F5F23
:102420005F4F608181810E94B20BF82E01C0F12CB8
:10243000E09077020F2D10E0C8018E0D911D0997D5
:1024400064F188E090E06C01C01AD10AB8016858C4
:102450007D4FA60188E792E00E944030B8016058A5
:102460007D4FA60180E892E00E944030A601440F13
:10247000551FB801660F771F60577D4F80E992E0C6
:102480000E944030B80168577D4FA60188E892E06D
:102490000E944030EA94E092770210917702DE01C8
:1024A000119640E0842F810FF41609F190E05D91C0
:1024B000252F30E0BC0169587D4FF901EE0FFF1F59
:1024C000EC5CFE4F0081FB010183220F331FF901F9
:1024D000EC5FFE4F21A9FB012187518B880F991FCB
:1024E000FC01E958FD4F128E118E4F5FDBCF8093B8
:1024F000770281E028960FB6F894DEBF0FBECDBFFD
:10250000DF91CF911F910F91FF90EF90DF90CF90CF
:10251000089508950C9489120E948A120C948912CD
:1025200008950C949012CF93DF93FC01C081C150A9
:102530008BE0C89FC02D1124DBE0DC0FD63308F000
:10254000D5E36D2F8C2F0E9491126D2F8C2FDF9170
:10255000CF910C9490124F925F926F927F928F92D4
:102560009F92AF92BF92CF92DF92EF92FF92CF9362
:102570006091A0027091A1028091A2029091A302A9
:102580000E9472256B017C010E9457254B015C0162
:102590006093A0027093A1028093A2029093A30281
:1025A000A0917702E7E7F2E08A2F90E04FEF5FEF2C
:1025B00060E070E04C195D096E097F09A91799F078
:1025C000218D328D2901612C712C4415550566052C
:1025D000770510F4815004C02C0D3D1D328F218FE2
:1025E0009F5F3296EBCF8093770280914C03982FB8
:1025F000937021F0C82FC695C69501C0C0E0909198
:10260000D3019130E9F038F0923009F419C19330D8
:1026100009F424C134C11092D401809251039092E4
:102620005203A0925303B092540389E2E7E7F2E029
:10263000A5E5B3E001900D928A95E1F781E008C12C
:102640009091D701C9130CC0837090E04091D801DC
:1026500050E021E08417950709F420E0822F01C0A3
:1026600081E081708093D6014C2F50E045325105B6
:1026700008F0C2C0FA01EA5AFF4F0C94BC2F88231D
:1026800009F4BAC040E060E080E00E94F511B4C0F7
:1026900084ED91E00E94520FB0C084ED91E00E9461
:1026A000910FABC084ED91E00E94E70FA6C084EDCE
:1026B00091E00E943910A1C084ED91E00E94921037
:1026C0009CC084ED91E00E942B0D97C084ED91E0B9
:1026D0000E942F0D92C084ED91E00E94CC0C8DC021
:1026E00084ED91E00E94D00C88C084ED91E00E94BE
:1026F0005B0C83C084ED91E00E945F0C7EC084ED92
:1027000091E00E94330D79C084ED91E00E94370D75
:1027100074C084ED91E00E943B0D6FC084ED91E0A8
:102720000E943F0D6AC084ED91E00E94630C65C079
:1027300084ED91E00E94D40C60C084ED91E00E9491
:10274000D80C5BC084ED91E00E94670C56C084ED0C
:1027500091E00E94A90D51C084ED91E00E94AD0D61
:102760004CC084ED91E00E94B10D47C084ED91E032
:102770000E942F1142C084ED91E00E94A3113DC040
:1027800084ED91E00E94260E38C084ED91E00E9415
:102790002A0E33C084ED91E00E94F80E2EC084ED25
:1027A00091E00E94040F29C084ED91E00E940A0F7D
:1027B00024C084ED91E00E94160F1FC084ED91E0CB
:1027C0000E941C0F1AC084ED91E00E94280F15C0D2
:1027D00084ED91E00E942E0F10C084ED91E00E94E4
:1027E0003A0F0BC084ED91E00E94400F06C084EDCB
:1027F00091E00E944C0F01C080E09091D4019F5F56
:102800009093D401811127C082E08093D3018091FD
:10281000D601811120C0CC23D1F00E948C1284ED0E
:1028200091E0CF91FF90EF90DF90CF90BF90AF906D
:102830009F908F907F906F905F904F900C94931229
:10284000C093D70183708093D8010E94D00B83E09E
:102850008093D30114C0CC2391F0DFCF609151035A
:102860007091520380915303909154030E947225FA
:10287000603171058105910510F01092D301CF915F
:10288000FF90EF90DF90CF90BF90AF909F908F9090
:102890007F906F905F904F900895E0913A02F09191
:1028A0003B02099510925503EEE6F3E08FEF9FEFA0
:1028B0008193919323E0EE37F207D1F710927702DC
:1028C000E0E9F2E08FEF9FEF8193919322E0E03A0D
:1028D000F207D1F70E94C623811104C00E946D2423
:1028E0000E949F0B0E948F0B80914C038C7F11F4F0
:1028F0000C949F0B089520914C0391E092279093A4
:102900004C031092D30181110C94970B089581E030
:102910000C947B1490914C03937091F0811102C040
:10292000946007C0853210F0906903C0880F880F4B
:10293000982B90934C031092D30161110C94970B38
:10294000089561E00C948A14682F90914C03969539
:1029500096959F5F953210F4892F01C081E00C9409
:102960008A1481E00C94A414682F90914C039695DE
:102970009695915011F0892F01C084E20C948A142D
:1029800081E00C94B41490914C03937049F08093BF
:102990004D0360934E0340934F0321110C94970B0A
:1029A0000895ACE4B3E01196EC911197F0E0282F74
:1029B00013964C91139712966C91CF0108960C9434
:1029C000C31481E00C94D114ACE4B3E01196EC9103
:1029D0001197F0E0282F13964C91139712966C9153
:1029E000CF0108970C94C31481E00C94E414ECE438
:1029F000F3E0628120E1620F08F46FEF9181282FEC
:102A00004381892F90E00C94C31481E00C94F71457
:102A1000ECE4F3E0628120E1621B08F460E0918164
:102A2000282F4381892F90E00C94C31481E00C94EB
:102A30000815ECE4F3E0438120E1420F08F44FEF86
:102A40009181282F6281892F90E00C94C31481E03A
:102A50000C941915ECE4F3E0438120E1421B08F4E7
:102A600040E09181282F6281892F90E00C94C3145B
:102A700081E00C942A152091500330E1230F08F4D3
:102A80002FEF2093500381110C94970B089581E050
:102A90000C943B152091500330E1231B08F420E0F7
:102AA0002093500381110C94970B089581E00C94AE
:102AB0004A150895FC01EE0FFF1F8E0F9F1FFC01AA
:102AC000E258FC4F6183408322830895EEE7F3E0F0
:102AD00094E0ED31F90729F08183608342833396D6
:102AE000F7CF089565E370E08EE793E00C94DE1570
:102AF000882311F0FA0101C0FB0109940F931F9381
:102B0000CF93FB01C281CC2309F450C08C010E94F9
:102B10000F238272F801E35CFC45E431F10508F013
:102B200048C0E558FF4F0C94BC2F0E94871440C04A
:102B300040EC54E161EB74E104C041EB54E160EC22
:102B400074E10E94781534C044EF54E161EE74E101
:102B5000F8CF41EE54E164EF74E1F3CF46E155E183
:102B600065E075E1EECF45E055E166E175E1E9CF5D
:102B700048E355E167E275E1E4CF47E255E168E3F8
:102B800075E1DFCF46E555E167E475E1DACF47E46B
:102B900055E166E575E1D5CF81E005C085E003C06C
:102BA0008DE001C082E10E94A11402C0C1E001C019
:102BB000C0E08C2FCF911F910F9108956A9A2EB18A
:102BC0002B7F3EB134604FB7F894FC01CB01880FE6
:102BD000991F680F791F6E0F7F1FE617F70789F09F
:102BE000819198E03EB9000000C087FF2EB9880FA0
:102BF000000000C000C000C02EB900C09A9591F737
:102C0000ECCF4FBF8FE594E00197F1F700C00000D3
:102C100008950F931F93CF93DF93C42FD22FFC01FE
:102C200082818823C9F04093A6020E944B2590938D
:102C3000A5028093A40280E28C0F883008F057C070
:102C4000C77081E001C0880FCA95EAF7DF91CF9184
:102C50001F910F910C94B31A8091A602481330C0B3
:102C60008091A4029091A5020E946325883C910561
:102C700038F510E21D0FCD17B9F080E28C0F8830C7
:102C800040F4C77081E001C0880FCA95EAF70E943E
:102C9000BA1A183028F581E09D2F977001C0880F6F
:102CA0009A95EAF70E94B31A802F0E94A01A183052
:102CB000F0F4D77081E001C0880FDA95EAF70AC016
:102CC00080E28C0F883098F4C77081E001C0880FD3
:102CD000CA95EAF7DF91CF911F910F910C94BA1A20
:102CE000802FDF91CF911F910F910C94A01ADF914B
:102CF000CF911F910F9108950F939C01CB01243F19
:102D00004CE5340731F188F4293DFCE53F07D9F063
:102D10002A3D4CE5340779F1283D3C45A9F506E20A
:102D200021EE41EE68ED7CE52BC0263FFCE53F0738
:102D3000E1F0A8F0273F3C4539F507E225EE46EEE5
:102D400067EF7CE51DC007E225EE45EE69ED7CE509
:102D500017C006E221EE40EE64EF7CE511C007E209
:102D600025EE44EE65EF7CE50BC006E221EE42EE77
:102D700066EF7CE505C008E221E045EE6AED7CE502
:102D80000E94091680E008C0FC018281882319F0A6
:102D90001092A60201C081E00F910895CF93DF93B6
:102DA000EC01FB018281882309F41FC1C230FCE5DC
:102DB000DF0708F41BC1C6319CE5D90738F09E0136
:102DC0002B5F3C452930310508F010C10E94D92302
:102DD0009093220480932104C031ECE5DE0709F4CE
:102DE000C3C008F041C0C8308CE5D80709F49AC0C8
:102DF000F0F4C430ECE5DE0709F487C068F4C230B3
:102E00008CE5D80709F477C0C330DC4509F0E3C08E
:102E100080912104826076C0C630ECE5DE0709F4BB
:102E20006EC008F07BC08091210488606BC0CC30FC
:102E30008CE5D80709F485C068F4CA30ECE5DE07F4
:102E400009F474C008F079C00E94431D80912104E8
:102E5000806858C0CE308CE5D80709F476C008F0F9
:102E60007FC0809121048BC0CC3FECE5DE0709F4E4
:102E70004FC018F5C3318CE5D80709F47DC078F44C
:102E8000C131ECE5DE0709F473C0C231DC4509F05D
:102E9000A2C00E94431D809121048F7733C0C531A9
:102EA0008CE5D80709F472C008F486C0CB3FDC4536
:102EB00009F091C0809122043EC0C115FDE5DF07F5
:102EC00009F45FC058F4CE3F9CE5D90709F444C02B
:102ED00008F43FC08091220482602DC0C230FDE51D
:102EE000DF0709F475C008F45DC0C330DD4509F0A3
:102EF00072C080E06EC080912104816003C0809127
:102F0000210480618093210466C08091210411C056
:102F1000809122048260809322045DC0809121040C
:102F20008062F0CF809121048064ECCF80912104F5
:102F300088608460E7CF8160EECF809121048E7F2E
:102F4000E1CF809121048D7FDDCF80912104877FA7
:102F5000D9CF8091220418C0809122048D7FDBCFCD
:102F6000809121048F7ECECF809121048F7DCACFA6
:102F7000809121048F7BC6CF80912104877F8B7F36
:102F8000C1CF809122048D7F8E7FC5CF8091210497
:102F900082FB222720F991E0922790FB82F990FB97
:102FA00083F9B0CF80912204982F909591708E7FF5
:102FB000892B90FB81F9AFCF0E94431D80912104A2
:102FC00087FB222720F991E0922790FB87F99ACF7F
:102FD00081E00E946F2480912104909122040E943C
:102FE000EA230E94431D80E001C081E0DF91CF9180
:102FF0000895CF93DF9386319C4541F5EB010E9404
:103000000F23982F8A812091D9013091DA018823EA
:1030100079F09A7A81E009F480E08093A702911117
:1030200002C069E201C065E3C9010E94B6240AC07A
:103030008091A702811102C069E201C065E3C90164
:103040000E94B8240E945D2380E001C081E0DF91EE
:10305000CF9108959093AD028093AC020895E091D2
:10306000AC02F091AD02309721F00190F081E02D9B
:10307000099480E00895E091AC02F091AD023097A0
:1030800021F00280F381E02D09940895E091AC02D3
:10309000F091AD02309739F022E0DC012C930480EE
:1030A000F581E02D099408952091AA023091AB0298
:1030B0002817390771F09093AB028093AA02E09130
:1030C000AC02F091AD02309721F00680F781E02D3F
:1030D000099408952091A8023091A9022817390770
:1030E00071F09093A9028093A802E091AC02F09154
:1030F000AD02309721F00084F185E02D0994089508
:1031000085B7806885BF85B7806885BF089581E0F1
:1031100008950C94871808950C948B180C948B18B0
:103120000C948E180C948B180C9492180C948B1889
:103130000E9480180E9496180C9494180E944225B0
:103140000E94AC060E94EE250C9490187F928F92FC
:103150009F92AF92BF92CF92DF92EF92FF920F9326
:103160001F93CF93DF93CDB7DEB72A970FB6F894AE
:10317000DEBF0FBECDBF0E948C180E948B180E942C
:10318000EF060E948918811111C08FEF89838A830D
:103190001B820E944B258160782F9D838C834981FF
:1031A0005A816B818D810E945A194FC04FEAA42E1B
:1031B00042E0B42E00E010E0702E802F0E947E06C8
:1031C0006C01F501819091905F0188269926811408
:1031D000910431F40F5F1F4F0430110569F7D5CF0B
:1031E0008091230381FD0E94870680E0EE24E39412
:1031F000F12C94012E213F21232B09F18E837F8214
:10320000CE20DF2081E0CD2809F480E088870E946D
:103210004B258160782F9A8789874E815F816885E9
:103220008A850E945A19000F111FF801E155FD4FC0
:1032300080819181E826F926F182E08206C08F5FC5
:10324000EE0CFF1C8C30A9F6C5CF0E949D270E9472
:103250002F189091AE028917C9F00E942F18809301
:10326000AE022A960FB6F894DEBF0FBECDBFDF9137
:10327000CF911F910F91FF90EF90DF90CF90BF9073
:10328000AF909F908F907F900C9467042A960FB612
:10329000F894DEBF0FBECDBFDF91CF911F910F918C
:1032A000FF90EF90DF90CF90BF90AF909F908F9066
:1032B0007F900895CF93DF93CDB7DEB72B970FB6EE
:1032C000F894DEBF0FBECDBF4F83588769877A87DA
:1032D0008B87DE01119686E0FD0111928A95E9F750
:1032E00085E0FE01379601900D928A95E1F74981BC
:1032F0005A816B817C818D819E810E94FC1F2B965F
:103300000FB6F894DEBF0FBECDBFDF91CF91089509
:10331000FC01808191810E94D0220895CF9388235F
:1033200009F4A4C0C82F8238C1F40E942F1881FD6F
:103330009DC069E38091D9019091DA010E94B62481
:103340000E945D232FEF81EE94E021508040904059
:10335000E1F700C0000069E319C0833801F50E945D
:103360002F1880FD83C063E58091D9019091DA0127
:103370000E94B6240E945D232FEF81EE94E021503D
:1033800080409040E1F700C0000063E58091D901E2
:103390009091DA010E94B824CF910C945D23843877
:1033A000C1F40E942F1882FD61C067E48091D901A9
:1033B0009091DA010E94B6240E945D232FEF81EEE6
:1033C00094E0215080409040E1F700C0000067E4A5
:1033D000DDCF8CEF8C0F813AD0F46C2F8091D90126
:1033E0009091DA010E948024882349F06C2F80910B
:1033F000D9019091DA010E94B8240E945D236C2FBC
:103400008091D9019091DA010E94B624C5CF80E263
:103410008C0F883048F4C77081E001C0880FCA95CE
:10342000EAF70E941223B8CFEBE5EC0FE33040F44B
:10343000F0E0E059FD4F808190E0CF910C9454185A
:10344000E8E5EC0FE73150F4F0E0EE0FFF1FEE5B24
:10345000FD4F80819181CF910C946A18C03F30F06C
:103460008C2F0E949226CF910C947F27CF910895A4
:10347000882309F464C0823879F40E942F1881FFF0
:103480005EC069E38091D9019091DA010E94B6246F
:103490000E945D2369E310C08338B1F40E942F18A5
:1034A00080FF4DC063E58091D9019091DA010E94BF
:1034B000B6240E945D2363E58091D9019091DA01E1
:1034C0000E94B8240C945D23843879F40E942F184C
:1034D00082FF35C067E48091D9019091DA010E94A2
:1034E000B6240E945D2367E4E7CF9CEF980F913AE2
:1034F00010F4682FE1CF90E2980F983050F4877065
:1035000091E001C0990F8A95EAF7892F0E9418234C
:10351000D9CF9BE5980F933020F480E090E00C9495
:10352000541898E5980F973120F480E090E00C94BF
:103530006A18803F20F00E94FA260C947F27089595
:10354000CF93C82F0E948E19C93349F42FEF87EE0D
:1035500093E0215080409040E1F700C000008C2FA4
:10356000CF910C94381A882321F00E9412230C94D6
:103570005D230895882321F00E9418230C945D2375
:103580000895CF92DF92EF92FF920F931F93CF9304
:10359000DF937C01062FC72FFC01158112951F7048
:1035A000D281D1110E942F230E940823882399F0F1
:1035B000DD2389F08C2F807F803421F080E2800F22
:1035C000883048F082E00E94A7230E94082391E0FF
:1035D000D82ED92601C0D12CCC2EC2948FE0C8227F
:1035E0008C2D90E0FC01E157FF4F0C94BC2F8C2FE9
:1035F000807FCF70882311F0C295C07FDD2399F0C2
:10360000CC2309F48DC180E2800F883010F00111C5
:1036100004C08C2F0E94122303C08C2F0E942223EF
:103620000E945D237DC1802F0E94381ACC2309F4AB
:103630009CC180E2800F883010F0011104C08C2FF3
:103640000E94182303C08C2F0E9428230E945D2310
:103650008CC18C2F807FCF70803211F0C295C07FDB
:10366000002319F00130C9F022C0DD2371F01123CD
:1036700041F0113031F40E9442238C2B0E944A23E6
:1036800074C10E9442238C2B1DC0112319F01130EC
:1036900009F46BC10E94532325C0DD2321F01630AD
:1036A00008F063C10EC0153008F05FC11BC0DD23F8
:1036B00061F0112331F0F701858180FF31C18F70F6
:1036C00085838C2F0E94B31A50C1112359F00933FE
:1036D00009F037C1FFEF27EE83E0F1502040804032
:1036E000E1F72DC18C2F0E94BA1A3FC18C2F86950D
:1036F0008695837019F0813061F037C1DD2321F0A8
:10370000802F9C2F937002C080E090E00E9454189C
:1037100034C1DD2321F0802F9C2F937002C080E004
:1037200090E00E946A1829C1802FDD2319F00E94C1
:10373000922602C00E94FA260E947F271EC18C2F6B
:10374000837009F045C0D11114C1402F42954695B0
:103750004770440F440F602F6F70862F90E0A0E0F9
:10376000B0E0042E04C0880F991FAA1FBB1F0A9443
:10377000D2F704FF10C00FE010E020E030E004C0FA
:10378000000F111F221F331F4A95D2F70095109585
:103790002095309503C000E010E09801C695C695CD
:1037A000C370BC01CD01602B712B822B932BC230D7
:1037B00049F058F4C13019F00E944D21DAC00E943E
:1037C0003B21D7C00E945F21D4C00E943921D1C0C3
:1037D000DD2319F08C2F817001C08695882309F4B0
:1037E000C8C0402F429546954770440F440F602F44
:1037F0006F70862F90E0A0E0B0E0042E04C0880F28
:10380000991FAA1FBB1F0A94D2F704FF10C00FE034
:1038100010E020E030E004C0000F111F221F331F12
:103820004A95D2F7009510952095309503C000E099
:1038300010E09801C695C695C370BC01CD01602B00
:10384000712B822B932BC23049F058F4C13019F000
:103850000E9412228EC00E9400228BC00E9424224D
:1038600088C00E94732185C0CF70DD2339F08C2F72
:103870000E949921802F0E94B31A7BC0802F0E9442
:10388000BA1A8C2F0E94BA2174C0023F01F128F4A9
:10389000003F41F0013FA1F03FC0033FF9F0043F7A
:1038A00039F13AC0DD2341F0153008F05EC08C2FAD
:1038B0008F710E94DF2159C0163008F056C0F7CF33
:1038C000DD2339F08C2F8F710E9499214EC0DD23AA
:1038D000C9F38C2F8F710E94BA2147C0DD2329F0D4
:1038E0008C2F8F710E94842140C00E947F213DC097
:1038F000DD2349F0CF718C2F0E94992163E08C2F3A
:103900000E94922332C081E00E94A723123068F106
:1039100082E00E94A72329C0DD2331F0112391F218
:10392000802F0E948E1921C0112399F2093349F486
:103930009FEFE7EEF3E09150E040F040E1F700C088
:103940000000802F0E94381A10C04C2F4F70602F3B
:10395000C7010E9470040E94AA200FC04C2F4F7014
:10396000602FC7010E94730408C088EF8C0D84305B
:1039700020F40E942F180E946704DD20C9F00E94E5
:10398000042380FD15C0F70112820E94FE220E94CE
:103990009921C7010E94F91C0E94FE22DF91CF915C
:1039A0001F910F91FF90EF90DF90CF900C94BA2170
:1039B000DF91CF911F910F91FF90EF90DF90CF900B
:1039C00008950F931F93CF93DF93EC016881798162
:1039D0008A810E94DB228C010E9436220E942721CC
:1039E000B801CE010E94C11ADF91CF911F910F91B2
:1039F0000895CF93DF93EC01988189812B813C81DD
:103A0000232B31F08F3F31F481E09F3F19F403C045
:103A100081E001C080E080FD19C0CE010E94170442
:103A200081110CC00E940823882381F08A81882399
:103A300069F082E0DF91CF910C94A723CE010E9420
:103A4000E11CCE01DF91CF910C94EC03DF91CF917B
:103A500008950E942F230E943F230E945D230E940D
:103A6000B0280E947F2780E090E00E94541880E0F8
:103A700090E00C946A188091D9019091DA010E942B
:103A8000BA240C94291D0E941F230C943B1DE92F7E
:103A9000E295EF704E2F50E0FA013297EE30F105CB
:103AA000B0F4E156FF4F0C94BC2F803F91F018F416
:103AB000883E68F40EC0843F51F40BC0883E48F045
:103AC000813F29F406C093FB882780F9089580E0A0
:103AD000089581E008950E94D0220E94471D089514
:103AE000CF93DF9300D000D01F92CDB7DEB70F90F9
:103AF0000F900F900F900F90DF91CF910895CF937B
:103B0000DF9300D000D000D0CDB7DEB726960FB639
:103B1000F894DEBF0FBECDBFDF91CF9108951F9304
:103B2000CF93DF93C091B80216E08091B902C81715
:103B300099F0D0E01C9FF0011D9FF00D1124E65478
:103B4000FD4F4081518162817381848195810E9402
:103B50007F1D2196C770E9CFDF91CF911F91089506
:103B60004091EA025091EB026091EC027091ED02FB
:103B70008091EE029091EF020C947F1D0F931F93A2
:103B8000CF93DF938091EF0282958F7009F05DC033
:103B90008091EC02882309F458C08091B8021091FA
:103BA000B9026091EA027091EB02C091ED02D091EE
:103BB000EE0291E06F3F09F090E0292F06E08117B7
:103BC00009F443C0209721F07F3F21F030E003C08B
:103BD00031E001C0322F90E030FD34C0089FF00189
:103BE000099FF00D1124DF01A654BD4F11963C91A1
:103BF0001197371327C03C91361324C012963C917D
:103C0000129731111FC013964D915C9114974C1B64
:103C10005D0B483C5105B0F48091EF028F708061DC
:103C20008093EF02E154FD4F80818F70806180832B
:103C30008AEE92E00E94F91CDF91CF911F910F91C3
:103C40000C948F1D01968770BACFDF91CF911F9191
:103C50000F9108959F92AF92BF92CF92DF92EF9211
:103C6000FF920F931F93CF93DF93CDB7DEB761978A
:103C70000FB6F894DEBF0FBECDBF8C0185E0F80112
:103C8000DE011D9601900D928A95E1F7F8014081C1
:103C90005181E2809091EA026091EB022091ED0265
:103CA0003091EE022115310531F06F3F31F481E0A2
:103CB0009F3F19F403C081E001C080E0F82FF1704C
:103CC0009F2E80FD46C1F801A380B4808AEEC82EE5
:103CD00082E0D82EF090EC02F501E21BF30BFF20FE
:103CE00009F4DFC08091EF02E83CF10508F09BC0C9
:103CF000282F207F09F052C0561313C0491311C05A
:103D0000FE2CE1100EC08F7080618093EF020E9444
:103D1000B01DC6010E94F91C8091EF02F801858355
:103D200058C1AB2831F05F3F31F481E04F3F19F4C7
:103D300003C081E001C080E080FD03C081E08E25EA
:103D400002C080E090E0F82FF170FF2E80FF1CC0D1
:103D50008091B8022091B90236E0821709F417C1A8
:103D600090E0389FF001399FF00D1124E654FD4F8B
:103D70006181561306C06081461303C06281E6125A
:103D800003C001968770E9CFFE2CEE2009F421C113
:103D90008091EF0281608093EF025AC0561306C0F3
:103DA000491304C0E11002C0F8019FC04D875E872F
:103DB0008D859E850E946B1D882379F1EE2069F127
:103DC0002091EF02822F82958F7090E0029774F01D
:103DD0008091EA029091EB0298878F831986BB86C7
:103DE000AA862C87CE0107960E94F91C86E0F8016E
:103DF000AAEEB2E001900D928A95E1F70E94BE1DF5
:103E00000E94B01D0DC0561729F14D875E878D8524
:103E10009E850E946B1D81112CC0C8010E94F91C57
:103E2000FF24F394D6C0282F207F69F77A2DB98A12
:103E3000A88A6E2D89890E94701D8AEE92E00E94E8
:103E4000F91C86E0F60111928A95E9F70E94B01DEF
:103E5000F12CBFC04913D9CFE110D7CFF80185832A
:103E6000C8010E94F91C86E0F60111928A95E9F7D3
:103E7000B0C0EE2091F22091EF02822F82958F70D8
:103E800090E002970CF4B2CF8091EA029091EB029D
:103E90009A8389831B82BD82AC822E83CE010196D8
:103EA000A3CFE83CF10508F047C0FE2CEE2009F452
:103EB000B4CF561330C049132EC02091EF0220FD1D
:103EC00021C0822F82958F70482F50E041155105F7
:103ED000C9F0F80125834F30510541F08F5F982FCD
:103EE0009295907F822F8F70892B8583C8010E94C5
:103EF000F91C86E0F801AAEEB2E001900D928A95D5
:103F0000E1F742C086E0F801AAEEB2E001900D921E
:103F10008A95E1F75EC04D875E878D859E850E94FC
:103F20006B1D811163CF8091EF0281608093EF025E
:103F3000C8010E94F91C4DC07A2DB98AA88A6E2D3D
:103F400089890E94701D86E0F60111928A95E9F731
:103F50001BC0EE2009F461CF4D875E878D859E855D
:103F60000E946B1DF82E882309F457CF86E0F801D4
:103F7000AAEEB2E001900D928A95E1F78AEE92E006
:103F80000E9488190E94BE1D0E94B01D22C04D874C
:103F90005E878D859E850E94D022292F22952F70C5
:103FA000223028F49F7039F0811105C00BC02430F5
:103FB00028F49F7049F4805E883020F0C8010E9488
:103FC000F91C9F2CF92C05C0F8019581907F99F779
:103FD000F9CF8F2D61960FB6F894DEBF0FBECDBF1F
:103FE000DF91CF911F910F91FF90EF90DF90CF90D5
:103FF000BF90AF909F9008951F93CF93DF93CDB75D
:10400000DEB72C970FB6F894DEBF0FBECDBF4F833F
:10401000588769877A878B879C87CE0107960E948D
:104020002A1E8823D1F09F8188852A853B85232BF2
:1040300031F08F3F31F481E09F3F19F403C081E0FC
:1040400001C080E080FD47C04F81588569857A8531
:104050008B859C850E947F1D3EC086E0FE013796C1
:10406000DE01119601900D928A95E1F7FF81E885B6
:104070006A857B856115710531F0EF3F31F481E090
:10408000FF3F19F403C081E001C080E080FD23C040
:104090002091B90230E0C9010196877099274091BB
:1040A000B80250E084179507F1F1F983EA837D8324
:1040B0006C8396E0929FD001939FB00D1124A6547B
:1040C000BD4FFE01319601900D929A95E1F78093D4
:1040D000B9020E948F1D16E08091B8029091B9023A
:1040E000891771F1189FC001112486549D4F0E94B9
:1040F0002A1E882329F1E091B8021E9FF0011124A5
:10410000E654FD4F408151816281738184819581A4
:104110000E947F1D8091B80290E0019687709927D8
:104120008093B802D9CF0E94431D1092B902109219
:10413000B802EAEEF2E086E0DF011D928A95E9F727
:104140002C960FB6F894DEBF0FBECDBFDF91CF9196
:104150001F910895EF92FF920F931F93CF93DF93D8
:104160008C01892B09F46CC0F12CEE24E394E80156
:104170002196F8018491843740F4843008F051C0CE
:10418000813081F0823019F15BC0853709F444C079
:10419000A8F19CE7980F903708F052C08F770E94E3
:1041A000381A41C00E5F1F4FFE01849190E2980FB4
:1041B000983050F48770FE2D01C0FF0F8A95EAF702
:1041C0008F2F0E94322314C00E948E192DC00E5FC3
:1041D0001F4FFE01849190E2980F983060F4877031
:1041E000FE2D01C0FF0F8A95EAF78F2F0E9438231A
:1041F0000E945D2319C00E94381A16C00E5F1F4F1F
:10420000FE01C491CC2381F08FE99FE00197F1F783
:1042100000C00000C150F6CF0E5F1F4FFE01F490AA
:1042200003C00E948E198E018F2D882309F49FCF21
:10423000EFE9FFE03197F1F700C000008150F5CFC2
:10424000DF91CF911F910F91FF90EF900895089506
:1042500008950C9428210C9429210E942B2160930D
:1042600012037093130380931403909315030C941B
:10427000291D0C942D210F931F930091120310916F
:1042800013032091140330911503602B712B822BA3
:10429000932B1F910F910C942D210F931F9300913D
:1042A000120310911303209114033091150360231E
:1042B0007123822393231F910F910C942D210F932F
:1042C0001F93009112031091130320911403309156
:1042D000150360277127822793271F910F910C9454
:1042E0002D210C9428210E94712160930E0370935C
:1042F0000F0380931003909311030C94291D60E029
:1043000070E0CB010C9473210F931F9341E050E0B8
:1043100060E070E08A019B0104C0000F111F221FA2
:10432000331F8A95D2F7C901B8011F910F910C94E0
:1043300073210F931F9341E050E060E070E004C0F0
:10434000440F551F661F771F8A95D2F780910E0381
:1043500090910F03A0911003B09111038A019B016A
:10436000082B192B2A2B3B2BC901B8011F910F9148
:104370000C9473210F931F9341E050E060E070E0D4
:1043800004C0440F551F661F771F8A95D2F74095CA
:1043900050956095709580910E0390910F03A091B8
:1043A0001003B09111038A019B01082319232A23CA
:1043B0003B23C901B8011F910F910C9473210F93F6
:1043C0001F9341E050E060E070E004C0440F551FCF
:1043D000661F771F8A95D2F780910E0390910F0385
:1043E000A0911003B09111038A019B01082719279E
:1043F0002A273B27C901B8011F910F910C94732103
:104400000F931F9300910E0310910F03209110033F
:1044100030911103602B712B822B932B1F910F91E5
:104420000C9473210F931F9300910E0310910F03AF
:104430002091100330911103602371238223932371
:104440001F910F910C9473210F931F9300910E03F2
:1044500010910F03209110033091110360277127F1
:10446000822793271F910F910C94732108952CE0BC
:10447000929F800D1124E82FE695E695E6958770CA
:1044800051E001C0550F8A95EAF785E0E89FF001F9
:104490001124E051FD4F20E030E070E04081CB017D
:1044A000022E02C0969587950A94E2F78170819555
:1044B00084278523842781932F5F3F4F2530310543
:1044C00069F708952CE0929F800D1124682F66955E
:1044D00066956695982F977085E0689FB0011124C6
:1044E00040E050E080E0FB01E40FF51FE051FD4F9C
:1044F000208130E0092E02C0369527950A94E2F714
:1045000021703327042E01C0220F0A94EAF7822B70
:104510004F5F5F4F4530510531F70895BF92CF92FD
:10452000DF92EF92FF920F931F93CF93DF938C0153
:10453000C0900E03D0900F03E0901003F090110391
:104540008091120390911303A0911403B09115036D
:10455000C82AD92AEA2AFB2ACFE1D0E0D701C6012E
:104560000C2E04C0B695A795979587950A94D2F717
:1045700080FD04C0219790F7B12C07C0BC2EB80174
:104580008C2F0E948F040197A9F38B2DDF91CF917F
:104590001F910F91FF90EF90DF90CF90BF90089503
:1045A000CF93DF93EC010E948E22BE010E948F0404
:1045B000DF91CF9108951F93CF93DF93EB019091FB
:1045C000B702992321F0CB010E94D02213C0882387
:1045D00049F0CB010E948E22182F682FCE010E9435
:1045E000372204C0CB010E946222182FBE01812F06
:1045F0000E948F04DF91CF911F910895809116033F
:104600008595859585950895809116038770089501
:1046100090911603977081E009F480E008958091ED
:104620002203089590912203892B809322030895F9
:1046300080959091220389238093220308951092FC
:104640002203089590912103892B809321030895DB
:1046500080959091210389238093210308951092DE
:104660002103089590912003892B809320030895BE
:1046700080959091200389238093200308951092C0
:104680002003089580911703089508950C944523FD
:104690000C94462390911703981721F080931703E9
:1046A0000C944823089580911703882329F01092D1
:1046B000170380E00C9448230895E091D901F0910C
:1046C000DA01809122038083E091D901F091DA012F
:1046D000908180912103892B8083E091D901F09111
:1046E000DA01908180912003892B808380911703C8
:1046F000882381F0E091D901F091DA019081892B32
:1047000080838091D9019091DA010E9474248111F3
:104710000E9453238091D9019091DA010C943B18A7
:104720000C94452398E0899F90011124262B209317
:1047300016030E949921809116038595859585958C
:104740000C9490231092160380E00C9490232091F7
:1047500016038095822380931603982F977079F41F
:1047600030E0482F082E000C550B2417350739F080
:104770008595859585950E94BA210C94A22308956C
:104780006FEF7FEF80E090E00C94953080E090E058
:104790000E94613021E08C3E9E4F09F020E0822F84
:1047A000089582E090E00C94593083E090E00C94FE
:1047B0005930CF9384E090E00E945930C82F81E2B5
:1047C00090E00E9459302C2F30E0A901582BCA01EB
:1047D000CF910895CF93C92F682F84E090E00E9475
:1047E00077306C2F81E290E0CF910C947730AB0161
:1047F000BC018FE090E00C948930AB01BC0183E1F7
:1048000090E00C94893060E070E0CB010C94FD23C3
:1048100060E070E0CB010E94F7230C9403246CEE5F
:104820007EEF80E090E00E94953060E082E090E0D2
:104830000E94773060E083E090E00E947730109231
:10484000120310921303109214031092150360E0E8
:1048500084E090E00E94773060E081E290E00E9486
:10486000773060E085E090E00E94773060E086E09D
:1048700090E00E9477306FEF87E090E00E94773001
:1048800040E050E0BA0188E090E00E94893060E0AA
:104890008DE090E00E94773040E050E0BA0188E17E
:1048A00090E00E94893060E087E190E00E947730DC
:1048B00040E050E0BA018CE190E00E94893060E075
:1048C00080E290E00E94773040E050E0BA0188E159
:1048D00090E00E9489300C9408240C940F24682FD7
:1048E0008EE090E00C947730FC01329697E080E007
:1048F000915029F021912223D9F38F5FF9CF0895A8
:10490000662349F0FC01329608962191621729F03E
:10491000E817F907D1F780E0089581E008959C0138
:10492000FC0132969FEF80E04191461789F09F3F4E
:1049300019F4411101C0982F8F5F8630A9F79F3F6E
:1049400039F0F901E90FF11D97FDFA956283089599
:1049500008959C012A5F3F4FFC014281461301C02C
:104960001282019682179307B9F708950C948F2449
:104970000C94A924029626E0FC0111922A95E9F7ED
:10498000089508950C94C1240C94C124CF930E94DF
:10499000C4240E94EF060E94C224C0E08C2F0E9413
:1049A0007E06892B29F4CF5FC430C1F780E001C0B7
:1049B00081E0CF9108950C94C1240C94DB240E94D3
:1049C000DD2480912704843049F11092240320E4EF
:1049D00088E190E00FB6F894A895809360000FBE30
:1049E0002093600080E00E9467040E94DD2483B76A
:1049F000817F846083BF83B7816083BF789488950B
:104A000083B78E7F83BF0FB6F894A895809160001E
:104A1000886180936000109260000FBE08950C942E
:104A2000C1240E94431D0E942F180E9467040C9409
:104A30000F251F920F920FB60F9211248F939F9301
:104A4000AF93BF9380912403811113C080911D0403
:104A500090911E04A0911F04B09120044196A11DC5
:104A6000B11D80931D0490931E04A0931F04B09366
:104A70002004BF91AF919F918F910F900FBE0F9027
:104A80001F90189582E084BD93E095BD9AEF97BD85
:104A900080936E0008952FB7F89480911D04909133
:104AA0001E04A0911F04B09120042FBF08952FB7BA
:104AB000F89460911D0470911E0480911F049091E0
:104AC00020042FBF08959C014FB7F89480911D04D6
:104AD00090911E04A0911F04B09120044FBF821B2F
:104AE000930B0895CF92DF92EF92FF922FB7F89435
:104AF000C0901D04D0901E04E0901F04F09020048C
:104B00002FBFA7019601261B370B480B590BCA0173
:104B1000B901FF90EF90DF90CF90089578941F92A5
:104B20000F920FB60F9211248F939F93AF93BF9361
:104B300080911D0490911E04A0911F04B091200447
:104B40000196A11DB11D80931D0490931E04A09396
:104B50001F04B0932004BF91AF919F918F910F904C
:104B60000FBE0F901F90189581E08093E00080E2C7
:104B70008093D8001092C9008FE19EE40197F1F76D
:104B800000C0000087E090EBDC018093300490933C
:104B90003104A0933204B09333049CE088E10FB653
:104BA000F894A895809360000FBE90936000FFCFAB
:104BB0000C94C0230E94EF068FE39CE90197F1F764
:104BC00000C000000E94EF0680E00E947E0680FF89
:104BD00004C00E94D8250C94B42508950E94C623D1
:104BE000811102C00E946D240E94D123809323036F
:104BF0000E94D92390932204809321040E94D523FC
:104C0000682F70E080E090E00E94392160910E03EF
:104C100070910F0380911003909111030C947121F6
:104C200080912B0380FF0BC06091E00185E0689FBD
:104C3000B001112475956795759567952BC081FF17
:104C400009C06091E00185E0689FB001112475956D
:104C5000679520C082FF07C06091E00185E0689FF2
:104C6000B001112417C090912A039923D1F06091CB
:104C7000DF01961788F72091E00185E0289F9001D9
:104C80001124929FA001939F500D112470E0CA013E
:104C90000E94892F6038710540F46115710519F47F
:104CA00006C065E070E0862F08958FE7089581E0E3
:104CB000089580912B0380FF08C06091DC0170E0B3
:104CC000759567957595679521C081FF06C06091C0
:104CD000DC0170E07595679519C082FF04C0609192
:104CE000DC0170E010C090912903992399F0609144
:104CF000DB019617A0F78091DC01899FC001112488
:104D000070E00E94892F6038710540F461157105CB
:104D100019F406C061E070E0862F08958FE70895CA
:104D200081E00895803F21F40E941026819504C0FF
:104D3000813F29F40E94102680932F030895823F1B
:104D400021F40E941026819504C0833F29F40E941B
:104D5000102680932E030895893F19F40E94592646
:104D600005C08A3F31F40E94592681958093300313
:104D700008958B3F21F40E945926819504C08C3FF1
:104D800029F40E945926809331030895843F21F429
:104D900080912D03816017C0853F21F480912D0300
:104DA000826011C0863F21F480912D0384600BC086
:104DB000873F21F480912D03886005C0883F31F43E
:104DC00080912D03806180932D0308958D3F21F400
:104DD00080912B0381600BC08E3F21F480912B03C7
:104DE000826005C08F3F29F480912B0384608093FB
:104DF0002B030895803F39F480912F0387FF6AC009
:104E000010922F0367C0813F29F480912F03181659
:104E1000BCF360C090912E03823F29F497FF5AC0E3
:104E200010922E0357C0833F19F41916CCF352C0C9
:104E300090913003893F31F419160CF04BC0109259
:104E4000300348C08A3F19F497FF44C0F8CF8B3F26
:104E500039F48091310387FF3DC0109231033AC08D
:104E60008C3F29F4809131031816BCF333C0843F82
:104E700021F480912D038E7F17C0853F21F480910E
:104E80002D038D7F11C0863F21F480912D038B7FF0
:104E90000BC0873F21F480912D03877F05C0883F99
:104EA00031F480912D038F7E80932D0313C08D3FAD
:104EB00021F480912B038E7F0BC08E3F21F48091D3
:104EC0002B038D7F05C08F3F29F480912B038B7FAF
:104ED00080932B0380912E03811106C080912F03B4
:104EE000811102C010922A0380913003811106C003
:104EF00080913103811102C01092290308950E940C
:104F00004B2520912E03211104C020912F03222331
:104F100021F09093280380932703209130032111DF
:104F200004C020913103222321F090932603809323
:104F300025038CE293E00C944618EF92FF920F93B6
:104F40001F93CF93DF9300D000D000D0CDB7DEB752
:104F500086E0ECE2F3E0DE01119601900D928A9575
:104F6000E1F7E0902E03F0902F03009130031091B1
:104F7000310310922E0310922F03109230031092DF
:104F80003103E11003C0FF2009F45DC080912703C5
:104F9000909128030E946325AC0190912A039923E4
:104FA00039F02091E10130E02417350758F04BC06B
:104FB0002091E2018AE0289F9001112424173507EF
:104FC00018F041C09F3F19F09F5F90932A03EE2095
:104FD00061F00E9410261E1414F09FEF01C091E0B2
:104FE000989F902D112490932E03FF2061F00E9432
:104FF00010261F1414F09FEF01C091E0989F902D90
:10500000112490932F0330912E033323E1F020914C
:105010002F032223C1F045EB3403C001112499234F
:1050200019F090932E0303C081E080932E0335EB9B
:105030002303C0011124992319F090932F0303C077
:1050400081E080932F03011103C0112309F45DC097
:1050500080912503909126030E946325AC019091D5
:105060002903992339F02091DD0130E02417350719
:1050700058F04BC02091DE018AE0289F9001112456
:105080002417350718F041C09F3F19F09F5F909398
:105090002903002361F00E945926101614F09FEF97
:1050A00001C091E0989F902D11249093300311231B
:1050B00061F00E945926111614F09FEF01C091E093
:1050C000989F902D11249093310330913003332316
:1050D000E1F0209131032223C1F045EB3403C001FC
:1050E0001124992319F09093300303C081E0809339
:1050F000300335EB2303C0011124992319F0909359
:10510000310303C081E08093310380912E0381112C
:105110000BC080912F03811107C080913003811152
:1051200003C08091310381110E947F27EB82FC82B2
:105130000D831E8386E0FE013196ACE2B3E0019060
:105140000D928A95E1F726960FB6F894DEBF0FBE52
:10515000CDBFDF91CF911F910F91FF90EF900895F8
:10516000ECE2F3E086E0DF011D928A95E9F7109208
:105170002A031092290310922B03089580913A0379
:105180000895CF93DF9300D01F92CDB7DEB79091F3
:105190002704943019F589837B836A8382E08093A6
:1051A000E9008FEF9091E800815095FD06C095EDE4
:1051B0009A95F1F700008111F5CF8091E80085FF05
:1051C0000DC040E050E063E070E0CE0101960E9427
:1051D000D72A8091E8008E778093E8000F900F9097
:1051E0000F90DF91CF910895BC0184E00C94C12809
:1051F000BC0183E00C94C12822E02093E9002FEF4A
:105200003091E800215035FD06C035ED3A95F1F7B3
:1052100000002111F5CF2091E80025FF0BC040E0F0
:1052200050E066E070E00E94D72A8091E8008E7717
:105230008093E8000895CF93DF9321E02093E90065
:105240002FEF3091E800215035FD06C035ED3A953D
:10525000F1F700002111F5CF2091E80025FF14C0DF
:10526000EC0140E050E068E070E00E94D72A8091B5
:10527000E8008E778093E80088E0FE01A2E3B3E0C7
:1052800001900D928A95E1F7DF91CF910895809179
:105290002604811109C00E94682C0E94C52C8091AF
:1052A000E20084608093E20008951092260408953D
:1052B000089508950C94112542E061EC81E00E946C
:1052C000E12B42E261EC82E00C94E12B8091290415
:1052D000833009F460C030F4813071F0823009F419
:1052E00099C008958A3009F485C08B3009F46BC0E9
:1052F000893009F0A7C020C080912804813A09F0C4
:10530000A1C08091E800877F8093E80080912C0401
:1053100090912D04892B21F468E082E393E003C08F
:1053200060E080E090E070E00E94222B8091E80035
:105330008B778093E800089580912804813209F0EA
:1053400081C080912C0490912D04029708F07AC0BE
:105350008091E800877F8093E8008091E80082FDDB
:1053600005C0809127048111F8CF6CC02091F30013
:105370008091F20090E0922B029729F48091F10045
:105380008B7F813021F48091F10080933A038091EA
:10539000E8008B7753C080912804813A09F052C00D
:1053A00080912C0490912D04892B09F04BC08091A1
:1053B000E800877F8093E8008091E80080FFFCCFC1
:1053C0008091ED0136C0809128048132D9F5809119
:1053D0002C0490912D04892BA9F58091E800877FFA
:1053E0008093E8000E94162C80912A048093ED019E
:1053F0000C94431D80912804813221F58091E800AE
:10540000877F8093E8000E94162C80912B04809364
:105410003B03089580912804813AA1F48091E8002B
:10542000877F8093E8008091E80080FFFCCF809127
:105430003B038093F1008091E8008E778093E80031
:105440000C94162C089584B7877F84BF0FB6F89408
:10545000A895809160008861809360001092600040
:105460000FBE90E080E80FB6F894809361009093AF
:1054700061000FBE0E9498180E94682C0E94C52CE3
:105480008091E20084608093E20078940E945A2F19
:105490000E949E1883EE91E00E942A1880912704B2
:1054A000853069F40E94DF24809125048823B1F3BC
:1054B0000E94C624882391F30E94C12AEFCF0E9444
:1054C000A6180E948C180E948B18E8CF0C94682AAA
:1054D000292F332723303105C9F060F421303105FD
:1054E00081F02230310509F044C08BE390E02EEAD0
:1054F00035E043C021323105E1F02232310549F176
:1055000038C082E190E029EE35E037C0992781303C
:10551000910549F028F0029761F5EEE6F5E005C047
:10552000EAEAF5E002C0E2E9F5E0849190E09F014B
:1055300024C06115710541F061307105D1F489E035
:1055400090E029ED35E019C089E090E020EC35E0ED
:1055500014C06115710541F06130710551F481E8A5
:1055600090E02BEF35E009C080E490E02CE736E0D6
:1055700004C080E090E020E030E0FA013183208335
:10558000089580E189BD82E189BD09B400FEFDCFA7
:105590008091D8008F7D8093D8008091E000826058
:1055A0008093E0008091E00081FDFCCF0895CF92D0
:1055B000DF92EF92FF920F931F93CF93DF93EC0153
:1055C0008B017A010E94352C811133C0E114F10462
:1055D00039F0F70180819181081B190BC80FD91F81
:1055E000C12CD12C0115110519F18091E80085FD20
:1055F00016C08091E8008E778093E800E114F104F2
:1056000049F0F70180819181C80ED91ED182C082F4
:1056100085E00FC00E94352C882321F30AC08991B0
:105620008093F10001501109FFEFCF1ADF0ADACFA2
:1056300080E0DF91CF911F910F91FF90EF90DF906D
:10564000CF90089520912E0430912F04261737070C
:1056500048F06115710539F42091E8002E77209308
:10566000E80001C0B901FC0120E06115710579F184
:10567000809127048823F1F18530F1F18091E800D1
:1056800083FD3CC08091E80082FD2EC08091E8003F
:1056900080FFEBCF2091F3008091F20090E0922BFD
:1056A0006115710551F08830910538F421912093EE
:1056B000F100615071090196F3CF21E0089709F0DC
:1056C00020E08091E8008E778093E800CECF211112
:1056D000CFCF0AC080912704882361F0853061F024
:1056E0008091E80083FD0AC08091E80082FFF2CF3C
:1056F00080E0089582E0089583E0089581E00895B0
:1057000020912E0430912F042617370748F0611599
:10571000710539F42091E8002E772093E80001C04C
:10572000B901FC0120E06115710591F18091270418
:10573000882309F440C0853009F43FC08091E80017
:1057400083FD3DC08091E80082FD2FC08091E8007C
:1057500080FFE9CF2091F3008091F20090E0922B3E
:105760006115710559F08830910540F4249120931A
:10577000F1003196615071090196F2CF21E008974E
:1057800009F020E08091E8008E778093E800CBCF8D
:105790002111CCCF0AC080912704882361F0853085
:1057A00061F08091E80083FD0AC08091E80082FFEB
:1057B000F2CF80E0089582E0089583E0089581E0CB
:1057C0000895982F973068F59093E900981739F06D
:1057D0007091EC002091ED005091F00003C0242F57
:1057E000762F50E021FD02C09F5FECCF3091EB009F
:1057F0003E7F3093EB003091ED003D7F3093ED0024
:105800003091EB0031603093EB007093EC0020930B
:10581000ED005093F0002091EE0027FDE5CF80E0F1
:1058200008958F708093E90081E0089580912804A5
:1058300087FF11C08091E80082FD05C08091270498
:105840008111F8CF11C08091E8008B770BC0809157
:105850002704882349F08091E80080FFF8CF8091E9
:10586000E8008E778093E80008952091E40030915D
:10587000E50095E64091EC00842F817040FF23C045
:105880008091E80080FD1DC080912704882399F055
:10589000853099F08091EB0085FD11C04091E400C6
:1058A0005091E5002417350729F3915011F09A0122
:1058B000E1CF84E0089582E0089583E0089581E0D7
:1058C000089580E008954091E80042FFDDCF0895FB
:1058D0000E94D62C0E94DE2CE0EEF0E080818160F8
:1058E0008083E8EDF0E080818F77808319BCA7ED9D
:1058F000B0E08C918E7F8C9380818F7E808310921C
:10590000260408950F931F93CF93DF930E94D62C04
:105910000E94DE2CC8EDD0E088818F778883888153
:105920008068888388818F7D888319BC10922704C2
:1059300010922304109225041092240400EE10E02B
:10594000F80180818B7F808388818160888342E039
:1059500060E080E00E94E12BE1EEF0E080818E7F4C
:105960008083E2EEF0E080818160808380818860C6
:105970008083F80180818E7F808388818061888325
:10598000DF91CF911F910F910895E8EDF0E08081B4
:105990008F7E8083E7EDF0E080818160808384E00A
:1059A00082BF81E0809326040C94822CE8EDF0E025
:1059B00080818E7F80831092E20008951092DA0039
:1059C0001092E10008951F920F920FB60F921124CA
:1059D0002F933F934F935F936F937F938F939F93F7
:1059E000AF93BF93EF93FF938091E10082FF0BC0D1
:1059F0008091E20082FF07C08091E1008B7F80935D
:105A0000E1000E94592F8091DA0080FF1FC0809131
:105A1000D80080FF1BC08091DA008E7F8093DA006F
:105A20008091D90080FF0DC080E189BD82E189BDF0
:105A300009B400FEFDCF81E0809327040E9447292E
:105A400005C019BC109227040E9455298091E100DD
:105A500080FF19C08091E20080FF15C08091E200B4
:105A60008E7F8093E2008091E20080618093E2006B
:105A70008091D80080628093D80019BC85E0809323
:105A800027040E9459298091E10084FF30C0809151
:105A9000E20084FF2CC080E189BD82E189BD09B4A8
:105AA00000FEFDCF8091D8008F7D8093D80080913B
:105AB000E1008F7E8093E1008091E2008F7E8093F1
:105AC000E2008091E20081608093E20080912304F3
:105AD000882311F084E007C08091E30087FD02C0B5
