:100000000C94BE030C9405040C9405040C94050494
:100010000C9405040C9405040C9405040C9405043C
:100020000C9405040C9405040C9405040C9471289C
:100030000C9420290C94811F0C9405040C94050445
:100040000C9405040C9405040C9405040C94CE1F28
:100050000C9405040C9405040C9405040C940504FC
:100060000C9405040C9405040C9405040C940504EC
:100070000C940504470F4A0F520F570F5C0F610F86
:10008000660F6B0F700F750F7A0F7F0F810F840F44
:10009000870F8A0F8D0F900F920F970FE114E114C5
:1000A0001315131560157E159F169F1689151E16BC
:1000B0002F162F168F169F169F1698163F173F174D
:1000C0005117511748175117511751173F173F171D
:1000D0004D17511751174D178D29B429AC2AB42942
:1000E000AC2A002A232AAC2A7A2A892A2B00140057
:1000F0001A000800150017001C0018000C00120060
:1001000013002A00280004001600070009000A0056
:100110000B000D000E000F0033003400E1001D0045
:100120001B00060019000500110010003600370002
:100130003800E50029004C00E000E200E3002C005C
:100140002C000151025110501450035135002D0262
:100150002D002E022E0000000000BC00AE00BB00EF
:1001600000004C0028002F02260227023002310036
:1001700000005000520051004F003900E1002F00F4
:1001800034003402300000000000AA00A800A900DA
:100190000000E50029004C00E000E200E3002C0034
:1001A0002C000100000000000000000029001E02D9
:1001B0001F0220022102220223022402250226021B
:1001C00027022A0028001E001F0020002100220014
:1001D000230024002500260027003900E10000004C
:1001E00000000000000000000000000036003700A2
:1001F0000000E50029004C00E000E200E3002C00D4
:100200002C00010001000000000000003A003B004B
:100210003C003D003E003F004000410042004300E2
:1002200044004500C25C00000000200A210A0000D2
:1002300000000000000000000000E300E1000000FA
:1002400000000000000000000000000000000000AE
:100250000000E50029004C00E000E200E3002C0073
:100260002C00000000000000000001002B00140022
:100270001A000800150017001C0018000C001200DE
:1002800013002A00280004001600070009000A00D5
:100290000B000D000E000F0033003400E1001D00C4
:1002A0001B00060019000500110010003600370081
:1002B0003800E50029004C00E000E200E0002C00DE
:1002C0002C000551065110501450075135002D02D5
:1002D0002D002E022E0000000000BC00AE00BB006E
:1002E00000004C0028002F022602270230023100B5
:1002F00000005000520051004F003900E1002F0073
:1003000034003402300000000000AA00A800A90058
:100310000000E50029004C00E000E200E0002C00B5
:100320002C000100000000000000000029001E0257
:100330001F02200221022202230224022502260299
:1003400027022A0028001E001F0020002100220092
:10035000230024002500260027003900E1000000CA
:100360000000000000000000000000003600370020
:100370000000E50029004C00E000E200E0002C0055
:100380002C00000001000000000000003A003B00CB
:100390003C003D003E003F00400041004200430061
:1003A00044004500C25C0000000046080000000058
:1003B00000000000000000000000E300E100000079
:1003C000000000000000000000000000000000002D
:1003D0000000E50029004C00E000E200E0002C00F5
:1003E0002C000000000000000000010032190A008B
:1003F000047F3F1F643214643214783C1E1E140ABA
:10040000052223252628292A2C2D2F303233353654
:10041000383A3B3D3E4042434547494A4C4E505195
:10042000535557595A5C5E6062646668696B6D6FBC
:1004300071737577797B7D7F81838587898A8C8EBF
:1004400090929496989A9C9E9FA1A3A5A7A8AAACC7
:10045000AEAFB1B3B4B6B8B9BBBCBEBFC1C2C3C501
:10046000C6C7C9CACBCCCDCED0D1D2D2D3D4D5D6A3
:10047000D7D7D8D9D9DADADBDBDBDCDCDCDCDCDDD6
:10048000DDDDDDDCDCDCDCDCDBDBDBDADAD9D9D8BA
:10049000D7D7D6D5D4D3D2D2D1D0CECDCCCBCAC952
:1004A000C7C6C5C3C2C1BFBEBCBBB9B8B6B4B3B181
:1004B000AFAEACAAA8A7A5A3A19F9E9C9A9896941C
:1004C00092908E8C8A89878583817F7D7B797775F1
:1004D00073716F6D6B6968666462605E5C5A5957D0
:1004E000555351504E4C4A4947454342403E3D3B8F
:1004F0003A3836353332302F2D2C2A292826252319
:1005000022FFAA7F55400001010101010101010103
:1005100002020202020202020203030303030303B4
:100520000304040404040404050505050506060681
:100530000606070707070708080808090909090A3E
:100540000A0A0B0B0B0C0C0C0D0D0D0E0E0E0F0FE3
:100550000F10101111111212131314141515161671
:100560001717181819191A1A1B1B1C1D1D1E1E1FE0
:100570002020212222232424252626272829292A2F
:100580002B2C2D2D2E2F3031323233343536373857
:10059000393A3B3C3D3E3F40414243444546474853
:1005A000494A4C4D4E4F50515354555658595A5B29
:1005B0005D5E5F616264656668696B6C6D6F7072C9
:1005C000737577787A7B7D7E8082838587888A8C35
:1005D0008E8F91939596989A9C9EA0A2A3A5A7A969
:1005E000ABADAFB1B3B5B7BABCBEC0C2C4C6C9CB60
:1005F000CDCFD1D4D6D8DBDDDFE2E4E7E9EBEEF016
:10060000F3F5F8FAFDFF0403300000000E03550077
:100610005400340037002E003200000010034B005D
:100620006500790068006900760065000000040339
:10063000090409023B00020100A0FA0904000001BC
:100640000301010009211101000122400007058179
:100650000308000A09040100010300000009211138
:1006600001000122BC000705820320000A120110CC
:10067000010000000803A172040200010203010549
:10068000010902A10185020901A100050919012939
:1006900005150025019505750181029501750381F8
:1006A000010501093009311581257F950275088101
:1006B0000609381581257F950175088106050C0A04
:1006C00038021581257F950175088106C0C0050196
:1006D0000980A101850319012AB700150126B70079
:1006E000950175108100C0050C0901A1018504194F
:1006F000012AA002150126A002950175108100C0F3
:1007000005010906A1018505050719E029E715007E
:1007100025019508750181020507190029EF1500CB
:10072000250195F075018102050819012905950536
:1007300075019102950175039101C005010906A19A
:1007400001050719E029E7150025019508750181C4
:10075000029501750881010507190029FF1500267A
:10076000FF00950675088100050819012905950502
:1007700075019102950175039101C00011241FBEFE
:10078000CFEFD4E0DEBFCDBF04B603FE27C080911B
:10079000090390910A03A0910B03B0910C038730D9
:1007A000904BA740B04BD1F41092090310920A036A
:1007B00010920B0310920C0314BE84B7877F84BF82
:1007C0000FB6F894A89580916000886180936000CE
:1007D000109260000FBEE0E0F8E3099511E0A0E0A0
:1007E000B1E0E6E8F8E502C005900D92AA3CB10739
:1007F000D9F723E0AAECB1E001C01D92A930B207FD
:10080000E1F70E94CD250C94412C0C9400000C942F
:10081000F6060C94F40681E0089581E008950C94A6
:100820000D0408950C9411041F93CF93DF9300D00F
:1008300000D01F92CDB7DEB749835A836B833091C6
:10084000140289819A81311114C0662359F0222340
:1008500049F00E94881C182F682F89819A810E9474
:10086000281C03C00E94591C182F69817A81812F8E
:1008700004C00E94881C69817A810F900F900F90AC
:100880000F900F90DF91CF911F910C94CC04FC013D
:10089000262F408151816281738184810C941404DC
:1008A000CF93DF93EC0160E00E944704BE01DF912B
:1008B000CF910C9412040E94BA1D811102C00E94B3
:1008C000641E0C9407040C94090408950E942D17CB
:1008D0000E9465042FEF84E39CE02150804090400B
:1008E000E1F700C000000C94F41F0F931F93CF9307
:1008F000DF93EC0161E00E9447048C01BE010E947D
:100900000F04882379F1BE01C8010E946410882376
:1009100049F1BE01C8010E94B610882319F1BE0139
:10092000C8010E94E1118823E9F0BE01C8010E94BC
:10093000300F8823B9F08A81882369F001158CE58E
:10094000180731F00E3D1C4531F40E94641E0AC0A8
:100950000E94660407C0CE01DF91CF911F910F91D5
:100960000C940B0480E0DF91CF911F910F910895BB
:1009700008950C94B80481E008950C94BB04CF93BF
:10098000C82F0E94B9048C2F0E94BD04CF910895F6
:1009900080E090E008950895382F262F872F90E06B
:1009A0006CE070E00E94E92AFC01832F90E060E394
:1009B00070E00E94E92A8E0F9F1FFC01E20FF11DDB
:1009C000EE0FFF1FE451FF4F859194910895880F1A
:1009D000991FFC01E451FC4F859194910895CF93A8
:1009E000DF930E94CC040E940E06EC018115904515
:1009F00008F041C0C11580E4D80708F0D6C0C83E51
:100A0000D10510F5C03ED10508F004C1C83AD105A2
:100A100078F4C53AD10508F0A7C0C130D10509F472
:100A2000F9C008F4F5C0C430D10508F0F3C0F0C037
:100A3000CF3BD10508F4A0C0C03CD10508F4E8C004
:100A4000CE01805C9109A3C0C11590E2D90758F48A
:100A5000C11521E0D20708F0DDC0C03FD10508F480
:100A6000D7C0D065D7C0C11580E3D80708F093C0C0
:100A7000CE019F708CC0C11595E5D90708F048C01C
:100A8000C11524E5D20708F0A9C0C11582E5D80731
:100A900020F5C11591E5D90708F08AC0CE01F4E030
:100AA00096958795FA95E1F7282F23703C2F3370A0
:100AB00081E090E002C0880F991F3A95E2F79C68A8
:100AC000922BCF70C695C695D0E0A5E0CC0FDD1F68
:100AD000AA95E1F7C82BD92B9DC09E01237033271F
:100AE0008C2F86958695C115D34508F066C0C1E068
:100AF000D0E002C0CC0FDD1F2A95E2F790E075E050
:100B0000880F991F7A95E1F7C82BD92BDC6882C032
:100B1000C11529E5D207A0F4C11588E5D80708F06A
:100B200062C0C11596E5D90708F072C08C2F0E94EB
:100B3000A2068F71C82FD0E0DC2FCC27D0626AC00C
:100B4000C1152AE5D20708F453C0CE01905681158D
:100B5000904208F05DC08D2F8F710E94A206DD27A4
:100B6000D0628F71D82B56C0C55AD0E0C65ADE4F1E
:100B7000C881D0E0D0644EC0C85AD0E0CC0FDD1F91
:100B8000C45DDE4F0990D881C02DD46443C00E945B
:100B9000E704EC013FC0CE019927D3FF03C0EC016D
:100BA000D86C38C0EC01D06C35C0DF70D06A32C070
:100BB000DC2FCC27C16FD06A2DC0C1E0D0E002C0CD
:100BC000CC0FDD1F2A95E2F790E065E0880F991FB2
:100BD0006A95E1F7C82BD92BDA681CC0DC2FCC272B
:100BE000C46FD06A17C0DC2FCC27C06FD06A12C088
:100BF0008C2F8F700E94A20694E0D695C7959A9587
:100C0000E1F7CF70D0E0DC2FCC27D069C82B02C031
:100C1000C0E0D0E0CE01DF91CF91089582389105F8
:100C200069F1B0F48133910509F46DC048F489325B
:100C3000910509F463C08A32910509F469C00895E9
:100C40008533910509F455C089339105B9F00895AC
:100C5000833E910569F138F4803E9105B1F0823E02
:100C6000910509F10895863E9105A9F1873E910508
:100C7000B9F1843E910509F064C023C02091FA02C5
:100C800020FD4FC021FD4DC008958091FA0280FDE6
:100C900044C08091FB0280FF44C08091FA0284FD31
:100CA00042C083EE4DC08091FA0282FF38C0F5CF7A
:100CB0008091FA0282FD33C08091FB0280FD31C039
:100CC000ECCF8091FB0281FF32C08091FA0284FD5B
:100CD0002AC087EE35C08091FA0283FF26C0F5CF87
:100CE0008091FA0283FD21C08091FB0281FD1FC02B
:100CF000ECCF8091FA0285FD1CC01DC08091FA02E4
:100D000085FD19C016C08091FA0286FD16C017C075
:100D10008091FA0286FD13C010C089E311C082EEF3
:100D20000FC080EE0DC080E00BC086EE09C084EEDF
:100D300007C089E205C085E303C08AE201C081E300
:100D400090E008959091FA0292FF0DC0282F28712B
:100D5000283019F4877F846006C0282F247124303E
:100D600011F48B7F886093FF0DC0282F28712831E4
:100D700019F4877E846106C0282F2471243111F470
:100D80008B7E88612091FB0220FF0DC0382F3871C7
:100D9000383019F4877F816006C0382F31713130C7
:100DA00011F48E7F886021FF0DC0282F2871283113
:100DB00019F4877E816106C0282F2171213111F439
:100DC0008E7E886194FD877E0895E82FF0E0EE0F17
:100DD000FF1FEF52FD4F808191810895089580EAB1
:100DE0008A95F1F7089508950C94F3060C94F30690
:100DF000CF93DF93A9E6B1E04DE651E061E070E00A
:100E00008D91E82FE295EF70F0E021A18F70EB015A
:100E100002C0CC0FDD1F8A95E2F7CE019C2F909582
:100E2000922391A392A1892B82A34A175B0741F7D2
:100E3000ADE5B1E041E050E08D91E82FE295EF7033
:100E4000F0E021A18F70BA0102C0660F771F8A956A
:100E5000E2F7CB01962F9095922391A392A1892B33
:100E600082A371E0A936B70739F71092CA0210922F
:100E7000C9021092D2021092D1021092CC021092AA
:100E8000CB021092D4021092D3021092CE02109292
:100E9000CD021092D6021092D5021092D00210927A
:100EA000CF021092D8021092D70284E00E94E90784
:100EB000DF91CF910C945B046F927F928F929F92FF
:100EC000AF92BF92CF92DF92EF92FF920F931F9358
:100ED000CF93DF9389E6C82E81E0D82E09EC12E08B
:100EE00091EDA92E92E0B92E712C88248394912C37
:100EF000F60181916F01C82FC295CF70D0E099A102
:100F00008F70740101C0EE0C8A95EAF7892F8E2943
:100F100089A38AA16E2C609486218AA30E94EF0681
:100F2000EDE5F1E040E050E020E030E06191A62FF7
:100F3000A295AF70B0E090968C9190E06F7002C077
:100F4000959587956A95E2F780FD08C0C401042E47
:100F500002C0880F991F0A94E2F702C080E090E077
:100F6000282B392B4F5F5F4F4C305105F9F689A183
:100F7000682269A28AA1E82AEAA2F8018081918107
:100F80002817390721F03183208381E001C080E0F8
:100F9000782A0E5F1F4FA016B10609F0A9CF272DA2
:100FA00044E061ED72E089EC92E00E94EA070E9461
:100FB0006304872DDF91CF911F910F91FF90EF90E8
:100FC000DF90CF90BF90AF909F908F907F906F9069
:100FD00008950895FF920F931F93CF93DF93F82EF8
:100FE000092F162FD72FC42F222349F081E0809399
:100FF000CC010E94B31F9093CB018093CA018091D2
:10100000CC018823D9F08091CA019091CB010E9434
:10101000BF1F069798F0EF2DF02FA12FBD2F80E076
:1010200090E04C2F50E08417950734F421913191D2
:101030002D933D930196F7CF1092CC01DF91CF9184
:101040001F910F91FF900895EF92FF920F931F93BE
:10105000CF93DF93E82F71110AC0442321F0F0E011
:10106000EA5FFA4FE4916E2F7E2F8E2F6CC0C62F51
:10107000D0E0072F10E0282F30E0442329F0F901B9
:10108000EA5FFA4F249130E0CE0166E070E00E9402
:10109000E92AEE24EA94F12CB7010E941F2BDB0110
:1010A000CC0FDD1FCB016BEA7FEF0E94E92A8C0F8A
:1010B0009D1FC82FCC0FC80FC701801B910BB90112
:1010C0000E94E92AE92F492FD0E0CE01B8010E9401
:1010D000E92A692F70E0C701861B970BB9010E94AE
:1010E000E92AF92FC7018C1B9D0BB8010E94E92A40
:1010F000692F70E0C701861B970BB9010E94E92A8E
:10110000A230B10591F038F4109759F01197C1F45D
:101110008E2F7F2F0CC0A430B10579F050F01697B8
:1011200079F4722F842FE92F0DC0892F7E2FE22FA3
:1011300009C0822F7E2FEF2F05C0822F792F02C08A
:10114000722F8F2F6E2FDF91CF911F910F91FF90F4
:10115000EF90089541E00E94240808950895CF93E8
:10116000DF93762FE901682F842F0E94AA087983E4
:1011700068838A83DF91CF9108958091D902282FC7
:10118000269530E02115310519F48170826005C083
:101190002B32310524F0817084658093D902089543
:1011A00088E090E00C94E22BCF92DF92EF92FF92D6
:1011B0006B017C010E94BD08B701A60188E090E0A8
:1011C000FF90EF90DF90CF900C94002CE9EDF2E0CF
:1011D00083E0808311828FEF828383831482608116
:1011E0007181828193810C94D4088091D90280FF0F
:1011F00002C08695089580E008959091DD029330B5
:1012000018F49F5F9093DD02882351F06091D9021A
:101210007091DA028091DB029091DC020C94D40888
:10122000089581E00C94FD089091DD02992319F056
:1012300091509093DD02882351F06091D902709112
:10124000DA028091DB029091DC020C94D4080895BC
:1012500081E00C94140970E00C94A10F3091080106
:101260008091D90280FF0CC08091070190E063E07B
:1012700070E00E94E92A632F82529D4F0C942B0943
:101280002091090140910A01241770F7822F90E004
:1012900063E070E00E94E92AFC01E252FD4F1182F6
:1012A000108212822F5FF0CFA82FB62F8091D90223
:1012B00080FF16C02091090130910A01231770F4B4
:1012C000822F90E063E070E00E94E92AFC01E25284
:1012D000FD4FA183B08342832F5FF0CF0C942E0982
:1012E0000895CF93DF9300D01F92CDB7DEB79091D2
:1012F000D90290FF0AC09E012F5F3F4F0E94AF08A6
:101300004B8169818A810E9454090F900F900F9040
:10131000DF91CF910895CF93DF93EC01EC81F0E062
:10132000EF5FFB4F4491E9EDF2E0628181810E9421
:1013300071098C818F5F8C83DF91CF910895CF935A
:10134000DF93EC01E9EDF2E0438162818C810E9440
:1013500071098C818F5F8C83DF91CF9108950F93FA
:101360001F93CF93DF9300D01F92CDB7DEB78C01D0
:101370008091CD0181110AC09E012F5F3F4F4FEF39
:101380006FEF0E94AF088A818093CD01F8018481BC
:10139000813051F028F0823061F44091CD010AC0D3
:1013A0008091CD0140E007C06091CD0140E080E038
:1013B00003C040E080E060E00E945409F8018481AD
:1013C00090E0019663E070E00E94332B84830F90DD
:1013D0000F900F90DF91CF911F910F910895AF92D1
:1013E000BF92CF92DF92EF92FF920F931F93CF9312
:1013F000DF9300D01F92CDB7DEB7182FF62E042F43
:10140000E22E9091D90290FF6EC0E92FE695AE2FA3
:10141000B0E0A359BE4F8C918093FF019E7F923024
:1014200061F49E012F5F3F4F812F0E94AF084B81D7
:1014300069818A810E94540944C0823019F4009164
:10144000DC023FC0863019F41091DA023AC08930CC
:10145000D9F38931B1F5E9514E2F4170D42EE6957B
:10146000F0E0EF5FFA4FA590B490C12CBB244091FF
:101470000B01C41620F52C2D30E0C501B9010E94E6
:10148000E92A642F70E00E941F2BE12FD11002C0C7
:10149000E60F01C0E61B80910901A901480F511D0B
:1014A000CA0163E070E00E94E92A9C0122523D4F8C
:1014B000402F6F2D8E2F0E94AF08C394D8CF0E946B
:1014C0002E091093DA02F092DB020093DC02EE2088
:1014D00051F06091D9027091DA028091DB02909113
:1014E000DC020E94D4080F900F900F90DF91CF91F3
:1014F0001F910F91FF90EF90DF90CF90BF90AF9032
:101500000895E9EDF2E09181282F4381628188E01E
:10151000890F0C94EF0981E00C94810AE9EDF2E067
:101520009181282F4381628188EF890F0C94EF0904
:1015300081E00C948E0AE9EDF2E0628128E0620F0E
:1015400008F46FEF282F438181810C94EF0981E02B
:101550000C949B0AE9EDF2E0628128E0621B08F43A
:1015600060E0282F438181810C94EF0981E00C9485
:10157000AA0AE9EDF2E0438128E0420F08F44FEFB8
:10158000282F628181810C94EF0981E00C94B90AC3
:10159000E9EDF2E0438128E0421B08F440E0282F07
:1015A000628181810C94EF0981E00C94C80A20E0EB
:1015B0000C94EF09EF92FF921F93CF93DF93EC010E
:1015C00010E0EE24EA94F12C30910B01131700F592
:1015D00020910901812F90E0820F911D63E070E05E
:1015E0000E94E92AFC01E252FD4F632F70E0C7011F
:1015F0000E94332B812F0E94E02A9C819F01409101
:10160000DC026091DB02890F0E94AF081F5FDCCF14
:101610000E942E099A818C8190FF02C08F5F01C0C9
:1016200081508C83DF91CF911F91FF90EF900895AF
:10163000BF92CF92DF92EF92FF920F931F93CF93BF
:10164000DF93FC01828180FF02C0DFEF01C0D1E0A7
:10165000C0E080910B01C81708F040C080910901DB
:10166000CC2ED12C9601280F311DC90163E070E00A
:101670000E94E92A82529D4F7C01FC011182108256
:10168000128204E010E0B12C8091CF018B0D8930E3
:1016900014F0877005C087FF03C090910B01890F7C
:1016A000082E000C990BC816D90691F48091DC0223
:1016B00090E0B8010E94E92A9595879595958795C0
:1016C0009701482F6091DB028091DA020E94AF08F7
:1016D000BD0E01501109C1F6CF5FBBCF0E942E098C
:1016E0008091CF01D13031F4811102C080910B0182
:1016F000815007C090E0019660910B0170E00E945C
:10170000332B8093CF01DF91CF911F910F91FF90E9
:10171000EF90DF90CF90BF900895CF932091090173
:1017200030910A01231770F4822F90E063E070E09B
:101730000E94E92AFC01E252FD4F118210821282BE
:101740002F5FF0CFC0E060910B01C61790F5EC2F32
:10175000F0E070E0CF010E94332B90910901890FD6
:101760002091CE01022E000C330B90E063E070E07C
:101770000E94E92AE217F307A4F020910601022E45
:10178000000C330B2E173F0764F09C0122523D4F93
:101790004091DC026091DB028091DA020E94AF0886
:1017A00006C0FC01E252FD4F118210821282CF5F0F
:1017B000CACF0E942E09209105018091CE01820F8F
:1017C0008093CE0190910601920F90930601191615
:1017D0005CF4082E000C990B40910B0150E0415035
:1017E0005109841795071CF0219520930501CF918D
:1017F00008954F925F926F927F928F929F92AF92D5
:10180000BF92CF92DF92EF92FF920F931F93CF93ED
:10181000DF938C01FC01C481CC2ED12CE12CF12C66
:10182000A7019601C701B6010E94FA2AA7019601F5
:101830000E94FA2A4B015C0180E290E06C01CC1A14
:10184000D1080D2C000CEE08FF0825E530E040E043
:1018500050E0C501B4010E94FA2A2B013C01A70106
:101860009601C701B6010E94FA2AA70196010E94BB
:10187000FA2A9B01AC01280D391D4A1D5B1DC301CD
:10188000B2010E94472BD22F822F90E02A3230F0F3
:1018900025E530E0A901481B590BCA0163E070E05F
:1018A0000E94E92A97FD019695958795C82FC095C6
:1018B000F12C85E5E82EED1A80910B01F816D0F495
:1018C000F1FC02C0EE2D01C0ED2F209109018F2DFA
:1018D00090E0820F911D63E070E00E94E92A9C0174
:1018E00022523D4F4C2F6091DB028E2F0E94AF0899
:1018F000F394E2CF0E942E09F8018481811102C085
:1019000091E003C0803219F49FEF9093040190910D
:101910000401890FF8018483DF91CF911F910F910A
:10192000FF90EF90DF90CF90BF90AF909F908F90FF
:101930007F906F905F904F9008950F931F93CF9378
:10194000DF93EC0100E010E040910B01842F90E068
:10195000081719072CF5809109019801280F311DEE
:10196000C90163E070E00E94E92A9C0122523D4FC8
:10197000469550E08C81041715071CF4882331F03C
:1019800002C0811103C04091DC0201C040E06091BF
:10199000DB028091DA020E94AF080F5F1F4FD4CFA5
:1019A0000E942E098C8190E00196817099278C838A
:1019B000DF91CF911F910F9108959F92AF92BF92A7
:1019C000CF92DF92EF92FF920F931F93CF93DF930B
:1019D000FC010281A48081E0848310E08BE4B82EB6
:1019E00099249394EE24EA94F12C2BE4C22ED12C6A
:1019F00080910B01181708F096C0C12FD0E0CE01DE
:101A000065E070E00E94E92AFC01E053FE4FA1105E
:101A100003C0138212826BC023812223A1F12150C3
:101A200023834481442319F03B2D321B01C0322F04
:101A3000CE0165E070E00E94E92AFC01E053FE4F10
:101A40008091DC02632F70E090E00E94E92AB601E9
:101A50000E941F2B6283211104C0442311F01482C1
:101A6000B382033008F043C0CE0165E070E00E940D
:101A7000E92AFC01E053FE4F8091DA0280838091D5
:101A8000DB02818334C00E94BD2B823091407CF503
:101A9000033038F00E94BD2BB7010E94332B282F52
:101AA00002C02091DA02CE0165E070E00E94E92ACE
:101AB00080539E4FFC012083033058F00E94BD2BC1
:101AC0002091DB022695622F70E00E94332B280FB5
:101AD00002C02091DB02CE0165E070E00E94E92A9D
:101AE000FC01E053FE4F21831282B38294828091E5
:101AF00009019E01280F311DC90163E070E00E94B9
:101B0000E92A9C0122523D4FCE0165E070E00E941F
:101B1000E92AFC01E053FE4F4281618180810E94ED
:101B2000AF081F5F65CFDF91CF911F910F91FF909D
:101B3000EF90DF90CF90BF90AF909F900C942E09C4
:101B4000E9EDF2E080818E7F808360817181828106
:101B500093810E94D408109200022FEF80E792E058
:101B6000215080409040E1F700C000000C942E0905
:101B70006091D902669570E04BE050E08CE091E016
:101B80000E94CD2B892B19F481E0809300020E94E2
:101B9000B31F9093F9018093F80108959091D902B1
:101BA00090FF35C09170811102C0926006C08B32E7
:101BB00010F0946502C0880F982B9093D902662389
:101BC00051F06091D9027091DA028091DB0290911C
:101BD000DC020E94D4086091D902669570E04BE067
:101BE00050E08CE091E00E94CD2B892B19F01092EF
:101BF000000202C00E94B80D81E08093FB01409179
:101C0000DC026091DB028091DA020C94D70A08951D
:101C1000682F9091D902969581E0890F8B3208F058
:101C200081E00C94CE0D81E00C94080E682F909109
:101C3000D90296958FEF890F09F48AE20C94CE0DA4
:101C400081E00C94160E61E00C94CE0DE9EDF2E00B
:101C500080818160808386950C94230E8091D902C7
:101C600080FD0C94A00D0C94260E60E00C94CE0D1B
:101C70008091FE0181112EC00E94BA1D811104C005
:101C80000E94641E0E94E6080E94D0086093D90258
:101C90007093DA028093DB029093DC026E7F61F432
:101CA0000E94E6080E94D0086093D9027093DA027D
:101CB0008093DB029093DC020E94BD081092000228
:101CC0008091D90280FF03C086950E94350E81E085
:101CD0008093FE0108950F931F93CF93DF9380911C
:101CE0000002882309F49CC08091FF01E091D90291
:101CF000E695E81BE093FA01823049F4F0E0E35006
:101D0000FC4FE491CE2FD0E00BE819E059C08630AB
:101D100049F4F0E0E650FC4FE491CE2FD0E00FE91B
:101D200019E04EC0893051F4E695F0E0E950FC4FDF
:101D3000E491CE2FD0E00AED1AE042C08F3051F48A
:101D4000E695F0E0EC50FC4FE491CE2FD0E008E1B6
:101D50001BE036C0853149F4F0E0EF50FC4FE491D0
:101D6000CE2FD0E00DE81BE02BC08831D9F08332B4
:101D700039F4EFEEF3E0C591D4910FEA19E020C0F9
:101D80008432A9F08532C1F48E2F63E00E94132BB8
:101D9000E92FF0E0E451FC4FE491CE2FD0E00DEDBF
:101DA0001CE00EC0C8E2D0E009EF1BE009C0C4EFA0
:101DB000D1E00DE91CE004C0C0EDD7E00EEA18E068
:101DC0008091FB01882389F01092FB010E94B31FD0
:101DD0009E0120953095820F931F9093F901809377
:101DE000F8011092FD011092FC018091F801909190
:101DF000F9010E94BF1F8C179D0790F0E091F80138
:101E0000F091F901CE0FDF1FD093F901C093F801D3
:101E100088EF91E0F801DF91CF911F910F91099424
:101E2000DF91CF911F910F910895882311F0FA014E
:101E300001C0FB010994CF93DF93C82FD62F0E94D6
:101E4000F5088C1740F00E94F5088D1720F4DF91FB
:101E5000CF910C94130E8C2FDF91CF910C94230E05
:101E60000F931F93CF93FB01C281CC2309F463C06E
:101E70008C010E94091D8272F801E25CFC45E4318C
:101E8000F10508F059C0E65CFF4F0C94692B0E94E5
:101E90002E0E06C040E25EE063E17EE00E94150F78
:101EA000C0E04AC043E15EE060E27EE0F7CF48E98F
:101EB0005AE06BE87AE0F2CF4BE85AE068E97AE062
:101EC000EDCF46EB5AE067EA7AE0E8CF47EA5AE01E
:101ED00066EB7AE0E3CF44ED5AE065EC7AE0DECFE2
:101EE00045EC5AE064ED7AE0D9CF48E259E061E18F
:101EF00079E0D4CF41E159E068E279E0CFCF81E0E9
:101F000017C065E082E010C068E086E00DC06EE0BA
:101F100089E00AC064E18FE007C067E185E104C0A1
:101F200088E106C062E289E10E941B0FB9CF83E21B
:101F30000E94230EB5CFC1E08C2FCF911F910F913E
:101F400008953E9A28B12F7B38B130644FB7F8948A
:101F5000FC01CB0163E070E00E94E92A8E0F9F1F15
:101F6000E817F90789F0519168E038B9000000C01E
:101F700057FF28B9550F000000C000C000C028B9A5
:101F800000C06A9591F7ECCF4FBF8FE594E00197C1
:101F9000F1F700C000000895AF92BF92CF92DF9298
:101FA000EF92FF920F931F93CF93DF937C015B011E
:101FB000C42FD22FFC0182818823F9F040930302C1
:101FC0000E94B31F909302028093010280E28C0F63
:101FD000883008F06EC0C77081E001C0880FCA95D4
:101FE000EAF7DF91CF911F910F91FF90EF90DF9073
:101FF000CF90BF90AF900C949D1480910302481332
:1020000035C080910102909102020E94BF1F6C01B5
:10201000B701C5010E94E519C816D90638F510E2C6
:102020001D0FCD17B9F080E28C0F883040F4C770D7
:1020300081E001C0880FCA95EAF70E94A414183005
:1020400058F581E09D2F977001C0880F9A95EAF7A7
:102050000E949D14802F0E948A14183050F5D7706A
:1020600081E001C0880FDA95EAF70AC080E28C0FA0
:102070008830F8F4C77081E001C0880FCA95EAF78C
:10208000DF91CF911F910F91FF90EF90DF90CF9054
:10209000BF90AF900C94A414802FDF91CF911F912B
:1020A0000F91FF90EF90DF90CF90BF90AF900C9486
:1020B0008A14DF91CF911F910F91FF90EF90DF90E5
:1020C000CF90BF90AF9008950F939C01CB01233F19
:1020D0004CE5340731F188F4283DFCE53F07D9F0A1
:1020E000293D4CE5340779F1273D3C45A9F506E249
:1020F00021EE41EE67ED7CE52BC0253FFCE53F0777
:10210000E1F0A8F0263F3C4539F507E225EE46EE22
:1021100066EF7CE51DC007E225EE45EE68ED7CE547
:1021200017C006E221EE40EE63EF7CE511C007E246
:1021300025EE44EE64EF7CE50BC006E221EE42EEB4
:1021400065EF7CE505C008E221E045EE69ED7CE540
:102150000E94CC0F80E008C0FC018281882319F026
:102160001092030201C081E00F910895CF93DF9395
:10217000EC01FB018281882309F41FC1C230FCE518
:10218000DF0708F41BC1C6319CE5D90738F09E0172
:102190002A5F3C452930310508F010C10E94D71D47
:1021A0009093FB028093FA02C031ECE5DE0709F45C
:1021B000C3C008F041C0C8308CE5D80709F49AC004
:1021C000F0F4C430ECE5DE0709F487C068F4C230EF
:1021D0008CE5D80709F477C0C330DC4509F0E3C0CB
:1021E0008091FA02826076C0C630ECE5DE0709F421
:1021F0006EC008F07BC08091FA0288606BC0CC3062
:102200008CE5D80709F485C068F4CA30ECE5DE0730
:1022100009F474C008F079C00E942D178091FA0269
:10222000806858C0CE308CE5D80709F476C008F035
:102230007FC08091FA028BC0CB3FECE5DE0709F44A
:102240004FC018F5C3318CE5D80709F47DC078F488
:10225000C131ECE5DE0709F473C0C231DC4509F099
:10226000A2C00E942D178091FA028F7733C0C5312A
:102270008CE5D80709F472C008F486C0CA3FDC4573
:1022800009F091C08091FB023EC0CF3FFCE5DF0723
:1022900009F45FC058F4CD3F9CE5D90709F444C068
:1022A00008F43FC08091FB0282602DC0C130FDE583
:1022B000DF0709F475C008F45DC0C230DD4509F0E0
:1022C00072C080E06EC08091FA02816003C080918C
:1022D000FA0280618093FA0266C08091FA0211C00E
:1022E0008091FB0282608093FB025DC08091FA02C4
:1022F0008062F0CF8091FA028064ECCF8091FA0284
:1023000088608460E7CF8160EECF8091FA028E7F93
:10231000E1CF8091FA028D7FDDCF8091FA02877F35
:10232000D9CF8091FB0218C08091FB028D7FDBCF5B
:102330008091FA028F7ECECF8091FA028F7DCACF34
:102340008091FA028F7BC6CF8091FA02877F8B7FC4
:10235000C1CF8091FB028D7F8E7FC5CF8091FA0225
:1023600082FB222720F991E0922790FB82F990FBD3
:1023700083F9B0CF8091FB02982F909591708E7F5A
:10238000892B90FB81F9AFCF0E942D178091FA0223
:1023900087FB222720F991E0922790FB87F99ACFBB
:1023A00081E00E94661E8091FA029091FB020E94D9
:1023B000E81D0E942D1780E001C081E0DF91CF91E0
:1023C0000895CF93DF9386319C4541F5EB010E9440
:1023D000091D982F8A8120911701309118018823B7
:1023E00079F09A7A81E009F480E0809304029111F7
:1023F00002C069E201C065E3C9010E94011F0AC071
:1024000080910402811102C069E201C065E3C90143
:102410000E940C1F0E94571D80E001C081E0DF91E7
:10242000CF91089590930A02809309020895E09154
:102430000902F0910A02309721F00190F081E02D1D
:10244000099480E00895E0910902F0910A02309722
:1024500099F020912B01222359F02091FA0227FFB5
:1024600007C0DC012C9111962C93119725E02C9339
:102470000280F381E02D09940895E0910902F09122
:102480000A02309739F022E0DC012C930480F581B8
:10249000E02D099408952091070230910802281731
:1024A000390771F09093080280930702E0910902C6
:1024B000F0910A02309721F00680F781E02D09940F
:1024C000089520910502309106022817390771F00E
:1024D0009093060280930502E0910902F0910A02AE
:1024E000309721F00084F185E02D09940895089536
:1024F0000C9477120C9478120C9477120C94771237
:102500000E947C120C947A1281E008950C9484123B
:102510000E94AA1F0E94F8060E9464200E94380EA2
:102520000C947E127F928F929F92AF92BF92CF9225
:10253000DF92EF92FF920F931F93CF93DF93CDB76C
:10254000DEB72A970FB6F894DEBF0FBECDBF0E944C
:102550005C070E948612811111C08FEF89838A83E4
:102560001B820E94B31F8160782F9D838C834981D9
:102570005A816B818D810E9444134FC04CE0A42E80
:1025800042E0B42E00E010E0702E802F0E94E5069D
:102590006C01F501819091905F0188269926811444
:1025A000910431F40F5F1F4F0430110569F7D5CF47
:1025B0008091980281FD0E94EE0680E0EE24E39473
:1025C000F12C94012E213F21232B09F18E837F8250
:1025D000CE20DF2081E0CD2809F480E088870E94AA
:1025E000B31F8160782F9A8789874E815F816885C4
:1025F0008A850E944413000F111FF801E45FFD4F0C
:1026000080819181E826F926F182E08206C08F5F01
:10261000EE0CFF1C8C30A9F6C5CF0E946B0E0E94F9
:1026200039230E94171290910B028917C9F00E945A
:10263000171280930B022A960FB6F894DEBF0FBED6
:10264000CDBFDF91CF911F910F91FF90EF90DF9061
:10265000CF90BF90AF909F908F907F900C94BF04CD
:102660002A960FB6F894DEBF0FBECDBFDF91CF9193
:102670001F910F91FF90EF90DF90CF90BF90AF90A0
:102680009F908F907F900895CF93DF93CDB7DEB763
:102690002B970FB6F894DEBF0FBECDBF4F83588780
:1026A00069877A878B87DE01119686E0FD0111929A
:1026B0008A95E9F785E0FE01379601900D928A959B
:1026C000E1F749815A816B817C818D819E810E94D5
:1026D000E8192B960FB6F894DEBF0FBECDBFDF9181
:1026E000CF910895FC01808191810E94CA1C0895B8
:1026F000CF93882309F4A4C0C82F8238C1F40E9464
:10270000171281FD9DC069E3809117019091180116
:102710000E94011F0E94571D2FEF81EE94E021506F
:1027200080409040E1F700C0000069E319C08338A1
:1027300001F50E94171280FD83C063E580911701A7
:10274000909118010E94011F0E94571D2FEF81EEEA
:1027500094E0215080409040E1F700C0000063E524
:1027600080911701909118010E940C1FCF910C9439
:10277000571D8438C1F40E94171282FD61C067E4BE
:1027800080911701909118010E94011F0E94571D0E
:102790002FEF81EE94E0215080409040E1F700C09F
:1027A000000067E4DDCF8CEF8C0F813AD0F46C2F02
:1027B00080911701909118010E94811E882349F091
:1027C0006C2F80911701909118010E940C1F0E949C
:1027D000571D6C2F80911701909118010E94011FC5
:1027E000C5CF80E28C0F883048F4C77081E001C00B
:1027F000880FCA95EAF70E940C1DB8CFEBE5EC0FE5
:10280000E33040F4F0E0EA53FE4F808190E0CF9156
:102810000C944B12E8E5EC0FE73150F4F0E0EE0FCA
:10282000FF1FE856FE4F80819181CF910C94611279
:10283000C03F30F08C2F0E942E22CF910C941B238E
:10284000CF910895882309F464C0823879F40E94F6
:10285000171281FF5EC069E3809117019091180102
:102860000E94011F0E94571D69E310C08338B1F414
:102870000E94171280FF4DC063E58091170190916F
:1028800018010E94011F0E94571D63E580911701E6
:10289000909118010E940C1F0C94571D843879F4F4
:1028A0000E94171282FF35C067E480911701909152
:1028B00018010E94011F0E94571D67E4E7CF9CEF9B
:1028C000980F913A10F4682FE1CF90E2980F98306A
:1028D00050F4877091E001C0990F8A95EAF7892F2B
:1028E0000E94121DD9CF9BE5980F933020F480E011
:1028F00090E00C944B1298E5980F973120F480E00B
:1029000090E00C946112803F20F00E9496220C947B
:102910001B230895CF93C82F0E947813C93349F41D
:102920002FEF87EE93E0215080409040E1F700C008
:1029300000008C2FCF910C942214882321F00E9448
:102940000C1D0C94571D0895882321F00E94121D20
:102950000C94571D0895CF92DF92EF92FF920F9340
:102960001F93CF93DF937C01062FC72FFC011581A6
:1029700012951F70D281D1110E94291D0E94021D43
:10298000882399F0DD2389F08C2F807F803421F01B
:1029900080E2800F883048F082E00E94A11D0E94F2
:1029A000021D91E0D82ED92601C0D12CCC2EC29484
:1029B0008FE0C8228C2D90E0FC01E25BFF4F0C946D
:1029C000692B8C2F807FCF70882311F0C295C07F38
:1029D000DD2399F0CC2309F48DC180E2800F88308B
:1029E00010F0011104C08C2F0E940C1D03C08C2F0D
:1029F0000E941C1D0E94571D7DC1802F0E94221421
:102A0000CC2309F49CC180E2800F883010F00111C2
:102A100004C08C2F0E94121D03C08C2F0E94221D07
:102A20000E94571D8CC18C2F807FCF70803211F097
:102A3000C295C07F002319F00130C9F022C0DD2308
:102A400071F0112341F0113031F40E943C1D8C2BA8
:102A50000E94441D74C10E943C1D8C2B1DC011237B
:102A600019F0113009F46BC10E944D1D25C0DD2302
:102A700021F0163008F063C10EC0153008F05FC1B8
:102A80001BC0DD2361F0112331F0F701858180FF48
:102A900031C18F7085838C2F0E949D1450C11123EA
:102AA00059F0093309F037C1FFEF27EE83E0F15009
:102AB00020408040E1F72DC18C2F0E94A4143FC11B
:102AC0008C2F86958695837019F0813061F037C11F
:102AD000DD2321F0802F9C2F937002C080E090E0D6
:102AE0000E944B1234C1DD2321F0802F9C2F937064
:102AF00002C080E090E00E94611229C1802FDD2396
:102B000019F00E942E2202C00E9496220E941B23CE
:102B10001EC18C2F837009F045C0D11114C1402F04
:102B2000429546954770440F440F602F6F70862F73
:102B300090E0A0E0B0E0042E04C0880F991FAA1F07
:102B4000BB1F0A94D2F704FF10C00FE010E020E092
:102B500030E004C0000F111F221F331F4A95D2F727
:102B6000009510952095309503C000E010E0980185
:102B7000C695C695C370BC01CD01602B712B822B0D
:102B8000932BC23049F058F4C13019F00E943E1B1B
:102B9000DAC00E942C1BD7C00E94501BD4C00E94D8
:102BA0002A1BD1C0DD2319F08C2F817001C08695BE
:102BB000882309F4C8C0402F429546954770440FBA
:102BC000440F602F6F70862F90E0A0E0B0E0042EDD
:102BD00004C0880F991FAA1FBB1F0A94D2F704FFD5
:102BE00010C00FE010E020E030E004C0000F111F23
:102BF000221F331F4A95D2F70095109520953095E6
:102C000003C000E010E09801C695C695C370BC01F2
:102C1000CD01602B712B822B932BC23049F058F4DD
:102C2000C13019F00E94031C8EC00E94F11B8BC0A2
:102C30000E94151C88C00E94641B85C0CF70DD23D4
:102C400039F08C2F0E948A1B802F0E949D147BC01C
:102C5000802F0E94A4148C2F0E94AB1B74C0023FD3
:102C600001F128F4003F41F0013FA1F03FC0033FD4
:102C7000F9F0043F39F13AC0DD2341F0153008F096
:102C80005EC08C2F8F710E94D01B59C0163008F087
:102C900056C0F7CFDD2339F08C2F8F710E948A1B2D
:102CA0004EC0DD23C9F38C2F8F710E94AB1B47C030
:102CB000DD2329F08C2F8F710E94751B40C00E946C
:102CC000701B3DC0DD2349F0CF718C2F0E948A1B01
:102CD00063E08C2F0E948C1D32C081E00E94A11DF8
:102CE000123068F182E00E94A11D29C0DD2331F07D
:102CF000112391F2802F0E94781321C0112399F2A1
:102D0000093349F49FEFE7EEF3E09150E040F040E3
:102D1000E1F700C00000802F0E94221410C04C2F49
:102D20004F70602FC7010E94C8040E949B1A0FC0F9
:102D30004C2F4F70602FC7010E94CB0408C088EF52
:102D40008C0D843020F40E9417120E94BF04DD20F5
:102D5000C9F00E94FE1C80FD15C0F70112820E947E
:102D6000F81C0E948A1BC7010E94E3160E94F81CEF
:102D7000DF91CF911F910F91FF90EF90DF90CF9057
:102D80000C94AB1BDF91CF911F910F91FF90EF90AF
:102D9000DF90CF9008950F931F93CF93DF93EC01B3
:102DA000688179818A810E94D51C8C010E94271C30
:102DB0000E94181BB801CE010E94AB14DF91CF9185
:102DC0001F910F910895CF93DF93EC019881898132
:102DD0002B813C81232B31F08F3F31F481E09F3FE9
:102DE00019F403C081E001C080E080FD19C0CE016C
:102DF0000E94750481110CC00E94021D882381F07D
:102E00008A81882369F082E0DF91CF910C94A11D23
:102E1000CE010E94CB16CE01DF91CF910C945004CD
:102E2000DF91CF9108950E94291D0E94391D0E94B3
:102E3000571D0E945A240E941B2380E090E00E94AC
:102E40004B1280E090E00C946112809117019091F8
:102E500018010E94171F0C9413170E94191D0C943F
:102E60002517E92FE295EF704E2F50E0FA013297C7
:102E7000EE30F105B0F4E25AFF4F0C94692B803F1D
:102E800091F018F4883E68F40EC0843F51F40BC0F2
:102E9000883E48F0813F29F406C093FB882780F9DB
:102EA000089580E0089581E008950E94CA1C0E9460
:102EB00031170895CF93DF9300D000D01F92CDB784
:102EC000DEB70F900F900F900F900F90DF91CF9182
:102ED0000895CF93DF9300D000D000D0CDB7DEB7F8
:102EE00026960FB6F894DEBF0FBECDBFDF91CF910F
:102EF0000895CF93DF93C091150280911602C817F1
:102F0000A1F0D0E0CE0166E070E00E94E92AFC0169
:102F1000E95EFD4F40815181628173818481958199
:102F20000E9469172196C770E8CFDF91CF9108956D
:102F300040914702509148026091490270914A02C3
:102F400080914B0290914C020C9469171F93CF9380
:102F5000DF9380914C0282958F7009F05CC0809164
:102F60004902882309F457C02091150210911602D6
:102F7000C0914702D0914802A0914A02B0914B0201
:102F800081E0CF3F09F080E0482F211709F443C0CA
:102F9000109721F0DF3F21F080E003C081E001C005
:102FA000842F30E080FD33C0C90166E070E00E94EC
:102FB000E92AFC01E95EFD4F81818D1328C08081E3
:102FC0008C1325C08281811122C0838194818A1B48
:102FD0009B0B883C9105D8F480914C028F708061E6
:102FE00080934C02C90166E070E00E94E92AFC016E
:102FF000E45EFD4F90819F709061908387E492E042
:103000000E94E316DF91CF911F910C9479172F5FE7
:103010003F4F2770BACFDF91CF911F9108959F92B4
:10302000AF92BF92CF92DF92EF92FF920F931F93D6
:10303000CF93DF93CDB7DEB761970FB6F894DEBFBD
:103040000FBECDBF8C0185E0F801DE011D96019019
:103050000D928A95E1F7F80140812181E2809091FB
:1030600047023091480260914A0270914B0261150B
:10307000710531F03F3F31F481E09F3F19F403C007
:1030800081E001C080E0F82FF1709F2E80FD4AC1E1
:10309000F801A380B48087E4C82E82E0D82EF09097
:1030A0004902F501E61BF70BFF2009F4E2C080910D
:1030B0004C02582F507FE83CF10508F09CC051119C
:1030C00055C0231313C0491311C0FE2CE1100EC0CC
:1030D0008F70806180934C020E949817C6010E94F5
:1030E000E31680914C02F80185835CC1AB2831F076
:1030F0002F3F31F481E04F3F19F403C081E001C05C
:1031000080E080FD03C081E08E2502C080E090E079
:10311000F82FF170FF2E80FF1FC0E0911502309153
:103120001602E31709F41CC1F0E0CF0166E070E07D
:103130000E94E92ADC01A95EBD4F11968C9111977E
:10314000281307C08C91481304C012968C91E81282
:1031500003C03196E770E5CFFE2CEE2009F422C1C2
:1031600080914C02816080934C025AC0231306C0A8
:10317000491304C0E11002C0F8019FC04D872E879B
:103180008D859E850E945517882379F1EE2069F17F
:1031900020914C02822F82958F7090E0029774F0FC
:1031A000809147029091480298878F831986BB8649
:1031B000AA862C87CE0107960E94E31686E0F801C6
:1031C000A7E4B2E001900D928A95E1F70E94A6175C
:1031D0000E9498170DC0231729F14D872E878D85E2
:1031E0009E850E94551781112CC0C8010E94E316CC
:1031F000FF24F394D7C05111EECF7A2DB98AA88A53
:10320000522F6E2D89890E945A1787E492E00E94FE
:10321000E31686E0F60111928A95E9F70E94981765
:10322000F12CC0C04913D9CFE110D7CFF801858365
:10323000C8010E94E31686E0F60111928A95E9F72B
:10324000B1C0EE2091F220914C02822F82958F70B6
:1032500090E002970CF4B2CF80914702909148021F
:103260009A8389831B82BD82AC822E83CE01019614
:10327000A3CFE83CF10508F047C0FE2CEE2009F48E
:10328000B4CF231330C049132EC020914C0220FD2F
:1032900021C0822F82958F70482F50E04115510533
:1032A000C9F0F80125834F30510541F08F5F982F09
:1032B0009295907F822F8F70892B8583C8010E9401
:1032C000E31686E0F801A7E4B2E001900D928A953A
:1032D000E1F743C086E0F801A7E4B2E001900D9267
:1032E0008A95E1F75FC04D872E878D859E850E9468
:1032F0005517811163CF80914C02816080934C02FD
:10330000C8010E94E3164EC07A2DB98AA88A522FAE
:103310006E2D89890E945A1786E0F60111928A95CE
:10332000E9F71BC0EE2009F460CF4D872E878D850D
:103330009E850E945517F82E882309F456CF86E003
:10334000F801A7E4B2E001900D928A95E1F787E4D5
:1033500092E00E9472130E94A6170E94981722C042
:103360004D872E878D859E850E94CA1C292F229508
:103370002F70223028F49F7039F0811105C00BC0E6
:10338000243028F49F7049F4805E883020F0C80112
:103390000E94E3169F2CF92C05C0F8019581907FBF
:1033A00099F7F9CF8F2D61960FB6F894DEBF0FBE57
:1033B000CDBFDF91CF911F910F91FF90EF90DF90E4
:1033C000CF90BF90AF909F90089588EC90E00895C3
:1033D000CF93DF93CDB7DEB72C970FB6F894DEBF4F
:1033E0000FBECDBF4F83588769877A878B879C87AD
:1033F000CE0107960E940F188823D1F09F818885FF
:103400002A853B85232B31F08F3F31F481E09F3FAC
:1034100019F403C081E001C080E080FD6FC04F81DE
:10342000588569857A858B859C850E94691766C059
:1034300086E0FE013796DE01119601900D928A9585
:10344000E1F7FF81E8856A857B856115710531F0BB
:10345000EF3F31F481E0FF3F19F403C081E001C088
:1034600080E080FD4BC08091160290E09C012F5FB0
:103470003F4F277033274091150250E0241735073E
:1034800009F443C0F983EA837D836C8366E070E0CE
:103490000E94E92ADC01A95EBD4F96E0FE0131964B
:1034A00001900D929A95E1F7209316020E947917E8
:1034B00025C090E066E070E00E94E92A895E9D4F99
:1034C0000E940F18882371F18091150290E066E048
:1034D00070E00E94E92AFC01E95EFD4F40815181C4
:1034E00062817381848195810E94691780911502A0
:1034F00090E00196877099278093150280911502BC
:10350000909116028913D5CF0DC00E942D171092ED
:10351000160210921502E7E4F2E086E0DF011D9248
:103520008A95E9F72C960FB6F894DEBF0FBECDBF93
:10353000DF91CF910895EF92FF920F931F93CF9356
:10354000DF938C01892B09F46CC0F12CEE24E394F9
:10355000E8012196F8018491843740F4843008F022
:1035600051C0813081F0823019F15BC0853709F498
:1035700044C0A8F19CE7980F903708F052C08F77AD
:103580000E94221441C00E5F1F4FFE01849190E201
:10359000980F983050F48770FE2D01C0FF0F8A9568
:1035A000EAF78F2F0E942C1D14C00E9478132DC0A3
:1035B0000E5F1F4FFE01849190E2980F983060F4E7
:1035C0008770FE2D01C0FF0F8A95EAF78F2F0E94AA
:1035D000321D0E94571D19C00E94221416C00E5F92
:1035E0001F4FFE01C491CC2381F08FE99FE001972A
:1035F000F1F700C00000C150F6CF0E5F1F4FFE0173
:10360000F49003C00E9478138E018F2D882309F453
:103610009FCFEFE9FFE03197F1F700C00000815044
:10362000F5CFDF91CF911F910F91FF90EF9008950B
:10363000089508950C94191B0C941A1B0E941C1BCE
:1036400060936F0270937002809371029093720284
:103650000C9413170C941E1B0F931F9300916F0271
:10366000109170022091710230917202602B712BC7
:10367000822B932B1F910F910C941E1B0F931F9362
:1036800000916F02109170022091710230917202CC
:1036900060237123822393231F910F910C941E1B8F
:1036A0000F931F9300916F0210917002209171028D
:1036B0003091720260277127822793271F910F9103
:1036C0000C941E1B0C94191B0E94621B60936B02CE
:1036D00070936C0280936D0290936E020C9413179A
:1036E00060E070E0CB010C94641B0F931F9341E0EA
:1036F00050E060E070E08A019B0104C0000F111FE0
:10370000221F331F8A95D2F7C901B8011F910F916B
:103710000C94641B0F931F9341E050E060E070E055
:1037200004C0440F551F661F771F8A95D2F78091FA
:103730006B0290916C02A0916D02B0916E028A01B1
:103740009B01082B192B2A2B3B2BC901B8011F9178
:103750000F910C94641B0F931F9341E050E060E0C5
:1037600070E004C0440F551F661F771F8A95D2F77B
:10377000409550956095709580916B0290916C0288
:10378000A0916D02B0916E028A019B01082319235A
:103790002A233B23C901B8011F910F910C94641B8C
:1037A0000F931F9341E050E060E070E004C0440FCD
:1037B000551F661F771F8A95D2F780916B029091F3
:1037C0006C02A0916D02B0916E028A019B010827E4
:1037D00019272A273B27C901B8011F910F910C9483
:1037E000641B0F931F9300916B0210916C02209148
:1037F0006D0230916E02602B712B822B932B1F91E7
:103800000F910C94641B0F931F9300916B02109106
:103810006C0220916D0230916E026023712382232D
:1038200093231F910F910C94641B0F931F9300918E
:103830006B0210916C0220916D0230916E02602734
:103840007127822793271F910F910C94641B089571
:10385000282F362F892F6CE00E94E02A820F982FA4
:103860009770A1E001C0AA0F9A95EAF78695869510
:10387000869590E065E070E00E94E92AFC01E35B38
:10388000FD4F40E050E0632F70E090819B01042EDB
:1038900002C0369527950A94E2F7217021952927D1
:1038A0002A23292721934F5F5F4F4530510569F740
:1038B0000895282F892F6CE00E94E02A820FA82FFC
:1038C000A77086958695869590E065E070E00E94E9
:1038D000E92ABC0140E050E080E0FB01E40FF51F65
:1038E000E35BFD4F208130E00A2E02C0369527951C
:1038F0000A94E2F721703327042E01C0220F0A94A4
:10390000EAF7822B4F5F5F4F4530510531F708953D
:10391000BF92CF92DF92EF92FF920F931F93CF93BC
:10392000DF938C01C0906B02D0906C02E0906D022E
:10393000F0906E0280916F0290917002A0917102DE
:10394000B0917202C82AD92AEA2AFB2ACFE1D0E034
:10395000D701C6010C2E04C0B695A79597958795FB
:103960000A94D2F780FD04C0219790F7B12C07C0CC
:10397000BC2EB8018C2F0E94EF040197A9F38B2D68
:10398000DF91CF911F910F91FF90EF90DF90CF903B
:10399000BF900895CF93DF93EC010E94881CBE0175
:1039A0000E94EF04DF91CF9108951F93CF93DF938F
:1039B000EB0190911402992321F0CB010E94CA1CC3
:1039C00013C0882349F0CB010E94881C182F682F50
:1039D000CE010E94281C04C0CB010E94591C182F44
:1039E000BE01812F0E94EF04DF91CF911F910895B6
:1039F00080917302859585958595089580917302D0
:103A00008770089590917302977081E009F480E0C7
:103A1000089580919702089590919702892B809341
:103A20009702089580959091970289238093970239
:103A3000089510929702089590919602892B809391
:103A4000960208958095909196028923809396021C
:103A5000089510929602089590919502892B809373
:103A600095020895809590919502892380939502FF
:103A70000895109295020895809174020895089512
:103A80000C943F1D0C94401D90917402981721F0E6
:103A9000809374020C94421D0895809174028823CF
:103AA00029F01092740280E00C94421D0895E09178
:103AB0001701F0911801809197028083E09117011E
:103AC000F0911801908180919602892B8083E0917A
:103AD0001701F0911801908180919502892B8083C4
:103AE00080917402882381F0E0911701F091180110
:103AF0009081892B808380911701909118010E94F9
:103B00006B1E81110E944D1D80911701909118012B
:103B10000C9423120C943F1D982F990F990F990F15
:103B2000692B609373020E948A1B809173028595B2
:103B3000859585950C948A1D1092730280E00C94F3
:103B40008A1D209173028095822380937302982F9F
:103B5000977079F430E0482F082E000C550B24178D
:103B6000350739F08595859585950E94AB1B0C949A
:103B70009C1D089580E090E00E94E82B21E08C3E9F
:103B80009E4F09F020E0822F089582E090E00C948F
:103B9000DA2B682F82E090E00C94EE2B83E090E02B
:103BA0000C94DA2B682F83E090E00C94EE2BCF93EB
:103BB00084E090E00E94DA2BC82F81E290E00E941E
:103BC000DA2B2C2F30E0A901582BCA01CF91089590
:103BD000CF93C92F682F84E090E00E94EE2B6C2FCA
:103BE00081E290E0CF910C94EE2BAB01BC018FE011
:103BF00090E00C94002CAB01BC0183E190E00C94AC
:103C0000002C60E070E0CB010C94FB1D60E070E0E4
:103C1000CB010E94F51D0C94011E6CEE7EEF80E03E
:103C200090E00E940C2C60E082E090E00E94EE2B7D
:103C300060E083E090E00E94EE2B10926F02109201
:103C40007002109271021092720260E084E090E0C3
:103C50000E94EE2B60E081E290E00E94EE2B60E09B
:103C600085E090E00E94EE2B60E086E090E00E940C
:103C7000EE2B6FEF87E090E00E94EE2B40E050E0EB
:103C8000BA0188E090E00E94002C60E08DE090E0B6
:103C90000E94EE2B40E050E0BA0188E190E00E94E3
:103CA000002C60E087E190E00E94EE2B40E050E0C5
:103CB000BA018CE190E00E94002C60E080E290E08C
:103CC0000E94EE2B0C94061E0C940D1E682F8EE0A5
:103CD00090E00C94EE2BFC01329680912B0188230E
:103CE00031F08091FA0287FF02C09EE101C096E0A8
:103CF00080E0915028F021912223D9F38F5FF9CFF2
:103D00000895662351F120912B012223E9F020919F
:103D1000FA0227FF19C0462F4695469546954E3123
:103D2000E0F4677021E030E002C0220F331F6A9593
:103D3000E2F7FC01E40FF11D828190E02823392392
:103D400081E0232B69F409C0FC0132960896219189
:103D5000621729F0E817F907D1F780E0089581E0AC
:103D600008959C01FC0132969FEF80E04191461737
:103D700089F09F3F19F4411101C0982F8F5F863061
:103D8000A9F79F3F39F0F901E90FF11D97FDFA9569
:103D90006283089508959C012A5F3F4FFC01428190
:103DA000461301C01282019682179307B9F708954E
:103DB000262F2695269526952E3168F4FC01E20FD4
:103DC000F11D677021E030E001C0220F6A95EAF72B
:103DD0008281282B22830895262F269526952695C5
:103DE0002E3170F4FC01E20FF11D677021E030E02C
:103DF00001C0220F6A95EAF7209582812823228349
:103E0000089520912B01222329F02091FA0227FD09
:103E10000C94D81E0C94B11E20912B01222329F062
:103E20002091FA0227FD0C94EC1E0C94CB1E2091DD
:103E30002B01FC013296222331F08091FA0287FF98
:103E400002C08EE101C086E0DF011D928A95E9F78C
:103E5000089508950C94291F0C94291FCF930E9454
:103E60002C1F0E945C070E942A1FC0E08C2F0E941A
:103E7000E506892B29F4CF5FC430C1F780E001C08B
:103E800081E0CF9108950C94291F0C94431F0E9448
:103E9000451F80910003843049F11092990220E47B
:103EA00088E190E00FB6F894A895809360000FBE6B
:103EB0002093600080E00E94BF040E94451F83B7EA
:103EC000817F846083BF83B7816083BF7894889546
:103ED00083B78E7F83BF0FB6F894A895809160005A
:103EE000886180936000109260000FBE08950C946A
:103EF000291F0E942D170E9417120E94BF040C94C4
:103F0000771F1F920F920FB60F9211248F939F93DA
:103F1000AF93BF9380919902811113C08091F602F3
:103F20009091F702A091F802B091F9024196A11D7B
:103F3000B11D8093F6029093F702A093F802B0931C
:103F4000F902BF91AF919F918F910F900FBE0F908B
:103F50001F90189582E084BD93E095BD9AEF97BDC0
:103F600080936E0008952FB7F8948091F602909197
:103F7000F702A091F802B091F9022FBF08959C01B9
:103F80004FB7F8948091F6029091F702A091F80251
:103F9000B091F9024FBF821B930B089578941F9242
:103FA0000F920FB60F9211248F939F93AF93BF93ED
:103FB0008091F6029091F702A091F802B091F90277
:103FC0000196A11DB11D8093F6029093F702A09374
:103FD000F802B093F902BF91AF919F918F910F902A
:103FE0000FBE0F901F90189581E08093E00080E253
:103FF0008093D8001092C9008FE19EE40197F1F7F9
:1040000000C0000087E090EBDC01809309039093EF
:104010000A03A0930B03B0930C039CE088E10FB656
:10402000F894A895809360000FBE90936000FFCF36
:10403000AF92BF92CF92DF92EF92FF920F931F93B6
:10404000CF93C0E0CC24C394D12CE82EF12C8C2F3C
:104050000E94E5065C0100E010E0C601002E02C0EF
:10406000880F991F0A94E2F78A219B21892B31F44A
:104070000F5F1F4F0C30110581F70AC0602F7C2F96
:1040800080E00E94CC04E816F90691F781E004C0B4
:10409000CF5FC430E1F680E0CF911F910F91FF9088
:1040A000EF90DF90CF90BF90AF900895CF93C82F3F
:1040B0008CE20E941820882321F08C2FCF910C9441
:1040C000182080E0CF910895CF930E94BA1D8111EE
:1040D00002C00E94641EC5E6C15049F00E945C0700
:1040E0008FE39CE90197F1F700C00000F5CF89E26A
:1040F0000E94562081112AC18AE20E945620811115
:104100000E94641E85E00E94562081110E94F41FC7
:104110000E94C51D8093980287E00E945620882344
:10412000A9F18BE10E945620882351F080919802DA
:1041300081FB222720F991E0922790FB81F90EC0A4
:104140008EE00E945620882361F08091980282FBC5
:10415000222720F991E0922790FB82F98093980220
:1041600015C080E10E94562090919802882341F06A
:1041700093FB222720F981E0822780FB93F904C07A
:10418000892F809580FB90F99093980280919802F6
:104190000E94C91D0E94D71D9093FB028093FA02D2
:1041A00080EE0E945620882341F08091FA02982FD9
:1041B000909590FB80F98093FA0289E30E94562043
:1041C000882359F08091FA0281FB222720F991E09F
:1041D000922790FB81F98093FA0282EE0E9456208A
:1041E000882359F08091FA0282FB222720F991E07E
:1041F000922790FB82F98093FA0286EE0E94562065
:10420000882359F08091FA0283FB222720F991E05C
:10421000922790FB83F98093FA0283EE0E94562046
:10422000882359F08091FA0284FB222720F991E03B
:10423000922790FB84F98093FA0285E30E9456202E
:10424000882359F08091FA0285FB222720F991E01A
:10425000922790FB85F98093FA0281E30E94562011
:10426000882359F08091FA0286FB222720F991E0F9
:10427000922790FB86F98093FA0281E10E945620F2
:10428000882359F08091FA0287FB222720F991E0D8
:10429000922790FB87F98093FA028091FA0290911D
:1042A000FB020E94E81D87E20E945620C82F8EE183
:1042B0000E9456208111C2608FE10E945620811118
:1042C000C46080E20E9456208111C86081E20E9491
:1042D00056208111C06182E20E9456208111C06285
:1042E00083E20E9456208111C06484E20E9456201D
:1042F000882311F0C06802C0CC2329F08C2F0E94C3
:10430000D21D6C2F03C00E94CE1D682F70E080E08C
:1043100090E00E942A1B60916B0270916C02809168
:104320006D0290916E020E94621B8FE00E945620E7
:10433000882319F081E00E94661E85E10E945620C4
:10434000882321F080E0CF910C94661ECF910895D0
:104350008091A00280FF0CC080911E0190E065E07A
:1043600070E00E94E92A95958795959587952EC0CE
:1043700081FF0AC080911E0190E065E070E00E941C
:10438000E92A9595879522C082FF08C080911E0179
:1043900090E065E070E00E94E92A18C020919F0239
:1043A0002223D9F030911D01231780F780911E013F
:1043B00090E065E070E00E94E92A622F70E00E94C0
:1043C000E92A632F70E00E94332BCB0180389105DE
:1043D00038F4009739F481E005C085E090E0089555
:1043E0008FE7089508958091A00280FF08C0609132
:1043F0001A0170E0759567957595679523C081FFE3
:1044000006C060911A0170E0759567951BC082FF28
:1044100004C060911A0170E012C060919E02662390
:10442000A9F0209119016217A0F780911A0170E09C
:1044300090E00E94E92A622F70E00E94332B6038DE
:10444000710540F46115710519F406C061E070E072
:10445000862F08958FE7089581E00895803F21F425
:104460000E94A821819504C0813F29F40E94A821BF
:104470008093A4020895823F21F40E94A82181958F
:1044800004C0833F29F40E94A8218093A3020895C9
:10449000893F19F40E94F32105C08A3F31F40E943C
:1044A000F32181958093A50208958B3F21F40E940A
:1044B000F321819504C08C3F29F40E94F32180935D
:1044C000A6020895843F21F48091A202816017C062
:1044D000853F21F48091A202826011C0863F21F4C1
:1044E0008091A20284600BC0873F21F48091A202D8
:1044F000886005C0883F31F48091A202806180937A
:10450000A20208958D3F21F48091A00281600BC02A
:104510008E3F21F48091A002826005C08F3F29F474
:104520008091A00284608093A0020895803F39F4B6
:104530008091A40287FF6AC01092A40267C0813FE5
:1045400029F48091A4021816BCF360C09091A302D4
:10455000823F29F497FF5AC01092A30257C0833FAD
:1045600019F41916CCF352C09091A502893F31F489
:1045700019160CF04BC01092A50248C08A3F19F4DE
:1045800097FF44C0F8CF8B3F39F48091A60287FF94
:104590003DC01092A6023AC08C3F29F48091A60239
:1045A0001816BCF333C0843F21F48091A2028E7FA1
:1045B00017C0853F21F48091A2028D7F11C0863FF4
:1045C00021F48091A2028B7F0BC0873F21F4809160
:1045D000A202877F05C0883F31F48091A2028F7EBE
:1045E0008093A20213C08D3F21F48091A0028E7FA0
:1045F0000BC08E3F21F48091A0028D7F05C08F3FBC
:1046000029F48091A0028B7F8093A0028091A30265
:10461000811106C08091A402811102C010929F02F4
:104620008091A502811106C08091A602811102C06D
:1046300010929E0208950E94B31F2091A30221119F
:1046400004C02091A402222321F090939D02809324
:104650009C022091A502211104C02091A6022223D0
:1046600021F090939B0280939A0281EA92E00C944D
:104670003D12EF92FF920F931F93CF93DF9300D0E1
:1046800000D000D0CDB7DEB786E0E1EAF2E0DE018F
:10469000119601900D928A95E1F7E090A302F090B7
:1046A000A4020091A5021091A6021092A3021092FA
:1046B000A4021092A5021092A602E11003C0FF20EE
:1046C00009F464C080919C0290919D020E94BF1FDA
:1046D000FC0120919F02222339F080911F0190E07C
:1046E0008E179F0760F052C08091200190E06AE031
:1046F00070E00E94E92A8E179F0718F047C02F3FED
:1047000019F02F5F20939F02EE2061F00E94A821F4
:10471000682F1E1414F08FEF01C081E00E94E02A80
:104720008093A302FF2061F00E94A821682F1F142C
:1047300014F08FEF01C081E00E94E02A8093A40270
:104740008091A302882311F12091A4022223F1F089
:10475000082E000C990B65EB70E00E94E92A992362
:1047600019F09093A30203C081E08093A302822FEB
:10477000220F990B65EB70E00E94E92A992319F04A
:104780009093A40203C081E08093A402011103C0AE
:10479000112309F464C080919A0290919B020E94B7
:1047A000BF1FFC0120919E02222339F080911B0142
:1047B00090E08E179F0760F052C080911C0190E03E
:1047C0006AE070E00E94E92A8E179F0718F047C040
:1047D0002F3F19F02F5F20939E02002361F00E946B
:1047E000F321682F101614F08FEF01C081E00E94B2
:1047F000E02A8093A502112361F00E94F321682F23
:10480000111614F08FEF01C081E00E94E02A80931E
:10481000A6028091A502882311F12091A6022223ED
:10482000F1F0082E000C990B65EB70E00E94E92A6C
:10483000992319F09093A50203C081E08093A5020B
:10484000822F220F990B65EB70E00E94E92A9923D1
:1048500019F09093A60203C081E08093A602809194
:10486000A30281110BC08091A402811107C0809125
:10487000A502811103C08091A60281110E941B2311
:10488000EB82FC820D831E8386E0FE013196A1EA55
:10489000B2E001900D928A95E1F726960FB6F89452
:1048A000DEBF0FBECDBFDF91CF911F910F91FF9063
:1048B000EF900895E1EAF2E086E0DF011D928A952B
:1048C000E9F710929F0210929E021092A0020895A2
:1048D0008091C7020895CF93DF9300D01F92CDB788
:1048E000DEB790910003943019F589837B836A8346
:1048F00082E08093E9008FEF9091E800815095FD70
:1049000006C095ED9A95F1F700008111F5CF8091E1
:10491000E80085FF0DC040E050E063E070E0CE01AC
:1049200001960E9483268091E8008E778093E800AC
:104930000F900F900F90DF91CF910895BC0184E00C
:104940000C946B24BC0183E00C946B2422E0209334
:10495000E9002FEF3091E800215035FD06C035ED1C
:104960003A95F1F700002111F5CF2091E80025FFDD
:104970000BC040E050E066E070E00E94832680912A
:10498000E8008E778093E8000895CF93DF9320911D
:104990002B01222339F02091FA0227FF03C060E2A5
:1049A00022E002C068E021E02093E9002FEF30917F
:1049B000E800215035FD06C035ED3A95F1F70000CD
:1049C0002111F5CF2091E80025FF1DC0EC01809159
:1049D0002B01811105C040E050E068E070E003C0A9
:1049E00070E040E050E0CE010E9483268091E80014
:1049F0008E778093E80080E2FE01A7EAB2E00190A2
:104A00000D928A95E1F7DF91CF9108950895089569
:104A10000C94791F42E061EC81E00E94872742E21A
:104A200061EC82E00C94872780910203833009F4C3
:104A30005CC030F4813071F0823009F495C0089583
:104A40008A3009F481C08B3009F467C0893009F0DD
:104A5000A3C020C080910103813A09F09DC08091DC
:104A6000E800877F8093E80080910503909106031A
:104A7000892B21F460E287EA92E003C060E080E0E5
:104A800090E070E00E94CE268091E8008B778093C2
:104A9000E800089580910103813209F07DC0809182
:104AA000050390910603029708F076C08091E80014
:104AB000877F8093E8008091E80082FD05C08091A7
:104AC00000038111F8CF68C08091F200823029F490
:104AD0008091F1008B7F813021F48091F1008093EF
:104AE000C7028091E8008B7753C080910103813A1F
:104AF00009F052C08091050390910603892B09F0BB
:104B00004BC08091E800877F8093E8008091E800A7
:104B100080FFFCCF80912B0136C080910103813250
:104B2000D9F58091050390910603892BA9F5809111
:104B3000E800877F8093E8000E94BC2780910303F0
:104B400080932B010C942D1780910103813221F564
:104B50008091E800877F8093E8000E94BC278091C5
:104B600004038093C802089580910103813AA1F45F
:104B70008091E800877F8093E8008091E80080FFC3
:104B8000FCCF8091C8028093F1008091E8008E777D
:104B90008093E8000C94BC27089584B7877F84BF76
:104BA0000FB6F894A89580916000886180936000AA
:104BB000109260000FBE90E080E80FB6F8948093EA
:104BC0006100909361000FBE0E9480120E940E2827
:104BD0000E9461288091E20084608093E2007894D2
:104BE0000E94C52A0E94881281E291E00E9412125E
:104BF00080910003853069F40E94471F8091FE0276
:104C00008823B1F30E942E1F882391F30E946D2602
:104C1000EFCF0E949212ECCF0C940E26292F33274F
:104C200023303105C9F060F42130310581F02230A4
:104C3000310509F04AC08BE390E022E336E049C039
:104C40002132310511F12232310579F13EC082E184
:104C500090E02DE636E03DC099278130910561F066
:104C600040F08230910559F0039779F5E6E0F6E0DF
:104C700008C0EEE2F6E005C0ECE1F6E002C0ECE0D0
:104C8000F6E0849190E09F0124C06115710541F028
:104C900061307105D1F489E090E02DE536E019C06E
:104CA00089E090E024E436E014C06115710541F01C
:104CB0006130710551F48CEB90E02FE736E009C0CC
:104CC00080E490E02BE337E004C080E090E020E057
:104CD00030E0FA0131832083089584E089BD86E0C5
:104CE00089BD09B400FEFDCF8091D8008F7D8093EF
:104CF000D8008091E00082608093E0008091E00025
:104D000081FDFCCF0895CF92DF92EF92FF920F9337
:104D10001F93CF93DF93EC018B017A010E94DB2775
:104D2000811133C0E114F10439F0F70180819181E0
:104D3000081B190BC80FD91FC12CD12C0115110547
:104D400019F18091E80085FD16C08091E8008E770A
:104D50008093E800E114F10449F0F701808191812A
:104D6000C80ED91ED182C08285E00FC00E94DB2709
:104D7000882321F30AC089918093F1000150110921
:104D8000FFEFCF1ADF0ADACF80E0DF91CF911F91DA
:104D90000F91FF90EF90DF90CF900895209107033F
:104DA000309108032617370748F06115710539F46B
:104DB0002091E8002E772093E80001C0B901FC01A2
:104DC00020E06115710561F1809100038823D9F11C
:104DD0008530D9F18091E80083FD39C08091E800E9
:104DE00082FD2BC08091E80080FFEBCF8091F20024
:104DF00090E06115710551F08830910538F42191EA
:104E00002093F100615071090196F3CF21E00897DA
:104E100009F020E08091E8008E778093E800D1CF00
:104E20002111D2CF0AC080910003882361F0853020
:104E300061F08091E80083FD0AC08091E80082FF64
:104E4000F2CF80E0089582E0089583E0089581E044
:104E5000089520910703309108032617370748F07B
:104E60006115710539F42091E8002E772093E80050
:104E700001C0B901FC0120E06115710579F1809153
:104E80000003882309F43DC0853009F43CC08091BB
:104E9000E80083FD3AC08091E80082FD2CC080913B
:104EA000E80080FFE9CF8091F20090E06115710584
:104EB00059F08830910540F424912093F100319607
:104EC000615071090196F2CF21E0089709F020E0C6
:104ED0008091E8008E778093E800CECF2111CFCF6C
:104EE0000AC080910003882361F0853061F08091D1
:104EF000E80083FD0AC08091E80082FFF2CF80E0E5
:104F0000089582E0089583E0089581E00895982F40
:104F1000953068F59093E900981739F07091EC009E
:104F20002091ED005091F00003C0242F762F50E027
:104F300021FD02C09F5FECCF3091EB003E7F3093AC
:104F4000EB003091ED003D7F3093ED003091EB00B0
:104F500031603093EB007093EC002093ED005093A0
:104F6000F0002091EE0027FDE5CF80E008958F70DE
:104F70008093E90081E008958091010387FF11C0CB
:104F80008091E80082FD05C0809100038111F8CF77
:104F900011C08091E8008B770BC0809100038823BB
:104FA00049F08091E80080FFF8CF8091E8008E778B
:104FB0008093E80008952091E4003091E50095E6A3
:104FC0004091EC00842F817040FF23C08091E80065
:104FD00080FD1DC080910003882399F0853099F0F1
:104FE0008091EB0085FD11C04091E4005091E500F7
:104FF0002417350729F3915011F09A01E1CF84E08D
:10500000089582E0089583E0089581E0089580E0A6
:1050100008954091E80042FFDDCF08950E946B287B
:105020000E946E28E0EEF0E0808181608083E8EDF0
:10503000F0E080818F77808319BCE3E6F0E0808127
:10504000816080831092FF0208950E946B280E9465
:105050006E288091D8008F778093D8008091D800F7
:1050600080688093D8008091D8008F7D8093D8008D
:1050700084E089BD86E089BD09B400FEFDCF1092B1
:1050800000031092FC021092FE021092FD0242E018
:1050900060E080E00E9487278091E1008E7F80930E
:1050A000E1008091E20081608093E2008091E20063
:1050B00088608093E2008091E0008E7F8093E00022
:1050C0000895E3E6F0E080818E7F808381E0809325
:1050D000FF020C9425281092E20008951092E1003E
:1050E00008951F920F920FB60F9211242F933F93A2
:1050F0004F935F936F937F938F939F93AF93BF93E0
:10510000EF93FF938091E10082FF0BC08091E2005A
:1051100082FF07C08091E1008B7F8093E1000E94B5
:10512000C42A8091E10080FF19C08091E20080FFD5
:1051300015C08091E2008E7F8093E2008091E200B2
:1051400080618093E2008091D80080628093D800D3
:1051500019BC85E0809300030E9407258091E1003F
:1051600084FF30C08091E20084FF2CC084E089BDC0
:1051700086E089BD09B400FEFDCF8091D8008F7D07
:105180008093D8008091E1008F7E8093E100809130
:10519000E2008F7E8093E2008091E2008160809344
:1051A000E2008091FC02882311F084E007C0809126
:1051B000E30087FD02C081E001C083E0809300032B
:1051C0000E9408258091E10083FF29C08091E200C0
:1051D00083FF25C08091E100877F8093E10082E01A
:1051E000809300031092FC028091E1008E7F8093F7
:1051F000E1008091E2008E7F8093E2008091E200E6
:1052000080618093E20042E060E080E00E948727B6
:105210008091F00088608093F0000E940625FF9145
:10522000EF91BF91AF919F918F917F916F915F911E
:105230004F913F912F910F900FBE0F901F90189597
:105240001F920F920FB60F9211242F933F934F93FB
:105250005F936F937F938F939F93AF93BF93CF93FE
:10526000DF93EF93FF93C091E900CF708091EC0042
:10527000D82FD17080FDD0E81092E9008091F00025
:10528000877F8093F00078940E9464291092E9004F
:105290008091F00088608093F000CD2BCF70C09398
:1052A000E900FF91EF91DF91CF91BF91AF919F9175
:1052B0008F917F916F915F914F913F912F910F90BF
:1052C0000FBE0F901F9018951F93CF93DF93CDB70C
:1052D000DEB7AA970FB6F894DEBF0FBECDBFE1E0F0
:1052E000F3E08091F100819323E0E930F207C9F700
:1052F0000E9414258091E80083FF2EC18091010354
:1053000090910203492F50E04A30510508F024C122
:10531000FA01E459FF4F0C94692B803821F0823850
:1053200009F01AC108C08091FD029091FE029923F4
:1053300089F082600FC0809105038F70853008F07E
:105340000BC18093E9008091EB0085FB882780F9F1
:105350001092E9009091E800977F9093E800809385
:10536000F1001092F100D1C0282F2D7F09F0F4C078
:10537000882319F0823061F0EFC0809103038130FF
:1053800009F0EAC0933009F080E08093FE022EC05D
:105390008091030381112AC0809105038F702FEF44
:1053A000280F243008F0D8C08093E9002091EB004A
:1053B00020FF1CC0933021F48091EB00806214C068
:1053C0009091EB0090619093EB0021E030E0A90117
:1053D00002C0440F551F8A95E2F74093EA001092ED
:1053E000EA008091EB0088608093EB001092E90066
:1053F0008091E800877F8093E8000E94BC27ACC0C2
:105400008111AAC0109103031F778091E300807877
:10541000812B8093E3008091E800877F8093E800F0
:105420000E94BC278091E80080FFFCCF8091E300C0
:1054300080688093E300111102C082E001C083E024
:105440008093000389C08058823008F085C0809125
:105450000303909104038C3D53E0950779F583E0B5
:105460008A838AE289834FB7F894DE01139620E09D
:105470003EE051E2E32FF0E050935700E49120FF2B
:1054800003C0E295EF703F5FEF708E2F90E0EA303F
:1054900010F0C79601C0C0968D939D932F5F243165
:1054A00049F74FBF8091E800877F8093E8006AE268
:1054B00070E0CE0101960E94CE2616C060910503D1
:1054C00070910603AE014F5F5F4F0E940C26BC0136
:1054D000892B09F441C09091E800977F9093E800F0
:1054E00089819A810E9429278091E8008B77809397
:1054F000E80032C0803881F58091E800877F809392
:10550000E8008091FC028093F1008091E8008E77A2
:1055100072CF811121C080910303909104039927D8
:105520000297D4F48091E800877F8093E80080910F
:1055300003038093FC020E94BC278091FC0281112E
:1055400006C08091E30087FD02C081E001C084E0D5
:10555000809300030E940A258091E80083FF0AC01F
:105560008091E800877F8093E8008091EB00806263
:105570008093EB00AA960FB6F894DEBF0FBECDBFA6
:10558000DF91CF911F9108950895CF9380910003EB
:105590008823A1F0C091E900CF709091EC00892F91
:1055A000817090FD80E8C82B1092E9008091E8009E
:1055B00083FD0E946429CF70C093E900CF910895C4
:1055C000002480FD060E660F11F08695D1F7802D20
:1055D00008950024552704C0080E591F880F991FED
:1055E000009729F076956795B8F37105B9F7802D86
:1055F000952F0895EE27FF27AA27BB2708C0A20FE3
:10560000B31FE41FF51F220F331F441F551F96952C
:1056100087957795679598F37040A9F7009799F764
:10562000BD01CF010895991B79E004C0991F961719
:1056300008F0961B881F7A95C9F780950895AA1BD4
:10564000BB1B51E107C0AA1FBB1FA617B70710F06D
:10565000A61BB70B881F991F5A95A9F7809590959F
:10566000BC01CD01089597FB072E16F4009407D0D6
:1056700077FD09D00E941F2B07FC05D03EF49095C2
:1056800081959F4F0895709561957F4F0895A1E290
:105690001A2EAA1BBB1BFD010DC0AA1FBB1FEE1FAC
:1056A000FF1FA217B307E407F50720F0A21BB30BF7
:1056B000E40BF50B661F771F881F991F1A9469F773
:1056C00060957095809590959B01AC01BD01CF01CF
:1056D0000895EE0FFF1F0590F491E02D09948F922D
:1056E0009F92AF92BF92CF92DF92EF92FF92CF93B1
:1056F000DF93EC01688179818A819B816115710555
:105700008105910521F464E279ED8BE597E02DE1C7
:1057100033EF41E050E00E94222C49015A0127EA70
:1057200031E440E050E00E94FA2A6B017C012CEE4B
:1057300034EF4FEF5FEFC501B4010E94FA2ADC019C
:10574000CB018C0D9D1DAE1DBF1DB7FF03C0019782
:10575000A109B04888839983AA83BB839F77DF918F
:10576000CF91FF90EF90DF90CF90BF90AF909F9040
:105770008F9008950E946F2B089580E091E00E9421
:105780006F2B0895A0E0B0E0809300019093010199
:10579000A0930201B09303010895FC0141505040D1
:1057A00030F001900616D1F73197CF010895882780
:1057B00099270895F999FECF92BD81BDF89A99274E
:1057C00080B50895A6E1B0E044E050E00C94142CBC
:1057D000A8E1B0E042E050E00C94142C262FF99997
:1057E000FECF92BD81BDF89A019700B4021639F040
:1057F0001FBA20BD0FB6F894FA9AF99A0FBE089511
:105800000396272F0E94EF2B0E94EE2B252F0E943C
:10581000EF2B242F0C94EF2B0196272F0E94EF2BB8
:105820000C94EE2BDC01CB01FC01F999FECF06C0F4
:10583000F2BDE1BDF89A319600B40D92415050404E
:10584000B8F70895052E97FB1EF400940E94392C9A
:1058500057FD07D00E94472B07FC03D04EF40C9451
:10586000392C50954095309521953F4F4F4F5F4FC4
:10587000089590958095709561957F4F8F4F9F4FBC
:065880000895F894FFCF2B
:1058860001000000010102000800080801191A1BA6
:105896001C1D1E1F20212275022808641E140A32B0
:1058A6001E6824C524A624A2249E2401E200E90041
:1058B600EA00B500B600B700CD008301CC008A012E
:1058C60092019401210223022402250226022702C4
:1058D6002A02B300B4006F007000818283646537CA
:1058E60036353433323130969591929394000102D5
:1058F6000202020606060909090909090F0F0F0F18
:105906000F0F151515181919191919191919191922
:105916002324252525252525E200E900EA00B500F2
:10592600B600B700CD008301CC008A019201940134
:105936002102230224022502260227022A02B3009C
:0A594600B4006F007000818283003E
:00000001FF
