:100000000C9452020C946F020C946F020C946F02C9
:100010000C946F020C946F020C946F020C946F029C
:100020000C946F020C946F020C94B3170C946F171E
:100030000C94B0180C946F020C946F020C946F0225
:100040000C946F020C946F020C946F020C946F026C
:100050000C946F020C948C180C946F020C946F0229
:100060000C946F020C946F020C946F020C946F024C
:100070000C946F020C946F020C946F020C946F023C
:100080000C946F020C946F020C946F020C946F022C
:100090000C946F020C946F020C946F020C946F021C
:1000A0000C946F020C946F020C946F0214001A00EF
:1000B000090013000A000D000F0018001C002A00A0
:1000C000040015001600170007000B0011000800BF
:1000D0000C0012001D221B000600190005000E0076
:1000E0001000360037003832000000000057E200F0
:1000F0002C282B4128420057000000002D022D0023
:100100002E022E0033023500BC00AE00BB004C00B6
:100110002F0226022702300231022900500052002D
:1001200051004F002F2234003402300033003502DA
:10013000AA00A800A9003132000000000057E20028
:100140002C28010001000057000000001E021F02C1
:1001500020022102220223022402250239002A0061
:100160001E001F0020002100220023002400250083
:1001700026002700E10000000000000023520000DC
:100180000000360037003832000000000057E2005F
:100190002C280100010000570000000000000000B2
:1001A00000000000000000000000000000000452F9
:1001B0003A003B003C003D003E003F004000410053
:1001C00042004300440000000000007C01000000E9
:1001D0000000000000004500000000000057E200A1
:1001E0002C280100010000570000000014001A0034
:1001F000090013000A000D000F0018001C002A005F
:10020000040015001600170007000B00110008007D
:100210000C0012001D221B000600190005000E0034
:100220001000360037003832000000000157E000AF
:100230002C002B4528460157000000002D022D0000
:100240002E022E0033023500BC00AE00BB004C0075
:100250002F022602270230023102290050005200EC
:1002600051004F002F223400340230003300350299
:10027000AA00A800A9003132000000000157E000E8
:100280002C00010001000157000000001E021F02A7
:1002900020022102220223022402250239002A0020
:1002A0001E001F0020002100220023002400250042
:1002B00026002700E1000000000000002752000097
:1002C0000000360037003832000000000157E0001F
:1002D0002C00010001000157000000000000000098
:1002E00000000000000000000000000000000052BC
:1002F0003A003B003C003D003E003F004000410012
:1003000042004300440000000000007C01000000A7
:100310000000000000004500000000000157E00060
:100320002C00010001000157000000000501090236
:10033000A10185020901A10005091901290815007B
:1003400025019508750181020501093009311581E2
:10035000257F95027508810609381581257F95014D
:1003600075088106050C0A38021581257F950175EF
:10037000088106C0C005010980A101850319012A71
:10038000B700150126B700950175108100C0050C56
:100390000901A101850419012AA002150126A00264
:1003A000950175108100C005010906A101850605AA
:1003B0000719E029E7150025019508750181020557
:1003C00007190029EF1500250195F0750181020537
:1003D000081901290595057501910295017503918B
:1003E00001C005010906A101050719E029E715006B
:1003F00025019508750181029501750881010507A0
:10040000190029FF150026FF0095067508810005D3
:10041000081901290595057501910295017503914A
:1004200001C009023B00020100A0FA09040000011A
:10043000030101000921110100012240000705818B
:100440000308000109040100010300000009211153
:1004500001000122B60007058203200001120100FD
:1004600002000000084B53090000010102000114C2
:1004700003530063006F00740074006F0046006C4B
:1004800000790000001803530063006F00740074CB
:10049000006F004B006500650062007300000004FF
:1004A0000309040011241FBECFEFDAE0DEBFCDBF89
:1004B00011E0A0E0B1E0ECECF9E302C005900D9290
:1004C000AE36B107D9F722E0AEE6B1E001C01D9229
:1004D000AE37B207E1F70E94D7180C94A51C0C9414
:1004E0000000883222E4920771F050F48C3228E246
:1004F000920749F08B32914431F087E890E00895FB
:1005000097550297D0F788EC90E00895482F2091F6
:100510007D029091440257E0291302C080E00895C3
:1005200030E0529FF001539FF00D1124EB5BFD4F23
:100530008181681306C08081481303C085818111C1
:10054000EECF2F5F3F4F2770E7CFE8EDF0E08081DF
:100550008E7F80831092E2001092DA001092E10008
:10056000A0EEB0E08C9181608C9380818F77808346
:1005700019BCA7EDB0E08C918E7F8C9380818F7E2B
:1005800080831092150208952091E4003091E500D7
:1005900095E6A9012091EC00822F817020FF06C012
:1005A0008091E80080FF06C080E008952091E80077
:1005B00022FD1AC080913A02882389F0853089F0A3
:1005C0008091EB0085FD0FC02091E4003091E500A3
:1005D00042175307F9F29150E1F684E0089582E062
:1005E000089583E0089581E0089580913C0287FF9B
:1005F00013C08091E80082FF06C08091E8008B77ED
:100600008093E80004C080913A028111F2CF0895EE
:1006100080913A028823D9F38091E80080FFF8CFD7
:100620008091E8008E77ECCF982F9093E900242FEB
:10063000762F50E0891731F07091EC002091ED0099
:100640005091F00021FD07C09F5F973071F78093B4
:10065000E90081E008953091EB003E7F3093EB009C
:100660003091ED003D7F3093ED003091EB00316033
:100670003093EB007093EC002093ED005093F0006A
:100680002091EE0027FDE0CF80E00895B0E0A0E0EB
:10069000ECE4F3E00C94051CC8EDD0E088818F7E7B
:1006A0008883E7EDF0E080818160808384E082BF11
:1006B00081E08093150288818E7F888302EE10E0AE
:1006C000F80110821092DA0081EEC82ED12CF601CA
:1006D000108288818F778883888180688883888169
:1006E0008F7D888319BC10923A0210923B021092BF
:1006F00039021092380290EEE92EF12CF701808138
:100700008B7F808388818160888342E060E080E025
:100710000E941403F60180818E7F8083F80180811E
:1007200081608083808188608083F70180818E7FF3
:100730008083888180618883CDB7DEB7E8E00C9440
:10074000211CFC0180914202909143028617970779
:10075000A0F06115710529F49091E8009E779093BF
:10076000E80090E06115710551F4911108C0809185
:10077000E80082FF34C080E00895BC01F2CF809190
:100780003A028823C1F18530C1F18091E80083FDF0
:1007900030C08091E80082FDEACF8091E80080FFC0
:1007A000E1CF8091F3002091F200382F611571059F
:1007B00019F02830310558F091E02830310509F062
:1007C00090E02091E8002E772093E800CBCF819134
:1007D0008093F100615071092F5F3F4FE7CF809107
:1007E0003A02882341F0853041F08091E80083FF90
:1007F000BECF81E0089582E0089583E0089580915E
:100800001702089587E797E79093010880930008FF
:1008100088E19AE00FB6F894A895809360000FBE27
:1008200090936000FFCF9C014FB7F89480910F0226
:1008300090911002A0911102B09112024FBF821B41
:10084000930B08952FB7F89480910F0290911002A6
:10085000A0911102B09112022FBF0895209126019C
:100860002223C9F02091130227FF15C0E62FE69539
:10087000E695E695EE31D8F4E80FF92FF11D677093
:1008800021E030E001C0220F6A95EAF720958281CD
:10089000282322830895FC01329608962191621341
:1008A00003C0DF0111971C92E817F907B9F7089503
:1008B000209126012223C1F02091130227FF14C0AA
:1008C000E62FE695E695E695EE31F8F4E80FF92F78
:1008D000F11D677021E030E001C0220F6A95EAF750
:1008E0008281822B82830895FC0132962FEF30E0C3
:1008F0004191641751F02F3F19F4411101C0232F8A
:100900003F5F3630A9F72F3F09F40895820F911DFC
:1009100027FD9A95FC0162830895A3E0B0E0E3E926
:10092000F4E00C940B1C20910C0230910D0228175E
:100930003907A1F090930D0280930C02E0910A0216
:10094000F0910B02309751F024E029839B838A8336
:100950000680F781E02DCE01019609952396E2E00D
:100960000C94271CA3E0B0E0E8EBF4E00C940B1C23
:10097000209108023091090228173907A1F09093BD
:10098000090280930802E0910A02F0910B0230976D
:1009900051F023E029839B838A830680F781E02D31
:1009A000CE01019609952396E2E00C94271CE09174
:1009B0000A02F0910B02309729F00190F081E02DAE
:1009C0000995089580E008950E9422049C01909169
:1009D000FD018091FE01982B21F03093FA012093C4
:1009E000F9019091FF0180910002982B21F0309342
:1009F000F8012093F701E0910A02F0910B02309781
:100A000049F082E08093FB010480F581E02D8BEFBB
:100A100091E0099508958091F60180FD16C081FD51
:100A200016C082FD16C08091F5018823A1F088329E
:100A300080F428E0829FC001112468E270E00E94E7
:100A4000E11B862F672B39F0089582E0089584E03A
:100A5000089588E0089581E008958091F60180FD71
:100A600014C081FD14C082FD16C08091F40188235A
:100A700081F08E3180F420E5829FC00111246EE167
:100A800070E00E94E11B862F089584E1089588E2BA
:100A9000089588E0089580E5089580E00895F89429
:100AA000E82FE295EF70F0E031A1282F2F7081E060
:100AB00090E001C0880F2A95EAF7982F909593232C
:100AC00091A392A1892B82A3789408959091130207
:100AD00092FF06C0282F28712830F9F4877F8460A0
:100AE00093FF06C0282F28712831F1F4877E846196
:100AF0002091140220FF06C0382F38713830D9F405
:100B0000877F816021FF06C0282F28712831D1F40A
:100B1000877E816194FD877E0895282F247124307B
:100B2000F9F68B7F8860DCCF282F2471243101F700
:100B30008B7E8861DDCF382F3171313019F78E7F90
:100B40008860E0CF282F2171213121F78E7E8861C6
:100B5000E1CF82389105B9F1B0F48133910509F400
:100B60007DC048F48932910509F46DC08A3291053F
:100B700009F47BC008958533910509F45FC089337A
:100B8000910509F10895833E9105D9F138F4803E2D
:100B9000910529F1823E910579F10895863E9105EE
:100BA000D9F1873E910509F43EC0843E910541F597
:100BB0002091140221FF24C08091130284FD19C0EA
:100BC00087EE90E0089520911302237009F05AC037
:100BD0002091140223FF14C089E290E0089520912F
:100BE000130220FD38C03091140230FF09C024FFE9
:100BF00043C090E080E008952091130222FDF7CFDA
:100C000008952091130222FD3AC03091140230FD64
:100C100039C024FFF5CFEDCF2091130223FFF0CF91
:100C200024FDE7CFCDCF2091130223FD2EC03091BC
:100C3000140231FFEECF84EE90E00895209113026C
:100C400025FFDECFC9CF2091130225FD21C02091C1
:100C5000140223FFD5CF89E390E0D2CF2091130275
:100C600026FFCECF8AE290E008952091130226FF5E
:100C7000C7CF81E390E0089583EE90E0089582EE7F
:100C800090E0089580EE90E0089586EE90E008955B
:100C900085E390E00895972F7430B8F46A30A8F493
:100CA0008830B0F470E02AE0929F600D711D11242D
:100CB000FB0198E2899FE00DF11D1124EE0FFF1F4B
:100CC000E455FF4F85919491089580E090E0089558
:100CD00081E0FCCF1F93CF93DF930E94A905EC0125
:100CE000C11580E5D807F0F5C11580E4D80708F0F4
:100CF0009CC0C03ED10520F5CD3CD10508F082C096
:100D0000C83AD10578F4C53AD10508F073C0C130AE
:100D1000D10519F1209709F1C430D105F0F4D0E0E4
:100D2000C0E01BC0C33CD105D0F7C85AD0E0CC0FFF
:100D3000DD1FC65DDE4F0990D881C02DD4640DC083
:100D4000C11580E2D80708F0D1C0C11581E0D807ED
:100D500008F05AC0C83ED10510F7CE01DF91CF91FF
:100D60001F910895C03682E5D80718F5C03482E592
:100D7000D80708F06BC0C03282E5D80708F05FC022
:100D8000C11582E5D80708F497C02C2F2695269523
:100D900080E2289F900111248C2F8370C1E0D0E065
:100DA00002C0CC0FDD1F8A95E2F7C22BD32BDD6882
:100DB000D4CFC03A82E5D80760F4C03882E5D807BE
:100DC00008F459C0CF71D0E0DC2FCC27C46FD06AB3
:100DD000C4CFC03C82E5D80708F462C0C03E82E5BB
:100DE000D80708F09CCFDC2FCC27CC27DF71C06F51
:100DF000D06AB3CFC55AD0E0C95DDE4FC881D0E01C
:100E0000D064ABCFD065A9CF8D2F0E946605182F77
:100E1000CE0199270E94A905C12FD0E0DC2FCC2755
:100E2000CC27DF71C82BD92B98CFCE0199270E94F0
:100E3000A905CC27DF70C82BD92BD06A8ECFCF71F4
:100E4000D0E0DC2FCC27C16FD06A87CF2C2F26951E
:100E50002695277080E2289F900111248C2F8370A3
:100E6000C1E0D0E002C0CC0FDD1F8A95E2F7C22BB3
:100E7000D32BDC6872CF2C2F26952695277080E225
:100E8000289F900111248C2F8370C1E0D0E002C014
:100E9000CC0FDD1F8A95E2F7C22BD32BDA685DCF2A
:100EA0008C2F8F710E946605C82FD0E0DC2FCC27D5
:100EB000CC27DF71D06251CF8C2F8F710E946605D5
:100EC00055E0D695C7955A95E1F7CF70D0E0DC2F65
:100ED000CC27282F30E084FF05C044E0220F331FC9
:100EE0004A95E1F7C22BD32BD06937CF8D2F8F7165
:100EF0000E946605182FCE0199270E94A905C12FCF
:100F0000D0E0DC2FCC27CC27DF71C82BD92BD2CF58
:100F100080959091040298239093040208958095FF
:100F200090910502982390930502089580917D0287
:100F300090914402981301C008958F5F8770FACF93
:100F4000B0E0A0E0E6EAF7E00C94041C7C0100911C
:100F5000DE011091DF018091DC019091DD01082B11
:100F6000192BCFE0D0E0CC24C394D12CBC2EC601E9
:100F70000C2E02C0880F991F0A94E2F78023912358
:100F8000892B49F4219790F7B12C8B2DCDB7DEB783
:100F9000E9E00C94201CB7018C2F0E944B060E94A4
:100FA0006A06019779F3F1CFCF93DF93EC010E94AA
:100FB000A007BE010E944B060E946A06DF91CF91F6
:100FC0000895943078F58A3068F5E82FF0E08AE0EB
:100FD000989FE00DF11D11249E2F977083E0F695E8
:100FE000E7958A95E1F7EE0FFF1FEE0FFF1FEE5614
:100FF000FE4F50E040E080E0219130E0092E02C039
:10100000369527950A94E2F721703327042E01C004
:10101000220F0A94EAF7822B4F5F5F4F443051054D
:1010200059F7089580E00895943098F58A3088F54E
:10103000E82FF0E08AE0989FE00DF11D11248E2F3B
:10104000877041E001C0440F8A95EAF783E0F69586
:10105000E7958A95E1F7EE0FFF1FEE0FFF1FEE56A3
:10106000FE4F30E020E070E05191DF011197CB019D
:10107000022E02C0969587950A94E2F781708195B9
:101080008527842385278C932F5F3F4F243031059C
:1010900059F708959093DF018093DE01089521E0D0
:1010A00030E002C0220F331F8A95E2F72095309579
:1010B0008091DE019091DF01822393230E944A08F0
:1010C00008959091AD01809589238093AD01282FDB
:1010D000277069F4891759F09091140292FF07C0A4
:1010E0008695869586950E944F081092AD010895C9
:1010F00021E030E002C0220F331F8A95E2F7809191
:10110000DE019091DF01822B932B0E944A08089503
:101110009093DD018093DC010895FC01248122235A
:10112000C1F0808191810E94D40792959F70963082
:1011300091F058F4925F9F70923058F4803F19F00C
:1011400030F4883E30F481E008959A5FF4CF843F14
:10115000D1F380E00895883EB0F3813FD1F7F3CF1B
:10116000662309F45DC08D3C41F40E942D058195F4
:101170008093FE010E94E40408958E3C19F40E94BD
:101180002D05F6CF8F3C31F40E942D05819580937B
:10119000FD01F0CF803D19F40E942D05F8CF893D67
:1011A00029F40E940B058093FF01E4CF8A3D21F4CE
:1011B0000E940B058195F7CF8B3D31F40E940B0502
:1011C000819580930002D6CF8C3D19F40E940B05C7
:1011D000F8CF9FE2980F983070F4815D990B21E071
:1011E00030E001C0220F8A95EAF78091FC01822B42
:1011F0008093FC01BFCF8D3D31F48091F601816079
:101200008093F601B7CF8E3D21F48091F601826084
:10121000F7CF8F3D09F0AECF8091F6018460F0CF1B
:101220004091FD018D3C59F48091FE0187FF0DC076
:101230001092FE0141110BC01092F40108C08E3CC7
:1012400081F48091FE0118169CF3442381F0809173
:10125000FF0190910002892B09F08CCF1092F501CB
:1012600089CF8F3C49F447FFF0CF1092FD01809168
:10127000FE018111ECCFE0CF803D19F41416ACF3E0
:10128000E4CF9091FF01893D29F41916F4F61092EC
:10129000FF01DBCF8A3D19F497FFD7CFF8CF9091AC
:1012A00000028B3D29F497FFD0CF10920002CDCFE2
:1012B0008C3D19F41916CCF3C8CF9FE2980F9830E3
:1012C00090F4815D990B21E030E0B90102C0660F16
:1012D000771F8A95E2F7CB0180959091FC018923D5
:1012E0008093FC01B2CF8D3D31F48091F6018E7F69
:1012F0008093F601AACF8E3D21F48091F6018D7F77
:10130000F7CF8F3D09F0A1CF8091F6018B7FF0CF11
:10131000A6E0B0E0EEE8F9E00C940A1C26E0FC013F
:10132000DE01119601900D922A95E1F7FC012581CD
:1013300089819A81222399F0662389F00E94A0076F
:10134000182F682F89819A810E94140869817A81F7
:10135000812F0E944B062696E3E00C94261C0E94E7
:10136000E107182FF3CF892F817088600895FC0161
:101370009281913039F4858182FD0AC080FF08C0D6
:1013800082E00895923031F0933031F485E0089591
:1013900083E0089584E0089581E008950F931F93FA
:1013A000CF93DF938B01EA0190913A02943061F57B
:1013B0008093E9008FEF9091E800815095FD06C081
:1013C00095ED9A95F1F700008111F5CF8091E80035
:1013D00085FF1AC00E94C402811111C08091E800EB
:1013E00085FD06C08091E8008E778093E800F2CFFB
:1013F000F80181918F018093F100219779F7809115
:10140000E8008E778093E800DF91CF911F910F91D4
:10141000089543E050E0BC0182E00E94CE090895A7
:1014200046E050E0BC0182E00E94CE090895CF93CF
:10143000DF93EC0180912601811111C048E050E05A
:10144000BE0181E00E94CE0980E2FE01A8E1B2E087
:1014500001900D928A95E1F7DF91CF9108958091E7
:10146000130287FF05C040E282E050E0BE01EACFF0
:1014700048E081E0FACF8091050290910402892B27
:10148000809370019091CE019923A1F0892B8093D4
:101490007001809126018823E1F18091130287FF7A
:1014A00038C08EE1E2E7F1E090E08150A0F59111C3
:1014B0001092CE0140E250E06EEA71E080E791E0E8
:1014C0000E94981C892B21F180E2E0E7F1E0AEEA6E
:1014D000B1E001900D928A95E1F7E0910A02F09156
:1014E0000B023097A9F080912601882359F0809152
:1014F000130287FF07C0809170018093710186E01D
:10150000809370010280F381E02D80E791E00995DE
:10151000089586E0C7CF2191222339F29F5FC5CF7E
:10152000CF93DF93EC01EA85FB85309719F06C854A
:101530007D8509958B810E9488078C810E948F0789
:101540000E943B0A86E0FE0111928A95E9F7DF913D
:10155000CF910895CF93DF93EC018D8181FD18C069
:1015600082608D83809104029B81892B8093040289
:10157000809105029C81892B809305020E943B0A81
:10158000E885F985309721F06C857D85CE01099538
:1015900010920702109206028D8180FD03C0CE01D9
:1015A0000E94900ADF91CF910895882321F00E9434
:1015B00088070E943B0A0895882339F0909104021D
:1015C000982B909304020E943B0A0895882321F0EF
:1015D0000E948F070E943B0A0895882339F090915A
:1015E0000502982B909305020E943B0A08958823D8
:1015F00099F19CEF980F913A40F4682F80E791E0C1
:101600000E942E040E943B0A089590E2980F9830A1
:1016100050F4877091E001C0990F8A95EAF7892FFD
:101620000E948F07EFCF9BE5980F933028F490E04E
:1016300080E00E94B204089598E5980F9B3128F449
:1016400090E080E00E948D04089593E3980F933119
:1016500018F460E00E94B008089580910101823082
:1016600041F0833019F489E20E94F70A10920101D7
:10167000089582EEF9CF80910101823041F08330EC
:1016800019F489E20E94F70A10920101089580EE90
:10169000F9CFCF93C82F8823D9F18CEF8C0F813AE3
:1016A000C8F580912601882311F18091130287FFEC
:1016B0001EC0EC2FE695E695E695F0E0E059FE4F6A
:1016C000828190E04C2F477021E030E002C0220F71
:1016D000331F4A95E2F782239323892B91F06C2FD5
:1016E00080E791E00E942E040E943B0A0AC0E2E7D4
:1016F000F1E088E791E02191C21789F38E179F07E7
:10170000D1F76C2F80E791E00E9458040E943B0AB9
:10171000CF91089580E28C0F883068F4C77021E083
:1017200030E001C0220FCA95EAF780910502822BB2
:1017300080930502EBCFEBE5EC0FE33040F4F0E0F3
:10174000E95DFE4F808190E00E94B204E1CFE8E5C0
:10175000EC0FEB3150F4F0E0EE0FFF1FE65DFE4FB3
:10176000808191810E948D04D3CF83E38C0F8331DC
:1017700078F661E08C2F0E94B008CACFB0E0A0E0FC
:10178000E4ECFBE00C94051C6B01C42FD22FFC0190
:1017900085818823A9F0409303020E94220490933C
:1017A000020280930102C77081E001C0880FCA95D0
:1017B000EAF70E94ED0ACDB7DEB7E8E00C94211CF1
:1017C0001091030214133AC0809101029091020219
:1017D0000E9413047C01C6010E947102E816F906FA
:1017E00068F5C0E2CD0F1D17C1F080E2810F88308F
:1017F00048F4177081E0012E01C0880F0A94EAF7BF
:101800000E94E60AC83048F481E09D2F977001C01D
:10181000880F9A95EAF70E94ED0A802F0E94490BE3
:10182000802F0E94F70AC83030F6D77081E001C0DF
:10183000880FDA95EAF70E94E60ABDCFC77081E00B
:1018400001C0880FCA95EAF7F6CF0F931F93CF9385
:10185000DF93C82F8B010E94B309D82F0E94DC0AA6
:101860008C2F0E94490B0115110559F48C2F0E94F1
:10187000F70A8D2F0E94D50ADF91CF911F910F910A
:1018800008958FE99FE00197F1F700C00000015033
:101890001109E9CF0E94B70980930101833049F013
:1018A00018F4823051F00895843049F0853071F099
:1018B000089589E20E94490B089582EEFBCF83EEE2
:1018C0000E94490B83EE0E94F70A089570E060E0E1
:1018D00087E398E00E94250C08950E94B709809341
:1018E0000101833049F018F4823051F008958430BA
:1018F00049F0853071F0089589E20E94490B0895FE
:1019000080EEFBCF70E060E08CE298E00E94250C56
:10191000089570E060E08CE299E0F8CF90911402B5
:1019200092FB222720F9281779F080FB92F99093F7
:101930001402609113027091140284E090E00E94FE
:10194000821C82E00E946108089510920502809135
:101950002601E2E7F1E0882329F18091130287FF55
:1019600021C08EE1DF011D928A95E9F790E080E0C9
:101970000E94B20490E080E00E948D041092040264
:101980000E943B0A86E0EBEFF1E0DF011D928A95B1
:10199000E9F71092F4011092F5011092F6010E94FD
:1019A000E404089586E0DECFAAE2B0E0EAEDFCE0D0
:1019B0000C940A1C8CE392E02091F100FC0121932D
:1019C000CF01F2E084349F07B9F780913D02833064
:1019D00009F470C0B8F4813009F447C0823009F4CA
:1019E000B1C08091E80083FF7EC280913C0290915B
:1019F0003D029A3008F077C2E92FF0E0E955F34E46
:101A00000C94F51B8A3009F48CC08B3009F46FC03C
:101A1000893039F780913C02813219F78091400278
:101A2000909141020297E8F68091E800877F8093C9
:101A3000E8008091E80082FF38C09091F300809127
:101A4000F200029731F48091F100813011F086307C
:101A500021F48091F100809317028091E8008B7748
:101A60008093E8000E94F502BCCF80913C02813A4D
:101A700009F0B7CF8091E800877F8093E8008091DC
:101A8000400290914102892B61F460E288E192E08A
:101A900070E00E94A1038091E8008B778093E800BA
:101AA000A0CF60E090E080E0F3CF80913A02811116
:101AB000C0CF97CF80913C02813A09F092CF8091BC
:101AC000400290914102892B09F08BCF8091E80070
:101AD000877F8093E8008091E80080FFFCCF8091B1
:101AE00026018093F1008091E8008E77B9CF809134
:101AF0003C02813209F075CF809140029091410201
:101B0000892B09F06ECF8091E800877F8093E800F1
:101B10000E94F50280913E02809326010E94A50C4E
:101B200060CF80913C02813209F05BCF8091E80068
:101B3000877F8093E8000E94F50280913F028093A6
:101B400016024FCF80913C02813A09F04ACF809132
:101B5000E800877F8093E8008091E80080FFFCCF59
:101B600080911602BECF803899F0823809F0BBC14F
:101B7000809140028F70873008F0B5C18093E900F2
:101B80008091EB0085FB882780F91092E90006C060
:101B90008091380290913902911182609091E80011
:101BA000977F9093E8008093F1001092F10080916C
:101BB000E8008E7794C1882309F482C1823009F04D
:101BC00092C180913E02811185C1809140028F7047
:101BD0002FEF280F263008F086C18093E90020916E
:101BE000EB0020FF77C1933031F48091EB008062ED
:101BF0008093EB006FC19091EB0090619093EB00AC
:101C000021E030E001C0220F8A95EAF72093EA0034
:101C10001092EA008091EB008860EACF811163C1E5
:101C200010913E021F778091E3008078812B809392
:101C3000E3008091E800877F8093E8000E94F5022E
:101C40008091E80080FFFCCF8091E3008068809362
:101C5000E30082E0111183E080933A0244C180588E
:101C6000823008F040C180913E0290913F028C3D4D
:101C700023E09207A1F583E08A838AE289834FB744
:101C8000F894DE01139620E03EE051E2E32FF0E00D
:101C900050935700E49120FF03C0E295EF703F5F3F
:101CA000EF708E2F90E0EA30C0F0C7968D939D9331
:101CB0002F5F243159F74FBF8091E800877F8093D1
:101CC000E8006AE270E0CE0101960E94A1038091D3
:101CD000E8008B778093E80006C1C096E7CF40917B
:101CE000400250914102292F33272330310509F456
:101CF00044C078F52130310509F46FC08BE390E0E2
:101D0000E2E2F4E02230310509F0EDC02091E80074
:101D1000277F2093E80020914202309143028217EE
:101D2000930708F49C0140E02115310509F064C0D7
:101D3000411162C08091E80082FDC9CF80913A02D2
:101D4000882329F2853019F28091E80083FFF2CFD1
:101D5000BECF21323105A9F12232310509F0C3C0CD
:101D60004115510509F443C04130510509F0BBC08C
:101D700086EB90E0ECE2F3E0C9CF99278130910542
:101D8000C1F0009759F0029709F0ADC0EFE6F4E01A
:101D9000E4918E2F90E0EFE6F4E007C0EFE9F4E085
:101DA000E4918E2F90E0EFE9F4E0009709F49BC0F6
:101DB000ADCFE5E8F4E0E4918E2F90E0E5E8F4E0C3
:101DC000F4CF4115510571F04130510509F08BC038
:101DD00089E090E0EDE4F4E099CF82E190E0EDE578
:101DE000F4E094CF89E090E0E4E3F4E08FCF80E486
:101DF00090E0E2EEF3E08ACF80913A02882309F482
:101E000066CF853009F463CF8091E80083FD5FCF12
:101E10008091E80082FD8ECF8091E80080FF84CF22
:101E20009091F3008091F2002115310519F088306E
:101E3000910550F041E0089709F040E08091E800FA
:101E40008E778093E80070CF44914093F1003196F3
:101E5000215031090196E8CF803809F044C08091C3
:101E6000E800877F8093E80080913B028093F10037
:101E70009ECE811138C010913E021230A0F58091A3
:101E8000E800877F8093E80010933B020E94F502F0
:101E9000112311F084E005C08091E30087FDFACFA3
:101EA00081E080933A0242E061EC81E00E941403F9
:101EB00042E261EC82E00E94140380913A0213C076
:101EC00080913E02813079F481E0933009F080E026
:101ED000809339021092E9008091E800877F809317
:101EE000E8000E94F5028091E80083FF0AC080911B
:101EF000E800877F8093E8008091EB008062809308
:101F0000EB00AA96E3E00C94261C0E94A50C2FEF90
:101F100084E39CE0215080409040E1F700C0000045
:101F200088E19AE00FB6F894A895809360000FBE00
:101F300090936000FFCFB0E0A0E0E1EAFFE00C94F6
:101F4000031C7C01DC0114968C91882309F4C2C027
:101F500061E0C7010E948809EC01F70185818823AF
:101F600009F180910602909107020097D9F0C817F5
:101F7000D907C1F0FEE08F9FC0011124FC01E15F91
:101F8000FE4F208124602083865F9E4FDC01CD932D
:101F9000DC930E94AA0A1092040261E0C7010E9429
:101FA0008809EC01CE0197558F3F910511F008F09B
:101FB0006FC06E01DD24BEE0CB9FF00111248F01C4
:101FC000065F1E4FD70115968C91E15FFE4F908101
:101FD00080FB90F99083882309F452C00E94220468
:101FE0009093F2018093F101F80182818F5F8283E7
:101FF0008091040290910502892B83838091CE0108
:1020000084830680F781E02D309731F0D8011C964B
:102010006D917C91C80109958EE08C9DF0018D9D9C
:10202000F00D1124E65FFE4F858181FF26C090E010
:1020300080E09093060280930702D70115968C9159
:10204000882309F4BDC310920302CE0190578397F1
:1020500008F0A0C384E090E00E944E1C909314020C
:1020600080931302FE01E150F047E232F10508F0DF
:102070005AC0EF54F34E0C94F51B9C2F8D2FD9CFE3
:10208000F801858181FFD9CFC8010E94900AD5CF80
:10209000FE01E851FC47E730F10578F6ED52F34ECA
:1020A0000C94F51B06E221EE41EE6AE17CE7C701E4
:1020B0000E94BE0B8091AD01877061F0D70115962B
:1020C0008C91882339F08091140282FF03C082E052
:1020D0000E946108CDB7DEB7EAE00C941F1C07E24E
:1020E00025EE45EE6BE17CE7E2CF06E221EE40EE25
:1020F00068E17CE7DCCF07E225EE44EE69E17CE7AE
:10210000D6CF06E221EE42EE6CE17CE7D0CF07E2CB
:1021100025EE46EE6DE17CE7CACF08E221E045EE10
:102120006EE17CE7C4CF809113028160809313023B
:1021300095C0809114028860809314028FC08091B2
:1021400013028260F3CF809113028460EFCF8091FD
:1021500013028860EBCF809114028160EDCF8091F3
:1021600014028260E9CF809113028061DFCF8091F9
:1021700013028062DBCF809113028064D7CF0E946C
:10218000A50C809113028068D1CF809113028C60DE
:10219000CDCF809114028360CFCF809113028E7FC8
:1021A000C5CF80911402877FC7CF809113028D7FA6
:1021B000BDCF809113028B7FB9CF80911302877FAF
:1021C000B5CF809114028E7FB7CF809114028D7F9E
:1021D000B3CF809113028F7EA9CF809113028F7DA0
:1021E000A5CF809113028F7BA1CF0E94A50C809177
:1021F00013028F779BCF80911302837F97CF8091BB
:1022000014028C7F99CF8091130282FB992790F959
:1022100021E0922790FB82F990FB83F987CF809190
:102220001402982F909591708E7F892B90FB81F9E5
:1022300083CF90911302892F8F7B96FF806476CF96
:102240000E94A50C90911302892F97FB87F9805863
:102250006DCF61E08EE090E00E94641C60911302FB
:102260007091140284E090E00E94821C0E94A50CF0
:1022700021CF60E0EFCF90911302892F8F7E94FFE2
:10228000806154CF90911302892F8E7F90FF8160DF
:102290004DCF90911402892F877F93FF88604CCF98
:1022A0000E94A50CBFEFE4E3FCE0B150E040F04039
:1022B000E1F700C000000E9402046FEF7FEF90E0A2
:1022C00080E00E94821C0E94850F8091140282FB94
:1022D000882780F991E089270E948E0CF70185817B
:1022E000C081D181882309F44CC0CE010E94A0078F
:1022F000182F682FCE010E941408BE01812F0E9462
:102300004B060E946A06D82FC92FA82ED701159612
:10231000CC9015971696BC90B2949FE0B92280910C
:10232000AD018770E9F00C2DCC20D9F08C2F807F87
:10233000803451F080E28D0F883090F0B11004C0ED
:102340008C2F807E803261F08091140282FF08C061
:1023500082E00E9461088091AD01877001E009F080
:1023600000E0DC2ED2948FE0D822BBE0BD1508F44B
:1023700065C0ED2DF0E0E652F34E0C94F51B80E0C5
:10238000ABCFCE010E94E107182FB7CF1C2F1F70D3
:10239000C07F11F01295107FCC20B9F0112369F0A5
:1023A00080E28D0F883010F0A11009C080910502E5
:1023B000182B109305020E943B0A8D2F3DC080917F
:1023C0000402182B10930402F6CF8D2F0E94F70AF7
:1023D0001123A1F1D05E812FD83010F0A11003C0DD
:1023E0000E948F0702C00E9488070E943B0A26C0F5
:1023F0001C2F1F70C07FC03211F01295107FAA20D1
:1024000059F0E1E0AE1609F472C0CC2009F47EC0A8
:10241000BB2009F441C0D1CF8091140282FD38C0A5
:10242000CC2079F1112339F080910502182B1093FB
:1024300005020E943B0A80E00E94490BAD2DA85086
:10244000BB0B149710F40E94D7040023A9F08091CD
:10245000AD0180FD11C0F7011582869586958695A0
:102460000E947808C7010E949B0F8091AD0186955C
:10247000869586950E944F0860E0C7010E948809F2
:1024800029CE80E00E94F70A1123C1F2812FA8CF44
:10249000CC2099F0B11004C0812F0E94ED0ACECF5C
:1024A000F1E0BF12CBCF8091CE01912F9823191765
:1024B00029F2182B1093CE01C1CFB110BFCF812FBD
:1024C0000E94E60A9091CE01812F892329F0812F65
:1024D000809589238093CE0180919101912F98233B
:1024E00009F4ACCF1095182310939101A7CFCC20FD
:1024F00029F025E02B1508F4A1CFCECF34E03B1511
:1025000008F49CCF812F0E94E60A98CFBB20D1F31C
:1025100089E3A81209C09FEFA7EEB3E09150A04055
:10252000B040E1F700C000008D2F0E94F70A86CF6F
:102530008C2F86958695837069F0813009F07ECF67
:102540008D2F9C2F9370C11002C080E090E00E94FC
:102550008D0474CF8D2F9C2F9370C11002C080E02A
:1025600090E00E94B2046ACF6C2D8D2F0E94B008BB
:1025700065CF8C2F837009F03FC0C1105FCF4D2F06
:10258000429546954770440F440F2D2F2F7030E031
:10259000042E02C0220F331F0A94E2F790E080E07D
:1025A000D4FF09C08FE090E002C0880F991F4A95C0
:1025B000E2F780959095C695C695C370C23099F0A4
:1025C00078F44091DC015091DD01C13039F0822B6B
:1025D000932B842395230E94880830CF242B352BFE
:1025E000822B932BF8CF822B932B2091DC013091FF
:1025F000DD0182279327EFCF8695CC2011F08C2F19
:102600008170882309F41ACF4D2F42954695477063
:10261000440F440F2D2F2F7030E0042E02C0220FE4
:10262000331F0A94E2F790E080E0D4FF09C08FE006
:1026300090E002C0880F991F4A95E2F78095909527
:10264000C695C695C370C23099F078F44091DE010A
:102650005091DF01C13039F0822B932B84239523D5
:102660000E944A08EBCE242B352B822B932BF8CFDC
:10267000822B932B2091DE013091DF01822793275B
:10268000EFCFCF70CC2029F08C2F0E9478088D2FAF
:1026900004CF8D2F0E94E60A8C2F0E944F08CECEC9
:1026A0008D2FE2EFAE1699F1EA1570F0F0EFAF164C
:1026B000D1F021EFA21691F0CC2009F45BC0B1104B
:1026C0007CCE8C2F8F7127C033EFA31639F194EF96
:1026D000A912F2CF8091140282FD2EC08C2F8F712F
:1026E000CC20D9F218C0CC2069F0A4E0AB1508F4D6
:1026F000A5CECF7181E090E002C0880F991FCA95E6
:10270000E2F7B8CFB5E0BB1508F498CEF2CF8C2F26
:102710008F71C110C2CF0E94780890CE90E080E007
:10272000CC2009F49DCFCF7181E090E002C0880FEA
:10273000991FCA95E2F794CFCC2089F0CF718C2FE6
:102740000E9478088091140282FF07C0E8E0CE9FC3
:10275000C001112483608093AD018C2FDCCF81E018
:102760000E946108F1E0FB1508F068CE82E00E944B
:10277000610864CEBB2059F0893309F0D5CE2FEF24
:1027800037EE83E0215030408040E1F7CBCE8C2FF4
:102790008F7183CFC631FCE7DF0701F58091050219
:1027A0008A7A91E009F490E09093900169E28111B6
:1027B00065E380E791E00E9458040E943B0A7ACCCE
:1027C000C631DC4709F08ACD8091900169E2811120
:1027D00065E380E791E00E942E04EFCFC3303CE731
:1027E000D30709F46ACD50F4C1159CE7D90709F461
:1027F00057CDC130DC4709F466CD70CDCB35BCE791
:10280000DB0709F4BCCDCC35ECE7DE0709F45DCD80
:10281000CA35DC4709F062CD81E05ECDB0E0A0E0D2
:10282000E4E1F4E10C94061C8091AC01807F09F096
:1028300051C08091AB01882309F44CC0E0917D0226
:1028400087E0D82E809144028E1709F443C00E2FE2
:1028500010E0ED9DF0011124EB5BFD4F8481882396
:10286000F1F1D09EE001D19ED00D1124FE01EB5B71
:10287000FD4F91818091A701981331C09081809183
:10288000A60198132CC08581811129C0E280F380B4
:102890008091A8019091A901E81AF90A60E086EAFE
:1028A00091E00E9488090E947102E816F906B8F4C6
:1028B0008091AC018F7080618093AC01C55BDD4F6E
:1028C00088818F708061888386EA91E00E949B0FE7
:1028D0000E949607CDB7DEB7E7E00C94221CF80102
:1028E0003196E770AFCFA4E1B0E0E9E7F4E10C94F2
:1028F000FE1B8C0186E0F801DE011F9601900D920F
:102900008A95E1F7D80114967C9014971596EC906F
:1029100086EAA82E81E0B82E8091AA0181112AC0F2
:10292000711003C0FF24F3941CC0EE20F9F0C8011D
:102930000E948D08F82E8823C9F087E0F801A6EAE6
:10294000B1E001900D928A95E1F78091AA01813062
:1029500031F48091A6019091A7010E94D4070E94B2
:102960000E148F2D6496EFE00C941A1CC8010E947F
:102970009B0FD8CFF801C280D380F090AB0180913B
:10298000A8019091A9014601881A990AFF2009F42B
:10299000F8C05080618060E086EA91E00E9488097A
:1029A0000E9471028816990608F0AEC0772009F4DB
:1029B000B9CF8091AC01382F307F2091A701D80189
:1029C00011969C91119731115FC0291315C0209168
:1029D000A6019C91291310C0E11050C08F70806136
:1029E0008093AC0186EA91E00E949B0F8091AC013C
:1029F000F8018683F12CB5CFE11040C0662D852DFE
:102A00000E948602E82E882361F086EA91E00E9407
:102A10009B0F87E0E6EAF1E0DF011D928A95E9F776
:102A2000E9CF5F86688A8F8598890E94D407292F0D
:102A300022952F70243058F49F70223088F099230B
:102A400099F0F8019681907F79F4FE2C8ACF2A5F65
:102A50002F70223068F0C8010E949B0FEF2CF5CF39
:102A6000992311F0882389F3805E883070F3F3CFC7
:102A7000803F58F3815F833070F7E7CF8091AC01DE
:102A800081608093AC01B6CF291315C02091A601B7
:102A90009C91291310C0E1100EC016968C93C801AA
:102AA0000E949B0F87E0F801A6EAB1E001900D9229
:102AB0008A95E1F756CFC8010E948D08882309F452
:102AC00055CFEE2009F452CF8091AC01803288F0CE
:102AD0002091A6013091A70139872887DB86CA8615
:102AE0009091AA019C871D868E87CE0108960E9430
:102AF0009B0F87E0F801A6EAB1E001900D928A955C
:102B0000E1F70E940E140ECF8091AC01982F907FB8
:102B100009F47BCF772009F405CF2091A701F801B4
:102B20009181291311C02091A601908129130CC015
:102B3000E1100AC08683C8010E949B0F87E0D5017F
:102B40001D928A95E9F70DCFC8010E948D08882350
:102B500009F40CCFEE2009F409CF8091AC0180324A
:102B600040F22091A6013091A7013A832983DC82AB
:102B7000CB829091AA019D831E828F83CE01019604
:102B8000B6CF60E086EA91E00E9488090E94710257
:102B90008816990608F041C0772009F4C3CEFE2CB0
:102BA000EE2009F4E3CE9091A701F80181819813FA
:102BB00026C09091A6018081981321C08091A80120
:102BC0009091A901C81AD90AF7E8CF16D10408F0E4
:102BD00069CF9091AC0190FD65CF907F09F462CFF1
:102BE0008091AC01D80116968C931697903F09F40A
:102BF00056CF982F907F905F8F70892B4ECFC80152
:102C00000E948D08811175CF8091AC018160809305
:102C1000AC01C8010E949B0FA4CE87E0F501119280
:102C20008A95E9F79ECEABE1B0E0E9E1F6E10C94DC
:102C30000A1C4E8B5F8B688F798F8A8F9B8F9111C7
:102C4000109204021D8A86E0FE017696DE011F9630
:102C500001900D928A95E1F78B89882329F061E034
:102C6000CE010F960E94880987E0FE013F96DE01A3
:102C7000189601900D928A95E1F7CE0108960E9470
:102C8000731481110CC087E0FE013896DE011196A5
:102C900001900D928A95E1F78C8581110BC017E0A8
:102CA00080917D0290914402891331C06B96E3E0DC
:102CB0000C94261C2091440230E0C90101968770D3
:102CC000992740917D024817190699F097E0929F45
:102CD000D001939FB00D1124AB5BBD4FFE01319627
:102CE00001900D929A95E1F7809344020E94960715
:102CF000D6CF0E94A50C1092440210927D0287E06C
:102D0000E6EAF1E0DF011D928A95E9F7C8CF819FDD
:102D1000C00111248B5B9D4F0E947314882331F2F4
:102D200080917D0290E001968770992780937D02C3
:102D3000B7CFA6E0B0E0EFE9F6E10C94091C0E94E1
:102D400022048C018091CF019091D00180179107CE
:102D500081F019821A820E942204682F49815A81C7
:102D6000792F80E090E00E9413161093D001009319
:102D7000CF012696E4E00C94251CA8E0B0E0E3EC3B
:102D8000F6E10C94011C8E010F5F1F4F88E0F801E3
:102D900011928A95E9F790E6E92E91E0F92E680103
:102DA000AA24A394B12CF70181917F018F3F09F4EC
:102DB00046C0F894E82FE295EF70F0E021A18F7003
:102DC000A50102C0440F551F8A95E2F7CA01922F50
:102DD000982B91A392A18095892382A3789400C017
:102DE000E4E6F1E021E030E0912C812C41914F3F6D
:102DF00009F467C0A42FA295AF70B0E090968C91B3
:102E000090E04F7002C0959587954A95E2F780FD56
:102E100058C0C901882A992A220F331F51E0EE3683
:102E2000F50721F7F701319780818F3F11F00E945C
:102E30004F0580EA8A95F1F7F60191828082F2E0EF
:102E4000CF0ED11C44E6E41641E0F40609F0ABCF06
:102E500048E050E0B80184ED91E00E94981C892B75
:102E600099F188E0F801A4EDB1E001900D928A9506
:102E7000E1F781E08093D3010E9422049093D20174
:102E80008093D1018091D1019091D2010E941304CD
:102E90000597F0F048E050E064ED71E080EE91E0DD
:102EA0000E94981C892BC9F088E0E4EDF1E0A0EEC7
:102EB000B1E001900D928A95E1F781E01092D30183
:102EC00008C090E080E0A6CF8091D3018111DACFD5
:102ED00080E02896ECE00C941D1C80E0EFCF1F9260
:102EE0000F920FB60F9211242F933F934F935F933E
:102EF0006F937F938F939F93AF93BF93CF93DF9302
:102F0000EF93FF93D091E900DF708091EC00C82F20
:102F1000C17080FDC0E81092E9008091F000877FC9
:102F20008093F00078940E94D40C1092E900809174
:102F3000F00088608093F000CD2BCF70C093E90043
:102F4000FF91EF91DF91CF91BF91AF919F918F91C1
:102F50007F916F915F914F913F912F910F900FBE95
:102F60000F901F9018951F920F920FB60F92112479
:102F70002F933F934F935F936F937F938F939F9381
:102F8000AF93BF93EF93FF938091E10082FF09C05D
:102F90008091E20082FF05C08091E1008B7F8093E9
:102FA000E1008091DA0080FF24C08091D80080FF8A
:102FB00020C08091DA008E7F8093DA008091D90062
:102FC00080FF9DC080E189BD82E189BD09B400FE1A
:102FD000FDCF81E080933A0280911502811109C0F2
:102FE0000E94A5020E9446038091E20084608093C3
:102FF000E2008091E10080FF17C08091E20080FF35
:1030000013C08091E2008E7F8093E2008091E20005
:1030100080618093E2008091D80080628093D80024
:1030200019BC85E080933A028091E10084FF2BC0B7
:103030008091E20084FF27C080E189BD82E189BDE3
:1030400089B5982F917080FFFBCF8091D8008F7D3C
:103050008093D8008091E1008F7E8093E100809181
:10306000E2008F7E8093E2008091E2008160809395
:10307000E20080913B02882309F447C084E08093FA
:103080003A0280913A028091E10083FF27C080914B
:10309000E20083FF23C08091E100877F8093E100FD
:1030A00082E080933A0210923B028091E1008E7F91
:1030B0008093E1008091E2008E7F8093E200809116
:1030C000E20080618093E20042E060E080E00E94E4
:1030D00014038091F00088608093F000FF91EF91DD
:1030E000BF91AF919F918F917F916F915F914F9120
:1030F0003F912F910F900FBE0F901F90189519BC04
:1031000010923A021092150274CF8091E30087FD6D
:1031100093E090933A02B5CF78941F921FB61F9216
:1031200011248F939F93AF93BF9380910F0290913F
:103130001002A0911102B09112020196A11DB11DC1
:1031400080930F0290931002A0931102B093120289
:10315000BF91AF919F918F911F901FBE1F901895A7
:103160001F921FB61F9211248F939F93AF93BF930B
:1031700080910E02811113C080910F029091100274
:10318000A0911102B09112024196A11DB11D809330
:103190000F0290931002A0931102B0931202BF91FC
:1031A000AF919F918F911F901FBE1F901895CDB723
:1031B000DEB72E970FB6F894DEBF0FBECDBF85B732
:1031C000806885BF85B7806885BF84B7877F84BFE7
:1031D0000FB6F894A8958091600088618093600094
:1031E000109260000FBE80E890E00FB6F8948093D4
:1031F0006100909361000FBE8DE495E090936F01A4
:1032000080936E010E94A5020E9446038091E20015
:1032100084608093E200789480913A028823A1F040
:103220001091E9001F709091EC00892F817090FD42
:1032300080E8182B1092E9008091E80083FD0E943D
:10324000D40C1F701093E90082E084BD93E095BD1B
:103250009AEF97BD80936E0081E30E944F0583E350
:103260000E944F0582E30E944F0586E30E944F05AE
:1032700004E611E0D8018D918D018F3F11F00E947D
:103280004F05B1E00E361B07A9F788E0E0EEF1E04C
:10329000DF01282F1D922A95E9F7E4EDF1E0DF0127
:1032A0001D928A95E9F790E080E00E944E1C863ED0
:1032B0009E4F09F464C066EE7EEF90E080E00E94CD
:1032C000821C60E082E090E00E94641C60E083E089
:1032D00090E00E94641C1092DD011092DC0160E01D
:1032E00074E184E090E00E94821C60E086E090E05F
:1032F0000E94641C6FEF87E090E00E94641C40E035
:1033000050E0BA0188E090E00E94761C60E084E220
:1033100090E00E94641C60E087E190E00E94641CE1
:1033200060E08CE090E00E94641C60E08DE090E042
:103330000E94641C19821A821B821C821D821E82BA
:103340001F82188648E050E068E170E0CE010196E7
:103350000E94541C40E050E0BA0180E290E00E94DC
:10336000761C40E050E0BA018FE090E00E94761CAD
:1033700040E050E0BA0183E190E00E94761C82E0D8
:1033800090E00E94461C8093E80184E090E00E9457
:103390004E1C90931402809313020E94BD16EFEF0F
:1033A000F6E721E0E150F0402040E1F700C00000E6
:1033B0000E94BD168091E00180FF08C06FEF7FEF93
:1033C00090E080E00E94821C0E94020483E090E072
:1033D0000E94461C90E00E94880882E091E0909351
:1033E0000B0280930A0258EE452E51E0552E41EF14
:1033F000642E41E0742E80913A0200E112E18530A2
:1034000009F497C00E94BD1629EEA22E21E0B22E2B
:1034100030EE832E31E0932ED401F50121913191CC
:103420008D919D916E167F0609F48DC0281739077E
:10343000A9F3312CF401019111914F01D501CD90E7
:10344000DD905D01C016D10661F1C026D126212C88
:10345000EE24E394F12CC6018E219F21892BB9F033
:1034600029863A860E9422049C878B87B1E0BD871B
:1034700091E098012E213F21232B09F490E09E87B3
:1034800049855A856B857C858D850E94131623940A
:10349000EE0CFF1CEAE02E12DECFF501329711830D
:1034A00000833394F4E03F12C5CF8FB7F894409176
:1034B0000F025091100260911102709112028FBFA1
:1034C00048C080913A02843021F110920E0288E1C6
:1034D00090E0A0E40FB6F894A895809360000FBE2A
:1034E000A093600083B7817F846083BF83B78160CE
:1034F00083BF7894889583B78E7F83BF0FB6F89487
:10350000A8958091600088618093600010926000AF
:103510000FBE80913902882361F00E94BD16E0EE53
:10352000F1E081919191892B09F02BC14E165F0634
:10353000C1F780913A02853009F4C3CF0E94A50CEF
:103540000E94D7045FCF2817390709F072CF0E9475
:103550009916009106021091070201151105D9F084
:103560008091F1019091F2010E9413047C01C80145
:103570000E9471028E159F0570F42EE0029FC0011B
:103580001124FC01E15FFE4F208122FD04C0865F13
:103590009E4F0E94AA0A86E0EBEFF1E0DE01119651
:1035A00001900D928A95E1F71092FD011092FE01B3
:1035B0001092FF01109200028B819C81892B09F4EB
:1035C0004AC08091F9019091FA010E9413049C0174
:1035D0009091F401992309F4EFC025313105D8F118
:1035E0009F3F19F09F5F9093F4011B81112359F0C5
:1035F0000E942D059FEF11160CF491E0899F802DFC
:1036000011248093FD011C81112359F00E942D0586
:103610009FEF11160CF491E0899F802D1124809367
:10362000FE013091FD013323B1F02091FE012223F0
:1036300091F045EB3403C0011124992309F491C0A2
:103640009093FD0145EB240390011124332309F4E9
:103650008CC03093FE018D819E81892B09F44AC074
:103660008091F7019091F8010E9413049C019091C0
:10367000F501992309F49BC021353105D8F19F3F0D
:1036800019F09F5F9093F5011D81112359F00E945D
:103690000B059FEF11160CF491E0899F802D1124EA
:1036A0008093FF011E81112359F00E940B059FEFAB
:1036B00011160CF491E0899F802D11248093000253
:1036C0003091FF013323B1F020910002222391F0C9
:1036D00045EB3403C0011124992309F44AC09093A7
:1036E000FF0145EB240390011124332309F445C065
:1036F0003093000246E050E0BE016F5F7F4F8BEFDA
:1037000091E00E94981C892B61F48091FD019091B9
:10371000FE01892B9091FF01892B90910002892B4A
:1037200011F00E94E40486E0FE013196ABEFB1E0B7
:1037300001900D928A95E1F70E94D7049091F301D0
:10374000891709F458CE8093F3018FB7F89440910C
:103750000F025091100260911102709112028FBFFE
:1037600046CE81E08093FD016DCF81E08093FE0124
:1037700072CF81E08093FF01B4CF81E0809300029B
:10378000B9CF09BD19BD09B400FEFDCF8091D800A5
:103790008F7D8093D8008091E00082608093E0006C
:1037A0008091E00081FDFCCF0E94A50CC2CE2B30A1
:1037B000310508F066CF9ECF2B30310508F012CFCF
:1037C0004ACF97FB072E16F4009407D077FD09D057
:1037D0000E94321C07FC05D03EF4909581959F4FC6
:1037E0000895709561957F4F0895EE0FFF1F059026
:1037F000F491E02D09942F923F924F925F926F9235
:103800007F928F929F92AF92BF92CF92DF92EF9270
:10381000FF920F931F93CF93DF93CDB7DEB7CA1BF1
:10382000DB0B0FB6F894DEBF0FBECDBF09942A881C
:10383000398848885F846E847D848C849B84AA84C4
:10384000B984C884DF80EE80FD800C811B81AA8151
:10385000B981CE0FD11D0FB6F894DEBF0FBECDBF1C
:10386000ED010895AA1BBB1B51E107C0AA1FBB1F96
:10387000A617B70710F0A61BB70B881F991F5A95FC
:10388000A9F780959095BC01CD010895F999FECFD7
:1038900092BD81BDF89A992780B50895A8E1B0E05E
:1038A00042E050E00C948A1CDC01A40FB51F41508B
:1038B000504048F0CB01840F951F2E910E94651C4B
:1038C00041505040D0F70895262FF999FECF92BD70
:1038D00081BDF89A019700B4021639F01FBA20BDD5
:1038E0000FB6F894FA9AF99A0FBE08950396272F07
:1038F0000E94651C0E94641C252F0E94651C242FB9
:103900000C94651C0196272F0E94651C0C94641C66
:10391000DC01CB01FC01F999FECF06C0F2BDE1BD8F
:10392000F89A319600B40D9241505040B8F708957E
:10393000FB01DC0104C08D910190801921F44150FC
:103940005040C8F7881B990B0895F894FFCFB30D2A
:10395000DB0D730FDB0D730F0E0E2F0E730F2C0F7D
:10396000390FCD104211D5109F10A310D910A710F8
:10397000DD10E910B3103B11B710ED10BB10F110C2
:103980001911BF10F5102011C510FB100311AB1059
:10399000E110AF10E510C910FF100F1129113911F6
:1039A0009910D110491175107B1052106F108110B1
:1039B00087108D10C611C611F811F8119812B412A3
:0C39C0001E121E12B912411350135013B6
:1039CC000100FF03170A100A090A0000000000009A
:1039DC0000006D0C3B0B000000000000000000001C
:1039EC004A0C2D0B000001818283E200E900EA0001
:1039FC00B500B600B700CD008301CC008A0192015E
:103A0C0094012102230224022502260227022A0203
:103A1C00B300B4006F0070009F01CB019F02A002A5
:0E3A2C0031333236909497C63435F4F5F6F700
:00000001FF
