:100000000C946D0F0C948A0F0C948A0F0C948A0F29
:100010000C948A0F0C948A0F0C948A0F0C948A0FFC
:100020000C948A0F0C948A0F0C94EF190C94791E7F
:100030000C94D5280C948A0F0C948A0F0C948A0F78
:100040000C948A0F0C948A0F0C948A0F0C948A0FCC
:100050000C948A0F0C94C81A0C948A0F0C948A0F73
:100060000C948A0F0C948A0F0C948A0F0C948A0FAC
:100070000C948A0F0C948A0F0C948A0F0C948A0F9C
:100080000C948A0F0C948A0F0C948A0F0C948A0F8C
:100090000C948A0F0C948A0F0C948A0F0C948A0F7C
:1000A0000C948A0F0C948A0F0C948A0F00000000A5
:1000B0000000000000000000000000000000000040
:1000C0000000000000000000000000000000000030
:1000D0000000000000000000000000000000000020
:1000E0000000000000000000000000000000808010
:1000F00080404020201008040204081010202040F6
:1001000040808000000000000000000000000000AF
:1001100000000000000000000000000000000000DF
:1001200000000000000000000000000000000000CF
:1001300000000000000000000000000000000000BF
:1001400000000000000000000000000000000000AF
:100150000000000000000000000000000000003F60
:10016000C1010102020404040402020101010000B1
:10017000000000008000004080804000003030001F
:10018000000000010264180412C2CA2488F08080B2
:10019000404040402020202010101010080808087F
:1001A0000404040402020202010101010000000033
:1001B000000000000000000000000000000000003F
:1001C000000000000000000000000000000000002F
:1001D0000000000000000000000000000000E01827
:1001E0000601000000000000000000000080838382
:1001F000404040402021212010101010080808081D
:1002000004040404020202020101010100000000D2
:1002100000000000000000000000000000000000DE
:1002200000000000000000000000000000000000CE
:1002300000000000000000000000000000000000BE
:1002400000000000000000000000000080808080AE
:10025000404040402020202010101010080F0808B7
:1002600004040404020408101020204040414224E9
:1002700098C088888C9C1C1E0E06000000000000A0
:10028000000000000000000000000000000000006E
:10029000000000000000000000000000000000005E
:1002A000000000000000000000000000000000004E
:1002B000000000000000000000000000000000003E
:1002C000000000000000000000000000000000002E
:1002D000000000000000000000000000000000001E
:1002E000000000000000000000000000000000000E
:1002F00000000000000000000000000000000000FE
:1003000000000000000000000000000000000000ED
:1003100000000000000000000000000000000000DD
:1003200000000000000000000000000000000000CD
:1003300000000000000000000000000000000000BD
:1003400000000000000000000000000000000000AD
:10035000000000000000000000000000000000009D
:10036000000000000000000000008080804040206D
:100370002010080402040810102020404080800053
:10038000000000000000000000000000000000006D
:10039000000000000000000000000000000000005D
:1003A000000000000000000000000000000000004D
:1003B000000000000000000000000000000000003D
:1003C000000000000000000000000000000000002D
:1003D00000000000000000000000003FC101010219
:1003E0000204844444428201010100000000000034
:1003F000800000408080400000303000000000019C
:100400000204040808102040808080804040404062
:1004100020202020101010100808080804040404EC
:1004200002020202010101010000000000000000C0
:1004300000000000000000000000000000000000BC
:1004400000000000000000000000000000000000AC
:1004500000000000000000000000E018060100009D
:100460000C03000218190005FE80838340404040C1
:10047000202121201010101008080808040404048A
:100480000408304080800000018698600000000071
:10049000000000000000000000000000000000005C
:1004A000000000000000000000000000000000004C
:1004B000000000000000000000000000000000003C
:1004C000000000000000000080808080404040402C
:1004D0002020202010101010080F08080404040425
:1004E0000202020201010101000000000000000000
:1004F0000000000000000000000000060F0F0703CE
:100500000361F0F8FC600101013C78F8F070000034
:1005100000000000000000000000000000000000DB
:1005200000000000000000000000000000000000CB
:1005300000000000000000000000000000000000BB
:1005400000000000000000000000000000000000AB
:10055000000000000000000000000000000000009B
:10056000000000000000000000000000000000008B
:10057000000000000000000000000000000000007B
:10058000000000000000000000000000000000006B
:10059000000000000000000000000000000000005B
:1005A000000000000000000000000000000000004B
:1005B000000000000000000000000000000000003B
:1005C000000000000000000000000000000000002B
:1005D000000000000000000000000000000000001B
:1005E00000000000000080808040402020100804AF
:1005F000020408101020204040808000000000000D
:1006000000000000000000000000000000000000EA
:1006100000000000000000000000000000000000DA
:1006200000000000000000000000000000000000CA
:1006300000000000000000000000000000000000BA
:1006400000000000000000000000000000000000AA
:10065000000000000000003FC101010202048444C8
:1006600044428201010100000000000080000040BF
:100670008080400000303000000000010264180457
:1006800012C2CA2488F080804040404020202020B0
:1006900010101010080808080404040402020202E2
:1006A0000101010100000000000000000000000046
:1006B000000000000000000000000000000000003A
:1006C000000000000000000000000000000000002A
:1006D000000000000000E018060100000C0300020A
:1006E00018190005FE8083834040404020212120CE
:1006F0001010101008080808040404040202020282
:1007000001010101000000000000000000000000E5
:1007100000000000000000000000000000000000D9
:1007200000000000000000000000000000000000C9
:1007300000000000000000000000000000000000B9
:100740000000000080808080404040402020202029
:1007500010101010080F080804040404020202021A
:100760000101010100000000000000000000000085
:100770000000000000000000000000000000000079
:100780000000000000000000000000000000000069
:100790000000000000000000000000000000000059
:1007A0000000000000000000000000000000000049
:1007B0000000000000000000000000000000000039
:1007C0000000000000000000000000000000000029
:1007D0000000000000000000000000000000000019
:1007E0000000000000000000000000000000000009
:1007F00000000000000000000000000000000000F9
:1008000000000000000000000000000000000000E8
:1008100000000000000000000000000000000000D8
:1008200000000000000000000000000000000000C8
:1008300000000000000000000000000000000000B8
:1008400000000000000000000000000000000000A8
:100850000000000000000000000000000000008018
:10086000804040402020202020180402010204087B
:1008700010202040408080000000000000000000A8
:100880000000000000000000000000000000000068
:100890000000000000000000000000000000000058
:1008A0000000000000000000000000000000000048
:1008B0000000000000000000000000000000000038
:1008C0000000000000000000000000000000000028
:1008D0000000003FC10101020204040404020201FD
:1008E0000000000000000000800000408080400008
:1008F000003030000000000102040408081020400D
:100900008080808040404040202020201010101027
:10091000080808080404040402020202010101019B
:1009200000000000000000000000000000000000C7
:1009300000000000000000000000000000000000B7
:1009400000000000000000000000000000000000A7
:100950000000E01806010000000000000000000098
:10096000008083834040404020212120101010103F
:1009700008080808040404040408304080800000CB
:1009800001869860000000000000000000000000E8
:100990000000000000000000000000000000000057
:1009A0000000000000000000000000000000000047
:1009B0000000000000000000000000000000000037
:1009C0008080808040404040202020201010101067
:1009D000080F080804040404020408101020204032
:1009E0004041422418000000000000000000000008
:1009F00000000000000000000000000000000101F5
:100A000001000000000000000000000000000000E5
:100A100000000000000000000000000000000000D6
:100A200000000000000000000000000000000000C6
:100A300000000000000000000000000000000000B6
:100A400000000000000000000000000000000000A6
:100A50000000000000000000000000000000000096
:100A60000000000000000000000000000000000086
:100A70000000000000000000000000000000000076
:100A80000000000000000000000000000000000066
:100A90000000000000000000000000000000000056
:100AA0000000000000000000000000000000000046
:100AB0000000000000000000000000000000000036
:100AC0000000000000000000000000000000000026
:100AD0000000000000000000000000000000808016
:100AE0004040402010080402010204081020408009
:100AF0008000000000000000000000000000000076
:100B000000000000000000000000000000000000E5
:100B100000000000000000000000000000000000D5
:100B200000000000000000000000000000000000C5
:100B300000000000000000000000000000000000B5
:100B40000000000000000000000000000000003F66
:100B5000C1010102020404040402020101010000B7
:100B600000000000000000800000800000606000C5
:100B700000010204040808101020204080808080BA
:100B80004040404020202020101010100808080885
:100B90000404040402020202010101010000000039
:100BA0000000000000000000000000000000000045
:100BB0000000000000000000000000000000000035
:100BC0000000000000000000000000000000C03035
:100BD0000C0300000000000000000000008086867A
:100BE000404040402122222011111010080808081E
:100BF00004040404040830408080000001869860EA
:100C000000000000000000000000000000000000E4
:100C100000000000000000000000000000000000D4
:100C200000000000000000000000000000000000C4
:100C300000000000000000000000000080808080B4
:100C4000404040402020202010101010080F0808BD
:100C500004040404020408101020204040414224EF
:100C6000180000000000000000000000000000006C
:100C70000000000000000000000001010100000071
:100C80000000000000000000000000000000000064
:100C90000000000000000000000000000000000054
:100CA0000000000000000000000000000000000044
:100CB0000000000000000000000000000000000034
:100CC0000000000000000000000000000000000024
:100CD0000000000000000000000000000000000014
:100CE0000000000000000000000000000000000004
:100CF00000000000000000000000000000000000F4
:100D000000000000000000000000000000000000E3
:100D100000000000000000000000000000000000D3
:100D200000000000000000000000000000000000C3
:100D300000000000000000000000000000000000B3
:100D400000000000000000000000000000000000A3
:100D50000000000000000000000080808080404013
:100D600020100804020408102040808000000000C9
:100D70000000000000000000000000000000000073
:100D80000000000000000000000000000000000063
:100D90000000000000000000000000000000000053
:100DA0000000000000000000000000000000000043
:100DB0000000000000000000000000000000000033
:100DC00000000000000000000000007E820202041B
:100DD00004080808080404020101000000000000E3
:100DE000000000800000800000606000010102043B
:100DF000040808101020204080808080404040403F
:100E000020202020101010100808080804040404F2
:100E100002020202010101010000000000000000C6
:100E200000000000000000000000000000000000C2
:100E300000000000000000000000000000000000B2
:100E400000000000000000000000C0300C030000A3
:100E50000000000000000000008086864040404006
:100E6000212222201111101008080808040404048B
:100E70000408304080800000018698600000000077
:100E80000000000000000000000000000000000062
:100E90000000000000000000000000000000000052
:100EA0000000000000000000000000000000000042
:100EB0000000000000000000808080804040404032
:100EC0002020202010101010080F0808040404042B
:100ED0000204081010202040404142241800000065
:100EE0000000000000000000000000000000000002
:100EF00000000000000001010100000000000000EF
:100F000000000000000000000000000000000000E1
:100F100000000000000000000000000000000000D1
:100F200000000000000000000000000000000000C1
:100F300000000000000000000000000000000000B1
:100F400000000000000000000000000000000000A1
:100F50000000000000000000000000000000000091
:100F60000000000000000000000000000000000081
:100F70000000000000000000000000000000000071
:100F80000000000000000000000000000000000061
:100F90000000000000000000000000000000000051
:100FA0000000000000000000000000000000000041
:100FB0000000000000000000000000000000000031
:100FC0000000000000000000000000000000000021
:100FD0000000000000008080808040402010080455
:100FE0000204081020408080000000000000000083
:100FF00000000000000000000000000000000000F1
:1010000000000000000000000000000000000000E0
:1010100000000000000000000000000000000000D0
:1010200000000000000000000000000000000000C0
:1010300000000000000000000000000000000000B0
:101040000000000000001C34C40404040808080860
:1010500008040402010100000000000080000040BC
:1010600080804000003030000101020204040408C6
:101070000810204080808080404040402020202078
:1010800010101010080808080404040402020202E8
:10109000010101010000000000000000000000004C
:1010A0000000000000000000000000000000000040
:1010B0000000000000000000000000000000000030
:1010C000000000000000E018060100000000000021
:1010D0000000000000808383404040402021212008
:1010E0001010101008080808040404040408304014
:1010F0008080000001869860000000000000000071
:1011000000000000000000000000000000000000DF
:1011100000000000000000000000000000000000CF
:1011200000000000000000000000000000000000BF
:10113000000000008080808040404040202020202F
:1011400010101010080F080804040404020408100A
:101150001020204040414224180000000000000000
:10116000000000000000000000000000000000007F
:10117000000001010100000000000000000000006C
:10118000000000000000000000000000000000005F
:10119000000000000000000000000000000000004F
:1011A000000000000000000000000000000000003F
:1011B000000000000000000000000000000000002F
:1011C000000000000000000000000000000000001F
:1011D000000000000000000000000000000000000F
:1011E00000000000000000000000000000000000FF
:1011F00000000000000000000000000000000000EF
:1012000000000000000000000000000000000000DE
:1012100000000000000000000000000000000000CE
:1012200000000000000000000000000000000000BE
:1012300000000000000000000000000000000000AE
:10124000000000000000000000000000000000801E
:101250008040404020202020201804020102040881
:1012600010202040408080000000000000000000AE
:10127000000000000000000000000000000000006E
:10128000000000000000000000000000000000005E
:10129000000000000000000000000000000000004E
:1012A000000000000000000000000000000000003E
:1012B000000000000000000000000000000000002E
:1012C00000060D31C1010101020202040402020103
:1012D000000000000000000080000040808040000E
:1012E0000030300000000001020404080810204013
:1012F000808080804040404020202020101010102E
:1013000008080808040404040202020201010101A1
:1013100000000000000000000000000000000000CD
:1013200000000000000000000000000000000000BD
:1013300000000000000000000000000000000000AD
:101340000000E0180601000000000000000000009E
:101350000080838340404040202121201010101045
:1013600008080808040404040408304080800000D1
:1013700001869860000000000000000000000000EE
:10138000000000000000000000000000000000005D
:10139000000000000000000000000000000000004D
:1013A000000000000000000000000000000000003D
:1013B000808080804040404020202020101010106D
:1013C000080F080804040404020408101020204038
:1013D000404142241800000000000000000000000E
:1013E00000000000000000000000000000000101FB
:1013F00001000000000000000000000000000000EC
:1014000000000000000000000000000000000000DC
:1014100000000000000000000000000000000000CC
:1014200000000000000000000000000000000000BC
:1014300000000000000000000000000000000000AC
:10144000000000000000000000000000000000009C
:10145000000000000000000000000000000000008C
:10146000000000000000000000000000000000007C
:10147000000000000000000000000000000000006C
:101480000000000000000000000000001E001F001F
:101490002000210022000000005700000000000092
:1014A00014001A00090013000A000D000F001800B4
:1014B0001C002A00040015001600170007000B008E
:1014C000110008000C0012001D621B00060019002C
:1014D00005000E0010003600370038720000E000F2
:1014E000E2002C68000000002B4128420057000059
:1014F0001E001F00200021002200000000570000F5
:10150000000000002D022D002E022E0033023500B7
:10151000BC00AE00BB004C002F02260227023002A6
:10152000310229005000520051004F002F62340058
:101530003402300033003502AA00A800A90031723D
:101540000000E000E2002C68000000000100010043
:10155000005700001E001F00200021002200000094
:1015600000570000000000001E021F02200221029E
:10157000220223022402250239002A001E001F0035
:10158000200021002200230024002500260027003F
:10159000E1000000000000000351000000003600E0
:1015A000370038720000E000E2002C680000000004
:1015B00001000100005700001E001F002000210054
:1015C00022000000005700000000000000000000A2
:1015D00000000000000000000000000000000450B7
:1015E0003A003B003C003D003E003F00400041000F
:1015F00042004300440000000000005C01000000C5
:1016000000000000000045000000E000E2002C683F
:101610000000000001000100005700001E001F0034
:1016200020002100220000000157000000000000FF
:1016300014001A00090013000A000D000F00180022
:101640001C002A00040015001600170007000B00FC
:10165000110008000C0012001D621B00060019009A
:1016600005000E0010003600370038720000E2005E
:10167000E0002C00000000002B4528460157000028
:101680001E001F0020002100220000000157000062
:10169000000000002D022D002E022E003302350026
:1016A000BC00AE00BB004C002F0226022702300215
:1016B000310229005000520051004F002F623400C7
:1016C0003402300033003502AA00A800A9003172AC
:1016D0000000E200E0002C0000000000010001001A
:1016E000015700001E001F00200021002200000002
:1016F00001570000000000001E021F02200221020C
:10170000220223022402250239002A001E001F00A3
:1017100020002100220023002400250026002700AD
:10172000E10000000000000007510000000036004A
:10173000370038720000E200E0002C0000000000DA
:1017400001000100015700001E001F0020002100C1
:10175000220000000157000000000000000000000F
:101760000000000000000000000000000000005029
:101770003A003B003C003D003E003F00400041007D
:1017800042004300440000000000005C0100000033
:1017900000000000000045000000E200E0002C0016
:1017A00000000000010001000157000000DA128172
:1017B000FFD9F1DB20A4A62EAF00A0C000A1C80075
:1017C000AED580A83FD300408D14200020202020DB
:1017D00020202000434150530046554E43005749B6
:1017E0004E004E554D0057494E00434F444500575B
:1017F000494E004D41494E0057494E0046554E4313
:10180000004D4143004E554D004D414300434F4470
:1018100045004D4143004D41494E004D41430000BC
:10182000AF00AE05010902A10185020901A1000571
:10183000091901290815002501950875018102057E
:1018400001093009311581257F9502750881060946
:10185000381581257F950175088106050C0A380227
:101860001581257F950175088106C0C00501098095
:10187000A101850319012AB700150126B7009501BA
:1018800075108100C0050C0901A101850419012A08
:10189000A002150126A002950175108100C0050166
:1018A0000906A1018506050719E029E715002501AC
:1018B0009508750181020507190029EF150025011A
:1018C00095F0750181020508190129059505750135
:1018D0009102950175039101C005010906A1010559
:1018E0000719E029E7150025019508750181029582
:1018F00001750881010507190029FF150026FF0061
:1019000095067508810005081901290595057501D9
:101910009102950175039101C009023B000201008B
:10192000A0FA0904000001030101000921110100CE
:10193000012240000705810308000109040100019C
:101940000300000009211101000122B600070582F1
:10195000032000011201000200000008EDFE00005B
:101960000001010200011603530063006F007400C0
:1019700074006F00470061006D00650000001603F1
:101980004A006F0065002000530063006F00740080
:1019900074006F0000000403090407087F080700B3
:1019A0003E5B4F5B3E003E6B4F6B3E001C3E7C3E01
:1019B0001C00183C7E3C18001C577D571C001C5E08
:1019C0007F5E1C0000183C180000FFE7C3E7FF0023
:1019D000001824180000FFE7DBE7FF0030483A0654
:1019E0000E00262979292600407F05050700407F43
:1019F00005253F005A3CE73C5A007F3E1C1C08006E
:101A0000081C1C3E7F0014227F2214005F5F005FD1
:101A10005F0006097F017F00006689956A006060AB
:101A20006060600094A2FFA2940008047E04080095
:101A300010207E20100008082A1C0800081C2A0814
:101A400008001E10101010000C1E0C1E0C00303868
:101A50003E383000060E3E0E06000000000000007A
:101A600000005F000000000700070000147F147FE3
:101A70001400242A7F2A12002313086462003649C6
:101A800056205000000807030000001C22410000FF
:101A90000041221C00002A1C7F1C2A0008083E0866
:101AA00008000080703000000808080808000000E6
:101AB000606000002010080402003E5149453E00CD
:101AC00000427F4000007249494946002141494D8A
:101AD00033001814127F10002745454539003C4A51
:101AE0004949310041211109070036494949360069
:101AF000464949291E00000014000000004034003F
:101B000000000008142241001414141414000041B1
:101B1000221408000201590906003E415D594E0099
:101B20007C1211127C007F49494936003E414141F7
:101B300022007F4141413E007F49494941007F09E0
:101B4000090901003E41415173007F0808087F00E8
:101B500000417F4100002040413F01007F081422E6
:101B600041007F40404040007F021C027F007F0414
:101B700008107F003E4141413E007F0909090600EF
:101B80003E4151215E007F091929460026494949F5
:101B9000320003017F0103003F4040403F001F200F
:101BA00040201F003F4038403F006314081463008A
:101BB0000304780403006159494D4300007F41410B
:101BC0004100020408102000004141417F0004024E
:101BD00001020400404040404000000307080000AC
:101BE0002054547840007F2844443800384444440A
:101BF0002800384444287F00385454541800000802
:101C00007E09020018A4A49C78007F0804047800D0
:101C100000447D4000002040403D00007F102844EB
:101C2000000000417F4000007C04780478007C08BC
:101C300004047800384444443800FC182424180074
:101C400018242418FC007C08040408004854545448
:101C5000240004043F4424003C4040207C001C201D
:101C600040201C003C4030403C00442810284400E8
:101C70004C9090907C004464544C440000083641E1
:101C8000000000007700000000413608000002015B
:101C9000020402003C2623263C0000000000000055
:101CA000404040F0F8F8FF38FFF8F83FF8F8FF3808
:101CB000FFF8F8F040404000000000000080C0C085
:101CC000C0800000C0C08000000080C0C000C0C054
:101CD000000080C0C00000000000C0C0C0C0C00044
:101CE000C0C0000000000000000000000000000074
:101CF00000000000000000000000000000000000E4
:101D000000000000000000000000000000000000D3
:101D1000000000000000000000C0F0F8FC3E1E06BD
:101D2000010000007F4141417F007F4141417F0030
:101D30000080C0E07E5B4F5BFEC00000C000DCD7CF
:101D4000DEDEDED7DC00C000000000000000000086
:101D50000000000000000000000000000000000083
:101D6000494949FFFFFFFFE0DFBFBF00BFBFDFE022
:101D7000FFFFFFFF49494900000000001F3F60606E
:101D8000E0BF1F007F7F071E381E077F7F007F7F19
:101D90000E1F3B716000000000007F7F0C0C0C00E8
:101DA0007E7E007F7E0303007F7E03037E7E03032F
:101DB0007F7E000F3E703C063C703E0F00327B4938
:101DC000493F7E007F7E0303001E3F69696F260046
:101DD000000000000000000000030F1F3F3C78706F
:101DE000600000007F4141417F007F4141417F0011
:101DF000307B7F7830202030787F3B0003000F7FDE
:101E00000F0F0F7F0F000300000000000000000014
:101E100000000000000000000000000000000000C2
:101E2000010101070F0F7F0F7F0F0F7E0F0F7F0F35
:101E30007F0F0F07010101000000000000000000FB
:101E40000001010000000000000000000000000090
:101E50000000000000000000000000000000000082
:101E60000000000000000000000000000000000072
:101E70000000000000000000000000000000000062
:101E80000000000000000000000000000000000052
:101E90000000000000000000000000000000000042
:101EA0000000000000000000000000000000000032
:101EB0000000000000000000000000000000000022
:101EC0000000000000000000000000000000000012
:101ED0000000000000000000000011241FBECFEF32
:101EE000DAE0DEBFCDBF11E0A0E0B1E0E6E3F3E66B
:101EF00002C005900D92A839B107D9F727E0A8E9EB
:101F0000B1E001C01D92AF34B207E1F70E94FC2896
:101F10000C947B310C940000CF93DF9340914D07DC
:101F200050914E074D5453409A0124583D4F213053
:101F30003440C0F020E034E0241B350B60914B03AB
:101F400070914C03FC01CA01240F351FC1E0D0E0A1
:101F50008217930750F070934C0360934B03DF910B
:101F6000CF9108952CE732E0E9CF4491DC01A35BE7
:101F7000BC4F5C91451781F04C93AC01A6E056959F
:101F80004795AA95E1F7DE0102C0AA0FBB1F4A954B
:101F9000E2F7AD016A2B752B01963196D9CF8230CD
:101FA00027E5920770F4811527E5920768F48B32D4
:101FB00021E4920749F08832924431F087E890E0BA
:101FC00008958C329846D1F788EC90E00895E8EDBA
:101FD000F0E080818E7F80831092E2001092DA0020
:101FE0001092E100A0EEB0E08C9181608C93808132
:101FF0008F77808319BCA7EDB0E08C918E7F8C9396
:1020000080818F7E80831092150308952091E400D3
:102010003091E50095E6A9012091EC00822F8170B6
:1020200020FF06C08091E80080FF06C080E0089590
:102030002091E80022FD1AC080913A03882389F09C
:10204000853089F08091EB0085FD0FC02091E40080
:102050003091E50042175307F9F29150E1F684E020
:10206000089582E0089583E0089581E00895EF9255
:10207000FF920F931F93CF937C018B010E94061058
:10208000C82F811117C08091E80085FD0BC0809199
:10209000E8008E778093E8000E940610882399F369
:1020A000C82F08C0F70181917F018093F100015092
:1020B000110949F78C2FCF911F910F91FF90EF904D
:1020C000089580913C0387FF13C08091E80082FF50
:1020D00006C08091E8008B778093E80004C080916F
:1020E0003A038111F2CF089580913A038823D9F3FE
:1020F0008091E80080FFF8CF8091E8008E77ECCFE8
:10210000982F9093E900242F762F50E0891731F013
:102110007091EC002091ED005091F00021FD07C07E
:102120009F5F973071F78093E90081E008953091C7
:10213000EB003E7F3093EB003091ED003D7F30931C
:10214000ED003091EB0031603093EB007093EC00C8
:102150002093ED005093F0002091EE0027FDE0CF9A
:1021600080E00895B0E0A0E0E8EBF0E10C946D3081
:10217000C8EDD0E088818F7E8883E7EDF0E0808134
:102180008160808384E082BF81E080931503888131
:102190008E7F888302EE10E0F80110821092DA0040
:1021A00081EEC82ED12CF601108288818F7788832A
:1021B00088818068888388818F7D888319BC10928C
:1021C0003A0310923B03109239031092380390EEB9
:1021D000E92EF12CF70180818B7F808388818160DB
:1021E000888342E060E080E00E948010F6018081F8
:1021F0008E7F8083F8018081816080838081886008
:102200008083F70180818E7F8083888180618883CD
:10221000CDB7DEB7E8E00C948930FC018091420331
:102220009091430386179707A0F06115710529F473
:102230009091E8009E779093E80090E06115710519
:1022400051F4911108C08091E80082FF34C080E011
:102250000895BC01F2CF80913A038823C1F1853003
:10226000C1F18091E80083FD30C08091E80082FDDB
:10227000EACF8091E80080FFE1CF8091F3002091C8
:10228000F200382F6115710519F02830310558F02A
:1022900091E02830310509F090E02091E8002E7798
:1022A0002093E800CBCF81918093F10061507109B8
:1022B0002F5F3F4FE7CF80913A03882341F085306D
:1022C00041F08091E80083FFBECF81E0089582E075
:1022D000089583E00895089580911703089587E78E
:1022E00097E7909301088093000888E19AE00FB681
:1022F000F894A895809360000FBE90936000FFCF84
:102300002FB7F89460910C0370910D0380910E0328
:1023100090910F032FBF0895209131012223C9F01E
:102320002091100327FF15C0E62FE695E695E69568
:10233000EE31D8F4E80FF92FF11D677021E030E09D
:1023400001C0220F6A95EAF7209582812823228313
:102350000895FC01329608962191621303C0DF01B3
:1023600011971C92E817F907B9F7089520913101E8
:102370002223C1F02091100327FF14C0E62FE69519
:10238000E695E695EE31F8F4E80FF92FF11D677048
:1023900021E030E001C0220F6A95EAF78281822BAA
:1023A00082830895FC0132962FEF30E0419164174B
:1023B00051F02F3F19F4411101C0232F3F5F3630F8
:1023C000A9F72F3F09F40895820F911D27FD9A95D3
:1023D000FC01628308952091090330910A032817B4
:1023E000390771F090930A0380930903E091070382
:1023F000F0910803309721F00084F185E02D0995D4
:10240000089520910503309106032817390771F0CC
:102410009093060380930503E0910703F09108036E
:10242000309721F00680F781E02D09950895E0911D
:102430000703F0910803309729F00190F081E02D17
:102440000995089580E008952091440336E0839F24
:10245000C0011124629F800D911D1124811524E07B
:10246000920714F090E080E0835B9C4F90934E07BE
:1024700080934D0708954091F4028D3E59F4809168
:10248000F50287FF0DC01092F50241110BC01092AA
:10249000EC0208C08E3E81F48091F50218169CF380
:1024A000442381F08091F6029091F702892B09F084
:1024B0005AC01092EB0208958F3E49F447FFF0CFC7
:1024C0001092F4028091F5028111ECCFE0CF803FB1
:1024D00019F41416ACF3E4CF9091F602893F29F475
:1024E0001916F4F61092F602DBCF8A3F19F497FF23
:1024F000D7CFF8CF9091F7028B3F29F497FFD0CF39
:102500001092F702CDCF8C3F19F41916CCF3C8CF37
:102510009FE0980F983090F4815F990B21E030E0B4
:10252000B90102C0660F771F8A95E2F7CB0180954B
:102530009091F30289238093F302B2CF8D3F31F45F
:102540008091ED028E7F8093ED02AACF8E3F21F421
:102550008091ED028D7FF7CF8F3F09F0A1CF809161
:10256000ED028B7FF0CF08958091ED0280FD16C0C3
:1025700081FD16C082FD16C08091EB028823A1F078
:10258000883280F428E0829FC001112468E270E064
:102590000E94A630862F672B39F0089582E00895B7
:1025A00084E0089588E0089581E008958091ED0227
:1025B00080FD14C081FD14C082FD16C08091EC0224
:1025C000882381F08E3180F420E5829FC0011124A0
:1025D0006EE170E00E94A630862F089584E1089590
:1025E00088E2089588E0089580E508958D3E31F4ED
:1025F0000E94D61281958093F50208958E3E19F4BB
:102600000E94D612F8CF8F3E31F40E94D6128195E7
:102610008093F4020895803F19F40E94D612F8CFF7
:10262000893F29F40E94B4128093F60208958A3FEC
:1026300021F40E94B4128195F7CF8B3F31F40E94B0
:10264000B41281958093F70208958C3F19F40E948B
:10265000B412F8CF9FE0980F983070F4815F990B17
:1026600021E030E001C0220F8A95EAF78091F30261
:10267000822B8093F30208958D3F31F48091ED0217
:1026800081608093ED0208958E3F21F48091ED02E8
:102690008260F7CF8F3FB9F78091ED028460F1CF70
:1026A00080E00895F894E82FE295EF70F0E031A112
:1026B000282F2F7081E090E001C0880F2A95EAF75B
:1026C000982F9095932391A392A1892B82A378941C
:1026D00008959091100392FF06C0282F287128308A
:1026E000F9F4877F846093FF06C0282F2871283172
:1026F000F1F4877E84612091110320FF06C0382FFA
:1027000038713830D9F4877F816021FF06C0282FC7
:1027100028712831D1F4877E816194FD877E0895E8
:10272000282F24712430F9F68B7F8860DCCF282F86
:102730002471243101F78B7E8861DDCF382F317110
:10274000313019F78E7F8860E0CF282F2171213139
:1027500021F78E7E8861E1CF972F7530A8F46A301B
:1027600098F470E02AE0929F600D711D1124FB0126
:1027700092E3899FE00DF11D1124EE0FFF1FE45736
:10278000FB4E85919491089580E090E00895CF9359
:10279000DF93EC0182389105B1F108F040C081333C
:1027A000910509F49DC048F58932910509F48DC061
:1027B0008A9709F49CC0C11521E5D20708F0C3C06F
:1027C000C11530E5D30708F01EC1C83ED10508F099
:1027D000A3C0C03ED10588F5C83AD10508F08EC027
:1027E000C53AD10508F007C1C130D10531F12097B4
:1027F00021F1C430D10508F545C08533910509F4B0
:102800005FC0C997C1F680911003837009F043C17E
:102810008091110383FF11C0C9E2D0E00EC0833E56
:10282000910599F170F4803E910501F1823E910588
:1028300011F68091100382FD21C0CE01DF91CF916E
:102840000895863E910561F1873E910571F1843EC0
:10285000910509F0B0CF8091110381FFEECF8091F7
:102860001003C7EED0E084FD0DC0E7CF80911003C8
:1028700080FD33C09091110390FFDFCFC3EED0E015
:1028800084FFDBCFD0E0C0E0D8CF8091100382FD81
:10289000FFC09091110390FDFEC084FFCECFF2CF18
:1028A0008091100383FDDDCFC8CF8091100383FD9D
:1028B000F5C09091110391FFF0CFC4EED0E0BDCFF1
:1028C0008091100385FFB9CFA7CF8091100385FDBC
:1028D000E8C08091110383FFB0CFC9E3D0E0ADCF52
:1028E0008091100386FFA9CFCAE2D0E0A6CF8091E5
:1028F000100386FFA2CFC1E3D0E09FCFCF3BD1052D
:1029000008F6C85AD0E0CC0FDD1FC65BDE4F099039
:10291000D881C02DD46491CFC11540E2D40758F4BA
:10292000C11581E0D80708F088CFCD3ED10508F465
:10293000A9CFD06582CFC11520E4D20708F4A2CF79
:10294000DF70D06A7ACFC11535E5D30718F5C11508
:1029500044E5D40708F084C0C11583E5D80708F022
:102960006BC0C11522E5D20708F461C0CE018370A7
:10297000992721E030E002C0220F331F8A95E2F749
:10298000C695C69580E2C89FE0011124C22BD32BC7
:10299000DC6853CFC11539E5D307A8F4C11548E564
:1029A000D40708F062C0C11586E5D80708F06ACFE1
:1029B0008C2F0E946913C82FD0E0DC2FCC27CC27A6
:1029C000DF71D0623ACFC1152AE5D20708F452C0B0
:1029D000CE0190568115904208F054CF8D2F8F7103
:1029E0000E94691390E0982F882788279F719C0187
:1029F0002C2BE901E6CFC55AD0E0C95BDE4FC88178
:102A0000D0E0D0641ACFCE018370992721E030E066
:102A100002C0220F331F8A95E2F7C695C69540E2A1
:102A2000C49FE0011124C22BD32BDD6806CFDC2F1D
:102A3000CC27C16FD06A01CFCE018370992721E0E6
:102A400030E002C0220F331F8A95E2F7C695C69583
:102A500040E2C49FE0011124C22BD32BDA68EDCEF3
:102A6000DC2FCC27C46FD06AE8CEDC2FCC27C06F18
:102A7000D06AE3CE8C2F8F700E94691334E0D69514
:102A8000C7953A95E1F7CF709C2FEC01D069D5CE70
:102A9000C2EED0E0D2CEC0EED0E0CFCEC6EED0E0D7
:102AA000CCCEC5E3D0E0C9CE809132028111109224
:102AB0003202089580959091010398239093010329
:102AC00008958095909102039823909302030895AE
:102AD000209110029091DF0156E0291302C080E09E
:102AE000089530E0529FF001539FF00D1124E05201
:102AF000FE4F7181761306C07081781303C0728116
:102B0000741304C02F5F3F4F2770E7CF81E0089513
:102B1000452B39F0682381E06F3F09F080E0817038
:102B2000089581E0FCCF809110029091DF0198130D
:102B300001C008958F5F8770FACFB0E0A0E0E3EAAC
:102B4000F5E10C946C307C010091A6021091A70273
:102B50008091330290913402082B192BCFE0D0E002
:102B6000CC24C394D12CBC2EC6010C2E02C0880FDD
:102B7000991F0A94E2F780239123892B49F4219726
:102B800090F7B12C8B2DCDB7DEB7E9E00C948830EF
:102B9000B7018C2F0E94AC130E94C713019779F3E1
:102BA000F1CFCF93DF93EC010E949D15BE010E94EF
:102BB000AC130E94C713DF91CF910895953078F53B
:102BC0008A3068F5E82FF0E08AE0989FE00DF11D6B
:102BD00011249E2F977083E0F695E7958A95E1F78B
:102BE000EE0FFF1FEE0FFF1FE354FE4F50E040E0DB
:102BF00080E0219130E0092E02C0369527950A9495
:102C0000E2F721703327042E01C0220F0A94EAF75D
:102C1000822B4F5F5F4F4430510559F7089580E094
:102C20000895953098F58A3088F5E82FF0E08AE02D
:102C3000989FE00DF11D11248E2F877041E001C097
:102C4000440F8A95EAF783E0F695E7958A95E1F7D0
:102C5000EE0FFF1FEE0FFF1FE354FE4F30E020E0AA
:102C600070E05191DF011197CB01022E02C09695C1
:102C700087950A94E2F781708195852784238527BB
:102C80008C932F5F3F4F2430310559F708950F93F0
:102C90001F93CF938C01FC0143815481618180811A
:102CA0000E948815C82F811123C0F801808191816D
:102CB0000E94D11592959F709630A9F058F4925FBA
:102CC0009F70923058F4803F19F030F4883E30F411
:102CD000C1E004C09A5FF4CF843FD1F38C2FCF9131
:102CE0001F910F910895883E98F3813FB9F7F0CF77
:102CF000C0E0F4CFA5E0B0E0E0E8F6E10C9472307B
:102D000025E0FC01DE01119601900D922A95E1F774
:102D1000FC01228189819A81222399F0662389F01E
:102D20000E949D15182F682F89819A810E94111683
:102D300069817A81812F0E94AC132596E3E00C947F
:102D40008E300E94DE15182FF3CF892F8170886096
:102D500008958091A0028531F8F48091BB0190E044
:102D6000019665E070E00E94A6308093BB0124E0EC
:102D700030E0281B390B4CE752E0249FC001259F0F
:102D8000900D349F900D1124805E974F0E948C0F00
:102D9000089584EA95E0FACF8832D8F38091BA0199
:102DA00090E00196817099278093BA0121E030E08C
:102DB000281B390B4CE752E0249FC001259F900D42
:102DC000349F900D112484559F4FE0CFB0E0A0E0D8
:102DD000ECEEF6E10C946D306C017B0164E670E082
:102DE00088E70E94692FEC0197FD12C010E000E017
:102DF000F601E00FF11F849164E670E00E94D52F88
:102E0000EC01892B29F40F5F1F4F0E151F0581F769
:102E10000E944B30CE01CDB7DEB7E8E00C9489308C
:102E20008091FC029091FD02911103C091E08927ED
:102E30000895882369F062E070E081E298E10E94E1
:102E4000E616892B19F08091FC0208951092FC027D
:102E50008091FC02EBCFCF93C091FC028091FD02E8
:102E60008823D1F00E948011605A75418F4F9F4F87
:102E70006093F8027093F9028093FA029093FB0238
:102E8000C11108C062E070E08FE198E10E94E6168F
:102E9000892B29F0C091FC028C2FCF91089581E0FD
:102EA0008093FC02F7CFCF93DF93C0914D07D09171
:102EB0004E078A30C1F420914403CE018D549340D3
:102EC000622F70E00E944F30281B822F66E00E9424
:102ED0009A30C82FC15018F4DF91CF91089580E245
:102EE0000E945317F7CF8D30E9F4CD54D340209191
:102EF0004403622F70E0CE010E944F30281B822FC6
:102F00009E01280F311D2115344018F080E0D0E0DB
:102F1000C0E0C80FD11DC35BDC4FD0934E07C093F8
:102F20004D07DACF96E0FE01A5E4B3E001900D92E3
:102F30009A95E1F7803E08F458C086E0FE011192B0
:102F40008A95E9F7C0914D07D0914E0746E050E0D1
:102F5000BE0185E493E00E942C319E012D54334044
:102F6000892B41F1C90146E0969587954A95E1F78D
:102F700041E050E0BA0102C0660F771F8A95E2F780
:102F8000CB0160914B0370914C03862B972BB901B9
:102F90006B5F7F4FE6E076956795EA95E1F702C0B3
:102FA000440F551F6A95E2F7842B952B90934C03A1
:102FB00080934B032A5F3F4F40914403642F70E09E
:102FC000C9010E944F30481B463010F4240F311DB8
:102FD000211574E0370710F030E020E0235B3C4F10
:102FE00030934E0720934D0777CFF6E08F9FB001C7
:102FF00011246656764E46E050E0CE010E94233101
:10300000A1CFCF93DF93EC01FE018491811103C026
:10301000DF91CF9108950E9453172196F5CF8091AB
:10302000020390910103892B80939A0190913202BF
:103030009923A1F0892B80939A01809131018823F3
:10304000E1F18091100387FF38C08EE1ECE9F1E0F7
:1030500090E08150A0F591110E94541540E250E09B
:1030600062E172E08AE991E00E942C31892B21F122
:1030700080E2EAE9F1E0A2E1B2E001900D928A95E6
:10308000E1F7E0910703F09108033097A9F08091F0
:103090003101882359F08091100387FF07C0809188
:1030A0009A0180939B0186E080939A010280F381CC
:1030B000E02D8AE991E00995089586E0C7CF219136
:1030C000222339F29F5FC5CFCF93DF93EC01EA85CE
:1030D000FB85309719F06C857D8509958B810E9461
:1030E0005A158C810E9461150E940F1886E0FE011E
:1030F00011928A95E9F7DF91CF910895CF93DF93ED
:10310000EC018D8181FD18C082608D838091010367
:103110009B81892B80930103809102039C81892BE1
:10312000809302030E940F18E885F985309721F0FB
:103130006C857D85CE0109951092040310920303DE
:103140008D8180FD03C0CE010E946418DF91CF9174
:103150000895882321F00E945A150E940F1808959F
:10316000882339F090910103982B909301030E94DA
:103170000F180895882321F00E9461150E940F18EE
:103180000895882339F090910203982B90930203BD
:103190000E940F1808950F931F93CF93DF93EC01B4
:1031A000FC0101900020E9F78F0101501109C017BF
:1031B000D10728F0DF91CF911F910F910895899148
:1031C0000E945317F4CF80931203709314036093FB
:1031D000130380913A03843001F582E08093E90083
:1031E0008FEF9091E800815095FD06C095ED9A957E
:1031F000F1F700008111F5CF8091E80085FF0DC047
:1032000050E040E063E070E082E193E00E9437101C
:103210008091E8008E778093E8000895BC0184E0F7
:103220000E94E3180895BC0183E00E94E31808950A
:103230009C0182E08093E9009FEF8091E80091502B
:1032400085FD06C085ED8A95F1F700009111F5CF57
:103250008091E80085FF0CC050E040E066E070E03F
:10326000C9010E9437108091E8008E778093E800B2
:103270000895CF93DF93EC01809131018823B1F160
:103280008091100387FF32C060E282E08093E90002
:103290008FEF9091E800815095FD06C095ED9A95CD
:1032A000F1F700008111F5CF8091E80085FF1BC088
:1032B0008091310170E050E040E0811104C050E0A5
:1032C00040E068E070E0CE010E9437108091E80095
:1032D0008E778093E80080E2FE01A8E1B3E00190E0
:1032E0000D928A95E1F7DF91CF91089568E081E032
:1032F000CDCFCF9384E090E00E943931C82F82E295
:1033000090E00E943931982F8C2FCF91089568EE6C
:103310007EEF90E080E00E94653160E082E090E026
:103320000E94473160E083E090E00E9447311092B4
:1033300034021092330260E084E090E00E94473152
:1033400064E082E290E00E94473160E085E090E036
:103350000E94473160E086E090E00E9447316FEFC5
:1033600087E090E00E94473140E050E0BA0188E0F9
:1033700090E00E94593160E08DE090E00E9447317A
:1033800040E050E0BA0188E190E00E94593160E0ED
:1033900087E190E00E94473140E050E0BA018CE1C3
:1033A00090E00E94593170E060E080E290E00E947D
:1033B000653140E050E0BA0188E190E00E94593167
:1033C00040E050E0BA018FE090E00E94593140E0C7
:1033D00050E0BA0183E190E00E94593108951F92B4
:1033E0000F920FB60F9211242F933F934F935F9339
:1033F0006F937F938F939F93AF93BF93EF93FF93BD
:103400008091E10082FF09C08091E20082FF05C047
:103410008091E1008B7F8093E1008091DA0080FF52
:1034200024C08091D80080FF20C08091DA008E7F78
:103430008093DA008091D90080FF9DC080E189BD32
:1034400082E189BD09B400FEFDCF81E080933A039B
:1034500080911503811109C00E94E70F0E94B210EC
:103460008091E20084608093E2008091E10080FF1F
:1034700017C08091E20080FF13C08091E2008E7F30
:103480008093E2008091E20080618093E20080916D
:10349000D80080628093D80019BC85E080933A03FD
:1034A0008091E10084FF2BC08091E20084FF27C05F
:1034B00080E189BD82E189BD89B5982F917080FF37
:1034C000FBCF8091D8008F7D8093D8008091E10060
:1034D0008F7E8093E1008091E2008F7E8093E200F6
:1034E0008091E20081608093E20080913B03882319
:1034F00009F447C084E080933A0380913A038091B5
:10350000E10083FF27C08091E20083FF23C0809108
:10351000E100877F8093E10082E080933A0310927C
:103520003B038091E1008E7F8093E1008091E20077
:103530008E7F8093E2008091E20080618093E200C0
:1035400042E060E080E00E9480108091F00088609E
:103550008093F000FF91EF91BF91AF919F918F9178
:103560007F916F915F914F913F912F910F900FBE7F
:103570000F901F90189519BC10923A0310921503E2
:1035800074CF8091E30087FD93E090933A03B5CF29
:1035900078941F921FB61F9211248F939F93AF931D
:1035A000BF9380910C0390910D03A0910E03B091F5
:1035B0000F030196A11DB11D80930C0390930D0381
:1035C000A0930E03B0930F03BF91AF919F918F9182
:1035D0001F901FBE1F9018959C014FB7F8948091C3
:1035E0000C0390910D03A0910E03B0910F034FBFF8
:1035F000821B930B08952FB7F89480910C03909140
:103600000D03A0910E03B0910F032FBF08950E94E8
:10361000FB1A9C019091F4028091F502982B21F005
:103620003093F1022093F0029091F6028091F7021C
:10363000982B21F03093EF022093EE02E0910703E4
:10364000F0910803309749F082E08093F202048001
:10365000F581E02D82EF92E00995089590E080E0F9
:103660000E94011290E080E00E94EB111092010391
:103670000E940F1886E0E2EFF2E0DF011D928A95CA
:10368000E9F71092EC021092EB021092ED020E9408
:10369000071B08959093A7028093A6020E942E1BF9
:1036A000089521E030E002C0220F331F8A95E2F72F
:1036B000209530958091A6029091A70282239323B2
:1036C0000E944A1B0895909111028095892380934E
:1036D0001102282F277091F4282F082E000C330B8D
:1036E0009217130659F09091110392FF07C0859528
:1036F000859585950E94511B109211020895CF93D4
:10370000C0911103C2FB992790F9981791F080FBA3
:10371000C2F9C09311036091100384E090E00E940D
:1037200047316C2F82E290E00E94473182E00E9494
:10373000631BCF91089521E030E002C0220F331FB8
:103740008A95E2F78091A6029091A702822B932B93
:103750000E944A1B089590933402809333020E9482
:103760002E1B08951092020380913101ECE9F1E0E3
:10377000882361F08091100387FF08C08EE1DF018C
:103780001D928A95E9F70E942E1B089586E0F7CFD7
:10379000AAE2B0E0EEECFBE10C9472308CE393E033
:1037A0002091F100FC012193CF01F3E084349F07C5
:1037B000B9F780913D03833009F470C0B8F48130CB
:1037C00009F447C0823009F4B1C08091E80083FF5A
:1037D0007EC280913C0390913D039A3008F077C2FD
:1037E000E92FF0E0E358FE4C0C94FB308A3009F4EA
:1037F0008CC08B3009F46FC0893039F780913C035D
:10380000813219F780914003909141030297E8F6C5
:103810008091E800877F8093E8008091E80082FF34
:1038200038C09091F3008091F200029731F48091BA
:10383000F100813011F0863021F48091F100809305
:1038400017038091E8008B778093E8000E94611055
:10385000BCCF80913C03813A09F0B7CF8091E8005A
:10386000877F8093E8008091400390914103892BEA
:1038700061F460E288E193E070E00E940D118091B4
:10388000E8008B778093E800A0CF60E090E080E0D4
:10389000F3CF80913A038111C0CF97CF80913C0341
:1038A000813A09F092CF8091400390914103892B96
:1038B00009F08BCF8091E800877F8093E8008091AA
:1038C000E80080FFFCCF809131018093F10080916E
:1038D000E8008E77B9CF80913C03813209F075CF33
:1038E0008091400390914103892B09F06ECF809124
:1038F000E800877F8093E8000E94611080913E037A
:10390000809331010E94B21B60CF80913C038132D1
:1039100009F05BCF8091E800877F8093E8000E94E8
:10392000611080913F03809316034FCF80913C0339
:10393000813A09F04ACF8091E800877F8093E800C0
:103940008091E80080FFFCCF80911603BECF8038C5
:1039500099F0823809F0BBC1809140038F708730A5
:1039600008F0B5C18093E9008091EB0085FB8827C2
:1039700080F91092E90006C08091380390913903D4
:10398000911182609091E800977F9093E800809376
:10399000F1001092F1008091E8008E7794C18823A5
:1039A00009F482C1823009F092C180913E038111F5
:1039B00085C1809140038F702FEF280F263008F0CB
:1039C00086C18093E9002091EB0020FF77C19330FE
:1039D00031F48091EB0080628093EB006FC1909195
:1039E000EB0090619093EB0021E030E001C0220FEA
:1039F0008A95EAF72093EA001092EA008091EB00A2
:103A00008860EACF811163C110913E031F778091D6
:103A1000E3008078812B8093E3008091E800877F2A
:103A20008093E8000E9461108091E80080FFFCCF45
:103A30008091E30080688093E30082E0111183E0CD
:103A400080933A0344C18058823008F040C180918D
:103A50003E0390913F038C3D23E09207A1F583E064
:103A60008A838AE289834FB7F894DE01139620E0B7
:103A70003EE051E2E32FF0E050935700E49120FF45
:103A800003C0E295EF703F5FEF708E2F90E0EA3059
:103A9000C0F0C7968D939D932F5F243159F74FBF88
:103AA0008091E800877F8093E8006AE270E0CE01B1
:103AB00001960E940D118091E8008B778093E800B9
:103AC00006C1C096E7CF4091400350914103292F92
:103AD00033272330310509F444C078F5213031050E
:103AE00009F46FC08BE390E0E9E1F9E122303105A0
:103AF00009F0EDC02091E800277F2093E800209195
:103B00004203309143038217930708F49C0140E07D
:103B10002115310509F064C0411162C08091E800AF
:103B200082FDC9CF80913A03882329F2853019F2AA
:103B30008091E80083FFF2CFBECF21323105A9F199
:103B40002232310509F0C3C04115510509F443C0C3
:103B50004130510509F0BBC086EB90E0E3E2F8E1AB
:103B6000C9CF992781309105C1F0009759F002978C
:103B700009F0ADC0E6E6F9E1E4918E2F90E0E6E6CB
:103B8000F9E107C0E6E9F9E1E4918E2F90E0E6E97A
:103B9000F9E1009709F49BC0ADCFEEE7F9E1E491BC
:103BA0008E2F90E0EEE7F9E1F4CF4115510571F069
:103BB0004130510509F08BC089E090E0E4E4F9E17F
:103BC00099CF82E190E0E4E5F9E194CF89E090E0DB
:103BD000EBE2F9E18FCF80E490E0E9EDF8E18ACF04
:103BE00080913A03882309F466CF853009F463CFC6
:103BF0008091E80083FD5FCF8091E80082FD8ECF49
:103C00008091E80080FF84CF9091F3008091F200D2
:103C10002115310519F08830910550F041E00897E1
:103C200009F040E08091E8008E778093E80070CF43
:103C300044914093F1003196215031090196E8CF2B
:103C4000803809F044C08091E800877F8093E800C5
:103C500080913B038093F1009ECE811138C010917A
:103C60003E031230A0F58091E800877F8093E80042
:103C700010933B030E946110112311F084E005C0F2
:103C80008091E30087FDFACF81E080933A0342E020
:103C900061EC81E00E94801042E261EC82E00E94CF
:103CA000801080913A0313C080913E03813079F4F3
:103CB00081E0933009F080E0809339031092E900AD
:103CC0008091E800877F8093E8000E9461108091D6
:103CD000E80083FF0AC08091E800877F8093E800B6
:103CE0008091EB0080628093EB00AA96E3E00C9455
:103CF0008E301F920F920FB60F9211242F933F9385
:103D00004F935F936F937F938F939F93AF93BF93E3
:103D1000CF93DF93EF93FF93D091E900DF70809111
:103D2000EC00C82FC17080FDC0E81092E9008091BE
:103D3000F000877F8093F00078940E94C81B109257
:103D4000E9008091F00088608093F000CD2BCF7067
:103D5000C093E900FF91EF91DF91CF91BF91AF91B7
:103D60009F918F917F916F915F914F913F912F9193
:103D70000F900FBE0F901F9018950E94B21B2FEF4F
:103D800084E39CE0215080409040E1F700C00000B7
:103D900088E19AE00FB6F894A895809360000FBE72
:103DA00090936000FFCF882391F19CEF980F913A98
:103DB00040F4682F8AE991E00E948C110E940F184C
:103DC000089590E2980F983050F4877091E001C008
:103DD000990F8A95EAF7892F0E946115EFCF9BE52D
:103DE000980F933028F490E080E00E94011208952B
:103DF00098E5980F973128F490E080E00E94EB114D
:103E000008958D3E20F00E943B120E94071B0895EA
:103E1000CF93C82F8823D9F18CEF8C0F813AC8F546
:103E200080913101882311F18091100387FF1EC01A
:103E3000EC2FE695E695E695F0E0E656FE4F82819A
:103E400090E04C2F477021E030E002C0220F331F7A
:103E50004A95E2F782239323892B91F06C2F8AE90C
:103E600091E00E948C110E940F180AC0ECE9F1E069
:103E700082EA91E02191C21789F38E179F07D1F74B
:103E80006C2F8AE991E00E94B6110E940F18CF9121
:103E9000089580E28C0F883068F4C77021E030E02C
:103EA00001C0220FCA95EAF780910203822B80930A
:103EB0000203EBCFEBE5EC0FE33040F4F0E0E95B1D
:103EC000FE4F808190E00E940112E1CFE8E5EC0F07
:103ED000E73150F4F0E0EE0FFF1FE65BFE4F80810C
:103EE00091810E94EB11D3CFCD3E88F28C2F0E949E
:103EF000F6120E94071BCBCF1F93CF93DF93182F8F
:103F0000EB010E94081F209739F4812F0E94D31ED5
:103F1000DF91CF911F9108958FE99FE00197F1F70D
:103F200000C000002197EFCFB0E0A0E0EAE9FFE198
:103F30000C946D306B01C42FD22FFC018281882339
:103F4000A9F0409300030E94FB1A9093FF02809314
:103F5000FE02C77081E001C0880FCA95EAF70E948F
:103F6000C118CDB7DEB7E8E00C948930109100039A
:103F7000141339C08091FE029091FF020E94EC1A46
:103F80007C01C6010E94CF0FE816F90660F5C0E279
:103F9000CD0F1D17C1F080E2810F883048F41770F3
:103FA00081E0012E01C0880F0A94EAF70E94BA1836
:103FB000C83048F481E09D2F977001C0880F9A9512
:103FC000EAF70E94C11870E060E0802F0E947C1F19
:103FD000C83038F6D77081E001C0880FDA95EAF76B
:103FE0000E94BA18BECFC77081E001C0880FCA9581
:103FF000EAF7F6CF0F931F93CF93DF93C82F8B0170
:104000000E94A516D82F0E94B0188C2F0E94081F5E
:104010000115110559F48C2F0E94D31E8D2F0E947B
:10402000A918DF91CF911F910F9108958FE99FE01B
:104030000197F1F700C0000001501109E9CFFC0120
:104040008281813031F470E060E089E20E947C1F5F
:104050000895823021F470E060E083EEF7CF833082
:1040600031F470E060E087E398E00E94FA1F089561
:10407000FC018281813031F470E060E089E20E94CD
:104080007C1F0895823039F470E060E08CE298E0A3
:104090000E94FA1F08958330E9F770E060E08CE237
:1040A00099E0F6CFAAE0B0E0E8E5F0E20C946930E0
:1040B0008E010F5F1F4F8AE0F80111928A95E9F790
:1040C00098E7E92E91E0F92E6801AA24A394B12C77
:1040D000F70181917F018F3F09F446C0F894E82FE2
:1040E000E295EF70F0E021A18F70A50102C0440FAE
:1040F000551F8A95E2F7CA01922F982B91A392A19E
:104100008095892382A3789400C0EDE7F1E021E057
:1041100030E0912C812C41914F3F09F467C0A42FCE
:10412000A295AF70B0E090968C9190E04F7002C075
:10413000959587954A95E2F780FD58C0C901882A70
:10414000992A220F331F51E0E738F50721F7F701CD
:10415000319780818F3F11F00E94521380EA8A9537
:10416000F1F7F60191828082F2E0CF0ED11C4DE78B
:10417000E41641E0F40609F0ABCF4AE050E0B801A4
:1041800088E392E00E942C31892B99F18AE0F801B2
:10419000A8E3B2E001900D928A95E1F781E0809367
:1041A00037020E94FB1A9093360280933502809169
:1041B0003502909136020E94EC1A0597F0F04AE021
:1041C00050E068E372E084E492E00E942C31892B95
:1041D000C9F08AE0E8E3F2E0A4E4B2E001900D92D5
:1041E0008A95E1F781E01092370208C090E080E004
:1041F000A6CF809137028111DACF80E02A96ECE0D9
:104200000C94853080E0EFCFB0E0A0E0EAE0F1E28E
:104210000C946B307C01DC0113964D915C911497EA
:1042200011966C9111978C910E948815C82E81115E
:1042300028C161E0C7010E947A16EC01F701828172
:10424000882309F447C0CE0190568115F0E29F07FC
:1042500050F0905E811520E1920728F0915C811565
:104260009F4108F0CFC0CE0199279C01245031090D
:104270002432310518F08B970E9780F4E09161029B
:10428000F0E0EE0FFF1FEA59FD4F808191818F3FD3
:10429000AFE79A0719F00196918380838091030319
:1042A000909104030097B1F0C817D90799F0BEE0C8
:1042B0008B9FC0011124FC01EF5EFE4F2081246022
:1042C0002083845F9E4FFC01D183C0830E947E18AF
:1042D00010920103CE0197558F3F910511F008F020
:1042E000A5C05E01BB242EE0C29FF00111248F0106
:1042F000045F1E4FD70112968C91EF5EFE4F9081A6
:1043000080FB90F99083882309F488C00E94FB1AEF
:1043100090935A0280935902F80182818F5F8283C1
:104320008091010390910203892B83838091320253
:1043300084830680F781E02D309731F0D8011C96F8
:104340006D917C91C80109958EE08A9DF0018B9D4D
:10435000F00D1124E45FFE4F858181FF5CC090E089
:1043600080E09093030380930403D70112968C910D
:10437000882309F45BC410920003C430BDE5DB0759
:1043800008F0B2C0CB3FECE5DE0730F4CE0182503E
:104390009C45449708F0B3C00E947919909311038B
:1043A00080931003C2318CE5D80709F4B0C108F03E
:1043B00001C1C930ACE5DA0709F487C108F0CDC006
:1043C000C530ECE5DE0709F474C108F0B5C0C330B0
:1043D0002CE5D20709F465C108F067C1C230DC459D
:1043E00009F457C160911003C091110384E090E07B
:1043F0000E9447316C2F82E290E00E9447310E9478
:10440000B21B30C090E080E0CF3FD10511F008F042
:104410002CCFCE012ACF9C2F8D2FA3CFF8018581E1
:1044200081FFA3CFC8010E9464189FCFC43FFCE561
:10443000DF0709F441C050F5C93D3CE5D307B1F1B0
:10444000CA3D8CE5D80709F449C0C83D9CE5D907A9
:1044500009F08BCF06E221EE41EE68ED7CE5C70165
:104460000E94941F80911102877059F0F701828198
:10447000882339F08091110382FF03C082E00E94FB
:10448000631BCDB7DEB7EAE00C948730C63FACE5DE
:10449000DA07F1F0B8F0C73FECE5DE0709F065CFC9
:1044A00007E225EE46EE67EF7CE5D9CF07E225EE81
:1044B00045EE69ED7CE5D3CF06E221EE40EE64EFF8
:1044C0007CE5CDCF07E225EE44EE65EF7CE5C7CF76
:1044D00006E221EE42EE66EF7CE5C1CF08E221E084
:1044E00045EE6AED7CE5BBCFC63AFDE5DF0709F492
:1044F00053CFE0F4C2363DE5D30709F44DCFC631C2
:104500008CE5D80709F0A0C3809102038A7A91E074
:1045100009F490E09093BC0169E2811165E38AE9B6
:1045200091E00E94B6110E940F189CCFCE018E5AC6
:104530009D45039720F730CF809110038062C730EC
:104540009CE5D907A1F1809110038061C830DC455A
:1045500070F18091100380642AC0CD30BCE5DB0788
:1045600009F4BDC088F4809110038E7FCB30FCE548
:10457000DF07E9F0809110038C60CC30DC45B8F0A7
:10458000809110038D7F13C0CF303CE5D30709F431
:10459000B6C008F4A8C0C0319CE5D90709F4B3C07F
:1045A000809110038F7BC131DC4509F01BCF8093D4
:1045B000100318CFC115BDE5DB0709F4B2C098F5AB
:1045C000CB3FFCE5DF0709F478C0B8F4C4313CE523
:1045D000D30709F4B4C008F4A0C0C531DC4509F024
:1045E00001CF8091100382FB992790F921E0922757
:1045F00090FB82F990FB83F9DACFCD3FACE5DA0787
:1046000009F475C008F45DC0CE3FECE5DE0709F49F
:1046100072C0809111038360CF3FDC4509F0E2CE88
:1046200080931103DFCEC2362DE5D20709F492C084
:1046300088F4C2308DE5D80709F48AC008F475C043
:1046400060E0C330DD4509F0CDCE8EE090E00E9401
:104650004731C8CECE3ABDE5DB07F9F058F490916A
:104660001003892F8E7F90FF8160C63ADD4509F4E3
:104670009ECFB8CECF3A2DE5D20769F1C03BDD45DC
:1046800009F0B0CE90911103892F877F93FF886046
:10469000C7CF8091100381608ACF80911103886019
:1046A000BFCF80911003826082CF8091100384601D
:1046B0007ECF8091100388607ACF80911103816052
:1046C000AFCF809111038260ABCF0E94B21B80916B
:1046D000100380686CCF80911103877FA1CF8091F8
:1046E00010038B7F64CF80911003877F60CF809110
:1046F00011038E7F95CF809111038D7F91CF809193
:1047000010038F7E54CF809110038F7D50CF0E9475
:10471000B21B809110038F774ACF80911003837F63
:1047200046CF809111038C7F7BCF80911103982F0E
:10473000909591708E7F892B90FB81F971CF0E94AB
:10474000B21B90911003892F97FB87F980582FCFC8
:1047500061E07BCF90911003892F8F7E94FF806161
:1047600026CF0E94B21B9FEFA4E3BCE09150A04073
:10477000B040E1F700C000000E946F11809111036A
:1047800082FB882780F991E089270E947F1BD7014F
:1047900012968C911297CD91DC91882309F445C033
:1047A000CE010E949D15182F682FCE010E94111670
:1047B000BE01812F0E94AC130E94C713D82FC92FAE
:1047C000A82EF7011281D580D2949FE0D922809142
:1047D00011028770C1F01123A9F08C2F807F8034E3
:1047E00021F080E28D0F883070F08091110382FFFC
:1047F0000AC082E00E94631B809111028770CC2462
:10480000C3948111C12CBC2EB2948FE0B822FBE07E
:10481000FB1508F467C0EB2DF0E0E957FE4C0C9453
:10482000FB3081E0B2CF80E0B0CFCE010E94DE1538
:10483000182FBECF0C2F0F70C07F11F00295007F94
:104840001123B9F0002369F080E28D0F883010F059
:10485000A11009C080910203082B009302030E945B
:104860000F188D2F3DC080910103082B0093010389
:10487000F6CF8D2F0E94D31E0023A1F1D05E802F92
:10488000D83010F0A11003C00E94611502C00E9430
:104890005A150E940F1826C00C2F0F70C07FC0320F
:1048A00011F00295007FAA2059F021E0A21609F428
:1048B00066C0112309F470C0DD2009F466C0D1CFB1
:1048C0002091110322FD39C0112381F1002339F019
:1048D00080910203082B009302030E940F1880E0CE
:1048E0000E94081FEB2DE850FF0B349710F40E9434
:1048F0001712CC20B1F08091110280FD12C0D701B7
:1049000012961C928595859585950E949B1BC701E3
:104910000E940421809111028595859585950E94BC
:10492000511B60E0C7010E947A16ABCD80E00E9467
:10493000D31E0023B9F2802FA7CF112399F09091B5
:104940003202802F892BD11003C00E94C118CACF18
:1049500031E0D312FACF22FFC5CF981719F2809316
:104960003202C0CFD11006C00E945415802F0E9481
:10497000BA18B8CF81E0D81609F4B4CFF5CF112317
:1049800031F095E09D1508F4ADCF802FDECFA4E087
:10499000AD1508F4A7CFEACFDD2041F3B9E3AB12A0
:1049A00009C0EFEFF7EE23E0E150F0402040E1F7DF
:1049B00000C000008D2F0E94D31E94CF8C2F8695AF
:1049C0008695837069F0813009F08CCF8D2F9C2FF4
:1049D0009370111102C090E080E00E94EB1182CF31
:1049E0008D2F9C2F9370111102C090E080E00E94E7
:1049F000011278CF8D2F112329F00E94F6120E9408
:104A0000071B70CF0E943B12FACF8C2F837009F0E6
:104A10003FC0111167CF4D2F429546954770440F07
:104A2000440F2D2F2F7030E0042E02C0220F331FB1
:104A30000A94E2F790E080E0D4FF09C08FE090E0B4
:104A400002C0880F991F4A95E2F780959095C69508
:104A5000C695C370C23099F078F4409133025091FA
:104A60003402C13039F0822B932B842395230E948A
:104A7000AB1B38CF242B352B822B932BF8CF822BDB
:104A8000932B209133023091340282279327EFCF6A
:104A90008695112311F08C2F8170882309F422CF81
:104AA0004D2F429546954770440F440F2D2F2F7080
:104AB00030E0042E02C0220F331F0A94E2F790E088
:104AC00080E0D4FF09C08FE090E002C0880F991FFA
:104AD0004A95E2F780959095C695C695C370C23009
:104AE00099F078F44091A6025091A702C13039F0B4
:104AF000822B932B842395230E944A1BF3CE242BD5
:104B0000352B822B932BF8CF822B932B2091A6024F
:104B10003091A70282279327EFCFCF70112329F07E
:104B20008C2F0E949B1B8D2F10CF8D2F0E94BA18A7
:104B30008C2F0E94511BD6CE8D2F32EFA31699F1E8
:104B40003A1570F090EFA916D1F0A1EFAA1691F0E6
:104B5000112309F45BC0D11084CE8C2F8F7127C034
:104B6000B3EFAB1639F1E4EFAE12F2CF809111033F
:104B700082FD2EC08C2F8F711123D9F218C0112302
:104B800069F0F4E0FD1508F4ADCECF7181E090E05E
:104B900002C0880F991FCA95E2F7B8CF25E02D15FE
:104BA00008F4A0CEF2CF8C2F8F711111C2CF0E94CA
:104BB0009B1B98CE90E080E0112309F49DCFCF712C
:104BC00081E090E002C0880F991FCA95E2F794CF68
:104BD000112389F0CF718C2F0E949B1B80911103B0
:104BE00082FF07C038E0C39FC00111248360809317
:104BF00011028C2FDCCF81E00E94631B81E08D15B8
:104C000008F070CE82E00E94631B6CCEDD2059F06C
:104C1000893309F0CFCE9FEFA7EEB3E09150A040CB
:104C2000B040E1F7C5CE8C2F8F7183CFC631DC4504
:104C300009F0ADCD8091BC0169E2811165E38AE99B
:104C400091E00E948C116FCCCB35EDE5DE0709F4C5
:104C5000E8CD68F4C1152CE5D20709F482CDCF3D2B
:104C6000DC4509F094CD0E9487190E94BD1ECD3508
:104C70008DE5D80709F482CD08F4D5CDC83ADD45D5
:104C8000A1F385CDB0E0A0E0E8E4F6E20C946C304E
:104C90008091DE01807F09F050C08091DB01882384
:104CA00009F44BC0C091100286E0B82E8091DF015C
:104CB0008C1709F442C0F090D901E090DA01C0905D
:104CC000DC01D090DD01A6016E2D8F2D0E9488158C
:104CD000D0E0811137C0BC9E8001BD9E100D112413
:104CE000F801E052FE4F81818E112CC080818F111E
:104CF00029C08281811126C0E380F480EC18FD0870
:104D000060E089ED91E00E947A160E94CF0FE816CC
:104D1000F906C0F48091DE018F7080618093DE011E
:104D2000F801EB51FE4F80818F708061808389EDA7
:104D300091E00E9404210E949315CDB7DEB7E9E00F
:104D40000C9488302196C770B1CFA1E1B0E0EBEAB6
:104D5000F6E20C9466308C0185E0F801DE011D96C8
:104D600001900D928A95E1F7D8011296EC9089EDA9
:104D7000A82E81E0B82E8090DC019090DD01A40186
:104D80006091DA018091D9010E94881581116FC16B
:104D9000F801C380D480F090DB01C601881999091D
:104DA0004C01FF2009F41FC15080618060E0C50103
:104DB0000E947A160E94CF0F7090DE018816990625
:104DC00008F0D3C04091DC015091DD01B090D901D1
:104DD000A090DA01872D807F6A2D09F07EC08B2D8F
:104DE0000E948815FE2C81111DC0D80111968C914E
:104DF00011978A1117C08C918B1114C0E11012C049
:104E0000872D8F7080618093DE0189ED91E00E9493
:104E100004218091DE01F80185838F2D6196EFE0FA
:104E20000C948230A601662D852D0E948815D82EFF
:104E300081E08E25D11080E080FF14C04E2D662DBC
:104E4000852D0E946815882369F089ED91E00E9404
:104E5000042186E0E9EDF1E0DF011D928A95E9F792
:104E6000F12CDBCF81E08E25D11080E0B82FB1701E
:104E7000CB2E80FF29C04E2D662D852D0E946815F2
:104E8000D82E811121C05D866E868D859E850E94FB
:104E9000D115292F22952F70223050F0243078F42C
:104EA0009F7051F0F8019581907F31F4FD2CB5CFC2
:104EB0009F7011F08823D1F3805E8830B8F3C80169
:104EC0000E940421DC2CF2CFEE2009F4A6CF8091C1
:104ED000DE0181608093DE01C3CF8B2D0E94881597
:104EE000811119C0D80111968C9111978A1113C0A4
:104EF0008C918B1110C0E1100EC015967C92C801E8
:104F00000E94042186E0F801A9EDB1E001900D9224
:104F10008A95E1F782CFC8010E944716882309F1DC
:104F2000EE20F9F08091DE01803270F02091D901FD
:104F30003091DA0138872F831986DB86CA868C8701
:104F4000CE0107960E94042186E0F801A9EDB1E0A8
:104F500001900D928A95E1F70E944226FF24F39476
:104F60005CCFC8010E940421F9CF872D807F09F40E
:104F70006CCF9090D9018090DA014091DC01509182
:104F8000DD01682D892D0E948815811113C0F8015B
:104F9000818188110FC0808189110CC0E1100AC085
:104FA0007582C8010E94042186E0D5011D928A9570
:104FB000E9F733CFC8010E944716882391F2EE200B
:104FC00081F28091DE01803208F4BECF2091D901B8
:104FD0003091DA013A8329831B82DD82CC828E8371
:104FE000CE010196AFCF60E089ED91E00E947A1684
:104FF0000E94CF0F88169906B8F6FE2CEE2009F411
:10500000B0CFE090D901D090DA014091DC0150910D
:10501000DD016D2D8E2D0E94881581111AC0F801B9
:1050200081818D1116C080818E1113C08091DE01A7
:1050300080FD68CF982F907F09F464CF8583903FDF
:1050400009F45DCF982F907F905F8F70892B8583B7
:1050500056CFC8010E944716811176CF8091DE019C
:1050600081608093DE01C8010E940421D6CEEE202B
:1050700009F477CFC8010E944716F82E882309F457
:1050800070CF86E0F801A9EDB1E001900D928A950C
:10509000E1F78091D9019091DA010E94D1150E9427
:1050A0004226BBCEA7E1B0E0E8E5F8E20C9472300E
:1050B0004B8B5C8B6D8B7E8B8F8B61111092010300
:1050C0001A8A198A85E0FE017396DE011D96019009
:1050D0000D928A95E1F786E0FE013D96DE01179676
:1050E00001900D928A95E1F7CE0107960E94A526C0
:1050F000811111C086E0FE013796DE011196019004
:105100000D928A95E1F74A855B8568858F810E94BB
:105110008815882359F016E0809110029091DF01E4
:10512000891331C06796E3E00C948E302091DF0143
:1051300030E0C90101968770992740911002481705
:10514000190699F096E0929FD001939FB00D11241B
:10515000A052BE4FFE01319601900D929A95E1F753
:105160008093DF010E949315D6CF0E94B21B10924C
:10517000DF011092100286E0E9EDF1E0DF011D92FF
:105180008A95E9F7C8CF819FC001112480529E4FB4
:105190000E94A526882331F28091100290E00196AA
:1051A0008770992780931002B7CF1F921FB61F9266
:1051B00011248F939F93AF93BF9380910B03811121
:1051C00013C080910C0390910D03A0910E03B09138
:1051D0000F034196A11DB11D80930C0390930D0305
:1051E000A0930E03B0930F03BF91AF919F918F9146
:1051F0001F901FBE1F901895CDB7DEB762970FB6F0
:10520000F894DEBF0FBECDBF85B7806885BF85B778
:10521000806885BF84B7877F84BF0FB6F894A89550
:1052200080916000886180936000109260000FBEE2
:1052300080E890E00FB6F89480936100909361004D
:105240000FBE80E593E190939901809398010E94AD
:10525000E70F0E94B2108091E20084608093E20028
:10526000789480913A038823A1F01091E9001F708F
:105270009091EC00892F817090FD80E8182B10929E
:10528000E9008091E80083FD0E94C81B1F70109305
:10529000E90082E084BD93E095BD9AEF97BD8093CD
:1052A0006E0008E711E06DE7E62E61E0F62ED8010A
:1052B0008D918D018F3F11F00E945213E016F1067F
:1052C000B1F70DE711E057E8E52E51E0F52EF801B2
:1052D00081918F018F3F11F00E945213E016F10669
:1052E000B1F78AE0E4E4F2E0DF01282F1D922A956D
:1052F000E9F7E8E3F2E0DF011D928A95E9F790E033
:1053000080E00E944131883E9E4F11F00E94871933
:1053100082E090E00E94393180934E020E94791918
:1053200090931103809310030E945220EFEFF6E751
:1053300021E0E150F0402040E1F700C000000E9471
:1053400052208091460280FF08C06FEF7FEF90E00F
:1053500080E00E9465310E946F1183E090E00E941E
:10536000393190E00E94AB1B1092E80280E88093F4
:1053700044030E94632F6DE070E08FEB97E10E9481
:10538000E616892BE9F58091E80263E070E081FD83
:105390009FC08CEB97E10E94E616892B89F56DE0A2
:1053A00070E08CEA97E10E94E616892B49F50E948D
:1053B0008011605A75418F4F9F4F6093F802709330
:1053C000F9028093FA029093FB02EDE4F3E080E0AF
:1053D00094E0DF019C011D9221503040E1F7F093F1
:1053E0004E07E0934D078FEF9FEF90934C03809310
:1053F0004B0381E08093FD028093FC021092E9024E
:1054000080E091E0909308038093070340E4E42E4A
:1054100080913A0300E112E1853009F497C00E94BF
:1054200052202FE4422E22E0522E34E4832E32E02A
:10543000932E49E552E0D401F201219131918D91F1
:105440009D914E175F0709F48BC028173907A9F300
:10545000F12CF401019111914F01D201AD90BD9059
:105460002D01A016B10659F1A026B126712CCC242D
:10547000C394D12CC5018C219D21892BB1F07C8650
:10548000FD8621E0C8018C219D21892B09F420E0B3
:105490002E870E94FB1A8160782F988B8F874C850E
:1054A0005D856E8588890E9452287394CC0CDD1C22
:1054B000BAE07B12DFCFF201329711830083F394BD
:1054C000E5E0FE12C6CF0E948011FF24F3946BC06A
:1054D00089EB97E160CF80913A03843029F10E94F3
:1054E000101710920B0388E190E00FB6F894A8957E
:1054F000809360000FBEE092600083B7817F84607C
:1055000083BF83B7816083BF7894889583B78E7F8C
:1055100083BF0FB6F894A89580916000886180934E
:105520006000109260000FBE80913903882371F0F3
:105530000E945220E4E4F2E081919191892B09F0DC
:10554000A2C4AEE4B2E0AE17BF07B1F780913A0350
:10555000853009F4C0CF0E94B21B0E9417125FCFA2
:105560002817390709F074CF0E94FB1A8C0180912B
:1055700042029091430208171907A1F08FEF8F8321
:10558000888719860E94FB1A8160782F9B878A87FB
:105590004F81588569858B850E945228109343025C
:1055A00000934202F12C00910303109104030115B2
:1055B0001105D9F08091590290915A020E94EC1A7B
:1055C0006C01C8010E94CF0F8C159D0570F4FEE0A0
:1055D0000F9FC0011124FC01EF5EFE4F208122FDD0
:1055E00004C0845F9E4F0E947E1880906602909057
:1055F0006702092C000CAA08BB088091280190E0E2
:10560000E6E6F2E021E030E03296821793070CF0F4
:1056100090C18091620290916302A0916402B09166
:1056200065026FB7F89440900C0350900D036090A2
:105630000E0370900F036FBF481A590A6A0A7B0A5B
:105640001091280129EC421651046104710414F1EF
:105650008091610290E0019669E170E00E94A630BD
:1056600080936102880F991FFC01EA59FD4F118256
:105670001082812F183108F087E18F5F8093280115
:105680000E948011609362027093630280936402AF
:105690009093650232E083169104A104B1040CF4E6
:1056A00055C1A0E6BAEEA50194010E9401314B015B
:1056B0005C0148EC149F90011124032E000C440B54
:1056C000550B240D351D461D571DA5E0B0E00E9469
:1056D00001319B01AC01C501B4010E94BA304901FE
:1056E0005A0181EF88169104A104B1042CF0A0EFB7
:1056F0008A2E912CA12CB12C80915D0290915E029A
:10570000A0915F02B09160022FB7F89440900C0313
:1057100050900D0360900E0370900F032FBF481A36
:10572000590A6A0A7B0A95E6491651046104710414
:1057300084F00E94801160935D0270935E028093FA
:105740005F02909360028091A00280935C0280923D
:105750005B0210915C02A0915B02A11BBB0BA30139
:1057600092010E940C3124E630E040E050E00E94BB
:10577000DC30120F1093A0028091FD02882309F4FF
:105780007AC160E080E00E94241260E080E00E9424
:10579000241282E391E00E94CB1860E086E50E942B
:1057A00024128091A002882309F4D4C00E942B17F0
:1057B00040919C0250919D0260919E0270919F02C7
:1057C0002FB7F89480910C0390910D03A0910E03D4
:1057D000B0910F032FBF841B950BA60BB70B893C11
:1057E0009105A105B10560F00E94801160939C02B3
:1057F00070939D0280939E0290939F020E94A9162F
:105800000E948011609398027093990280939A028B
:1058100090939B0265E080E00E9424128090A00299
:1058200080912901881105C08091A502803309F477
:105830004AC08092290180E38093A502912CB12C6B
:10584000A12C1092A402C501B4012AE030E040E08E
:1058500050E00E94BA30605D603331F081149104F1
:10586000A104B10409F460E36093A30260E3FAE0E9
:105870008F169104A104B10490F0FAE04F2E512C40
:10588000612C712CC501B401A30192010E94BA30B0
:10589000CA01B901A30192010E94BA30605D609310
:1058A000A20224E682169104A104B10408F49BC06C
:1058B000C501B40124E630E040E050E00E94BA3077
:1058C000205D2093A10281EA92E00E94CB1866E05D
:1058D00080E00E9424128091A6029091A702292FB5
:1058E0003327E0E02115310511F0C901E8E09C0102
:1058F00074E0369527957A95E1F72115310511F079
:10590000EC5FC9019C0136952795369527952115A1
:10591000310511F0EE5FC90196958795892B09F045
:10592000EF5FE83008F06DC0F0E0ED56FE4C0C94EF
:10593000FB3040815181052E000C660B770B840EE5
:10594000951EA61EB71E2F5F3F4F5ECE812C912C59
:105950005401D2CE409198025091990260919A02DE
:1059600070919B022FB7F89480910C0390910D03D6
:10597000A0910E03B0910F032FBF841B950BA60BB4
:10598000B70B81369A4EA105B10518F00E94101789
:1059900041CF40919C0250919D0260919E02709176
:1059A0009F022FB7F89480910C0390910D03A09162
:1059B0000E03B0910F032FBF841B950BA60BB70BE3
:1059C000893C9105A105B10508F424CF0E948011FE
:1059D00060939C0270939D0280939E0290939F021D
:1059E0000E94A91617CF20E36CCF8BE198E10E94AB
:1059F000011867E080E00E94241286E198E10E948D
:105A000001180E941712182F64E080E00E942412EF
:105A10008CEC97E111FF02C084ED97E10E94011820
:105A20008091FD02882371F020914B0330914C034B
:105A30002115310539F08091E90261E070E0882399
:105A400009F447C18091FC028823A9F00E948011CB
:105A50000091F8021091F9022091FA023091FB02B4
:105A6000601B710B820B930B6F3F7F4F8F4F9F47D4
:105A700010F40E941017F1100E942B1786E0E2EF3D
:105A8000F2E0DE01119601900D928A95E1F71092F5
:105A9000F4021092F5021092F6021092F7028B8136
:105AA0009C81892B09F44AC08091F0029091F10207
:105AB0000E94EC1A9C019091EC02992309F4FEC11A
:105AC00025313105D8F19F3F19F09F5F9093EC028B
:105AD0001B81112359F00E94D6129FEF11160CF46E
