:100000000C9469040C9486040C9486040C94860465
:100010000C9486040C9486040C9486040C94860438
:100020000C9486040C9486040C9421100C94DD0F1F
:100030000C94E5180C9486040C9486040C948604A5
:100040000C9486040C9486040C9486040C94860408
:100050000C9486040C94FA100C9486040C94860478
:100060000C9486040C9486040C9486040C948604E8
:100070000C9486040C9486040C9486040C948604D8
:100080000C9486040C9486040C9486040C948604C8
:100090000C9486040C9486040C9486040C948604B8
:1000A0000C9486040C9486040C9486041E001F0095
:1000B00020002100220000002300000000000000BA
:1000C00014001A000800150017001C0018000C008E
:1000D0001200130004001600070009000A000B00BC
:1000E0000D000E000F002A001D221B000600190043
:1000F0000500110010003600370038320000E00023
:10010000E2002C28000000002B41284229000000BA
:1001100001000100010001000100000001000000D9
:10012000000000002D022D002E022E0033023500AB
:10013000BC00AE00BB004C002F022602270230029A
:10014000310229005000520051004F002F2234008C
:100150003402300033003502AA00A800A900313271
:10016000000001000100010000000000010001008A
:100170000100000001000100010001000100000079
:1001800001000000000000001E021F0220022102E8
:10019000220223022402250239002A001E001F0029
:1001A0002000210022002300240025002600270033
:1001B000E1000000000000002352000000003600B3
:1001C000370038320000010001000100000000008B
:1001D0000100010001000000010001000100010018
:1001E000010000000100000000000000000000000D
:1001F00000000000000000000000000000000000FF
:100200003A003B003C003D003E003F004000410002
:1002100042004300440000000000007C0100000098
:100220000000000000004500000001000100010086
:1002300000000000010001000100000000DA12814E
:10024000FFD9F1DB20A4A62EAF00A0C0D30000A1EF
:10025000C8D30000AED580A83F408D14200000AF69
:1002600000AE05010980A101850319012AB7001517
:100270000126B700950175108100C0050C0901A188
:1002800001850419012AA002150126A00295017515
:10029000108100C005010906A1018506050719E0C6
:1002A00029E7150025019508750181020507190048
:1002B00029EF1500250195F0750181020508190146
:1002C0002905950575019102950175039101C005F8
:1002D000010906A101050719E029E7150025019587
:1002E000087501810295017508810105071900292A
:1002F000FF150026FF009506750881000508190105
:100300002905950575019102950175039101C009B3
:10031000023B00020100A0FA0904000001030101F0
:100320000009211101000122400007058103080096
:10033000010904010001030000000921110100016D
:10034000226D000705820320000112010002000057
:1003500000084B5306000001010200011603530080
:1003600063006F00740074006F00470061006D004F
:10037000650000001803530063006F0074007400F0
:100380006F004B006500650062007300000004030D
:10039000090407087F0807003E5B4F5B3E003E6B89
:1003A0004F6B3E001C3E7C3E1C00183C7E3C1800FF
:1003B0001C577D571C001C5E7F5E1C0000183C18FB
:1003C0000000FFE7C3E7FF00001824180000FFE764
:1003D000DBE7FF0030483A060E002629792926007F
:1003E000407F05050700407F05253F005A3CE73C5C
:1003F0005A007F3E1C1C0800081C1C3E7F00142273
:100400007F2214005F5F005F5F0006097F017F00AD
:10041000006689956A0060606060600094A2FFA237
:10042000940008047E04080010207E2010000808B4
:100430002A1C0800081C2A0808001E1010101000B2
:100440000C1E0C1E0C0030383E383000060E3E0EDE
:10045000060000000000000000005F000000000730
:1004600000070000147F147F1400242A7F2A120042
:100470002313086462003649562050000008070321
:100480000000001C224100000041221C00002A1C28
:100490007F1C2A0008083E08080000807030000019
:1004A0000808080808000000606000002010080428
:1004B00002003E5149453E0000427F400000724923
:1004C000494946002141494D33001814127F10005C
:1004D0002745454539003C4A494931004121110928
:1004E0000700364949493600464949291E0000009F
:1004F00014000000004034000000000814224100F5
:1005000014141414140000412214080002015909A3
:1005100006003E415D594E007C1211127C007F495D
:10052000494936003E41414122007F4141413E0060
:100530007F49494941007F09090901003E41415174
:1005400073007F0808087F0000417F4100002040C1
:10055000413F01007F08142241007F40404040009D
:100560007F021C027F007F0408107F003E41414152
:100570003E007F09090906003E4151215E007F09C6
:100580001929460026494949320003017F01030029
:100590003F4040403F001F2040201F003F40384068
:1005A0003F006314081463000304780403006159D6
:1005B000494D4300007F41414100020408102000E2
:1005C000004141417F0004020102040040404040DC
:1005D00040000003070800002054547840007F28A2
:1005E00044443800384444442800384444287F00B8
:1005F00038545454180000087E09020018A4A49C22
:1006000078007F080404780000447D40000020400A
:10061000403D00007F102844000000417F40000062
:100620007C04780478007C0804047800384444444E
:100630003800FC182424180018242418FC007C0816
:100640000404080048545454240004043F44240083
:100650003C4040207C001C2040201C003C4030409E
:100660003C004428102844004C9090907C00446446
:10067000544C4400000836410000000077000000A0
:100680000041360800000201020402003C26232635
:100690003C00000000000000404040F0F8F8FF3847
:1006A000FFF8F83FF8F8FF38FFF8F8F04040400056
:1006B000000000000080C0C0C0800000C0C08000FA
:1006C000000080C0C000C0C0000080C0C0000000AA
:1006D0000000C0C0C0C0C000C0C0000000000000DA
:1006E000000000000000000000000000000000000A
:1006F00000000000000000000000000000000000FA
:1007000000000000000000000000000000000000E9
:1007100000C0F0F8FC3E1E06010000007F41414190
:100720007F007F4141417F000080C0E07E5B4F5BE6
:10073000FEC00000C000DCD7DEDEDED7DC00C0007B
:1007400000000000000000000000000000000000A9
:100750000000000000000000494949FFFFFFFFE0E2
:10076000DFBFBF00BFBFDFE0FFFFFFFF4949490018
:10077000000000001F3F6060E0BF1F007F7F071E7A
:10078000381E077F7F007F7F0E1F3B7160000000D7
:1007900000007F7F0C0C0C007E7E007F7E03030038
:1007A0007F7E03037E7E03037F7E000F3E703C0648
:1007B0003C703E0F00327B49493F7E007F7E030341
:1007C000001E3F69696F2600000000000000000065
:1007D00000030F1F3F3C7870600000007F414141E3
:1007E0007F007F4141417F00307B7F783020203087
:1007F000787F3B0003000F7F0F0F0F7F0F00030078
:1008000000000000000000000000000000000000E8
:100810000000000000000000010101070F0F7F0F22
:100820007F0F0F7E0F0F7F0F7F0F0F07010101005A
:1008300000000000000000000001010000000000B6
:1008400000000000000000000000000000000000A8
:100850000000000000000000000000000000000098
:100860000000000000000000000000000000000088
:100870000000000000000000000000000000000078
:100880000000000000000000000000000000000068
:100890000000000000000000000000000000000058
:1008A0000000000000000000000000000000000048
:1008B0000000000000000000000000000000000038
:1008C0000000000000000000000000000000000028
:1008D000000011241FBECFEFDAE0DEBFCDBF11E074
:1008E000A0E0B1E0E0EAFCE302C005900D92AE3773
:1008F000B107D9F726E0AEE7B1E001C01D92AE3DE9
:10090000B207E1F70E940C190C940F1E0C94000022
:10091000482F2091D2029091990257E0291302C0EA
:1009200080E0089530E0529FF001539FF00D1124B4
:10093000E656FD4F8181681306C08081481303C0CD
:1009400085818111EECF2F5F3F4F2770E7CFE8ED14
:10095000F0E080818E7F80831092E2001092DA00B6
:100960001092E100A0EEB0E08C9181608C938081C8
:100970008F77808319BCA7EDB0E08C918E7F8C932C
:1009800080818F7E808310926A0208952091E40016
:100990003091E50095E6A9012091EC00822F81704D
:1009A00020FF06C08091E80080FF06C080E0089527
:1009B0002091E80022FD1AC080918F02882389F0DF
:1009C000853089F08091EB0085FD0FC02091E40017
:1009D0003091E50042175307F9F29150E1F684E0B7
:1009E000089582E0089583E0089581E0089580915C
:1009F000910287FF13C08091E80082FF06C08091BA
:100A0000E8008B778093E80004C080918F02811109
:100A1000F2CF089580918F028823D9F38091E80066
:100A200080FFF8CF8091E8008E77ECCF982F9093DD
:100A3000E900242F762F50E0891731F07091EC00F7
:100A40002091ED005091F00021FD07C09F5F97308D
:100A500071F78093E90081E008953091EB003E7FCB
:100A60003093EB003091ED003D7F3093ED003091FD
:100A7000EB0031603093EB007093EC002093ED00BD
:100A80005093F0002091EE0027FDE0CF80E0089524
:100A9000B0E0A0E0EEE4F5E00C94681DC8EDD0E015
:100AA00088818F7E8883E7EDF0E08081816080839C
:100AB00084E082BF81E080936A0288818E7F888390
:100AC00002EE10E0F80110821092DA0081EEC82EDA
:100AD000D12CF601108288818F7788838881806885
:100AE000888388818F7D888319BC10928F02109231
:100AF000900210928E0210928D0290EEE92EF12C4F
:100B0000F70180818B7F808388818160888342E0C8
:100B100060E080E00E941605F60180818E7F808370
:100B2000F801808181608083808188608083F70103
:100B300080818E7F8083888180618883CDB7DEB796
:100B4000E8E00C94841DFC0180919702909198023A
:100B500086179707A0F06115710529F49091E800B8
:100B60009E779093E80090E06115710551F4911122
:100B700008C08091E80082FF34C080E00895BC0185
:100B8000F2CF80918F028823C1F18530C1F180912D
:100B9000E80083FD30C08091E80082FDEACF8091BB
:100BA000E80080FFE1CF8091F3002091F200382F20
:100BB0006115710519F02830310558F091E02830A1
:100BC000310509F090E02091E8002E772093E800AD
:100BD000CBCF81918093F100615071092F5F3F4F1E
:100BE000E7CF80918F02882341F0853041F08091DA
:100BF000E80083FFBECF81E0089582E0089583E09E
:100C00000895089580916C02089587E797E790937F
:100C100001088093000888E19AE00FB6F894A8953F
:100C2000809360000FBE90936000FFCF2FB7F894C1
:100C300060916402709165028091660290916702F2
:100C40002FBF089520910F012223C9F0209168023F
:100C500027FF15C0E62FE695E695E695EE31D8F428
:100C6000E80FF92FF11D677021E030E001C0220F7D
:100C70006A95EAF720958281282322830895FC0152
:100C8000329608962191621303C0DF0111971C92DE
:100C9000E817F907B9F7089520910F012223C1F051
:100CA0002091680227FF14C0E62FE695E695E695A9
:100CB000EE31F8F4E80FF92FF11D677021E030E014
:100CC00001C0220F6A95EAF78281822B8283089500
:100CD000FC0132962FEF30E04191641751F02F3F25
:100CE00019F4411101C0232F3F5F3630A9F72F3F80
:100CF00009F40895820F911D27FD9A95FC016283E6
:100D00000895A3E0B0E0E7E8F6E00C946E1D2091B2
:100D100061023091620228173907A1F090936202B4
:100D200080936102E0915F02F0916002309751F090
:100D300024E029839B838A830680F781E02DCE01FE
:100D4000019609952396E2E00C948A1DA3E0B0E099
:100D5000ECEAF6E00C946E1D20915D0230915E028B
:100D600028173907A1F090935E0280935D02E0910D
:100D70005F02F0916002309751F023E029839B835A
:100D80008A830680F781E02DCE010196099523968E
:100D9000E2E00C948A1DE0915F02F09160023097CE
:100DA00029F00190F081E02D0995089580E00895E3
:100DB00080E00895F894E82FE295EF70F0E031A11B
:100DC000282F2F7081E090E001C0880F2A95EAF764
:100DD000982F9095932391A392A1892B82A3789425
:100DE00008959091680292FF06C0282F287128303C
:100DF000F9F4877F846093FF06C0282F287128317B
:100E0000F1F4877E84612091690220FF06C0382FAB
:100E100038713830D9F4877F816021FF06C0282FD0
:100E200028712831D1F4877E816194FD877E0895F1
:100E3000282F24712430F9F68B7F8860DCCF282F8F
:100E40002471243101F78B7E8861DDCF382F317119
:100E5000313019F78E7F8860E0CF282F2171213142
:100E600021F78E7E8861E1CF82389105B9F1B0F427
:100E70008133910509F47DC048F48932910509F464
:100E80006DC08A32910509F47BC0089585339105C0
:100E900009F45FC08933910509F10895833E9105F6
:100EA000D9F138F4803E910529F1823E910579F11E
:100EB0000895863E9105D9F1873E910509F43EC01B
:100EC000843E910541F52091690221FF24C0809163
:100ED000680284FD19C087EE90E0089520916802B1
:100EE000237009F05AC02091690223FF14C089E2DF
:100EF00090E008952091680220FD38C03091690289
:100F000030FF09C024FF43C090E080E008952091A5
:100F1000680222FDF7CF08952091680222FD3AC0B1
:100F20003091690230FD39C024FFF5CFEDCF20911B
:100F3000680223FFF0CF24FDE7CFCDCF20916802D8
:100F400023FD2EC03091690231FFEECF84EE90E098
:100F500008952091680225FFDECFC9CF2091680255
:100F600025FD21C02091690223FFD5CF89E390E0C0
:100F7000D2CF2091680226FFCECF8AE290E008957A
:100F80002091680226FFC7CF81E390E0089583EEA9
:100F900090E0089582EE90E0089580EE90E008954C
:100FA00086EE90E0089585E390E00895972F7530E0
:100FB000B8F46A30A8F48430B0F470E02AE0929F6C
:100FC000600D711D1124FB0192E3899FE00DF11D5D
:100FD0001124EE0FFF1FE455FF4F85919491089562
:100FE00080E090E0089581E0FCCF1F93CF93DF93E2
:100FF0000E943407EC01C11580E5D807F0F5C11552
:1010000080E4D80708F09CC0C03ED10520F5CD3C57
:10101000D10508F082C0C83AD10578F4C53AD105A7
:1010200008F073C0C130D10519F1209709F1C4301F
:10103000D105F0F4D0E0C0E01BC0C33CD105D0F72F
:10104000C85AD0E0CC0FDD1FC75DDE4F0990D881B4
:10105000C02DD4640DC0C11580E2D80708F0D1C0FE
:10106000C11581E0D80708F05AC0C83ED10510F775
:10107000CE01DF91CF911F910895C03682E5D80748
:1010800018F5C03482E5D80708F06BC0C03282E59D
:10109000D80708F05FC0C11582E5D80708F497C0EB
:1010A0002C2F2695269580E2289F900111248C2FC5
:1010B0008370C1E0D0E002C0CC0FDD1F8A95E2F75B
:1010C000C22BD32BDD68D4CFC03A82E5D80760F4B9
:1010D000C03882E5D80708F459C0CF71D0E0DC2FC2
:1010E000CC27C46FD06AC4CFC03C82E5D80708F4CF
:1010F00062C0C03E82E5D80708F09CCFDC2FCC2729
:10110000CC27DF71C06FD06AB3CFC55AD0E0CA5DBB
:10111000DE4FC881D0E0D064ABCFD065A9CF8D2F92
:101120000E94F106182FCE0199270E943407C12F83
:10113000D0E0DC2FCC27CC27DF71C82BD92B98CF60
:10114000CE0199270E943407CC27DF70C82BD92BFA
:10115000D06A8ECFCF71D0E0DC2FCC27C16FD06AA0
:1011600087CF2C2F26952695277080E2289F900107
:1011700011248C2F8370C1E0D0E002C0CC0FDD1FA2
:101180008A95E2F7C22BD32BDC6872CF2C2F2695E1
:101190002695277080E2289F900111248C2F837060
:1011A000C1E0D0E002C0CC0FDD1F8A95E2F7C22B70
:1011B000D32BDA685DCF8C2F8F710E94F106C82F78
:1011C000D0E0DC2FCC27CC27DF71D06251CF8C2F21
:1011D0008F710E94F10655E0D695C7955A95E1F7B3
:1011E000CF70D0E0DC2FCC27282F30E084FF05C063
:1011F00044E0220F331F4A95E1F7C22BD32BD0696D
:1012000037CF8D2F8F710E94F106182FCE019927AD
:101210000E943407C12FD0E0DC2FCC27CC27DF7110
:10122000C82BD92BD2CF80959091E8019823909329
:10123000E80108958091D20290919902981301C01B
:1012400008958F5F8770FACFB0E0A0E0EAE2F9E09E
:101250000C94671D7C010091FA011091FB018091B3
:10126000F8019091F901082B192BCFE0D0E0CC24A4
:10127000C394D12CBC2EC6010C2E02C0880F991F1E
:101280000A94E2F780239123892B49F4219790F760
:10129000B12C8B2DCDB7DEB7E9E00C94831DB701DF
:1012A0008C2F0E94D6070E94F507019779F3F1CFA2
:1012B000CF93DF93EC010E942409BE010E94D60760
:1012C0000E94F507DF91CF910895953078F58A3027
:1012D00068F5E82FF0E08AE0989FE00DF11D1124F9
:1012E0009E2F977083E0F695E7958A95E1F7EE0FCC
:1012F000FF1FEE0FFF1FEE55FE4F50E040E080E075
:10130000219130E0092E02C0369527950A94E2F724
:1013100021703327042E01C0220F0A94EAF7822B92
:101320004F5F5F4F4430510559F7089580E00895AD
:10133000953098F58A3088F5E82FF0E08AE0989F9C
:10134000E00DF11D11248E2F877041E001C0440F84
:101350008A95EAF783E0F695E7958A95E1F7EE0F2F
:10136000FF1FEE0FFF1FEE55FE4F30E020E070E054
:101370005191DF011197CB01022E02C096958795FE
:101380000A94E2F7817081958527842385278C93C1
:101390002F5F3F4F2430310559F708959093FB019B
:1013A0008093FA01089521E030E002C0220F331F3C
:1013B0008A95E2F7209530958091FA019091FB0192
:1013C000822393230E94CE0908959091C5018095B0
:1013D00089238093C501282F277069F4891759F054
:1013E0009091690292FF07C08695869586950E9426
:1013F000D3091092C501089521E030E002C0220F08
:10140000331F8A95E2F78091FA019091FB01822BBC
:10141000932B0E94CE0908959093F9018093F801CF
:101420000895FC0124812223C1F0808191810E94D2
:10143000580992959F70963091F058F4925F9F7082
:10144000923058F4803F19F030F4883E30F481E057
:1014500008959A5FF4CF843FD1F380E00895883EE9
:10146000B0F3813FD1F7F3CFA6E0B0E0EAE3FAE0D2
:101470000C946D1D26E0FC01DE01119601900D9289
:101480002A95E1F7FC01258189819A81222399F02F
:10149000662389F00E942409182F682F89819A8178
:1014A0000E94980969817A81812F0E94D607269629
:1014B000E3E00C94891D0E946509182FF3CFCF93A8
:1014C000DF93C091DC06D091DD068A30C1F4209113
:1014D000D302CE01865D9240622F70E00E944A1DC9
:1014E000281B822F66E00E94951DC82FC15018F45A
:1014F000DF91CF91089580E20E945F0AF7CF8D308F
:10150000E9F4C65DD2402091D302622F70E0CE0193
:101510000E944A1D281B822F9E01280F311D211574
:10152000344018F080E0D0E0C0E0C80FD11DCA52AE
:10153000DD4FD093DD06C093DC06DACF96E0FE01E6
:10154000A6EDB6E001900D929A95E1F7803E08F481
:1015500058C086E0FE0111928A95E9F7C091DC0639
:10156000D091DD0646E050E0BE0186ED96E00E9497
:10157000B01D9E01265D3240892B41F1C90146E034
:10158000969587954A95E1F741E050E0BA0102C08F
:10159000660F771F8A95E2F7CB016091D4027091B4
:1015A000D502862B972BB9016B5F7F4FE6E07695CE
:1015B0006795EA95E1F702C0440F551F6A95E2F777
:1015C000842B952B9093D5028093D4022A5F3F4FB2
:1015D0004091D302642F70E0C9010E944A1D481B4C
:1015E000463010F4240F311D211574E0370710F038
:1015F00030E020E02A523D4F3093DD062093DC0698
:1016000077CFF6E08F9FB00111246E567C4F46E0F5
:1016100050E0CE010E94A71DA1CF8091E8019091DA
:10162000E701892B809380019091E6019923A1F035
:10163000892B8093800180910F018823E1F18091B3
:10164000680287FF38C08EE1E2E8F1E090E0815067
:10165000A0F591111092E60140E250E066EC71E0D5
:1016600080E891E00E94B01D892B21F180E2E0E842
:10167000F1E0A6ECB1E001900D928A95E1F7E091DE
:101680005F02F09160023097A9F080910F018823EA
:1016900059F08091680287FF07C080918001809394
:1016A000810186E0809380010280F381E02D80E853
:1016B00091E00995089586E0C7CF2191222339F260
:1016C0009F5FC5CF1092E80180910F01E2E8F1E041
:1016D0008823B1F08091680287FF12C08EE1DF019C
:1016E0001D928A95E9F790E080E00E94A60690E0BE
:1016F00080E00E9481061092E7010E940D0B089580
:1017000086E0EDCFAAE2B0E0E8E8FBE00C946D1DC6
:1017100081E992E02091F100FC012193CF01F2E0F8
:1017200089399F07B9F780919202833009F470C01C
:10173000B8F4813009F447C0823009F4B1C0809117
:10174000E80083FF7EC280919102909192029A30CC
:1017500008F077C2E92FF0E0EF5EF14E0C94A11D86
:101760008A3009F48CC08B3009F46FC0893039F7A6
:1017700080919102813219F78091950290919602A1
:101780000297E8F68091E800877F8093E8008091D7
:10179000E80082FF38C09091F3008091F200029738
:1017A00031F48091F100813011F0863021F4809184
:1017B000F10080936C028091E8008B778093E800C1
:1017C0000E94F704BCCF80919102813A09F0B7CF13
:1017D0008091E800877F8093E80080919502909146
:1017E0009602892B61F460E28DE692E070E00E943F
:1017F000A3058091E8008B778093E800A0CF60E09C
:1018000090E080E0F3CF80918F028111C0CF97CF1D
:1018100080919102813A09F092CF80919502909146
:101820009602892B09F08BCF8091E800877F809307
:10183000E8008091E80080FFFCCF80910F01809349
:10184000F1008091E8008E77B9CF809191028132CA
:1018500009F075CF8091950290919602892B09F03D
:101860006ECF8091E800877F8093E8000E94F704A4
:101870008091930280930F010E94620B60CF809150
:101880009102813209F05BCF8091E800877F8093DD
:10189000E8000E94F7048091940280936B024FCF7E
:1018A00080919102813A09F04ACF8091E800877FC8
:1018B0008093E8008091E80080FFFCCF80916B026C
:1018C000BECF803899F0823809F0BBC18091950273
:1018D0008F70873008F0B5C18093E9008091EB00EC
:1018E00085FB882780F91092E90006C080918D025F
:1018F00090918E02911182609091E800977F909371
:10190000E8008093F1001092F1008091E8008E775A
:1019100094C1882309F482C1823009F092C1809178
:101920009302811185C1809195028F702FEF280F4E
:10193000263008F086C18093E9002091EB0020FF5B
:1019400077C1933031F48091EB0080628093EB009B
:101950006FC19091EB0090619093EB0021E030E03B
:1019600001C0220F8A95EAF72093EA001092EA005C
:101970008091EB008860EACF811163C110919302DE
:101980001F778091E3008078812B8093E300809122
:10199000E800877F8093E8000E94F7048091E800C8
:1019A00080FFFCCF8091E30080688093E30082E0B9
:1019B000111183E080938F0244C18058823008F077
:1019C00040C180919302909194028C3D23E0920754
:1019D000A1F583E08A838AE289834FB7F894DE0118
:1019E000139620E03EE051E2E32FF0E050935700E1
:1019F000E49120FF03C0E295EF703F5FEF708E2F00
:101A000090E0EA30C0F0C7968D939D932F5F24310C
:101A100059F74FBF8091E800877F8093E8006AE222
:101A200070E0CE0101960E94A3058091E8008B77BB
:101A30008093E80006C1C096E7CF4091950250918F
:101A40009602292F33272330310509F444C078F555
:101A50002130310509F46FC08BE390E0EFE0F3E053
:101A60002230310509F0EDC02091E800277F209356
:101A7000E80020919702309198028217930708F4AA
:101A80009C0140E02115310509F064C0411162C09C
:101A90008091E80082FDC9CF80918F02882329F2CE
:101AA000853019F28091E80083FFF2CFBECF21325A
:101AB0003105A9F12232310509F0C3C041155105A4
:101AC00009F443C04130510509F0BBC08DE690E0F8
:101AD000E2E6F2E0C9CF992781309105C1F0009785
:101AE00059F0029709F0ADC0ECE5F3E0E4918E2FD8
:101AF00090E0ECE5F3E007C0EEE8F3E0E4918E2F30
:101B000090E0EEE8F3E0009709F49BC0ADCFE4E786
:101B1000F3E0E4918E2F90E0E4E7F3E0F4CF411599
:101B2000510571F04130510509F08BC089E090E01A
:101B3000EAE3F3E099CF82E190E0EAE4F3E094CFC6
:101B400089E090E0E1E2F3E08FCF80E490E0EFEC19
:101B5000F2E08ACF80918F02882309F466CF853026
:101B600009F463CF8091E80083FD5FCF8091E800A6
:101B700082FD8ECF8091E80080FF84CF9091F300AA
:101B80008091F2002115310519F08830910550F04F
:101B900041E0089709F040E08091E8008E7780935B
:101BA000E80070CF44914093F10031962150310903
:101BB0000196E8CF803809F044C08091E800877F23
:101BC0008093E800809190028093F1009ECE811175
:101BD00038C0109193021230A0F58091E800877F01
:101BE0008093E800109390020E94F704112311F0F3
:101BF00084E005C08091E30087FDFACF81E0809307
:101C00008F0242E061EC81E00E94160542E261EC45
:101C100082E00E94160580918F0213C0809193028A
:101C2000813079F481E0933009F080E080938E0276
:101C30001092E9008091E800877F8093E8000E947D
:101C4000F7048091E80083FF0AC08091E800877F55
:101C50008093E8008091EB0080628093EB00AA966D
:101C6000E3E00C94891D882321F00E9413090E944F
:101C70000D0B0895882339F09091E801982B9093EB
:101C8000E8010E940D0B0895882351F19CEF980FF5
:101C9000913A40F4682F80E891E00E9422060E9469
:101CA0000D0B089590E2980F983050F4877091E0F2
:101CB00001C0990F8A95EAF7892F0E941309EFCF87
:101CC0009BE5980F933028F490E080E00E94A606F0
:101CD0000895885A8B3120F490E080E00E948106BC
:101CE0000895CF93C82F8823D9F18CEF8C0F813AB8
:101CF000C8F580910F01882311F18091680287FF58
:101D00001EC0EC2FE695E695E695F0E0E058FE4F14
:101D1000828190E04C2F477021E030E002C0220F1A
:101D2000331F4A95E2F782239323892B91F06C2F7E
:101D300080E891E00E9422060E940D0B0AC0E2E8B2
:101D4000F1E088E891E02191C21789F38E179F078F
:101D5000D1F76C2F80E891E00E944C060E940D0B99
:101D6000CF91089580E28C0F883068F4C77021E02D
:101D700030E001C0220FCA95EAF78091E801822B7A
:101D80008093E801EBCFEBE5EC0FE33040F4F0E0BB
:101D9000EA5DFE4F808190E00E94A606E1CFC85A1E
:101DA000CB31F0F6EC2FF0E0EE0FFF1FE75DFE4FBA
:101DB000808191810E948106D3CF0F931F93CF938F
:101DC000DF938B01EA0190918F02943061F580934B
:101DD000E9008FEF9091E800815095FD06C095EDE8
:101DE0009A95F1F700008111F5CF8091E80085FF09
:101DF0001AC00E94C604811111C08091E80085FDBF
:101E000006C08091E8008E778093E800F2CFF80159
:101E100081918F018093F100219779F78091E800FB
:101E20008E778093E800DF91CF911F910F910895F5
:101E300043E050E0BC0182E00E94DD0E0895CF93A4
:101E4000DF93EC0180910F01811111C048E050E057
:101E5000BE0181E00E94DD0E80E2FE01ADE6B2E04F
:101E600001900D928A95E1F7DF91CF9108958091CD
:101E7000680287FF05C040E282E050E0BE01EACF81
:101E800048E081E0FACF0E94620B2FEF84E39CE0F0
:101E9000215080409040E1F700C0000088E19AE0C6
:101EA0000FB6F894A895809360000FBE90936000E1
:101EB000FFCFB0E0A0E0EFE5FFE00C94681D6C01FF
:101EC0007B0164E670E088E70E94641C8C01E601F7
:101ED000EC0CFD1C17FD0BC0FE01849164E670E064
:101EE0000E94D01C8C012196CE15DF0599F70E9427
:101EF000461D81E00115110509F080E0CDB7DEB780
:101F0000E8E00C94841D809158029091590291113F
:101F100003C091E089270895882369F062E070E0AA
:101F200080E692E00E94590F811103C0809158020F
:101F300008951092580280915802EBCFCF93C09130
:101F40005802809159028823D1F00E941606605AE7
:101F500075418F4F9F4F6093540270935502809349
:101F6000560290935702C11108C062E070E08EE5FE
:101F700092E00E94590F811105C0C09158028C2F28
:101F8000CF91089581E080935802F7CF9091690234
:101F900092FB222720F9281779F080FB92F9909381
:101FA0006902609168027091690284E090E00E9489
:101FB000F91D82E00E94E50908951F920F920FB665
:101FC0000F9211242F933F934F935F936F937F93BF
:101FD0008F939F93AF93BF93CF93DF93EF93FF9331
:101FE000D091E900DF708091EC00C82FC17080FDB6
:101FF000C0E81092E9008091F000877F8093F000A4
:1020000078940E94820B1092E9008091F000886021
:102010008093F000CD2BCF70C093E900FF91EF913A
:10202000DF91CF91BF91AF919F918F917F916F91F0
:102030005F914F913F912F910F900FBE0F901F9086
:1020400018951F920F920FB60F9211242F933F9362
:102050004F935F936F937F938F939F93AF93BF93B0
:10206000EF93FF938091E10082FF09C08091E2002D
:1020700082FF05C08091E1008B7F8093E100809119
:10208000DA0080FF24C08091D80080FF20C08091BA
:10209000DA008E7F8093DA008091D90080FF9DC0A6
:1020A00080E189BD82E189BD09B400FEFDCF81E0F8
:1020B00080938F0280916A02811109C00E94A70457
:1020C0000E9448058091E20084608093E200809144
:1020D000E10080FF17C08091E20080FF13C0809173
:1020E000E2008E7F8093E2008091E2008061809325
:1020F000E2008091D80080628093D80019BC85E00E
:1021000080938F028091E10084FF2BC08091E200D8
:1021100084FF27C080E189BD82E189BD89B5982F00
:10212000917080FFFBCF8091D8008F7D8093D80085
:102130008091E1008F7E8093E1008091E2008F7EAC
:102140008093E2008091E20081608093E2008091C0
:102150009002882309F447C084E080938F02809125
:102160008F028091E10083FF27C08091E20083FF0E
:1021700023C08091E100877F8093E10082E080931B
:102180008F02109290028091E1008E7F8093E10097
:102190008091E2008E7F8093E2008091E200806176
:1021A0008093E20042E060E080E00E9416058091AA
:1021B000F00088608093F000FF91EF91BF91AF91A4
:1021C0009F918F917F916F915F914F913F912F914F
:1021D0000F900FBE0F901F90189519BC10928F0290
:1021E00010926A0274CF8091E30087FD93E0909390
:1021F0008F02B5CF78941F921FB61F9211248F9330
:102200009F93AF93BF938091640290916502A091D8
:102210006602B09167020196A11DB11D8093640210
:1022200090936502A0936602B0936702BF91AF914D
:102230009F918F911F901FBE1F9018959C014FB7C3
:10224000F8948091640290916502A0916602B09129
:1022500067024FBF821B930B08952FB7F8948091AC
:10226000640290916502A0916602B09167022FBF4F
:1022700008950F931F93CF93DF93C42FD22FFC01A8
:1022800085818823A9F040935C020E942D119093D0
:102290005B0280935A02C77081E001C0880FCA9523
:1022A000EAF70E943A0EDF91CF911F910F910895A6
:1022B00010915C02141335C080915A0290915B0218
:1022C0000E941E118738910560F5C0E2CD0F1D17E1
:1022D000B9F080E2810F883040F4177081E001C0CE
:1022E000880F1A95EAF70E94330EC83048F481E04F
:1022F0009D2F977001C0880F9A95EAF70E943A0EB9
:10230000802F0E94710E802F0E94440EC83058F614
:10231000D77081E001C0880FDA95EAF70E94330E8A
:10232000C2CFC77081E001C0880FCA95EAF7F6CF27
:10233000B0E0A0E0EEE9F1E10C94661D7C01FC0147
:102340008481882339F161E0C7010E94340AEC01DD
:10235000FC01E851FC47E730F10508F044C0E55EB8
:10236000F14E0C94A11D06E221EE41EE6AE17CE7FC
:10237000C7010E9439118091C501877059F0F7019A
:102380008581882339F08091690282FF03C082E051
:102390000E94E509CDB7DEB7EAE00C94821D07E2A2
:1023A00025EE45EE6BE17CE7E3CF06E221EE40EE61
:1023B00068E17CE7DDCF07E225EE44EE69E17CE7EA
:1023C000D7CF06E221EE42EE6CE17CE7D1CF07E207
:1023D00025EE46EE6DE17CE7CBCF08E221E045EE4D
:1023E0006EE17CE7C5CFF7018581882309F461C3DD
:1023F00010925C02CE019057839708F044C384E0AA
:1024000090E00E94C51D9093690280936802FE01CE
:10241000E150F047E232F10520F4EE5DF14E0C940C
:10242000A11D8091680281608093680295C08091AF
:1024300069028860809369028FC08091680282601F
:10244000F3CF809168028460EFCF8091680288604A
:10245000EBCF809169028160EDCF8091690282604B
:10246000E9CF809168028061DFCF8091680280624D
:10247000DBCF809168028064D7CF0E94620B80918D
:1024800068028068D1CF809168028C60CDCF809146
:1024900069028360CFCF809168028E7FC5CF809123
:1024A0006902877FC7CF809168028D7FBDCF809101
:1024B00068028B7FB9CF80916802877FB5CF80910A
:1024C00069028E7FB7CF809169028D7FB3CF8091F3
:1024D00068028F7EA9CF809168028F7DA5CF809101
:1024E00068028F7BA1CF0E94620B809168028F7778
:1024F0009BCF80916802837F97CF809169028C7F08
:1025000099CF8091680282FB992790F921E0922768
:1025100090FB82F990FB83F987CF80916902982F15
:10252000909591708E7F892B90FB81F983CF90914C
:102530006802892F8F7B96FF806476CF0E94620BA2
:1025400090916802892F97FB87F980586DCF61E0E1
:102550008EE090E00E94DB1D60916802709169023C
:1025600084E090E00E94F91D0E94620B04CF60E0BD
:10257000EFCF90916802892F8F7E94FF806154CFB6
:1025800090916802892F8E7F90FF81604DCF90914E
:102590006902892F877F93FF88604CCF0E94620B6E
:1025A000FFEF24E33CE0F15020403040E1F700C071
:1025B00000000E9405066FEF7FEF90E080E00E9430
:1025C000F91D0E94430F8091690282FB882780F9E0
:1025D00091E089270E94C60FF7018581C081D181D2
:1025E000882309F449C0CE010E942409182F682FBE
:1025F000CE010E949809BE01812F0E94D6070E9439
:10260000F507D82FC92FA82EF701C580B680B29440
:102610009FE0B9228091C5018770E9F00C2DCC2094
:10262000D9F08C2F807F803451F080E28D0F88307C
:1026300090F0B11004C08C2F807E803261F08091C8
:10264000690282FF08C082E00E94E5098091C5010D
:10265000877001E009F000E0DC2ED2948FE0D822F0
:10266000FBE0FD1508F469C0ED2DF0E0EC5BF14EE8
:102670000C94A11D80E0AECFCE010E946509182FF9
:10268000BACF1C2F1F70C07F11F01295107FCC2085
:10269000B9F0112369F080E28D0F883010F0A1109D
:1026A00009C08091E801182B1093E8010E940D0BDE
:1026B0008D2F41C08091E701182B1093E701F6CFD1
:1026C0008D2F0E94440E1123C1F1D05ED83010F03E
:1026D000A11004C0812F0E94130906C0109580919B
:1026E000E70118231093E7010E940D0B26C01C2F51
:1026F0001F70C07FC03211F01295107FAA2059F0D0
:1027000021E0A21609F471C0CC2009F47DC0BB20E1
:1027100009F440C0CDCF8091690282FD37C0CC2042
:1027200079F1112339F08091E801182B1093E80119
:102730000E940D0B80E00E94710EED2DE850FF0B02
:10274000349710F40E94CB060023A9F08091C501B4
:1027500080FD11C0F70115828695869586950E94A9
:10276000FC09C7010E9498118091C5018695869544
:1027700086950E94D30960E0C7010E94340A0ACE00
:1027800080E00E94440E1123C1F2A4CFCC2099F026
:10279000B11004C0812F0E943A0ECFCF31E0B312A6
:1027A000CCCF8091E601912F9823191731F2182B85
:1027B0001093E601C2CFB110C0CF812F0E94330E1B
:1027C0009091E601812F892329F0812F809589231B
:1027D0008093E6018091A101912F982309F4ADCF58
:1027E000109518231093A101A8CFCC2029F085E0E3
:1027F0008B1508F4A2CFCECF94E09B1508F49DCFA3
:10280000812F0E94330E99CFBB20D1F3E9E3AE12A2
:1028100009C0FFEF27EE33E0F15020403040E1F7F0
:1028200000C000008D2F0E94440E87CF8C2F86950C
:102830008695837069F0813009F07FCF8D2F9C2FB2
:102840009370C11002C080E090E00E94810675CFB5
:102850008D2F9C2F9370C11002C080E090E00E94E9
:10286000A6066BCF8C2F837009F03FC0C11065CFD7
:102870004D2F429546954770440F440F2D2F2F70D2
:1028800030E0042E02C0220F331F0A94E2F790E0DA
:1028900080E0D4FF09C08FE090E002C0880F991F4C
:1028A0004A95E2F780959095C695C695C370C2305B
:1028B00099F078F44091F8015091F901C13039F064
:1028C000822B932B842395230E940C0A36CF242B32
:1028D000352B822B932BF8CF822B932B2091F80151
:1028E0003091F90182279327EFCF8695CC2011F004
:1028F0008C2F8170882309F420CF4D2F4295469567
:102900004770440F440F2D2F2F7030E0042E02C06B
:10291000220F331F0A94E2F790E080E0D4FF09C051
:102920008FE090E002C0880F991F4A95E2F78095EA
:102930009095C695C695C370C23099F078F44091D1
:10294000FA015091FB01C13039F0822B932B842383
:1029500095230E94CE09F1CE242B352B822B932B6D
:10296000F8CF822B932B2091FA013091FB01822723
:102970009327EFCFCF70CC2029F08C2F0E94FC0939
:102980008D2F09CF8D2F0E94330E8C2F0E94D309DB
:10299000D4CE8D2F92EFA91699F19A1570F0E0EF31
:1029A000AE16D1F0F1EFAF1691F0CC2009F45BC078
:1029B000B1107ECE8C2F8F7127C023EFA21639F174
:1029C00034EFA312F2CF8091690282FD2EC08C2FCA
:1029D0008F71CC20D9F218C0CC2069F084E08B151F
:1029E00008F4ABCECF7181E090E002C0880F991F50
:1029F000CA95E2F7B8CF95E09B1508F49ECEF2CFCA
:102A00008C2F8F71C110C2CF0E94FC0996CE90E02E
:102A100080E0CC2009F49DCFCF7181E090E002C02E
:102A2000880F991FCA95E2F794CFCC2089F0CF7117
:102A30008C2F0E94FC098091690282FF07C0E8E0A8
:102A4000CE9FC001112483608093C5018C2FDCCF01
:102A500081E00E94E509F1E0FB1508F06ECE82E00E
:102A60000E94E5096ACEBB2059F0893309F0DACE1D
:102A70002FEF37EE83E0215030408040E1F7D0CE99
:102A80008C2F8F7183CFC631FCE7DF0701F5809172
:102A9000E8018A7A91E009F490E09093A00169E25C
:102AA000811165E380E891E00E944C060E940D0BC5
:102AB00062CCC631DC4709F08FCD8091A00169E27C
:102AC000811165E380E891E00E942206EFCFC330D8
:102AD0003CE7D30709F46FCD50F4C1159CE7D90743
:102AE00009F45CCDC130DC4709F46BCD75CDCB3535
:102AF000FCE7DF0709F4BECDCC352CE7D20709F49B
:102B000062CDCA35DC4709F067CD81E063CDB0E026
:102B1000A0E0EDE8F5E10C94691D8091C401807F8F
:102B200009F050C08091C301882309F44BC0E091A3
:102B3000D20287E0D82E809199028E1709F442C004
:102B40000E2F10E0ED9DF0011124E656FD4F84811B
:102B50008823E9F1D09EE001D19ED00D1124FE0121
:102B6000E656FD4F91818091BF01981330C090814E
:102B70008091BE0198132BC08581811128C0E2800D
:102B8000F3808091C0019091C101E81AF90A60E0D8
:102B90008EEB91E00E94340A87E8E816F104B8F45D
:102BA0008091C4018F7080618093C401C056DD4F55
:102BB00088818F70806188838EEB91E00E949811EC
:102BC0000E941A09CDB7DEB7E7E00C94851DF80125
:102BD0003196E770B0CFA4E1B0E0E1EFF5E10C94FD
:102BE000611D8C0186E0F801DE011F9601900D92B7
:102BF0008A95E1F7D80114967C9014971596EC907D
:102C00008EEBA82E81E0B82E8091C20181112AC0DE
:102C1000711003C0FF24F3941CC0EE20F9F0C8012A
:102C20000E94110AF82E8823C9F087E0F801AEEB64
:102C3000B1E001900D928A95E1F78091C201813057
:102C400031F48091BE019091BF010E9458090E9409
:102C500087158F2D6496EFE00C947D1DC8010E94AE
:102C60009811D8CFF801C280D380F090C301809131
:102C7000C0019091C1014601881A990AFF2009F408
:102C8000F7C05080618060E08EEB91E00E94340AD2
:102C9000F7E88F16910408F0AEC0772009F4BACF98
:102CA0008091C401382F307F2091BF01D801119647
:102CB0009C91119731115FC0291315C02091BE015D
:102CC0009C91291310C0E11050C08F7080618093D7
:102CD000C4018EEB91E00E9498118091C401F8012B
:102CE0008683F12CB6CFE11040C0662D852D0E9461
:102CF0008804E82E882361F08EEB91E00E94981101
:102D000087E0EEEBF1E0DF011D928A95E9F7E9CF6C
:102D10005F86688A8F8598890E945809292F229595
:102D20002F70243058F49F70223088F0992399F046
:102D3000F8019681907F79F4FE2C8BCF2A5F2F705B
:102D4000223068F0C8010E949811EF2CF5CF99232A
:102D500011F0882389F3805E883070F3F3CF803FD1
:102D600058F3815F833070F7E7CF8091C4018160B1
:102D70008093C401B6CF291315C02091BE019C9148
:102D8000291310C0E1100EC016968C93C8010E9442
:102D9000981187E0F801AEEBB1E001900D928A95B1
:102DA000E1F757CFC8010E94110A882309F456CFD2
:102DB000EE2009F453CF8091C401803288F0209135
:102DC000BE013091BF0139872887DB86CA86909182
:102DD000C2019C871D868E87CE0108960E9498119D
:102DE00087E0F801AEEBB1E001900D928A95E1F732
:102DF0000E9487150FCF8091C401982F907F09F40E
:102E00007BCF772009F406CF2091BF01F801918193
:102E1000291311C02091BE01908129130CC0E1102B
:102E20000AC08683C8010E94981187E0D5011D92CF
:102E30008A95E9F70ECFC8010E94110A882309F488
:102E40000DCFEE2009F40ACF8091C401803240F208
:102E50002091BE013091BF013A832983DC82CB826D
:102E60009091C2019D831E828F83CE010196B6CFC1
:102E700060E08EEB91E00E94340AB7E88B16910473
:102E800008F041C0772009F4C5CEFE2CEE2009F4ED
:102E9000E5CE9091BF01F8018181981326C09091F1
:102EA000BE018081981321C08091C0019091C10121
:102EB000C81AD90AF7E8CF16D10408F06ACF909162
:102EC000C40190FD66CF907F09F463CF8091C40167
:102ED000D80116968C931697903F09F457CF982FE8
:102EE000907F905F8F70892B4FCFC8010E94110A8D
:102EF000811176CF8091C40181608093C401C801A3
:102F00000E949811A6CE87E0F50111928A95E9F703
:102F1000A0CEABE1B0E0EFE8F7E10C946D1D4E8B75
:102F20005F8B688F798F8A8F9B8F91111092E70149
:102F30001D8A86E0FE017696DE011F9601900D92B5
:102F40008A95E1F78B89882329F061E0CE010F96FD
:102F50000E94340A87E0FE013F96DE011896019038
:102F60000D928A95E1F7CE0108960E94EB1581112A
:102F70000CC087E0FE013896DE01119601900D929B
:102F80008A95E1F78C8581110BC017E08091D20200
:102F900090919902891331C06B96E3E00C94891DDE
:102FA0002091990230E0C9010196877099274091DC
:102FB000D2024817190699F097E0929FD001939F8B
:102FC000B00D1124A656BD4FFE01319601900D9211
:102FD0009A95E1F7809399020E941A09D6CF0E9430
:102FE000620B109299021092D20287E0EEEBF1E0B0
:102FF000DF011D928A95E9F7C8CF819FC001112496
:1030000086569D4F0E94EB15882331F28091D202A3
:1030100090E00196877099278093D202B7CFAAE0FB
:10302000B0E0E5E1F8E10C94641D8E010F5F1F4FE5
:103030008AE0F80111928A95E9F79FE5E92E91E07F
:10304000F92E6801AA24A394B12CF70181917F0184
:103050008F3F09F446C0F894E82FE295EF70F0E056
:1030600021A18F70A50102C0440F551F8A95E2F778
:10307000CA01922F982B91A392A18095892382A3B4
:10308000789400C0E4E6F1E021E030E0912C812C5E
:1030900041914F3F09F467C0A42FA295AF70B0E0F3
:1030A00090968C9190E04F7002C0959587954A95C7
:1030B000E2F780FD58C0C901882A992A220F331FE0
:1030C00051E0EE36F50721F7F701319780818F3F08
:1030D00011F00E94DA0680EA8A95F1F7F6019182F2
:1030E0008082F2E0CF0ED11C44E6E41641E0F40603
:1030F00009F0ABCF4AE050E0B8018EEE91E00E94BB
:10310000B01D892B99F18AE0F801AEEEB1E0019093
:103110000D928A95E1F781E08093ED010E942D11D7
:103120009093EC018093EB018091EB019091EC0185
:103130000E941E110597F0F04AE050E06EEE71E03B
:103140008CEF91E00E94B01D892BC9F08AE0EEEE71
:10315000F1E0ACEFB1E001900D928A95E1F781E0EA
:103160001092ED0108C090E080E0A6CF8091ED01C3
:103170008111DACF80E02A96ECE00C94801D80E08B
:10318000EFCFA6E0B0E0E7ECF8E10C946C1D0E94F4
:103190002D118C018091E9019091EA01801791072E
:1031A00081F019821A820E942D11682F49815A815B
:1031B000792F80E090E00E9489171093EA01009334
:1031C000E9012696E4E00C94881D1F921FB61F9219
:1031D00011248F939F93AF93BF93809163028111CA
:1031E00013C08091640290916502A0916602B09133
:1031F00067024196A11DB11D809364029093650200
:10320000A0936602B0936702BF91AF919F918F9197
:103210001F901FBE1F901895CDB7DEB72A970FB627
:10322000F894DEBF0FBECDBF85B7806885BF85B778
:10323000806885BF84B7877F84BF0FB6F894A89550
:1032400080916000886180936000109260000FBEE2
:1032500080E890E00FB6F89480936100909361004D
:103260000FBE88ED96E090937F0180937E010E94CF
:10327000A7040E9448058091E20084608093E200E8
:10328000789480918F028823A1F01091E9001F703B
:103290009091EC00892F817090FD80E8182B10929E
:1032A000E9008091E80083FD0E94820B1F7010935B
:1032B000E90082E084BD93E095BD9AEF97BD8093CD
:1032C0006E000FE511E0D8018D918D018F3F11F057
:1032D0000E94DA06B1E004361B07A9F704E611E004
:1032E000AEE6EA2EA1E0FA2EF80181918F018F3F20
:1032F00011F00E94DA06E016F106B1F78AE0ECEF71
:10330000F1E0DF01282F1D922A95E9F7EEEEF1E0BA
:10331000DF011D928A95E9F790E080E00E94C51DCB
:10332000863E9E4F09F464C066EE7EEF90E080E03A
:103330000E94F91D60E082E090E00E94DB1D60E0E9
:1033400083E090E00E94DB1D1092F9011092F801D9
:1033500060E074E184E090E00E94F91D60E086E0A6
:1033600090E00E94DB1D6FEF87E090E00E94DB1D84
:1033700040E050E0BA0188E090E00E94ED1D60E07E
:1033800084E290E00E94DB1D60E087E190E00E9413
:10339000DB1D60E08CE090E00E94DB1D60E08DE0D2
:1033A00090E00E94DB1D19821A821B821C821D8202
:1033B0001E821F82188648E050E068E170E0CE016E
:1033C00001960E94CB1D40E050E0BA0180E290E0FF
:1033D0000E94ED1D40E050E0BA018FE090E00E94B5
:1033E000ED1D40E050E0BA0183E190E00E94ED1D48
:1033F00082E090E00E94BD1D8093060284E090E090
:103400000E94C51D90936902809368020E940F1864
:10341000EFEFF6E721E0E150F0402040E1F700C097
:1034200000000E940F188091FC0180FF08C06FEF20
:103430007FEF90E080E00E94F91D0E94050683E086
:1034400090E00E94BD1D90E00E940C0A1092510273
:1034500080E88093D3020E945E1C6BE070E083E5FD
:1034600092E00E94590F8823E9F18091510265E0B2
:1034700070E081FD9FC08EE492E00E94590F882386
:1034800089F16DE070E08CE392E00E94590F88238F
:1034900049F10E941606605A75418F4F9F4F609305
:1034A0005402709355028093560290935702E6EDB2
:1034B000F2E080E094E0DF019C011D922150304059
:1034C000E1F7F093DD06E093DC068FEF9FEF90933A
:1034D000D5028093D40281E08093590280935802F0
:1034E0001092520280E091E09093600280935F021C
:1034F000F0E47F2E6624639480918F0212E1853080
:1035000009F495C00E940F1877E0A72E72E0B72E3D
:10351000ECEF8E2EE1E09E2ED401F5012191319148
:103520008D919D9142E0E131F40709F48AC028179A
:103530003907A1F3512CD4010D911D914D01F501D5
:10354000C190D1905F01C016D10659F1C026D12695
:10355000412CEE24E394F12CC7018C219D21892B71
:10356000B1F049825A820E942D119C838B836D8217
:1035700091E0970120233123232B09F490E09E83CF
:1035800049815A816B817C818D810E948917439486
:10359000EE0CFF1CFAE04F12DFCFF50132971183DA
:1035A0000083539425E05212C6CF0E941606FF24D2
:1035B000F3944EC089E492E060CF80918F02843012
:1035C00029F10E94830F1092630288E190E00FB608
:1035D000F894A895809360000FBE7092600083B746
:1035E000817F846083BF83B7816083BF789488952F
:1035F00083B78E7F83BF0FB6F894A8958091600043
:10360000886180936000109260000FBE80918E02EE
:10361000882369F00E940F18ECEFF1E081919191FD
:10362000892B09F034C192E0E630F907B9F78091AF
:103630008F02853009F4C1CF0E94620B0E94CB0635
:1036400061CF2817390709F075CF0E94C118F12CF6
:1036500080915902882381F186ED92E09093DD06F6
:103660008093DC0600E111E0D8018D918D010E946C
:103670005F0AB1E005321B07B9F78091D40290913F
:10368000D502892B41F5809158028823A9F00E9428
:103690001606009154021091550220915602309165
:1036A0005702601B710B820B930B6F3F7F4F8F4F45
:1036B0009F4710F40E94830FF1100E949E0F0E94FA
:1036C000CB0690915302891709F416CF80935302C9
:1036D0000E94160611CF809159028823A1F2809191
:1036E00052028111D0CF0E949E0F2091D4023091BE
:1036F000D5022115310539F280E041E050E0082F74
:1037000010E02A01082E02C0440C551C0A94E2F76E
:10371000B20162237323672B11F48F5FF0CF909176
:10372000510290FF9CC0880F880F880F80930A0178
:1037300010920D01895F80930B0187E080930E0149
:1037400024E630E047E050E068E071E088E70E945E
:10375000FE1C892B09F097CFA80126E0440F551FC6
:103760002A95E1F78091510280FF8AC0E1E1F2E001
:10377000DF01272D1D922A95E9F786E791E09A87C8
:1037800089870EE611E09EE7A92E91E0B92EA98562
:10379000BA852D91BA87A987F80121908F01240E4F
:1037A000352E311CC1018A529D4F1C01E22FF0E0E1
:1037B000EF5EFD4F30E020E087E0882E821AEE2495
:1037C000E394022E01C0EE0C0A94EAF7610190E046
:1037D000D6018D916D018E21682D691B6770962E23
:1037E000062E000C770BB82F01C0BB0F9A94EAF796
:1037F0009B2E7195619571096770772701C0869539
:103800006A95EAF7982A8081982A90829F5F98307B
:10381000F9F62F5F3F4F31962830310569F6E9857B
:10382000FA85AE16BF0609F0B2CF04E610E020E438
:1038300030E041E152E060E488E70E941F1D892BDF
:1038400009F021CF409450948091D4029091D502F8
:10385000482259225092D5024092D40214CF829528
:10386000880F880F807480930A01980136952795F8
:1038700020930D01815C80930B0120930E0160CF9A
:103880004A525D4F04E610E020E430E0D4CF20E15E
:1038900029BD19BD09B400FEFDCF8091D8008F7DF0
:1038A0008093D8008091E00082608093E000809156
:1038B000E00081FDFCCF0E94620BB9CE1092B900EE
:1038C0008CE08093B8000895B0E0A0E0EAE6FCE167
:1038D0000C94651DB82EEB010E942D116C01EE2495
:1038E000E394F12CC431D10560F025E0E22EF12CF7
:1038F000CF3FDC0731F0CE0164E170E00E944A1D49
:103900007B0184EAA82E94E8992E1092BC00A09224
:10391000BC000E942D118C018091BC0087FF0DC05E
:103920008091B900887F8830F9F08091B900887F54
:103930008031D1F00FEF1FEF08C0C8010E941E11A7
:10394000E816F90648F70EEF1FEFCF3FDC07E9F264
:10395000C6010E941E11C817D907B8F6C801CDB715
:10396000DEB7EBE00C94811DB092BB009092BC00DE
:103970000E942D118C018091BC0087FF0AC08091AC
:10398000B900887F883111F08034A1F610E000E0A2
:10399000E5CFC8010E941E11E816F90660F7D3CFE3
:1039A0000F931F93CF93DF93EB018093BB0084E8C9
:1039B0008093BC000E942D118C018091BC0087FF78
:1039C00011C02091B900287F81E090E0283211F4E5
:1039D00090E080E0919581959109DF91CF911F91C1
:1039E0000F910895CF3FDC0741F3C8010E941E11DB
:1039F000C817D90710F78EEF9FEFEFCFB0E0A0E028
:103A0000E4E0FDE10C94681D6B018A017901B901C4
:103A10000E94641CE6010C0D1D1DC017D10711F09A
:103A200097FF08C024E92093BC00CDB7DEB7E8E0DB
:103A30000C94841DB70189910E94D01CEECFB0E098
:103A4000A0E0E5E2FDE10C94681DC62F6A01790152
:103A5000B8010E94641C97FD0CC0B8018C2F0E9415
:103A6000D01CE601EC0CFD1CCE15DF0511F097FF14
:103A700008C024E92093BC00CDB7DEB7E8E00C9481
:103A8000841DB80189910E94D01CEECF84E98093F7
:103A9000BC000895AA1BBB1B51E107C0AA1FBB1F96
:103AA000A617B70710F0A61BB70B881F991F5A95CA
:103AB000A9F780959095BC01CD0108952F923F9272
:103AC0004F925F926F927F928F929F92AF92BF922E
:103AD000CF92DF92EF92FF920F931F93CF93DF93DA
:103AE000CDB7DEB7CA1BDB0B0FB6F894DEBF0FBE37
:103AF000CDBF09942A88398848885F846E847D8484
:103B00008C849B84AA84B984C884DF80EE80FD8085
:103B10000C811B81AA81B981CE0FD11D0FB6F894FB
:103B2000DEBF0FBECDBFED010895991B79E004C043
:103B3000991F961708F0961B881F7A95C9F78095EC
:103B40000895EE0FFF1F0590F491E02D0994FB01FD
:103B5000DC0102C005900D9241505040D8F7089505
:103B6000FB01DC0104C08D910190801921F44150CA
:103B70005040C8F7881B990B0895F999FECF92BD64
:103B800081BDF89A992780B50895A8E1B0E042E098
:103B900050E00C94011EDC01A40FB51F41505040B1
:103BA00048F0CB01840F951F2E910E94DC1D4150DF
:103BB0005040D0F70895262FF999FECF92BD81BDD0
:103BC000F89A019700B4021639F01FBA20BD0FB65B
:103BD000F894FA9AF99A0FBE08950396272F0E9437
:103BE000DC1D0E94DB1D252F0E94DC1D242F0C9460
:103BF000DC1D0196272F0E94DC1D0C94DB1DDC01CF
:103C0000CB01FC01F999FECF06C0F2BDE1BDF89AE7
:103C1000319600B40D9241505040B8F70895F89491
:103C2000FFCF610C890C210E890C210EBC0CDD0C20
:103C3000210EDA0DE70DD511DB11B311CF11E11112
:103C4000E711ED114B12C01253121D12211257121F
:103C500025125B1267123112B91235126B1239122A
:103C60006F1297123D1273129E1243127912811233
:103C700029125F122D12631247127D128D12A712A4
:103C8000B71217124F12C71241134113771377134C
:103C900016149D139D139D133214BA14C914C9141C
:103CA00002061F0F0106180F0021007F22000701E6
:103CB00020202020202053636F74746F47616D654E
:103CC000202020202000818283E200E900EA00B564
:103CD00000B600B700CD008301CC008A01920194A8
:103CE000012102230224022502260227022A02B30E
:103CF00000B4006F0070009F01CB019F02A002F78B
:103D00003133323692946697C63435F4F5F60008AE
:0E3D10001018202830383830282018100800ED
:00000001FF
