:100000000C94AC050C94C9050C94C9050C94C90555
:100010000C94C9050C94C9050C94C9050C94C90528
:100020000C94C9050C94C9050C94E2100C9410179B
:100030000C94262D0C94C9050C94C9050C94C90583
:100040000C94C9050C94C9050C94C9050C94C905F8
:100050000C94C9050C94BB110C94C9050C94C905EA
:100060000C94C9050C94C9050C94C9050C94C905D8
:100070000C94C9050C94C9050C94C9050C94C905C8
:100080000C94C9050C94C9050C94C9050C94C905B8
:100090000C94C9050C94C9050C94C9050C94C905A8
:1000A0000C94C9050C94C9050C94C9050501098077
:1000B000A101850319012AB700150126B700950192
:1000C00075108100C0050C0901A101850419012AE0
:1000D000A002150126A002950175108100C005013E
:1000E0000906A1018506050719E029E71500250184
:1000F0009508750181020507190029EF15002501F2
:1001000095F075018102050819012905950575010C
:100110009102950175039101C00660FF0961A1017B
:100120000962150026FF00952075088102096315F4
:100130000026FF00952075089102C005010906A15F
:1001400001050719E029E7150025019508750181CA
:10015000029501750881010507190029FF15002680
:10016000FF00950675088100050819012905950508
:1001700075019102950175039101C000DA1281FFAA
:10018000D9F1DB20A4A62EAF00A0C000A1C800AE0C
:10019000D580A83FD300408D142000FD377A585AEF
:1001A000000004E6D6B446020021011600000074E7
:1001B0002FE5A3E0016800A65D003D8889A654757F
:1001C0000A36E182AEFA7A1AA6FCA2ED4954B48A44
:1001D0005E7177BBD0558A5F04BCAA647EE5D3B458
:1001E0009857C974860BD13C57B902472BB86A9A05
:1001F00061CB6AFFE9AF3229D96405A4E423F21C7C
:100200002CBD434EE233D600A59F7373B23EE42C5F
:100210000CF97632C3DFE922E2F21AF985484A4D39
:10022000EBED196A74D755DDEAC1AE606F783B1902
:10023000E9EE0E4D2ECD046D24F0F8AC43DF44AB57
:10024000567A60379BD6C0C07C0AE05CCDC35F1491
:100250007A4277D6740A59F5A0724F60C1E8ED0072
:10026000000000ABD00839BF82C35D0001C201E9C4
:100270000200000E98E60AB1C467FB02000000000D
:1002800004595A1E001F00200021002200000023F4
:100290000000000000000014001A000800150017FC
:1002A000001C0018000C00120013000400160007C8
:1002B0000009000A000B000D000E000F002A001DAF
:1002C000621B0006001900050011001000360037FF
:1002D0000038720000E000E2002C68000000002BF3
:1002E0004128422900000001000100010001000135
:1002F00000000001000000000000002D022D002E73
:10030000022E0033023500BC00AE00BB004C002FB3
:100310000226022702300231022900500052005109
:10032000004F002F6234003402300033003502AA3F
:1003300000A800A9003172000001000100010000C6
:1003400000000001000100010000000100010001A7
:100350000001000100000001000000000000001E7C
:10036000021F022002210222022302240225023956
:10037000002A001E001F002000210022002300246C
:1003800000250026002700E1000000000000000317
:1003900051000000003600370038720000010001F3
:1003A0000001000000000001000100010000000148
:1003B0000001000100010001000000010000000038
:1003C000000000000000000000000000000000002D
:1003D000000000000000003A003B003C003D003EF1
:1003E000003F004000410042004300440000000084
:1003F00000005C010000000000000000004500005B
:1004000000010001000100000000000100010001E6
:10041000000000010001005D04350F680F000002BC
:100420000002005904350F680F0000030001005E50
:1004300004350F680F0000040002004304350F6804
:100440000F3C09050001005F04350F680F0000062E
:100450000002004504350F680F0000070002005B32
:1004600004350F680F0000080001006004350F68B4
:100470000F0000120002006104350F680F00001326
:100480000002006304350F680F00001400010065CE
:1004900004350F680F0000150000000000C2088E30
:1004A00018000000AF00AE09025B00030100A0FAD3
:1004B00009040000010301010009211101000122CA
:1004C0004000070581030800010904010002030040
:1004D00000000921110100012222000705820320EA
:1004E00000010705030320000109040200010300C5
:1004F0000000092111010001226D0007058403207D
:10050000000112010002000000084B530600000128
:10051000010203011C037600690061006C003A00CF
:10052000660036003400630032006200330063006E
:1005300000001603530063006F00740074006F0026
:10054000470061006D006500000018035300630060
:100550006F00740074006F004B006500650062005E
:100560007300000004030904000000000000000004
:10057000000000000000000000000000000000007B
:100580000000000000000000000000007E0F00D40A
:10059000FFFFFFC70000007800000000000000001F
:1005A0002A2B2800000000000000000000000000CE
:1005B00000000029000000002C1E342021222434D9
:1005C0002627252E362D3738271E1F2021222324AB
:1005D00025263333362E37381F0405060708090A47
:1005E0000B0C0D0E0F101112131415161718191AE3
:1005F0001B1C1D2F3130232D350405060708090A61
:100600000B0C0D0E0F101112131415161718191AC2
:100610001B1C1D2F3130354C07087F0807003E5B3F
:100620004F5B3E003E6B4F6B3E001C3E7C3E1C0011
:10063000183C7E3C18001C577D571C001C5E7F5EDA
:100640001C0000183C180000FFE7C3E7FF0000187B
:1006500024180000FFE7DBE7FF0030483A060E00F1
:10066000262979292600407F05050700407F0525BA
:100670003F005A3CE73C5A007F3E1C1C0800081C07
:100680001C3E7F0014227F2214005F5F005F5F002A
:1006900006097F017F00006689956A0060606060DE
:1006A000600094A2FFA2940008047E0408001020B9
:1006B0007E20100008082A1C0800081C2A080800D0
:1006C0001E10101010000C1E0C1E0C0030383E388E
:1006D0003000060E3E0E0600000000000000000084
:1006E0005F000000000700070000147F147F140063
:1006F000242A7F2A120023130864620036495620F8
:100700005000000807030000001C224100000041C7
:10071000221C00002A1C7F1C2A0008083E08080032
:1007200000807030000008080808080000006060C1
:1007300000002010080402003E5149453E000042DE
:100740007F4000007249494946002141494D33002C
:100750001814127F10002745454539003C4A494985
:1007600031004121110907003649494936004649FF
:1007700049291E0000001400000000403400000061
:10078000000814224100141414141400004122140F
:1007900008000201590906003E415D594E007C12D5
:1007A00011127C007F49494936003E4141412200F7
:1007B0007F4141413E007F49494941007F09090984
:1007C00001003E41415173007F0808087F0000414D
:1007D0007F4100002040413F01007F08142241007A
:1007E0007F40404040007F021C027F007F040810D1
:1007F0007F003E4141413E007F09090906003E411C
:1008000051215E007F0919294600264949493200D5
:1008100003017F0103003F4040403F001F20402074
:100820001F003F4038403F00631408146300030476
:10083000780403006159494D4300007F4141410064
:10084000020408102000004141417F00040201021F
:1008500004004040404040000003070800002054CE
:10086000547840007F2844443800384444442800E9
:10087000384444287F0038545454180000087E0936
:10088000020018A4A49C78007F08040478000044A7
:100890007D4000002040403D00007F1028440000C3
:1008A00000417F4000007C04780478007C08040448
:1008B0007800384444443800FC18242418001824D4
:1008C0002418FC007C0804040800485454542400F4
:1008D00004043F4424003C4040207C001C20402075
:1008E0001C003C4030403C004428102844004C9000
:1008F00090907C004464544C440000083641000051
:1009000000007700000000413608000002010204E8
:1009100002003C2623263C0000000000000040406E
:1009200040F0F8F8FF38FFF8F83FF8F8FF38FFF824
:10093000F8F040404000000000000080C0C0C080CF
:100940000000C0C08000000080C0C000C0C0000027
:1009500080C0C00000000000C0C0C0C0C000C0C057
:100960000000000000000000000000000000000087
:100970000000000000000000000000000000000077
:100980000000000000000000000000000000000067
:1009900000000000000000C0F0F8FC3E1E06010050
:1009A00000007F4141417F007F4141417F00008045
:1009B000C0E07E5B4F5BFEC00000C000DCD7DEDE27
:1009C000DED7DC00C00000000000000000000000D6
:1009D0000000000000000000000000000000494985
:1009E00049FFFFFFFFE0DFBFBF00BFBFDFE0FFFF4A
:1009F000FFFF49494900000000001F3F6060E0BF61
:100A00001F007F7F071E381E077F7F007F7F0E1F1E
:100A10003B716000000000007F7F0C0C0C007E7EAC
:100A2000007F7E0303007F7E03037E7E03037F7EC1
:100A3000000F3E703C063C703E0F00327B49493F40
:100A40007E007F7E0303001E3F69696F2600000061
:100A500000000000000000030F1F3F3C78706000A2
:100A600000007F4141417F007F4141417F00307B59
:100A70007F7830202030787F3B0003000F7F0F0FFE
:100A80000F7F0F00030000000000000000000000C6
:100A90000000000000000000000000000000010154
:100AA00001070F0F7F0F7F0F0F7E0F0F7F0F7F0F3D
:100AB0000F0701010100000000000000000000011C
:100AC0000100000000000000000000000000000025
:100AD0000000000000000000000000000000000016
:100AE0000000000000000000000000000000000006
:100AF00000000000000000000000000000000000F6
:100B000000000000000000000000000000000000E5
:100B100000000000000000000000000000000000D5
:100B200000000000000000000000000000000000C5
:100B300000000000000000000000000000000000B5
:100B400000000000000000000000000000000000A5
:100B5000000000000000000011241FBECFEFDAE00B
:100B6000DEBFCDBF11E0A0E0B1E0E2EDFEE602C0E5
:100B700005900D92A639B107D9F729E0A6E9B1E0B1
:100B800001C01D92A737B207E1F70E944D2D0C94CA
:100B90003C370C940000E8EDF0E080818E7F80838C
:100BA0001092E2001092DA001092E100A0EEB0E0A4
:100BB0008C9181608C9380818F77808319BCA7EDA5
:100BC000B0E08C918E7F8C9380818F7E8083109299
:100BD0003B0508952091E4003091E50095E6A901D8
:100BE0002091EC00822F817020FF06C08091E800E8
:100BF00080FF06C080E008952091E80022FD1AC021
:100C000080916905882389F0853089F08091EB0017
:100C100085FD0FC02091E4003091E5004217530795
:100C2000F9F29150E1F684E0089582E0089583E0BE
:100C3000089581E00895EF92FF920F931F93CF9351
:100C40007C018B010E94EA05C82F811117C0809199
:100C5000E80085FD0BC08091E8008E778093E80066
:100C60000E94EA05882399F3C82F08C0F7018191F3
:100C70007F018093F1000150110949F78C2FCF912A
:100C80001F910F91FF90EF900895CF93FC018091F9
:100C90006905843001F5C091E900CF702091EC0026
:100CA000922F917020FD90E8C92B82E08093E9009B
:100CB0008091E80080FF0CC050E040E060E270E00E
:100CC000CF010E941B068091E8008E778093E80098
:100CD000CF70C093E900CF9108958091610587FF9F
:100CE00013C08091E80082FF06C08091E8008B77F6
:100CF0008093E80004C0809169058111F2CF0895C6
:100D0000809169058823D9F38091E80080FFF8CFAE
:100D10008091E8008E77ECCF982F9093E900242FF4
:100D2000762F50E0891731F07091EC002091ED00A2
:100D30005091F00021FD07C09F5F973071F78093BD
:100D4000E90081E008953091EB003E7F3093EB00A5
:100D50003091ED003D7F3093ED003091EB0031603C
:100D60003093EB007093EC002093ED005093F00073
:100D70002091EE0027FDE0CF80E00895B0E0A0E0F4
:100D8000E4ECF6E00C947636C8EDD0E088818F7EF6
:100D90008883E7EDF0E080818160808384E082BF1A
:100DA00081E080933B0588818E7F888302EE10E08E
:100DB000F80110821092DA0081EEC82ED12CF601D3
:100DC000108288818F778883888180688883888172
:100DD0008F7D888319BC109269051092600510926E
:100DE0005F0510925E0590EEE92EF12CF7018081EF
:100DF0008B7F808388818160888342E060E080E02F
:100E00000E948C06F60180818E7F8083F8018081AC
:100E100081608083808188608083F70180818E7FFC
:100E20008083888180618883CDB7DEB7E8E00C9449
:100E30009236FC01809167059091680586179707A7
:100E4000A0F06115710529F49091E8009E779093C8
:100E5000E80090E06115710551F4911108C080918E
:100E6000E80082FF34C080E00895BC01F2CF809199
:100E700069058823C1F18530C1F18091E80083FDC7
:100E800030C08091E80082FDEACF8091E80080FFC9
:100E9000E1CF8091F3002091F200382F61157105A8
:100EA00019F02830310558F091E02830310509F06B
:100EB00090E02091E8002E772093E800CBCF81913D
:100EC0008093F100615071092F5F3F4FE7CF809110
:100ED0006905882341F0853041F08091E80083FF67
:100EE000BECF81E0089582E0089583E008950895DB
:100EF000089580913D05089587E797E7909301084D
:100F00008093000888E19AE00FB6F894A895809342
:100F100060000FBE90936000FFCF2FB7F8946091F0
:100F200032057091330580913405909135052FBFBE
:100F30000895209118012223C1F02091360527FF42
:100F400014C0E62FE695E695E695EE31F8F4E80F45
:100F5000F92FF11D677021E030E001C0220F6A9582
:100F6000EAF78281822B82830895FC0132962FEF6B
:100F700030E04191641751F02F3F19F4411101C045
:100F8000232F3F5F3630A9F72F3F09F40895820FD2
:100F9000911D27FD9A95FC016283089520912F05EC
:100FA000309130052817390771F090933005809300
:100FB0002F05E0912D05F0912E05309721F000844A
:100FC000F185E02D0995089520912B0530912C0590
:100FD0002817390771F090932C0580932B05E09129
:100FE0002D05F0912E05309721F00680F781E02D38
:100FF00009950895E0912D05F0912E05309729F07F
:101000000190F081E02D0995089580E00895CF9337
:10101000DF93EC0140911B0550911C0560911D056B
:1010200070911E052FB7F894809132059091330589
:10103000A0913405B09135052FBF841B950BA60BED
:10104000B70B843F9140A105B10518F580911B05B0
:1010500090911C05A0911D05B0911E058093170568
:1010600090931805A0931905B0931A0584EF91E0A9
:10107000A0E0B0E08093130590931405A0931505AC
:10108000B0931605D0932305C0932205DF91CF912D
:1010900008950E948D07609317057093180580933B
:1010A000190590931A0582E390E0A0E0B0E0E2CF4A
:1010B000FC018481862351F492819923B9F069233C
:1010C000808583FF05C081E061110FC080E0089535
:1010D000892F8F7092959F70982B862F8F706295B5
:1010E0006F70682B81E09613F1CF089581E0FDCFFA
:1010F000452B39F0682381E06F3F09F080E0817073
:10110000089581E0FCCFDC0160910F05809110050E
:10111000962F891301C00895292F30E0F901EE0FB1
:10112000FF1FE95FFA4F408151814A175B07A1F425
:1011300087E08A9FA0018B9F500D112441535B4F84
:1011400081E0FA0184839613E6CF2F5F3F4F23702F
:10115000332720930F0508952F5F3F4F922F9370F1
:10116000D8CF10926C0410926B04EFECF4E0858100
:10117000811102C014821682379685E0E730F807A5
:10118000B1F70895B0E0A0E0E8ECF8E00C94743614
:101190008FEF9FEF4430510508F469C04091360548
:1011A00041FB882780F990E0880F991F42FB0027B8
:1011B00000F910E0000F111F000F111F802B912B61
:1011C00040FBCC24C0F8D12C8C299D2943FB22273D
:1011D00020F9C22FE0E0DE2F53E0CC0FDD1F5A953F
:1011E000E1F78C2B9D2B44FBAA27A0F9B0E0E4E0AB
:1011F000AA0FBB1FEA95E1F78A2B9B2B45FBEE2735
:10120000E0F9F0E0A5E0EE0FFF1FAA95E1F78E2BC5
:101210009F2B46FB222720F930E0B6E0220F331F38
:10122000BA95E1F7822B932B47FB222720F930E078
:101230003695322F222737952795822B932B209195
:101240003705322F3170F32EE82EF92A26952170BA
:10125000B22EBB0CA82EBF28C501BB0CAA0BBB0B22
:10126000FB0180839183A283B38390E080E0CDB7BC
:10127000DEB7EAE00C9490368091430490914404E8
:1012800090931501809314010895EBECF2E090E047
:1012900080E06AE37FE141E65FE12FEA3EE17783A8
:1012A0006683518740873387228795878487019695
:1012B0003E968830910599F7089581152CE592079F
:1012C00041F42091160430911704232B11F490E07F
:1012D00080E0089580E00895F894E82FE295EF709B
:1012E000F0E031A1282F2F7081E090E001C0880F3D
:1012F0002A95EAF7982F9095932391A392A1892B91
:1013000082A3789408959091360592FF06C0282F05
:1013100028712830F9F4877F846093FF06C0282F56
:1013200028712831F1F4877E84612091370520FFF0
:1013300006C0382F38713830D9F4877F816021FF9B
:1013400006C0282F28712831D1F4877E816194FD51
:10135000877E0895282F24712430F9F68B7F8860CA
:10136000DCCF282F2471243101F78B7E8861DDCFFB
:10137000382F3171313019F78E7F8860E0CF282FF8
:101380002171213121F78E7E8861E1CFCF93DF93E8
:10139000EC0182389105B1F108F040C0813391052C
:1013A00009F49DC048F58932910509F48DC08A97EA
:1013B00009F49CC0C11522E5D20708F0BDC0C115D3
:1013C00031E5D30708F025C1C83ED10508F0A3C018
:1013D000C13ED10588F5C83AD10508F08EC0C53A9E
:1013E000D10508F0F6C0C130D10531F1209721F1C7
:1013F000C430D10508F545C08533910509F45FC0B7
:10140000C997C1F680913605837009F037C1809184
:10141000370583FF11C0C9E2D0E00EC0833E9105BD
:1014200099F170F4803E910501F1823E910511F62B
:101430008091360582FD21C0CE01DF91CF910895C4
:10144000863E910561F1873E910571F1843E9105DB
:1014500009F0B0CF8091370581FFEECF809136053E
:10146000C7EED0E084FD0DC0E7CF8091360580FD4A
:1014700033C09091370590FFDFCFC3EED0E084FFFB
:10148000DBCFD0E0C0E0D8CF8091360582FDF3C03D
:101490009091370590FDF2C084FFCECFF2CF8091BE
:1014A000360583FDDDCFC8CF8091360583FDE9C0C9
:1014B0009091370591FFF0CFC4EED0E0BDCF809181
:1014C000360585FFB9CFA7CF8091360585FDDCC0F5
:1014D0008091370583FFB0CFC9E3D0E0ADCF8091D5
:1014E000360586FFA9CFCAE2D0E0A6CF80913605A7
:1014F00086FFA2CFC1E3D0E09FCFCF3BD10508F656
:10150000C85AD0E0CC0FDD1FC65CDE4F0990D881F1
:10151000C02DD46491CFC11540E5D40708F064C054
:10152000C11580E4D80708F05CC0CE019A958115FA
:101530009F4108F481CFA5CFC11536E5D30718F533
:10154000C11545E5D40708F07DC0C11584E5D8076D
:1015500008F073C09C2F969596959E0123703327B3
:10156000C115D34508F45AC0C1E0D0E002C0CC0F89
:10157000DD1F2A95E2F730E2939FC0011124C82BAA
:10158000D92BDA6859CFC1158AE5D80778F4C11587
:1015900029E5D20708F061C0C11538E5D30708F482
:1015A00070CFDC2FCC27C06FD06A46CFCE019056CB
:1015B0008115904208F065CF8D2F8F710E948309AD
:1015C00090E0982F882788279F719C012C2BE90198
:1015D00042C0C55AD0E0C95CDE4FC881D0E0D064BB
:1015E0002BCFDF70D06A28CF2C2F2695269523701D
:1015F00080E2289F900111248C2F8370C1E0D0E0FD
:1016000002C0CC0FDD1F8A95E2F7C22BD32BDD6819
:1016100013CFDC2FCC27C16FD06A0ECFC1E0D0E052
:1016200002C0CC0FDD1F2A95E2F720E2929FC00195
:101630001124C82BD92BDC68FFCEDC2FCC27C46F3C
:10164000D06AFACE8C2F0E948309C82FD0E0DC2FFD
:10165000CC27CC27DF71D062EFCE8C2F8F700E9409
:10166000830934E0D695C7953A95E1F7CF709C2F62
:10167000EC01D069E1CEC2EED0E0DECEC0EED0E02B
:10168000DBCEC6EED0E0D8CEC5E3D0E0D5CE80919B
:101690004202882331F010924202109241021092CD
:1016A00040020895809590916B05982390936B0567
:1016B0000895809590912204982390932204089590
:1016C00090912204892B80932204089510921F0286
:1016D00010921E0210921D020895909118019923F4
:1016E000D1F09091360597FF16C0E82FE695E69564
:1016F000E695EE31E0F4F0E0E856FE4F282F277033
:1017000081E090E001C0880F2A95EAF780959281E8
:10171000892382830895EAE9F1E09191891303C056
:10172000DF0111971C9291E0E03AF907B1F70895B3
:1017300020911C029091DB01291302C080E00895E2
:1017400030E0F90153E0EE0FFF1F5A95E1F7E45244
:10175000FE4F5181561306C05081581303C0528169
:10176000541304C02F5F3F4F2770E6CF81E00895E8
:1017700080911C029091DB01981301C008958F5F46
:101780008770FACF292F953078F58A3068F590E088
:101790003AE0239F800D911D1124682F677023E08C
:1017A000969587952A95E1F7FC01EE0FFF1FE80F4C
:1017B000F91FE254FE4F50E040E080E0219130E01C
:1017C000062E02C0369527950A94E2F7217033273A
:1017D000042E01C0220F0A94EAF7822B4F5F5F4F5D
:1017E0004330510559F7089580E00895292F953029
:1017F00098F58A3088F590E03AE0239F800D911D9E
:101800001124282F277041E001C0440F2A95EAF7E0
:1018100023E0969587952A95E1F7FC01EE0FFF1FCF
:10182000E80FF91FE254FE4F30E020E070E05191E4
:10183000DF011197CB01022E02C0969587950A947D
:10184000E2F7817081958527842385278C932F5F0C
:101850003F4F2330310559F7089592959F70963088
:1018600091F058F4925F9F70923058F4803F19F0D5
:1018700030F4883E30F481E008959A5FF4CF843FDD
:10188000D1F380E00895883EB0F3813FD1F7F3CFE4
:101890009C013A9521153F4150F5FC01EE27F1706E
:1018A000BC0166277270AC01442754709C0122274A
:1018B000387094FF0EC080E1EF2B09F480E0672BB5
:1018C00009F08062452B09F08064232B89F0806841
:1018D000089581E0EF2B09F480E0672B09F0826026
:1018E000452B09F08460232B19F08860089580E06F
:1018F0000895CF93DF93C0917509D09176098A300E
:10190000C1F420916C05CE018F569540622F70E096
:101910000E945836281B822F66E00E94A336C82FEB
:10192000C15018F4DF91CF91089580E20E94790CA4
:10193000F7CF8D30E9F4CF56D54020916C05622F5A
:1019400070E0CE010E945836281B822F9E01280F7E
:10195000311D2115344018F080E0D0E0C0E0C80F00
:10196000D11DC159DA4FD0937609C0937509DACFEA
:1019700096E0FE01AFE6B9E001900D929A95E1F78D
:10198000803E08F458C086E0FE0111928A95E9F77E
:10199000C0917509D091760946E050E0BE018FE60E
:1019A00099E00E94C5369E012F563540892B41F1A2
:1019B000C90146E0969587954A95E1F741E050E0E8
:1019C000BA0102C0660F771F8A95E2F7CB016091DA
:1019D0006D0570916E05862B972BB9016B5F7F4F5C
:1019E000E6E076956795EA95E1F702C0440F551F4A
:1019F0006A95E2F7842B952B90936E0580936D0585
:101A00002A5F3F4F40916C05642F70E0C9010E942E
:101A10005836481B463010F4240F311D211574E050
:101A2000370710F030E020E021593A4F3093760923
:101A30002093750977CFF6E08F9FB0011124685E7F
:101A4000794F46E050E0CE010E94BC36A1CF809392
:101A5000380570933A0560933905809169058430A3
:101A6000F9F48093E9008FEF9091E800815095FDA3
:101A700006C095ED9A95F1F700008111F5CF8091A0
:101A8000E80085FF0DC050E040E063E070E088E3CF
:101A900095E00E941B068091E8008E778093E80015
:101AA0000895BC0184E00E94270D0895BC0183E0E5
:101AB0000E94270D0895CF93DF93EC0180911801C8
:101AC0008823B1F18091360587FF32C060E284E05F
:101AD0008093E9008FEF9091E800815095FD06C05A
:101AE00095ED9A95F1F700008111F5CF8091E8000E
:101AF00085FF1BC08091180170E050E040E081112B
:101B000004C050E040E068E070E0CE010E941B0697
:101B10008091E8008E778093E80080E2FE01AEE3DA
:101B2000B5E001900D928A95E1F7DF91CF9108958C
:101B300068E081E0CDCF019708F40895EFE9FFE078
:101B40003197F1F700C00000F6CFB0E0A0E0EBEA7B
:101B5000FDE00C9476366C017B0164E670E088E76A
:101B60000E947235EC0197FD12C010E000E0F60112
:101B7000E00FF11F849164E670E00E94DE35EC0115
:101B8000892B29F40F5F1F4F0E151F0581F70E9447
:101B90005436CE01CDB7DEB7E8E00C949236809192
:101BA000200490912104911103C091E089270895A8
:101BB000882369F062E070E085EA94E00E94A50D58
:101BC000892B19F0809120040895109220048091AF
:101BD0002004EBCFCF93C09120048091210488236F
:101BE000D1F00E948D07605A75418F4F9F4F6093CF
:101BF0001C0470931D0480931E0490931F04C11154
:101C000008C062E070E083EA94E00E94A50D892B91
:101C100029F0C09120048C2FCF91089581E080930A
:101C20002004F7CF0F931F93CF93DF9303E414E0C7
:101C3000C7EBD1E0CE010E94F236F80181938F010B
:101C40002196CB3DF1E0DF07A9F7CDE1D4E0FE011D
:101C500085919491009711F0FC0109952C96F4E080
:101C6000CD3ADF07A1F7DF91CF911F910F91089532
:101C70000F931F93CF93DF93843030F5653020F5B9
:101C80004A3010F5C42FD0E0CC0FDD1F24E1629F55
:101C9000C00DD11D112434E6839FC00DD11D112428
:101CA000CE0187960E94F236082F10E0102F0027F1
:101CB000CE0188960E94F2369801282BC901DF9147
:101CC000CF911F910F91089590E080E0F8CF462FBB
:101CD00020911A0430911B04232B99F4703F39F49E
:101CE000603F79F48091180490911904089584302C
:101CF00040F4753030F46A3020F4672F0E94380EBB
:101D0000089590E080E00895CF92DF92FF920F93C4
:101D10001F93CF93DF936C0100916A05809143027A
:101D2000082BC7E0D0E010E0FC2EC8010C2E02C04A
:101D3000959587950A94E2F780FD0CC02197A0F74E
:101D4000F12C8F2DDF91CF911F910F91FF90DF909C
:101D5000CF900895B6018C2F0E94670E0E94C6098D
:101D6000019761F3EECFCF93DF93EC010E94840ED5
:101D7000BE010E94670E0E94C609DF91CF910895AF
:101D8000CF93DF93EC014B815C81698188810E9454
:101D90007808811110C08E819F81009739F00E94D0
:101DA000C6090E942D0CDF91CF91089588819981F9
:101DB0000E94B30EF6CF80E0F6CFA5E0B0E0E3EEF0
:101DC000FEE00C947B3649835A8389819A8166238D
:101DD00099F0222389F00E94840E182F682F8981A0
:101DE0009A810E94F60B69817A81812F0E94670E89
:101DF0002596E3E00C9497360E94C20B182FF3CF80
:101E0000FC01262F86819781009739F4408151810A
:101E10006281738184810E94DD0E089583E290E0E7
:101E20000E94F236833589F484E290E00E94F23613
:101E3000853B59F485E290E00E94F23691E08F3ABA
:101E400009F090E0892F8170089580E0FCCFCF9356
:101E500084E090E00E94F236C82F82E290E00E9477
:101E6000F236982F8C2FCF910895DB01FC0132962A
:101E7000259134914217530758F0FC01349665912F
:101E80007491A901CD010E94D23690E080E00895BE
:101E90008FEF9FEF08950F931F93CF93DF9303E48A
:101EA00014E0C7EBD1E0CE010E94F236F801619157
:101EB0008F01681719F0CE010E9400372196CB3DA3
:101EC000F1E0DF0781F7DF91CF911F910F91089526
:101ED000DA019C012E5F3F4FF90145915491F901C0
:101EE00025913491A217B30758F0FC0134968591DF
:101EF00094910E94D2360E944B0F90E080E00895AA
:101F00008FEF9FEF0895CF93DF93CBECD2E060E0AB
:101F1000CE010E9400372196C11584E0D807B9F799
:101F2000DF91CF9108951F93CF93DF93122F8430C9
:101F3000E0F46530D0F44A30C0F4C42FD0E0CC0FC8
:101F4000DD1F94E1699FC00DD11D112494E6899F86
:101F5000C00DD11D1124632FCE0187960E9400373A
:101F6000612FCE0188960E940037DF91CF911F919B
:101F70000895CF93C82F6FEF811163E583E290E05E
:101F80000E9400376FEFC11165EB84E290E00E9480
:101F900000376FEFC1116FEA85E290E00E940037D1
:101FA000CF910895CF93C92F682F84E090E00E94CD
:101FB00000376C2F82E290E00E940037CF910895A5
:101FC0009B01883070F49AE0899FB001112465521A
:101FD0007E4F4AE050E0C9010E94E23690E080E086
:101FE00008958FEF9FEF0895AAE0B0E0EAEFFFE0D9
:101FF0000C947C369C0137552F3F310509F068F46D
:10200000BE016F5F7F4F0E94E00F892B31F48985FD
:102010009A852A96E2E00C94983680915B04909120
:102020005C04F7CFAAE0B0E0E8E1F0E10C9472368E
:102030000EE913E08CE8C82E83E0D82E9BE7E92E4A
:1020400092E0F92E27E0922E3BE8A32E33E0B32E48
:1020500088248394D6010D931D936D014AE050E0CE
:10206000B701CE0101960E94E236F8013896DF01F1
:10207000892D1D928A95E9F789819A81D801119657
:102080009C938E938F8112968C9312978D811396C9
:102090008C931397888514968C931497898515963D
:1020A0008C9315978B819C8117969C938E93169792
:1020B00018961C9218978A8587FF3CC01E961C9222
:1020C0001E921D9780FF03C0D80118968C9281FF45
:1020D00004C0F80190859260908782FF07C0D80104
:1020E00018969C911897946018969C9383FF04C04F
:1020F000F80190859860908784FF07C0D8011896F2
:102100009C911897906118969C9385FF04C0F801E4
:10211000808580628087015F1F4FFAE0EF0EF11C1F
:102120008BECE81682E0F80609F094CF2A96ECE0F2
:102130000C948E36F801B686A586C4CFAAE0B0E02E
:10214000E4EAF0E10C947636EBE3F3E080E5DF01BE
:102150001D928A95E9F7EFECF4E088E3DF011D9228
:102160008A95E9F78BE3C82E83E0D82E7F010BE236
:1021700012E0F701D182C0824AE050E0B801CE01FE
:1021800001960E94E23688E0FE013196D601019068
:102190000D928A95E1F789859A85D70113969C93CC
:1021A0008E931297BAE0CB0ED11CE7E0EE0EF11C35
:1021B000065F1F4F0B37F2E01F07D9F62A96E8E0BB
:1021C0000C9492361F920F920FB60F9211242F93F8
:1021D0003F934F935F936F937F938F939F93AF93AF
:1021E000BF93EF93FF938091E10082FF09C080913C
:1021F000E20082FF05C08091E1008B7F8093E100C7
:102200008091DA0080FF24C08091D80080FF20C038
:102210008091DA008E7F8093DA008091D90080FF70
:102220009DC080E189BD82E189BD09B400FEFDCF7A
:1022300081E08093690580913B05811109C00E946E
:10224000CB050E94BE068091E20084608093E2008C
:102250008091E10080FF17C08091E20080FF13C0F1
:102260008091E2008E7F8093E2008091E2008061A5
:102270008093E2008091D80080628093D80019BCDE
:1022800085E0809369058091E10084FF2BC08091F7
:10229000E20084FF27C080E189BD82E189BD89B564
:1022A000982F917080FFFBCF8091D8008F7D809315
:1022B000D8008091E1008F7E8093E1008091E20060
:1022C0008F7E8093E2008091E20081608093E20043
:1022D00080916005882309F447C084E080936905F4
:1022E000809169058091E10083FF27C08091E20021
:1022F00083FF23C08091E100877F8093E10082E02B
:1023000080936905109260058091E1008E7F809333
:10231000E1008091E2008E7F8093E2008091E200F4
:1023200080618093E20042E060E080E00E948C06E1
:102330008091F00088608093F000FF91EF91BF9151
:10234000AF919F918F917F916F915F914F913F914D
:102350002F910F900FBE0F901F90189519BC1092DF
:10236000690510923B0574CF8091E30087FD93E0EF
:1023700090936905B5CF78941F921FB61F921124D0
:102380008F939F93AF93BF938091320590913305C4
:10239000A0913405B09135050196A11DB11D809322
:1023A000320590933305A0933405B0933505BF9162
:1023B000AF919F918F911F901FBE1F9018959C0108
:1023C0004FB7F8948091320590913305A091340570
:1023D000B09135054FBF821B930B08952FB7F8942A
:1023E0008091320590913305A0913405B091350567
:1023F0002FBF0895AAE0B0E0E0E0F2E10C9472365D
:102400008E010F5F1F4F8AE0F80111928A95E9F75C
:1024100098E6E92E91E0F92E6801AA24A394B12C44
:10242000F70181917F018F3F09F446C0F894E82FAE
:10243000E295EF70F0E021A18F70A50102C0440F7A
:10244000551F8A95E2F7CA01922F982B91A392A16A
:102450008095892382A3789400C0EDE6F1E021E025
:1024600030E0912C812C41914F3F09F467C0A42F9B
:10247000A295AF70B0E090968C9190E04F7002C042
:10248000959587954A95E2F780FD58C0C901882A3D
:10249000992A220F331F51E0E737F50721F7F7019B
:1024A000319780818F3F11F00E946C0980EA8A95F4
:1024B000F1F7F60191828082F2E0CF0ED11C4DE659
:1024C000E41641E0F40609F0ABCF4AE050E0B80171
:1024D00087E492E00E94C536892B99F18AE0F801E1
:1024E000A7E4B2E001900D928A95E1F781E0809334
:1024F00046020E94EE11909345028093440280911F
:102500004402909145020E94DF110597F0F04AE0E5
:1025100050E067E472E08FEA92E00E94C536892BB2
:10252000C9F08AE0E7E4F2E0AFEAB2E001900D9290
:102530008A95E1F781E01092460208C090E080E0C1
:10254000A6CF809146028111DACF80E02A96ECE096
:102550000C948E3680E0EFCFCF93C82F8091370553
:1025600082FF0CC0809142028C1741F00E94EE1154
:102570009093410280934002C0934202CF9108950C
:102580008091450490914604892B89F00E94EE11B8
:102590002091400230914102AC01421B530B81E07B
:1025A00020914504309146044217530708F480E017
:1025B00081700895CF938091220490916B05892BAF
:1025C0008093980180914202882329F180914504EB
:1025D00090914604892B29F00E94C01281110E941B
:1025E000470B8091980190914202892B809398012A
:1025F00080911801882309F447C08091360587FF30
:1026000043C08EE1EAE9F1E090E0815008F03EC07D
:1026100091110E94470BC0911F05C09580919801B0
:10262000C82380912005C82BC093980140E250E058
:1026300060E272E088E991E00E94C536892B11F1D1
:1026400080E2E8E9F1E0A0E2B2E001900D928A9523
:10265000E1F7E0912D05F0912E05309799F08091EA
:102660001801882349F08091360587FF05C0C09383
:10267000990186E0809398010280F381E02D88E93A
:1026800091E00995CF91089586E0BCCF2191222356
:1026900009F4BBCF9F5FB9CFCF93DF93EC01EA85FD
:1026A000FB85309719F06C857D8509958B810E949B
:1026B000520B8C810E94590B0E94DA1286E0FE01B7
:1026C00011928A95E9F7DF91CF910895CF93DF9327
:1026D000EC018D8181FD15C082608D8380916B0539
:1026E0009B81892B80936B058C810E94600B0E94DB
:1026F000DA12E885F985309721F06C857D85CE0169
:10270000099510922A05109229058D8180FD03C03C
:10271000CE010E944C13DF91CF9108958091160154
:10272000877F8093160182E00E94520B80911601F0
:1027300084FF06C08F7E8093160182E00E94600BAA
:102740008091160185FF06C08F7D8093160180E27F
:102750000E94600B0E94DA12089590E080E00E94CF
:10276000E40790E080E00E94CE0710926B050E9483
:10277000DA12089580936A050E94AD13089580913E
:102780006A05982F9670963021F488600E94BA13DB
:102790000895877FFBCF21E030E001C0220F8A95AA
:1027A000EAF7209580916A0582230E94BA13089562
:1027B00090911F028095892380931F02282F2770F4
:1027C00091F4282F082E000C330B9217130659F0A2
:1027D0009091370592FF07C08595859585950E9454
:1027E000CB130E94660B08959091370592FB222728
:1027F00020F9281769F080FB92F9909337058091B2
:102800003605909137050E94D20F82E00E94D813BE
:10281000089521E030E001C0220F8A95EAF7809107
:102820006A05822B0E94BA1308959091370592FF92
:1028300010C098E0899F90011124622B60931F02C1
:102840000E9409140E94EE1190931E0280931D02B3
:1028500008950E9409140895809343020E94AD13C5
:1028600008951092220480911801EAE9F1E088238A
:1028700061F08091360587FF08C08EE1DF011D926F
:102880008A95E9F70E94AD13089586E0F7CFAAE292
:10289000B0E0EDE4F4E10C947B3681E695E0209124
:1028A000F100DC012D93CD01B5E089369B07B9F726
:1028B00080916205833009F472C0B8F4813009F464
:1028C00049C0823009F4B3C08091E80083FF96C20A
:1028D00080916105909162059A3008F08FC2E92FCE
:1028E000F0E0E25CF84C0C94AF368A3009F48EC00C
:1028F0008B3009F471C0893039F7809161058132DC
:1029000019F78091650590916605009711F002977F
:10291000D9F68091E800877F8093E8008091E800F5
:1029200082FF38C09091F3008091F200029731F459
:102930008091F100813011F0863021F48091F10016
:1029400080933D058091E8008B778093E8000E949A
:102950006D06BACF80916105813A09F0B5CF8091BB
:10296000E800877F8093E800809165059091660577
:10297000892B61F460E28EE395E070E00E94190714
:102980008091E8008B778093E8009ECF60E090E034
:1029900080E0F3CF809169058111C0CF95CF809100
:1029A0006105813A09F090CF8091650590916605A7
:1029B000892B09F089CF8091E800877F8093E80018
:1029C0008091E80080FFFCCF809118018093F10096
:1029D0008091E8008E77B9CF80916105813209F04E
:1029E00073CF8091650590916605892B09F06CCFB6
:1029F0008091E800877F8093E8000E946D068091B7
:102A00006305809318010E9431145ECF80916105A7
:102A1000813209F059CF8091E800877F8093E800E8
:102A20000E946D068091640580933C054DCF809196
:102A30006105813A09F048CF8091E800877F809353
:102A4000E8008091E80080FFFCCF80913C05BECF7C
:102A5000803899F0823809F0D1C1809165058F7076
:102A6000873008F0CBC18093E9008091EB0085FBB3
:102A7000882780F91092E90006C080915E05909148
:102A80005F05911182609091E800977F9093E80034
:102A90008093F1001092F1008091E8008E77AAC136
:102AA000882309F498C1823009F0A8C18091630598
:102AB00081119BC1809165058F702FEF280F263003
:102AC00008F09CC18093E9002091EB0020FF8DC1AC
:102AD000933031F48091EB0080628093EB0085C1EC
:102AE0009091EB0090619093EB0021E030E001C009
:102AF000220F8A95EAF72093EA001092EA0080916B
:102B0000EB008860EACF811179C1109163051F77CE
:102B10008091E3008078812B8093E3008091E8002E
:102B2000877F8093E8000E946D068091E80080FF17
:102B3000FCCF8091E30080688093E30082E0111174
:102B400083E0809369055AC18058823008F056C1ED
:102B500020916305309164052C3DE3E03E07A1F52B
:102B600083E08A838AE289834FB7F894DE01139663
:102B700020E03EE051E2E32FF0E050935700E49173
:102B800020FF03C0E295EF703F5FEF708E2F90E063
:102B9000EA30C0F0C7968D939D932F5F243159F78B
:102BA0004FBF8091E800877F8093E8006AE270E081
:102BB000CE0101960E9419078091E8008B778093DF
:102BC000E8001CC1C096E7CF80916505909166052D
:102BD000432F55274330510509F44AC078F5413059
:102BE000510509F485C08BE590E0E7EAF4E0423056
:102BF000510509F003C12091E800277F2093E800E8
:102C000020916705309168058217930708F49C01AD
:102C100040E02115310509F070C041116EC080916E
:102C2000E80082FDC9CF80916905882329F28530AB
:102C300019F28091E80083FFF2CFBECF41325105F7
:102C400009F447C04232510509F0D8C083309105DC
:102C500008F0D4C0FC01EE0FFF1FE657FE4F0190B5
:102C6000F081E02D89579E4FDC018C9190E01DC0D2
:102C7000332721303105E9F02115310579F0223073
:102C80003105F9F02330310509F0B8C0E4E1F5E091
:102C9000E4918E2F90E0E4E1F5E007C0E4E6F5E092
:102CA000E4918E2F90E0E4E6F5E0009709F4A6C0E9
:102CB000A2CFEAE4F5E0E4918E2F90E0EAE4F5E0BB
:102CC000F4CFE2E3F5E0E4918E2F90E0E2E3F5E06B
:102CD000ECCF8330910508F091C0880F991FFC015B
:102CE000E057FE4F0190F081E02D89E090E083CF26
:102CF00082E190E0E2E0F5E07ECF809169058823F3
:102D000009F45ACF853009F457CF8091E80083FD4C
:102D100053CF8091E80082FD82CF8091E80080FF50
:102D200078CF9091F3008091F2002115310519F0D0
:102D30008830910550F041E0089709F040E080911B
:102D4000E8008E778093E80064CF44914093F100CF
:102D50003196215031090196E8CF803809F04EC0F4
:102D60008091E800877F8093E800809160058093E0
:102D7000F10092CE811142C0109163051230F0F53E
:102D80008091E800877F8093E800109360050E949F
:102D90006D06112311F084E005C08091E30087FDEA
:102DA000FACF81E08093690542E061EC81E00E9406
:102DB0008C0642E261EC84E00E948C0642E261EC07
:102DC00082E00E948C0642E260EC83E00E948C0666
:102DD0008091690513C080916305813079F481E0A9
:102DE000933009F080E080935F051092E9008091B4
:102DF000E800877F8093E8000E946D068091E800DC
:102E000083FF0AC08091E800877F8093E80080916B
:102E1000EB0080628093EB00AA96E3E00C94973677
:102E20001F920F920FB60F9211242F933F934F933F
:102E30005F936F937F938F939F93AF93BF93CF9342
:102E4000DF93EF93FF93D091E900DF708091EC0066
:102E5000C82FC17080FDC0E81092E9008091F00099
:102E6000877F8093F00078940E9447141092E900C5
:102E70008091F00088608093F000CD2BCF70C093DC
:102E8000E900FF91EF91DF91CF91BF91AF919F91B9
:102E90008F917F916F915F914F913F912F910F9003
:102EA0000FBE0F901F901895E3E4F4E0128E138E7E
:102EB0008FEA90E09183808385E0848F28E833E176
:102EC0003383228322E330E0378B268B27E830E000
:102ED000318F208F158E178E168E20E530E031A3AE
:102EE00020A382A30E944B0F0E9431141092370539
:102EF00010923605E7E3F5E080818460808380915D
:102F00003605909137050E94D20F0E94120E089547
:102F1000AEE1B0E0EEE8F7E10C947136A090160453
:102F2000B090170481E090E090931704809316040A
:102F300083E8C82E82E0D82E00E0760110E015C0AC
:102F4000F40125913491472D612F802F0E94930F1A
:102F500082E0880E911C7394EAE07E12F1CFF4E1D6
:102F6000EF0EF11C1F5F153019F04701712CE8CFEF
:102F70000F5F84E6C80ED11C0430F9F60E94541786
:102F80001A8219821C821B821E821D8218861F8251
:102F900087E890E09A8789870BED11E04AE050E0DE
:102FA000B801CE0101960E942437065F1F4F0B32F5
:102FB000E2E01E0799F77E01FBE0EF0EF11C8AE0CC
:102FC000F70111928A95E9F74AE050E0B801C7018C
:102FD0000E942437065F1F4F0B37F2E01F07A1F74F
:102FE0007E0185E1E80EF11C8AE0F70111928A95D5
:102FF000E9F78FEF9FEF9A8F898F87E08E8F4AE0F6
:1030000050E0B801C7010E942437065F1F4F0B3CF8
:10301000F2E01F07A1F7B0921704A09216046E9673
:10302000EDE00C948D3680E00E94B90F60E086E2FE
:1030300090E00E9400370E9488170E94830F81E071
:103040000E94B90F089568EE7EEF90E080E00E9444
:103050001E3760E082E090E00E94003760E083E08D
:1030600090E00E9400371092430260E084E090E01C
:103070000E94003764E082E290E00E94003760E046
:1030800085E090E00E94003760E086E090E00E94DA
:1030900000376FEF87E090E00E94003740E050E09B
:1030A000BA0188E090E00E94123760E08DE090E085
:1030B0000E94003740E050E0BA0188E190E00E94B1
:1030C000123760E087E190E00E94003740E050E076
:1030D000BA018CE190E00E94123770E060E080E27B
:1030E00090E00E941E3740E050E0BA0188E190E095
:1030F0000E94123780E00E94B90F0E94131840E02E
:1031000050E0BA018FE090E00E94123740E050E0BA
:10311000BA0183E190E00E9412370895CF92DF92C6
:10312000EF92FF928FEF9FEF4430510508F46AC091
:10313000FB01C080D180E280F3800E943114809135
:103140003605C0FA80F9B701A601769567955795BF
:10315000479540FB81F9B701A60122E07695679576
:10316000579547952A95D1F740FB82F9B701A601FB
:1031700033E076956795579547953A95D1F740FB9B
:1031800083F9B701A601E4E07695679557954795D1
:10319000EA95D1F740FB84F9B701A601F5E07695F1
:1031A000679557954795FA95D1F740FB85F9B70193
:1031B000A601A6E07695679557954795AA95D1F70C
:1031C00040FB86F9B701A601B7E07695679557955C
:1031D0004795BA95D1F740FB87F9809336058091E2
:1031E0003705D0FA80F9D1FACC24C0F8C0FA81F9B9
:1031F0008093370580913605909137050E94D20F54
:1032000090E080E0FF90EF90DF90CF9008950E94D3
:1032100031142FEF84E39CE0215080409040E1F78F
:1032200000C0000088E19AE00FB6F894A89580935A
:1032300060000FBE90936000FFCF882321F00E94B2
:10324000520B0E94DA120895882339F090916B0591
:10325000982B90936B050E94DA120895882321F031
:103260000E94590B0E94DA120895882321F00E94CF
:10327000600B0E94DA120895882339F19CEF980FB1
:10328000913A28F40E946D0B0E94DA12089590E2A0
:10329000980F983050F4877091E001C0990F8A958B
:1032A000EAF7892F0E94590BEFCF9BE5980F9330D7
:1032B00028F490E080E00E94E4070895885A87315E
:1032C00020F490E080E00E94CE070895FF920F93D3
:1032D0001F93CF93DF93F82E0091240510912505BD
:1032E0000115110509F449C0109223051092220519
:1032F00010921F0510922005D8011696CD91DC91F1
:103300009E013A9521153F4108F4D07ED1E0C111CC
:1033100001C0D0E0D8011996ED91FC911A97309731
:1033200031F01B966D917C9180E00995D823DD23C7
:1033300039F08CEF8C0F813A30F58C2F0E946D0B99
:10334000FF2099F0E0912405F0912505808584FD0A
:103350000CC080912105882341F0808191819C01DE
:1033600021503109203B3D45A0F00E94DA12109215
:1033700025051092240510922105C801CDB7DEB7AE
:10338000E5E00C9495360E94DA128C2F0E943C19CD
:10339000D7CF0E940708E9CFCF93DF93EC010E94BB
:1033A0003C19CE010E94480C9E01205E3109283054
:1033B000310510F0CD2B29F40E942E19DF91CF9109
:1033C00008950E941D19FACFCF93C82F8823C9F101
:1033D0008CEF8C0F813AB8F580911801882301F1A8
:1033E0008091360587FF1CC0EC2FE695E695E695A3
:1033F000F0E0E856FE4F828190E04C2F477021E0CC
:1034000030E002C0220F331F4A95E2F78223932354
:10341000892B81F08C2F0E946D0B0E94DA120AC05A
:10342000EAE9F1E080EA91E02191C21799F38E1761
:103430009F07D1F76C2F88E991E00E9499070E94BD
:10344000DA12CF91089580E28C0F883048F4C7706B
:1034500081E001C0880FCA95EAF70E94600BEFCFA8
:10346000EBE5EC0FE33040F4F0E0E95CFE4F8081E7
:1034700090E00E94E407E5CFC85AC73110F7EC2F5F
:10348000F0E0EE0FFF1FE65CFE4F808191810E940D
:10349000CE07D7CF1F93CF93DF93182FC09163042C
:1034A000D0916404893321F0C0916104D091620409
:1034B000812F0E94E419209739F4812F0E943C1932
:1034C000DF91CF911F9108958FE99FE00197F1F768
:1034D00000C000002197EFCFB0E0A0E0E2E7FAE102
:1034E0000C947436EC018AE0A82E2881222309F47A
:1034F0008FC02130C9F599818A81913021F42296BB
:103500000E944A1A05C0923029F422960E94E419BA
:103510002196EBCF933021F422960E943C19F8CFEC
:10352000943011F02196F4CF229630E020E0AE01E5
:103530004F5F5F4F8053990B8A30910550F02150B7
:10354000310930F38FE99FE00197F1F700C00000E7
:10355000F6CFA29EB001A39E700D11249C01260FF0
:10356000371F8981EA01E3CFE22FF0E0E856FA4FF6
:10357000B490822F86958695869590E0FC01E85759
:10358000FA4FE4902770F12C022E02C0F594E794D4
:103590000A94E2F731E0E322FF24FC01E858FA4FF5
:1035A000C490D12C022E02C0D594C7940A94E2F79D
:1035B00031E0C322DD24FC01E859FA4F049110E008
:1035C00002C0159507952A95E2F701701127E114BD
:1035D000F10419F081EE0E94E419C114D10419F02C
:1035E00086EE0E94E4198B2D0E944A1AC114D10460
:1035F00019F086EE0E943C19E114F10419F081EEF5
:103600000E943C190115110509F482CF8CE278CF94
:10361000CDB7DEB7EAE00C949036B0E0A0E0E3E18D
:10362000FBE10C9474367C015B01C42FD22FFC01AA
:1036300082818823A9F0409328050E94EE1190937F
:10364000270580932605C77081E001C0880FCA95C1
:10365000EAF70E943519CDB7DEB7EAE00C94903650
:1036600010912805141338C08091260590912705E4
:103670000E94DF116C01B701C5010E94F40FC8164A
:10368000D90650F5C0E2CD0F1D17C1F080E2810FC1
:10369000883048F4177081E0012E01C0880F0A9429
:1036A000EAF70E942E19C83048F481E09D2F9770E8
:1036B00001C0880F9A95EAF70E943519802F0E9461
:1036C0004A1AC83040F6D77081E001C0880FDA95F9
:1036D000EAF70E942E19BFCFC77081E001C0880FA2
:1036E000CA95EAF7F6CFCF93DF93EC010E94480C1E
:1036F0009E01205E31092830310510F0209741F4F9
:103700000E9435198C2F0E94E419DF91CF91089502
:103710000E942419F7CF662329F020916B052260BF
:1037200020936B059C013056211540E2340720F0B0
:10373000305E2115304108F499270E94731B0895CB
:10374000B0E0A0E0E6EAFBE10C9477367C018B0167
:10375000D42E8091160182FF8CC0C0916904D09153
:103760006A04CE15DF0521F0E114F10409F081C0EF
:10377000809116018B7F8093160181FD73C080912B
:10378000670490916804A801481B590B81E02091BF
:103790001401309115014217530708F480E081703D
:1037A000F82E80911601F0FA81F980931601FE013E
:1037B00083E0F695E7958A95E1F7EE71FF27ED5DD9
:1037C000FB4F20813181AE014F70552781E090E0A1
:1037D00002C0880F991F4A95E2F7FF2009F444C000
:1037E000822B932B918380838091220481FF08C0D8
:1037F0008091160180618093160182E00E94590B2E
:103800008091220485FF08C0809116018062809318
:10381000160180E20E94590B6F2DCE010E948B1B76
:10382000DD2031F080915E0485FF02C086FF3BC041
:1038300080916104909162040E949B0D80916904C3
:1038400090916A049C013056211540E2340720F023
:10385000305E2115304108F499270E94CC190E944E
:103860008E131DC081E09BCF80959095822393237A
:10387000B9CFC701992797013056211540E2340787
:1038800028F0305E2115304108F0C7010E94CC19A4
:103890008091690490916A048E159F0501F310933D
:1038A000680400936704CDB7DEB7E7E00C94933665
:1038B000A9E1B0E0EEE5FCE10C946C36942F498B65
:1038C000252F5A8B6B8B7C8B8D8B4C895D89622F5E
:1038D000892F0E947808811109C08091BC019091C4
:1038E000BD0101969093BD018093BC018B8981112C
:1038F00010926B051D861E861F86188A85E0FE01C4
:103900007196DE01199601900D928A95E1F78091EA
:10391000370582FF1EC08091450490914604892B93
:10392000C1F00E94EE1120911D0230911E02821BF7
:10393000930B20914504309146048217930720F0A1
:1039400080911F0282FFE2C10E94C01281110E9479
:10395000470B4C855D856A8589850E9478088111B1
:1039600011C061E0CE0109960E94000F6C018B85A9
:1039700027EFC2162CE5D20681F4882321F181E0DD
:103980008093170129853A854B855C856D857E85F9
:103990008F8598890E94C72BC6C038EFC3163CE5B7
:1039A000D30629F4882379F00E94832CEBCF49EFCA
:1039B000C4164CE5D40639F4882329F08091170108
:1039C0008111F2CFDCCF0FEC14E0512CB12CA12CE3
:1039D00022242394312C2EEF422EF8014081518174
:1039E00088248A94982C20E0822F90E0FC01EE0F2E
:1039F000FF1FE40FF51F608171816115710531F0C2
:103A0000C616D70609F44C012F5FEECFF12CFFEF5D
:103A10008F169F0609F449C0F8014481F090170100
:103A20008F2D411180E0F82FF170FF2EF801E58015
:103A300086819B85992309F4F8C0FF2009F4F5C01D
:103A40006090590470905A04E11013C0A101082C31
:103A500001C0440F0A94EAF7842B868380916B049B
:103A600090916C048615970520F470926C04609216
:103A70006B04C10102C0880F991F2A95E2F70197D4
:103A8000F80126812817190681F48091110590917B
:103A90001205009709F44BC00E94DF1168167906E1
:103AA00008F045C021E0F80124835F28FFEFAF1A3A
:103AB000BF0A095F1F4F28E0A216B10409F08DCF9D
:103AC0008B85882309F40DC1552009F40AC10E9491
:103AD000EE11909312058093110580916E04883049
:103AE00010F591E0980F90936E0498E0FE013996DE
:103AF000DE01119601900D929A95E1F73CE0839FCB
:103B0000C001112481599B4F28E0FE013196DC0150
:103B100001900D922A95E1F72FEF3FEFFC013187DD
:103B20002087D386C2866996E2E10C94883680911C
:103B30000F0550911005982FF0E0E0E0851314C0B8
:103B400090930F05E017F10709F4AFCF90E0FC0167
:103B5000EE0FFF1FE95FFA4FB182A08201968370DA
:103B6000992780931005A1CF682E712CF301EE0FD9
:103B7000FF1FE95FFA4F2081318147E0429FD0016A
:103B8000439FB00D1124A153BB4F6D917C911197B0
:103B9000798F688F40E020E030E0E32FF0E0EE0F17
:103BA000FF1F688D798DE60FF71F8080918081144B
:103BB0009104E1F0F8010190F081E02DFF8BEE8B94
:103BC00020E005C08616970609F44F2D2F5FE22FDF
:103BD000F0E0EE0FFF1F6E897F89E60FF71F60810F
:103BE00071816115710571F73F5FD7CF4423D1F023
:103BF000F801231708F0FD0121E024830E171F07A9
:103C000021F490930F05F42E50CF981305C0AE17F2
:103C1000BF0711F49F5F937093012F5F3F4F822F77
:103C200083708CCFF0E0E0E0F7CF90E0E11020C0AF
:103C3000B10102C0660F771F2A95E2F79B01215060
:103C400031098217930731F4442309F448C0C501B0
:103C50000E948308C101082C01C0880F0A94EAF76A
:103C6000982F9095F801868189238683FE2C1DCF9D
:103C70009C01082C02C0359527950A94E2F7A9010A
:103C800041705527BC016150710986239723892B08
:103C900011F5452B01F1F80182819381892BC1F047
:103CA0001B821C821D821E8249824A820E94EE1162
:103CB0008160582F9D838C83F801828193818F834B
:103CC000988729813A814B816D817E810E94C72B23
:103CD000F8011582BFCFF22FF170EF2EBBCFEF2C82
:103CE000B9CF90910F0580911005981731F00E947F
:103CF000922C552009F446CE16CF0E94352C1092F6
:103D00001205109211050E94B108F3CF82E00E94C3
:103D1000D8131ACEA5E0B0E0E0E9FEE10C947C36C1
:103D20009093190480931804811520E2920730F4CF
:103D30000E94CC192596E2E00C94983680EF898396
:103D40008A831B820E94EE118160782F9D838C8371
:103D500049815A816B818D810E94581CEBCF0F9352
:103D60001F93CF93DF938C01EB0161EC72E08C2FFA
:103D70000E94E00F892BA1F480916104909162046C
:103D80000E949B0DDD27C754DD4F8881F801128208
:103D900018828330F1F048F4813059F0823081F09C
:103DA000DF91CF911F910F9108958430B9F0853044
:103DB000B9F78091C1029091C202009789F306C0C1
:103DC0008091C3029091C402009799F30E948A1EC9
:103DD000E7CF8091C5029091C602F6CF8091C702CD
:103DE0009091C802009791F72091C1023091C202D0
:103DF0008091C3029091C40221153105F1F2009720
:103E000029F7C901E3CFA5E0B0E0E9E0FFE10C94B8
:103E10007C369093190480931804811520E2920750
:103E200030F40E94731B2596E2E00C94983680EFE4
:103E300089838A8381E08B830E94EE118160782FD1
:103E40009D838C8349815A816B818D810E94581C8E
:103E5000EACFCF93DF93EC010E94031F80916104AE
:103E6000909162040E949B0DCE010E948A1EDF91F8
:103E7000CF9108950F931F93CF93DF938C01862FDB
:103E800061EC72E00E94E00F892BB1F4C091C10295
:103E9000D091C202209781F0F8018281833051F4E1
:103EA000CE010E94291FCE010E94291FCE010E942F
:103EB000291F02C08430D0F7DF91CF911F910F915D
:103EC00008950F931F93CF93DF938C01EB0161EC67
:103ED00072E08C2F0E94E00F892B09F05CC0FE017C
:103EE000FF27D80112968C911297E754FD4F81302D
:103EF000B9F415969C9192FF02C080830AC090FF8E
:103F0000FCCF82E080838091C3029091C40200972D
:103F1000B9F48091C1029091C2020097E1F110C002
:103F20008230B9F515968C9182FD28C080FD0BC0BA
:103F300083E080838091C5029091C602009701F1D1
:103F40000E94031F28C084E080838091C702909163
:103F5000C8020097A9F78091C1029091C202009710
:103F6000F9F00E94291F8091C3029091C40200972A
:103F700039F78091C1029091C202E2CF85E080833F
:103F80008091C1029091C202009729F00E94291FDE
:103F9000F0CF86E08083DF91CF911F910F9108953C
:103FA0008091C3029091C402B8CFA7E0B0E0EBEDDE
:103FB000FFE10C946C367C01DC0113964D915C9111
:103FC000149711966C9111978C910E947808811129
:103FD000EEC061E0C7010E94000F8C01F7018281F1
:103FE0008823E1F08091290590912A050097B1F08E
:103FF0000817190799F0FEE08F9FC0011124FC01FA
:10400000E053FD4F20812460208385539D4FDC01C8
:104010000D931C930E94661310926B05F701828129
:10402000882311F40C948928C80182519F45409738
:1040300010F00C947D288FEF93E00E94F2368111EE
:10404000A6C07EEED72ED00E0BEC12E0D11036C0FB
:1040500019821A821B821C8299249A9468012FEF7C
:10406000C21AD20AC8010E94F23689831A828823B2
:1040700009F48DC0813009F07FC0580132E0A30EF1
:10408000B11CC6010E94F236C82E8A83882309F427
:104090007EC0C5010E94F236D82E8FEF8C0D833082
:1040A000D8F4580143E0A40EB11CDB82DD2021F0DE
:1040B000CE0101960E946C1A8501D0CF0115F4E063
:1040C0001F0709F464C0C8010E94F236811101C0C3
:1040D000DA940F5F1F4FBACF8BEF8C0D833030F522
:1040E000C8010396DB825C01DD2031F3580154E006
:1040F000A50EB11C0E94F2368C838823E9F28B81D5
:104100009C818130AFEF9A0710F0982F8827B6E096
:10411000CB1631F0E7E0CE1631F00E94291FCCCF4C
:104120000E94031FC9CF0E948A1EC6CFF4E0CF129F
:10413000C3CF580124E0A20EB11CC80103960E940F
:10414000F236DD2021F1882311F18150990B989EE0
:104150009001999E300D11244D2D4150550BCA01EF
:10416000820F931F019708F4A7CFAFE9BFE0119723
:10417000F1F700C00000F6CFCE0101960E946C1A44
:1041800056019ACF81E00E9409140E94BF138091CA
:104190001F02877061F0D70112968C91882339F045
:1041A0008091370582FF03C082E00E94D8132796D2
:1041B000E2E10C94883681E00E94CB13E6CF82E0E6
:1041C000FBCF823009F0E3C78091C5029091C6020F
:1041D000892B09F4DCC72EE02C9DC0012D9D900D8C
:1041E0001124FC01E053FD4F20812E7F2083855355
:1041F0009D4F0E946613CBC781E080930001C7CF1B
:1042000080910001882309F4A4C6480120EE821A97
:104210009108409042028091BB01482A809122047B
:10422000482A38E08316910408F086C09801277068
:10423000332781E090E001C0880F2A95EAF75520E6
:1042400009F477C0482AD7018D919C910E94C20B36
:1042500021E030E0F90102C0EE0FFF1F8A95E2F77E
:10426000FF83EE8320902405309025056090B801EF
:104270007090B9011D822D81E22FF0E0EE0FFF1F3B
:10428000E457FC4FC080D180C114D10409F4C5C6E5
:10429000411005C0D60112968C91811189C0F6019A
:1042A000838190E02E813F8182239323892B09F41F
:1042B0007FC08085982F977009F487E038E08316D7
:1042C000910408F053C0552009F44CC086958170C4
:1042D000882309F46DC0D601AD90BC900A151B056A
:1042E00019F4552009F464C0C214D30409F460C061
:1042F000D6011D96ED91FC91309721F080818823A5
:1043000009F456C0642DC6010E945808882309F498
:104310004FC00A151B0509F08DC70115110509F4D9
:104320008EC751108EC7A614B70409F041C0512C96
:1043300088C78095482287CF552009F457C6109327
:10434000B9010093B8010E948D0760931B0570931B
:104350001C0580931D0590931E0510922305109255
:10436000220571CF82FB882780F9B2CF552001F159
:104370008170AECF0E943C1982C70497813A9105A3
:1043800058F46A2D88E991E00E949907552009F4B4
:10439000E0C50E94DA12FBCE0E94DA128FE39CE99C
:1043A0000197F1F700C000008A2D0E94E419EECFBA
:1043B0009D819F5F9D835FCFFC012081318102172A
:1043C000130709F0BFC55110BFC51092210580E049
:1043D0000E946619BEC5902F812F03C6F901858101
:1043E00081FF2FC6C9010E944C132BC68091160174
:1043F00081608093160153C6809116018E7F809351
:1044000016010E948E134BC6809116018F7E013ECD
:10441000110531F0053E1105C9F4809116018F7D1B
:10442000809316018091160180FF48C6D70112962D
:104430008C910832110528F50E31110508F072C073
:104440000430110580F5811135C638C6C801905673
:10445000811540E2940720F0905E8115904110F79D
:104460008091160182FF2AC68091600481FD26C6D4
:1044700020E632E040E0B60190E080E00E94A01B20
:104480001DC60933110558F40D32110518F40B320D
:104490001105C9F690915E0492FDD5CF08C004368F
:1044A0001105C1F3D0CF90915E0494FDCCCF882349
:1044B00009F4A8C08091420290912204892B8D7F3B
:1044C000B1F110926A041092690480915E0481FD3A
:1044D0002EC0F80143E0F695E7954A95E1F7EE71B5
:1044E000FF27ED5DFB4F98012F70332781E090E0AF
:1044F00002C0880F991F2A95E2F780959095208138
:104500003181822393239183808360E0C8010E94DC
:104510008B1B809142028D7F0E94AC1282E00E9430
:10452000D81335CE90915E0493FD8DCFC0CF88E037
:10453000F701A0E6B2E001900D928A95E1F71092A2
:104540006202109264021092630280916904909159
:104550006A0408171907D1F520915E0425FF36C0BB
:104560003091160131FF02C026FF30C02091670450
:10457000309168045601A21AB30AB7010E94F40FE1
:10458000A816B90618F58091220481FF08C0809111
:10459000160180618093160182E00E94590B809180
:1045A000220485FF08C08091160180628093160165
:1045B00080E20E94590B60911601669561708091AE
:1045C000690490916A040E948B1BE1CD80914202A4
:1045D00090912204982B2091160191FB21F92093B0
:1045E00016018D7F0E94AC1210936A040093690437
:1045F000D0926804C0926704809116018460809311
:1046000016018CCF970140E0B601C8010E94A01BA3
:10461000BECD053F4CE5140709F463C008F45BC048
:10462000063F8CE5180709F462C0D70112963C9149
:10463000332309F4CCC5109228050330BDE51B07D0
:1046400008F061C00A3FECE51E0730F4C801825053
:104650009C45449708F063C00E94270F909337054C
:104660008093360502315CE5150709F49EC108F018
:10467000EEC009309CE5190709F475C108F0B8C00F
:104680000530BCE51B0709F462C108F09FC0033088
:10469000FCE51F0709F453C108F055C180913605A8
:1046A000816002303CE5130709F4CEC080913605E5
:1046B000909137050E94D20F0E94311468CD07E215
:1046C00025EE45EE68ED7CE514C506E221EE40EEF0
:1046D00063EF7CE50EC507E225EE44EE64EF7CE572
:1046E00008C506E221EE42EE65EF7CE502C507E271
:1046F00025EE46EE66EF7CE5FCC408E221E045EEDF
:1047000069ED7CE5F6C4053AFDE51F0709F4A4CF81
:1047100008F055C001364DE5140709F49DCF063168
:104720008CE5180709F458C50A355DE5150709F445
:1047300095C108F06EC101159CE5190709F474C113
:104740000E3D1C4509F47DC1F701868197810097D4
:1047500009F488C10E94C609182F092FF701C280E9
:10476000D580D2943FE0D32280911F028770C1F0A0
:10477000AC2CCC20B1F0892F807F803421F080E2F6
:10478000810F883068F08091370582FF09C082E090
:104790000E94D81380911F028770AA24A3948111CC
:1047A000A12C902E92942FE09222FBE0F91508F4B0
:1047B000E6C1E92DF0E0E85BF84C0C94AF36C80197
:1047C0008D5A9D45039708F0AACF46CF80913605B4
:1047D000806207304CE51407B9F18091360580619D
:1047E00008305CE5150780F18091360580642CC0A7
:1047F0000D308CE5180709F4C0C090F4809136059F
:104800008E7F0B30ACE51A07F9F0809136058C608D
:104810000C30BCE51B07C0F0809136058D7F14C0BD
:104820000F30ECE51E0709F4B8C008F4AAC0003147
:104830002CE5120709F4B5C0809136058F7B013154
:104840003CE5130709F032CF809336052FCF0F3F99
:104850004CE5140709F4B3C0A8F50A3F8CE5180726
:1048600009F479C0C0F40431ACE51A0709F4B5C005
:1048700008F4A1C00531ECE51E0709F017CF8091BF
:10488000360582FB992790F921E0922790FB82F967
:1048900090FB83F9D9CF0C3FFCE51F0709F475C0E5
:1048A00008F45DC00D3F3CE5130709F472C0809128
:1048B000370583600E3F4CE5140709F0F7CE80936F
:1048C0003705F4CE01365DE5150709F491C090F483
:1048D00001309DE5190709F489C008F474C060E04F
:1048E0000230BDE51B0709F0E1CE8EE090E00E94AA
:1048F0000037DCCE0D3AEDE51E07E9F060F490914B
:104900003605892F8E7F90FF8160053A2DE51207CD
:1049100009F49ACFCBCE0E3A3DE5130751F10F3A89
:104920004DE5140709F0C2CE90913705892F877F96
:1049300093FF8860C4CF809137058860C0CF809195
:104940003605826081CF8091360584607DCF80916D
:104950003605886079CF809137058160B0CF80912E
:1049600037058260ACCF0E94311480913605806893
:104970006BCF80913705877FA2CF809136058B7FE3
:1049800063CF80913605877F5FCF809137058E7F1B
:1049900096CF809137058D7F92CF809136058F7E9F
:1049A00053CF809136058F7D4FCF0E943114809177
:1049B00036058F7749CF80913605837F45CF80912B
:1049C00037058C7F7CCF80913705982F909591701B
:1049D0008E7F892B90FB81F972CF0E9431149091C8
:1049E0003605892F97FB87F980582ECF61E07DCF60
:1049F00090913605892F8F7E94FF806125CF80911D
:104A0000BA01811104C089E20E946D0BC2CC85E31A
:104A1000FBCF0C35BDE51B07B9F010F1073A1D457A
:104A200009F092CE0E9407190E9431142FEF34E34F
:104A30004CE0215030404040E1F700C000000E94AF
:104A40007C070E942318EECF8091370582FB8827D0
:104A500080F991E089270E94F41376CE81E0FBCFA4
:104A600080E0F9CF828100811181882369F0C8013B
:104A70000E94840ED82E682FC8010E94F60BB80140
:104A80008D2D0E94670E66CEC8010E94C20BD82EE3
:104A9000F6CF202F2F70B22E802F807F19F0B29486
:104AA00090EFB922CC20A9F0BB2059F080E2810F11
:104AB000883010F0111107C08B2D0E94600B0E94EE
:104AC000DA12812F5AC080916B05B82AB0926B051B
:104AD000F6CF812F0E943C19BB2009F450C080E220
:104AE000810F883010F0111104C08B2D0E94590BDA
:104AF00003C08B2D0E94520B0E94DA1240C0302F4F
:104B00003F70B32E802F807F803219F0B29480EFF7
:104B1000B822112321F1113009F4AEC0CC2009F4E0
:104B2000B7C0DD2009F47FC020E0D7014C91119679
:104B30005C91119712966C91129713967C91139732
:104B400014968C910E94DD0E8091600481FDB9CF96
:104B5000F701858180FFB5CF8F70858364C0809118
:104B6000370582FD40C0CC20C1F1BB2029F08B2D40
:104B70000E94600B0E94DA1280E00E94E419A92DC5
:104B8000A850BB0B149710F40E94FA07812F902FA6
:104B90000E942D0C8111B7C11092BD011092BC0171
:104BA000AA20B1F080911F0280FD12C0D701129699
:104BB0001C928595859585950E940914C7010E94D0
:104BC000D51F80911F028595859585950E94CB13F1
:104BD00060E0C7010E94000FEACA80E00E943C1911
:104BE000BB2069F282CFCC2011F1D11004C080919A
:104BF00042028B2919C041E0D41206C080914202C2
:104C00008B290E94AC12BBCF80915F04823078F375
:104C1000D812EDCF0E94470B9091BB018B2D892BB1
:104C200089138093BB018B2D0E943519A8CFD11019
:104C300003C00E94470B17C080915F0451E0D5125A
:104C400016C0823008F49BCF809122048B2109F496
:104C500096CF0E94470B9091BB018B2D80958923A5
:104C600089138093BB018B2D0E942E1988CF82302F
:104C700000F3D812DECF83CF80916504CC2021F0E1
:104C80008D1508F47CCFCFCFD81608F078CFEBCFB6
:104C9000DD2049F38091630490916404193321F07D
:104CA00080916104909162040E949B0D812F0E946B
:104CB0003C1965CF802F86958695837069F0813089
:104CC00009F05DCF812F902F9370C11002C090E04A
:104CD00080E00E94CE0753CF812F902F9370C11098
:104CE00002C090E080E00E94E40749CF802F8370EB
:104CF00091F5C11044CF412F429546954770440F1E
:104D0000440F812F8F70042E01C0880F0A94EAF798
:104D1000212F207114FF07C02FE030E001C0220FC7
:104D20004A95EAF72095302F369536953370323014
:104D300069F050F440914302313029F0822B8423F2
:104D40000E942C141CCF842B822BFACF282B80910D
:104D500043028227F5CF8695CC2011F0802F8170F9
:104D6000882309F40CCF412F429546954770440F94
:104D7000440F812F8F70042E01C0880F0A94EAF728
:104D8000212F207114FF07C02FE030E001C0220F57
:104D90004A95EAF72095302F3695369533703230A4
:104DA00069F050F440916A05313029F0822B842358
:104DB0000E94BA13E4CE842B822BFACF282B809149
:104DC0006A058227F5CFF02FFF70BF2ECC2029F087
:104DD0008F2F0E940914812F27CF812F0E942E1917
:104DE0008B2D0E94CB13CBCE123F89F160F4103F84
:104DF000B9F0113F81F0CC2009F480C0D11061CE10
:104E0000802F8F7128C0133F49F1143FA1F7809183
:104E1000370582FD2FC0802F8F71CC2011F31BC06E
:104E200080916504CC2079F0D81608F0A8CE202F08
:104E30002F7181E090E001C0880F2A95EAF79091E8
:104E40006A058927B5CF8D1508F499CEF0CF802F4C
:104E50008F71C110C6CF0E94091491CE80E0CC2082
:104E600009F4A6CF81E0902F9F7101C0880F9A9519
:104E7000EAF79ECF80915F04823040F1CC20D1F0E0
:104E800090911F029770943041F40E94660B802F1E
:104E90008F710E94CB13A12C72CED816E0F7202F71
:104EA0002F71B22E822F0E94091463E08B2D0E9475
:104EB0001514F1CFD81630F00E94660B64E0802FF5
:104EC0008F71F5CF81E00E94D813E5CFCC2059F047
:104ED000302F3F71B32E832F0E94091463E08B2D76
:104EE0000E9415144CCE81E00E94D81341E04D156C
:104EF00008F045CE82E00E94D81341CED110CACE30
:104F0000802F8F716ECFCC2019F0D11045CE48CEB6
:104F1000D11042CE20E0F70140815181628173813E
:104F200084810E94DD0E8091600483FF35CE8091E4
:104F3000BC019091BD01029709F02ECE812F0E94F5
:104F40004A1A2ACE552029F0DC0118968C9185FF4B
:104F50003ECAC80197558F3F910511F008F071C006
:104F60005801BB24BEE00B9FF00111249F01255383
:104F70003D4F6901D70112968C91E053FD4F90810E
:104F800080FB90F99083882309F428CA0E94EE11CF
:104F900090935F0280935E02F60182818F5F82832D
:104FA00080916B0590912204892B8383809142022A
:104FB00084830680F781E02D309731F0D6011C966E
:104FC0006D917C91C60109958EE08A9DF0018B9DC3
:104FD000F00D1124E553FD4F858181FFFCC990E060
:104FE00080E09093290580932A052BC08091B80119
:104FF0009091B9010817190781F41092B901109224
:10500000B80110921B0510921C0510921D051092FC
:105010001E0510922305109222058091240590917F
:105020002505009709F495CFA8E08A16910408F0A9
:10503000C3C9642D0E945808811103C081E00E94F9
:10504000661980915E0480FF39C00E94EE116C01E8
:10505000D70112968C91882309F4D6C98091160144
:1050600082FF08C020E632E040E0B60190E080E038
:105070000E94A01B0B31BCE51B0709F4B7C90C311A
:10508000ECE51E0709F4B8C990911601892F8E7FAF
:1050900090FF81600A31FCE51F0709F4B0C9C8011F
:1050A0009056811520E2920728F0905E811590417C
:1050B00008F0B8C910926A0410926904033FBCE575
:1050C0001B0709F402CB08F0A4CA083DFCE51F0742
:1050D00009F4F5CA093D2CE5120709F40ECB073D8A
:1050E0003CE5130709F0A1CA06E221EE41EE67EDA7
:1050F0007CE5C7010E940D1B4AC80031FFE51F0770
:1051000009F440C801312FE5120709F040C082E0E0
:105110003AC800313FE5130709F44DC801314FE5A6
:10512000140709F44CC86801E7E5DE1AFFEFCF1653
:10513000D10409F060F561EC72E08C2D0E94E00F63
:10514000892B29F58EE08C9DF0018D9DF00D1124A9
:10515000E553FD4F8281813009F033C88091C1024F
:105160009091C202892B99F08091C3029091C40260
:10517000892B69F08091C5029091C6022091C702E7
:105180003091C802822B932B892B09F424C8D701B4
:1051900012965C90552009F433C80F35BDE51B0706
:1051A00009F42AC80036EDE51E0751F00E35FDE57D
:1051B0001F0709F025C880910001882309F41CC845
:1051C0001092000180E00E9466190C94C7200631FD
:1051D0005CE5150709F0B8CA80912204982F9A7AE5
:1051E00020915D0420FF04C0482F447409F090E032
:1051F00021FF04C0482F417109F090E022FF04C054
:10520000482F487809F090E023FF03C0827209F02C
:1052100090E0332309F4F3CB81E0911101C080E0E9
:105220008093BA0169E2911165E388E991E00E94F7
:105230009907AFC8A114B10409F075C8512CB12C5D
:10524000A12C80E00E946619D0922505C092240509
:1052500081E080932105F601858180931F0551101F
:105260000EC0AB2861F0F601808191819C01245031
:105270003109213A310508F07DC80E946D0BD60135
:105280001696AD90BC90C5019A9581159F4110F47A
:10529000E0EEBE2277247394C5010197803B9D45C3
:1052A00008F0712CD6011996ED91FC911A97309760
:1052B00031F01B966D917C9181E0099578227720E1
:1052C00079F0F601868197810E94480C8093200531
:1052D000C501F8E08F16910408F04FC80E94070836
:1052E0000E94DA1253C8B0E0A0E0E9E7F9E20C94BA
:1052F00076368091D801807F31F48091D501C091BC
:105300001C02811107C0CDB7DEB7E8E00C949236DD
:105310002196C7708091DB018C17A9F3F090D3011F
:10532000E090D401C090D601D090D701A6016E2D97
:105330008F2D0E947808D0E08111EACF8E0183E0A2
:10534000000F111F8A95E1F7F801E452FE4F8181A9
:105350008E11DECF80818F11DBCF82818111D8CF7A
:10536000E380F480EC18FD0860E083ED91E00E949A
:10537000000F63ED71E00E94F40FE816F90640F6A5
:105380008091D8018F7080618093D801F801EF512E
:10539000FE4F80818F708061808383ED91E00E9459
:1053A000D51F0E94B80BAFCFA5E1B0E0EAEDF9E25E
:1053B0000C946F368C0185E0F801DE015196019066
:1053C0000D928A95E1F7D8015C9011966C90119737
:1053D0001296EC9012971396CD90DC9060E083EDDE
:1053E00091E00E94000F83EDA82E81E0B82E8090FE
:1053F000D6019090D701A4016091D4018091D3018E
:105400000E9478088111A8C1F090D501F601E81931
:10541000F9094F0160E0FF2009F44BC1C5010E946A
:10542000000FB5010E94F40F7090D80188169906FC
:1054300008F0F2C04091D6015091D701B090D3014D
:10544000A090D401872D807F6A2D09F08CC08B2D10
:105450000E947808FE2C811127C0D80111968C91EA
:1054600011978A1121C08C918B111EC02091D901F6
:105470003091DA0116968D919C9128173907A1F485
:10548000E11012C0872D8F7080618093D80183ED69
:1054900091E00E94D51F8091D801F80185838F2D5E
:1054A0006596EFE00C948B36A601662D852D0E9443
:1054B0007808D82E81E08E25D11080E080FF18C0BA
:1054C0004E2D662D852D0E94980B882389F08091A2
:1054D000600480FF0DC083ED91E00E94D51F88E03D
:1054E000E3EDF1E0DF011D928A95E9F7F12CD7CFCA
:1054F00081E08E25D11080E0B82FB170CB2E80FFD7
:1055000029C04E2D662D852D0E94980BD82E811115
:1055100021C0598A6A8A89899A890E94B30E292FE3
:1055200022952F70223050F0243078F49F7051F083
:10553000F8019581907F31F4FD2CB1CF9F7011F06F
:105540008823D1F3805E8830B8F3C8010E94D51F4C
:10555000DC2CF2CFEE2009F4A2CF8091D80181603B
:105560008093D801C3CF8B2D0E947808811124C06D
:10557000D80111968C9111978A111EC08C918B11B4
:105580001BC02091D9013091DA0116968D919C9122
:1055900017972817390781F4E1100EC015967C92F1
:1055A000C8010E94D51F88E0F801A3EDB1E0019089
:1055B0000D928A95E1F773CFC8010E94C00E88232F
:1055C00039F1EE2029F18091D8018032A0F02091AC
:1055D000D3013091D4013A8729871B86DD86CC869A
:1055E0008E878091D9019091DA01988B8F87CE01B7
:1055F00009960E94D51F88E0F801A3EDB1E0019063
:105600000D928A95E1F70E947329FF24F39447CF06
:10561000C8010E94D51FF9CF872D807F09F45BCF89
:105620009090D3018090D4014091D6015091D70140
:10563000682D892D0E94780881111CC0F801818194
:10564000881118C08081891115C02091D90130912D
:10565000DA01868197812817390761F4E1100AC0C1
:105660007582C8010E94D51F88E0D5011D928A95D8
:10567000E9F715CFC8010E94C00E882349F2EE2039
:1056800039F28091D801803208F4B5CF2091D3014E
:105690003091D4013A8329831B82DD82CC828E83B0
:1056A0008091D9019091DA0198878F83CE0101967C
:1056B000A0CF83ED91E00E94000F63ED71E00E94A6
:1056C000F40F8816990680F6FE2CEE2009F4A0CF80
:1056D000E090D301D090D4014091D6015091D701F0
:1056E0006D2D8E2D0E947808811128C0F8018181CE
:1056F0008D1124C080818E1121C02091D90130915B
:10570000DA018681978128173907C1F480916004F6
:1057100082FD49CF9091D80190FD45CF907F09F44B
:1057200042CF8091D8018583903F09F439CF982FDB
:10573000907F905F8F70892B858332CFC8010E9444
:10574000C00E811158CF8091D80181608093D8011B
:10575000C8010E94D51FA3CEEE2009F459CFC8017D
:105760000E94C00EF82E882309F452CF88E0F80179
:10577000A3EDB1E001900D928A95E1F78091D301FC
:105780009091D4010E94B30E0E94732988CEA0E1AB
:10579000B0E0EDECFBE20C947C3629873A874B872E
:1057A0005C876D877E878F87988BCE0109960E94D4
:1057B000D42981112FC088E0FE013996DE011196AF
:1057C00001900D928A95E1F74C855D856A85898502
:1057D0000E94780881111EC0A091DB01B0E0CD01CC
:1057E00001968770992720911C0228171906E1F06D
:1057F00093E0AA0FBB1F9A95E1F7A452BE4F98E021
:10580000FE01319601900D929A95E1F78093DB01AC
:105810000E94B80B80911C029091DB01891312C089
:105820006096E2E00C9498360E9431141092DB01ED
:1058300010921C0288E0E3EDF1E0DF011D928A95F1
:10584000E9F7E8CFB8E08B9FC001112484529E4F46
:105850000E94D429882321F380911C0290E00196B4
:105860008770992780931C02D5CFEF92FF920F93F8
:105870001F93CF93DF9380916E04882361F0C091D2
:105880006D048CE0F82E80916E04C81748F01092D9
:105890006E0410926D04CDB7DEB7E6E00C9494363A
:1058A000EE24E394EC0EE0926D040C2F10E0CF9DFB
:1058B000E0011124C159DB4F4B815C8169818881F2
:1058C0000E94780881111DC08E819F81892B21F44F
:1058D00088859985019651F4288139814A815B81B7
:1058E0006C817D818E819F810E94C72BF09EF0018B
:1058F000F19EF00D1124E159FB4F14821382109296
:105900006B05CE2DC0CF109212051092110510928A
:1059100017018091100580930F050E94B1080E9425
:10592000352C0895B0E0A0E0E8E9FCE20C946D3677
:10593000C0910F0597E0892E01E010E02CE0322E97
:105940003EEF932E44244394809110058C1309C09C
:105950000E94352C0E94B108CDB7DEB7E1E10C946E
:105960008936D0E0FE01EE0FFF1FE95FFA4F80811C
:105970009181889ED001899EB00D1124A153BB4F07
:1059800014962C911497211158C050906E04EFE694
:10599000F4E030E020E0712C5D01251508F04BC0EB
:1059A000E284F384D501CD90DC906FEF7FEF612C22
:1059B000462D50E0DA01AA0FBB1FAC0DBD1D0D90A6
:1059C000BC91A02D109731F0EA16FB0609F4BA013C
:1059D0006394EECF6F3F7607A9F1D80102C0AA0FFA
:1059E000BB1F6A95E2F77A2AB801062C02C0660F3F
:1059F000771F0A94E2F7AB0141505109741615065E
:105A0000F9F4329EF001339EF00D1124E159FB4F61
:105A1000889ED001899EB00D1124A153BB4F1296D0
:105A20002D913C91139737832683908291829187A1
:105A3000808715964C920E9483082196C37084CF6C
:105A4000148213822F5F3F4F3C96A7CF1F921FB641
:105A50001F9211248F939F93AF93BF938091310531
:105A6000811113C08091320590913305A0913405C6
:105A7000B09135054196A11DB11D809332059093DB
:105A80003305A0933405B0933505BF91AF919F9135
:105A90008F911F901FBE1F901895CDB7DEB7EE9760
:105AA0000FB6F894DEBF0FBECDBF85B7806885BF47
:105AB00085B7806885BF84B7877F84BF0FB6F894A9
:105AC000A8958091600088618093600010926000CA
:105AD0000FBE80E890E00FB6F89480936100909339
